{
	"contracts/ZenyaStake.sol": {
		"ZenyaStake": {
			"abi": [
				{
					"inputs": [],
					"stateMutability": "nonpayable",
					"type": "constructor"
				},
				{
					"anonymous": false,
					"inputs": [
						{
							"indexed": true,
							"internalType": "address",
							"name": "owner",
							"type": "address"
						},
						{
							"indexed": true,
							"internalType": "address",
							"name": "spender",
							"type": "address"
						},
						{
							"indexed": false,
							"internalType": "uint256",
							"name": "value",
							"type": "uint256"
						}
					],
					"name": "Approval",
					"type": "event"
				},
				{
					"anonymous": false,
					"inputs": [
						{
							"indexed": true,
							"internalType": "address",
							"name": "previousOwner",
							"type": "address"
						},
						{
							"indexed": true,
							"internalType": "address",
							"name": "newOwner",
							"type": "address"
						}
					],
					"name": "OwnershipTransferred",
					"type": "event"
				},
				{
					"anonymous": false,
					"inputs": [
						{
							"indexed": true,
							"internalType": "address",
							"name": "from",
							"type": "address"
						},
						{
							"indexed": true,
							"internalType": "address",
							"name": "to",
							"type": "address"
						},
						{
							"indexed": false,
							"internalType": "uint256",
							"name": "value",
							"type": "uint256"
						}
					],
					"name": "Transfer",
					"type": "event"
				},
				{
					"inputs": [],
					"name": "_buyTokenPrice",
					"outputs": [
						{
							"internalType": "uint256",
							"name": "",
							"type": "uint256"
						}
					],
					"stateMutability": "view",
					"type": "function"
				},
				{
					"inputs": [],
					"name": "_owner",
					"outputs": [
						{
							"internalType": "address",
							"name": "",
							"type": "address"
						}
					],
					"stateMutability": "view",
					"type": "function"
				},
				{
					"inputs": [
						{
							"internalType": "address",
							"name": "_stakeholder",
							"type": "address"
						}
					],
					"name": "addStakeholder",
					"outputs": [],
					"stateMutability": "nonpayable",
					"type": "function"
				},
				{
					"inputs": [
						{
							"internalType": "address",
							"name": "owner",
							"type": "address"
						},
						{
							"internalType": "address",
							"name": "spender",
							"type": "address"
						}
					],
					"name": "allowance",
					"outputs": [
						{
							"internalType": "uint256",
							"name": "",
							"type": "uint256"
						}
					],
					"stateMutability": "view",
					"type": "function"
				},
				{
					"inputs": [
						{
							"internalType": "address",
							"name": "spender",
							"type": "address"
						},
						{
							"internalType": "uint256",
							"name": "amount",
							"type": "uint256"
						}
					],
					"name": "approve",
					"outputs": [
						{
							"internalType": "bool",
							"name": "",
							"type": "bool"
						}
					],
					"stateMutability": "nonpayable",
					"type": "function"
				},
				{
					"inputs": [
						{
							"internalType": "address",
							"name": "account",
							"type": "address"
						}
					],
					"name": "balanceOf",
					"outputs": [
						{
							"internalType": "uint256",
							"name": "",
							"type": "uint256"
						}
					],
					"stateMutability": "view",
					"type": "function"
				},
				{
					"inputs": [
						{
							"internalType": "address",
							"name": "receiver",
							"type": "address"
						}
					],
					"name": "buyToken",
					"outputs": [],
					"stateMutability": "payable",
					"type": "function"
				},
				{
					"inputs": [
						{
							"internalType": "address",
							"name": "_stakeholder",
							"type": "address"
						}
					],
					"name": "calculateReward",
					"outputs": [
						{
							"internalType": "uint256",
							"name": "",
							"type": "uint256"
						}
					],
					"stateMutability": "view",
					"type": "function"
				},
				{
					"inputs": [
						{
							"internalType": "uint256",
							"name": "_stake",
							"type": "uint256"
						}
					],
					"name": "createStake",
					"outputs": [],
					"stateMutability": "nonpayable",
					"type": "function"
				},
				{
					"inputs": [],
					"name": "decimals",
					"outputs": [
						{
							"internalType": "uint8",
							"name": "",
							"type": "uint8"
						}
					],
					"stateMutability": "view",
					"type": "function"
				},
				{
					"inputs": [
						{
							"internalType": "address",
							"name": "spender",
							"type": "address"
						},
						{
							"internalType": "uint256",
							"name": "subtractedValue",
							"type": "uint256"
						}
					],
					"name": "decreaseAllowance",
					"outputs": [
						{
							"internalType": "bool",
							"name": "",
							"type": "bool"
						}
					],
					"stateMutability": "nonpayable",
					"type": "function"
				},
				{
					"inputs": [],
					"name": "distributeRewards",
					"outputs": [],
					"stateMutability": "nonpayable",
					"type": "function"
				},
				{
					"inputs": [
						{
							"internalType": "address",
							"name": "spender",
							"type": "address"
						},
						{
							"internalType": "uint256",
							"name": "addedValue",
							"type": "uint256"
						}
					],
					"name": "increaseAllowance",
					"outputs": [
						{
							"internalType": "bool",
							"name": "",
							"type": "bool"
						}
					],
					"stateMutability": "nonpayable",
					"type": "function"
				},
				{
					"inputs": [
						{
							"internalType": "address",
							"name": "_address",
							"type": "address"
						}
					],
					"name": "isStakeholder",
					"outputs": [
						{
							"internalType": "bool",
							"name": "",
							"type": "bool"
						},
						{
							"internalType": "uint256",
							"name": "",
							"type": "uint256"
						}
					],
					"stateMutability": "view",
					"type": "function"
				},
				{
					"inputs": [],
					"name": "name",
					"outputs": [
						{
							"internalType": "string",
							"name": "",
							"type": "string"
						}
					],
					"stateMutability": "view",
					"type": "function"
				},
				{
					"inputs": [],
					"name": "owner",
					"outputs": [
						{
							"internalType": "address",
							"name": "",
							"type": "address"
						}
					],
					"stateMutability": "view",
					"type": "function"
				},
				{
					"inputs": [
						{
							"internalType": "uint256",
							"name": "_stake",
							"type": "uint256"
						}
					],
					"name": "removeStake",
					"outputs": [],
					"stateMutability": "nonpayable",
					"type": "function"
				},
				{
					"inputs": [
						{
							"internalType": "address",
							"name": "_stakeholder",
							"type": "address"
						}
					],
					"name": "removeStakeholder",
					"outputs": [],
					"stateMutability": "nonpayable",
					"type": "function"
				},
				{
					"inputs": [],
					"name": "renounceOwnership",
					"outputs": [],
					"stateMutability": "nonpayable",
					"type": "function"
				},
				{
					"inputs": [
						{
							"internalType": "address",
							"name": "_stakeholder",
							"type": "address"
						}
					],
					"name": "rewardOf",
					"outputs": [
						{
							"internalType": "uint256",
							"name": "",
							"type": "uint256"
						}
					],
					"stateMutability": "view",
					"type": "function"
				},
				{
					"inputs": [
						{
							"internalType": "uint256",
							"name": "buyPrice",
							"type": "uint256"
						}
					],
					"name": "setTokenBuyPrice",
					"outputs": [],
					"stateMutability": "nonpayable",
					"type": "function"
				},
				{
					"inputs": [
						{
							"internalType": "address",
							"name": "_stakeholder",
							"type": "address"
						}
					],
					"name": "stakeOf",
					"outputs": [
						{
							"internalType": "uint256",
							"name": "",
							"type": "uint256"
						}
					],
					"stateMutability": "view",
					"type": "function"
				},
				{
					"inputs": [],
					"name": "symbol",
					"outputs": [
						{
							"internalType": "string",
							"name": "",
							"type": "string"
						}
					],
					"stateMutability": "view",
					"type": "function"
				},
				{
					"inputs": [],
					"name": "totalRewards",
					"outputs": [
						{
							"internalType": "uint256",
							"name": "",
							"type": "uint256"
						}
					],
					"stateMutability": "view",
					"type": "function"
				},
				{
					"inputs": [],
					"name": "totalSupply",
					"outputs": [
						{
							"internalType": "uint256",
							"name": "",
							"type": "uint256"
						}
					],
					"stateMutability": "view",
					"type": "function"
				},
				{
					"inputs": [
						{
							"internalType": "address",
							"name": "to",
							"type": "address"
						},
						{
							"internalType": "uint256",
							"name": "amount",
							"type": "uint256"
						}
					],
					"name": "transfer",
					"outputs": [
						{
							"internalType": "bool",
							"name": "",
							"type": "bool"
						}
					],
					"stateMutability": "nonpayable",
					"type": "function"
				},
				{
					"inputs": [
						{
							"internalType": "address",
							"name": "from",
							"type": "address"
						},
						{
							"internalType": "address",
							"name": "to",
							"type": "address"
						},
						{
							"internalType": "uint256",
							"name": "amount",
							"type": "uint256"
						}
					],
					"name": "transferFrom",
					"outputs": [
						{
							"internalType": "bool",
							"name": "",
							"type": "bool"
						}
					],
					"stateMutability": "nonpayable",
					"type": "function"
				},
				{
					"inputs": [
						{
							"internalType": "address",
							"name": "newOwner",
							"type": "address"
						}
					],
					"name": "transferOwnership",
					"outputs": [],
					"stateMutability": "nonpayable",
					"type": "function"
				},
				{
					"inputs": [],
					"name": "withdrawReward",
					"outputs": [],
					"stateMutability": "nonpayable",
					"type": "function"
				},
				{
					"inputs": [],
					"name": "zenyaPerEth",
					"outputs": [
						{
							"internalType": "uint256",
							"name": "",
							"type": "uint256"
						}
					],
					"stateMutability": "view",
					"type": "function"
				}
			],
			"devdoc": {
				"kind": "dev",
				"methods": {
					"allowance(address,address)": {
						"details": "See {IERC20-allowance}."
					},
					"approve(address,uint256)": {
						"details": "See {IERC20-approve}. NOTE: If `amount` is the maximum `uint256`, the allowance is not updated on `transferFrom`. This is semantically equivalent to an infinite approval. Requirements: - `spender` cannot be the zero address."
					},
					"balanceOf(address)": {
						"details": "See {IERC20-balanceOf}."
					},
					"decimals()": {
						"details": "Returns the number of decimals used to get its user representation. For example, if `decimals` equals `2`, a balance of `505` tokens should be displayed to a user as `5.05` (`505 / 10 ** 2`). Tokens usually opt for a value of 18, imitating the relationship between Ether and Wei. This is the value {ERC20} uses, unless this function is overridden; NOTE: This information is only used for _display_ purposes: it in no way affects any of the arithmetic of the contract, including {IERC20-balanceOf} and {IERC20-transfer}."
					},
					"decreaseAllowance(address,uint256)": {
						"details": "Atomically decreases the allowance granted to `spender` by the caller. This is an alternative to {approve} that can be used as a mitigation for problems described in {IERC20-approve}. Emits an {Approval} event indicating the updated allowance. Requirements: - `spender` cannot be the zero address. - `spender` must have allowance for the caller of at least `subtractedValue`."
					},
					"increaseAllowance(address,uint256)": {
						"details": "Atomically increases the allowance granted to `spender` by the caller. This is an alternative to {approve} that can be used as a mitigation for problems described in {IERC20-approve}. Emits an {Approval} event indicating the updated allowance. Requirements: - `spender` cannot be the zero address."
					},
					"name()": {
						"details": "Returns the name of the token."
					},
					"owner()": {
						"details": "Returns the address of the current owner."
					},
					"renounceOwnership()": {
						"details": "Leaves the contract without owner. It will not be possible to call `onlyOwner` functions anymore. Can only be called by the current owner. NOTE: Renouncing ownership will leave the contract without an owner, thereby removing any functionality that is only available to the owner."
					},
					"symbol()": {
						"details": "Returns the symbol of the token, usually a shorter version of the name."
					},
					"totalSupply()": {
						"details": "See {IERC20-totalSupply}."
					},
					"transfer(address,uint256)": {
						"details": "See {IERC20-transfer}. Requirements: - `to` cannot be the zero address. - the caller must have a balance of at least `amount`."
					},
					"transferFrom(address,address,uint256)": {
						"details": "See {IERC20-transferFrom}. Emits an {Approval} event indicating the updated allowance. This is not required by the EIP. See the note at the beginning of {ERC20}. NOTE: Does not update the allowance if the current allowance is the maximum `uint256`. Requirements: - `from` and `to` cannot be the zero address. - `from` must have a balance of at least `amount`. - the caller must have allowance for ``from``'s tokens of at least `amount`."
					},
					"transferOwnership(address)": {
						"details": "Transfers ownership of the contract to a new account (`newOwner`). Can only be called by the current owner."
					}
				},
				"version": 1
			},
			"evm": {
				"assembly": "    /* \"contracts/ZenyaStake.sol\":173:5194  contract ZenyaStake is ERC20, Ownable  {\r... */\n  mstore(0x40, 0x80)\n    /* \"contracts/ZenyaStake.sol\":958:1061  constructor() ERC20(\"ZenyaStake\", \"ZNYS\") {\r... */\n  callvalue\n  dup1\n  iszero\n  tag_1\n  jumpi\n  0x00\n  dup1\n  revert\ntag_1:\n  pop\n    /* \"@openzeppelin/contracts/token/ERC20/ERC20.sol\":1978:2091  constructor(string memory name_, string memory symbol_) {... */\n  mload(0x40)\n  dup1\n  0x40\n  add\n  0x40\n  mstore\n  dup1\n  0x0a\n  dup2\n  mstore\n  0x20\n  add\n  0x5a656e79615374616b6500000000000000000000000000000000000000000000\n  dup2\n  mstore\n  pop\n  mload(0x40)\n  dup1\n  0x40\n  add\n  0x40\n  mstore\n  dup1\n  0x04\n  dup2\n  mstore\n  0x20\n  add\n  0x5a4e595300000000000000000000000000000000000000000000000000000000\n  dup2\n  mstore\n  pop\n    /* \"@openzeppelin/contracts/token/ERC20/ERC20.sol\":2052:2057  name_ */\n  dup2\n    /* \"@openzeppelin/contracts/token/ERC20/ERC20.sol\":2044:2049  _name */\n  0x03\n    /* \"@openzeppelin/contracts/token/ERC20/ERC20.sol\":2044:2057  _name = name_ */\n  swap1\n  dup1\n  mload\n  swap1\n  0x20\n  add\n  swap1\n  tag_6\n  swap3\n  swap2\n  swap1\n  tag_7\n  jump\t// in\ntag_6:\n  pop\n    /* \"@openzeppelin/contracts/token/ERC20/ERC20.sol\":2077:2084  symbol_ */\n  dup1\n    /* \"@openzeppelin/contracts/token/ERC20/ERC20.sol\":2067:2074  _symbol */\n  0x04\n    /* \"@openzeppelin/contracts/token/ERC20/ERC20.sol\":2067:2084  _symbol = symbol_ */\n  swap1\n  dup1\n  mload\n  swap1\n  0x20\n  add\n  swap1\n  tag_8\n  swap3\n  swap2\n  swap1\n  tag_7\n  jump\t// in\ntag_8:\n  pop\n    /* \"@openzeppelin/contracts/token/ERC20/ERC20.sol\":1978:2091  constructor(string memory name_, string memory symbol_) {... */\n  pop\n  pop\n    /* \"@openzeppelin/contracts/access/Ownable.sol\":921:953  _transferOwnership(_msgSender()) */\n  tag_10\n    /* \"@openzeppelin/contracts/access/Ownable.sol\":940:952  _msgSender() */\n  tag_11\n    /* \"@openzeppelin/contracts/access/Ownable.sol\":940:950  _msgSender */\n  shl(0x20, tag_12)\n    /* \"@openzeppelin/contracts/access/Ownable.sol\":940:952  _msgSender() */\n  0x20\n  shr\n  jump\t// in\ntag_11:\n    /* \"@openzeppelin/contracts/access/Ownable.sol\":921:939  _transferOwnership */\n  shl(0x20, tag_13)\n    /* \"@openzeppelin/contracts/access/Ownable.sol\":921:953  _transferOwnership(_msgSender()) */\n  0x20\n  shr\n  jump\t// in\ntag_10:\n    /* \"contracts/ZenyaStake.sol\":1011:1053  _mint(msg.sender, 1000 * 10 ** decimals()) */\n  tag_15\n    /* \"contracts/ZenyaStake.sol\":1017:1027  msg.sender */\n  caller\n    /* \"contracts/ZenyaStake.sol\":1042:1052  decimals() */\n  tag_16\n    /* \"contracts/ZenyaStake.sol\":1042:1050  decimals */\n  shl(0x20, tag_17)\n    /* \"contracts/ZenyaStake.sol\":1042:1052  decimals() */\n  0x20\n  shr\n  jump\t// in\ntag_16:\n    /* \"contracts/ZenyaStake.sol\":1036:1038  10 */\n  0x0a\n    /* \"contracts/ZenyaStake.sol\":1036:1052  10 ** decimals() */\n  tag_18\n  swap2\n  swap1\n  tag_19\n  jump\t// in\ntag_18:\n    /* \"contracts/ZenyaStake.sol\":1029:1033  1000 */\n  0x03e8\n    /* \"contracts/ZenyaStake.sol\":1029:1052  1000 * 10 ** decimals() */\n  tag_20\n  swap2\n  swap1\n  tag_21\n  jump\t// in\ntag_20:\n    /* \"contracts/ZenyaStake.sol\":1011:1016  _mint */\n  shl(0x20, tag_22)\n    /* \"contracts/ZenyaStake.sol\":1011:1053  _mint(msg.sender, 1000 * 10 ** decimals()) */\n  0x20\n  shr\n  jump\t// in\ntag_15:\n    /* \"contracts/ZenyaStake.sol\":173:5194  contract ZenyaStake is ERC20, Ownable  {\r... */\n  jump(tag_23)\n    /* \"@openzeppelin/contracts/utils/Context.sol\":640:736  function _msgSender() internal view virtual returns (address) {... */\ntag_12:\n    /* \"@openzeppelin/contracts/utils/Context.sol\":693:700  address */\n  0x00\n    /* \"@openzeppelin/contracts/utils/Context.sol\":719:729  msg.sender */\n  caller\n    /* \"@openzeppelin/contracts/utils/Context.sol\":712:729  return msg.sender */\n  swap1\n  pop\n    /* \"@openzeppelin/contracts/utils/Context.sol\":640:736  function _msgSender() internal view virtual returns (address) {... */\n  swap1\n  jump\t// out\n    /* \"@openzeppelin/contracts/access/Ownable.sol\":2270:2457  function _transferOwnership(address newOwner) internal virtual {... */\ntag_13:\n    /* \"@openzeppelin/contracts/access/Ownable.sol\":2343:2359  address oldOwner */\n  0x00\n    /* \"@openzeppelin/contracts/access/Ownable.sol\":2362:2368  _owner */\n  0x05\n  0x00\n  swap1\n  sload\n  swap1\n  0x0100\n  exp\n  swap1\n  div\n  0xffffffffffffffffffffffffffffffffffffffff\n  and\n    /* \"@openzeppelin/contracts/access/Ownable.sol\":2343:2368  address oldOwner = _owner */\n  swap1\n  pop\n    /* \"@openzeppelin/contracts/access/Ownable.sol\":2387:2395  newOwner */\n  dup2\n    /* \"@openzeppelin/contracts/access/Ownable.sol\":2378:2384  _owner */\n  0x05\n  0x00\n    /* \"@openzeppelin/contracts/access/Ownable.sol\":2378:2395  _owner = newOwner */\n  0x0100\n  exp\n  dup2\n  sload\n  dup2\n  0xffffffffffffffffffffffffffffffffffffffff\n  mul\n  not\n  and\n  swap1\n  dup4\n  0xffffffffffffffffffffffffffffffffffffffff\n  and\n  mul\n  or\n  swap1\n  sstore\n  pop\n    /* \"@openzeppelin/contracts/access/Ownable.sol\":2441:2449  newOwner */\n  dup2\n    /* \"@openzeppelin/contracts/access/Ownable.sol\":2410:2450  OwnershipTransferred(oldOwner, newOwner) */\n  0xffffffffffffffffffffffffffffffffffffffff\n  and\n    /* \"@openzeppelin/contracts/access/Ownable.sol\":2431:2439  oldOwner */\n  dup2\n    /* \"@openzeppelin/contracts/access/Ownable.sol\":2410:2450  OwnershipTransferred(oldOwner, newOwner) */\n  0xffffffffffffffffffffffffffffffffffffffff\n  and\n  0x8be0079c531659141344cd1fd0a4f28419497f9722a3daafe3b4186f6b6457e0\n  mload(0x40)\n  mload(0x40)\n  dup1\n  swap2\n  sub\n  swap1\n  log3\n    /* \"@openzeppelin/contracts/access/Ownable.sol\":2333:2457  {... */\n  pop\n    /* \"@openzeppelin/contracts/access/Ownable.sol\":2270:2457  function _transferOwnership(address newOwner) internal virtual {... */\n  pop\n  jump\t// out\n    /* \"@openzeppelin/contracts/token/ERC20/ERC20.sol\":3093:3184  function decimals() public view virtual override returns (uint8) {... */\ntag_17:\n    /* \"@openzeppelin/contracts/token/ERC20/ERC20.sol\":3151:3156  uint8 */\n  0x00\n    /* \"@openzeppelin/contracts/token/ERC20/ERC20.sol\":3175:3177  18 */\n  0x12\n    /* \"@openzeppelin/contracts/token/ERC20/ERC20.sol\":3168:3177  return 18 */\n  swap1\n  pop\n    /* \"@openzeppelin/contracts/token/ERC20/ERC20.sol\":3093:3184  function decimals() public view virtual override returns (uint8) {... */\n  swap1\n  jump\t// out\n    /* \"@openzeppelin/contracts/token/ERC20/ERC20.sol\":8415:8804  function _mint(address account, uint256 amount) internal virtual {... */\ntag_22:\n    /* \"@openzeppelin/contracts/token/ERC20/ERC20.sol\":8517:8518  0 */\n  0x00\n    /* \"@openzeppelin/contracts/token/ERC20/ERC20.sol\":8498:8519  account != address(0) */\n  0xffffffffffffffffffffffffffffffffffffffff\n  and\n    /* \"@openzeppelin/contracts/token/ERC20/ERC20.sol\":8498:8505  account */\n  dup3\n    /* \"@openzeppelin/contracts/token/ERC20/ERC20.sol\":8498:8519  account != address(0) */\n  0xffffffffffffffffffffffffffffffffffffffff\n  and\n  eq\n  iszero\n    /* \"@openzeppelin/contracts/token/ERC20/ERC20.sol\":8490:8555  require(account != address(0), \"ERC20: mint to the zero address\") */\n  tag_28\n  jumpi\n  mload(0x40)\n  0x08c379a000000000000000000000000000000000000000000000000000000000\n  dup2\n  mstore\n  0x04\n  add\n  tag_29\n  swap1\n  tag_30\n  jump\t// in\ntag_29:\n  mload(0x40)\n  dup1\n  swap2\n  sub\n  swap1\n  revert\ntag_28:\n    /* \"@openzeppelin/contracts/token/ERC20/ERC20.sol\":8566:8615  _beforeTokenTransfer(address(0), account, amount) */\n  tag_31\n    /* \"@openzeppelin/contracts/token/ERC20/ERC20.sol\":8595:8596  0 */\n  0x00\n    /* \"@openzeppelin/contracts/token/ERC20/ERC20.sol\":8599:8606  account */\n  dup4\n    /* \"@openzeppelin/contracts/token/ERC20/ERC20.sol\":8608:8614  amount */\n  dup4\n    /* \"@openzeppelin/contracts/token/ERC20/ERC20.sol\":8566:8586  _beforeTokenTransfer */\n  shl(0x20, tag_32)\n    /* \"@openzeppelin/contracts/token/ERC20/ERC20.sol\":8566:8615  _beforeTokenTransfer(address(0), account, amount) */\n  0x20\n  shr\n  jump\t// in\ntag_31:\n    /* \"@openzeppelin/contracts/token/ERC20/ERC20.sol\":8642:8648  amount */\n  dup1\n    /* \"@openzeppelin/contracts/token/ERC20/ERC20.sol\":8626:8638  _totalSupply */\n  0x02\n  0x00\n    /* \"@openzeppelin/contracts/token/ERC20/ERC20.sol\":8626:8648  _totalSupply += amount */\n  dup3\n  dup3\n  sload\n  tag_33\n  swap2\n  swap1\n  tag_34\n  jump\t// in\ntag_33:\n  swap3\n  pop\n  pop\n  dup2\n  swap1\n  sstore\n  pop\n    /* \"@openzeppelin/contracts/token/ERC20/ERC20.sol\":8680:8686  amount */\n  dup1\n    /* \"@openzeppelin/contracts/token/ERC20/ERC20.sol\":8658:8667  _balances */\n  0x00\n    /* \"@openzeppelin/contracts/token/ERC20/ERC20.sol\":8658:8676  _balances[account] */\n  dup1\n    /* \"@openzeppelin/contracts/token/ERC20/ERC20.sol\":8668:8675  account */\n  dup5\n    /* \"@openzeppelin/contracts/token/ERC20/ERC20.sol\":8658:8676  _balances[account] */\n  0xffffffffffffffffffffffffffffffffffffffff\n  and\n  0xffffffffffffffffffffffffffffffffffffffff\n  and\n  dup2\n  mstore\n  0x20\n  add\n  swap1\n  dup2\n  mstore\n  0x20\n  add\n  0x00\n  keccak256\n  0x00\n    /* \"@openzeppelin/contracts/token/ERC20/ERC20.sol\":8658:8686  _balances[account] += amount */\n  dup3\n  dup3\n  sload\n  tag_35\n  swap2\n  swap1\n  tag_34\n  jump\t// in\ntag_35:\n  swap3\n  pop\n  pop\n  dup2\n  swap1\n  sstore\n  pop\n    /* \"@openzeppelin/contracts/token/ERC20/ERC20.sol\":8722:8729  account */\n  dup2\n    /* \"@openzeppelin/contracts/token/ERC20/ERC20.sol\":8701:8738  Transfer(address(0), account, amount) */\n  0xffffffffffffffffffffffffffffffffffffffff\n  and\n    /* \"@openzeppelin/contracts/token/ERC20/ERC20.sol\":8718:8719  0 */\n  0x00\n    /* \"@openzeppelin/contracts/token/ERC20/ERC20.sol\":8701:8738  Transfer(address(0), account, amount) */\n  0xffffffffffffffffffffffffffffffffffffffff\n  and\n  0xddf252ad1be2c89b69c2b068fc378daa952ba7f163c4a11628f55a4df523b3ef\n    /* \"@openzeppelin/contracts/token/ERC20/ERC20.sol\":8731:8737  amount */\n  dup4\n    /* \"@openzeppelin/contracts/token/ERC20/ERC20.sol\":8701:8738  Transfer(address(0), account, amount) */\n  mload(0x40)\n  tag_36\n  swap2\n  swap1\n  tag_37\n  jump\t// in\ntag_36:\n  mload(0x40)\n  dup1\n  swap2\n  sub\n  swap1\n  log3\n    /* \"@openzeppelin/contracts/token/ERC20/ERC20.sol\":8749:8797  _afterTokenTransfer(address(0), account, amount) */\n  tag_38\n    /* \"@openzeppelin/contracts/token/ERC20/ERC20.sol\":8777:8778  0 */\n  0x00\n    /* \"@openzeppelin/contracts/token/ERC20/ERC20.sol\":8781:8788  account */\n  dup4\n    /* \"@openzeppelin/contracts/token/ERC20/ERC20.sol\":8790:8796  amount */\n  dup4\n    /* \"@openzeppelin/contracts/token/ERC20/ERC20.sol\":8749:8768  _afterTokenTransfer */\n  shl(0x20, tag_39)\n    /* \"@openzeppelin/contracts/token/ERC20/ERC20.sol\":8749:8797  _afterTokenTransfer(address(0), account, amount) */\n  0x20\n  shr\n  jump\t// in\ntag_38:\n    /* \"@openzeppelin/contracts/token/ERC20/ERC20.sol\":8415:8804  function _mint(address account, uint256 amount) internal virtual {... */\n  pop\n  pop\n  jump\t// out\n    /* \"@openzeppelin/contracts/token/ERC20/ERC20.sol\":11795:11916  function _beforeTokenTransfer(... */\ntag_32:\n  pop\n  pop\n  pop\n  jump\t// out\n    /* \"@openzeppelin/contracts/token/ERC20/ERC20.sol\":12504:12624  function _afterTokenTransfer(... */\ntag_39:\n  pop\n  pop\n  pop\n  jump\t// out\n    /* \"contracts/ZenyaStake.sol\":173:5194  contract ZenyaStake is ERC20, Ownable  {\r... */\ntag_7:\n  dup3\n  dup1\n  sload\n  tag_42\n  swap1\n  tag_43\n  jump\t// in\ntag_42:\n  swap1\n  0x00\n  mstore\n  keccak256(0x00, 0x20)\n  swap1\n  0x1f\n  add\n  0x20\n  swap1\n  div\n  dup2\n  add\n  swap3\n  dup3\n  tag_45\n  jumpi\n  0x00\n  dup6\n  sstore\n  jump(tag_44)\ntag_45:\n  dup3\n  0x1f\n  lt\n  tag_46\n  jumpi\n  dup1\n  mload\n  not(0xff)\n  and\n  dup4\n  dup1\n  add\n  or\n  dup6\n  sstore\n  jump(tag_44)\ntag_46:\n  dup3\n  dup1\n  add\n  0x01\n  add\n  dup6\n  sstore\n  dup3\n  iszero\n  tag_44\n  jumpi\n  swap2\n  dup3\n  add\ntag_47:\n  dup3\n  dup2\n  gt\n  iszero\n  tag_48\n  jumpi\n  dup3\n  mload\n  dup3\n  sstore\n  swap2\n  0x20\n  add\n  swap2\n  swap1\n  0x01\n  add\n  swap1\n  jump(tag_47)\ntag_48:\ntag_44:\n  pop\n  swap1\n  pop\n  tag_49\n  swap2\n  swap1\n  tag_50\n  jump\t// in\ntag_49:\n  pop\n  swap1\n  jump\t// out\ntag_50:\ntag_51:\n  dup1\n  dup3\n  gt\n  iszero\n  tag_52\n  jumpi\n  0x00\n  dup2\n  0x00\n  swap1\n  sstore\n  pop\n  0x01\n  add\n  jump(tag_51)\ntag_52:\n  pop\n  swap1\n  jump\t// out\n    /* \"#utility.yul\":7:373   */\ntag_54:\n    /* \"#utility.yul\":149:152   */\n  0x00\n    /* \"#utility.yul\":170:237   */\n  tag_56\n    /* \"#utility.yul\":234:236   */\n  0x1f\n    /* \"#utility.yul\":229:232   */\n  dup4\n    /* \"#utility.yul\":170:237   */\n  tag_57\n  jump\t// in\ntag_56:\n    /* \"#utility.yul\":163:237   */\n  swap2\n  pop\n    /* \"#utility.yul\":246:339   */\n  tag_58\n    /* \"#utility.yul\":335:338   */\n  dup3\n    /* \"#utility.yul\":246:339   */\n  tag_59\n  jump\t// in\ntag_58:\n    /* \"#utility.yul\":364:366   */\n  0x20\n    /* \"#utility.yul\":359:362   */\n  dup3\n    /* \"#utility.yul\":355:367   */\n  add\n    /* \"#utility.yul\":348:367   */\n  swap1\n  pop\n    /* \"#utility.yul\":7:373   */\n  swap2\n  swap1\n  pop\n  jump\t// out\n    /* \"#utility.yul\":379:497   */\ntag_60:\n    /* \"#utility.yul\":466:490   */\n  tag_62\n    /* \"#utility.yul\":484:489   */\n  dup2\n    /* \"#utility.yul\":466:490   */\n  tag_63\n  jump\t// in\ntag_62:\n    /* \"#utility.yul\":461:464   */\n  dup3\n    /* \"#utility.yul\":454:491   */\n  mstore\n    /* \"#utility.yul\":379:497   */\n  pop\n  pop\n  jump\t// out\n    /* \"#utility.yul\":503:922   */\ntag_30:\n    /* \"#utility.yul\":669:673   */\n  0x00\n    /* \"#utility.yul\":707:709   */\n  0x20\n    /* \"#utility.yul\":696:705   */\n  dup3\n    /* \"#utility.yul\":692:710   */\n  add\n    /* \"#utility.yul\":684:710   */\n  swap1\n  pop\n    /* \"#utility.yul\":756:765   */\n  dup2\n    /* \"#utility.yul\":750:754   */\n  dup2\n    /* \"#utility.yul\":746:766   */\n  sub\n    /* \"#utility.yul\":742:743   */\n  0x00\n    /* \"#utility.yul\":731:740   */\n  dup4\n    /* \"#utility.yul\":727:744   */\n  add\n    /* \"#utility.yul\":720:767   */\n  mstore\n    /* \"#utility.yul\":784:915   */\n  tag_65\n    /* \"#utility.yul\":910:914   */\n  dup2\n    /* \"#utility.yul\":784:915   */\n  tag_54\n  jump\t// in\ntag_65:\n    /* \"#utility.yul\":776:915   */\n  swap1\n  pop\n    /* \"#utility.yul\":503:922   */\n  swap2\n  swap1\n  pop\n  jump\t// out\n    /* \"#utility.yul\":928:1150   */\ntag_37:\n    /* \"#utility.yul\":1021:1025   */\n  0x00\n    /* \"#utility.yul\":1059:1061   */\n  0x20\n    /* \"#utility.yul\":1048:1057   */\n  dup3\n    /* \"#utility.yul\":1044:1062   */\n  add\n    /* \"#utility.yul\":1036:1062   */\n  swap1\n  pop\n    /* \"#utility.yul\":1072:1143   */\n  tag_67\n    /* \"#utility.yul\":1140:1141   */\n  0x00\n    /* \"#utility.yul\":1129:1138   */\n  dup4\n    /* \"#utility.yul\":1125:1142   */\n  add\n    /* \"#utility.yul\":1116:1122   */\n  dup5\n    /* \"#utility.yul\":1072:1143   */\n  tag_60\n  jump\t// in\ntag_67:\n    /* \"#utility.yul\":928:1150   */\n  swap3\n  swap2\n  pop\n  pop\n  jump\t// out\n    /* \"#utility.yul\":1156:1325   */\ntag_57:\n    /* \"#utility.yul\":1240:1251   */\n  0x00\n    /* \"#utility.yul\":1274:1280   */\n  dup3\n    /* \"#utility.yul\":1269:1272   */\n  dup3\n    /* \"#utility.yul\":1262:1281   */\n  mstore\n    /* \"#utility.yul\":1314:1318   */\n  0x20\n    /* \"#utility.yul\":1309:1312   */\n  dup3\n    /* \"#utility.yul\":1305:1319   */\n  add\n    /* \"#utility.yul\":1290:1319   */\n  swap1\n  pop\n    /* \"#utility.yul\":1156:1325   */\n  swap3\n  swap2\n  pop\n  pop\n  jump\t// out\n    /* \"#utility.yul\":1331:1636   */\ntag_34:\n    /* \"#utility.yul\":1371:1374   */\n  0x00\n    /* \"#utility.yul\":1390:1410   */\n  tag_70\n    /* \"#utility.yul\":1408:1409   */\n  dup3\n    /* \"#utility.yul\":1390:1410   */\n  tag_63\n  jump\t// in\ntag_70:\n    /* \"#utility.yul\":1385:1410   */\n  swap2\n  pop\n    /* \"#utility.yul\":1424:1444   */\n  tag_71\n    /* \"#utility.yul\":1442:1443   */\n  dup4\n    /* \"#utility.yul\":1424:1444   */\n  tag_63\n  jump\t// in\ntag_71:\n    /* \"#utility.yul\":1419:1444   */\n  swap3\n  pop\n    /* \"#utility.yul\":1578:1579   */\n  dup3\n    /* \"#utility.yul\":1510:1576   */\n  0xffffffffffffffffffffffffffffffffffffffffffffffffffffffffffffffff\n    /* \"#utility.yul\":1506:1580   */\n  sub\n    /* \"#utility.yul\":1503:1504   */\n  dup3\n    /* \"#utility.yul\":1500:1581   */\n  gt\n    /* \"#utility.yul\":1497:1604   */\n  iszero\n  tag_72\n  jumpi\n    /* \"#utility.yul\":1584:1602   */\n  tag_73\n  tag_74\n  jump\t// in\ntag_73:\n    /* \"#utility.yul\":1497:1604   */\ntag_72:\n    /* \"#utility.yul\":1628:1629   */\n  dup3\n    /* \"#utility.yul\":1625:1626   */\n  dup3\n    /* \"#utility.yul\":1621:1630   */\n  add\n    /* \"#utility.yul\":1614:1630   */\n  swap1\n  pop\n    /* \"#utility.yul\":1331:1636   */\n  swap3\n  swap2\n  pop\n  pop\n  jump\t// out\n    /* \"#utility.yul\":1642:2490   */\ntag_75:\n    /* \"#utility.yul\":1703:1708   */\n  0x00\n    /* \"#utility.yul\":1710:1714   */\n  dup1\n    /* \"#utility.yul\":1734:1740   */\n  dup3\n    /* \"#utility.yul\":1725:1740   */\n  swap2\n  pop\n    /* \"#utility.yul\":1758:1763   */\n  dup4\n    /* \"#utility.yul\":1749:1763   */\n  swap1\n  pop\n    /* \"#utility.yul\":1772:2484   */\ntag_77:\n    /* \"#utility.yul\":1793:1794   */\n  0x01\n    /* \"#utility.yul\":1783:1791   */\n  dup6\n    /* \"#utility.yul\":1780:1795   */\n  gt\n    /* \"#utility.yul\":1772:2484   */\n  iszero\n  tag_79\n  jumpi\n    /* \"#utility.yul\":1888:1892   */\n  dup1\n    /* \"#utility.yul\":1883:1886   */\n  dup7\n    /* \"#utility.yul\":1879:1893   */\n  div\n    /* \"#utility.yul\":1873:1877   */\n  dup2\n    /* \"#utility.yul\":1870:1894   */\n  gt\n    /* \"#utility.yul\":1867:1917   */\n  iszero\n  tag_80\n  jumpi\n    /* \"#utility.yul\":1897:1915   */\n  tag_81\n  tag_74\n  jump\t// in\ntag_81:\n    /* \"#utility.yul\":1867:1917   */\ntag_80:\n    /* \"#utility.yul\":1947:1948   */\n  0x01\n    /* \"#utility.yul\":1937:1945   */\n  dup6\n    /* \"#utility.yul\":1933:1949   */\n  and\n    /* \"#utility.yul\":1930:2381   */\n  iszero\n  tag_82\n  jumpi\n    /* \"#utility.yul\":2362:2366   */\n  dup1\n    /* \"#utility.yul\":2355:2360   */\n  dup3\n    /* \"#utility.yul\":2351:2367   */\n  mul\n    /* \"#utility.yul\":2342:2367   */\n  swap2\n  pop\n    /* \"#utility.yul\":1930:2381   */\ntag_82:\n    /* \"#utility.yul\":2412:2416   */\n  dup1\n    /* \"#utility.yul\":2406:2410   */\n  dup2\n    /* \"#utility.yul\":2402:2417   */\n  mul\n    /* \"#utility.yul\":2394:2417   */\n  swap1\n  pop\n    /* \"#utility.yul\":2442:2474   */\n  tag_83\n    /* \"#utility.yul\":2465:2473   */\n  dup6\n    /* \"#utility.yul\":2442:2474   */\n  tag_84\n  jump\t// in\ntag_83:\n    /* \"#utility.yul\":2430:2474   */\n  swap5\n  pop\n    /* \"#utility.yul\":1772:2484   */\n  jump(tag_77)\ntag_79:\n    /* \"#utility.yul\":1642:2490   */\n  swap5\n  pop\n  swap5\n  swap3\n  pop\n  pop\n  pop\n  jump\t// out\n    /* \"#utility.yul\":2496:2777   */\ntag_19:\n    /* \"#utility.yul\":2554:2559   */\n  0x00\n    /* \"#utility.yul\":2578:2601   */\n  tag_86\n    /* \"#utility.yul\":2596:2600   */\n  dup3\n    /* \"#utility.yul\":2578:2601   */\n  tag_63\n  jump\t// in\ntag_86:\n    /* \"#utility.yul\":2570:2601   */\n  swap2\n  pop\n    /* \"#utility.yul\":2622:2647   */\n  tag_87\n    /* \"#utility.yul\":2638:2646   */\n  dup4\n    /* \"#utility.yul\":2622:2647   */\n  tag_88\n  jump\t// in\ntag_87:\n    /* \"#utility.yul\":2610:2647   */\n  swap3\n  pop\n    /* \"#utility.yul\":2666:2770   */\n  tag_89\n    /* \"#utility.yul\":2703:2769   */\n  0xffffffffffffffffffffffffffffffffffffffffffffffffffffffffffffffff\n    /* \"#utility.yul\":2693:2701   */\n  dup5\n    /* \"#utility.yul\":2687:2691   */\n  dup5\n    /* \"#utility.yul\":2666:2770   */\n  tag_90\n  jump\t// in\ntag_89:\n    /* \"#utility.yul\":2657:2770   */\n  swap1\n  pop\n    /* \"#utility.yul\":2496:2777   */\n  swap3\n  swap2\n  pop\n  pop\n  jump\t// out\n    /* \"#utility.yul\":2783:3856   */\ntag_90:\n    /* \"#utility.yul\":2837:2842   */\n  0x00\n    /* \"#utility.yul\":3028:3036   */\n  dup3\n    /* \"#utility.yul\":3018:3058   */\n  tag_92\n  jumpi\n    /* \"#utility.yul\":3049:3050   */\n  0x01\n    /* \"#utility.yul\":3040:3050   */\n  swap1\n  pop\n    /* \"#utility.yul\":3051:3056   */\n  jump(tag_91)\n    /* \"#utility.yul\":3018:3058   */\ntag_92:\n    /* \"#utility.yul\":3077:3081   */\n  dup2\n    /* \"#utility.yul\":3067:3103   */\n  tag_93\n  jumpi\n    /* \"#utility.yul\":3094:3095   */\n  0x00\n    /* \"#utility.yul\":3085:3095   */\n  swap1\n  pop\n    /* \"#utility.yul\":3096:3101   */\n  jump(tag_91)\n    /* \"#utility.yul\":3067:3103   */\ntag_93:\n    /* \"#utility.yul\":3163:3167   */\n  dup2\n    /* \"#utility.yul\":3211:3212   */\n  0x01\n    /* \"#utility.yul\":3206:3233   */\n  dup2\n  eq\n  tag_95\n  jumpi\n    /* \"#utility.yul\":3247:3248   */\n  0x02\n    /* \"#utility.yul\":3242:3433   */\n  dup2\n  eq\n  tag_96\n  jumpi\n    /* \"#utility.yul\":3156:3433   */\n  jump(tag_94)\n    /* \"#utility.yul\":3206:3233   */\ntag_95:\n    /* \"#utility.yul\":3224:3225   */\n  0x01\n    /* \"#utility.yul\":3215:3225   */\n  swap2\n  pop\n    /* \"#utility.yul\":3226:3231   */\n  pop\n  jump(tag_91)\n    /* \"#utility.yul\":3242:3433   */\ntag_96:\n    /* \"#utility.yul\":3287:3290   */\n  0xff\n    /* \"#utility.yul\":3277:3285   */\n  dup5\n    /* \"#utility.yul\":3274:3291   */\n  gt\n    /* \"#utility.yul\":3271:3314   */\n  iszero\n  tag_97\n  jumpi\n    /* \"#utility.yul\":3294:3312   */\n  tag_98\n  tag_74\n  jump\t// in\ntag_98:\n    /* \"#utility.yul\":3271:3314   */\ntag_97:\n    /* \"#utility.yul\":3343:3351   */\n  dup4\n    /* \"#utility.yul\":3340:3341   */\n  0x02\n    /* \"#utility.yul\":3336:3352   */\n  exp\n    /* \"#utility.yul\":3327:3352   */\n  swap2\n  pop\n    /* \"#utility.yul\":3378:3381   */\n  dup5\n    /* \"#utility.yul\":3371:3376   */\n  dup3\n    /* \"#utility.yul\":3368:3382   */\n  gt\n    /* \"#utility.yul\":3365:3405   */\n  iszero\n  tag_99\n  jumpi\n    /* \"#utility.yul\":3385:3403   */\n  tag_100\n  tag_74\n  jump\t// in\ntag_100:\n    /* \"#utility.yul\":3365:3405   */\ntag_99:\n    /* \"#utility.yul\":3418:3423   */\n  pop\n  jump(tag_91)\n    /* \"#utility.yul\":3156:3433   */\ntag_94:\n  pop\n    /* \"#utility.yul\":3542:3544   */\n  0x20\n    /* \"#utility.yul\":3532:3540   */\n  dup4\n    /* \"#utility.yul\":3529:3545   */\n  lt\n    /* \"#utility.yul\":3523:3526   */\n  0x0133\n    /* \"#utility.yul\":3517:3521   */\n  dup4\n    /* \"#utility.yul\":3514:3527   */\n  lt\n    /* \"#utility.yul\":3510:3546   */\n  and\n    /* \"#utility.yul\":3492:3494   */\n  0x4e\n    /* \"#utility.yul\":3482:3490   */\n  dup5\n    /* \"#utility.yul\":3479:3495   */\n  lt\n    /* \"#utility.yul\":3474:3476   */\n  0x0b\n    /* \"#utility.yul\":3468:3472   */\n  dup5\n    /* \"#utility.yul\":3465:3477   */\n  lt\n    /* \"#utility.yul\":3461:3496   */\n  and\n    /* \"#utility.yul\":3445:3556   */\n  or\n    /* \"#utility.yul\":3442:3688   */\n  iszero\n  tag_101\n  jumpi\n    /* \"#utility.yul\":3598:3606   */\n  dup3\n    /* \"#utility.yul\":3592:3596   */\n  dup3\n    /* \"#utility.yul\":3588:3607   */\n  exp\n    /* \"#utility.yul\":3579:3607   */\n  swap1\n  pop\n    /* \"#utility.yul\":3633:3636   */\n  dup4\n    /* \"#utility.yul\":3626:3631   */\n  dup2\n    /* \"#utility.yul\":3623:3637   */\n  gt\n    /* \"#utility.yul\":3620:3660   */\n  iszero\n  tag_102\n  jumpi\n    /* \"#utility.yul\":3640:3658   */\n  tag_103\n  tag_74\n  jump\t// in\ntag_103:\n    /* \"#utility.yul\":3620:3660   */\ntag_102:\n    /* \"#utility.yul\":3673:3678   */\n  jump(tag_91)\n    /* \"#utility.yul\":3442:3688   */\ntag_101:\n    /* \"#utility.yul\":3713:3755   */\n  tag_104\n    /* \"#utility.yul\":3751:3754   */\n  dup5\n    /* \"#utility.yul\":3741:3749   */\n  dup5\n    /* \"#utility.yul\":3735:3739   */\n  dup5\n    /* \"#utility.yul\":3732:3733   */\n  0x01\n    /* \"#utility.yul\":3713:3755   */\n  tag_75\n  jump\t// in\ntag_104:\n    /* \"#utility.yul\":3698:3755   */\n  swap3\n  pop\n  swap1\n  pop\n    /* \"#utility.yul\":3787:3791   */\n  dup2\n    /* \"#utility.yul\":3782:3785   */\n  dup5\n    /* \"#utility.yul\":3778:3792   */\n  div\n    /* \"#utility.yul\":3771:3776   */\n  dup2\n    /* \"#utility.yul\":3768:3793   */\n  gt\n    /* \"#utility.yul\":3765:3816   */\n  iszero\n  tag_105\n  jumpi\n    /* \"#utility.yul\":3796:3814   */\n  tag_106\n  tag_74\n  jump\t// in\ntag_106:\n    /* \"#utility.yul\":3765:3816   */\ntag_105:\n    /* \"#utility.yul\":3845:3849   */\n  dup2\n    /* \"#utility.yul\":3838:3843   */\n  dup2\n    /* \"#utility.yul\":3834:3850   */\n  mul\n    /* \"#utility.yul\":3825:3850   */\n  swap1\n  pop\n    /* \"#utility.yul\":2783:3856   */\ntag_91:\n  swap4\n  swap3\n  pop\n  pop\n  pop\n  jump\t// out\n    /* \"#utility.yul\":3862:4210   */\ntag_21:\n    /* \"#utility.yul\":3902:3909   */\n  0x00\n    /* \"#utility.yul\":3925:3945   */\n  tag_108\n    /* \"#utility.yul\":3943:3944   */\n  dup3\n    /* \"#utility.yul\":3925:3945   */\n  tag_63\n  jump\t// in\ntag_108:\n    /* \"#utility.yul\":3920:3945   */\n  swap2\n  pop\n    /* \"#utility.yul\":3959:3979   */\n  tag_109\n    /* \"#utility.yul\":3977:3978   */\n  dup4\n    /* \"#utility.yul\":3959:3979   */\n  tag_63\n  jump\t// in\ntag_109:\n    /* \"#utility.yul\":3954:3979   */\n  swap3\n  pop\n    /* \"#utility.yul\":4147:4148   */\n  dup2\n    /* \"#utility.yul\":4079:4145   */\n  0xffffffffffffffffffffffffffffffffffffffffffffffffffffffffffffffff\n    /* \"#utility.yul\":4075:4149   */\n  div\n    /* \"#utility.yul\":4072:4073   */\n  dup4\n    /* \"#utility.yul\":4069:4150   */\n  gt\n    /* \"#utility.yul\":4064:4065   */\n  dup3\n    /* \"#utility.yul\":4057:4066   */\n  iszero\n    /* \"#utility.yul\":4050:4067   */\n  iszero\n    /* \"#utility.yul\":4046:4151   */\n  and\n    /* \"#utility.yul\":4043:4174   */\n  iszero\n  tag_110\n  jumpi\n    /* \"#utility.yul\":4154:4172   */\n  tag_111\n  tag_74\n  jump\t// in\ntag_111:\n    /* \"#utility.yul\":4043:4174   */\ntag_110:\n    /* \"#utility.yul\":4202:4203   */\n  dup3\n    /* \"#utility.yul\":4199:4200   */\n  dup3\n    /* \"#utility.yul\":4195:4204   */\n  mul\n    /* \"#utility.yul\":4184:4204   */\n  swap1\n  pop\n    /* \"#utility.yul\":3862:4210   */\n  swap3\n  swap2\n  pop\n  pop\n  jump\t// out\n    /* \"#utility.yul\":4216:4293   */\ntag_63:\n    /* \"#utility.yul\":4253:4260   */\n  0x00\n    /* \"#utility.yul\":4282:4287   */\n  dup2\n    /* \"#utility.yul\":4271:4287   */\n  swap1\n  pop\n    /* \"#utility.yul\":4216:4293   */\n  swap2\n  swap1\n  pop\n  jump\t// out\n    /* \"#utility.yul\":4299:4385   */\ntag_88:\n    /* \"#utility.yul\":4334:4341   */\n  0x00\n    /* \"#utility.yul\":4374:4378   */\n  0xff\n    /* \"#utility.yul\":4367:4372   */\n  dup3\n    /* \"#utility.yul\":4363:4379   */\n  and\n    /* \"#utility.yul\":4352:4379   */\n  swap1\n  pop\n    /* \"#utility.yul\":4299:4385   */\n  swap2\n  swap1\n  pop\n  jump\t// out\n    /* \"#utility.yul\":4391:4711   */\ntag_43:\n    /* \"#utility.yul\":4435:4441   */\n  0x00\n    /* \"#utility.yul\":4472:4473   */\n  0x02\n    /* \"#utility.yul\":4466:4470   */\n  dup3\n    /* \"#utility.yul\":4462:4474   */\n  div\n    /* \"#utility.yul\":4452:4474   */\n  swap1\n  pop\n    /* \"#utility.yul\":4519:4520   */\n  0x01\n    /* \"#utility.yul\":4513:4517   */\n  dup3\n    /* \"#utility.yul\":4509:4521   */\n  and\n    /* \"#utility.yul\":4540:4558   */\n  dup1\n    /* \"#utility.yul\":4530:4611   */\n  tag_115\n  jumpi\n    /* \"#utility.yul\":4596:4600   */\n  0x7f\n    /* \"#utility.yul\":4588:4594   */\n  dup3\n    /* \"#utility.yul\":4584:4601   */\n  and\n    /* \"#utility.yul\":4574:4601   */\n  swap2\n  pop\n    /* \"#utility.yul\":4530:4611   */\ntag_115:\n    /* \"#utility.yul\":4658:4660   */\n  0x20\n    /* \"#utility.yul\":4650:4656   */\n  dup3\n    /* \"#utility.yul\":4647:4661   */\n  lt\n    /* \"#utility.yul\":4627:4645   */\n  dup2\n    /* \"#utility.yul\":4624:4662   */\n  eq\n    /* \"#utility.yul\":4621:4705   */\n  iszero\n  tag_116\n  jumpi\n    /* \"#utility.yul\":4677:4695   */\n  tag_117\n  tag_118\n  jump\t// in\ntag_117:\n    /* \"#utility.yul\":4621:4705   */\ntag_116:\n    /* \"#utility.yul\":4442:4711   */\n  pop\n    /* \"#utility.yul\":4391:4711   */\n  swap2\n  swap1\n  pop\n  jump\t// out\n    /* \"#utility.yul\":4717:4897   */\ntag_74:\n    /* \"#utility.yul\":4765:4842   */\n  0x4e487b7100000000000000000000000000000000000000000000000000000000\n    /* \"#utility.yul\":4762:4763   */\n  0x00\n    /* \"#utility.yul\":4755:4843   */\n  mstore\n    /* \"#utility.yul\":4862:4866   */\n  0x11\n    /* \"#utility.yul\":4859:4860   */\n  0x04\n    /* \"#utility.yul\":4852:4867   */\n  mstore\n    /* \"#utility.yul\":4886:4890   */\n  0x24\n    /* \"#utility.yul\":4883:4884   */\n  0x00\n    /* \"#utility.yul\":4876:4891   */\n  revert\n    /* \"#utility.yul\":4903:5083   */\ntag_118:\n    /* \"#utility.yul\":4951:5028   */\n  0x4e487b7100000000000000000000000000000000000000000000000000000000\n    /* \"#utility.yul\":4948:4949   */\n  0x00\n    /* \"#utility.yul\":4941:5029   */\n  mstore\n    /* \"#utility.yul\":5048:5052   */\n  0x22\n    /* \"#utility.yul\":5045:5046   */\n  0x04\n    /* \"#utility.yul\":5038:5053   */\n  mstore\n    /* \"#utility.yul\":5072:5076   */\n  0x24\n    /* \"#utility.yul\":5069:5070   */\n  0x00\n    /* \"#utility.yul\":5062:5077   */\n  revert\n    /* \"#utility.yul\":5089:5191   */\ntag_84:\n    /* \"#utility.yul\":5131:5139   */\n  0x00\n    /* \"#utility.yul\":5178:5183   */\n  dup2\n    /* \"#utility.yul\":5175:5176   */\n  0x01\n    /* \"#utility.yul\":5171:5184   */\n  shr\n    /* \"#utility.yul\":5150:5184   */\n  swap1\n  pop\n    /* \"#utility.yul\":5089:5191   */\n  swap2\n  swap1\n  pop\n  jump\t// out\n    /* \"#utility.yul\":5197:5378   */\ntag_59:\n    /* \"#utility.yul\":5337:5370   */\n  0x45524332303a206d696e7420746f20746865207a65726f206164647265737300\n    /* \"#utility.yul\":5333:5334   */\n  0x00\n    /* \"#utility.yul\":5325:5331   */\n  dup3\n    /* \"#utility.yul\":5321:5335   */\n  add\n    /* \"#utility.yul\":5314:5371   */\n  mstore\n    /* \"#utility.yul\":5197:5378   */\n  pop\n  jump\t// out\n    /* \"contracts/ZenyaStake.sol\":173:5194  contract ZenyaStake is ERC20, Ownable  {\r... */\ntag_23:\n  dataSize(sub_0)\n  dup1\n  dataOffset(sub_0)\n  0x00\n  codecopy\n  0x00\n  return\nstop\n\nsub_0: assembly {\n        /* \"contracts/ZenyaStake.sol\":173:5194  contract ZenyaStake is ERC20, Ownable  {\r... */\n      mstore(0x40, 0x80)\n      jumpi(tag_1, lt(calldatasize, 0x04))\n      shr(0xe0, calldataload(0x00))\n      dup1\n      0x715018a6\n      gt\n      tag_32\n      jumpi\n      dup1\n      0xb2bdfa7b\n      gt\n      tag_33\n      jumpi\n      dup1\n      0xdd62ed3e\n      gt\n      tag_34\n      jumpi\n      dup1\n      0xdd62ed3e\n      eq\n      tag_28\n      jumpi\n      dup1\n      0xe5c42fd1\n      eq\n      tag_29\n      jumpi\n      dup1\n      0xef037b90\n      eq\n      tag_30\n      jumpi\n      dup1\n      0xf2fde38b\n      eq\n      tag_31\n      jumpi\n      jump(tag_1)\n    tag_34:\n      dup1\n      0xb2bdfa7b\n      eq\n      tag_24\n      jumpi\n      dup1\n      0xbcb0c2d7\n      eq\n      tag_25\n      jumpi\n      dup1\n      0xc885bc58\n      eq\n      tag_26\n      jumpi\n      dup1\n      0xd82e3962\n      eq\n      tag_27\n      jumpi\n      jump(tag_1)\n    tag_33:\n      dup1\n      0x939624ab\n      gt\n      tag_35\n      jumpi\n      dup1\n      0x939624ab\n      eq\n      tag_20\n      jumpi\n      dup1\n      0x95d89b41\n      eq\n      tag_21\n      jumpi\n      dup1\n      0xa457c2d7\n      eq\n      tag_22\n      jumpi\n      dup1\n      0xa9059cbb\n      eq\n      tag_23\n      jumpi\n      jump(tag_1)\n    tag_35:\n      dup1\n      0x715018a6\n      eq\n      tag_17\n      jumpi\n      dup1\n      0x7e72fb52\n      eq\n      tag_18\n      jumpi\n      dup1\n      0x8da5cb5b\n      eq\n      tag_19\n      jumpi\n      jump(tag_1)\n    tag_32:\n      dup1\n      0x23b872dd\n      gt\n      tag_36\n      jumpi\n      dup1\n      0x42623360\n      gt\n      tag_37\n      jumpi\n      dup1\n      0x42623360\n      eq\n      tag_13\n      jumpi\n      dup1\n      0x4be21e33\n      eq\n      tag_14\n      jumpi\n      dup1\n      0x6f4a2cd0\n      eq\n      tag_15\n      jumpi\n      dup1\n      0x70a08231\n      eq\n      tag_16\n      jumpi\n      jump(tag_1)\n    tag_37:\n      dup1\n      0x23b872dd\n      eq\n      tag_9\n      jumpi\n      dup1\n      0x313ce567\n      eq\n      tag_10\n      jumpi\n      dup1\n      0x35789c8b\n      eq\n      tag_11\n      jumpi\n      dup1\n      0x39509351\n      eq\n      tag_12\n      jumpi\n      jump(tag_1)\n    tag_36:\n      dup1\n      0x0e15561a\n      gt\n      tag_38\n      jumpi\n      dup1\n      0x0e15561a\n      eq\n      tag_5\n      jumpi\n      dup1\n      0x18160ddd\n      eq\n      tag_6\n      jumpi\n      dup1\n      0x1bf6ddae\n      eq\n      tag_7\n      jumpi\n      dup1\n      0x1d62ebd9\n      eq\n      tag_8\n      jumpi\n      jump(tag_1)\n    tag_38:\n      dup1\n      0x046e2edb\n      eq\n      tag_2\n      jumpi\n      dup1\n      0x06fdde03\n      eq\n      tag_3\n      jumpi\n      dup1\n      0x095ea7b3\n      eq\n      tag_4\n      jumpi\n    tag_1:\n      0x00\n      dup1\n      revert\n        /* \"contracts/ZenyaStake.sol\":524:550  uint256 public zenyaPerEth */\n    tag_2:\n      callvalue\n      dup1\n      iszero\n      tag_39\n      jumpi\n      0x00\n      dup1\n      revert\n    tag_39:\n      pop\n      tag_40\n      tag_41\n      jump\t// in\n    tag_40:\n      mload(0x40)\n      tag_42\n      swap2\n      swap1\n      tag_43\n      jump\t// in\n    tag_42:\n      mload(0x40)\n      dup1\n      swap2\n      sub\n      swap1\n      return\n        /* \"@openzeppelin/contracts/token/ERC20/ERC20.sol\":2156:2254  function name() public view virtual override returns (string memory) {... */\n    tag_3:\n      callvalue\n      dup1\n      iszero\n      tag_44\n      jumpi\n      0x00\n      dup1\n      revert\n    tag_44:\n      pop\n      tag_45\n      tag_46\n      jump\t// in\n    tag_45:\n      mload(0x40)\n      tag_47\n      swap2\n      swap1\n      tag_48\n      jump\t// in\n    tag_47:\n      mload(0x40)\n      dup1\n      swap2\n      sub\n      swap1\n      return\n        /* \"@openzeppelin/contracts/token/ERC20/ERC20.sol\":4433:4630  function approve(address spender, uint256 amount) public virtual override returns (bool) {... */\n    tag_4:\n      callvalue\n      dup1\n      iszero\n      tag_49\n      jumpi\n      0x00\n      dup1\n      revert\n    tag_49:\n      pop\n      tag_50\n      0x04\n      dup1\n      calldatasize\n      sub\n      dup2\n      add\n      swap1\n      tag_51\n      swap2\n      swap1\n      tag_52\n      jump\t// in\n    tag_51:\n      tag_53\n      jump\t// in\n    tag_50:\n      mload(0x40)\n      tag_54\n      swap2\n      swap1\n      tag_55\n      jump\t// in\n    tag_54:\n      mload(0x40)\n      dup1\n      swap2\n      sub\n      swap1\n      return\n        /* \"contracts/ZenyaStake.sol\":3995:4267  function totalRewards() public view returns(uint256){\r... */\n    tag_5:\n      callvalue\n      dup1\n      iszero\n      tag_56\n      jumpi\n      0x00\n      dup1\n      revert\n    tag_56:\n      pop\n      tag_57\n      tag_58\n      jump\t// in\n    tag_57:\n      mload(0x40)\n      tag_59\n      swap2\n      swap1\n      tag_43\n      jump\t// in\n    tag_59:\n      mload(0x40)\n      dup1\n      swap2\n      sub\n      swap1\n      return\n        /* \"@openzeppelin/contracts/token/ERC20/ERC20.sol\":3244:3350  function totalSupply() public view virtual override returns (uint256) {... */\n    tag_6:\n      callvalue\n      dup1\n      iszero\n      tag_60\n      jumpi\n      0x00\n      dup1\n      revert\n    tag_60:\n      pop\n      tag_61\n      tag_62\n      jump\t// in\n    tag_61:\n      mload(0x40)\n      tag_63\n      swap2\n      swap1\n      tag_43\n      jump\t// in\n    tag_63:\n      mload(0x40)\n      dup1\n      swap2\n      sub\n      swap1\n      return\n        /* \"contracts/ZenyaStake.sol\":3135:3401  function createStake(uint256 _stake) public {\r... */\n    tag_7:\n      callvalue\n      dup1\n      iszero\n      tag_64\n      jumpi\n      0x00\n      dup1\n      revert\n    tag_64:\n      pop\n      tag_65\n      0x04\n      dup1\n      calldatasize\n      sub\n      dup2\n      add\n      swap1\n      tag_66\n      swap2\n      swap1\n      tag_67\n      jump\t// in\n    tag_66:\n      tag_68\n      jump\t// in\n    tag_65:\n      stop\n        /* \"contracts/ZenyaStake.sol\":3800:3916  function rewardOf(address _stakeholder) public view returns(uint256) {\r... */\n    tag_8:\n      callvalue\n      dup1\n      iszero\n      tag_69\n      jumpi\n      0x00\n      dup1\n      revert\n    tag_69:\n      pop\n      tag_70\n      0x04\n      dup1\n      calldatasize\n      sub\n      dup2\n      add\n      swap1\n      tag_71\n      swap2\n      swap1\n      tag_72\n      jump\t// in\n    tag_71:\n      tag_73\n      jump\t// in\n    tag_70:\n      mload(0x40)\n      tag_74\n      swap2\n      swap1\n      tag_43\n      jump\t// in\n    tag_74:\n      mload(0x40)\n      dup1\n      swap2\n      sub\n      swap1\n      return\n        /* \"@openzeppelin/contracts/token/ERC20/ERC20.sol\":5192:5478  function transferFrom(... */\n    tag_9:\n      callvalue\n      dup1\n      iszero\n      tag_75\n      jumpi\n      0x00\n      dup1\n      revert\n    tag_75:\n      pop\n      tag_76\n      0x04\n      dup1\n      calldatasize\n      sub\n      dup2\n      add\n      swap1\n      tag_77\n      swap2\n      swap1\n      tag_78\n      jump\t// in\n    tag_77:\n      tag_79\n      jump\t// in\n    tag_76:\n      mload(0x40)\n      tag_80\n      swap2\n      swap1\n      tag_55\n      jump\t// in\n    tag_80:\n      mload(0x40)\n      dup1\n      swap2\n      sub\n      swap1\n      return\n        /* \"@openzeppelin/contracts/token/ERC20/ERC20.sol\":3093:3184  function decimals() public view virtual override returns (uint8) {... */\n    tag_10:\n      callvalue\n      dup1\n      iszero\n      tag_81\n      jumpi\n      0x00\n      dup1\n      revert\n    tag_81:\n      pop\n      tag_82\n      tag_83\n      jump\t// in\n    tag_82:\n      mload(0x40)\n      tag_84\n      swap2\n      swap1\n      tag_85\n      jump\t// in\n    tag_84:\n      mload(0x40)\n      dup1\n      swap2\n      sub\n      swap1\n      return\n        /* \"contracts/ZenyaStake.sol\":401:430  uint256 public _buyTokenPrice */\n    tag_11:\n      callvalue\n      dup1\n      iszero\n      tag_86\n      jumpi\n      0x00\n      dup1\n      revert\n    tag_86:\n      pop\n      tag_87\n      tag_88\n      jump\t// in\n    tag_87:\n      mload(0x40)\n      tag_89\n      swap2\n      swap1\n      tag_43\n      jump\t// in\n    tag_89:\n      mload(0x40)\n      dup1\n      swap2\n      sub\n      swap1\n      return\n        /* \"@openzeppelin/contracts/token/ERC20/ERC20.sol\":5873:6109  function increaseAllowance(address spender, uint256 addedValue) public virtual returns (bool) {... */\n    tag_12:\n      callvalue\n      dup1\n      iszero\n      tag_90\n      jumpi\n      0x00\n      dup1\n      revert\n    tag_90:\n      pop\n      tag_91\n      0x04\n      dup1\n      calldatasize\n      sub\n      dup2\n      add\n      swap1\n      tag_92\n      swap2\n      swap1\n      tag_52\n      jump\t// in\n    tag_92:\n      tag_93\n      jump\t// in\n    tag_91:\n      mload(0x40)\n      tag_94\n      swap2\n      swap1\n      tag_55\n      jump\t// in\n    tag_94:\n      mload(0x40)\n      dup1\n      swap2\n      sub\n      swap1\n      return\n        /* \"contracts/ZenyaStake.sol\":2960:3074  function stakeOf(address _stakeholder) public view returns(uint256) {\r... */\n    tag_13:\n      callvalue\n      dup1\n      iszero\n      tag_95\n      jumpi\n      0x00\n      dup1\n      revert\n    tag_95:\n      pop\n      tag_96\n      0x04\n      dup1\n      calldatasize\n      sub\n      dup2\n      add\n      swap1\n      tag_97\n      swap2\n      swap1\n      tag_72\n      jump\t// in\n    tag_97:\n      tag_98\n      jump\t// in\n    tag_96:\n      mload(0x40)\n      tag_99\n      swap2\n      swap1\n      tag_43\n      jump\t// in\n    tag_99:\n      mload(0x40)\n      dup1\n      swap2\n      sub\n      swap1\n      return\n        /* \"contracts/ZenyaStake.sol\":1158:1343  function setTokenBuyPrice (uint256 buyPrice) public {\r... */\n    tag_14:\n      callvalue\n      dup1\n      iszero\n      tag_100\n      jumpi\n      0x00\n      dup1\n      revert\n    tag_100:\n      pop\n      tag_101\n      0x04\n      dup1\n      calldatasize\n      sub\n      dup2\n      add\n      swap1\n      tag_102\n      swap2\n      swap1\n      tag_67\n      jump\t// in\n    tag_102:\n      tag_103\n      jump\t// in\n    tag_101:\n      stop\n        /* \"contracts/ZenyaStake.sol\":4542:4840  function distributeRewards() public  {\r... */\n    tag_15:\n      callvalue\n      dup1\n      iszero\n      tag_104\n      jumpi\n      0x00\n      dup1\n      revert\n    tag_104:\n      pop\n      tag_105\n      tag_106\n      jump\t// in\n    tag_105:\n      stop\n        /* \"@openzeppelin/contracts/token/ERC20/ERC20.sol\":3408:3533  function balanceOf(address account) public view virtual override returns (uint256) {... */\n    tag_16:\n      callvalue\n      dup1\n      iszero\n      tag_107\n      jumpi\n      0x00\n      dup1\n      revert\n    tag_107:\n      pop\n      tag_108\n      0x04\n      dup1\n      calldatasize\n      sub\n      dup2\n      add\n      swap1\n      tag_109\n      swap2\n      swap1\n      tag_72\n      jump\t// in\n    tag_109:\n      tag_110\n      jump\t// in\n    tag_108:\n      mload(0x40)\n      tag_111\n      swap2\n      swap1\n      tag_43\n      jump\t// in\n    tag_111:\n      mload(0x40)\n      dup1\n      swap2\n      sub\n      swap1\n      return\n        /* \"@openzeppelin/contracts/access/Ownable.sol\":1668:1769  function renounceOwnership() public virtual onlyOwner {... */\n    tag_17:\n      callvalue\n      dup1\n      iszero\n      tag_112\n      jumpi\n      0x00\n      dup1\n      revert\n    tag_112:\n      pop\n      tag_113\n      tag_114\n      jump\t// in\n    tag_113:\n      stop\n        /* \"contracts/ZenyaStake.sol\":1489:1950  function buyToken(address receiver) public payable{\r... */\n    tag_18:\n      tag_115\n      0x04\n      dup1\n      calldatasize\n      sub\n      dup2\n      add\n      swap1\n      tag_116\n      swap2\n      swap1\n      tag_72\n      jump\t// in\n    tag_116:\n      tag_117\n      jump\t// in\n    tag_115:\n      stop\n        /* \"@openzeppelin/contracts/access/Ownable.sol\":1036:1121  function owner() public view virtual returns (address) {... */\n    tag_19:\n      callvalue\n      dup1\n      iszero\n      tag_118\n      jumpi\n      0x00\n      dup1\n      revert\n    tag_118:\n      pop\n      tag_119\n      tag_120\n      jump\t// in\n    tag_119:\n      mload(0x40)\n      tag_121\n      swap2\n      swap1\n      tag_122\n      jump\t// in\n    tag_121:\n      mload(0x40)\n      dup1\n      swap2\n      sub\n      swap1\n      return\n        /* \"contracts/ZenyaStake.sol\":3462:3677  function removeStake(uint256 _stake) public {\r... */\n    tag_20:\n      callvalue\n      dup1\n      iszero\n      tag_123\n      jumpi\n      0x00\n      dup1\n      revert\n    tag_123:\n      pop\n      tag_124\n      0x04\n      dup1\n      calldatasize\n      sub\n      dup2\n      add\n      swap1\n      tag_125\n      swap2\n      swap1\n      tag_67\n      jump\t// in\n    tag_125:\n      tag_126\n      jump\t// in\n    tag_124:\n      stop\n        /* \"@openzeppelin/contracts/token/ERC20/ERC20.sol\":2367:2469  function symbol() public view virtual override returns (string memory) {... */\n    tag_21:\n      callvalue\n      dup1\n      iszero\n      tag_127\n      jumpi\n      0x00\n      dup1\n      revert\n    tag_127:\n      pop\n      tag_128\n      tag_129\n      jump\t// in\n    tag_128:\n      mload(0x40)\n      tag_130\n      swap2\n      swap1\n      tag_48\n      jump\t// in\n    tag_130:\n      mload(0x40)\n      dup1\n      swap2\n      sub\n      swap1\n      return\n        /* \"@openzeppelin/contracts/token/ERC20/ERC20.sol\":6596:7025  function decreaseAllowance(address spender, uint256 subtractedValue) public virtual returns (bool) {... */\n    tag_22:\n      callvalue\n      dup1\n      iszero\n      tag_131\n      jumpi\n      0x00\n      dup1\n      revert\n    tag_131:\n      pop\n      tag_132\n      0x04\n      dup1\n      calldatasize\n      sub\n      dup2\n      add\n      swap1\n      tag_133\n      swap2\n      swap1\n      tag_52\n      jump\t// in\n    tag_133:\n      tag_134\n      jump\t// in\n    tag_132:\n      mload(0x40)\n      tag_135\n      swap2\n      swap1\n      tag_55\n      jump\t// in\n    tag_135:\n      mload(0x40)\n      dup1\n      swap2\n      sub\n      swap1\n      return\n        /* \"@openzeppelin/contracts/token/ERC20/ERC20.sol\":3729:3918  function transfer(address to, uint256 amount) public virtual override returns (bool) {... */\n    tag_23:\n      callvalue\n      dup1\n      iszero\n      tag_136\n      jumpi\n      0x00\n      dup1\n      revert\n    tag_136:\n      pop\n      tag_137\n      0x04\n      dup1\n      calldatasize\n      sub\n      dup2\n      add\n      swap1\n      tag_138\n      swap2\n      swap1\n      tag_52\n      jump\t// in\n    tag_138:\n      tag_139\n      jump\t// in\n    tag_137:\n      mload(0x40)\n      tag_140\n      swap2\n      swap1\n      tag_55\n      jump\t// in\n    tag_140:\n      mload(0x40)\n      dup1\n      swap2\n      sub\n      swap1\n      return\n        /* \"contracts/ZenyaStake.sol\":288:309  address public _owner */\n    tag_24:\n      callvalue\n      dup1\n      iszero\n      tag_141\n      jumpi\n      0x00\n      dup1\n      revert\n    tag_141:\n      pop\n      tag_142\n      tag_143\n      jump\t// in\n    tag_142:\n      mload(0x40)\n      tag_144\n      swap2\n      swap1\n      tag_122\n      jump\t// in\n    tag_144:\n      mload(0x40)\n      dup1\n      swap2\n      sub\n      swap1\n      return\n        /* \"contracts/ZenyaStake.sol\":2615:2895  function removeStakeholder(address _stakeholder) public {\r... */\n    tag_25:\n      callvalue\n      dup1\n      iszero\n      tag_145\n      jumpi\n      0x00\n      dup1\n      revert\n    tag_145:\n      pop\n      tag_146\n      0x04\n      dup1\n      calldatasize\n      sub\n      dup2\n      add\n      swap1\n      tag_147\n      swap2\n      swap1\n      tag_72\n      jump\t// in\n    tag_147:\n      tag_148\n      jump\t// in\n    tag_146:\n      stop\n        /* \"contracts/ZenyaStake.sol\":4912:5191  function withdrawReward() public {\r... */\n    tag_26:\n      callvalue\n      dup1\n      iszero\n      tag_149\n      jumpi\n      0x00\n      dup1\n      revert\n    tag_149:\n      pop\n      tag_150\n      tag_151\n      jump\t// in\n    tag_150:\n      stop\n        /* \"contracts/ZenyaStake.sol\":4348:4475  function calculateReward(address _stakeholder) public view returns(uint256){\r... */\n    tag_27:\n      callvalue\n      dup1\n      iszero\n      tag_152\n      jumpi\n      0x00\n      dup1\n      revert\n    tag_152:\n      pop\n      tag_153\n      0x04\n      dup1\n      calldatasize\n      sub\n      dup2\n      add\n      swap1\n      tag_154\n      swap2\n      swap1\n      tag_72\n      jump\t// in\n    tag_154:\n      tag_155\n      jump\t// in\n    tag_153:\n      mload(0x40)\n      tag_156\n      swap2\n      swap1\n      tag_43\n      jump\t// in\n    tag_156:\n      mload(0x40)\n      dup1\n      swap2\n      sub\n      swap1\n      return\n        /* \"@openzeppelin/contracts/token/ERC20/ERC20.sol\":3976:4125  function allowance(address owner, address spender) public view virtual override returns (uint256) {... */\n    tag_28:\n      callvalue\n      dup1\n      iszero\n      tag_157\n      jumpi\n      0x00\n      dup1\n      revert\n    tag_157:\n      pop\n      tag_158\n      0x04\n      dup1\n      calldatasize\n      sub\n      dup2\n      add\n      swap1\n      tag_159\n      swap2\n      swap1\n      tag_160\n      jump\t// in\n    tag_159:\n      tag_161\n      jump\t// in\n    tag_158:\n      mload(0x40)\n      tag_162\n      swap2\n      swap1\n      tag_43\n      jump\t// in\n    tag_162:\n      mload(0x40)\n      dup1\n      swap2\n      sub\n      swap1\n      return\n        /* \"contracts/ZenyaStake.sol\":2381:2566  function addStakeholder(address _stakeholder) public {\r... */\n    tag_29:\n      callvalue\n      dup1\n      iszero\n      tag_163\n      jumpi\n      0x00\n      dup1\n      revert\n    tag_163:\n      pop\n      tag_164\n      0x04\n      dup1\n      calldatasize\n      sub\n      dup2\n      add\n      swap1\n      tag_165\n      swap2\n      swap1\n      tag_72\n      jump\t// in\n    tag_165:\n      tag_166\n      jump\t// in\n    tag_164:\n      stop\n        /* \"contracts/ZenyaStake.sol\":2086:2335  function isStakeholder(address _address) public view returns(bool, uint256) {\r... */\n    tag_30:\n      callvalue\n      dup1\n      iszero\n      tag_167\n      jumpi\n      0x00\n      dup1\n      revert\n    tag_167:\n      pop\n      tag_168\n      0x04\n      dup1\n      calldatasize\n      sub\n      dup2\n      add\n      swap1\n      tag_169\n      swap2\n      swap1\n      tag_72\n      jump\t// in\n    tag_169:\n      tag_170\n      jump\t// in\n    tag_168:\n      mload(0x40)\n      tag_171\n      swap3\n      swap2\n      swap1\n      tag_172\n      jump\t// in\n    tag_171:\n      mload(0x40)\n      dup1\n      swap2\n      sub\n      swap1\n      return\n        /* \"@openzeppelin/contracts/access/Ownable.sol\":1918:2116  function transferOwnership(address newOwner) public virtual onlyOwner {... */\n    tag_31:\n      callvalue\n      dup1\n      iszero\n      tag_173\n      jumpi\n      0x00\n      dup1\n      revert\n    tag_173:\n      pop\n      tag_174\n      0x04\n      dup1\n      calldatasize\n      sub\n      dup2\n      add\n      swap1\n      tag_175\n      swap2\n      swap1\n      tag_72\n      jump\t// in\n    tag_175:\n      tag_176\n      jump\t// in\n    tag_174:\n      stop\n        /* \"contracts/ZenyaStake.sol\":524:550  uint256 public zenyaPerEth */\n    tag_41:\n      sload(0x08)\n      dup2\n      jump\t// out\n        /* \"@openzeppelin/contracts/token/ERC20/ERC20.sol\":2156:2254  function name() public view virtual override returns (string memory) {... */\n    tag_46:\n        /* \"@openzeppelin/contracts/token/ERC20/ERC20.sol\":2210:2223  string memory */\n      0x60\n        /* \"@openzeppelin/contracts/token/ERC20/ERC20.sol\":2242:2247  _name */\n      0x03\n        /* \"@openzeppelin/contracts/token/ERC20/ERC20.sol\":2235:2247  return _name */\n      dup1\n      sload\n      tag_178\n      swap1\n      tag_179\n      jump\t// in\n    tag_178:\n      dup1\n      0x1f\n      add\n      0x20\n      dup1\n      swap2\n      div\n      mul\n      0x20\n      add\n      mload(0x40)\n      swap1\n      dup2\n      add\n      0x40\n      mstore\n      dup1\n      swap3\n      swap2\n      swap1\n      dup2\n      dup2\n      mstore\n      0x20\n      add\n      dup3\n      dup1\n      sload\n      tag_180\n      swap1\n      tag_179\n      jump\t// in\n    tag_180:\n      dup1\n      iszero\n      tag_181\n      jumpi\n      dup1\n      0x1f\n      lt\n      tag_182\n      jumpi\n      0x0100\n      dup1\n      dup4\n      sload\n      div\n      mul\n      dup4\n      mstore\n      swap2\n      0x20\n      add\n      swap2\n      jump(tag_181)\n    tag_182:\n      dup3\n      add\n      swap2\n      swap1\n      0x00\n      mstore\n      keccak256(0x00, 0x20)\n      swap1\n    tag_183:\n      dup2\n      sload\n      dup2\n      mstore\n      swap1\n      0x01\n      add\n      swap1\n      0x20\n      add\n      dup1\n      dup4\n      gt\n      tag_183\n      jumpi\n      dup3\n      swap1\n      sub\n      0x1f\n      and\n      dup3\n      add\n      swap2\n    tag_181:\n      pop\n      pop\n      pop\n      pop\n      pop\n      swap1\n      pop\n        /* \"@openzeppelin/contracts/token/ERC20/ERC20.sol\":2156:2254  function name() public view virtual override returns (string memory) {... */\n      swap1\n      jump\t// out\n        /* \"@openzeppelin/contracts/token/ERC20/ERC20.sol\":4433:4630  function approve(address spender, uint256 amount) public virtual override returns (bool) {... */\n    tag_53:\n        /* \"@openzeppelin/contracts/token/ERC20/ERC20.sol\":4516:4520  bool */\n      0x00\n        /* \"@openzeppelin/contracts/token/ERC20/ERC20.sol\":4532:4545  address owner */\n      dup1\n        /* \"@openzeppelin/contracts/token/ERC20/ERC20.sol\":4548:4560  _msgSender() */\n      tag_185\n        /* \"@openzeppelin/contracts/token/ERC20/ERC20.sol\":4548:4558  _msgSender */\n      tag_186\n        /* \"@openzeppelin/contracts/token/ERC20/ERC20.sol\":4548:4560  _msgSender() */\n      jump\t// in\n    tag_185:\n        /* \"@openzeppelin/contracts/token/ERC20/ERC20.sol\":4532:4560  address owner = _msgSender() */\n      swap1\n      pop\n        /* \"@openzeppelin/contracts/token/ERC20/ERC20.sol\":4570:4602  _approve(owner, spender, amount) */\n      tag_187\n        /* \"@openzeppelin/contracts/token/ERC20/ERC20.sol\":4579:4584  owner */\n      dup2\n        /* \"@openzeppelin/contracts/token/ERC20/ERC20.sol\":4586:4593  spender */\n      dup6\n        /* \"@openzeppelin/contracts/token/ERC20/ERC20.sol\":4595:4601  amount */\n      dup6\n        /* \"@openzeppelin/contracts/token/ERC20/ERC20.sol\":4570:4578  _approve */\n      tag_188\n        /* \"@openzeppelin/contracts/token/ERC20/ERC20.sol\":4570:4602  _approve(owner, spender, amount) */\n      jump\t// in\n    tag_187:\n        /* \"@openzeppelin/contracts/token/ERC20/ERC20.sol\":4619:4623  true */\n      0x01\n        /* \"@openzeppelin/contracts/token/ERC20/ERC20.sol\":4612:4623  return true */\n      swap2\n      pop\n      pop\n        /* \"@openzeppelin/contracts/token/ERC20/ERC20.sol\":4433:4630  function approve(address spender, uint256 amount) public virtual override returns (bool) {... */\n      swap3\n      swap2\n      pop\n      pop\n      jump\t// out\n        /* \"contracts/ZenyaStake.sol\":3995:4267  function totalRewards() public view returns(uint256){\r... */\n    tag_58:\n        /* \"contracts/ZenyaStake.sol\":4039:4046  uint256 */\n      0x00\n        /* \"contracts/ZenyaStake.sol\":4058:4079  uint256 _totalRewards */\n      dup1\n        /* \"contracts/ZenyaStake.sol\":4082:4083  0 */\n      0x00\n        /* \"contracts/ZenyaStake.sol\":4058:4083  uint256 _totalRewards = 0 */\n      swap1\n      pop\n        /* \"contracts/ZenyaStake.sol\":4099:4108  uint256 s */\n      0x00\n        /* \"contracts/ZenyaStake.sol\":4094:4229  for (uint256 s = 0; s < stakeholders.length; s += 1){\r... */\n    tag_190:\n        /* \"contracts/ZenyaStake.sol\":4118:4130  stakeholders */\n      0x0a\n        /* \"contracts/ZenyaStake.sol\":4118:4137  stakeholders.length */\n      dup1\n      sload\n      swap1\n      pop\n        /* \"contracts/ZenyaStake.sol\":4114:4115  s */\n      dup2\n        /* \"contracts/ZenyaStake.sol\":4114:4137  s < stakeholders.length */\n      lt\n        /* \"contracts/ZenyaStake.sol\":4094:4229  for (uint256 s = 0; s < stakeholders.length; s += 1){\r... */\n      iszero\n      tag_191\n      jumpi\n        /* \"contracts/ZenyaStake.sol\":4193:4200  rewards */\n      0x0b\n        /* \"contracts/ZenyaStake.sol\":4193:4217  rewards[stakeholders[s]] */\n      0x00\n        /* \"contracts/ZenyaStake.sol\":4201:4213  stakeholders */\n      0x0a\n        /* \"contracts/ZenyaStake.sol\":4214:4215  s */\n      dup4\n        /* \"contracts/ZenyaStake.sol\":4201:4216  stakeholders[s] */\n      dup2\n      sload\n      dup2\n      lt\n      tag_193\n      jumpi\n      tag_194\n      tag_195\n      jump\t// in\n    tag_194:\n    tag_193:\n      swap1\n      0x00\n      mstore\n      keccak256(0x00, 0x20)\n      add\n      0x00\n      swap1\n      sload\n      swap1\n      0x0100\n      exp\n      swap1\n      div\n      0xffffffffffffffffffffffffffffffffffffffff\n      and\n        /* \"contracts/ZenyaStake.sol\":4193:4217  rewards[stakeholders[s]] */\n      0xffffffffffffffffffffffffffffffffffffffff\n      and\n      0xffffffffffffffffffffffffffffffffffffffff\n      and\n      dup2\n      mstore\n      0x20\n      add\n      swap1\n      dup2\n      mstore\n      0x20\n      add\n      0x00\n      keccak256\n      sload\n        /* \"contracts/ZenyaStake.sol\":4177:4190  _totalRewards */\n      dup3\n        /* \"contracts/ZenyaStake.sol\":4177:4217  _totalRewards + rewards[stakeholders[s]] */\n      tag_197\n      swap2\n      swap1\n      tag_198\n      jump\t// in\n    tag_197:\n        /* \"contracts/ZenyaStake.sol\":4161:4217  _totalRewards = _totalRewards + rewards[stakeholders[s]] */\n      swap2\n      pop\n        /* \"contracts/ZenyaStake.sol\":4144:4145  1 */\n      0x01\n        /* \"contracts/ZenyaStake.sol\":4139:4145  s += 1 */\n      dup2\n      tag_199\n      swap2\n      swap1\n      tag_198\n      jump\t// in\n    tag_199:\n      swap1\n      pop\n        /* \"contracts/ZenyaStake.sol\":4094:4229  for (uint256 s = 0; s < stakeholders.length; s += 1){\r... */\n      jump(tag_190)\n    tag_191:\n      pop\n        /* \"contracts/ZenyaStake.sol\":4246:4259  _totalRewards */\n      dup1\n        /* \"contracts/ZenyaStake.sol\":4239:4259  return _totalRewards */\n      swap2\n      pop\n      pop\n        /* \"contracts/ZenyaStake.sol\":3995:4267  function totalRewards() public view returns(uint256){\r... */\n      swap1\n      jump\t// out\n        /* \"@openzeppelin/contracts/token/ERC20/ERC20.sol\":3244:3350  function totalSupply() public view virtual override returns (uint256) {... */\n    tag_62:\n        /* \"@openzeppelin/contracts/token/ERC20/ERC20.sol\":3305:3312  uint256 */\n      0x00\n        /* \"@openzeppelin/contracts/token/ERC20/ERC20.sol\":3331:3343  _totalSupply */\n      sload(0x02)\n        /* \"@openzeppelin/contracts/token/ERC20/ERC20.sol\":3324:3343  return _totalSupply */\n      swap1\n      pop\n        /* \"@openzeppelin/contracts/token/ERC20/ERC20.sol\":3244:3350  function totalSupply() public view virtual override returns (uint256) {... */\n      swap1\n      jump\t// out\n        /* \"contracts/ZenyaStake.sol\":3135:3401  function createStake(uint256 _stake) public {\r... */\n    tag_68:\n        /* \"contracts/ZenyaStake.sol\":3190:3215  _burn(msg.sender, _stake) */\n      tag_202\n        /* \"contracts/ZenyaStake.sol\":3196:3206  msg.sender */\n      caller\n        /* \"contracts/ZenyaStake.sol\":3208:3214  _stake */\n      dup3\n        /* \"contracts/ZenyaStake.sol\":3190:3195  _burn */\n      tag_203\n        /* \"contracts/ZenyaStake.sol\":3190:3215  _burn(msg.sender, _stake) */\n      jump\t// in\n    tag_202:\n        /* \"contracts/ZenyaStake.sol\":3251:3252  0 */\n      0x00\n        /* \"contracts/ZenyaStake.sol\":3229:3235  stakes */\n      0x09\n        /* \"contracts/ZenyaStake.sol\":3229:3247  stakes[msg.sender] */\n      0x00\n        /* \"contracts/ZenyaStake.sol\":3236:3246  msg.sender */\n      caller\n        /* \"contracts/ZenyaStake.sol\":3229:3247  stakes[msg.sender] */\n      0xffffffffffffffffffffffffffffffffffffffff\n      and\n      0xffffffffffffffffffffffffffffffffffffffff\n      and\n      dup2\n      mstore\n      0x20\n      add\n      swap1\n      dup2\n      mstore\n      0x20\n      add\n      0x00\n      keccak256\n      sload\n        /* \"contracts/ZenyaStake.sol\":3229:3252  stakes[msg.sender] == 0 */\n      eq\n        /* \"contracts/ZenyaStake.sol\":3226:3280  if(stakes[msg.sender] == 0) addStakeholder(msg.sender) */\n      iszero\n      tag_204\n      jumpi\n        /* \"contracts/ZenyaStake.sol\":3254:3280  addStakeholder(msg.sender) */\n      tag_205\n        /* \"contracts/ZenyaStake.sol\":3269:3279  msg.sender */\n      caller\n        /* \"contracts/ZenyaStake.sol\":3254:3268  addStakeholder */\n      tag_166\n        /* \"contracts/ZenyaStake.sol\":3254:3280  addStakeholder(msg.sender) */\n      jump\t// in\n    tag_205:\n        /* \"contracts/ZenyaStake.sol\":3226:3280  if(stakes[msg.sender] == 0) addStakeholder(msg.sender) */\n    tag_204:\n        /* \"contracts/ZenyaStake.sol\":3333:3339  _stake */\n      dup1\n        /* \"contracts/ZenyaStake.sol\":3312:3318  stakes */\n      0x09\n        /* \"contracts/ZenyaStake.sol\":3312:3330  stakes[msg.sender] */\n      0x00\n        /* \"contracts/ZenyaStake.sol\":3319:3329  msg.sender */\n      caller\n        /* \"contracts/ZenyaStake.sol\":3312:3330  stakes[msg.sender] */\n      0xffffffffffffffffffffffffffffffffffffffff\n      and\n      0xffffffffffffffffffffffffffffffffffffffff\n      and\n      dup2\n      mstore\n      0x20\n      add\n      swap1\n      dup2\n      mstore\n      0x20\n      add\n      0x00\n      keccak256\n      sload\n        /* \"contracts/ZenyaStake.sol\":3312:3339  stakes[msg.sender] + _stake */\n      tag_206\n      swap2\n      swap1\n      tag_198\n      jump\t// in\n    tag_206:\n        /* \"contracts/ZenyaStake.sol\":3291:3297  stakes */\n      0x09\n        /* \"contracts/ZenyaStake.sol\":3291:3309  stakes[msg.sender] */\n      0x00\n        /* \"contracts/ZenyaStake.sol\":3298:3308  msg.sender */\n      caller\n        /* \"contracts/ZenyaStake.sol\":3291:3309  stakes[msg.sender] */\n      0xffffffffffffffffffffffffffffffffffffffff\n      and\n      0xffffffffffffffffffffffffffffffffffffffff\n      and\n      dup2\n      mstore\n      0x20\n      add\n      swap1\n      dup2\n      mstore\n      0x20\n      add\n      0x00\n      keccak256\n        /* \"contracts/ZenyaStake.sol\":3291:3339  stakes[msg.sender] = stakes[msg.sender] + _stake */\n      dup2\n      swap1\n      sstore\n      pop\n        /* \"contracts/ZenyaStake.sol\":3382:3392  7 * 1 days */\n      0x093a80\n        /* \"contracts/ZenyaStake.sol\":3363:3378  block.timestamp */\n      timestamp\n        /* \"contracts/ZenyaStake.sol\":3363:3393  block.timestamp + (7 * 1 days) */\n      tag_207\n      swap2\n      swap1\n      tag_198\n      jump\t// in\n    tag_207:\n        /* \"contracts/ZenyaStake.sol\":3352:3360  deadline */\n      0x0c\n        /* \"contracts/ZenyaStake.sol\":3352:3393  deadline = block.timestamp + (7 * 1 days) */\n      dup2\n      swap1\n      sstore\n      pop\n        /* \"contracts/ZenyaStake.sol\":3135:3401  function createStake(uint256 _stake) public {\r... */\n      pop\n      jump\t// out\n        /* \"contracts/ZenyaStake.sol\":3800:3916  function rewardOf(address _stakeholder) public view returns(uint256) {\r... */\n    tag_73:\n        /* \"contracts/ZenyaStake.sol\":3860:3867  uint256 */\n      0x00\n        /* \"contracts/ZenyaStake.sol\":3887:3894  rewards */\n      0x0b\n        /* \"contracts/ZenyaStake.sol\":3887:3908  rewards[_stakeholder] */\n      0x00\n        /* \"contracts/ZenyaStake.sol\":3895:3907  _stakeholder */\n      dup4\n        /* \"contracts/ZenyaStake.sol\":3887:3908  rewards[_stakeholder] */\n      0xffffffffffffffffffffffffffffffffffffffff\n      and\n      0xffffffffffffffffffffffffffffffffffffffff\n      and\n      dup2\n      mstore\n      0x20\n      add\n      swap1\n      dup2\n      mstore\n      0x20\n      add\n      0x00\n      keccak256\n      sload\n        /* \"contracts/ZenyaStake.sol\":3880:3908  return rewards[_stakeholder] */\n      swap1\n      pop\n        /* \"contracts/ZenyaStake.sol\":3800:3916  function rewardOf(address _stakeholder) public view returns(uint256) {\r... */\n      swap2\n      swap1\n      pop\n      jump\t// out\n        /* \"@openzeppelin/contracts/token/ERC20/ERC20.sol\":5192:5478  function transferFrom(... */\n    tag_79:\n        /* \"@openzeppelin/contracts/token/ERC20/ERC20.sol\":5319:5323  bool */\n      0x00\n        /* \"@openzeppelin/contracts/token/ERC20/ERC20.sol\":5335:5350  address spender */\n      dup1\n        /* \"@openzeppelin/contracts/token/ERC20/ERC20.sol\":5353:5365  _msgSender() */\n      tag_210\n        /* \"@openzeppelin/contracts/token/ERC20/ERC20.sol\":5353:5363  _msgSender */\n      tag_186\n        /* \"@openzeppelin/contracts/token/ERC20/ERC20.sol\":5353:5365  _msgSender() */\n      jump\t// in\n    tag_210:\n        /* \"@openzeppelin/contracts/token/ERC20/ERC20.sol\":5335:5365  address spender = _msgSender() */\n      swap1\n      pop\n        /* \"@openzeppelin/contracts/token/ERC20/ERC20.sol\":5375:5413  _spendAllowance(from, spender, amount) */\n      tag_211\n        /* \"@openzeppelin/contracts/token/ERC20/ERC20.sol\":5391:5395  from */\n      dup6\n        /* \"@openzeppelin/contracts/token/ERC20/ERC20.sol\":5397:5404  spender */\n      dup3\n        /* \"@openzeppelin/contracts/token/ERC20/ERC20.sol\":5406:5412  amount */\n      dup6\n        /* \"@openzeppelin/contracts/token/ERC20/ERC20.sol\":5375:5390  _spendAllowance */\n      tag_212\n        /* \"@openzeppelin/contracts/token/ERC20/ERC20.sol\":5375:5413  _spendAllowance(from, spender, amount) */\n      jump\t// in\n    tag_211:\n        /* \"@openzeppelin/contracts/token/ERC20/ERC20.sol\":5423:5450  _transfer(from, to, amount) */\n      tag_213\n        /* \"@openzeppelin/contracts/token/ERC20/ERC20.sol\":5433:5437  from */\n      dup6\n        /* \"@openzeppelin/contracts/token/ERC20/ERC20.sol\":5439:5441  to */\n      dup6\n        /* \"@openzeppelin/contracts/token/ERC20/ERC20.sol\":5443:5449  amount */\n      dup6\n        /* \"@openzeppelin/contracts/token/ERC20/ERC20.sol\":5423:5432  _transfer */\n      tag_214\n        /* \"@openzeppelin/contracts/token/ERC20/ERC20.sol\":5423:5450  _transfer(from, to, amount) */\n      jump\t// in\n    tag_213:\n        /* \"@openzeppelin/contracts/token/ERC20/ERC20.sol\":5467:5471  true */\n      0x01\n        /* \"@openzeppelin/contracts/token/ERC20/ERC20.sol\":5460:5471  return true */\n      swap2\n      pop\n      pop\n        /* \"@openzeppelin/contracts/token/ERC20/ERC20.sol\":5192:5478  function transferFrom(... */\n      swap4\n      swap3\n      pop\n      pop\n      pop\n      jump\t// out\n        /* \"@openzeppelin/contracts/token/ERC20/ERC20.sol\":3093:3184  function decimals() public view virtual override returns (uint8) {... */\n    tag_83:\n        /* \"@openzeppelin/contracts/token/ERC20/ERC20.sol\":3151:3156  uint8 */\n      0x00\n        /* \"@openzeppelin/contracts/token/ERC20/ERC20.sol\":3175:3177  18 */\n      0x12\n        /* \"@openzeppelin/contracts/token/ERC20/ERC20.sol\":3168:3177  return 18 */\n      swap1\n      pop\n        /* \"@openzeppelin/contracts/token/ERC20/ERC20.sol\":3093:3184  function decimals() public view virtual override returns (uint8) {... */\n      swap1\n      jump\t// out\n        /* \"contracts/ZenyaStake.sol\":401:430  uint256 public _buyTokenPrice */\n    tag_88:\n      sload(0x07)\n      dup2\n      jump\t// out\n        /* \"@openzeppelin/contracts/token/ERC20/ERC20.sol\":5873:6109  function increaseAllowance(address spender, uint256 addedValue) public virtual returns (bool) {... */\n    tag_93:\n        /* \"@openzeppelin/contracts/token/ERC20/ERC20.sol\":5961:5965  bool */\n      0x00\n        /* \"@openzeppelin/contracts/token/ERC20/ERC20.sol\":5977:5990  address owner */\n      dup1\n        /* \"@openzeppelin/contracts/token/ERC20/ERC20.sol\":5993:6005  _msgSender() */\n      tag_217\n        /* \"@openzeppelin/contracts/token/ERC20/ERC20.sol\":5993:6003  _msgSender */\n      tag_186\n        /* \"@openzeppelin/contracts/token/ERC20/ERC20.sol\":5993:6005  _msgSender() */\n      jump\t// in\n    tag_217:\n        /* \"@openzeppelin/contracts/token/ERC20/ERC20.sol\":5977:6005  address owner = _msgSender() */\n      swap1\n      pop\n        /* \"@openzeppelin/contracts/token/ERC20/ERC20.sol\":6015:6081  _approve(owner, spender, _allowances[owner][spender] + addedValue) */\n      tag_218\n        /* \"@openzeppelin/contracts/token/ERC20/ERC20.sol\":6024:6029  owner */\n      dup2\n        /* \"@openzeppelin/contracts/token/ERC20/ERC20.sol\":6031:6038  spender */\n      dup6\n        /* \"@openzeppelin/contracts/token/ERC20/ERC20.sol\":6070:6080  addedValue */\n      dup6\n        /* \"@openzeppelin/contracts/token/ERC20/ERC20.sol\":6040:6051  _allowances */\n      0x01\n        /* \"@openzeppelin/contracts/token/ERC20/ERC20.sol\":6040:6058  _allowances[owner] */\n      0x00\n        /* \"@openzeppelin/contracts/token/ERC20/ERC20.sol\":6052:6057  owner */\n      dup7\n        /* \"@openzeppelin/contracts/token/ERC20/ERC20.sol\":6040:6058  _allowances[owner] */\n      0xffffffffffffffffffffffffffffffffffffffff\n      and\n      0xffffffffffffffffffffffffffffffffffffffff\n      and\n      dup2\n      mstore\n      0x20\n      add\n      swap1\n      dup2\n      mstore\n      0x20\n      add\n      0x00\n      keccak256\n        /* \"@openzeppelin/contracts/token/ERC20/ERC20.sol\":6040:6067  _allowances[owner][spender] */\n      0x00\n        /* \"@openzeppelin/contracts/token/ERC20/ERC20.sol\":6059:6066  spender */\n      dup10\n        /* \"@openzeppelin/contracts/token/ERC20/ERC20.sol\":6040:6067  _allowances[owner][spender] */\n      0xffffffffffffffffffffffffffffffffffffffff\n      and\n      0xffffffffffffffffffffffffffffffffffffffff\n      and\n      dup2\n      mstore\n      0x20\n      add\n      swap1\n      dup2\n      mstore\n      0x20\n      add\n      0x00\n      keccak256\n      sload\n        /* \"@openzeppelin/contracts/token/ERC20/ERC20.sol\":6040:6080  _allowances[owner][spender] + addedValue */\n      tag_219\n      swap2\n      swap1\n      tag_198\n      jump\t// in\n    tag_219:\n        /* \"@openzeppelin/contracts/token/ERC20/ERC20.sol\":6015:6023  _approve */\n      tag_188\n        /* \"@openzeppelin/contracts/token/ERC20/ERC20.sol\":6015:6081  _approve(owner, spender, _allowances[owner][spender] + addedValue) */\n      jump\t// in\n    tag_218:\n        /* \"@openzeppelin/contracts/token/ERC20/ERC20.sol\":6098:6102  true */\n      0x01\n        /* \"@openzeppelin/contracts/token/ERC20/ERC20.sol\":6091:6102  return true */\n      swap2\n      pop\n      pop\n        /* \"@openzeppelin/contracts/token/ERC20/ERC20.sol\":5873:6109  function increaseAllowance(address spender, uint256 addedValue) public virtual returns (bool) {... */\n      swap3\n      swap2\n      pop\n      pop\n      jump\t// out\n        /* \"contracts/ZenyaStake.sol\":2960:3074  function stakeOf(address _stakeholder) public view returns(uint256) {\r... */\n    tag_98:\n        /* \"contracts/ZenyaStake.sol\":3019:3026  uint256 */\n      0x00\n        /* \"contracts/ZenyaStake.sol\":3046:3052  stakes */\n      0x09\n        /* \"contracts/ZenyaStake.sol\":3046:3066  stakes[_stakeholder] */\n      0x00\n        /* \"contracts/ZenyaStake.sol\":3053:3065  _stakeholder */\n      dup4\n        /* \"contracts/ZenyaStake.sol\":3046:3066  stakes[_stakeholder] */\n      0xffffffffffffffffffffffffffffffffffffffff\n      and\n      0xffffffffffffffffffffffffffffffffffffffff\n      and\n      dup2\n      mstore\n      0x20\n      add\n      swap1\n      dup2\n      mstore\n      0x20\n      add\n      0x00\n      keccak256\n      sload\n        /* \"contracts/ZenyaStake.sol\":3039:3066  return stakes[_stakeholder] */\n      swap1\n      pop\n        /* \"contracts/ZenyaStake.sol\":2960:3074  function stakeOf(address _stakeholder) public view returns(uint256) {\r... */\n      swap2\n      swap1\n      pop\n      jump\t// out\n        /* \"contracts/ZenyaStake.sol\":1158:1343  function setTokenBuyPrice (uint256 buyPrice) public {\r... */\n    tag_103:\n        /* \"contracts/ZenyaStake.sol\":1243:1249  _owner */\n      0x06\n      0x00\n      swap1\n      sload\n      swap1\n      0x0100\n      exp\n      swap1\n      div\n      0xffffffffffffffffffffffffffffffffffffffff\n      and\n        /* \"contracts/ZenyaStake.sol\":1229:1249  msg.sender == _owner */\n      0xffffffffffffffffffffffffffffffffffffffff\n      and\n        /* \"contracts/ZenyaStake.sol\":1229:1239  msg.sender */\n      caller\n        /* \"contracts/ZenyaStake.sol\":1229:1249  msg.sender == _owner */\n      0xffffffffffffffffffffffffffffffffffffffff\n      and\n      eq\n        /* \"contracts/ZenyaStake.sol\":1221:1299  require(msg.sender == _owner, \"Only the Owner can set the price of the token\") */\n      tag_222\n      jumpi\n      mload(0x40)\n      0x08c379a000000000000000000000000000000000000000000000000000000000\n      dup2\n      mstore\n      0x04\n      add\n      tag_223\n      swap1\n      tag_224\n      jump\t// in\n    tag_223:\n      mload(0x40)\n      dup1\n      swap2\n      sub\n      swap1\n      revert\n    tag_222:\n        /* \"contracts/ZenyaStake.sol\":1327:1335  buyPrice */\n      dup1\n        /* \"contracts/ZenyaStake.sol\":1310:1324  _buyTokenPrice */\n      0x07\n        /* \"contracts/ZenyaStake.sol\":1310:1335  _buyTokenPrice = buyPrice */\n      dup2\n      swap1\n      sstore\n      pop\n        /* \"contracts/ZenyaStake.sol\":1158:1343  function setTokenBuyPrice (uint256 buyPrice) public {\r... */\n      pop\n      jump\t// out\n        /* \"contracts/ZenyaStake.sol\":4542:4840  function distributeRewards() public  {\r... */\n    tag_106:\n        /* \"contracts/ZenyaStake.sol\":4595:4604  uint256 s */\n      0x00\n        /* \"contracts/ZenyaStake.sol\":4590:4833  for (uint256 s = 0; s < stakeholders.length; s += 1){\r... */\n    tag_226:\n        /* \"contracts/ZenyaStake.sol\":4614:4626  stakeholders */\n      0x0a\n        /* \"contracts/ZenyaStake.sol\":4614:4633  stakeholders.length */\n      dup1\n      sload\n      swap1\n      pop\n        /* \"contracts/ZenyaStake.sol\":4610:4611  s */\n      dup2\n        /* \"contracts/ZenyaStake.sol\":4610:4633  s < stakeholders.length */\n      lt\n        /* \"contracts/ZenyaStake.sol\":4590:4833  for (uint256 s = 0; s < stakeholders.length; s += 1){\r... */\n      iszero\n      tag_227\n      jumpi\n        /* \"contracts/ZenyaStake.sol\":4657:4676  address stakeholder */\n      0x00\n        /* \"contracts/ZenyaStake.sol\":4679:4691  stakeholders */\n      0x0a\n        /* \"contracts/ZenyaStake.sol\":4692:4693  s */\n      dup3\n        /* \"contracts/ZenyaStake.sol\":4679:4694  stakeholders[s] */\n      dup2\n      sload\n      dup2\n      lt\n      tag_229\n      jumpi\n      tag_230\n      tag_195\n      jump\t// in\n    tag_230:\n    tag_229:\n      swap1\n      0x00\n      mstore\n      keccak256(0x00, 0x20)\n      add\n      0x00\n      swap1\n      sload\n      swap1\n      0x0100\n      exp\n      swap1\n      div\n      0xffffffffffffffffffffffffffffffffffffffff\n      and\n        /* \"contracts/ZenyaStake.sol\":4657:4694  address stakeholder = stakeholders[s] */\n      swap1\n      pop\n        /* \"contracts/ZenyaStake.sol\":4709:4723  uint256 reward */\n      0x00\n        /* \"contracts/ZenyaStake.sol\":4726:4754  calculateReward(stakeholder) */\n      tag_232\n        /* \"contracts/ZenyaStake.sol\":4742:4753  stakeholder */\n      dup3\n        /* \"contracts/ZenyaStake.sol\":4726:4741  calculateReward */\n      tag_155\n        /* \"contracts/ZenyaStake.sol\":4726:4754  calculateReward(stakeholder) */\n      jump\t// in\n    tag_232:\n        /* \"contracts/ZenyaStake.sol\":4709:4754  uint256 reward = calculateReward(stakeholder) */\n      swap1\n      pop\n        /* \"contracts/ZenyaStake.sol\":4815:4821  reward */\n      dup1\n        /* \"contracts/ZenyaStake.sol\":4792:4799  rewards */\n      0x0b\n        /* \"contracts/ZenyaStake.sol\":4792:4812  rewards[stakeholder] */\n      0x00\n        /* \"contracts/ZenyaStake.sol\":4800:4811  stakeholder */\n      dup5\n        /* \"contracts/ZenyaStake.sol\":4792:4812  rewards[stakeholder] */\n      0xffffffffffffffffffffffffffffffffffffffff\n      and\n      0xffffffffffffffffffffffffffffffffffffffff\n      and\n      dup2\n      mstore\n      0x20\n      add\n      swap1\n      dup2\n      mstore\n      0x20\n      add\n      0x00\n      keccak256\n      sload\n        /* \"contracts/ZenyaStake.sol\":4792:4821  rewards[stakeholder] + reward */\n      tag_233\n      swap2\n      swap1\n      tag_198\n      jump\t// in\n    tag_233:\n        /* \"contracts/ZenyaStake.sol\":4769:4776  rewards */\n      0x0b\n        /* \"contracts/ZenyaStake.sol\":4769:4789  rewards[stakeholder] */\n      0x00\n        /* \"contracts/ZenyaStake.sol\":4777:4788  stakeholder */\n      dup5\n        /* \"contracts/ZenyaStake.sol\":4769:4789  rewards[stakeholder] */\n      0xffffffffffffffffffffffffffffffffffffffff\n      and\n      0xffffffffffffffffffffffffffffffffffffffff\n      and\n      dup2\n      mstore\n      0x20\n      add\n      swap1\n      dup2\n      mstore\n      0x20\n      add\n      0x00\n      keccak256\n        /* \"contracts/ZenyaStake.sol\":4769:4821  rewards[stakeholder] = rewards[stakeholder] + reward */\n      dup2\n      swap1\n      sstore\n      pop\n        /* \"contracts/ZenyaStake.sol\":4642:4833  {\r... */\n      pop\n      pop\n        /* \"contracts/ZenyaStake.sol\":4640:4641  1 */\n      0x01\n        /* \"contracts/ZenyaStake.sol\":4635:4641  s += 1 */\n      dup2\n      tag_234\n      swap2\n      swap1\n      tag_198\n      jump\t// in\n    tag_234:\n      swap1\n      pop\n        /* \"contracts/ZenyaStake.sol\":4590:4833  for (uint256 s = 0; s < stakeholders.length; s += 1){\r... */\n      jump(tag_226)\n    tag_227:\n      pop\n        /* \"contracts/ZenyaStake.sol\":4542:4840  function distributeRewards() public  {\r... */\n      jump\t// out\n        /* \"@openzeppelin/contracts/token/ERC20/ERC20.sol\":3408:3533  function balanceOf(address account) public view virtual override returns (uint256) {... */\n    tag_110:\n        /* \"@openzeppelin/contracts/token/ERC20/ERC20.sol\":3482:3489  uint256 */\n      0x00\n        /* \"@openzeppelin/contracts/token/ERC20/ERC20.sol\":3508:3517  _balances */\n      dup1\n        /* \"@openzeppelin/contracts/token/ERC20/ERC20.sol\":3508:3526  _balances[account] */\n      0x00\n        /* \"@openzeppelin/contracts/token/ERC20/ERC20.sol\":3518:3525  account */\n      dup4\n        /* \"@openzeppelin/contracts/token/ERC20/ERC20.sol\":3508:3526  _balances[account] */\n      0xffffffffffffffffffffffffffffffffffffffff\n      and\n      0xffffffffffffffffffffffffffffffffffffffff\n      and\n      dup2\n      mstore\n      0x20\n      add\n      swap1\n      dup2\n      mstore\n      0x20\n      add\n      0x00\n      keccak256\n      sload\n        /* \"@openzeppelin/contracts/token/ERC20/ERC20.sol\":3501:3526  return _balances[account] */\n      swap1\n      pop\n        /* \"@openzeppelin/contracts/token/ERC20/ERC20.sol\":3408:3533  function balanceOf(address account) public view virtual override returns (uint256) {... */\n      swap2\n      swap1\n      pop\n      jump\t// out\n        /* \"@openzeppelin/contracts/access/Ownable.sol\":1668:1769  function renounceOwnership() public virtual onlyOwner {... */\n    tag_114:\n        /* \"@openzeppelin/contracts/access/Ownable.sol\":1259:1271  _msgSender() */\n      tag_237\n        /* \"@openzeppelin/contracts/access/Ownable.sol\":1259:1269  _msgSender */\n      tag_186\n        /* \"@openzeppelin/contracts/access/Ownable.sol\":1259:1271  _msgSender() */\n      jump\t// in\n    tag_237:\n        /* \"@openzeppelin/contracts/access/Ownable.sol\":1248:1271  owner() == _msgSender() */\n      0xffffffffffffffffffffffffffffffffffffffff\n      and\n        /* \"@openzeppelin/contracts/access/Ownable.sol\":1248:1255  owner() */\n      tag_238\n        /* \"@openzeppelin/contracts/access/Ownable.sol\":1248:1253  owner */\n      tag_120\n        /* \"@openzeppelin/contracts/access/Ownable.sol\":1248:1255  owner() */\n      jump\t// in\n    tag_238:\n        /* \"@openzeppelin/contracts/access/Ownable.sol\":1248:1271  owner() == _msgSender() */\n      0xffffffffffffffffffffffffffffffffffffffff\n      and\n      eq\n        /* \"@openzeppelin/contracts/access/Ownable.sol\":1240:1308  require(owner() == _msgSender(), \"Ownable: caller is not the owner\") */\n      tag_239\n      jumpi\n      mload(0x40)\n      0x08c379a000000000000000000000000000000000000000000000000000000000\n      dup2\n      mstore\n      0x04\n      add\n      tag_240\n      swap1\n      tag_241\n      jump\t// in\n    tag_240:\n      mload(0x40)\n      dup1\n      swap2\n      sub\n      swap1\n      revert\n    tag_239:\n        /* \"@openzeppelin/contracts/access/Ownable.sol\":1732:1762  _transferOwnership(address(0)) */\n      tag_243\n        /* \"@openzeppelin/contracts/access/Ownable.sol\":1759:1760  0 */\n      0x00\n        /* \"@openzeppelin/contracts/access/Ownable.sol\":1732:1750  _transferOwnership */\n      tag_244\n        /* \"@openzeppelin/contracts/access/Ownable.sol\":1732:1762  _transferOwnership(address(0)) */\n      jump\t// in\n    tag_243:\n        /* \"@openzeppelin/contracts/access/Ownable.sol\":1668:1769  function renounceOwnership() public virtual onlyOwner {... */\n      jump\t// out\n        /* \"contracts/ZenyaStake.sol\":1489:1950  function buyToken(address receiver) public payable{\r... */\n    tag_117:\n        /* \"contracts/ZenyaStake.sol\":1654:1664  decimals() */\n      tag_246\n        /* \"contracts/ZenyaStake.sol\":1654:1662  decimals */\n      tag_83\n        /* \"contracts/ZenyaStake.sol\":1654:1664  decimals() */\n      jump\t// in\n    tag_246:\n        /* \"contracts/ZenyaStake.sol\":1650:1652  10 */\n      0x0a\n        /* \"contracts/ZenyaStake.sol\":1650:1664  10**decimals() */\n      tag_247\n      swap2\n      swap1\n      tag_248\n      jump\t// in\n    tag_247:\n        /* \"contracts/ZenyaStake.sol\":1633:1647  _buyTokenPrice */\n      sload(0x07)\n        /* \"contracts/ZenyaStake.sol\":1633:1664  _buyTokenPrice * 10**decimals() */\n      tag_249\n      swap2\n      swap1\n      tag_250\n      jump\t// in\n    tag_249:\n        /* \"contracts/ZenyaStake.sol\":1618:1629  zenyaPerEth */\n      0x08\n        /* \"contracts/ZenyaStake.sol\":1618:1664  zenyaPerEth  = _buyTokenPrice * 10**decimals() */\n      dup2\n      swap1\n      sstore\n      pop\n        /* \"contracts/ZenyaStake.sol\":1766:1788  uint256 amountMintable */\n      0x00\n        /* \"contracts/ZenyaStake.sol\":1823:1833  decimals() */\n      tag_251\n        /* \"contracts/ZenyaStake.sol\":1823:1831  decimals */\n      tag_83\n        /* \"contracts/ZenyaStake.sol\":1823:1833  decimals() */\n      jump\t// in\n    tag_251:\n        /* \"contracts/ZenyaStake.sol\":1819:1821  10 */\n      0x0a\n        /* \"contracts/ZenyaStake.sol\":1819:1833  10**decimals() */\n      tag_252\n      swap2\n      swap1\n      tag_248\n      jump\t// in\n    tag_252:\n        /* \"contracts/ZenyaStake.sol\":1804:1815  zenyaPerEth */\n      sload(0x08)\n        /* \"contracts/ZenyaStake.sol\":1792:1801  msg.value */\n      callvalue\n        /* \"contracts/ZenyaStake.sol\":1792:1815  msg.value * zenyaPerEth */\n      tag_253\n      swap2\n      swap1\n      tag_250\n      jump\t// in\n    tag_253:\n        /* \"contracts/ZenyaStake.sol\":1791:1833  (msg.value * zenyaPerEth) / 10**decimals() */\n      tag_254\n      swap2\n      swap1\n      tag_255\n      jump\t// in\n    tag_254:\n        /* \"contracts/ZenyaStake.sol\":1766:1833  uint256 amountMintable = (msg.value * zenyaPerEth) / 10**decimals() */\n      swap1\n      pop\n        /* \"contracts/ZenyaStake.sol\":1911:1942  _mint(receiver, amountMintable) */\n      tag_256\n        /* \"contracts/ZenyaStake.sol\":1917:1925  receiver */\n      dup3\n        /* \"contracts/ZenyaStake.sol\":1927:1941  amountMintable */\n      dup3\n        /* \"contracts/ZenyaStake.sol\":1911:1916  _mint */\n      tag_257\n        /* \"contracts/ZenyaStake.sol\":1911:1942  _mint(receiver, amountMintable) */\n      jump\t// in\n    tag_256:\n        /* \"contracts/ZenyaStake.sol\":1539:1950  {\r... */\n      pop\n        /* \"contracts/ZenyaStake.sol\":1489:1950  function buyToken(address receiver) public payable{\r... */\n      pop\n      jump\t// out\n        /* \"@openzeppelin/contracts/access/Ownable.sol\":1036:1121  function owner() public view virtual returns (address) {... */\n    tag_120:\n        /* \"@openzeppelin/contracts/access/Ownable.sol\":1082:1089  address */\n      0x00\n        /* \"@openzeppelin/contracts/access/Ownable.sol\":1108:1114  _owner */\n      0x05\n      0x00\n      swap1\n      sload\n      swap1\n      0x0100\n      exp\n      swap1\n      div\n      0xffffffffffffffffffffffffffffffffffffffff\n      and\n        /* \"@openzeppelin/contracts/access/Ownable.sol\":1101:1114  return _owner */\n      swap1\n      pop\n        /* \"@openzeppelin/contracts/access/Ownable.sol\":1036:1121  function owner() public view virtual returns (address) {... */\n      swap1\n      jump\t// out\n        /* \"contracts/ZenyaStake.sol\":3462:3677  function removeStake(uint256 _stake) public {\r... */\n    tag_126:\n        /* \"contracts/ZenyaStake.sol\":3559:3565  _stake */\n      dup1\n        /* \"contracts/ZenyaStake.sol\":3538:3544  stakes */\n      0x09\n        /* \"contracts/ZenyaStake.sol\":3538:3556  stakes[msg.sender] */\n      0x00\n        /* \"contracts/ZenyaStake.sol\":3545:3555  msg.sender */\n      caller\n        /* \"contracts/ZenyaStake.sol\":3538:3556  stakes[msg.sender] */\n      0xffffffffffffffffffffffffffffffffffffffff\n      and\n      0xffffffffffffffffffffffffffffffffffffffff\n      and\n      dup2\n      mstore\n      0x20\n      add\n      swap1\n      dup2\n      mstore\n      0x20\n      add\n      0x00\n      keccak256\n      sload\n        /* \"contracts/ZenyaStake.sol\":3538:3565  stakes[msg.sender] - _stake */\n      tag_260\n      swap2\n      swap1\n      tag_261\n      jump\t// in\n    tag_260:\n        /* \"contracts/ZenyaStake.sol\":3517:3523  stakes */\n      0x09\n        /* \"contracts/ZenyaStake.sol\":3517:3535  stakes[msg.sender] */\n      0x00\n        /* \"contracts/ZenyaStake.sol\":3524:3534  msg.sender */\n      caller\n        /* \"contracts/ZenyaStake.sol\":3517:3535  stakes[msg.sender] */\n      0xffffffffffffffffffffffffffffffffffffffff\n      and\n      0xffffffffffffffffffffffffffffffffffffffff\n      and\n      dup2\n      mstore\n      0x20\n      add\n      swap1\n      dup2\n      mstore\n      0x20\n      add\n      0x00\n      keccak256\n        /* \"contracts/ZenyaStake.sol\":3517:3565  stakes[msg.sender] = stakes[msg.sender] - _stake */\n      dup2\n      swap1\n      sstore\n      pop\n        /* \"contracts/ZenyaStake.sol\":3601:3602  0 */\n      0x00\n        /* \"contracts/ZenyaStake.sol\":3579:3585  stakes */\n      0x09\n        /* \"contracts/ZenyaStake.sol\":3579:3597  stakes[msg.sender] */\n      0x00\n        /* \"contracts/ZenyaStake.sol\":3586:3596  msg.sender */\n      caller\n        /* \"contracts/ZenyaStake.sol\":3579:3597  stakes[msg.sender] */\n      0xffffffffffffffffffffffffffffffffffffffff\n      and\n      0xffffffffffffffffffffffffffffffffffffffff\n      and\n      dup2\n      mstore\n      0x20\n      add\n      swap1\n      dup2\n      mstore\n      0x20\n      add\n      0x00\n      keccak256\n      sload\n        /* \"contracts/ZenyaStake.sol\":3579:3602  stakes[msg.sender] == 0 */\n      eq\n        /* \"contracts/ZenyaStake.sol\":3576:3633  if(stakes[msg.sender] == 0) removeStakeholder(msg.sender) */\n      iszero\n      tag_262\n      jumpi\n        /* \"contracts/ZenyaStake.sol\":3604:3633  removeStakeholder(msg.sender) */\n      tag_263\n        /* \"contracts/ZenyaStake.sol\":3622:3632  msg.sender */\n      caller\n        /* \"contracts/ZenyaStake.sol\":3604:3621  removeStakeholder */\n      tag_148\n        /* \"contracts/ZenyaStake.sol\":3604:3633  removeStakeholder(msg.sender) */\n      jump\t// in\n    tag_263:\n        /* \"contracts/ZenyaStake.sol\":3576:3633  if(stakes[msg.sender] == 0) removeStakeholder(msg.sender) */\n    tag_262:\n        /* \"contracts/ZenyaStake.sol\":3644:3669  _mint(msg.sender, _stake) */\n      tag_264\n        /* \"contracts/ZenyaStake.sol\":3650:3660  msg.sender */\n      caller\n        /* \"contracts/ZenyaStake.sol\":3662:3668  _stake */\n      dup3\n        /* \"contracts/ZenyaStake.sol\":3644:3649  _mint */\n      tag_257\n        /* \"contracts/ZenyaStake.sol\":3644:3669  _mint(msg.sender, _stake) */\n      jump\t// in\n    tag_264:\n        /* \"contracts/ZenyaStake.sol\":3462:3677  function removeStake(uint256 _stake) public {\r... */\n      pop\n      jump\t// out\n        /* \"@openzeppelin/contracts/token/ERC20/ERC20.sol\":2367:2469  function symbol() public view virtual override returns (string memory) {... */\n    tag_129:\n        /* \"@openzeppelin/contracts/token/ERC20/ERC20.sol\":2423:2436  string memory */\n      0x60\n        /* \"@openzeppelin/contracts/token/ERC20/ERC20.sol\":2455:2462  _symbol */\n      0x04\n        /* \"@openzeppelin/contracts/token/ERC20/ERC20.sol\":2448:2462  return _symbol */\n      dup1\n      sload\n      tag_266\n      swap1\n      tag_179\n      jump\t// in\n    tag_266:\n      dup1\n      0x1f\n      add\n      0x20\n      dup1\n      swap2\n      div\n      mul\n      0x20\n      add\n      mload(0x40)\n      swap1\n      dup2\n      add\n      0x40\n      mstore\n      dup1\n      swap3\n      swap2\n      swap1\n      dup2\n      dup2\n      mstore\n      0x20\n      add\n      dup3\n      dup1\n      sload\n      tag_267\n      swap1\n      tag_179\n      jump\t// in\n    tag_267:\n      dup1\n      iszero\n      tag_268\n      jumpi\n      dup1\n      0x1f\n      lt\n      tag_269\n      jumpi\n      0x0100\n      dup1\n      dup4\n      sload\n      div\n      mul\n      dup4\n      mstore\n      swap2\n      0x20\n      add\n      swap2\n      jump(tag_268)\n    tag_269:\n      dup3\n      add\n      swap2\n      swap1\n      0x00\n      mstore\n      keccak256(0x00, 0x20)\n      swap1\n    tag_270:\n      dup2\n      sload\n      dup2\n      mstore\n      swap1\n      0x01\n      add\n      swap1\n      0x20\n      add\n      dup1\n      dup4\n      gt\n      tag_270\n      jumpi\n      dup3\n      swap1\n      sub\n      0x1f\n      and\n      dup3\n      add\n      swap2\n    tag_268:\n      pop\n      pop\n      pop\n      pop\n      pop\n      swap1\n      pop\n        /* \"@openzeppelin/contracts/token/ERC20/ERC20.sol\":2367:2469  function symbol() public view virtual override returns (string memory) {... */\n      swap1\n      jump\t// out\n        /* \"@openzeppelin/contracts/token/ERC20/ERC20.sol\":6596:7025  function decreaseAllowance(address spender, uint256 subtractedValue) public virtual returns (bool) {... */\n    tag_134:\n        /* \"@openzeppelin/contracts/token/ERC20/ERC20.sol\":6689:6693  bool */\n      0x00\n        /* \"@openzeppelin/contracts/token/ERC20/ERC20.sol\":6705:6718  address owner */\n      dup1\n        /* \"@openzeppelin/contracts/token/ERC20/ERC20.sol\":6721:6733  _msgSender() */\n      tag_272\n        /* \"@openzeppelin/contracts/token/ERC20/ERC20.sol\":6721:6731  _msgSender */\n      tag_186\n        /* \"@openzeppelin/contracts/token/ERC20/ERC20.sol\":6721:6733  _msgSender() */\n      jump\t// in\n    tag_272:\n        /* \"@openzeppelin/contracts/token/ERC20/ERC20.sol\":6705:6733  address owner = _msgSender() */\n      swap1\n      pop\n        /* \"@openzeppelin/contracts/token/ERC20/ERC20.sol\":6743:6767  uint256 currentAllowance */\n      0x00\n        /* \"@openzeppelin/contracts/token/ERC20/ERC20.sol\":6770:6781  _allowances */\n      0x01\n        /* \"@openzeppelin/contracts/token/ERC20/ERC20.sol\":6770:6788  _allowances[owner] */\n      0x00\n        /* \"@openzeppelin/contracts/token/ERC20/ERC20.sol\":6782:6787  owner */\n      dup4\n        /* \"@openzeppelin/contracts/token/ERC20/ERC20.sol\":6770:6788  _allowances[owner] */\n      0xffffffffffffffffffffffffffffffffffffffff\n      and\n      0xffffffffffffffffffffffffffffffffffffffff\n      and\n      dup2\n      mstore\n      0x20\n      add\n      swap1\n      dup2\n      mstore\n      0x20\n      add\n      0x00\n      keccak256\n        /* \"@openzeppelin/contracts/token/ERC20/ERC20.sol\":6770:6797  _allowances[owner][spender] */\n      0x00\n        /* \"@openzeppelin/contracts/token/ERC20/ERC20.sol\":6789:6796  spender */\n      dup7\n        /* \"@openzeppelin/contracts/token/ERC20/ERC20.sol\":6770:6797  _allowances[owner][spender] */\n      0xffffffffffffffffffffffffffffffffffffffff\n      and\n      0xffffffffffffffffffffffffffffffffffffffff\n      and\n      dup2\n      mstore\n      0x20\n      add\n      swap1\n      dup2\n      mstore\n      0x20\n      add\n      0x00\n      keccak256\n      sload\n        /* \"@openzeppelin/contracts/token/ERC20/ERC20.sol\":6743:6797  uint256 currentAllowance = _allowances[owner][spender] */\n      swap1\n      pop\n        /* \"@openzeppelin/contracts/token/ERC20/ERC20.sol\":6835:6850  subtractedValue */\n      dup4\n        /* \"@openzeppelin/contracts/token/ERC20/ERC20.sol\":6815:6831  currentAllowance */\n      dup2\n        /* \"@openzeppelin/contracts/token/ERC20/ERC20.sol\":6815:6850  currentAllowance >= subtractedValue */\n      lt\n      iszero\n        /* \"@openzeppelin/contracts/token/ERC20/ERC20.sol\":6807:6892  require(currentAllowance >= subtractedValue, \"ERC20: decreased allowance below zero\") */\n      tag_273\n      jumpi\n      mload(0x40)\n      0x08c379a000000000000000000000000000000000000000000000000000000000\n      dup2\n      mstore\n      0x04\n      add\n      tag_274\n      swap1\n      tag_275\n      jump\t// in\n    tag_274:\n      mload(0x40)\n      dup1\n      swap2\n      sub\n      swap1\n      revert\n    tag_273:\n        /* \"@openzeppelin/contracts/token/ERC20/ERC20.sol\":6926:6986  _approve(owner, spender, currentAllowance - subtractedValue) */\n      tag_276\n        /* \"@openzeppelin/contracts/token/ERC20/ERC20.sol\":6935:6940  owner */\n      dup3\n        /* \"@openzeppelin/contracts/token/ERC20/ERC20.sol\":6942:6949  spender */\n      dup7\n        /* \"@openzeppelin/contracts/token/ERC20/ERC20.sol\":6970:6985  subtractedValue */\n      dup7\n        /* \"@openzeppelin/contracts/token/ERC20/ERC20.sol\":6951:6967  currentAllowance */\n      dup5\n        /* \"@openzeppelin/contracts/token/ERC20/ERC20.sol\":6951:6985  currentAllowance - subtractedValue */\n      sub\n        /* \"@openzeppelin/contracts/token/ERC20/ERC20.sol\":6926:6934  _approve */\n      tag_188\n        /* \"@openzeppelin/contracts/token/ERC20/ERC20.sol\":6926:6986  _approve(owner, spender, currentAllowance - subtractedValue) */\n      jump\t// in\n    tag_276:\n        /* \"@openzeppelin/contracts/token/ERC20/ERC20.sol\":7014:7018  true */\n      0x01\n        /* \"@openzeppelin/contracts/token/ERC20/ERC20.sol\":7007:7018  return true */\n      swap3\n      pop\n      pop\n      pop\n        /* \"@openzeppelin/contracts/token/ERC20/ERC20.sol\":6596:7025  function decreaseAllowance(address spender, uint256 subtractedValue) public virtual returns (bool) {... */\n      swap3\n      swap2\n      pop\n      pop\n      jump\t// out\n        /* \"@openzeppelin/contracts/token/ERC20/ERC20.sol\":3729:3918  function transfer(address to, uint256 amount) public virtual override returns (bool) {... */\n    tag_139:\n        /* \"@openzeppelin/contracts/token/ERC20/ERC20.sol\":3808:3812  bool */\n      0x00\n        /* \"@openzeppelin/contracts/token/ERC20/ERC20.sol\":3824:3837  address owner */\n      dup1\n        /* \"@openzeppelin/contracts/token/ERC20/ERC20.sol\":3840:3852  _msgSender() */\n      tag_278\n        /* \"@openzeppelin/contracts/token/ERC20/ERC20.sol\":3840:3850  _msgSender */\n      tag_186\n        /* \"@openzeppelin/contracts/token/ERC20/ERC20.sol\":3840:3852  _msgSender() */\n      jump\t// in\n    tag_278:\n        /* \"@openzeppelin/contracts/token/ERC20/ERC20.sol\":3824:3852  address owner = _msgSender() */\n      swap1\n      pop\n        /* \"@openzeppelin/contracts/token/ERC20/ERC20.sol\":3862:3890  _transfer(owner, to, amount) */\n      tag_279\n        /* \"@openzeppelin/contracts/token/ERC20/ERC20.sol\":3872:3877  owner */\n      dup2\n        /* \"@openzeppelin/contracts/token/ERC20/ERC20.sol\":3879:3881  to */\n      dup6\n        /* \"@openzeppelin/contracts/token/ERC20/ERC20.sol\":3883:3889  amount */\n      dup6\n        /* \"@openzeppelin/contracts/token/ERC20/ERC20.sol\":3862:3871  _transfer */\n      tag_214\n        /* \"@openzeppelin/contracts/token/ERC20/ERC20.sol\":3862:3890  _transfer(owner, to, amount) */\n      jump\t// in\n    tag_279:\n        /* \"@openzeppelin/contracts/token/ERC20/ERC20.sol\":3907:3911  true */\n      0x01\n        /* \"@openzeppelin/contracts/token/ERC20/ERC20.sol\":3900:3911  return true */\n      swap2\n      pop\n      pop\n        /* \"@openzeppelin/contracts/token/ERC20/ERC20.sol\":3729:3918  function transfer(address to, uint256 amount) public virtual override returns (bool) {... */\n      swap3\n      swap2\n      pop\n      pop\n      jump\t// out\n        /* \"contracts/ZenyaStake.sol\":288:309  address public _owner */\n    tag_143:\n      0x06\n      0x00\n      swap1\n      sload\n      swap1\n      0x0100\n      exp\n      swap1\n      div\n      0xffffffffffffffffffffffffffffffffffffffff\n      and\n      dup2\n      jump\t// out\n        /* \"contracts/ZenyaStake.sol\":2615:2895  function removeStakeholder(address _stakeholder) public {\r... */\n    tag_148:\n        /* \"contracts/ZenyaStake.sol\":2683:2702  bool _isStakeholder */\n      0x00\n        /* \"contracts/ZenyaStake.sol\":2704:2713  uint256 s */\n      dup1\n        /* \"contracts/ZenyaStake.sol\":2717:2744  isStakeholder(_stakeholder) */\n      tag_281\n        /* \"contracts/ZenyaStake.sol\":2731:2743  _stakeholder */\n      dup4\n        /* \"contracts/ZenyaStake.sol\":2717:2730  isStakeholder */\n      tag_170\n        /* \"contracts/ZenyaStake.sol\":2717:2744  isStakeholder(_stakeholder) */\n      jump\t// in\n    tag_281:\n        /* \"contracts/ZenyaStake.sol\":2682:2744  (bool _isStakeholder, uint256 s) = isStakeholder(_stakeholder) */\n      swap2\n      pop\n      swap2\n      pop\n        /* \"contracts/ZenyaStake.sol\":2758:2772  _isStakeholder */\n      dup2\n        /* \"contracts/ZenyaStake.sol\":2755:2888  if(_isStakeholder){\r... */\n      iszero\n      tag_282\n      jumpi\n        /* \"contracts/ZenyaStake.sol\":2806:2818  stakeholders */\n      0x0a\n        /* \"contracts/ZenyaStake.sol\":2841:2842  1 */\n      0x01\n        /* \"contracts/ZenyaStake.sol\":2819:2831  stakeholders */\n      0x0a\n        /* \"contracts/ZenyaStake.sol\":2819:2838  stakeholders.length */\n      dup1\n      sload\n      swap1\n      pop\n        /* \"contracts/ZenyaStake.sol\":2819:2842  stakeholders.length - 1 */\n      tag_283\n      swap2\n      swap1\n      tag_261\n      jump\t// in\n    tag_283:\n        /* \"contracts/ZenyaStake.sol\":2806:2843  stakeholders[stakeholders.length - 1] */\n      dup2\n      sload\n      dup2\n      lt\n      tag_284\n      jumpi\n      tag_285\n      tag_195\n      jump\t// in\n    tag_285:\n    tag_284:\n      swap1\n      0x00\n      mstore\n      keccak256(0x00, 0x20)\n      add\n      0x00\n      swap1\n      sload\n      swap1\n      0x0100\n      exp\n      swap1\n      div\n      0xffffffffffffffffffffffffffffffffffffffff\n      and\n        /* \"contracts/ZenyaStake.sol\":2788:2800  stakeholders */\n      0x0a\n        /* \"contracts/ZenyaStake.sol\":2801:2802  s */\n      dup3\n        /* \"contracts/ZenyaStake.sol\":2788:2803  stakeholders[s] */\n      dup2\n      sload\n      dup2\n      lt\n      tag_287\n      jumpi\n      tag_288\n      tag_195\n      jump\t// in\n    tag_288:\n    tag_287:\n      swap1\n      0x00\n      mstore\n      keccak256(0x00, 0x20)\n      add\n      0x00\n        /* \"contracts/ZenyaStake.sol\":2788:2843  stakeholders[s] = stakeholders[stakeholders.length - 1] */\n      0x0100\n      exp\n      dup2\n      sload\n      dup2\n      0xffffffffffffffffffffffffffffffffffffffff\n      mul\n      not\n      and\n      swap1\n      dup4\n      0xffffffffffffffffffffffffffffffffffffffff\n      and\n      mul\n      or\n      swap1\n      sstore\n      pop\n        /* \"contracts/ZenyaStake.sol\":2858:2870  stakeholders */\n      0x0a\n        /* \"contracts/ZenyaStake.sol\":2858:2876  stakeholders.pop() */\n      dup1\n      sload\n      dup1\n      tag_290\n      jumpi\n      tag_291\n      tag_292\n      jump\t// in\n    tag_291:\n    tag_290:\n      0x01\n      swap1\n      sub\n      dup2\n      dup2\n      swap1\n      0x00\n      mstore\n      keccak256(0x00, 0x20)\n      add\n      exp(0x0100, 0x00)\n      dup2\n      sload\n      swap1\n      0xffffffffffffffffffffffffffffffffffffffff\n      mul\n      not\n      and\n      swap1\n      sstore\n      swap1\n      sstore\n        /* \"contracts/ZenyaStake.sol\":2755:2888  if(_isStakeholder){\r... */\n    tag_282:\n        /* \"contracts/ZenyaStake.sol\":2671:2895  {\r... */\n      pop\n      pop\n        /* \"contracts/ZenyaStake.sol\":2615:2895  function removeStakeholder(address _stakeholder) public {\r... */\n      pop\n      jump\t// out\n        /* \"contracts/ZenyaStake.sol\":4912:5191  function withdrawReward() public {\r... */\n    tag_151:\n        /* \"contracts/ZenyaStake.sol\":5017:5025  deadline */\n      sload(0x0c)\n        /* \"contracts/ZenyaStake.sol\":4998:5013  block.timestamp */\n      timestamp\n        /* \"contracts/ZenyaStake.sol\":4998:5025  block.timestamp >= deadline */\n      lt\n      iszero\n        /* \"contracts/ZenyaStake.sol\":4990:5066  require(block.timestamp >= deadline, \"Your 7 days deadline is not complete\") */\n      tag_295\n      jumpi\n      mload(0x40)\n      0x08c379a000000000000000000000000000000000000000000000000000000000\n      dup2\n      mstore\n      0x04\n      add\n      tag_296\n      swap1\n      tag_297\n      jump\t// in\n    tag_296:\n      mload(0x40)\n      dup1\n      swap2\n      sub\n      swap1\n      revert\n    tag_295:\n        /* \"contracts/ZenyaStake.sol\":5077:5091  uint256 reward */\n      0x00\n        /* \"contracts/ZenyaStake.sol\":5094:5101  rewards */\n      0x0b\n        /* \"contracts/ZenyaStake.sol\":5094:5113  rewards[msg.sender] */\n      0x00\n        /* \"contracts/ZenyaStake.sol\":5102:5112  msg.sender */\n      caller\n        /* \"contracts/ZenyaStake.sol\":5094:5113  rewards[msg.sender] */\n      0xffffffffffffffffffffffffffffffffffffffff\n      and\n      0xffffffffffffffffffffffffffffffffffffffff\n      and\n      dup2\n      mstore\n      0x20\n      add\n      swap1\n      dup2\n      mstore\n      0x20\n      add\n      0x00\n      keccak256\n      sload\n        /* \"contracts/ZenyaStake.sol\":5077:5113  uint256 reward = rewards[msg.sender] */\n      swap1\n      pop\n        /* \"contracts/ZenyaStake.sol\":5146:5147  0 */\n      0x00\n        /* \"contracts/ZenyaStake.sol\":5124:5131  rewards */\n      0x0b\n        /* \"contracts/ZenyaStake.sol\":5124:5143  rewards[msg.sender] */\n      0x00\n        /* \"contracts/ZenyaStake.sol\":5132:5142  msg.sender */\n      caller\n        /* \"contracts/ZenyaStake.sol\":5124:5143  rewards[msg.sender] */\n      0xffffffffffffffffffffffffffffffffffffffff\n      and\n      0xffffffffffffffffffffffffffffffffffffffff\n      and\n      dup2\n      mstore\n      0x20\n      add\n      swap1\n      dup2\n      mstore\n      0x20\n      add\n      0x00\n      keccak256\n        /* \"contracts/ZenyaStake.sol\":5124:5147  rewards[msg.sender] = 0 */\n      dup2\n      swap1\n      sstore\n      pop\n        /* \"contracts/ZenyaStake.sol\":5158:5183  _mint(msg.sender, reward) */\n      tag_298\n        /* \"contracts/ZenyaStake.sol\":5164:5174  msg.sender */\n      caller\n        /* \"contracts/ZenyaStake.sol\":5176:5182  reward */\n      dup3\n        /* \"contracts/ZenyaStake.sol\":5158:5163  _mint */\n      tag_257\n        /* \"contracts/ZenyaStake.sol\":5158:5183  _mint(msg.sender, reward) */\n      jump\t// in\n    tag_298:\n        /* \"contracts/ZenyaStake.sol\":4945:5191  {\r... */\n      pop\n        /* \"contracts/ZenyaStake.sol\":4912:5191  function withdrawReward() public {\r... */\n      jump\t// out\n        /* \"contracts/ZenyaStake.sol\":4348:4475  function calculateReward(address _stakeholder) public view returns(uint256){\r... */\n    tag_155:\n        /* \"contracts/ZenyaStake.sol\":4415:4422  uint256 */\n      0x00\n        /* \"contracts/ZenyaStake.sol\":4464:4467  100 */\n      0x64\n        /* \"contracts/ZenyaStake.sol\":4441:4447  stakes */\n      0x09\n        /* \"contracts/ZenyaStake.sol\":4441:4461  stakes[_stakeholder] */\n      0x00\n        /* \"contracts/ZenyaStake.sol\":4448:4460  _stakeholder */\n      dup5\n        /* \"contracts/ZenyaStake.sol\":4441:4461  stakes[_stakeholder] */\n      0xffffffffffffffffffffffffffffffffffffffff\n      and\n      0xffffffffffffffffffffffffffffffffffffffff\n      and\n      dup2\n      mstore\n      0x20\n      add\n      swap1\n      dup2\n      mstore\n      0x20\n      add\n      0x00\n      keccak256\n      sload\n        /* \"contracts/ZenyaStake.sol\":4441:4467  stakes[_stakeholder] / 100 */\n      tag_300\n      swap2\n      swap1\n      tag_255\n      jump\t// in\n    tag_300:\n        /* \"contracts/ZenyaStake.sol\":4434:4467  return stakes[_stakeholder] / 100 */\n      swap1\n      pop\n        /* \"contracts/ZenyaStake.sol\":4348:4475  function calculateReward(address _stakeholder) public view returns(uint256){\r... */\n      swap2\n      swap1\n      pop\n      jump\t// out\n        /* \"@openzeppelin/contracts/token/ERC20/ERC20.sol\":3976:4125  function allowance(address owner, address spender) public view virtual override returns (uint256) {... */\n    tag_161:\n        /* \"@openzeppelin/contracts/token/ERC20/ERC20.sol\":4065:4072  uint256 */\n      0x00\n        /* \"@openzeppelin/contracts/token/ERC20/ERC20.sol\":4091:4102  _allowances */\n      0x01\n        /* \"@openzeppelin/contracts/token/ERC20/ERC20.sol\":4091:4109  _allowances[owner] */\n      0x00\n        /* \"@openzeppelin/contracts/token/ERC20/ERC20.sol\":4103:4108  owner */\n      dup5\n        /* \"@openzeppelin/contracts/token/ERC20/ERC20.sol\":4091:4109  _allowances[owner] */\n      0xffffffffffffffffffffffffffffffffffffffff\n      and\n      0xffffffffffffffffffffffffffffffffffffffff\n      and\n      dup2\n      mstore\n      0x20\n      add\n      swap1\n      dup2\n      mstore\n      0x20\n      add\n      0x00\n      keccak256\n        /* \"@openzeppelin/contracts/token/ERC20/ERC20.sol\":4091:4118  _allowances[owner][spender] */\n      0x00\n        /* \"@openzeppelin/contracts/token/ERC20/ERC20.sol\":4110:4117  spender */\n      dup4\n        /* \"@openzeppelin/contracts/token/ERC20/ERC20.sol\":4091:4118  _allowances[owner][spender] */\n      0xffffffffffffffffffffffffffffffffffffffff\n      and\n      0xffffffffffffffffffffffffffffffffffffffff\n      and\n      dup2\n      mstore\n      0x20\n      add\n      swap1\n      dup2\n      mstore\n      0x20\n      add\n      0x00\n      keccak256\n      sload\n        /* \"@openzeppelin/contracts/token/ERC20/ERC20.sol\":4084:4118  return _allowances[owner][spender] */\n      swap1\n      pop\n        /* \"@openzeppelin/contracts/token/ERC20/ERC20.sol\":3976:4125  function allowance(address owner, address spender) public view virtual override returns (uint256) {... */\n      swap3\n      swap2\n      pop\n      pop\n      jump\t// out\n        /* \"contracts/ZenyaStake.sol\":2381:2566  function addStakeholder(address _stakeholder) public {\r... */\n    tag_166:\n        /* \"contracts/ZenyaStake.sol\":2445:2464  bool _isStakeholder */\n      0x00\n        /* \"contracts/ZenyaStake.sol\":2470:2497  isStakeholder(_stakeholder) */\n      tag_303\n        /* \"contracts/ZenyaStake.sol\":2484:2496  _stakeholder */\n      dup3\n        /* \"contracts/ZenyaStake.sol\":2470:2483  isStakeholder */\n      tag_170\n        /* \"contracts/ZenyaStake.sol\":2470:2497  isStakeholder(_stakeholder) */\n      jump\t// in\n    tag_303:\n        /* \"contracts/ZenyaStake.sol\":2444:2497  (bool _isStakeholder, ) = isStakeholder(_stakeholder) */\n      pop\n      swap1\n      pop\n        /* \"contracts/ZenyaStake.sol\":2511:2525  _isStakeholder */\n      dup1\n        /* \"contracts/ZenyaStake.sol\":2507:2558  if(!_isStakeholder) stakeholders.push(_stakeholder) */\n      tag_304\n      jumpi\n        /* \"contracts/ZenyaStake.sol\":2527:2539  stakeholders */\n      0x0a\n        /* \"contracts/ZenyaStake.sol\":2545:2557  _stakeholder */\n      dup3\n        /* \"contracts/ZenyaStake.sol\":2527:2558  stakeholders.push(_stakeholder) */\n      swap1\n      dup1\n      0x01\n      dup2\n      sload\n      add\n      dup1\n      dup3\n      sstore\n      dup1\n      swap2\n      pop\n      pop\n      0x01\n      swap1\n      sub\n      swap1\n      0x00\n      mstore\n      keccak256(0x00, 0x20)\n      add\n      0x00\n      swap1\n      swap2\n      swap1\n      swap2\n      swap1\n      swap2\n      0x0100\n      exp\n      dup2\n      sload\n      dup2\n      0xffffffffffffffffffffffffffffffffffffffff\n      mul\n      not\n      and\n      swap1\n      dup4\n      0xffffffffffffffffffffffffffffffffffffffff\n      and\n      mul\n      or\n      swap1\n      sstore\n      pop\n        /* \"contracts/ZenyaStake.sol\":2507:2558  if(!_isStakeholder) stakeholders.push(_stakeholder) */\n    tag_304:\n        /* \"contracts/ZenyaStake.sol\":2434:2566  {\r... */\n      pop\n        /* \"contracts/ZenyaStake.sol\":2381:2566  function addStakeholder(address _stakeholder) public {\r... */\n      pop\n      jump\t// out\n        /* \"contracts/ZenyaStake.sol\":2086:2335  function isStakeholder(address _address) public view returns(bool, uint256) {\r... */\n    tag_170:\n        /* \"contracts/ZenyaStake.sol\":2147:2151  bool */\n      0x00\n        /* \"contracts/ZenyaStake.sol\":2153:2160  uint256 */\n      dup1\n        /* \"contracts/ZenyaStake.sol\":2177:2186  uint256 s */\n      0x00\n        /* \"contracts/ZenyaStake.sol\":2172:2300  for (uint256 s = 0; s < stakeholders.length; s += 1) {\r... */\n    tag_307:\n        /* \"contracts/ZenyaStake.sol\":2196:2208  stakeholders */\n      0x0a\n        /* \"contracts/ZenyaStake.sol\":2196:2215  stakeholders.length */\n      dup1\n      sload\n      swap1\n      pop\n        /* \"contracts/ZenyaStake.sol\":2192:2193  s */\n      dup2\n        /* \"contracts/ZenyaStake.sol\":2192:2215  s < stakeholders.length */\n      lt\n        /* \"contracts/ZenyaStake.sol\":2172:2300  for (uint256 s = 0; s < stakeholders.length; s += 1) {\r... */\n      iszero\n      tag_308\n      jumpi\n        /* \"contracts/ZenyaStake.sol\":2255:2267  stakeholders */\n      0x0a\n        /* \"contracts/ZenyaStake.sol\":2268:2269  s */\n      dup2\n        /* \"contracts/ZenyaStake.sol\":2255:2270  stakeholders[s] */\n      dup2\n      sload\n      dup2\n      lt\n      tag_310\n      jumpi\n      tag_311\n      tag_195\n      jump\t// in\n    tag_311:\n    tag_310:\n      swap1\n      0x00\n      mstore\n      keccak256(0x00, 0x20)\n      add\n      0x00\n      swap1\n      sload\n      swap1\n      0x0100\n      exp\n      swap1\n      div\n      0xffffffffffffffffffffffffffffffffffffffff\n      and\n        /* \"contracts/ZenyaStake.sol\":2243:2270  _address == stakeholders[s] */\n      0xffffffffffffffffffffffffffffffffffffffff\n      and\n        /* \"contracts/ZenyaStake.sol\":2243:2251  _address */\n      dup5\n        /* \"contracts/ZenyaStake.sol\":2243:2270  _address == stakeholders[s] */\n      0xffffffffffffffffffffffffffffffffffffffff\n      and\n      eq\n        /* \"contracts/ZenyaStake.sol\":2239:2288  if (_address == stakeholders[s]) return (true, s) */\n      iszero\n      tag_313\n      jumpi\n        /* \"contracts/ZenyaStake.sol\":2280:2284  true */\n      0x01\n        /* \"contracts/ZenyaStake.sol\":2286:2287  s */\n      dup2\n        /* \"contracts/ZenyaStake.sol\":2272:2288  return (true, s) */\n      swap3\n      pop\n      swap3\n      pop\n      pop\n      jump(tag_306)\n        /* \"contracts/ZenyaStake.sol\":2239:2288  if (_address == stakeholders[s]) return (true, s) */\n    tag_313:\n        /* \"contracts/ZenyaStake.sol\":2222:2223  1 */\n      0x01\n        /* \"contracts/ZenyaStake.sol\":2217:2223  s += 1 */\n      dup2\n      tag_314\n      swap2\n      swap1\n      tag_198\n      jump\t// in\n    tag_314:\n      swap1\n      pop\n        /* \"contracts/ZenyaStake.sol\":2172:2300  for (uint256 s = 0; s < stakeholders.length; s += 1) {\r... */\n      jump(tag_307)\n    tag_308:\n      pop\n        /* \"contracts/ZenyaStake.sol\":2318:2323  false */\n      0x00\n        /* \"contracts/ZenyaStake.sol\":2325:2326  0 */\n      dup1\n        /* \"contracts/ZenyaStake.sol\":2310:2327  return (false, 0) */\n      swap2\n      pop\n      swap2\n      pop\n        /* \"contracts/ZenyaStake.sol\":2086:2335  function isStakeholder(address _address) public view returns(bool, uint256) {\r... */\n    tag_306:\n      swap2\n      pop\n      swap2\n      jump\t// out\n        /* \"@openzeppelin/contracts/access/Ownable.sol\":1918:2116  function transferOwnership(address newOwner) public virtual onlyOwner {... */\n    tag_176:\n        /* \"@openzeppelin/contracts/access/Ownable.sol\":1259:1271  _msgSender() */\n      tag_316\n        /* \"@openzeppelin/contracts/access/Ownable.sol\":1259:1269  _msgSender */\n      tag_186\n        /* \"@openzeppelin/contracts/access/Ownable.sol\":1259:1271  _msgSender() */\n      jump\t// in\n    tag_316:\n        /* \"@openzeppelin/contracts/access/Ownable.sol\":1248:1271  owner() == _msgSender() */\n      0xffffffffffffffffffffffffffffffffffffffff\n      and\n        /* \"@openzeppelin/contracts/access/Ownable.sol\":1248:1255  owner() */\n      tag_317\n        /* \"@openzeppelin/contracts/access/Ownable.sol\":1248:1253  owner */\n      tag_120\n        /* \"@openzeppelin/contracts/access/Ownable.sol\":1248:1255  owner() */\n      jump\t// in\n    tag_317:\n        /* \"@openzeppelin/contracts/access/Ownable.sol\":1248:1271  owner() == _msgSender() */\n      0xffffffffffffffffffffffffffffffffffffffff\n      and\n      eq\n        /* \"@openzeppelin/contracts/access/Ownable.sol\":1240:1308  require(owner() == _msgSender(), \"Ownable: caller is not the owner\") */\n      tag_318\n      jumpi\n      mload(0x40)\n      0x08c379a000000000000000000000000000000000000000000000000000000000\n      dup2\n      mstore\n      0x04\n      add\n      tag_319\n      swap1\n      tag_241\n      jump\t// in\n    tag_319:\n      mload(0x40)\n      dup1\n      swap2\n      sub\n      swap1\n      revert\n    tag_318:\n        /* \"@openzeppelin/contracts/access/Ownable.sol\":2026:2027  0 */\n      0x00\n        /* \"@openzeppelin/contracts/access/Ownable.sol\":2006:2028  newOwner != address(0) */\n      0xffffffffffffffffffffffffffffffffffffffff\n      and\n        /* \"@openzeppelin/contracts/access/Ownable.sol\":2006:2014  newOwner */\n      dup2\n        /* \"@openzeppelin/contracts/access/Ownable.sol\":2006:2028  newOwner != address(0) */\n      0xffffffffffffffffffffffffffffffffffffffff\n      and\n      eq\n      iszero\n        /* \"@openzeppelin/contracts/access/Ownable.sol\":1998:2071  require(newOwner != address(0), \"Ownable: new owner is the zero address\") */\n      tag_321\n      jumpi\n      mload(0x40)\n      0x08c379a000000000000000000000000000000000000000000000000000000000\n      dup2\n      mstore\n      0x04\n      add\n      tag_322\n      swap1\n      tag_323\n      jump\t// in\n    tag_322:\n      mload(0x40)\n      dup1\n      swap2\n      sub\n      swap1\n      revert\n    tag_321:\n        /* \"@openzeppelin/contracts/access/Ownable.sol\":2081:2109  _transferOwnership(newOwner) */\n      tag_324\n        /* \"@openzeppelin/contracts/access/Ownable.sol\":2100:2108  newOwner */\n      dup2\n        /* \"@openzeppelin/contracts/access/Ownable.sol\":2081:2099  _transferOwnership */\n      tag_244\n        /* \"@openzeppelin/contracts/access/Ownable.sol\":2081:2109  _transferOwnership(newOwner) */\n      jump\t// in\n    tag_324:\n        /* \"@openzeppelin/contracts/access/Ownable.sol\":1918:2116  function transferOwnership(address newOwner) public virtual onlyOwner {... */\n      pop\n      jump\t// out\n        /* \"@openzeppelin/contracts/utils/Context.sol\":640:736  function _msgSender() internal view virtual returns (address) {... */\n    tag_186:\n        /* \"@openzeppelin/contracts/utils/Context.sol\":693:700  address */\n      0x00\n        /* \"@openzeppelin/contracts/utils/Context.sol\":719:729  msg.sender */\n      caller\n        /* \"@openzeppelin/contracts/utils/Context.sol\":712:729  return msg.sender */\n      swap1\n      pop\n        /* \"@openzeppelin/contracts/utils/Context.sol\":640:736  function _msgSender() internal view virtual returns (address) {... */\n      swap1\n      jump\t// out\n        /* \"@openzeppelin/contracts/token/ERC20/ERC20.sol\":10123:10493  function _approve(... */\n    tag_188:\n        /* \"@openzeppelin/contracts/token/ERC20/ERC20.sol\":10271:10272  0 */\n      0x00\n        /* \"@openzeppelin/contracts/token/ERC20/ERC20.sol\":10254:10273  owner != address(0) */\n      0xffffffffffffffffffffffffffffffffffffffff\n      and\n        /* \"@openzeppelin/contracts/token/ERC20/ERC20.sol\":10254:10259  owner */\n      dup4\n        /* \"@openzeppelin/contracts/token/ERC20/ERC20.sol\":10254:10273  owner != address(0) */\n      0xffffffffffffffffffffffffffffffffffffffff\n      and\n      eq\n      iszero\n        /* \"@openzeppelin/contracts/token/ERC20/ERC20.sol\":10246:10314  require(owner != address(0), \"ERC20: approve from the zero address\") */\n      tag_327\n      jumpi\n      mload(0x40)\n      0x08c379a000000000000000000000000000000000000000000000000000000000\n      dup2\n      mstore\n      0x04\n      add\n      tag_328\n      swap1\n      tag_329\n      jump\t// in\n    tag_328:\n      mload(0x40)\n      dup1\n      swap2\n      sub\n      swap1\n      revert\n    tag_327:\n        /* \"@openzeppelin/contracts/token/ERC20/ERC20.sol\":10351:10352  0 */\n      0x00\n        /* \"@openzeppelin/contracts/token/ERC20/ERC20.sol\":10332:10353  spender != address(0) */\n      0xffffffffffffffffffffffffffffffffffffffff\n      and\n        /* \"@openzeppelin/contracts/token/ERC20/ERC20.sol\":10332:10339  spender */\n      dup3\n        /* \"@openzeppelin/contracts/token/ERC20/ERC20.sol\":10332:10353  spender != address(0) */\n      0xffffffffffffffffffffffffffffffffffffffff\n      and\n      eq\n      iszero\n        /* \"@openzeppelin/contracts/token/ERC20/ERC20.sol\":10324:10392  require(spender != address(0), \"ERC20: approve to the zero address\") */\n      tag_330\n      jumpi\n      mload(0x40)\n      0x08c379a000000000000000000000000000000000000000000000000000000000\n      dup2\n      mstore\n      0x04\n      add\n      tag_331\n      swap1\n      tag_332\n      jump\t// in\n    tag_331:\n      mload(0x40)\n      dup1\n      swap2\n      sub\n      swap1\n      revert\n    tag_330:\n        /* \"@openzeppelin/contracts/token/ERC20/ERC20.sol\":10433:10439  amount */\n      dup1\n        /* \"@openzeppelin/contracts/token/ERC20/ERC20.sol\":10403:10414  _allowances */\n      0x01\n        /* \"@openzeppelin/contracts/token/ERC20/ERC20.sol\":10403:10421  _allowances[owner] */\n      0x00\n        /* \"@openzeppelin/contracts/token/ERC20/ERC20.sol\":10415:10420  owner */\n      dup6\n        /* \"@openzeppelin/contracts/token/ERC20/ERC20.sol\":10403:10421  _allowances[owner] */\n      0xffffffffffffffffffffffffffffffffffffffff\n      and\n      0xffffffffffffffffffffffffffffffffffffffff\n      and\n      dup2\n      mstore\n      0x20\n      add\n      swap1\n      dup2\n      mstore\n      0x20\n      add\n      0x00\n      keccak256\n        /* \"@openzeppelin/contracts/token/ERC20/ERC20.sol\":10403:10430  _allowances[owner][spender] */\n      0x00\n        /* \"@openzeppelin/contracts/token/ERC20/ERC20.sol\":10422:10429  spender */\n      dup5\n        /* \"@openzeppelin/contracts/token/ERC20/ERC20.sol\":10403:10430  _allowances[owner][spender] */\n      0xffffffffffffffffffffffffffffffffffffffff\n      and\n      0xffffffffffffffffffffffffffffffffffffffff\n      and\n      dup2\n      mstore\n      0x20\n      add\n      swap1\n      dup2\n      mstore\n      0x20\n      add\n      0x00\n      keccak256\n        /* \"@openzeppelin/contracts/token/ERC20/ERC20.sol\":10403:10439  _allowances[owner][spender] = amount */\n      dup2\n      swap1\n      sstore\n      pop\n        /* \"@openzeppelin/contracts/token/ERC20/ERC20.sol\":10470:10477  spender */\n      dup2\n        /* \"@openzeppelin/contracts/token/ERC20/ERC20.sol\":10454:10486  Approval(owner, spender, amount) */\n      0xffffffffffffffffffffffffffffffffffffffff\n      and\n        /* \"@openzeppelin/contracts/token/ERC20/ERC20.sol\":10463:10468  owner */\n      dup4\n        /* \"@openzeppelin/contracts/token/ERC20/ERC20.sol\":10454:10486  Approval(owner, spender, amount) */\n      0xffffffffffffffffffffffffffffffffffffffff\n      and\n      0x8c5be1e5ebec7d5bd14f71427d1e84f3dd0314c0f7b2291e5b200ac8c7c3b925\n        /* \"@openzeppelin/contracts/token/ERC20/ERC20.sol\":10479:10485  amount */\n      dup4\n        /* \"@openzeppelin/contracts/token/ERC20/ERC20.sol\":10454:10486  Approval(owner, spender, amount) */\n      mload(0x40)\n      tag_333\n      swap2\n      swap1\n      tag_43\n      jump\t// in\n    tag_333:\n      mload(0x40)\n      dup1\n      swap2\n      sub\n      swap1\n      log3\n        /* \"@openzeppelin/contracts/token/ERC20/ERC20.sol\":10123:10493  function _approve(... */\n      pop\n      pop\n      pop\n      jump\t// out\n        /* \"@openzeppelin/contracts/token/ERC20/ERC20.sol\":9124:9700  function _burn(address account, uint256 amount) internal virtual {... */\n    tag_203:\n        /* \"@openzeppelin/contracts/token/ERC20/ERC20.sol\":9226:9227  0 */\n      0x00\n        /* \"@openzeppelin/contracts/token/ERC20/ERC20.sol\":9207:9228  account != address(0) */\n      0xffffffffffffffffffffffffffffffffffffffff\n      and\n        /* \"@openzeppelin/contracts/token/ERC20/ERC20.sol\":9207:9214  account */\n      dup3\n        /* \"@openzeppelin/contracts/token/ERC20/ERC20.sol\":9207:9228  account != address(0) */\n      0xffffffffffffffffffffffffffffffffffffffff\n      and\n      eq\n      iszero\n        /* \"@openzeppelin/contracts/token/ERC20/ERC20.sol\":9199:9266  require(account != address(0), \"ERC20: burn from the zero address\") */\n      tag_335\n      jumpi\n      mload(0x40)\n      0x08c379a000000000000000000000000000000000000000000000000000000000\n      dup2\n      mstore\n      0x04\n      add\n      tag_336\n      swap1\n      tag_337\n      jump\t// in\n    tag_336:\n      mload(0x40)\n      dup1\n      swap2\n      sub\n      swap1\n      revert\n    tag_335:\n        /* \"@openzeppelin/contracts/token/ERC20/ERC20.sol\":9277:9326  _beforeTokenTransfer(account, address(0), amount) */\n      tag_338\n        /* \"@openzeppelin/contracts/token/ERC20/ERC20.sol\":9298:9305  account */\n      dup3\n        /* \"@openzeppelin/contracts/token/ERC20/ERC20.sol\":9315:9316  0 */\n      0x00\n        /* \"@openzeppelin/contracts/token/ERC20/ERC20.sol\":9319:9325  amount */\n      dup4\n        /* \"@openzeppelin/contracts/token/ERC20/ERC20.sol\":9277:9297  _beforeTokenTransfer */\n      tag_339\n        /* \"@openzeppelin/contracts/token/ERC20/ERC20.sol\":9277:9326  _beforeTokenTransfer(account, address(0), amount) */\n      jump\t// in\n    tag_338:\n        /* \"@openzeppelin/contracts/token/ERC20/ERC20.sol\":9337:9359  uint256 accountBalance */\n      0x00\n        /* \"@openzeppelin/contracts/token/ERC20/ERC20.sol\":9362:9371  _balances */\n      dup1\n        /* \"@openzeppelin/contracts/token/ERC20/ERC20.sol\":9362:9380  _balances[account] */\n      0x00\n        /* \"@openzeppelin/contracts/token/ERC20/ERC20.sol\":9372:9379  account */\n      dup5\n        /* \"@openzeppelin/contracts/token/ERC20/ERC20.sol\":9362:9380  _balances[account] */\n      0xffffffffffffffffffffffffffffffffffffffff\n      and\n      0xffffffffffffffffffffffffffffffffffffffff\n      and\n      dup2\n      mstore\n      0x20\n      add\n      swap1\n      dup2\n      mstore\n      0x20\n      add\n      0x00\n      keccak256\n      sload\n        /* \"@openzeppelin/contracts/token/ERC20/ERC20.sol\":9337:9380  uint256 accountBalance = _balances[account] */\n      swap1\n      pop\n        /* \"@openzeppelin/contracts/token/ERC20/ERC20.sol\":9416:9422  amount */\n      dup2\n        /* \"@openzeppelin/contracts/token/ERC20/ERC20.sol\":9398:9412  accountBalance */\n      dup2\n        /* \"@openzeppelin/contracts/token/ERC20/ERC20.sol\":9398:9422  accountBalance >= amount */\n      lt\n      iszero\n        /* \"@openzeppelin/contracts/token/ERC20/ERC20.sol\":9390:9461  require(accountBalance >= amount, \"ERC20: burn amount exceeds balance\") */\n      tag_340\n      jumpi\n      mload(0x40)\n      0x08c379a000000000000000000000000000000000000000000000000000000000\n      dup2\n      mstore\n      0x04\n      add\n      tag_341\n      swap1\n      tag_342\n      jump\t// in\n    tag_341:\n      mload(0x40)\n      dup1\n      swap2\n      sub\n      swap1\n      revert\n    tag_340:\n        /* \"@openzeppelin/contracts/token/ERC20/ERC20.sol\":9533:9539  amount */\n      dup2\n        /* \"@openzeppelin/contracts/token/ERC20/ERC20.sol\":9516:9530  accountBalance */\n      dup2\n        /* \"@openzeppelin/contracts/token/ERC20/ERC20.sol\":9516:9539  accountBalance - amount */\n      sub\n        /* \"@openzeppelin/contracts/token/ERC20/ERC20.sol\":9495:9504  _balances */\n      0x00\n        /* \"@openzeppelin/contracts/token/ERC20/ERC20.sol\":9495:9513  _balances[account] */\n      dup1\n        /* \"@openzeppelin/contracts/token/ERC20/ERC20.sol\":9505:9512  account */\n      dup6\n        /* \"@openzeppelin/contracts/token/ERC20/ERC20.sol\":9495:9513  _balances[account] */\n      0xffffffffffffffffffffffffffffffffffffffff\n      and\n      0xffffffffffffffffffffffffffffffffffffffff\n      and\n      dup2\n      mstore\n      0x20\n      add\n      swap1\n      dup2\n      mstore\n      0x20\n      add\n      0x00\n      keccak256\n        /* \"@openzeppelin/contracts/token/ERC20/ERC20.sol\":9495:9539  _balances[account] = accountBalance - amount */\n      dup2\n      swap1\n      sstore\n      pop\n        /* \"@openzeppelin/contracts/token/ERC20/ERC20.sol\":9575:9581  amount */\n      dup2\n        /* \"@openzeppelin/contracts/token/ERC20/ERC20.sol\":9559:9571  _totalSupply */\n      0x02\n      0x00\n        /* \"@openzeppelin/contracts/token/ERC20/ERC20.sol\":9559:9581  _totalSupply -= amount */\n      dup3\n      dup3\n      sload\n      tag_343\n      swap2\n      swap1\n      tag_261\n      jump\t// in\n    tag_343:\n      swap3\n      pop\n      pop\n      dup2\n      swap1\n      sstore\n      pop\n        /* \"@openzeppelin/contracts/token/ERC20/ERC20.sol\":9623:9624  0 */\n      0x00\n        /* \"@openzeppelin/contracts/token/ERC20/ERC20.sol\":9597:9634  Transfer(account, address(0), amount) */\n      0xffffffffffffffffffffffffffffffffffffffff\n      and\n        /* \"@openzeppelin/contracts/token/ERC20/ERC20.sol\":9606:9613  account */\n      dup4\n        /* \"@openzeppelin/contracts/token/ERC20/ERC20.sol\":9597:9634  Transfer(account, address(0), amount) */\n      0xffffffffffffffffffffffffffffffffffffffff\n      and\n      0xddf252ad1be2c89b69c2b068fc378daa952ba7f163c4a11628f55a4df523b3ef\n        /* \"@openzeppelin/contracts/token/ERC20/ERC20.sol\":9627:9633  amount */\n      dup5\n        /* \"@openzeppelin/contracts/token/ERC20/ERC20.sol\":9597:9634  Transfer(account, address(0), amount) */\n      mload(0x40)\n      tag_344\n      swap2\n      swap1\n      tag_43\n      jump\t// in\n    tag_344:\n      mload(0x40)\n      dup1\n      swap2\n      sub\n      swap1\n      log3\n        /* \"@openzeppelin/contracts/token/ERC20/ERC20.sol\":9645:9693  _afterTokenTransfer(account, address(0), amount) */\n      tag_345\n        /* \"@openzeppelin/contracts/token/ERC20/ERC20.sol\":9665:9672  account */\n      dup4\n        /* \"@openzeppelin/contracts/token/ERC20/ERC20.sol\":9682:9683  0 */\n      0x00\n        /* \"@openzeppelin/contracts/token/ERC20/ERC20.sol\":9686:9692  amount */\n      dup5\n        /* \"@openzeppelin/contracts/token/ERC20/ERC20.sol\":9645:9664  _afterTokenTransfer */\n      tag_346\n        /* \"@openzeppelin/contracts/token/ERC20/ERC20.sol\":9645:9693  _afterTokenTransfer(account, address(0), amount) */\n      jump\t// in\n    tag_345:\n        /* \"@openzeppelin/contracts/token/ERC20/ERC20.sol\":9189:9700  {... */\n      pop\n        /* \"@openzeppelin/contracts/token/ERC20/ERC20.sol\":9124:9700  function _burn(address account, uint256 amount) internal virtual {... */\n      pop\n      pop\n      jump\t// out\n        /* \"@openzeppelin/contracts/token/ERC20/ERC20.sol\":10770:11211  function _spendAllowance(... */\n    tag_212:\n        /* \"@openzeppelin/contracts/token/ERC20/ERC20.sol\":10900:10924  uint256 currentAllowance */\n      0x00\n        /* \"@openzeppelin/contracts/token/ERC20/ERC20.sol\":10927:10952  allowance(owner, spender) */\n      tag_348\n        /* \"@openzeppelin/contracts/token/ERC20/ERC20.sol\":10937:10942  owner */\n      dup5\n        /* \"@openzeppelin/contracts/token/ERC20/ERC20.sol\":10944:10951  spender */\n      dup5\n        /* \"@openzeppelin/contracts/token/ERC20/ERC20.sol\":10927:10936  allowance */\n      tag_161\n        /* \"@openzeppelin/contracts/token/ERC20/ERC20.sol\":10927:10952  allowance(owner, spender) */\n      jump\t// in\n    tag_348:\n        /* \"@openzeppelin/contracts/token/ERC20/ERC20.sol\":10900:10952  uint256 currentAllowance = allowance(owner, spender) */\n      swap1\n      pop\n        /* \"@openzeppelin/contracts/token/ERC20/ERC20.sol\":10986:11003  type(uint256).max */\n      0xffffffffffffffffffffffffffffffffffffffffffffffffffffffffffffffff\n        /* \"@openzeppelin/contracts/token/ERC20/ERC20.sol\":10966:10982  currentAllowance */\n      dup2\n        /* \"@openzeppelin/contracts/token/ERC20/ERC20.sol\":10966:11003  currentAllowance != type(uint256).max */\n      eq\n        /* \"@openzeppelin/contracts/token/ERC20/ERC20.sol\":10962:11205  if (currentAllowance != type(uint256).max) {... */\n      tag_349\n      jumpi\n        /* \"@openzeppelin/contracts/token/ERC20/ERC20.sol\":11047:11053  amount */\n      dup2\n        /* \"@openzeppelin/contracts/token/ERC20/ERC20.sol\":11027:11043  currentAllowance */\n      dup2\n        /* \"@openzeppelin/contracts/token/ERC20/ERC20.sol\":11027:11053  currentAllowance >= amount */\n      lt\n      iszero\n        /* \"@openzeppelin/contracts/token/ERC20/ERC20.sol\":11019:11087  require(currentAllowance >= amount, \"ERC20: insufficient allowance\") */\n      tag_350\n      jumpi\n      mload(0x40)\n      0x08c379a000000000000000000000000000000000000000000000000000000000\n      dup2\n      mstore\n      0x04\n      add\n      tag_351\n      swap1\n      tag_352\n      jump\t// in\n    tag_351:\n      mload(0x40)\n      dup1\n      swap2\n      sub\n      swap1\n      revert\n    tag_350:\n        /* \"@openzeppelin/contracts/token/ERC20/ERC20.sol\":11129:11180  _approve(owner, spender, currentAllowance - amount) */\n      tag_353\n        /* \"@openzeppelin/contracts/token/ERC20/ERC20.sol\":11138:11143  owner */\n      dup5\n        /* \"@openzeppelin/contracts/token/ERC20/ERC20.sol\":11145:11152  spender */\n      dup5\n        /* \"@openzeppelin/contracts/token/ERC20/ERC20.sol\":11173:11179  amount */\n      dup5\n        /* \"@openzeppelin/contracts/token/ERC20/ERC20.sol\":11154:11170  currentAllowance */\n      dup5\n        /* \"@openzeppelin/contracts/token/ERC20/ERC20.sol\":11154:11179  currentAllowance - amount */\n      sub\n        /* \"@openzeppelin/contracts/token/ERC20/ERC20.sol\":11129:11137  _approve */\n      tag_188\n        /* \"@openzeppelin/contracts/token/ERC20/ERC20.sol\":11129:11180  _approve(owner, spender, currentAllowance - amount) */\n      jump\t// in\n    tag_353:\n        /* \"@openzeppelin/contracts/token/ERC20/ERC20.sol\":10962:11205  if (currentAllowance != type(uint256).max) {... */\n    tag_349:\n        /* \"@openzeppelin/contracts/token/ERC20/ERC20.sol\":10890:11211  {... */\n      pop\n        /* \"@openzeppelin/contracts/token/ERC20/ERC20.sol\":10770:11211  function _spendAllowance(... */\n      pop\n      pop\n      pop\n      jump\t// out\n        /* \"@openzeppelin/contracts/token/ERC20/ERC20.sol\":7488:8139  function _transfer(... */\n    tag_214:\n        /* \"@openzeppelin/contracts/token/ERC20/ERC20.sol\":7630:7631  0 */\n      0x00\n        /* \"@openzeppelin/contracts/token/ERC20/ERC20.sol\":7614:7632  from != address(0) */\n      0xffffffffffffffffffffffffffffffffffffffff\n      and\n        /* \"@openzeppelin/contracts/token/ERC20/ERC20.sol\":7614:7618  from */\n      dup4\n        /* \"@openzeppelin/contracts/token/ERC20/ERC20.sol\":7614:7632  from != address(0) */\n      0xffffffffffffffffffffffffffffffffffffffff\n      and\n      eq\n      iszero\n        /* \"@openzeppelin/contracts/token/ERC20/ERC20.sol\":7606:7674  require(from != address(0), \"ERC20: transfer from the zero address\") */\n      tag_355\n      jumpi\n      mload(0x40)\n      0x08c379a000000000000000000000000000000000000000000000000000000000\n      dup2\n      mstore\n      0x04\n      add\n      tag_356\n      swap1\n      tag_357\n      jump\t// in\n    tag_356:\n      mload(0x40)\n      dup1\n      swap2\n      sub\n      swap1\n      revert\n    tag_355:\n        /* \"@openzeppelin/contracts/token/ERC20/ERC20.sol\":7706:7707  0 */\n      0x00\n        /* \"@openzeppelin/contracts/token/ERC20/ERC20.sol\":7692:7708  to != address(0) */\n      0xffffffffffffffffffffffffffffffffffffffff\n      and\n        /* \"@openzeppelin/contracts/token/ERC20/ERC20.sol\":7692:7694  to */\n      dup3\n        /* \"@openzeppelin/contracts/token/ERC20/ERC20.sol\":7692:7708  to != address(0) */\n      0xffffffffffffffffffffffffffffffffffffffff\n      and\n      eq\n      iszero\n        /* \"@openzeppelin/contracts/token/ERC20/ERC20.sol\":7684:7748  require(to != address(0), \"ERC20: transfer to the zero address\") */\n      tag_358\n      jumpi\n      mload(0x40)\n      0x08c379a000000000000000000000000000000000000000000000000000000000\n      dup2\n      mstore\n      0x04\n      add\n      tag_359\n      swap1\n      tag_360\n      jump\t// in\n    tag_359:\n      mload(0x40)\n      dup1\n      swap2\n      sub\n      swap1\n      revert\n    tag_358:\n        /* \"@openzeppelin/contracts/token/ERC20/ERC20.sol\":7759:7797  _beforeTokenTransfer(from, to, amount) */\n      tag_361\n        /* \"@openzeppelin/contracts/token/ERC20/ERC20.sol\":7780:7784  from */\n      dup4\n        /* \"@openzeppelin/contracts/token/ERC20/ERC20.sol\":7786:7788  to */\n      dup4\n        /* \"@openzeppelin/contracts/token/ERC20/ERC20.sol\":7790:7796  amount */\n      dup4\n        /* \"@openzeppelin/contracts/token/ERC20/ERC20.sol\":7759:7779  _beforeTokenTransfer */\n      tag_339\n        /* \"@openzeppelin/contracts/token/ERC20/ERC20.sol\":7759:7797  _beforeTokenTransfer(from, to, amount) */\n      jump\t// in\n    tag_361:\n        /* \"@openzeppelin/contracts/token/ERC20/ERC20.sol\":7808:7827  uint256 fromBalance */\n      0x00\n        /* \"@openzeppelin/contracts/token/ERC20/ERC20.sol\":7830:7839  _balances */\n      dup1\n        /* \"@openzeppelin/contracts/token/ERC20/ERC20.sol\":7830:7845  _balances[from] */\n      0x00\n        /* \"@openzeppelin/contracts/token/ERC20/ERC20.sol\":7840:7844  from */\n      dup6\n        /* \"@openzeppelin/contracts/token/ERC20/ERC20.sol\":7830:7845  _balances[from] */\n      0xffffffffffffffffffffffffffffffffffffffff\n      and\n      0xffffffffffffffffffffffffffffffffffffffff\n      and\n      dup2\n      mstore\n      0x20\n      add\n      swap1\n      dup2\n      mstore\n      0x20\n      add\n      0x00\n      keccak256\n      sload\n        /* \"@openzeppelin/contracts/token/ERC20/ERC20.sol\":7808:7845  uint256 fromBalance = _balances[from] */\n      swap1\n      pop\n        /* \"@openzeppelin/contracts/token/ERC20/ERC20.sol\":7878:7884  amount */\n      dup2\n        /* \"@openzeppelin/contracts/token/ERC20/ERC20.sol\":7863:7874  fromBalance */\n      dup2\n        /* \"@openzeppelin/contracts/token/ERC20/ERC20.sol\":7863:7884  fromBalance >= amount */\n      lt\n      iszero\n        /* \"@openzeppelin/contracts/token/ERC20/ERC20.sol\":7855:7927  require(fromBalance >= amount, \"ERC20: transfer amount exceeds balance\") */\n      tag_362\n      jumpi\n      mload(0x40)\n      0x08c379a000000000000000000000000000000000000000000000000000000000\n      dup2\n      mstore\n      0x04\n      add\n      tag_363\n      swap1\n      tag_364\n      jump\t// in\n    tag_363:\n      mload(0x40)\n      dup1\n      swap2\n      sub\n      swap1\n      revert\n    tag_362:\n        /* \"@openzeppelin/contracts/token/ERC20/ERC20.sol\":7993:7999  amount */\n      dup2\n        /* \"@openzeppelin/contracts/token/ERC20/ERC20.sol\":7979:7990  fromBalance */\n      dup2\n        /* \"@openzeppelin/contracts/token/ERC20/ERC20.sol\":7979:7999  fromBalance - amount */\n      sub\n        /* \"@openzeppelin/contracts/token/ERC20/ERC20.sol\":7961:7970  _balances */\n      0x00\n        /* \"@openzeppelin/contracts/token/ERC20/ERC20.sol\":7961:7976  _balances[from] */\n      dup1\n        /* \"@openzeppelin/contracts/token/ERC20/ERC20.sol\":7971:7975  from */\n      dup7\n        /* \"@openzeppelin/contracts/token/ERC20/ERC20.sol\":7961:7976  _balances[from] */\n      0xffffffffffffffffffffffffffffffffffffffff\n      and\n      0xffffffffffffffffffffffffffffffffffffffff\n      and\n      dup2\n      mstore\n      0x20\n      add\n      swap1\n      dup2\n      mstore\n      0x20\n      add\n      0x00\n      keccak256\n        /* \"@openzeppelin/contracts/token/ERC20/ERC20.sol\":7961:7999  _balances[from] = fromBalance - amount */\n      dup2\n      swap1\n      sstore\n      pop\n        /* \"@openzeppelin/contracts/token/ERC20/ERC20.sol\":8036:8042  amount */\n      dup2\n        /* \"@openzeppelin/contracts/token/ERC20/ERC20.sol\":8019:8028  _balances */\n      0x00\n        /* \"@openzeppelin/contracts/token/ERC20/ERC20.sol\":8019:8032  _balances[to] */\n      dup1\n        /* \"@openzeppelin/contracts/token/ERC20/ERC20.sol\":8029:8031  to */\n      dup6\n        /* \"@openzeppelin/contracts/token/ERC20/ERC20.sol\":8019:8032  _balances[to] */\n      0xffffffffffffffffffffffffffffffffffffffff\n      and\n      0xffffffffffffffffffffffffffffffffffffffff\n      and\n      dup2\n      mstore\n      0x20\n      add\n      swap1\n      dup2\n      mstore\n      0x20\n      add\n      0x00\n      keccak256\n      0x00\n        /* \"@openzeppelin/contracts/token/ERC20/ERC20.sol\":8019:8042  _balances[to] += amount */\n      dup3\n      dup3\n      sload\n      tag_365\n      swap2\n      swap1\n      tag_198\n      jump\t// in\n    tag_365:\n      swap3\n      pop\n      pop\n      dup2\n      swap1\n      sstore\n      pop\n        /* \"@openzeppelin/contracts/token/ERC20/ERC20.sol\":8073:8075  to */\n      dup3\n        /* \"@openzeppelin/contracts/token/ERC20/ERC20.sol\":8058:8084  Transfer(from, to, amount) */\n      0xffffffffffffffffffffffffffffffffffffffff\n      and\n        /* \"@openzeppelin/contracts/token/ERC20/ERC20.sol\":8067:8071  from */\n      dup5\n        /* \"@openzeppelin/contracts/token/ERC20/ERC20.sol\":8058:8084  Transfer(from, to, amount) */\n      0xffffffffffffffffffffffffffffffffffffffff\n      and\n      0xddf252ad1be2c89b69c2b068fc378daa952ba7f163c4a11628f55a4df523b3ef\n        /* \"@openzeppelin/contracts/token/ERC20/ERC20.sol\":8077:8083  amount */\n      dup5\n        /* \"@openzeppelin/contracts/token/ERC20/ERC20.sol\":8058:8084  Transfer(from, to, amount) */\n      mload(0x40)\n      tag_366\n      swap2\n      swap1\n      tag_43\n      jump\t// in\n    tag_366:\n      mload(0x40)\n      dup1\n      swap2\n      sub\n      swap1\n      log3\n        /* \"@openzeppelin/contracts/token/ERC20/ERC20.sol\":8095:8132  _afterTokenTransfer(from, to, amount) */\n      tag_367\n        /* \"@openzeppelin/contracts/token/ERC20/ERC20.sol\":8115:8119  from */\n      dup5\n        /* \"@openzeppelin/contracts/token/ERC20/ERC20.sol\":8121:8123  to */\n      dup5\n        /* \"@openzeppelin/contracts/token/ERC20/ERC20.sol\":8125:8131  amount */\n      dup5\n        /* \"@openzeppelin/contracts/token/ERC20/ERC20.sol\":8095:8114  _afterTokenTransfer */\n      tag_346\n        /* \"@openzeppelin/contracts/token/ERC20/ERC20.sol\":8095:8132  _afterTokenTransfer(from, to, amount) */\n      jump\t// in\n    tag_367:\n        /* \"@openzeppelin/contracts/token/ERC20/ERC20.sol\":7596:8139  {... */\n      pop\n        /* \"@openzeppelin/contracts/token/ERC20/ERC20.sol\":7488:8139  function _transfer(... */\n      pop\n      pop\n      pop\n      jump\t// out\n        /* \"@openzeppelin/contracts/access/Ownable.sol\":2270:2457  function _transferOwnership(address newOwner) internal virtual {... */\n    tag_244:\n        /* \"@openzeppelin/contracts/access/Ownable.sol\":2343:2359  address oldOwner */\n      0x00\n        /* \"@openzeppelin/contracts/access/Ownable.sol\":2362:2368  _owner */\n      0x05\n      0x00\n      swap1\n      sload\n      swap1\n      0x0100\n      exp\n      swap1\n      div\n      0xffffffffffffffffffffffffffffffffffffffff\n      and\n        /* \"@openzeppelin/contracts/access/Ownable.sol\":2343:2368  address oldOwner = _owner */\n      swap1\n      pop\n        /* \"@openzeppelin/contracts/access/Ownable.sol\":2387:2395  newOwner */\n      dup2\n        /* \"@openzeppelin/contracts/access/Ownable.sol\":2378:2384  _owner */\n      0x05\n      0x00\n        /* \"@openzeppelin/contracts/access/Ownable.sol\":2378:2395  _owner = newOwner */\n      0x0100\n      exp\n      dup2\n      sload\n      dup2\n      0xffffffffffffffffffffffffffffffffffffffff\n      mul\n      not\n      and\n      swap1\n      dup4\n      0xffffffffffffffffffffffffffffffffffffffff\n      and\n      mul\n      or\n      swap1\n      sstore\n      pop\n        /* \"@openzeppelin/contracts/access/Ownable.sol\":2441:2449  newOwner */\n      dup2\n        /* \"@openzeppelin/contracts/access/Ownable.sol\":2410:2450  OwnershipTransferred(oldOwner, newOwner) */\n      0xffffffffffffffffffffffffffffffffffffffff\n      and\n        /* \"@openzeppelin/contracts/access/Ownable.sol\":2431:2439  oldOwner */\n      dup2\n        /* \"@openzeppelin/contracts/access/Ownable.sol\":2410:2450  OwnershipTransferred(oldOwner, newOwner) */\n      0xffffffffffffffffffffffffffffffffffffffff\n      and\n      0x8be0079c531659141344cd1fd0a4f28419497f9722a3daafe3b4186f6b6457e0\n      mload(0x40)\n      mload(0x40)\n      dup1\n      swap2\n      sub\n      swap1\n      log3\n        /* \"@openzeppelin/contracts/access/Ownable.sol\":2333:2457  {... */\n      pop\n        /* \"@openzeppelin/contracts/access/Ownable.sol\":2270:2457  function _transferOwnership(address newOwner) internal virtual {... */\n      pop\n      jump\t// out\n        /* \"@openzeppelin/contracts/token/ERC20/ERC20.sol\":8415:8804  function _mint(address account, uint256 amount) internal virtual {... */\n    tag_257:\n        /* \"@openzeppelin/contracts/token/ERC20/ERC20.sol\":8517:8518  0 */\n      0x00\n        /* \"@openzeppelin/contracts/token/ERC20/ERC20.sol\":8498:8519  account != address(0) */\n      0xffffffffffffffffffffffffffffffffffffffff\n      and\n        /* \"@openzeppelin/contracts/token/ERC20/ERC20.sol\":8498:8505  account */\n      dup3\n        /* \"@openzeppelin/contracts/token/ERC20/ERC20.sol\":8498:8519  account != address(0) */\n      0xffffffffffffffffffffffffffffffffffffffff\n      and\n      eq\n      iszero\n        /* \"@openzeppelin/contracts/token/ERC20/ERC20.sol\":8490:8555  require(account != address(0), \"ERC20: mint to the zero address\") */\n      tag_370\n      jumpi\n      mload(0x40)\n      0x08c379a000000000000000000000000000000000000000000000000000000000\n      dup2\n      mstore\n      0x04\n      add\n      tag_371\n      swap1\n      tag_372\n      jump\t// in\n    tag_371:\n      mload(0x40)\n      dup1\n      swap2\n      sub\n      swap1\n      revert\n    tag_370:\n        /* \"@openzeppelin/contracts/token/ERC20/ERC20.sol\":8566:8615  _beforeTokenTransfer(address(0), account, amount) */\n      tag_373\n        /* \"@openzeppelin/contracts/token/ERC20/ERC20.sol\":8595:8596  0 */\n      0x00\n        /* \"@openzeppelin/contracts/token/ERC20/ERC20.sol\":8599:8606  account */\n      dup4\n        /* \"@openzeppelin/contracts/token/ERC20/ERC20.sol\":8608:8614  amount */\n      dup4\n        /* \"@openzeppelin/contracts/token/ERC20/ERC20.sol\":8566:8586  _beforeTokenTransfer */\n      tag_339\n        /* \"@openzeppelin/contracts/token/ERC20/ERC20.sol\":8566:8615  _beforeTokenTransfer(address(0), account, amount) */\n      jump\t// in\n    tag_373:\n        /* \"@openzeppelin/contracts/token/ERC20/ERC20.sol\":8642:8648  amount */\n      dup1\n        /* \"@openzeppelin/contracts/token/ERC20/ERC20.sol\":8626:8638  _totalSupply */\n      0x02\n      0x00\n        /* \"@openzeppelin/contracts/token/ERC20/ERC20.sol\":8626:8648  _totalSupply += amount */\n      dup3\n      dup3\n      sload\n      tag_374\n      swap2\n      swap1\n      tag_198\n      jump\t// in\n    tag_374:\n      swap3\n      pop\n      pop\n      dup2\n      swap1\n      sstore\n      pop\n        /* \"@openzeppelin/contracts/token/ERC20/ERC20.sol\":8680:8686  amount */\n      dup1\n        /* \"@openzeppelin/contracts/token/ERC20/ERC20.sol\":8658:8667  _balances */\n      0x00\n        /* \"@openzeppelin/contracts/token/ERC20/ERC20.sol\":8658:8676  _balances[account] */\n      dup1\n        /* \"@openzeppelin/contracts/token/ERC20/ERC20.sol\":8668:8675  account */\n      dup5\n        /* \"@openzeppelin/contracts/token/ERC20/ERC20.sol\":8658:8676  _balances[account] */\n      0xffffffffffffffffffffffffffffffffffffffff\n      and\n      0xffffffffffffffffffffffffffffffffffffffff\n      and\n      dup2\n      mstore\n      0x20\n      add\n      swap1\n      dup2\n      mstore\n      0x20\n      add\n      0x00\n      keccak256\n      0x00\n        /* \"@openzeppelin/contracts/token/ERC20/ERC20.sol\":8658:8686  _balances[account] += amount */\n      dup3\n      dup3\n      sload\n      tag_375\n      swap2\n      swap1\n      tag_198\n      jump\t// in\n    tag_375:\n      swap3\n      pop\n      pop\n      dup2\n      swap1\n      sstore\n      pop\n        /* \"@openzeppelin/contracts/token/ERC20/ERC20.sol\":8722:8729  account */\n      dup2\n        /* \"@openzeppelin/contracts/token/ERC20/ERC20.sol\":8701:8738  Transfer(address(0), account, amount) */\n      0xffffffffffffffffffffffffffffffffffffffff\n      and\n        /* \"@openzeppelin/contracts/token/ERC20/ERC20.sol\":8718:8719  0 */\n      0x00\n        /* \"@openzeppelin/contracts/token/ERC20/ERC20.sol\":8701:8738  Transfer(address(0), account, amount) */\n      0xffffffffffffffffffffffffffffffffffffffff\n      and\n      0xddf252ad1be2c89b69c2b068fc378daa952ba7f163c4a11628f55a4df523b3ef\n        /* \"@openzeppelin/contracts/token/ERC20/ERC20.sol\":8731:8737  amount */\n      dup4\n        /* \"@openzeppelin/contracts/token/ERC20/ERC20.sol\":8701:8738  Transfer(address(0), account, amount) */\n      mload(0x40)\n      tag_376\n      swap2\n      swap1\n      tag_43\n      jump\t// in\n    tag_376:\n      mload(0x40)\n      dup1\n      swap2\n      sub\n      swap1\n      log3\n        /* \"@openzeppelin/contracts/token/ERC20/ERC20.sol\":8749:8797  _afterTokenTransfer(address(0), account, amount) */\n      tag_377\n        /* \"@openzeppelin/contracts/token/ERC20/ERC20.sol\":8777:8778  0 */\n      0x00\n        /* \"@openzeppelin/contracts/token/ERC20/ERC20.sol\":8781:8788  account */\n      dup4\n        /* \"@openzeppelin/contracts/token/ERC20/ERC20.sol\":8790:8796  amount */\n      dup4\n        /* \"@openzeppelin/contracts/token/ERC20/ERC20.sol\":8749:8768  _afterTokenTransfer */\n      tag_346\n        /* \"@openzeppelin/contracts/token/ERC20/ERC20.sol\":8749:8797  _afterTokenTransfer(address(0), account, amount) */\n      jump\t// in\n    tag_377:\n        /* \"@openzeppelin/contracts/token/ERC20/ERC20.sol\":8415:8804  function _mint(address account, uint256 amount) internal virtual {... */\n      pop\n      pop\n      jump\t// out\n        /* \"@openzeppelin/contracts/token/ERC20/ERC20.sol\":11795:11916  function _beforeTokenTransfer(... */\n    tag_339:\n      pop\n      pop\n      pop\n      jump\t// out\n        /* \"@openzeppelin/contracts/token/ERC20/ERC20.sol\":12504:12624  function _afterTokenTransfer(... */\n    tag_346:\n      pop\n      pop\n      pop\n      jump\t// out\n        /* \"#utility.yul\":7:146   */\n    tag_381:\n        /* \"#utility.yul\":53:58   */\n      0x00\n        /* \"#utility.yul\":91:97   */\n      dup2\n        /* \"#utility.yul\":78:98   */\n      calldataload\n        /* \"#utility.yul\":69:98   */\n      swap1\n      pop\n        /* \"#utility.yul\":107:140   */\n      tag_383\n        /* \"#utility.yul\":134:139   */\n      dup2\n        /* \"#utility.yul\":107:140   */\n      tag_384\n      jump\t// in\n    tag_383:\n        /* \"#utility.yul\":7:146   */\n      swap3\n      swap2\n      pop\n      pop\n      jump\t// out\n        /* \"#utility.yul\":152:291   */\n    tag_385:\n        /* \"#utility.yul\":198:203   */\n      0x00\n        /* \"#utility.yul\":236:242   */\n      dup2\n        /* \"#utility.yul\":223:243   */\n      calldataload\n        /* \"#utility.yul\":214:243   */\n      swap1\n      pop\n        /* \"#utility.yul\":252:285   */\n      tag_387\n        /* \"#utility.yul\":279:284   */\n      dup2\n        /* \"#utility.yul\":252:285   */\n      tag_388\n      jump\t// in\n    tag_387:\n        /* \"#utility.yul\":152:291   */\n      swap3\n      swap2\n      pop\n      pop\n      jump\t// out\n        /* \"#utility.yul\":297:626   */\n    tag_72:\n        /* \"#utility.yul\":356:362   */\n      0x00\n        /* \"#utility.yul\":405:407   */\n      0x20\n        /* \"#utility.yul\":393:402   */\n      dup3\n        /* \"#utility.yul\":384:391   */\n      dup5\n        /* \"#utility.yul\":380:403   */\n      sub\n        /* \"#utility.yul\":376:408   */\n      slt\n        /* \"#utility.yul\":373:492   */\n      iszero\n      tag_390\n      jumpi\n        /* \"#utility.yul\":411:490   */\n      tag_391\n      tag_392\n      jump\t// in\n    tag_391:\n        /* \"#utility.yul\":373:492   */\n    tag_390:\n        /* \"#utility.yul\":531:532   */\n      0x00\n        /* \"#utility.yul\":556:609   */\n      tag_393\n        /* \"#utility.yul\":601:608   */\n      dup5\n        /* \"#utility.yul\":592:598   */\n      dup3\n        /* \"#utility.yul\":581:590   */\n      dup6\n        /* \"#utility.yul\":577:599   */\n      add\n        /* \"#utility.yul\":556:609   */\n      tag_381\n      jump\t// in\n    tag_393:\n        /* \"#utility.yul\":546:609   */\n      swap2\n      pop\n        /* \"#utility.yul\":502:619   */\n      pop\n        /* \"#utility.yul\":297:626   */\n      swap3\n      swap2\n      pop\n      pop\n      jump\t// out\n        /* \"#utility.yul\":632:1106   */\n    tag_160:\n        /* \"#utility.yul\":700:706   */\n      0x00\n        /* \"#utility.yul\":708:714   */\n      dup1\n        /* \"#utility.yul\":757:759   */\n      0x40\n        /* \"#utility.yul\":745:754   */\n      dup4\n        /* \"#utility.yul\":736:743   */\n      dup6\n        /* \"#utility.yul\":732:755   */\n      sub\n        /* \"#utility.yul\":728:760   */\n      slt\n        /* \"#utility.yul\":725:844   */\n      iszero\n      tag_395\n      jumpi\n        /* \"#utility.yul\":763:842   */\n      tag_396\n      tag_392\n      jump\t// in\n    tag_396:\n        /* \"#utility.yul\":725:844   */\n    tag_395:\n        /* \"#utility.yul\":883:884   */\n      0x00\n        /* \"#utility.yul\":908:961   */\n      tag_397\n        /* \"#utility.yul\":953:960   */\n      dup6\n        /* \"#utility.yul\":944:950   */\n      dup3\n        /* \"#utility.yul\":933:942   */\n      dup7\n        /* \"#utility.yul\":929:951   */\n      add\n        /* \"#utility.yul\":908:961   */\n      tag_381\n      jump\t// in\n    tag_397:\n        /* \"#utility.yul\":898:961   */\n      swap3\n      pop\n        /* \"#utility.yul\":854:971   */\n      pop\n        /* \"#utility.yul\":1010:1012   */\n      0x20\n        /* \"#utility.yul\":1036:1089   */\n      tag_398\n        /* \"#utility.yul\":1081:1088   */\n      dup6\n        /* \"#utility.yul\":1072:1078   */\n      dup3\n        /* \"#utility.yul\":1061:1070   */\n      dup7\n        /* \"#utility.yul\":1057:1079   */\n      add\n        /* \"#utility.yul\":1036:1089   */\n      tag_381\n      jump\t// in\n    tag_398:\n        /* \"#utility.yul\":1026:1089   */\n      swap2\n      pop\n        /* \"#utility.yul\":981:1099   */\n      pop\n        /* \"#utility.yul\":632:1106   */\n      swap3\n      pop\n      swap3\n      swap1\n      pop\n      jump\t// out\n        /* \"#utility.yul\":1112:1731   */\n    tag_78:\n        /* \"#utility.yul\":1189:1195   */\n      0x00\n        /* \"#utility.yul\":1197:1203   */\n      dup1\n        /* \"#utility.yul\":1205:1211   */\n      0x00\n        /* \"#utility.yul\":1254:1256   */\n      0x60\n        /* \"#utility.yul\":1242:1251   */\n      dup5\n        /* \"#utility.yul\":1233:1240   */\n      dup7\n        /* \"#utility.yul\":1229:1252   */\n      sub\n        /* \"#utility.yul\":1225:1257   */\n      slt\n        /* \"#utility.yul\":1222:1341   */\n      iszero\n      tag_400\n      jumpi\n        /* \"#utility.yul\":1260:1339   */\n      tag_401\n      tag_392\n      jump\t// in\n    tag_401:\n        /* \"#utility.yul\":1222:1341   */\n    tag_400:\n        /* \"#utility.yul\":1380:1381   */\n      0x00\n        /* \"#utility.yul\":1405:1458   */\n      tag_402\n        /* \"#utility.yul\":1450:1457   */\n      dup7\n        /* \"#utility.yul\":1441:1447   */\n      dup3\n        /* \"#utility.yul\":1430:1439   */\n      dup8\n        /* \"#utility.yul\":1426:1448   */\n      add\n        /* \"#utility.yul\":1405:1458   */\n      tag_381\n      jump\t// in\n    tag_402:\n        /* \"#utility.yul\":1395:1458   */\n      swap4\n      pop\n        /* \"#utility.yul\":1351:1468   */\n      pop\n        /* \"#utility.yul\":1507:1509   */\n      0x20\n        /* \"#utility.yul\":1533:1586   */\n      tag_403\n        /* \"#utility.yul\":1578:1585   */\n      dup7\n        /* \"#utility.yul\":1569:1575   */\n      dup3\n        /* \"#utility.yul\":1558:1567   */\n      dup8\n        /* \"#utility.yul\":1554:1576   */\n      add\n        /* \"#utility.yul\":1533:1586   */\n      tag_381\n      jump\t// in\n    tag_403:\n        /* \"#utility.yul\":1523:1586   */\n      swap3\n      pop\n        /* \"#utility.yul\":1478:1596   */\n      pop\n        /* \"#utility.yul\":1635:1637   */\n      0x40\n        /* \"#utility.yul\":1661:1714   */\n      tag_404\n        /* \"#utility.yul\":1706:1713   */\n      dup7\n        /* \"#utility.yul\":1697:1703   */\n      dup3\n        /* \"#utility.yul\":1686:1695   */\n      dup8\n        /* \"#utility.yul\":1682:1704   */\n      add\n        /* \"#utility.yul\":1661:1714   */\n      tag_385\n      jump\t// in\n    tag_404:\n        /* \"#utility.yul\":1651:1714   */\n      swap2\n      pop\n        /* \"#utility.yul\":1606:1724   */\n      pop\n        /* \"#utility.yul\":1112:1731   */\n      swap3\n      pop\n      swap3\n      pop\n      swap3\n      jump\t// out\n        /* \"#utility.yul\":1737:2211   */\n    tag_52:\n        /* \"#utility.yul\":1805:1811   */\n      0x00\n        /* \"#utility.yul\":1813:1819   */\n      dup1\n        /* \"#utility.yul\":1862:1864   */\n      0x40\n        /* \"#utility.yul\":1850:1859   */\n      dup4\n        /* \"#utility.yul\":1841:1848   */\n      dup6\n        /* \"#utility.yul\":1837:1860   */\n      sub\n        /* \"#utility.yul\":1833:1865   */\n      slt\n        /* \"#utility.yul\":1830:1949   */\n      iszero\n      tag_406\n      jumpi\n        /* \"#utility.yul\":1868:1947   */\n      tag_407\n      tag_392\n      jump\t// in\n    tag_407:\n        /* \"#utility.yul\":1830:1949   */\n    tag_406:\n        /* \"#utility.yul\":1988:1989   */\n      0x00\n        /* \"#utility.yul\":2013:2066   */\n      tag_408\n        /* \"#utility.yul\":2058:2065   */\n      dup6\n        /* \"#utility.yul\":2049:2055   */\n      dup3\n        /* \"#utility.yul\":2038:2047   */\n      dup7\n        /* \"#utility.yul\":2034:2056   */\n      add\n        /* \"#utility.yul\":2013:2066   */\n      tag_381\n      jump\t// in\n    tag_408:\n        /* \"#utility.yul\":2003:2066   */\n      swap3\n      pop\n        /* \"#utility.yul\":1959:2076   */\n      pop\n        /* \"#utility.yul\":2115:2117   */\n      0x20\n        /* \"#utility.yul\":2141:2194   */\n      tag_409\n        /* \"#utility.yul\":2186:2193   */\n      dup6\n        /* \"#utility.yul\":2177:2183   */\n      dup3\n        /* \"#utility.yul\":2166:2175   */\n      dup7\n        /* \"#utility.yul\":2162:2184   */\n      add\n        /* \"#utility.yul\":2141:2194   */\n      tag_385\n      jump\t// in\n    tag_409:\n        /* \"#utility.yul\":2131:2194   */\n      swap2\n      pop\n        /* \"#utility.yul\":2086:2204   */\n      pop\n        /* \"#utility.yul\":1737:2211   */\n      swap3\n      pop\n      swap3\n      swap1\n      pop\n      jump\t// out\n        /* \"#utility.yul\":2217:2546   */\n    tag_67:\n        /* \"#utility.yul\":2276:2282   */\n      0x00\n        /* \"#utility.yul\":2325:2327   */\n      0x20\n        /* \"#utility.yul\":2313:2322   */\n      dup3\n        /* \"#utility.yul\":2304:2311   */\n      dup5\n        /* \"#utility.yul\":2300:2323   */\n      sub\n        /* \"#utility.yul\":2296:2328   */\n      slt\n        /* \"#utility.yul\":2293:2412   */\n      iszero\n      tag_411\n      jumpi\n        /* \"#utility.yul\":2331:2410   */\n      tag_412\n      tag_392\n      jump\t// in\n    tag_412:\n        /* \"#utility.yul\":2293:2412   */\n    tag_411:\n        /* \"#utility.yul\":2451:2452   */\n      0x00\n        /* \"#utility.yul\":2476:2529   */\n      tag_413\n        /* \"#utility.yul\":2521:2528   */\n      dup5\n        /* \"#utility.yul\":2512:2518   */\n      dup3\n        /* \"#utility.yul\":2501:2510   */\n      dup6\n        /* \"#utility.yul\":2497:2519   */\n      add\n        /* \"#utility.yul\":2476:2529   */\n      tag_385\n      jump\t// in\n    tag_413:\n        /* \"#utility.yul\":2466:2529   */\n      swap2\n      pop\n        /* \"#utility.yul\":2422:2539   */\n      pop\n        /* \"#utility.yul\":2217:2546   */\n      swap3\n      swap2\n      pop\n      pop\n      jump\t// out\n        /* \"#utility.yul\":2552:2670   */\n    tag_414:\n        /* \"#utility.yul\":2639:2663   */\n      tag_416\n        /* \"#utility.yul\":2657:2662   */\n      dup2\n        /* \"#utility.yul\":2639:2663   */\n      tag_417\n      jump\t// in\n    tag_416:\n        /* \"#utility.yul\":2634:2637   */\n      dup3\n        /* \"#utility.yul\":2627:2664   */\n      mstore\n        /* \"#utility.yul\":2552:2670   */\n      pop\n      pop\n      jump\t// out\n        /* \"#utility.yul\":2676:2785   */\n    tag_418:\n        /* \"#utility.yul\":2757:2778   */\n      tag_420\n        /* \"#utility.yul\":2772:2777   */\n      dup2\n        /* \"#utility.yul\":2757:2778   */\n      tag_421\n      jump\t// in\n    tag_420:\n        /* \"#utility.yul\":2752:2755   */\n      dup3\n        /* \"#utility.yul\":2745:2779   */\n      mstore\n        /* \"#utility.yul\":2676:2785   */\n      pop\n      pop\n      jump\t// out\n        /* \"#utility.yul\":2791:3155   */\n    tag_422:\n        /* \"#utility.yul\":2879:2882   */\n      0x00\n        /* \"#utility.yul\":2907:2946   */\n      tag_424\n        /* \"#utility.yul\":2940:2945   */\n      dup3\n        /* \"#utility.yul\":2907:2946   */\n      tag_425\n      jump\t// in\n    tag_424:\n        /* \"#utility.yul\":2962:3033   */\n      tag_426\n        /* \"#utility.yul\":3026:3032   */\n      dup2\n        /* \"#utility.yul\":3021:3024   */\n      dup6\n        /* \"#utility.yul\":2962:3033   */\n      tag_427\n      jump\t// in\n    tag_426:\n        /* \"#utility.yul\":2955:3033   */\n      swap4\n      pop\n        /* \"#utility.yul\":3042:3094   */\n      tag_428\n        /* \"#utility.yul\":3087:3093   */\n      dup2\n        /* \"#utility.yul\":3082:3085   */\n      dup6\n        /* \"#utility.yul\":3075:3079   */\n      0x20\n        /* \"#utility.yul\":3068:3073   */\n      dup7\n        /* \"#utility.yul\":3064:3080   */\n      add\n        /* \"#utility.yul\":3042:3094   */\n      tag_429\n      jump\t// in\n    tag_428:\n        /* \"#utility.yul\":3119:3148   */\n      tag_430\n        /* \"#utility.yul\":3141:3147   */\n      dup2\n        /* \"#utility.yul\":3119:3148   */\n      tag_431\n      jump\t// in\n    tag_430:\n        /* \"#utility.yul\":3114:3117   */\n      dup5\n        /* \"#utility.yul\":3110:3149   */\n      add\n        /* \"#utility.yul\":3103:3149   */\n      swap2\n      pop\n        /* \"#utility.yul\":2883:3155   */\n      pop\n        /* \"#utility.yul\":2791:3155   */\n      swap3\n      swap2\n      pop\n      pop\n      jump\t// out\n        /* \"#utility.yul\":3161:3527   */\n    tag_432:\n        /* \"#utility.yul\":3303:3306   */\n      0x00\n        /* \"#utility.yul\":3324:3391   */\n      tag_434\n        /* \"#utility.yul\":3388:3390   */\n      0x2d\n        /* \"#utility.yul\":3383:3386   */\n      dup4\n        /* \"#utility.yul\":3324:3391   */\n      tag_427\n      jump\t// in\n    tag_434:\n        /* \"#utility.yul\":3317:3391   */\n      swap2\n      pop\n        /* \"#utility.yul\":3400:3493   */\n      tag_435\n        /* \"#utility.yul\":3489:3492   */\n      dup3\n        /* \"#utility.yul\":3400:3493   */\n      tag_436\n      jump\t// in\n    tag_435:\n        /* \"#utility.yul\":3518:3520   */\n      0x40\n        /* \"#utility.yul\":3513:3516   */\n      dup3\n        /* \"#utility.yul\":3509:3521   */\n      add\n        /* \"#utility.yul\":3502:3521   */\n      swap1\n      pop\n        /* \"#utility.yul\":3161:3527   */\n      swap2\n      swap1\n      pop\n      jump\t// out\n        /* \"#utility.yul\":3533:3899   */\n    tag_437:\n        /* \"#utility.yul\":3675:3678   */\n      0x00\n        /* \"#utility.yul\":3696:3763   */\n      tag_439\n        /* \"#utility.yul\":3760:3762   */\n      0x23\n        /* \"#utility.yul\":3755:3758   */\n      dup4\n        /* \"#utility.yul\":3696:3763   */\n      tag_427\n      jump\t// in\n    tag_439:\n        /* \"#utility.yul\":3689:3763   */\n      swap2\n      pop\n        /* \"#utility.yul\":3772:3865   */\n      tag_440\n        /* \"#utility.yul\":3861:3864   */\n      dup3\n        /* \"#utility.yul\":3772:3865   */\n      tag_441\n      jump\t// in\n    tag_440:\n        /* \"#utility.yul\":3890:3892   */\n      0x40\n        /* \"#utility.yul\":3885:3888   */\n      dup3\n        /* \"#utility.yul\":3881:3893   */\n      add\n        /* \"#utility.yul\":3874:3893   */\n      swap1\n      pop\n        /* \"#utility.yul\":3533:3899   */\n      swap2\n      swap1\n      pop\n      jump\t// out\n        /* \"#utility.yul\":3905:4271   */\n    tag_442:\n        /* \"#utility.yul\":4047:4050   */\n      0x00\n        /* \"#utility.yul\":4068:4135   */\n      tag_444\n        /* \"#utility.yul\":4132:4134   */\n      0x22\n        /* \"#utility.yul\":4127:4130   */\n      dup4\n        /* \"#utility.yul\":4068:4135   */\n      tag_427\n      jump\t// in\n    tag_444:\n        /* \"#utility.yul\":4061:4135   */\n      swap2\n      pop\n        /* \"#utility.yul\":4144:4237   */\n      tag_445\n        /* \"#utility.yul\":4233:4236   */\n      dup3\n        /* \"#utility.yul\":4144:4237   */\n      tag_446\n      jump\t// in\n    tag_445:\n        /* \"#utility.yul\":4262:4264   */\n      0x40\n        /* \"#utility.yul\":4257:4260   */\n      dup3\n        /* \"#utility.yul\":4253:4265   */\n      add\n        /* \"#utility.yul\":4246:4265   */\n      swap1\n      pop\n        /* \"#utility.yul\":3905:4271   */\n      swap2\n      swap1\n      pop\n      jump\t// out\n        /* \"#utility.yul\":4277:4643   */\n    tag_447:\n        /* \"#utility.yul\":4419:4422   */\n      0x00\n        /* \"#utility.yul\":4440:4507   */\n      tag_449\n        /* \"#utility.yul\":4504:4506   */\n      0x26\n        /* \"#utility.yul\":4499:4502   */\n      dup4\n        /* \"#utility.yul\":4440:4507   */\n      tag_427\n      jump\t// in\n    tag_449:\n        /* \"#utility.yul\":4433:4507   */\n      swap2\n      pop\n        /* \"#utility.yul\":4516:4609   */\n      tag_450\n        /* \"#utility.yul\":4605:4608   */\n      dup3\n        /* \"#utility.yul\":4516:4609   */\n      tag_451\n      jump\t// in\n    tag_450:\n        /* \"#utility.yul\":4634:4636   */\n      0x40\n        /* \"#utility.yul\":4629:4632   */\n      dup3\n        /* \"#utility.yul\":4625:4637   */\n      add\n        /* \"#utility.yul\":4618:4637   */\n      swap1\n      pop\n        /* \"#utility.yul\":4277:4643   */\n      swap2\n      swap1\n      pop\n      jump\t// out\n        /* \"#utility.yul\":4649:5015   */\n    tag_452:\n        /* \"#utility.yul\":4791:4794   */\n      0x00\n        /* \"#utility.yul\":4812:4879   */\n      tag_454\n        /* \"#utility.yul\":4876:4878   */\n      0x22\n        /* \"#utility.yul\":4871:4874   */\n      dup4\n        /* \"#utility.yul\":4812:4879   */\n      tag_427\n      jump\t// in\n    tag_454:\n        /* \"#utility.yul\":4805:4879   */\n      swap2\n      pop\n        /* \"#utility.yul\":4888:4981   */\n      tag_455\n        /* \"#utility.yul\":4977:4980   */\n      dup3\n        /* \"#utility.yul\":4888:4981   */\n      tag_456\n      jump\t// in\n    tag_455:\n        /* \"#utility.yul\":5006:5008   */\n      0x40\n        /* \"#utility.yul\":5001:5004   */\n      dup3\n        /* \"#utility.yul\":4997:5009   */\n      add\n        /* \"#utility.yul\":4990:5009   */\n      swap1\n      pop\n        /* \"#utility.yul\":4649:5015   */\n      swap2\n      swap1\n      pop\n      jump\t// out\n        /* \"#utility.yul\":5021:5387   */\n    tag_457:\n        /* \"#utility.yul\":5163:5166   */\n      0x00\n        /* \"#utility.yul\":5184:5251   */\n      tag_459\n        /* \"#utility.yul\":5248:5250   */\n      0x24\n        /* \"#utility.yul\":5243:5246   */\n      dup4\n        /* \"#utility.yul\":5184:5251   */\n      tag_427\n      jump\t// in\n    tag_459:\n        /* \"#utility.yul\":5177:5251   */\n      swap2\n      pop\n        /* \"#utility.yul\":5260:5353   */\n      tag_460\n        /* \"#utility.yul\":5349:5352   */\n      dup3\n        /* \"#utility.yul\":5260:5353   */\n      tag_461\n      jump\t// in\n    tag_460:\n        /* \"#utility.yul\":5378:5380   */\n      0x40\n        /* \"#utility.yul\":5373:5376   */\n      dup3\n        /* \"#utility.yul\":5369:5381   */\n      add\n        /* \"#utility.yul\":5362:5381   */\n      swap1\n      pop\n        /* \"#utility.yul\":5021:5387   */\n      swap2\n      swap1\n      pop\n      jump\t// out\n        /* \"#utility.yul\":5393:5759   */\n    tag_462:\n        /* \"#utility.yul\":5535:5538   */\n      0x00\n        /* \"#utility.yul\":5556:5623   */\n      tag_464\n        /* \"#utility.yul\":5620:5622   */\n      0x1d\n        /* \"#utility.yul\":5615:5618   */\n      dup4\n        /* \"#utility.yul\":5556:5623   */\n      tag_427\n      jump\t// in\n    tag_464:\n        /* \"#utility.yul\":5549:5623   */\n      swap2\n      pop\n        /* \"#utility.yul\":5632:5725   */\n      tag_465\n        /* \"#utility.yul\":5721:5724   */\n      dup3\n        /* \"#utility.yul\":5632:5725   */\n      tag_466\n      jump\t// in\n    tag_465:\n        /* \"#utility.yul\":5750:5752   */\n      0x20\n        /* \"#utility.yul\":5745:5748   */\n      dup3\n        /* \"#utility.yul\":5741:5753   */\n      add\n        /* \"#utility.yul\":5734:5753   */\n      swap1\n      pop\n        /* \"#utility.yul\":5393:5759   */\n      swap2\n      swap1\n      pop\n      jump\t// out\n        /* \"#utility.yul\":5765:6131   */\n    tag_467:\n        /* \"#utility.yul\":5907:5910   */\n      0x00\n        /* \"#utility.yul\":5928:5995   */\n      tag_469\n        /* \"#utility.yul\":5992:5994   */\n      0x26\n        /* \"#utility.yul\":5987:5990   */\n      dup4\n        /* \"#utility.yul\":5928:5995   */\n      tag_427\n      jump\t// in\n    tag_469:\n        /* \"#utility.yul\":5921:5995   */\n      swap2\n      pop\n        /* \"#utility.yul\":6004:6097   */\n      tag_470\n        /* \"#utility.yul\":6093:6096   */\n      dup3\n        /* \"#utility.yul\":6004:6097   */\n      tag_471\n      jump\t// in\n    tag_470:\n        /* \"#utility.yul\":6122:6124   */\n      0x40\n        /* \"#utility.yul\":6117:6120   */\n      dup3\n        /* \"#utility.yul\":6113:6125   */\n      add\n        /* \"#utility.yul\":6106:6125   */\n      swap1\n      pop\n        /* \"#utility.yul\":5765:6131   */\n      swap2\n      swap1\n      pop\n      jump\t// out\n        /* \"#utility.yul\":6137:6503   */\n    tag_472:\n        /* \"#utility.yul\":6279:6282   */\n      0x00\n        /* \"#utility.yul\":6300:6367   */\n      tag_474\n        /* \"#utility.yul\":6364:6366   */\n      0x20\n        /* \"#utility.yul\":6359:6362   */\n      dup4\n        /* \"#utility.yul\":6300:6367   */\n      tag_427\n      jump\t// in\n    tag_474:\n        /* \"#utility.yul\":6293:6367   */\n      swap2\n      pop\n        /* \"#utility.yul\":6376:6469   */\n      tag_475\n        /* \"#utility.yul\":6465:6468   */\n      dup3\n        /* \"#utility.yul\":6376:6469   */\n      tag_476\n      jump\t// in\n    tag_475:\n        /* \"#utility.yul\":6494:6496   */\n      0x20\n        /* \"#utility.yul\":6489:6492   */\n      dup3\n        /* \"#utility.yul\":6485:6497   */\n      add\n        /* \"#utility.yul\":6478:6497   */\n      swap1\n      pop\n        /* \"#utility.yul\":6137:6503   */\n      swap2\n      swap1\n      pop\n      jump\t// out\n        /* \"#utility.yul\":6509:6875   */\n    tag_477:\n        /* \"#utility.yul\":6651:6654   */\n      0x00\n        /* \"#utility.yul\":6672:6739   */\n      tag_479\n        /* \"#utility.yul\":6736:6738   */\n      0x21\n        /* \"#utility.yul\":6731:6734   */\n      dup4\n        /* \"#utility.yul\":6672:6739   */\n      tag_427\n      jump\t// in\n    tag_479:\n        /* \"#utility.yul\":6665:6739   */\n      swap2\n      pop\n        /* \"#utility.yul\":6748:6841   */\n      tag_480\n        /* \"#utility.yul\":6837:6840   */\n      dup3\n        /* \"#utility.yul\":6748:6841   */\n      tag_481\n      jump\t// in\n    tag_480:\n        /* \"#utility.yul\":6866:6868   */\n      0x40\n        /* \"#utility.yul\":6861:6864   */\n      dup3\n        /* \"#utility.yul\":6857:6869   */\n      add\n        /* \"#utility.yul\":6850:6869   */\n      swap1\n      pop\n        /* \"#utility.yul\":6509:6875   */\n      swap2\n      swap1\n      pop\n      jump\t// out\n        /* \"#utility.yul\":6881:7247   */\n    tag_482:\n        /* \"#utility.yul\":7023:7026   */\n      0x00\n        /* \"#utility.yul\":7044:7111   */\n      tag_484\n        /* \"#utility.yul\":7108:7110   */\n      0x25\n        /* \"#utility.yul\":7103:7106   */\n      dup4\n        /* \"#utility.yul\":7044:7111   */\n      tag_427\n      jump\t// in\n    tag_484:\n        /* \"#utility.yul\":7037:7111   */\n      swap2\n      pop\n        /* \"#utility.yul\":7120:7213   */\n      tag_485\n        /* \"#utility.yul\":7209:7212   */\n      dup3\n        /* \"#utility.yul\":7120:7213   */\n      tag_486\n      jump\t// in\n    tag_485:\n        /* \"#utility.yul\":7238:7240   */\n      0x40\n        /* \"#utility.yul\":7233:7236   */\n      dup3\n        /* \"#utility.yul\":7229:7241   */\n      add\n        /* \"#utility.yul\":7222:7241   */\n      swap1\n      pop\n        /* \"#utility.yul\":6881:7247   */\n      swap2\n      swap1\n      pop\n      jump\t// out\n        /* \"#utility.yul\":7253:7619   */\n    tag_487:\n        /* \"#utility.yul\":7395:7398   */\n      0x00\n        /* \"#utility.yul\":7416:7483   */\n      tag_489\n        /* \"#utility.yul\":7480:7482   */\n      0x24\n        /* \"#utility.yul\":7475:7478   */\n      dup4\n        /* \"#utility.yul\":7416:7483   */\n      tag_427\n      jump\t// in\n    tag_489:\n        /* \"#utility.yul\":7409:7483   */\n      swap2\n      pop\n        /* \"#utility.yul\":7492:7585   */\n      tag_490\n        /* \"#utility.yul\":7581:7584   */\n      dup3\n        /* \"#utility.yul\":7492:7585   */\n      tag_491\n      jump\t// in\n    tag_490:\n        /* \"#utility.yul\":7610:7612   */\n      0x40\n        /* \"#utility.yul\":7605:7608   */\n      dup3\n        /* \"#utility.yul\":7601:7613   */\n      add\n        /* \"#utility.yul\":7594:7613   */\n      swap1\n      pop\n        /* \"#utility.yul\":7253:7619   */\n      swap2\n      swap1\n      pop\n      jump\t// out\n        /* \"#utility.yul\":7625:7991   */\n    tag_492:\n        /* \"#utility.yul\":7767:7770   */\n      0x00\n        /* \"#utility.yul\":7788:7855   */\n      tag_494\n        /* \"#utility.yul\":7852:7854   */\n      0x25\n        /* \"#utility.yul\":7847:7850   */\n      dup4\n        /* \"#utility.yul\":7788:7855   */\n      tag_427\n      jump\t// in\n    tag_494:\n        /* \"#utility.yul\":7781:7855   */\n      swap2\n      pop\n        /* \"#utility.yul\":7864:7957   */\n      tag_495\n        /* \"#utility.yul\":7953:7956   */\n      dup3\n        /* \"#utility.yul\":7864:7957   */\n      tag_496\n      jump\t// in\n    tag_495:\n        /* \"#utility.yul\":7982:7984   */\n      0x40\n        /* \"#utility.yul\":7977:7980   */\n      dup3\n        /* \"#utility.yul\":7973:7985   */\n      add\n        /* \"#utility.yul\":7966:7985   */\n      swap1\n      pop\n        /* \"#utility.yul\":7625:7991   */\n      swap2\n      swap1\n      pop\n      jump\t// out\n        /* \"#utility.yul\":7997:8363   */\n    tag_497:\n        /* \"#utility.yul\":8139:8142   */\n      0x00\n        /* \"#utility.yul\":8160:8227   */\n      tag_499\n        /* \"#utility.yul\":8224:8226   */\n      0x1f\n        /* \"#utility.yul\":8219:8222   */\n      dup4\n        /* \"#utility.yul\":8160:8227   */\n      tag_427\n      jump\t// in\n    tag_499:\n        /* \"#utility.yul\":8153:8227   */\n      swap2\n      pop\n        /* \"#utility.yul\":8236:8329   */\n      tag_500\n        /* \"#utility.yul\":8325:8328   */\n      dup3\n        /* \"#utility.yul\":8236:8329   */\n      tag_501\n      jump\t// in\n    tag_500:\n        /* \"#utility.yul\":8354:8356   */\n      0x20\n        /* \"#utility.yul\":8349:8352   */\n      dup3\n        /* \"#utility.yul\":8345:8357   */\n      add\n        /* \"#utility.yul\":8338:8357   */\n      swap1\n      pop\n        /* \"#utility.yul\":7997:8363   */\n      swap2\n      swap1\n      pop\n      jump\t// out\n        /* \"#utility.yul\":8369:8487   */\n    tag_502:\n        /* \"#utility.yul\":8456:8480   */\n      tag_504\n        /* \"#utility.yul\":8474:8479   */\n      dup2\n        /* \"#utility.yul\":8456:8480   */\n      tag_505\n      jump\t// in\n    tag_504:\n        /* \"#utility.yul\":8451:8454   */\n      dup3\n        /* \"#utility.yul\":8444:8481   */\n      mstore\n        /* \"#utility.yul\":8369:8487   */\n      pop\n      pop\n      jump\t// out\n        /* \"#utility.yul\":8493:8605   */\n    tag_506:\n        /* \"#utility.yul\":8576:8598   */\n      tag_508\n        /* \"#utility.yul\":8592:8597   */\n      dup2\n        /* \"#utility.yul\":8576:8598   */\n      tag_509\n      jump\t// in\n    tag_508:\n        /* \"#utility.yul\":8571:8574   */\n      dup3\n        /* \"#utility.yul\":8564:8599   */\n      mstore\n        /* \"#utility.yul\":8493:8605   */\n      pop\n      pop\n      jump\t// out\n        /* \"#utility.yul\":8611:8833   */\n    tag_122:\n        /* \"#utility.yul\":8704:8708   */\n      0x00\n        /* \"#utility.yul\":8742:8744   */\n      0x20\n        /* \"#utility.yul\":8731:8740   */\n      dup3\n        /* \"#utility.yul\":8727:8745   */\n      add\n        /* \"#utility.yul\":8719:8745   */\n      swap1\n      pop\n        /* \"#utility.yul\":8755:8826   */\n      tag_511\n        /* \"#utility.yul\":8823:8824   */\n      0x00\n        /* \"#utility.yul\":8812:8821   */\n      dup4\n        /* \"#utility.yul\":8808:8825   */\n      add\n        /* \"#utility.yul\":8799:8805   */\n      dup5\n        /* \"#utility.yul\":8755:8826   */\n      tag_414\n      jump\t// in\n    tag_511:\n        /* \"#utility.yul\":8611:8833   */\n      swap3\n      swap2\n      pop\n      pop\n      jump\t// out\n        /* \"#utility.yul\":8839:9049   */\n    tag_55:\n        /* \"#utility.yul\":8926:8930   */\n      0x00\n        /* \"#utility.yul\":8964:8966   */\n      0x20\n        /* \"#utility.yul\":8953:8962   */\n      dup3\n        /* \"#utility.yul\":8949:8967   */\n      add\n        /* \"#utility.yul\":8941:8967   */\n      swap1\n      pop\n        /* \"#utility.yul\":8977:9042   */\n      tag_513\n        /* \"#utility.yul\":9039:9040   */\n      0x00\n        /* \"#utility.yul\":9028:9037   */\n      dup4\n        /* \"#utility.yul\":9024:9041   */\n      add\n        /* \"#utility.yul\":9015:9021   */\n      dup5\n        /* \"#utility.yul\":8977:9042   */\n      tag_418\n      jump\t// in\n    tag_513:\n        /* \"#utility.yul\":8839:9049   */\n      swap3\n      swap2\n      pop\n      pop\n      jump\t// out\n        /* \"#utility.yul\":9055:9375   */\n    tag_172:\n        /* \"#utility.yul\":9170:9174   */\n      0x00\n        /* \"#utility.yul\":9208:9210   */\n      0x40\n        /* \"#utility.yul\":9197:9206   */\n      dup3\n        /* \"#utility.yul\":9193:9211   */\n      add\n        /* \"#utility.yul\":9185:9211   */\n      swap1\n      pop\n        /* \"#utility.yul\":9221:9286   */\n      tag_515\n        /* \"#utility.yul\":9283:9284   */\n      0x00\n        /* \"#utility.yul\":9272:9281   */\n      dup4\n        /* \"#utility.yul\":9268:9285   */\n      add\n        /* \"#utility.yul\":9259:9265   */\n      dup6\n        /* \"#utility.yul\":9221:9286   */\n      tag_418\n      jump\t// in\n    tag_515:\n        /* \"#utility.yul\":9296:9368   */\n      tag_516\n        /* \"#utility.yul\":9364:9366   */\n      0x20\n        /* \"#utility.yul\":9353:9362   */\n      dup4\n        /* \"#utility.yul\":9349:9367   */\n      add\n        /* \"#utility.yul\":9340:9346   */\n      dup5\n        /* \"#utility.yul\":9296:9368   */\n      tag_502\n      jump\t// in\n    tag_516:\n        /* \"#utility.yul\":9055:9375   */\n      swap4\n      swap3\n      pop\n      pop\n      pop\n      jump\t// out\n        /* \"#utility.yul\":9381:9694   */\n    tag_48:\n        /* \"#utility.yul\":9494:9498   */\n      0x00\n        /* \"#utility.yul\":9532:9534   */\n      0x20\n        /* \"#utility.yul\":9521:9530   */\n      dup3\n        /* \"#utility.yul\":9517:9535   */\n      add\n        /* \"#utility.yul\":9509:9535   */\n      swap1\n      pop\n        /* \"#utility.yul\":9581:9590   */\n      dup2\n        /* \"#utility.yul\":9575:9579   */\n      dup2\n        /* \"#utility.yul\":9571:9591   */\n      sub\n        /* \"#utility.yul\":9567:9568   */\n      0x00\n        /* \"#utility.yul\":9556:9565   */\n      dup4\n        /* \"#utility.yul\":9552:9569   */\n      add\n        /* \"#utility.yul\":9545:9592   */\n      mstore\n        /* \"#utility.yul\":9609:9687   */\n      tag_518\n        /* \"#utility.yul\":9682:9686   */\n      dup2\n        /* \"#utility.yul\":9673:9679   */\n      dup5\n        /* \"#utility.yul\":9609:9687   */\n      tag_422\n      jump\t// in\n    tag_518:\n        /* \"#utility.yul\":9601:9687   */\n      swap1\n      pop\n        /* \"#utility.yul\":9381:9694   */\n      swap3\n      swap2\n      pop\n      pop\n      jump\t// out\n        /* \"#utility.yul\":9700:10119   */\n    tag_224:\n        /* \"#utility.yul\":9866:9870   */\n      0x00\n        /* \"#utility.yul\":9904:9906   */\n      0x20\n        /* \"#utility.yul\":9893:9902   */\n      dup3\n        /* \"#utility.yul\":9889:9907   */\n      add\n        /* \"#utility.yul\":9881:9907   */\n      swap1\n      pop\n        /* \"#utility.yul\":9953:9962   */\n      dup2\n        /* \"#utility.yul\":9947:9951   */\n      dup2\n        /* \"#utility.yul\":9943:9963   */\n      sub\n        /* \"#utility.yul\":9939:9940   */\n      0x00\n        /* \"#utility.yul\":9928:9937   */\n      dup4\n        /* \"#utility.yul\":9924:9941   */\n      add\n        /* \"#utility.yul\":9917:9964   */\n      mstore\n        /* \"#utility.yul\":9981:10112   */\n      tag_520\n        /* \"#utility.yul\":10107:10111   */\n      dup2\n        /* \"#utility.yul\":9981:10112   */\n      tag_432\n      jump\t// in\n    tag_520:\n        /* \"#utility.yul\":9973:10112   */\n      swap1\n      pop\n        /* \"#utility.yul\":9700:10119   */\n      swap2\n      swap1\n      pop\n      jump\t// out\n        /* \"#utility.yul\":10125:10544   */\n    tag_360:\n        /* \"#utility.yul\":10291:10295   */\n      0x00\n        /* \"#utility.yul\":10329:10331   */\n      0x20\n        /* \"#utility.yul\":10318:10327   */\n      dup3\n        /* \"#utility.yul\":10314:10332   */\n      add\n        /* \"#utility.yul\":10306:10332   */\n      swap1\n      pop\n        /* \"#utility.yul\":10378:10387   */\n      dup2\n        /* \"#utility.yul\":10372:10376   */\n      dup2\n        /* \"#utility.yul\":10368:10388   */\n      sub\n        /* \"#utility.yul\":10364:10365   */\n      0x00\n        /* \"#utility.yul\":10353:10362   */\n      dup4\n        /* \"#utility.yul\":10349:10366   */\n      add\n        /* \"#utility.yul\":10342:10389   */\n      mstore\n        /* \"#utility.yul\":10406:10537   */\n      tag_522\n        /* \"#utility.yul\":10532:10536   */\n      dup2\n        /* \"#utility.yul\":10406:10537   */\n      tag_437\n      jump\t// in\n    tag_522:\n        /* \"#utility.yul\":10398:10537   */\n      swap1\n      pop\n        /* \"#utility.yul\":10125:10544   */\n      swap2\n      swap1\n      pop\n      jump\t// out\n        /* \"#utility.yul\":10550:10969   */\n    tag_342:\n        /* \"#utility.yul\":10716:10720   */\n      0x00\n        /* \"#utility.yul\":10754:10756   */\n      0x20\n        /* \"#utility.yul\":10743:10752   */\n      dup3\n        /* \"#utility.yul\":10739:10757   */\n      add\n        /* \"#utility.yul\":10731:10757   */\n      swap1\n      pop\n        /* \"#utility.yul\":10803:10812   */\n      dup2\n        /* \"#utility.yul\":10797:10801   */\n      dup2\n        /* \"#utility.yul\":10793:10813   */\n      sub\n        /* \"#utility.yul\":10789:10790   */\n      0x00\n        /* \"#utility.yul\":10778:10787   */\n      dup4\n        /* \"#utility.yul\":10774:10791   */\n      add\n        /* \"#utility.yul\":10767:10814   */\n      mstore\n        /* \"#utility.yul\":10831:10962   */\n      tag_524\n        /* \"#utility.yul\":10957:10961   */\n      dup2\n        /* \"#utility.yul\":10831:10962   */\n      tag_442\n      jump\t// in\n    tag_524:\n        /* \"#utility.yul\":10823:10962   */\n      swap1\n      pop\n        /* \"#utility.yul\":10550:10969   */\n      swap2\n      swap1\n      pop\n      jump\t// out\n        /* \"#utility.yul\":10975:11394   */\n    tag_323:\n        /* \"#utility.yul\":11141:11145   */\n      0x00\n        /* \"#utility.yul\":11179:11181   */\n      0x20\n        /* \"#utility.yul\":11168:11177   */\n      dup3\n        /* \"#utility.yul\":11164:11182   */\n      add\n        /* \"#utility.yul\":11156:11182   */\n      swap1\n      pop\n        /* \"#utility.yul\":11228:11237   */\n      dup2\n        /* \"#utility.yul\":11222:11226   */\n      dup2\n        /* \"#utility.yul\":11218:11238   */\n      sub\n        /* \"#utility.yul\":11214:11215   */\n      0x00\n        /* \"#utility.yul\":11203:11212   */\n      dup4\n        /* \"#utility.yul\":11199:11216   */\n      add\n        /* \"#utility.yul\":11192:11239   */\n      mstore\n        /* \"#utility.yul\":11256:11387   */\n      tag_526\n        /* \"#utility.yul\":11382:11386   */\n      dup2\n        /* \"#utility.yul\":11256:11387   */\n      tag_447\n      jump\t// in\n    tag_526:\n        /* \"#utility.yul\":11248:11387   */\n      swap1\n      pop\n        /* \"#utility.yul\":10975:11394   */\n      swap2\n      swap1\n      pop\n      jump\t// out\n        /* \"#utility.yul\":11400:11819   */\n    tag_332:\n        /* \"#utility.yul\":11566:11570   */\n      0x00\n        /* \"#utility.yul\":11604:11606   */\n      0x20\n        /* \"#utility.yul\":11593:11602   */\n      dup3\n        /* \"#utility.yul\":11589:11607   */\n      add\n        /* \"#utility.yul\":11581:11607   */\n      swap1\n      pop\n        /* \"#utility.yul\":11653:11662   */\n      dup2\n        /* \"#utility.yul\":11647:11651   */\n      dup2\n        /* \"#utility.yul\":11643:11663   */\n      sub\n        /* \"#utility.yul\":11639:11640   */\n      0x00\n        /* \"#utility.yul\":11628:11637   */\n      dup4\n        /* \"#utility.yul\":11624:11641   */\n      add\n        /* \"#utility.yul\":11617:11664   */\n      mstore\n        /* \"#utility.yul\":11681:11812   */\n      tag_528\n        /* \"#utility.yul\":11807:11811   */\n      dup2\n        /* \"#utility.yul\":11681:11812   */\n      tag_452\n      jump\t// in\n    tag_528:\n        /* \"#utility.yul\":11673:11812   */\n      swap1\n      pop\n        /* \"#utility.yul\":11400:11819   */\n      swap2\n      swap1\n      pop\n      jump\t// out\n        /* \"#utility.yul\":11825:12244   */\n    tag_297:\n        /* \"#utility.yul\":11991:11995   */\n      0x00\n        /* \"#utility.yul\":12029:12031   */\n      0x20\n        /* \"#utility.yul\":12018:12027   */\n      dup3\n        /* \"#utility.yul\":12014:12032   */\n      add\n        /* \"#utility.yul\":12006:12032   */\n      swap1\n      pop\n        /* \"#utility.yul\":12078:12087   */\n      dup2\n        /* \"#utility.yul\":12072:12076   */\n      dup2\n        /* \"#utility.yul\":12068:12088   */\n      sub\n        /* \"#utility.yul\":12064:12065   */\n      0x00\n        /* \"#utility.yul\":12053:12062   */\n      dup4\n        /* \"#utility.yul\":12049:12066   */\n      add\n        /* \"#utility.yul\":12042:12089   */\n      mstore\n        /* \"#utility.yul\":12106:12237   */\n      tag_530\n        /* \"#utility.yul\":12232:12236   */\n      dup2\n        /* \"#utility.yul\":12106:12237   */\n      tag_457\n      jump\t// in\n    tag_530:\n        /* \"#utility.yul\":12098:12237   */\n      swap1\n      pop\n        /* \"#utility.yul\":11825:12244   */\n      swap2\n      swap1\n      pop\n      jump\t// out\n        /* \"#utility.yul\":12250:12669   */\n    tag_352:\n        /* \"#utility.yul\":12416:12420   */\n      0x00\n        /* \"#utility.yul\":12454:12456   */\n      0x20\n        /* \"#utility.yul\":12443:12452   */\n      dup3\n        /* \"#utility.yul\":12439:12457   */\n      add\n        /* \"#utility.yul\":12431:12457   */\n      swap1\n      pop\n        /* \"#utility.yul\":12503:12512   */\n      dup2\n        /* \"#utility.yul\":12497:12501   */\n      dup2\n        /* \"#utility.yul\":12493:12513   */\n      sub\n        /* \"#utility.yul\":12489:12490   */\n      0x00\n        /* \"#utility.yul\":12478:12487   */\n      dup4\n        /* \"#utility.yul\":12474:12491   */\n      add\n        /* \"#utility.yul\":12467:12514   */\n      mstore\n        /* \"#utility.yul\":12531:12662   */\n      tag_532\n        /* \"#utility.yul\":12657:12661   */\n      dup2\n        /* \"#utility.yul\":12531:12662   */\n      tag_462\n      jump\t// in\n    tag_532:\n        /* \"#utility.yul\":12523:12662   */\n      swap1\n      pop\n        /* \"#utility.yul\":12250:12669   */\n      swap2\n      swap1\n      pop\n      jump\t// out\n        /* \"#utility.yul\":12675:13094   */\n    tag_364:\n        /* \"#utility.yul\":12841:12845   */\n      0x00\n        /* \"#utility.yul\":12879:12881   */\n      0x20\n        /* \"#utility.yul\":12868:12877   */\n      dup3\n        /* \"#utility.yul\":12864:12882   */\n      add\n        /* \"#utility.yul\":12856:12882   */\n      swap1\n      pop\n        /* \"#utility.yul\":12928:12937   */\n      dup2\n        /* \"#utility.yul\":12922:12926   */\n      dup2\n        /* \"#utility.yul\":12918:12938   */\n      sub\n        /* \"#utility.yul\":12914:12915   */\n      0x00\n        /* \"#utility.yul\":12903:12912   */\n      dup4\n        /* \"#utility.yul\":12899:12916   */\n      add\n        /* \"#utility.yul\":12892:12939   */\n      mstore\n        /* \"#utility.yul\":12956:13087   */\n      tag_534\n        /* \"#utility.yul\":13082:13086   */\n      dup2\n        /* \"#utility.yul\":12956:13087   */\n      tag_467\n      jump\t// in\n    tag_534:\n        /* \"#utility.yul\":12948:13087   */\n      swap1\n      pop\n        /* \"#utility.yul\":12675:13094   */\n      swap2\n      swap1\n      pop\n      jump\t// out\n        /* \"#utility.yul\":13100:13519   */\n    tag_241:\n        /* \"#utility.yul\":13266:13270   */\n      0x00\n        /* \"#utility.yul\":13304:13306   */\n      0x20\n        /* \"#utility.yul\":13293:13302   */\n      dup3\n        /* \"#utility.yul\":13289:13307   */\n      add\n        /* \"#utility.yul\":13281:13307   */\n      swap1\n      pop\n        /* \"#utility.yul\":13353:13362   */\n      dup2\n        /* \"#utility.yul\":13347:13351   */\n      dup2\n        /* \"#utility.yul\":13343:13363   */\n      sub\n        /* \"#utility.yul\":13339:13340   */\n      0x00\n        /* \"#utility.yul\":13328:13337   */\n      dup4\n        /* \"#utility.yul\":13324:13341   */\n      add\n        /* \"#utility.yul\":13317:13364   */\n      mstore\n        /* \"#utility.yul\":13381:13512   */\n      tag_536\n        /* \"#utility.yul\":13507:13511   */\n      dup2\n        /* \"#utility.yul\":13381:13512   */\n      tag_472\n      jump\t// in\n    tag_536:\n        /* \"#utility.yul\":13373:13512   */\n      swap1\n      pop\n        /* \"#utility.yul\":13100:13519   */\n      swap2\n      swap1\n      pop\n      jump\t// out\n        /* \"#utility.yul\":13525:13944   */\n    tag_337:\n        /* \"#utility.yul\":13691:13695   */\n      0x00\n        /* \"#utility.yul\":13729:13731   */\n      0x20\n        /* \"#utility.yul\":13718:13727   */\n      dup3\n        /* \"#utility.yul\":13714:13732   */\n      add\n        /* \"#utility.yul\":13706:13732   */\n      swap1\n      pop\n        /* \"#utility.yul\":13778:13787   */\n      dup2\n        /* \"#utility.yul\":13772:13776   */\n      dup2\n        /* \"#utility.yul\":13768:13788   */\n      sub\n        /* \"#utility.yul\":13764:13765   */\n      0x00\n        /* \"#utility.yul\":13753:13762   */\n      dup4\n        /* \"#utility.yul\":13749:13766   */\n      add\n        /* \"#utility.yul\":13742:13789   */\n      mstore\n        /* \"#utility.yul\":13806:13937   */\n      tag_538\n        /* \"#utility.yul\":13932:13936   */\n      dup2\n        /* \"#utility.yul\":13806:13937   */\n      tag_477\n      jump\t// in\n    tag_538:\n        /* \"#utility.yul\":13798:13937   */\n      swap1\n      pop\n        /* \"#utility.yul\":13525:13944   */\n      swap2\n      swap1\n      pop\n      jump\t// out\n        /* \"#utility.yul\":13950:14369   */\n    tag_357:\n        /* \"#utility.yul\":14116:14120   */\n      0x00\n        /* \"#utility.yul\":14154:14156   */\n      0x20\n        /* \"#utility.yul\":14143:14152   */\n      dup3\n        /* \"#utility.yul\":14139:14157   */\n      add\n        /* \"#utility.yul\":14131:14157   */\n      swap1\n      pop\n        /* \"#utility.yul\":14203:14212   */\n      dup2\n        /* \"#utility.yul\":14197:14201   */\n      dup2\n        /* \"#utility.yul\":14193:14213   */\n      sub\n        /* \"#utility.yul\":14189:14190   */\n      0x00\n        /* \"#utility.yul\":14178:14187   */\n      dup4\n        /* \"#utility.yul\":14174:14191   */\n      add\n        /* \"#utility.yul\":14167:14214   */\n      mstore\n        /* \"#utility.yul\":14231:14362   */\n      tag_540\n        /* \"#utility.yul\":14357:14361   */\n      dup2\n        /* \"#utility.yul\":14231:14362   */\n      tag_482\n      jump\t// in\n    tag_540:\n        /* \"#utility.yul\":14223:14362   */\n      swap1\n      pop\n        /* \"#utility.yul\":13950:14369   */\n      swap2\n      swap1\n      pop\n      jump\t// out\n        /* \"#utility.yul\":14375:14794   */\n    tag_329:\n        /* \"#utility.yul\":14541:14545   */\n      0x00\n        /* \"#utility.yul\":14579:14581   */\n      0x20\n        /* \"#utility.yul\":14568:14577   */\n      dup3\n        /* \"#utility.yul\":14564:14582   */\n      add\n        /* \"#utility.yul\":14556:14582   */\n      swap1\n      pop\n        /* \"#utility.yul\":14628:14637   */\n      dup2\n        /* \"#utility.yul\":14622:14626   */\n      dup2\n        /* \"#utility.yul\":14618:14638   */\n      sub\n        /* \"#utility.yul\":14614:14615   */\n      0x00\n        /* \"#utility.yul\":14603:14612   */\n      dup4\n        /* \"#utility.yul\":14599:14616   */\n      add\n        /* \"#utility.yul\":14592:14639   */\n      mstore\n        /* \"#utility.yul\":14656:14787   */\n      tag_542\n        /* \"#utility.yul\":14782:14786   */\n      dup2\n        /* \"#utility.yul\":14656:14787   */\n      tag_487\n      jump\t// in\n    tag_542:\n        /* \"#utility.yul\":14648:14787   */\n      swap1\n      pop\n        /* \"#utility.yul\":14375:14794   */\n      swap2\n      swap1\n      pop\n      jump\t// out\n        /* \"#utility.yul\":14800:15219   */\n    tag_275:\n        /* \"#utility.yul\":14966:14970   */\n      0x00\n        /* \"#utility.yul\":15004:15006   */\n      0x20\n        /* \"#utility.yul\":14993:15002   */\n      dup3\n        /* \"#utility.yul\":14989:15007   */\n      add\n        /* \"#utility.yul\":14981:15007   */\n      swap1\n      pop\n        /* \"#utility.yul\":15053:15062   */\n      dup2\n        /* \"#utility.yul\":15047:15051   */\n      dup2\n        /* \"#utility.yul\":15043:15063   */\n      sub\n        /* \"#utility.yul\":15039:15040   */\n      0x00\n        /* \"#utility.yul\":15028:15037   */\n      dup4\n        /* \"#utility.yul\":15024:15041   */\n      add\n        /* \"#utility.yul\":15017:15064   */\n      mstore\n        /* \"#utility.yul\":15081:15212   */\n      tag_544\n        /* \"#utility.yul\":15207:15211   */\n      dup2\n        /* \"#utility.yul\":15081:15212   */\n      tag_492\n      jump\t// in\n    tag_544:\n        /* \"#utility.yul\":15073:15212   */\n      swap1\n      pop\n        /* \"#utility.yul\":14800:15219   */\n      swap2\n      swap1\n      pop\n      jump\t// out\n        /* \"#utility.yul\":15225:15644   */\n    tag_372:\n        /* \"#utility.yul\":15391:15395   */\n      0x00\n        /* \"#utility.yul\":15429:15431   */\n      0x20\n        /* \"#utility.yul\":15418:15427   */\n      dup3\n        /* \"#utility.yul\":15414:15432   */\n      add\n        /* \"#utility.yul\":15406:15432   */\n      swap1\n      pop\n        /* \"#utility.yul\":15478:15487   */\n      dup2\n        /* \"#utility.yul\":15472:15476   */\n      dup2\n        /* \"#utility.yul\":15468:15488   */\n      sub\n        /* \"#utility.yul\":15464:15465   */\n      0x00\n        /* \"#utility.yul\":15453:15462   */\n      dup4\n        /* \"#utility.yul\":15449:15466   */\n      add\n        /* \"#utility.yul\":15442:15489   */\n      mstore\n        /* \"#utility.yul\":15506:15637   */\n      tag_546\n        /* \"#utility.yul\":15632:15636   */\n      dup2\n        /* \"#utility.yul\":15506:15637   */\n      tag_497\n      jump\t// in\n    tag_546:\n        /* \"#utility.yul\":15498:15637   */\n      swap1\n      pop\n        /* \"#utility.yul\":15225:15644   */\n      swap2\n      swap1\n      pop\n      jump\t// out\n        /* \"#utility.yul\":15650:15872   */\n    tag_43:\n        /* \"#utility.yul\":15743:15747   */\n      0x00\n        /* \"#utility.yul\":15781:15783   */\n      0x20\n        /* \"#utility.yul\":15770:15779   */\n      dup3\n        /* \"#utility.yul\":15766:15784   */\n      add\n        /* \"#utility.yul\":15758:15784   */\n      swap1\n      pop\n        /* \"#utility.yul\":15794:15865   */\n      tag_548\n        /* \"#utility.yul\":15862:15863   */\n      0x00\n        /* \"#utility.yul\":15851:15860   */\n      dup4\n        /* \"#utility.yul\":15847:15864   */\n      add\n        /* \"#utility.yul\":15838:15844   */\n      dup5\n        /* \"#utility.yul\":15794:15865   */\n      tag_502\n      jump\t// in\n    tag_548:\n        /* \"#utility.yul\":15650:15872   */\n      swap3\n      swap2\n      pop\n      pop\n      jump\t// out\n        /* \"#utility.yul\":15878:16092   */\n    tag_85:\n        /* \"#utility.yul\":15967:15971   */\n      0x00\n        /* \"#utility.yul\":16005:16007   */\n      0x20\n        /* \"#utility.yul\":15994:16003   */\n      dup3\n        /* \"#utility.yul\":15990:16008   */\n      add\n        /* \"#utility.yul\":15982:16008   */\n      swap1\n      pop\n        /* \"#utility.yul\":16018:16085   */\n      tag_550\n        /* \"#utility.yul\":16082:16083   */\n      0x00\n        /* \"#utility.yul\":16071:16080   */\n      dup4\n        /* \"#utility.yul\":16067:16084   */\n      add\n        /* \"#utility.yul\":16058:16064   */\n      dup5\n        /* \"#utility.yul\":16018:16085   */\n      tag_506\n      jump\t// in\n    tag_550:\n        /* \"#utility.yul\":15878:16092   */\n      swap3\n      swap2\n      pop\n      pop\n      jump\t// out\n        /* \"#utility.yul\":16179:16278   */\n    tag_425:\n        /* \"#utility.yul\":16231:16237   */\n      0x00\n        /* \"#utility.yul\":16265:16270   */\n      dup2\n        /* \"#utility.yul\":16259:16271   */\n      mload\n        /* \"#utility.yul\":16249:16271   */\n      swap1\n      pop\n        /* \"#utility.yul\":16179:16278   */\n      swap2\n      swap1\n      pop\n      jump\t// out\n        /* \"#utility.yul\":16284:16453   */\n    tag_427:\n        /* \"#utility.yul\":16368:16379   */\n      0x00\n        /* \"#utility.yul\":16402:16408   */\n      dup3\n        /* \"#utility.yul\":16397:16400   */\n      dup3\n        /* \"#utility.yul\":16390:16409   */\n      mstore\n        /* \"#utility.yul\":16442:16446   */\n      0x20\n        /* \"#utility.yul\":16437:16440   */\n      dup3\n        /* \"#utility.yul\":16433:16447   */\n      add\n        /* \"#utility.yul\":16418:16447   */\n      swap1\n      pop\n        /* \"#utility.yul\":16284:16453   */\n      swap3\n      swap2\n      pop\n      pop\n      jump\t// out\n        /* \"#utility.yul\":16459:16764   */\n    tag_198:\n        /* \"#utility.yul\":16499:16502   */\n      0x00\n        /* \"#utility.yul\":16518:16538   */\n      tag_556\n        /* \"#utility.yul\":16536:16537   */\n      dup3\n        /* \"#utility.yul\":16518:16538   */\n      tag_505\n      jump\t// in\n    tag_556:\n        /* \"#utility.yul\":16513:16538   */\n      swap2\n      pop\n        /* \"#utility.yul\":16552:16572   */\n      tag_557\n        /* \"#utility.yul\":16570:16571   */\n      dup4\n        /* \"#utility.yul\":16552:16572   */\n      tag_505\n      jump\t// in\n    tag_557:\n        /* \"#utility.yul\":16547:16572   */\n      swap3\n      pop\n        /* \"#utility.yul\":16706:16707   */\n      dup3\n        /* \"#utility.yul\":16638:16704   */\n      0xffffffffffffffffffffffffffffffffffffffffffffffffffffffffffffffff\n        /* \"#utility.yul\":16634:16708   */\n      sub\n        /* \"#utility.yul\":16631:16632   */\n      dup3\n        /* \"#utility.yul\":16628:16709   */\n      gt\n        /* \"#utility.yul\":16625:16732   */\n      iszero\n      tag_558\n      jumpi\n        /* \"#utility.yul\":16712:16730   */\n      tag_559\n      tag_560\n      jump\t// in\n    tag_559:\n        /* \"#utility.yul\":16625:16732   */\n    tag_558:\n        /* \"#utility.yul\":16756:16757   */\n      dup3\n        /* \"#utility.yul\":16753:16754   */\n      dup3\n        /* \"#utility.yul\":16749:16758   */\n      add\n        /* \"#utility.yul\":16742:16758   */\n      swap1\n      pop\n        /* \"#utility.yul\":16459:16764   */\n      swap3\n      swap2\n      pop\n      pop\n      jump\t// out\n        /* \"#utility.yul\":16770:16955   */\n    tag_255:\n        /* \"#utility.yul\":16810:16811   */\n      0x00\n        /* \"#utility.yul\":16827:16847   */\n      tag_562\n        /* \"#utility.yul\":16845:16846   */\n      dup3\n        /* \"#utility.yul\":16827:16847   */\n      tag_505\n      jump\t// in\n    tag_562:\n        /* \"#utility.yul\":16822:16847   */\n      swap2\n      pop\n        /* \"#utility.yul\":16861:16881   */\n      tag_563\n        /* \"#utility.yul\":16879:16880   */\n      dup4\n        /* \"#utility.yul\":16861:16881   */\n      tag_505\n      jump\t// in\n    tag_563:\n        /* \"#utility.yul\":16856:16881   */\n      swap3\n      pop\n        /* \"#utility.yul\":16900:16901   */\n      dup3\n        /* \"#utility.yul\":16890:16925   */\n      tag_564\n      jumpi\n        /* \"#utility.yul\":16905:16923   */\n      tag_565\n      tag_566\n      jump\t// in\n    tag_565:\n        /* \"#utility.yul\":16890:16925   */\n    tag_564:\n        /* \"#utility.yul\":16947:16948   */\n      dup3\n        /* \"#utility.yul\":16944:16945   */\n      dup3\n        /* \"#utility.yul\":16940:16949   */\n      div\n        /* \"#utility.yul\":16935:16949   */\n      swap1\n      pop\n        /* \"#utility.yul\":16770:16955   */\n      swap3\n      swap2\n      pop\n      pop\n      jump\t// out\n        /* \"#utility.yul\":16961:17809   */\n    tag_567:\n        /* \"#utility.yul\":17022:17027   */\n      0x00\n        /* \"#utility.yul\":17029:17033   */\n      dup1\n        /* \"#utility.yul\":17053:17059   */\n      dup3\n        /* \"#utility.yul\":17044:17059   */\n      swap2\n      pop\n        /* \"#utility.yul\":17077:17082   */\n      dup4\n        /* \"#utility.yul\":17068:17082   */\n      swap1\n      pop\n        /* \"#utility.yul\":17091:17803   */\n    tag_569:\n        /* \"#utility.yul\":17112:17113   */\n      0x01\n        /* \"#utility.yul\":17102:17110   */\n      dup6\n        /* \"#utility.yul\":17099:17114   */\n      gt\n        /* \"#utility.yul\":17091:17803   */\n      iszero\n      tag_571\n      jumpi\n        /* \"#utility.yul\":17207:17211   */\n      dup1\n        /* \"#utility.yul\":17202:17205   */\n      dup7\n        /* \"#utility.yul\":17198:17212   */\n      div\n        /* \"#utility.yul\":17192:17196   */\n      dup2\n        /* \"#utility.yul\":17189:17213   */\n      gt\n        /* \"#utility.yul\":17186:17236   */\n      iszero\n      tag_572\n      jumpi\n        /* \"#utility.yul\":17216:17234   */\n      tag_573\n      tag_560\n      jump\t// in\n    tag_573:\n        /* \"#utility.yul\":17186:17236   */\n    tag_572:\n        /* \"#utility.yul\":17266:17267   */\n      0x01\n        /* \"#utility.yul\":17256:17264   */\n      dup6\n        /* \"#utility.yul\":17252:17268   */\n      and\n        /* \"#utility.yul\":17249:17700   */\n      iszero\n      tag_574\n      jumpi\n        /* \"#utility.yul\":17681:17685   */\n      dup1\n        /* \"#utility.yul\":17674:17679   */\n      dup3\n        /* \"#utility.yul\":17670:17686   */\n      mul\n        /* \"#utility.yul\":17661:17686   */\n      swap2\n      pop\n        /* \"#utility.yul\":17249:17700   */\n    tag_574:\n        /* \"#utility.yul\":17731:17735   */\n      dup1\n        /* \"#utility.yul\":17725:17729   */\n      dup2\n        /* \"#utility.yul\":17721:17736   */\n      mul\n        /* \"#utility.yul\":17713:17736   */\n      swap1\n      pop\n        /* \"#utility.yul\":17761:17793   */\n      tag_575\n        /* \"#utility.yul\":17784:17792   */\n      dup6\n        /* \"#utility.yul\":17761:17793   */\n      tag_576\n      jump\t// in\n    tag_575:\n        /* \"#utility.yul\":17749:17793   */\n      swap5\n      pop\n        /* \"#utility.yul\":17091:17803   */\n      jump(tag_569)\n    tag_571:\n        /* \"#utility.yul\":16961:17809   */\n      swap5\n      pop\n      swap5\n      swap3\n      pop\n      pop\n      pop\n      jump\t// out\n        /* \"#utility.yul\":17815:18096   */\n    tag_248:\n        /* \"#utility.yul\":17873:17878   */\n      0x00\n        /* \"#utility.yul\":17897:17920   */\n      tag_578\n        /* \"#utility.yul\":17915:17919   */\n      dup3\n        /* \"#utility.yul\":17897:17920   */\n      tag_505\n      jump\t// in\n    tag_578:\n        /* \"#utility.yul\":17889:17920   */\n      swap2\n      pop\n        /* \"#utility.yul\":17941:17966   */\n      tag_579\n        /* \"#utility.yul\":17957:17965   */\n      dup4\n        /* \"#utility.yul\":17941:17966   */\n      tag_509\n      jump\t// in\n    tag_579:\n        /* \"#utility.yul\":17929:17966   */\n      swap3\n      pop\n        /* \"#utility.yul\":17985:18089   */\n      tag_580\n        /* \"#utility.yul\":18022:18088   */\n      0xffffffffffffffffffffffffffffffffffffffffffffffffffffffffffffffff\n        /* \"#utility.yul\":18012:18020   */\n      dup5\n        /* \"#utility.yul\":18006:18010   */\n      dup5\n        /* \"#utility.yul\":17985:18089   */\n      tag_581\n      jump\t// in\n    tag_580:\n        /* \"#utility.yul\":17976:18089   */\n      swap1\n      pop\n        /* \"#utility.yul\":17815:18096   */\n      swap3\n      swap2\n      pop\n      pop\n      jump\t// out\n        /* \"#utility.yul\":18102:19175   */\n    tag_581:\n        /* \"#utility.yul\":18156:18161   */\n      0x00\n        /* \"#utility.yul\":18347:18355   */\n      dup3\n        /* \"#utility.yul\":18337:18377   */\n      tag_583\n      jumpi\n        /* \"#utility.yul\":18368:18369   */\n      0x01\n        /* \"#utility.yul\":18359:18369   */\n      swap1\n      pop\n        /* \"#utility.yul\":18370:18375   */\n      jump(tag_582)\n        /* \"#utility.yul\":18337:18377   */\n    tag_583:\n        /* \"#utility.yul\":18396:18400   */\n      dup2\n        /* \"#utility.yul\":18386:18422   */\n      tag_584\n      jumpi\n        /* \"#utility.yul\":18413:18414   */\n      0x00\n        /* \"#utility.yul\":18404:18414   */\n      swap1\n      pop\n        /* \"#utility.yul\":18415:18420   */\n      jump(tag_582)\n        /* \"#utility.yul\":18386:18422   */\n    tag_584:\n        /* \"#utility.yul\":18482:18486   */\n      dup2\n        /* \"#utility.yul\":18530:18531   */\n      0x01\n        /* \"#utility.yul\":18525:18552   */\n      dup2\n      eq\n      tag_586\n      jumpi\n        /* \"#utility.yul\":18566:18567   */\n      0x02\n        /* \"#utility.yul\":18561:18752   */\n      dup2\n      eq\n      tag_587\n      jumpi\n        /* \"#utility.yul\":18475:18752   */\n      jump(tag_585)\n        /* \"#utility.yul\":18525:18552   */\n    tag_586:\n        /* \"#utility.yul\":18543:18544   */\n      0x01\n        /* \"#utility.yul\":18534:18544   */\n      swap2\n      pop\n        /* \"#utility.yul\":18545:18550   */\n      pop\n      jump(tag_582)\n        /* \"#utility.yul\":18561:18752   */\n    tag_587:\n        /* \"#utility.yul\":18606:18609   */\n      0xff\n        /* \"#utility.yul\":18596:18604   */\n      dup5\n        /* \"#utility.yul\":18593:18610   */\n      gt\n        /* \"#utility.yul\":18590:18633   */\n      iszero\n      tag_588\n      jumpi\n        /* \"#utility.yul\":18613:18631   */\n      tag_589\n      tag_560\n      jump\t// in\n    tag_589:\n        /* \"#utility.yul\":18590:18633   */\n    tag_588:\n        /* \"#utility.yul\":18662:18670   */\n      dup4\n        /* \"#utility.yul\":18659:18660   */\n      0x02\n        /* \"#utility.yul\":18655:18671   */\n      exp\n        /* \"#utility.yul\":18646:18671   */\n      swap2\n      pop\n        /* \"#utility.yul\":18697:18700   */\n      dup5\n        /* \"#utility.yul\":18690:18695   */\n      dup3\n        /* \"#utility.yul\":18687:18701   */\n      gt\n        /* \"#utility.yul\":18684:18724   */\n      iszero\n      tag_590\n      jumpi\n        /* \"#utility.yul\":18704:18722   */\n      tag_591\n      tag_560\n      jump\t// in\n    tag_591:\n        /* \"#utility.yul\":18684:18724   */\n    tag_590:\n        /* \"#utility.yul\":18737:18742   */\n      pop\n      jump(tag_582)\n        /* \"#utility.yul\":18475:18752   */\n    tag_585:\n      pop\n        /* \"#utility.yul\":18861:18863   */\n      0x20\n        /* \"#utility.yul\":18851:18859   */\n      dup4\n        /* \"#utility.yul\":18848:18864   */\n      lt\n        /* \"#utility.yul\":18842:18845   */\n      0x0133\n        /* \"#utility.yul\":18836:18840   */\n      dup4\n        /* \"#utility.yul\":18833:18846   */\n      lt\n        /* \"#utility.yul\":18829:18865   */\n      and\n        /* \"#utility.yul\":18811:18813   */\n      0x4e\n        /* \"#utility.yul\":18801:18809   */\n      dup5\n        /* \"#utility.yul\":18798:18814   */\n      lt\n        /* \"#utility.yul\":18793:18795   */\n      0x0b\n        /* \"#utility.yul\":18787:18791   */\n      dup5\n        /* \"#utility.yul\":18784:18796   */\n      lt\n        /* \"#utility.yul\":18780:18815   */\n      and\n        /* \"#utility.yul\":18764:18875   */\n      or\n        /* \"#utility.yul\":18761:19007   */\n      iszero\n      tag_592\n      jumpi\n        /* \"#utility.yul\":18917:18925   */\n      dup3\n        /* \"#utility.yul\":18911:18915   */\n      dup3\n        /* \"#utility.yul\":18907:18926   */\n      exp\n        /* \"#utility.yul\":18898:18926   */\n      swap1\n      pop\n        /* \"#utility.yul\":18952:18955   */\n      dup4\n        /* \"#utility.yul\":18945:18950   */\n      dup2\n        /* \"#utility.yul\":18942:18956   */\n      gt\n        /* \"#utility.yul\":18939:18979   */\n      iszero\n      tag_593\n      jumpi\n        /* \"#utility.yul\":18959:18977   */\n      tag_594\n      tag_560\n      jump\t// in\n    tag_594:\n        /* \"#utility.yul\":18939:18979   */\n    tag_593:\n        /* \"#utility.yul\":18992:18997   */\n      jump(tag_582)\n        /* \"#utility.yul\":18761:19007   */\n    tag_592:\n        /* \"#utility.yul\":19032:19074   */\n      tag_595\n        /* \"#utility.yul\":19070:19073   */\n      dup5\n        /* \"#utility.yul\":19060:19068   */\n      dup5\n        /* \"#utility.yul\":19054:19058   */\n      dup5\n        /* \"#utility.yul\":19051:19052   */\n      0x01\n        /* \"#utility.yul\":19032:19074   */\n      tag_567\n      jump\t// in\n    tag_595:\n        /* \"#utility.yul\":19017:19074   */\n      swap3\n      pop\n      swap1\n      pop\n        /* \"#utility.yul\":19106:19110   */\n      dup2\n        /* \"#utility.yul\":19101:19104   */\n      dup5\n        /* \"#utility.yul\":19097:19111   */\n      div\n        /* \"#utility.yul\":19090:19095   */\n      dup2\n        /* \"#utility.yul\":19087:19112   */\n      gt\n        /* \"#utility.yul\":19084:19135   */\n      iszero\n      tag_596\n      jumpi\n        /* \"#utility.yul\":19115:19133   */\n      tag_597\n      tag_560\n      jump\t// in\n    tag_597:\n        /* \"#utility.yul\":19084:19135   */\n    tag_596:\n        /* \"#utility.yul\":19164:19168   */\n      dup2\n        /* \"#utility.yul\":19157:19162   */\n      dup2\n        /* \"#utility.yul\":19153:19169   */\n      mul\n        /* \"#utility.yul\":19144:19169   */\n      swap1\n      pop\n        /* \"#utility.yul\":18102:19175   */\n    tag_582:\n      swap4\n      swap3\n      pop\n      pop\n      pop\n      jump\t// out\n        /* \"#utility.yul\":19181:19529   */\n    tag_250:\n        /* \"#utility.yul\":19221:19228   */\n      0x00\n        /* \"#utility.yul\":19244:19264   */\n      tag_599\n        /* \"#utility.yul\":19262:19263   */\n      dup3\n        /* \"#utility.yul\":19244:19264   */\n      tag_505\n      jump\t// in\n    tag_599:\n        /* \"#utility.yul\":19239:19264   */\n      swap2\n      pop\n        /* \"#utility.yul\":19278:19298   */\n      tag_600\n        /* \"#utility.yul\":19296:19297   */\n      dup4\n        /* \"#utility.yul\":19278:19298   */\n      tag_505\n      jump\t// in\n    tag_600:\n        /* \"#utility.yul\":19273:19298   */\n      swap3\n      pop\n        /* \"#utility.yul\":19466:19467   */\n      dup2\n        /* \"#utility.yul\":19398:19464   */\n      0xffffffffffffffffffffffffffffffffffffffffffffffffffffffffffffffff\n        /* \"#utility.yul\":19394:19468   */\n      div\n        /* \"#utility.yul\":19391:19392   */\n      dup4\n        /* \"#utility.yul\":19388:19469   */\n      gt\n        /* \"#utility.yul\":19383:19384   */\n      dup3\n        /* \"#utility.yul\":19376:19385   */\n      iszero\n        /* \"#utility.yul\":19369:19386   */\n      iszero\n        /* \"#utility.yul\":19365:19470   */\n      and\n        /* \"#utility.yul\":19362:19493   */\n      iszero\n      tag_601\n      jumpi\n        /* \"#utility.yul\":19473:19491   */\n      tag_602\n      tag_560\n      jump\t// in\n    tag_602:\n        /* \"#utility.yul\":19362:19493   */\n    tag_601:\n        /* \"#utility.yul\":19521:19522   */\n      dup3\n        /* \"#utility.yul\":19518:19519   */\n      dup3\n        /* \"#utility.yul\":19514:19523   */\n      mul\n        /* \"#utility.yul\":19503:19523   */\n      swap1\n      pop\n        /* \"#utility.yul\":19181:19529   */\n      swap3\n      swap2\n      pop\n      pop\n      jump\t// out\n        /* \"#utility.yul\":19535:19726   */\n    tag_261:\n        /* \"#utility.yul\":19575:19579   */\n      0x00\n        /* \"#utility.yul\":19595:19615   */\n      tag_604\n        /* \"#utility.yul\":19613:19614   */\n      dup3\n        /* \"#utility.yul\":19595:19615   */\n      tag_505\n      jump\t// in\n    tag_604:\n        /* \"#utility.yul\":19590:19615   */\n      swap2\n      pop\n        /* \"#utility.yul\":19629:19649   */\n      tag_605\n        /* \"#utility.yul\":19647:19648   */\n      dup4\n        /* \"#utility.yul\":19629:19649   */\n      tag_505\n      jump\t// in\n    tag_605:\n        /* \"#utility.yul\":19624:19649   */\n      swap3\n      pop\n        /* \"#utility.yul\":19668:19669   */\n      dup3\n        /* \"#utility.yul\":19665:19666   */\n      dup3\n        /* \"#utility.yul\":19662:19670   */\n      lt\n        /* \"#utility.yul\":19659:19693   */\n      iszero\n      tag_606\n      jumpi\n        /* \"#utility.yul\":19673:19691   */\n      tag_607\n      tag_560\n      jump\t// in\n    tag_607:\n        /* \"#utility.yul\":19659:19693   */\n    tag_606:\n        /* \"#utility.yul\":19718:19719   */\n      dup3\n        /* \"#utility.yul\":19715:19716   */\n      dup3\n        /* \"#utility.yul\":19711:19720   */\n      sub\n        /* \"#utility.yul\":19703:19720   */\n      swap1\n      pop\n        /* \"#utility.yul\":19535:19726   */\n      swap3\n      swap2\n      pop\n      pop\n      jump\t// out\n        /* \"#utility.yul\":19732:19828   */\n    tag_417:\n        /* \"#utility.yul\":19769:19776   */\n      0x00\n        /* \"#utility.yul\":19798:19822   */\n      tag_609\n        /* \"#utility.yul\":19816:19821   */\n      dup3\n        /* \"#utility.yul\":19798:19822   */\n      tag_610\n      jump\t// in\n    tag_609:\n        /* \"#utility.yul\":19787:19822   */\n      swap1\n      pop\n        /* \"#utility.yul\":19732:19828   */\n      swap2\n      swap1\n      pop\n      jump\t// out\n        /* \"#utility.yul\":19834:19924   */\n    tag_421:\n        /* \"#utility.yul\":19868:19875   */\n      0x00\n        /* \"#utility.yul\":19911:19916   */\n      dup2\n        /* \"#utility.yul\":19904:19917   */\n      iszero\n        /* \"#utility.yul\":19897:19918   */\n      iszero\n        /* \"#utility.yul\":19886:19918   */\n      swap1\n      pop\n        /* \"#utility.yul\":19834:19924   */\n      swap2\n      swap1\n      pop\n      jump\t// out\n        /* \"#utility.yul\":19930:20056   */\n    tag_610:\n        /* \"#utility.yul\":19967:19974   */\n      0x00\n        /* \"#utility.yul\":20007:20049   */\n      0xffffffffffffffffffffffffffffffffffffffff\n        /* \"#utility.yul\":20000:20005   */\n      dup3\n        /* \"#utility.yul\":19996:20050   */\n      and\n        /* \"#utility.yul\":19985:20050   */\n      swap1\n      pop\n        /* \"#utility.yul\":19930:20056   */\n      swap2\n      swap1\n      pop\n      jump\t// out\n        /* \"#utility.yul\":20062:20139   */\n    tag_505:\n        /* \"#utility.yul\":20099:20106   */\n      0x00\n        /* \"#utility.yul\":20128:20133   */\n      dup2\n        /* \"#utility.yul\":20117:20133   */\n      swap1\n      pop\n        /* \"#utility.yul\":20062:20139   */\n      swap2\n      swap1\n      pop\n      jump\t// out\n        /* \"#utility.yul\":20145:20231   */\n    tag_509:\n        /* \"#utility.yul\":20180:20187   */\n      0x00\n        /* \"#utility.yul\":20220:20224   */\n      0xff\n        /* \"#utility.yul\":20213:20218   */\n      dup3\n        /* \"#utility.yul\":20209:20225   */\n      and\n        /* \"#utility.yul\":20198:20225   */\n      swap1\n      pop\n        /* \"#utility.yul\":20145:20231   */\n      swap2\n      swap1\n      pop\n      jump\t// out\n        /* \"#utility.yul\":20237:20544   */\n    tag_429:\n        /* \"#utility.yul\":20305:20306   */\n      0x00\n        /* \"#utility.yul\":20315:20428   */\n    tag_616:\n        /* \"#utility.yul\":20329:20335   */\n      dup4\n        /* \"#utility.yul\":20326:20327   */\n      dup2\n        /* \"#utility.yul\":20323:20336   */\n      lt\n        /* \"#utility.yul\":20315:20428   */\n      iszero\n      tag_618\n      jumpi\n        /* \"#utility.yul\":20414:20415   */\n      dup1\n        /* \"#utility.yul\":20409:20412   */\n      dup3\n        /* \"#utility.yul\":20405:20416   */\n      add\n        /* \"#utility.yul\":20399:20417   */\n      mload\n        /* \"#utility.yul\":20395:20396   */\n      dup2\n        /* \"#utility.yul\":20390:20393   */\n      dup5\n        /* \"#utility.yul\":20386:20397   */\n      add\n        /* \"#utility.yul\":20379:20418   */\n      mstore\n        /* \"#utility.yul\":20351:20353   */\n      0x20\n        /* \"#utility.yul\":20348:20349   */\n      dup2\n        /* \"#utility.yul\":20344:20354   */\n      add\n        /* \"#utility.yul\":20339:20354   */\n      swap1\n      pop\n        /* \"#utility.yul\":20315:20428   */\n      jump(tag_616)\n    tag_618:\n        /* \"#utility.yul\":20446:20452   */\n      dup4\n        /* \"#utility.yul\":20443:20444   */\n      dup2\n        /* \"#utility.yul\":20440:20453   */\n      gt\n        /* \"#utility.yul\":20437:20538   */\n      iszero\n      tag_619\n      jumpi\n        /* \"#utility.yul\":20526:20527   */\n      0x00\n        /* \"#utility.yul\":20517:20523   */\n      dup5\n        /* \"#utility.yul\":20512:20515   */\n      dup5\n        /* \"#utility.yul\":20508:20524   */\n      add\n        /* \"#utility.yul\":20501:20528   */\n      mstore\n        /* \"#utility.yul\":20437:20538   */\n    tag_619:\n        /* \"#utility.yul\":20286:20544   */\n      pop\n        /* \"#utility.yul\":20237:20544   */\n      pop\n      pop\n      pop\n      jump\t// out\n        /* \"#utility.yul\":20550:20870   */\n    tag_179:\n        /* \"#utility.yul\":20594:20600   */\n      0x00\n        /* \"#utility.yul\":20631:20632   */\n      0x02\n        /* \"#utility.yul\":20625:20629   */\n      dup3\n        /* \"#utility.yul\":20621:20633   */\n      div\n        /* \"#utility.yul\":20611:20633   */\n      swap1\n      pop\n        /* \"#utility.yul\":20678:20679   */\n      0x01\n        /* \"#utility.yul\":20672:20676   */\n      dup3\n        /* \"#utility.yul\":20668:20680   */\n      and\n        /* \"#utility.yul\":20699:20717   */\n      dup1\n        /* \"#utility.yul\":20689:20770   */\n      tag_621\n      jumpi\n        /* \"#utility.yul\":20755:20759   */\n      0x7f\n        /* \"#utility.yul\":20747:20753   */\n      dup3\n        /* \"#utility.yul\":20743:20760   */\n      and\n        /* \"#utility.yul\":20733:20760   */\n      swap2\n      pop\n        /* \"#utility.yul\":20689:20770   */\n    tag_621:\n        /* \"#utility.yul\":20817:20819   */\n      0x20\n        /* \"#utility.yul\":20809:20815   */\n      dup3\n        /* \"#utility.yul\":20806:20820   */\n      lt\n        /* \"#utility.yul\":20786:20804   */\n      dup2\n        /* \"#utility.yul\":20783:20821   */\n      eq\n        /* \"#utility.yul\":20780:20864   */\n      iszero\n      tag_622\n      jumpi\n        /* \"#utility.yul\":20836:20854   */\n      tag_623\n      tag_624\n      jump\t// in\n    tag_623:\n        /* \"#utility.yul\":20780:20864   */\n    tag_622:\n        /* \"#utility.yul\":20601:20870   */\n      pop\n        /* \"#utility.yul\":20550:20870   */\n      swap2\n      swap1\n      pop\n      jump\t// out\n        /* \"#utility.yul\":20876:21056   */\n    tag_560:\n        /* \"#utility.yul\":20924:21001   */\n      0x4e487b7100000000000000000000000000000000000000000000000000000000\n        /* \"#utility.yul\":20921:20922   */\n      0x00\n        /* \"#utility.yul\":20914:21002   */\n      mstore\n        /* \"#utility.yul\":21021:21025   */\n      0x11\n        /* \"#utility.yul\":21018:21019   */\n      0x04\n        /* \"#utility.yul\":21011:21026   */\n      mstore\n        /* \"#utility.yul\":21045:21049   */\n      0x24\n        /* \"#utility.yul\":21042:21043   */\n      0x00\n        /* \"#utility.yul\":21035:21050   */\n      revert\n        /* \"#utility.yul\":21062:21242   */\n    tag_566:\n        /* \"#utility.yul\":21110:21187   */\n      0x4e487b7100000000000000000000000000000000000000000000000000000000\n        /* \"#utility.yul\":21107:21108   */\n      0x00\n        /* \"#utility.yul\":21100:21188   */\n      mstore\n        /* \"#utility.yul\":21207:21211   */\n      0x12\n        /* \"#utility.yul\":21204:21205   */\n      0x04\n        /* \"#utility.yul\":21197:21212   */\n      mstore\n        /* \"#utility.yul\":21231:21235   */\n      0x24\n        /* \"#utility.yul\":21228:21229   */\n      0x00\n        /* \"#utility.yul\":21221:21236   */\n      revert\n        /* \"#utility.yul\":21248:21428   */\n    tag_624:\n        /* \"#utility.yul\":21296:21373   */\n      0x4e487b7100000000000000000000000000000000000000000000000000000000\n        /* \"#utility.yul\":21293:21294   */\n      0x00\n        /* \"#utility.yul\":21286:21374   */\n      mstore\n        /* \"#utility.yul\":21393:21397   */\n      0x22\n        /* \"#utility.yul\":21390:21391   */\n      0x04\n        /* \"#utility.yul\":21383:21398   */\n      mstore\n        /* \"#utility.yul\":21417:21421   */\n      0x24\n        /* \"#utility.yul\":21414:21415   */\n      0x00\n        /* \"#utility.yul\":21407:21422   */\n      revert\n        /* \"#utility.yul\":21434:21614   */\n    tag_292:\n        /* \"#utility.yul\":21482:21559   */\n      0x4e487b7100000000000000000000000000000000000000000000000000000000\n        /* \"#utility.yul\":21479:21480   */\n      0x00\n        /* \"#utility.yul\":21472:21560   */\n      mstore\n        /* \"#utility.yul\":21579:21583   */\n      0x31\n        /* \"#utility.yul\":21576:21577   */\n      0x04\n        /* \"#utility.yul\":21569:21584   */\n      mstore\n        /* \"#utility.yul\":21603:21607   */\n      0x24\n        /* \"#utility.yul\":21600:21601   */\n      0x00\n        /* \"#utility.yul\":21593:21608   */\n      revert\n        /* \"#utility.yul\":21620:21800   */\n    tag_195:\n        /* \"#utility.yul\":21668:21745   */\n      0x4e487b7100000000000000000000000000000000000000000000000000000000\n        /* \"#utility.yul\":21665:21666   */\n      0x00\n        /* \"#utility.yul\":21658:21746   */\n      mstore\n        /* \"#utility.yul\":21765:21769   */\n      0x32\n        /* \"#utility.yul\":21762:21763   */\n      0x04\n        /* \"#utility.yul\":21755:21770   */\n      mstore\n        /* \"#utility.yul\":21789:21793   */\n      0x24\n        /* \"#utility.yul\":21786:21787   */\n      0x00\n        /* \"#utility.yul\":21779:21794   */\n      revert\n        /* \"#utility.yul\":21929:22046   */\n    tag_392:\n        /* \"#utility.yul\":22038:22039   */\n      0x00\n        /* \"#utility.yul\":22035:22036   */\n      dup1\n        /* \"#utility.yul\":22028:22040   */\n      revert\n        /* \"#utility.yul\":22052:22154   */\n    tag_431:\n        /* \"#utility.yul\":22093:22099   */\n      0x00\n        /* \"#utility.yul\":22144:22146   */\n      0x1f\n        /* \"#utility.yul\":22140:22147   */\n      not\n        /* \"#utility.yul\":22135:22137   */\n      0x1f\n        /* \"#utility.yul\":22128:22133   */\n      dup4\n        /* \"#utility.yul\":22124:22138   */\n      add\n        /* \"#utility.yul\":22120:22148   */\n      and\n        /* \"#utility.yul\":22110:22148   */\n      swap1\n      pop\n        /* \"#utility.yul\":22052:22154   */\n      swap2\n      swap1\n      pop\n      jump\t// out\n        /* \"#utility.yul\":22160:22262   */\n    tag_576:\n        /* \"#utility.yul\":22202:22210   */\n      0x00\n        /* \"#utility.yul\":22249:22254   */\n      dup2\n        /* \"#utility.yul\":22246:22247   */\n      0x01\n        /* \"#utility.yul\":22242:22255   */\n      shr\n        /* \"#utility.yul\":22221:22255   */\n      swap1\n      pop\n        /* \"#utility.yul\":22160:22262   */\n      swap2\n      swap1\n      pop\n      jump\t// out\n        /* \"#utility.yul\":22268:22500   */\n    tag_436:\n        /* \"#utility.yul\":22408:22442   */\n      0x4f6e6c7920746865204f776e65722063616e2073657420746865207072696365\n        /* \"#utility.yul\":22404:22405   */\n      0x00\n        /* \"#utility.yul\":22396:22402   */\n      dup3\n        /* \"#utility.yul\":22392:22406   */\n      add\n        /* \"#utility.yul\":22385:22443   */\n      mstore\n        /* \"#utility.yul\":22477:22492   */\n      0x206f662074686520746f6b656e00000000000000000000000000000000000000\n        /* \"#utility.yul\":22472:22474   */\n      0x20\n        /* \"#utility.yul\":22464:22470   */\n      dup3\n        /* \"#utility.yul\":22460:22475   */\n      add\n        /* \"#utility.yul\":22453:22493   */\n      mstore\n        /* \"#utility.yul\":22268:22500   */\n      pop\n      jump\t// out\n        /* \"#utility.yul\":22506:22728   */\n    tag_441:\n        /* \"#utility.yul\":22646:22680   */\n      0x45524332303a207472616e7366657220746f20746865207a65726f2061646472\n        /* \"#utility.yul\":22642:22643   */\n      0x00\n        /* \"#utility.yul\":22634:22640   */\n      dup3\n        /* \"#utility.yul\":22630:22644   */\n      add\n        /* \"#utility.yul\":22623:22681   */\n      mstore\n        /* \"#utility.yul\":22715:22720   */\n      0x6573730000000000000000000000000000000000000000000000000000000000\n        /* \"#utility.yul\":22710:22712   */\n      0x20\n        /* \"#utility.yul\":22702:22708   */\n      dup3\n        /* \"#utility.yul\":22698:22713   */\n      add\n        /* \"#utility.yul\":22691:22721   */\n      mstore\n        /* \"#utility.yul\":22506:22728   */\n      pop\n      jump\t// out\n        /* \"#utility.yul\":22734:22955   */\n    tag_446:\n        /* \"#utility.yul\":22874:22908   */\n      0x45524332303a206275726e20616d6f756e7420657863656564732062616c616e\n        /* \"#utility.yul\":22870:22871   */\n      0x00\n        /* \"#utility.yul\":22862:22868   */\n      dup3\n        /* \"#utility.yul\":22858:22872   */\n      add\n        /* \"#utility.yul\":22851:22909   */\n      mstore\n        /* \"#utility.yul\":22943:22947   */\n      0x6365000000000000000000000000000000000000000000000000000000000000\n        /* \"#utility.yul\":22938:22940   */\n      0x20\n        /* \"#utility.yul\":22930:22936   */\n      dup3\n        /* \"#utility.yul\":22926:22941   */\n      add\n        /* \"#utility.yul\":22919:22948   */\n      mstore\n        /* \"#utility.yul\":22734:22955   */\n      pop\n      jump\t// out\n        /* \"#utility.yul\":22961:23186   */\n    tag_451:\n        /* \"#utility.yul\":23101:23135   */\n      0x4f776e61626c653a206e6577206f776e657220697320746865207a65726f2061\n        /* \"#utility.yul\":23097:23098   */\n      0x00\n        /* \"#utility.yul\":23089:23095   */\n      dup3\n        /* \"#utility.yul\":23085:23099   */\n      add\n        /* \"#utility.yul\":23078:23136   */\n      mstore\n        /* \"#utility.yul\":23170:23178   */\n      0x6464726573730000000000000000000000000000000000000000000000000000\n        /* \"#utility.yul\":23165:23167   */\n      0x20\n        /* \"#utility.yul\":23157:23163   */\n      dup3\n        /* \"#utility.yul\":23153:23168   */\n      add\n        /* \"#utility.yul\":23146:23179   */\n      mstore\n        /* \"#utility.yul\":22961:23186   */\n      pop\n      jump\t// out\n        /* \"#utility.yul\":23192:23413   */\n    tag_456:\n        /* \"#utility.yul\":23332:23366   */\n      0x45524332303a20617070726f766520746f20746865207a65726f206164647265\n        /* \"#utility.yul\":23328:23329   */\n      0x00\n        /* \"#utility.yul\":23320:23326   */\n      dup3\n        /* \"#utility.yul\":23316:23330   */\n      add\n        /* \"#utility.yul\":23309:23367   */\n      mstore\n        /* \"#utility.yul\":23401:23405   */\n      0x7373000000000000000000000000000000000000000000000000000000000000\n        /* \"#utility.yul\":23396:23398   */\n      0x20\n        /* \"#utility.yul\":23388:23394   */\n      dup3\n        /* \"#utility.yul\":23384:23399   */\n      add\n        /* \"#utility.yul\":23377:23406   */\n      mstore\n        /* \"#utility.yul\":23192:23413   */\n      pop\n      jump\t// out\n        /* \"#utility.yul\":23419:23642   */\n    tag_461:\n        /* \"#utility.yul\":23559:23593   */\n      0x596f75722037206461797320646561646c696e65206973206e6f7420636f6d70\n        /* \"#utility.yul\":23555:23556   */\n      0x00\n        /* \"#utility.yul\":23547:23553   */\n      dup3\n        /* \"#utility.yul\":23543:23557   */\n      add\n        /* \"#utility.yul\":23536:23594   */\n      mstore\n        /* \"#utility.yul\":23628:23634   */\n      0x6c65746500000000000000000000000000000000000000000000000000000000\n        /* \"#utility.yul\":23623:23625   */\n      0x20\n        /* \"#utility.yul\":23615:23621   */\n      dup3\n        /* \"#utility.yul\":23611:23626   */\n      add\n        /* \"#utility.yul\":23604:23635   */\n      mstore\n        /* \"#utility.yul\":23419:23642   */\n      pop\n      jump\t// out\n        /* \"#utility.yul\":23648:23827   */\n    tag_466:\n        /* \"#utility.yul\":23788:23819   */\n      0x45524332303a20696e73756666696369656e7420616c6c6f77616e6365000000\n        /* \"#utility.yul\":23784:23785   */\n      0x00\n        /* \"#utility.yul\":23776:23782   */\n      dup3\n        /* \"#utility.yul\":23772:23786   */\n      add\n        /* \"#utility.yul\":23765:23820   */\n      mstore\n        /* \"#utility.yul\":23648:23827   */\n      pop\n      jump\t// out\n        /* \"#utility.yul\":23833:24058   */\n    tag_471:\n        /* \"#utility.yul\":23973:24007   */\n      0x45524332303a207472616e7366657220616d6f756e7420657863656564732062\n        /* \"#utility.yul\":23969:23970   */\n      0x00\n        /* \"#utility.yul\":23961:23967   */\n      dup3\n        /* \"#utility.yul\":23957:23971   */\n      add\n        /* \"#utility.yul\":23950:24008   */\n      mstore\n        /* \"#utility.yul\":24042:24050   */\n      0x616c616e63650000000000000000000000000000000000000000000000000000\n        /* \"#utility.yul\":24037:24039   */\n      0x20\n        /* \"#utility.yul\":24029:24035   */\n      dup3\n        /* \"#utility.yul\":24025:24040   */\n      add\n        /* \"#utility.yul\":24018:24051   */\n      mstore\n        /* \"#utility.yul\":23833:24058   */\n      pop\n      jump\t// out\n        /* \"#utility.yul\":24064:24246   */\n    tag_476:\n        /* \"#utility.yul\":24204:24238   */\n      0x4f776e61626c653a2063616c6c6572206973206e6f7420746865206f776e6572\n        /* \"#utility.yul\":24200:24201   */\n      0x00\n        /* \"#utility.yul\":24192:24198   */\n      dup3\n        /* \"#utility.yul\":24188:24202   */\n      add\n        /* \"#utility.yul\":24181:24239   */\n      mstore\n        /* \"#utility.yul\":24064:24246   */\n      pop\n      jump\t// out\n        /* \"#utility.yul\":24252:24472   */\n    tag_481:\n        /* \"#utility.yul\":24392:24426   */\n      0x45524332303a206275726e2066726f6d20746865207a65726f20616464726573\n        /* \"#utility.yul\":24388:24389   */\n      0x00\n        /* \"#utility.yul\":24380:24386   */\n      dup3\n        /* \"#utility.yul\":24376:24390   */\n      add\n        /* \"#utility.yul\":24369:24427   */\n      mstore\n        /* \"#utility.yul\":24461:24464   */\n      0x7300000000000000000000000000000000000000000000000000000000000000\n        /* \"#utility.yul\":24456:24458   */\n      0x20\n        /* \"#utility.yul\":24448:24454   */\n      dup3\n        /* \"#utility.yul\":24444:24459   */\n      add\n        /* \"#utility.yul\":24437:24465   */\n      mstore\n        /* \"#utility.yul\":24252:24472   */\n      pop\n      jump\t// out\n        /* \"#utility.yul\":24478:24702   */\n    tag_486:\n        /* \"#utility.yul\":24618:24652   */\n      0x45524332303a207472616e736665722066726f6d20746865207a65726f206164\n        /* \"#utility.yul\":24614:24615   */\n      0x00\n        /* \"#utility.yul\":24606:24612   */\n      dup3\n        /* \"#utility.yul\":24602:24616   */\n      add\n        /* \"#utility.yul\":24595:24653   */\n      mstore\n        /* \"#utility.yul\":24687:24694   */\n      0x6472657373000000000000000000000000000000000000000000000000000000\n        /* \"#utility.yul\":24682:24684   */\n      0x20\n        /* \"#utility.yul\":24674:24680   */\n      dup3\n        /* \"#utility.yul\":24670:24685   */\n      add\n        /* \"#utility.yul\":24663:24695   */\n      mstore\n        /* \"#utility.yul\":24478:24702   */\n      pop\n      jump\t// out\n        /* \"#utility.yul\":24708:24931   */\n    tag_491:\n        /* \"#utility.yul\":24848:24882   */\n      0x45524332303a20617070726f76652066726f6d20746865207a65726f20616464\n        /* \"#utility.yul\":24844:24845   */\n      0x00\n        /* \"#utility.yul\":24836:24842   */\n      dup3\n        /* \"#utility.yul\":24832:24846   */\n      add\n        /* \"#utility.yul\":24825:24883   */\n      mstore\n        /* \"#utility.yul\":24917:24923   */\n      0x7265737300000000000000000000000000000000000000000000000000000000\n        /* \"#utility.yul\":24912:24914   */\n      0x20\n        /* \"#utility.yul\":24904:24910   */\n      dup3\n        /* \"#utility.yul\":24900:24915   */\n      add\n        /* \"#utility.yul\":24893:24924   */\n      mstore\n        /* \"#utility.yul\":24708:24931   */\n      pop\n      jump\t// out\n        /* \"#utility.yul\":24937:25161   */\n    tag_496:\n        /* \"#utility.yul\":25077:25111   */\n      0x45524332303a2064656372656173656420616c6c6f77616e63652062656c6f77\n        /* \"#utility.yul\":25073:25074   */\n      0x00\n        /* \"#utility.yul\":25065:25071   */\n      dup3\n        /* \"#utility.yul\":25061:25075   */\n      add\n        /* \"#utility.yul\":25054:25112   */\n      mstore\n        /* \"#utility.yul\":25146:25153   */\n      0x207a65726f000000000000000000000000000000000000000000000000000000\n        /* \"#utility.yul\":25141:25143   */\n      0x20\n        /* \"#utility.yul\":25133:25139   */\n      dup3\n        /* \"#utility.yul\":25129:25144   */\n      add\n        /* \"#utility.yul\":25122:25154   */\n      mstore\n        /* \"#utility.yul\":24937:25161   */\n      pop\n      jump\t// out\n        /* \"#utility.yul\":25167:25348   */\n    tag_501:\n        /* \"#utility.yul\":25307:25340   */\n      0x45524332303a206d696e7420746f20746865207a65726f206164647265737300\n        /* \"#utility.yul\":25303:25304   */\n      0x00\n        /* \"#utility.yul\":25295:25301   */\n      dup3\n        /* \"#utility.yul\":25291:25305   */\n      add\n        /* \"#utility.yul\":25284:25341   */\n      mstore\n        /* \"#utility.yul\":25167:25348   */\n      pop\n      jump\t// out\n        /* \"#utility.yul\":25354:25476   */\n    tag_384:\n        /* \"#utility.yul\":25427:25451   */\n      tag_650\n        /* \"#utility.yul\":25445:25450   */\n      dup2\n        /* \"#utility.yul\":25427:25451   */\n      tag_417\n      jump\t// in\n    tag_650:\n        /* \"#utility.yul\":25420:25425   */\n      dup2\n        /* \"#utility.yul\":25417:25452   */\n      eq\n        /* \"#utility.yul\":25407:25470   */\n      tag_651\n      jumpi\n        /* \"#utility.yul\":25466:25467   */\n      0x00\n        /* \"#utility.yul\":25463:25464   */\n      dup1\n        /* \"#utility.yul\":25456:25468   */\n      revert\n        /* \"#utility.yul\":25407:25470   */\n    tag_651:\n        /* \"#utility.yul\":25354:25476   */\n      pop\n      jump\t// out\n        /* \"#utility.yul\":25482:25604   */\n    tag_388:\n        /* \"#utility.yul\":25555:25579   */\n      tag_653\n        /* \"#utility.yul\":25573:25578   */\n      dup2\n        /* \"#utility.yul\":25555:25579   */\n      tag_505\n      jump\t// in\n    tag_653:\n        /* \"#utility.yul\":25548:25553   */\n      dup2\n        /* \"#utility.yul\":25545:25580   */\n      eq\n        /* \"#utility.yul\":25535:25598   */\n      tag_654\n      jumpi\n        /* \"#utility.yul\":25594:25595   */\n      0x00\n        /* \"#utility.yul\":25591:25592   */\n      dup1\n        /* \"#utility.yul\":25584:25596   */\n      revert\n        /* \"#utility.yul\":25535:25598   */\n    tag_654:\n        /* \"#utility.yul\":25482:25604   */\n      pop\n      jump\t// out\n\n    auxdata: 0xa26469706673582212205d2e96729869d3ec4654f41b3fc6642d58983f91dcf6d71a05d6a848f55930c064736f6c63430008070033\n}\n",
				"bytecode": {
					"linkReferences": {},
					"object": "60806040523480156200001157600080fd5b506040518060400160405280600a81526020017f5a656e79615374616b65000000000000000000000000000000000000000000008152506040518060400160405280600481526020017f5a4e59530000000000000000000000000000000000000000000000000000000081525081600390805190602001906200009692919062000370565b508060049080519060200190620000af92919062000370565b505050620000d2620000c66200011660201b60201c565b6200011e60201b60201c565b6200011033620000e7620001e460201b60201c565b600a620000f5919062000560565b6103e86200010491906200069d565b620001ed60201b60201c565b620007df565b600033905090565b6000600560009054906101000a900473ffffffffffffffffffffffffffffffffffffffff16905081600560006101000a81548173ffffffffffffffffffffffffffffffffffffffff021916908373ffffffffffffffffffffffffffffffffffffffff1602179055508173ffffffffffffffffffffffffffffffffffffffff168173ffffffffffffffffffffffffffffffffffffffff167f8be0079c531659141344cd1fd0a4f28419497f9722a3daafe3b4186f6b6457e060405160405180910390a35050565b60006012905090565b600073ffffffffffffffffffffffffffffffffffffffff168273ffffffffffffffffffffffffffffffffffffffff16141562000260576040517f08c379a0000000000000000000000000000000000000000000000000000000008152600401620002579062000458565b60405180910390fd5b62000274600083836200036660201b60201c565b8060026000828254620002889190620004a8565b92505081905550806000808473ffffffffffffffffffffffffffffffffffffffff1673ffffffffffffffffffffffffffffffffffffffff1681526020019081526020016000206000828254620002df9190620004a8565b925050819055508173ffffffffffffffffffffffffffffffffffffffff16600073ffffffffffffffffffffffffffffffffffffffff167fddf252ad1be2c89b69c2b068fc378daa952ba7f163c4a11628f55a4df523b3ef836040516200034691906200047a565b60405180910390a362000362600083836200036b60201b60201c565b5050565b505050565b505050565b8280546200037e9062000715565b90600052602060002090601f016020900481019282620003a25760008555620003ee565b82601f10620003bd57805160ff1916838001178555620003ee565b82800160010185558215620003ee579182015b82811115620003ed578251825591602001919060010190620003d0565b5b509050620003fd919062000401565b5090565b5b808211156200041c57600081600090555060010162000402565b5090565b60006200042f601f8362000497565b91506200043c82620007b6565b602082019050919050565b6200045281620006fe565b82525050565b60006020820190508181036000830152620004738162000420565b9050919050565b600060208201905062000491600083018462000447565b92915050565b600082825260208201905092915050565b6000620004b582620006fe565b9150620004c283620006fe565b9250827fffffffffffffffffffffffffffffffffffffffffffffffffffffffffffffffff03821115620004fa57620004f96200074b565b5b828201905092915050565b6000808291508390505b600185111562000557578086048111156200052f576200052e6200074b565b5b60018516156200053f5780820291505b80810290506200054f85620007a9565b94506200050f565b94509492505050565b60006200056d82620006fe565b91506200057a8362000708565b9250620005a97fffffffffffffffffffffffffffffffffffffffffffffffffffffffffffffffff8484620005b1565b905092915050565b600082620005c3576001905062000696565b81620005d3576000905062000696565b8160018114620005ec5760028114620005f7576200062d565b600191505062000696565b60ff8411156200060c576200060b6200074b565b5b8360020a9150848211156200062657620006256200074b565b5b5062000696565b5060208310610133831016604e8410600b8410161715620006675782820a9050838111156200066157620006606200074b565b5b62000696565b62000676848484600162000505565b9250905081840481111562000690576200068f6200074b565b5b81810290505b9392505050565b6000620006aa82620006fe565b9150620006b783620006fe565b9250817fffffffffffffffffffffffffffffffffffffffffffffffffffffffffffffffff0483118215151615620006f357620006f26200074b565b5b828202905092915050565b6000819050919050565b600060ff82169050919050565b600060028204905060018216806200072e57607f821691505b602082108114156200074557620007446200077a565b5b50919050565b7f4e487b7100000000000000000000000000000000000000000000000000000000600052601160045260246000fd5b7f4e487b7100000000000000000000000000000000000000000000000000000000600052602260045260246000fd5b60008160011c9050919050565b7f45524332303a206d696e7420746f20746865207a65726f206164647265737300600082015250565b612dac80620007ef6000396000f3fe6080604052600436106101cd5760003560e01c8063715018a6116100f7578063b2bdfa7b11610095578063dd62ed3e11610064578063dd62ed3e1461067f578063e5c42fd1146106bc578063ef037b90146106e5578063f2fde38b14610723576101cd565b8063b2bdfa7b146105d7578063bcb0c2d714610602578063c885bc581461062b578063d82e396214610642576101cd565b8063939624ab116100d1578063939624ab1461050957806395d89b4114610532578063a457c2d71461055d578063a9059cbb1461059a576101cd565b8063715018a6146104ab5780637e72fb52146104c25780638da5cb5b146104de576101cd565b806323b872dd1161016f578063426233601161013e57806342623360146103f15780634be21e331461042e5780636f4a2cd01461045757806370a082311461046e576101cd565b806323b872dd14610321578063313ce5671461035e57806335789c8b1461038957806339509351146103b4576101cd565b80630e15561a116101ab5780630e15561a1461026557806318160ddd146102905780631bf6ddae146102bb5780631d62ebd9146102e4576101cd565b8063046e2edb146101d257806306fdde03146101fd578063095ea7b314610228575b600080fd5b3480156101de57600080fd5b506101e761074c565b6040516101f491906124c8565b60405180910390f35b34801561020957600080fd5b50610212610752565b60405161021f91906122e6565b60405180910390f35b34801561023457600080fd5b5061024f600480360381019061024a9190611fbb565b6107e4565b60405161025c91906122a2565b60405180910390f35b34801561027157600080fd5b5061027a610807565b60405161028791906124c8565b60405180910390f35b34801561029c57600080fd5b506102a56108c5565b6040516102b291906124c8565b60405180910390f35b3480156102c757600080fd5b506102e260048036038101906102dd9190611ffb565b6108cf565b005b3480156102f057600080fd5b5061030b60048036038101906103069190611efb565b6109d1565b60405161031891906124c8565b60405180910390f35b34801561032d57600080fd5b5061034860048036038101906103439190611f68565b610a1a565b60405161035591906122a2565b60405180910390f35b34801561036a57600080fd5b50610373610a49565b60405161038091906124e3565b60405180910390f35b34801561039557600080fd5b5061039e610a52565b6040516103ab91906124c8565b60405180910390f35b3480156103c057600080fd5b506103db60048036038101906103d69190611fbb565b610a58565b6040516103e891906122a2565b60405180910390f35b3480156103fd57600080fd5b5061041860048036038101906104139190611efb565b610b02565b60405161042591906124c8565b60405180910390f35b34801561043a57600080fd5b5061045560048036038101906104509190611ffb565b610b4b565b005b34801561046357600080fd5b5061046c610be5565b005b34801561047a57600080fd5b5061049560048036038101906104909190611efb565b610cec565b6040516104a291906124c8565b60405180910390f35b3480156104b757600080fd5b506104c0610d34565b005b6104dc60048036038101906104d79190611efb565b610dbc565b005b3480156104ea57600080fd5b506104f3610e21565b6040516105009190612287565b60405180910390f35b34801561051557600080fd5b50610530600480360381019061052b9190611ffb565b610e4b565b005b34801561053e57600080fd5b50610547610f38565b60405161055491906122e6565b60405180910390f35b34801561056957600080fd5b50610584600480360381019061057f9190611fbb565b610fca565b60405161059191906122a2565b60405180910390f35b3480156105a657600080fd5b506105c160048036038101906105bc9190611fbb565b6110b4565b6040516105ce91906122a2565b60405180910390f35b3480156105e357600080fd5b506105ec6110d7565b6040516105f99190612287565b60405180910390f35b34801561060e57600080fd5b5061062960048036038101906106249190611efb565b6110fd565b005b34801561063757600080fd5b5061064061120c565b005b34801561064e57600080fd5b5061066960048036038101906106649190611efb565b6112e7565b60405161067691906124c8565b60405180910390f35b34801561068b57600080fd5b506106a660048036038101906106a19190611f28565b61133c565b6040516106b391906124c8565b60405180910390f35b3480156106c857600080fd5b506106e360048036038101906106de9190611efb565b6113c3565b005b3480156106f157600080fd5b5061070c60048036038101906107079190611efb565b61143e565b60405161071a9291906122bd565b60405180910390f35b34801561072f57600080fd5b5061074a60048036038101906107459190611efb565b6114f2565b005b60085481565b60606003805461076190612828565b80601f016020809104026020016040519081016040528092919081815260200182805461078d90612828565b80156107da5780601f106107af576101008083540402835291602001916107da565b820191906000526020600020905b8154815290600101906020018083116107bd57829003601f168201915b5050505050905090565b6000806107ef6115ea565b90506107fc8185856115f2565b600191505092915050565b6000806000905060005b600a805490508110156108bd57600b6000600a838154811061083657610835612916565b5b9060005260206000200160009054906101000a900473ffffffffffffffffffffffffffffffffffffffff1673ffffffffffffffffffffffffffffffffffffffff1673ffffffffffffffffffffffffffffffffffffffff16815260200190815260200160002054826108a7919061251a565b91506001816108b6919061251a565b9050610811565b508091505090565b6000600254905090565b6108d933826117bd565b6000600960003373ffffffffffffffffffffffffffffffffffffffff1673ffffffffffffffffffffffffffffffffffffffff16815260200190815260200160002054141561092b5761092a336113c3565b5b80600960003373ffffffffffffffffffffffffffffffffffffffff1673ffffffffffffffffffffffffffffffffffffffff16815260200190815260200160002054610976919061251a565b600960003373ffffffffffffffffffffffffffffffffffffffff1673ffffffffffffffffffffffffffffffffffffffff1681526020019081526020016000208190555062093a80426109c8919061251a565b600c8190555050565b6000600b60008373ffffffffffffffffffffffffffffffffffffffff1673ffffffffffffffffffffffffffffffffffffffff168152602001908152602001600020549050919050565b600080610a256115ea565b9050610a32858285611994565b610a3d858585611a20565b60019150509392505050565b60006012905090565b60075481565b600080610a636115ea565b9050610af7818585600160008673ffffffffffffffffffffffffffffffffffffffff1673ffffffffffffffffffffffffffffffffffffffff16815260200190815260200160002060008973ffffffffffffffffffffffffffffffffffffffff1673ffffffffffffffffffffffffffffffffffffffff16815260200190815260200160002054610af2919061251a565b6115f2565b600191505092915050565b6000600960008373ffffffffffffffffffffffffffffffffffffffff1673ffffffffffffffffffffffffffffffffffffffff168152602001908152602001600020549050919050565b600660009054906101000a900473ffffffffffffffffffffffffffffffffffffffff1673ffffffffffffffffffffffffffffffffffffffff163373ffffffffffffffffffffffffffffffffffffffff1614610bdb576040517f08c379a0000000000000000000000000000000000000000000000000000000008152600401610bd290612308565b60405180910390fd5b8060078190555050565b60005b600a80549050811015610ce9576000600a8281548110610c0b57610c0a612916565b5b9060005260206000200160009054906101000a900473ffffffffffffffffffffffffffffffffffffffff1690506000610c43826112e7565b905080600b60008473ffffffffffffffffffffffffffffffffffffffff1673ffffffffffffffffffffffffffffffffffffffff16815260200190815260200160002054610c90919061251a565b600b60008473ffffffffffffffffffffffffffffffffffffffff1673ffffffffffffffffffffffffffffffffffffffff168152602001908152602001600020819055505050600181610ce2919061251a565b9050610be8565b50565b60008060008373ffffffffffffffffffffffffffffffffffffffff1673ffffffffffffffffffffffffffffffffffffffff168152602001908152602001600020549050919050565b610d3c6115ea565b73ffffffffffffffffffffffffffffffffffffffff16610d5a610e21565b73ffffffffffffffffffffffffffffffffffffffff1614610db0576040517f08c379a0000000000000000000000000000000000000000000000000000000008152600401610da790612408565b60405180910390fd5b610dba6000611ca1565b565b610dc4610a49565b600a610dd091906125f4565b600754610ddd9190612712565b6008819055506000610ded610a49565b600a610df991906125f4565b60085434610e079190612712565b610e119190612570565b9050610e1d8282611d67565b5050565b6000600560009054906101000a900473ffffffffffffffffffffffffffffffffffffffff16905090565b80600960003373ffffffffffffffffffffffffffffffffffffffff1673ffffffffffffffffffffffffffffffffffffffff16815260200190815260200160002054610e96919061276c565b600960003373ffffffffffffffffffffffffffffffffffffffff1673ffffffffffffffffffffffffffffffffffffffff168152602001908152602001600020819055506000600960003373ffffffffffffffffffffffffffffffffffffffff1673ffffffffffffffffffffffffffffffffffffffff168152602001908152602001600020541415610f2b57610f2a336110fd565b5b610f353382611d67565b50565b606060048054610f4790612828565b80601f0160208091040260200160405190810160405280929190818152602001828054610f7390612828565b8015610fc05780601f10610f9557610100808354040283529160200191610fc0565b820191906000526020600020905b815481529060010190602001808311610fa357829003601f168201915b5050505050905090565b600080610fd56115ea565b90506000600160008373ffffffffffffffffffffffffffffffffffffffff1673ffffffffffffffffffffffffffffffffffffffff16815260200190815260200160002060008673ffffffffffffffffffffffffffffffffffffffff1673ffffffffffffffffffffffffffffffffffffffff1681526020019081526020016000205490508381101561109b576040517f08c379a000000000000000000000000000000000000000000000000000000000815260040161109290612488565b60405180910390fd5b6110a882868684036115f2565b60019250505092915050565b6000806110bf6115ea565b90506110cc818585611a20565b600191505092915050565b600660009054906101000a900473ffffffffffffffffffffffffffffffffffffffff1681565b6000806111098361143e565b91509150811561120757600a6001600a80549050611127919061276c565b8154811061113857611137612916565b5b9060005260206000200160009054906101000a900473ffffffffffffffffffffffffffffffffffffffff16600a828154811061117757611176612916565b5b9060005260206000200160006101000a81548173ffffffffffffffffffffffffffffffffffffffff021916908373ffffffffffffffffffffffffffffffffffffffff160217905550600a8054806111d1576111d06128e7565b5b6001900381819060005260206000200160006101000a81549073ffffffffffffffffffffffffffffffffffffffff021916905590555b505050565b600c54421015611251576040517f08c379a0000000000000000000000000000000000000000000000000000000008152600401611248906123a8565b60405180910390fd5b6000600b60003373ffffffffffffffffffffffffffffffffffffffff1673ffffffffffffffffffffffffffffffffffffffff1681526020019081526020016000205490506000600b60003373ffffffffffffffffffffffffffffffffffffffff1673ffffffffffffffffffffffffffffffffffffffff168152602001908152602001600020819055506112e43382611d67565b50565b60006064600960008473ffffffffffffffffffffffffffffffffffffffff1673ffffffffffffffffffffffffffffffffffffffff168152602001908152602001600020546113359190612570565b9050919050565b6000600160008473ffffffffffffffffffffffffffffffffffffffff1673ffffffffffffffffffffffffffffffffffffffff16815260200190815260200160002060008373ffffffffffffffffffffffffffffffffffffffff1673ffffffffffffffffffffffffffffffffffffffff16815260200190815260200160002054905092915050565b60006113ce8261143e565b5090508061143a57600a829080600181540180825580915050600190039060005260206000200160009091909190916101000a81548173ffffffffffffffffffffffffffffffffffffffff021916908373ffffffffffffffffffffffffffffffffffffffff1602179055505b5050565b60008060005b600a805490508110156114e457600a818154811061146557611464612916565b5b9060005260206000200160009054906101000a900473ffffffffffffffffffffffffffffffffffffffff1673ffffffffffffffffffffffffffffffffffffffff168473ffffffffffffffffffffffffffffffffffffffff1614156114d05760018192509250506114ed565b6001816114dd919061251a565b9050611444565b50600080915091505b915091565b6114fa6115ea565b73ffffffffffffffffffffffffffffffffffffffff16611518610e21565b73ffffffffffffffffffffffffffffffffffffffff161461156e576040517f08c379a000000000000000000000000000000000000000000000000000000000815260040161156590612408565b60405180910390fd5b600073ffffffffffffffffffffffffffffffffffffffff168173ffffffffffffffffffffffffffffffffffffffff1614156115de576040517f08c379a00000000000000000000000000000000000000000000000000000000081526004016115d590612368565b60405180910390fd5b6115e781611ca1565b50565b600033905090565b600073ffffffffffffffffffffffffffffffffffffffff168373ffffffffffffffffffffffffffffffffffffffff161415611662576040517f08c379a000000000000000000000000000000000000000000000000000000000815260040161165990612468565b60405180910390fd5b600073ffffffffffffffffffffffffffffffffffffffff168273ffffffffffffffffffffffffffffffffffffffff1614156116d2576040517f08c379a00000000000000000000000000000000000000000000000000000000081526004016116c990612388565b60405180910390fd5b80600160008573ffffffffffffffffffffffffffffffffffffffff1673ffffffffffffffffffffffffffffffffffffffff16815260200190815260200160002060008473ffffffffffffffffffffffffffffffffffffffff1673ffffffffffffffffffffffffffffffffffffffff168152602001908152602001600020819055508173ffffffffffffffffffffffffffffffffffffffff168373ffffffffffffffffffffffffffffffffffffffff167f8c5be1e5ebec7d5bd14f71427d1e84f3dd0314c0f7b2291e5b200ac8c7c3b925836040516117b091906124c8565b60405180910390a3505050565b600073ffffffffffffffffffffffffffffffffffffffff168273ffffffffffffffffffffffffffffffffffffffff16141561182d576040517f08c379a000000000000000000000000000000000000000000000000000000000815260040161182490612428565b60405180910390fd5b61183982600083611ec7565b60008060008473ffffffffffffffffffffffffffffffffffffffff1673ffffffffffffffffffffffffffffffffffffffff168152602001908152602001600020549050818110156118bf576040517f08c379a00000000000000000000000000000000000000000000000000000000081526004016118b690612348565b60405180910390fd5b8181036000808573ffffffffffffffffffffffffffffffffffffffff1673ffffffffffffffffffffffffffffffffffffffff168152602001908152602001600020819055508160026000828254611916919061276c565b92505081905550600073ffffffffffffffffffffffffffffffffffffffff168373ffffffffffffffffffffffffffffffffffffffff167fddf252ad1be2c89b69c2b068fc378daa952ba7f163c4a11628f55a4df523b3ef8460405161197b91906124c8565b60405180910390a361198f83600084611ecc565b505050565b60006119a0848461133c565b90507fffffffffffffffffffffffffffffffffffffffffffffffffffffffffffffffff8114611a1a5781811015611a0c576040517f08c379a0000000000000000000000000000000000000000000000000000000008152600401611a03906123c8565b60405180910390fd5b611a1984848484036115f2565b5b50505050565b600073ffffffffffffffffffffffffffffffffffffffff168373ffffffffffffffffffffffffffffffffffffffff161415611a90576040517f08c379a0000000000000000000000000000000000000000000000000000000008152600401611a8790612448565b60405180910390fd5b600073ffffffffffffffffffffffffffffffffffffffff168273ffffffffffffffffffffffffffffffffffffffff161415611b00576040517f08c379a0000000000000000000000000000000000000000000000000000000008152600401611af790612328565b60405180910390fd5b611b0b838383611ec7565b60008060008573ffffffffffffffffffffffffffffffffffffffff1673ffffffffffffffffffffffffffffffffffffffff16815260200190815260200160002054905081811015611b91576040517f08c379a0000000000000000000000000000000000000000000000000000000008152600401611b88906123e8565b60405180910390fd5b8181036000808673ffffffffffffffffffffffffffffffffffffffff1673ffffffffffffffffffffffffffffffffffffffff16815260200190815260200160002081905550816000808573ffffffffffffffffffffffffffffffffffffffff1673ffffffffffffffffffffffffffffffffffffffff1681526020019081526020016000206000828254611c24919061251a565b925050819055508273ffffffffffffffffffffffffffffffffffffffff168473ffffffffffffffffffffffffffffffffffffffff167fddf252ad1be2c89b69c2b068fc378daa952ba7f163c4a11628f55a4df523b3ef84604051611c8891906124c8565b60405180910390a3611c9b848484611ecc565b50505050565b6000600560009054906101000a900473ffffffffffffffffffffffffffffffffffffffff16905081600560006101000a81548173ffffffffffffffffffffffffffffffffffffffff021916908373ffffffffffffffffffffffffffffffffffffffff1602179055508173ffffffffffffffffffffffffffffffffffffffff168173ffffffffffffffffffffffffffffffffffffffff167f8be0079c531659141344cd1fd0a4f28419497f9722a3daafe3b4186f6b6457e060405160405180910390a35050565b600073ffffffffffffffffffffffffffffffffffffffff168273ffffffffffffffffffffffffffffffffffffffff161415611dd7576040517f08c379a0000000000000000000000000000000000000000000000000000000008152600401611dce906124a8565b60405180910390fd5b611de360008383611ec7565b8060026000828254611df5919061251a565b92505081905550806000808473ffffffffffffffffffffffffffffffffffffffff1673ffffffffffffffffffffffffffffffffffffffff1681526020019081526020016000206000828254611e4a919061251a565b925050819055508173ffffffffffffffffffffffffffffffffffffffff16600073ffffffffffffffffffffffffffffffffffffffff167fddf252ad1be2c89b69c2b068fc378daa952ba7f163c4a11628f55a4df523b3ef83604051611eaf91906124c8565b60405180910390a3611ec360008383611ecc565b5050565b505050565b505050565b600081359050611ee081612d48565b92915050565b600081359050611ef581612d5f565b92915050565b600060208284031215611f1157611f10612945565b5b6000611f1f84828501611ed1565b91505092915050565b60008060408385031215611f3f57611f3e612945565b5b6000611f4d85828601611ed1565b9250506020611f5e85828601611ed1565b9150509250929050565b600080600060608486031215611f8157611f80612945565b5b6000611f8f86828701611ed1565b9350506020611fa086828701611ed1565b9250506040611fb186828701611ee6565b9150509250925092565b60008060408385031215611fd257611fd1612945565b5b6000611fe085828601611ed1565b9250506020611ff185828601611ee6565b9150509250929050565b60006020828403121561201157612010612945565b5b600061201f84828501611ee6565b91505092915050565b612031816127a0565b82525050565b612040816127b2565b82525050565b6000612051826124fe565b61205b8185612509565b935061206b8185602086016127f5565b6120748161294a565b840191505092915050565b600061208c602d83612509565b915061209782612968565b604082019050919050565b60006120af602383612509565b91506120ba826129b7565b604082019050919050565b60006120d2602283612509565b91506120dd82612a06565b604082019050919050565b60006120f5602683612509565b915061210082612a55565b604082019050919050565b6000612118602283612509565b915061212382612aa4565b604082019050919050565b600061213b602483612509565b915061214682612af3565b604082019050919050565b600061215e601d83612509565b915061216982612b42565b602082019050919050565b6000612181602683612509565b915061218c82612b6b565b604082019050919050565b60006121a4602083612509565b91506121af82612bba565b602082019050919050565b60006121c7602183612509565b91506121d282612be3565b604082019050919050565b60006121ea602583612509565b91506121f582612c32565b604082019050919050565b600061220d602483612509565b915061221882612c81565b604082019050919050565b6000612230602583612509565b915061223b82612cd0565b604082019050919050565b6000612253601f83612509565b915061225e82612d1f565b602082019050919050565b612272816127de565b82525050565b612281816127e8565b82525050565b600060208201905061229c6000830184612028565b92915050565b60006020820190506122b76000830184612037565b92915050565b60006040820190506122d26000830185612037565b6122df6020830184612269565b9392505050565b600060208201905081810360008301526123008184612046565b905092915050565b600060208201905081810360008301526123218161207f565b9050919050565b60006020820190508181036000830152612341816120a2565b9050919050565b60006020820190508181036000830152612361816120c5565b9050919050565b60006020820190508181036000830152612381816120e8565b9050919050565b600060208201905081810360008301526123a18161210b565b9050919050565b600060208201905081810360008301526123c18161212e565b9050919050565b600060208201905081810360008301526123e181612151565b9050919050565b6000602082019050818103600083015261240181612174565b9050919050565b6000602082019050818103600083015261242181612197565b9050919050565b60006020820190508181036000830152612441816121ba565b9050919050565b60006020820190508181036000830152612461816121dd565b9050919050565b6000602082019050818103600083015261248181612200565b9050919050565b600060208201905081810360008301526124a181612223565b9050919050565b600060208201905081810360008301526124c181612246565b9050919050565b60006020820190506124dd6000830184612269565b92915050565b60006020820190506124f86000830184612278565b92915050565b600081519050919050565b600082825260208201905092915050565b6000612525826127de565b9150612530836127de565b9250827fffffffffffffffffffffffffffffffffffffffffffffffffffffffffffffffff038211156125655761256461285a565b5b828201905092915050565b600061257b826127de565b9150612586836127de565b92508261259657612595612889565b5b828204905092915050565b6000808291508390505b60018511156125eb578086048111156125c7576125c661285a565b5b60018516156125d65780820291505b80810290506125e48561295b565b94506125ab565b94509492505050565b60006125ff826127de565b915061260a836127e8565b92506126377fffffffffffffffffffffffffffffffffffffffffffffffffffffffffffffffff848461263f565b905092915050565b60008261264f576001905061270b565b8161265d576000905061270b565b8160018114612673576002811461267d576126ac565b600191505061270b565b60ff84111561268f5761268e61285a565b5b8360020a9150848211156126a6576126a561285a565b5b5061270b565b5060208310610133831016604e8410600b84101617156126e15782820a9050838111156126dc576126db61285a565b5b61270b565b6126ee84848460016125a1565b925090508184048111156127055761270461285a565b5b81810290505b9392505050565b600061271d826127de565b9150612728836127de565b9250817fffffffffffffffffffffffffffffffffffffffffffffffffffffffffffffffff04831182151516156127615761276061285a565b5b828202905092915050565b6000612777826127de565b9150612782836127de565b9250828210156127955761279461285a565b5b828203905092915050565b60006127ab826127be565b9050919050565b60008115159050919050565b600073ffffffffffffffffffffffffffffffffffffffff82169050919050565b6000819050919050565b600060ff82169050919050565b60005b838110156128135780820151818401526020810190506127f8565b83811115612822576000848401525b50505050565b6000600282049050600182168061284057607f821691505b60208210811415612854576128536128b8565b5b50919050565b7f4e487b7100000000000000000000000000000000000000000000000000000000600052601160045260246000fd5b7f4e487b7100000000000000000000000000000000000000000000000000000000600052601260045260246000fd5b7f4e487b7100000000000000000000000000000000000000000000000000000000600052602260045260246000fd5b7f4e487b7100000000000000000000000000000000000000000000000000000000600052603160045260246000fd5b7f4e487b7100000000000000000000000000000000000000000000000000000000600052603260045260246000fd5b600080fd5b6000601f19601f8301169050919050565b60008160011c9050919050565b7f4f6e6c7920746865204f776e65722063616e207365742074686520707269636560008201527f206f662074686520746f6b656e00000000000000000000000000000000000000602082015250565b7f45524332303a207472616e7366657220746f20746865207a65726f206164647260008201527f6573730000000000000000000000000000000000000000000000000000000000602082015250565b7f45524332303a206275726e20616d6f756e7420657863656564732062616c616e60008201527f6365000000000000000000000000000000000000000000000000000000000000602082015250565b7f4f776e61626c653a206e6577206f776e657220697320746865207a65726f206160008201527f6464726573730000000000000000000000000000000000000000000000000000602082015250565b7f45524332303a20617070726f766520746f20746865207a65726f20616464726560008201527f7373000000000000000000000000000000000000000000000000000000000000602082015250565b7f596f75722037206461797320646561646c696e65206973206e6f7420636f6d7060008201527f6c65746500000000000000000000000000000000000000000000000000000000602082015250565b7f45524332303a20696e73756666696369656e7420616c6c6f77616e6365000000600082015250565b7f45524332303a207472616e7366657220616d6f756e742065786365656473206260008201527f616c616e63650000000000000000000000000000000000000000000000000000602082015250565b7f4f776e61626c653a2063616c6c6572206973206e6f7420746865206f776e6572600082015250565b7f45524332303a206275726e2066726f6d20746865207a65726f2061646472657360008201527f7300000000000000000000000000000000000000000000000000000000000000602082015250565b7f45524332303a207472616e736665722066726f6d20746865207a65726f20616460008201527f6472657373000000000000000000000000000000000000000000000000000000602082015250565b7f45524332303a20617070726f76652066726f6d20746865207a65726f2061646460008201527f7265737300000000000000000000000000000000000000000000000000000000602082015250565b7f45524332303a2064656372656173656420616c6c6f77616e63652062656c6f7760008201527f207a65726f000000000000000000000000000000000000000000000000000000602082015250565b7f45524332303a206d696e7420746f20746865207a65726f206164647265737300600082015250565b612d51816127a0565b8114612d5c57600080fd5b50565b612d68816127de565b8114612d7357600080fd5b5056fea26469706673582212205d2e96729869d3ec4654f41b3fc6642d58983f91dcf6d71a05d6a848f55930c064736f6c63430008070033",
					"opcodes": "PUSH1 0x80 PUSH1 0x40 MSTORE CALLVALUE DUP1 ISZERO PUSH3 0x11 JUMPI PUSH1 0x0 DUP1 REVERT JUMPDEST POP PUSH1 0x40 MLOAD DUP1 PUSH1 0x40 ADD PUSH1 0x40 MSTORE DUP1 PUSH1 0xA DUP2 MSTORE PUSH1 0x20 ADD PUSH32 0x5A656E79615374616B6500000000000000000000000000000000000000000000 DUP2 MSTORE POP PUSH1 0x40 MLOAD DUP1 PUSH1 0x40 ADD PUSH1 0x40 MSTORE DUP1 PUSH1 0x4 DUP2 MSTORE PUSH1 0x20 ADD PUSH32 0x5A4E595300000000000000000000000000000000000000000000000000000000 DUP2 MSTORE POP DUP2 PUSH1 0x3 SWAP1 DUP1 MLOAD SWAP1 PUSH1 0x20 ADD SWAP1 PUSH3 0x96 SWAP3 SWAP2 SWAP1 PUSH3 0x370 JUMP JUMPDEST POP DUP1 PUSH1 0x4 SWAP1 DUP1 MLOAD SWAP1 PUSH1 0x20 ADD SWAP1 PUSH3 0xAF SWAP3 SWAP2 SWAP1 PUSH3 0x370 JUMP JUMPDEST POP POP POP PUSH3 0xD2 PUSH3 0xC6 PUSH3 0x116 PUSH1 0x20 SHL PUSH1 0x20 SHR JUMP JUMPDEST PUSH3 0x11E PUSH1 0x20 SHL PUSH1 0x20 SHR JUMP JUMPDEST PUSH3 0x110 CALLER PUSH3 0xE7 PUSH3 0x1E4 PUSH1 0x20 SHL PUSH1 0x20 SHR JUMP JUMPDEST PUSH1 0xA PUSH3 0xF5 SWAP2 SWAP1 PUSH3 0x560 JUMP JUMPDEST PUSH2 0x3E8 PUSH3 0x104 SWAP2 SWAP1 PUSH3 0x69D JUMP JUMPDEST PUSH3 0x1ED PUSH1 0x20 SHL PUSH1 0x20 SHR JUMP JUMPDEST PUSH3 0x7DF JUMP JUMPDEST PUSH1 0x0 CALLER SWAP1 POP SWAP1 JUMP JUMPDEST PUSH1 0x0 PUSH1 0x5 PUSH1 0x0 SWAP1 SLOAD SWAP1 PUSH2 0x100 EXP SWAP1 DIV PUSH20 0xFFFFFFFFFFFFFFFFFFFFFFFFFFFFFFFFFFFFFFFF AND SWAP1 POP DUP2 PUSH1 0x5 PUSH1 0x0 PUSH2 0x100 EXP DUP2 SLOAD DUP2 PUSH20 0xFFFFFFFFFFFFFFFFFFFFFFFFFFFFFFFFFFFFFFFF MUL NOT AND SWAP1 DUP4 PUSH20 0xFFFFFFFFFFFFFFFFFFFFFFFFFFFFFFFFFFFFFFFF AND MUL OR SWAP1 SSTORE POP DUP2 PUSH20 0xFFFFFFFFFFFFFFFFFFFFFFFFFFFFFFFFFFFFFFFF AND DUP2 PUSH20 0xFFFFFFFFFFFFFFFFFFFFFFFFFFFFFFFFFFFFFFFF AND PUSH32 0x8BE0079C531659141344CD1FD0A4F28419497F9722A3DAAFE3B4186F6B6457E0 PUSH1 0x40 MLOAD PUSH1 0x40 MLOAD DUP1 SWAP2 SUB SWAP1 LOG3 POP POP JUMP JUMPDEST PUSH1 0x0 PUSH1 0x12 SWAP1 POP SWAP1 JUMP JUMPDEST PUSH1 0x0 PUSH20 0xFFFFFFFFFFFFFFFFFFFFFFFFFFFFFFFFFFFFFFFF AND DUP3 PUSH20 0xFFFFFFFFFFFFFFFFFFFFFFFFFFFFFFFFFFFFFFFF AND EQ ISZERO PUSH3 0x260 JUMPI PUSH1 0x40 MLOAD PUSH32 0x8C379A000000000000000000000000000000000000000000000000000000000 DUP2 MSTORE PUSH1 0x4 ADD PUSH3 0x257 SWAP1 PUSH3 0x458 JUMP JUMPDEST PUSH1 0x40 MLOAD DUP1 SWAP2 SUB SWAP1 REVERT JUMPDEST PUSH3 0x274 PUSH1 0x0 DUP4 DUP4 PUSH3 0x366 PUSH1 0x20 SHL PUSH1 0x20 SHR JUMP JUMPDEST DUP1 PUSH1 0x2 PUSH1 0x0 DUP3 DUP3 SLOAD PUSH3 0x288 SWAP2 SWAP1 PUSH3 0x4A8 JUMP JUMPDEST SWAP3 POP POP DUP2 SWAP1 SSTORE POP DUP1 PUSH1 0x0 DUP1 DUP5 PUSH20 0xFFFFFFFFFFFFFFFFFFFFFFFFFFFFFFFFFFFFFFFF AND PUSH20 0xFFFFFFFFFFFFFFFFFFFFFFFFFFFFFFFFFFFFFFFF AND DUP2 MSTORE PUSH1 0x20 ADD SWAP1 DUP2 MSTORE PUSH1 0x20 ADD PUSH1 0x0 KECCAK256 PUSH1 0x0 DUP3 DUP3 SLOAD PUSH3 0x2DF SWAP2 SWAP1 PUSH3 0x4A8 JUMP JUMPDEST SWAP3 POP POP DUP2 SWAP1 SSTORE POP DUP2 PUSH20 0xFFFFFFFFFFFFFFFFFFFFFFFFFFFFFFFFFFFFFFFF AND PUSH1 0x0 PUSH20 0xFFFFFFFFFFFFFFFFFFFFFFFFFFFFFFFFFFFFFFFF AND PUSH32 0xDDF252AD1BE2C89B69C2B068FC378DAA952BA7F163C4A11628F55A4DF523B3EF DUP4 PUSH1 0x40 MLOAD PUSH3 0x346 SWAP2 SWAP1 PUSH3 0x47A JUMP JUMPDEST PUSH1 0x40 MLOAD DUP1 SWAP2 SUB SWAP1 LOG3 PUSH3 0x362 PUSH1 0x0 DUP4 DUP4 PUSH3 0x36B PUSH1 0x20 SHL PUSH1 0x20 SHR JUMP JUMPDEST POP POP JUMP JUMPDEST POP POP POP JUMP JUMPDEST POP POP POP JUMP JUMPDEST DUP3 DUP1 SLOAD PUSH3 0x37E SWAP1 PUSH3 0x715 JUMP JUMPDEST SWAP1 PUSH1 0x0 MSTORE PUSH1 0x20 PUSH1 0x0 KECCAK256 SWAP1 PUSH1 0x1F ADD PUSH1 0x20 SWAP1 DIV DUP2 ADD SWAP3 DUP3 PUSH3 0x3A2 JUMPI PUSH1 0x0 DUP6 SSTORE PUSH3 0x3EE JUMP JUMPDEST DUP3 PUSH1 0x1F LT PUSH3 0x3BD JUMPI DUP1 MLOAD PUSH1 0xFF NOT AND DUP4 DUP1 ADD OR DUP6 SSTORE PUSH3 0x3EE JUMP JUMPDEST DUP3 DUP1 ADD PUSH1 0x1 ADD DUP6 SSTORE DUP3 ISZERO PUSH3 0x3EE JUMPI SWAP2 DUP3 ADD JUMPDEST DUP3 DUP2 GT ISZERO PUSH3 0x3ED JUMPI DUP3 MLOAD DUP3 SSTORE SWAP2 PUSH1 0x20 ADD SWAP2 SWAP1 PUSH1 0x1 ADD SWAP1 PUSH3 0x3D0 JUMP JUMPDEST JUMPDEST POP SWAP1 POP PUSH3 0x3FD SWAP2 SWAP1 PUSH3 0x401 JUMP JUMPDEST POP SWAP1 JUMP JUMPDEST JUMPDEST DUP1 DUP3 GT ISZERO PUSH3 0x41C JUMPI PUSH1 0x0 DUP2 PUSH1 0x0 SWAP1 SSTORE POP PUSH1 0x1 ADD PUSH3 0x402 JUMP JUMPDEST POP SWAP1 JUMP JUMPDEST PUSH1 0x0 PUSH3 0x42F PUSH1 0x1F DUP4 PUSH3 0x497 JUMP JUMPDEST SWAP2 POP PUSH3 0x43C DUP3 PUSH3 0x7B6 JUMP JUMPDEST PUSH1 0x20 DUP3 ADD SWAP1 POP SWAP2 SWAP1 POP JUMP JUMPDEST PUSH3 0x452 DUP2 PUSH3 0x6FE JUMP JUMPDEST DUP3 MSTORE POP POP JUMP JUMPDEST PUSH1 0x0 PUSH1 0x20 DUP3 ADD SWAP1 POP DUP2 DUP2 SUB PUSH1 0x0 DUP4 ADD MSTORE PUSH3 0x473 DUP2 PUSH3 0x420 JUMP JUMPDEST SWAP1 POP SWAP2 SWAP1 POP JUMP JUMPDEST PUSH1 0x0 PUSH1 0x20 DUP3 ADD SWAP1 POP PUSH3 0x491 PUSH1 0x0 DUP4 ADD DUP5 PUSH3 0x447 JUMP JUMPDEST SWAP3 SWAP2 POP POP JUMP JUMPDEST PUSH1 0x0 DUP3 DUP3 MSTORE PUSH1 0x20 DUP3 ADD SWAP1 POP SWAP3 SWAP2 POP POP JUMP JUMPDEST PUSH1 0x0 PUSH3 0x4B5 DUP3 PUSH3 0x6FE JUMP JUMPDEST SWAP2 POP PUSH3 0x4C2 DUP4 PUSH3 0x6FE JUMP JUMPDEST SWAP3 POP DUP3 PUSH32 0xFFFFFFFFFFFFFFFFFFFFFFFFFFFFFFFFFFFFFFFFFFFFFFFFFFFFFFFFFFFFFFFF SUB DUP3 GT ISZERO PUSH3 0x4FA JUMPI PUSH3 0x4F9 PUSH3 0x74B JUMP JUMPDEST JUMPDEST DUP3 DUP3 ADD SWAP1 POP SWAP3 SWAP2 POP POP JUMP JUMPDEST PUSH1 0x0 DUP1 DUP3 SWAP2 POP DUP4 SWAP1 POP JUMPDEST PUSH1 0x1 DUP6 GT ISZERO PUSH3 0x557 JUMPI DUP1 DUP7 DIV DUP2 GT ISZERO PUSH3 0x52F JUMPI PUSH3 0x52E PUSH3 0x74B JUMP JUMPDEST JUMPDEST PUSH1 0x1 DUP6 AND ISZERO PUSH3 0x53F JUMPI DUP1 DUP3 MUL SWAP2 POP JUMPDEST DUP1 DUP2 MUL SWAP1 POP PUSH3 0x54F DUP6 PUSH3 0x7A9 JUMP JUMPDEST SWAP5 POP PUSH3 0x50F JUMP JUMPDEST SWAP5 POP SWAP5 SWAP3 POP POP POP JUMP JUMPDEST PUSH1 0x0 PUSH3 0x56D DUP3 PUSH3 0x6FE JUMP JUMPDEST SWAP2 POP PUSH3 0x57A DUP4 PUSH3 0x708 JUMP JUMPDEST SWAP3 POP PUSH3 0x5A9 PUSH32 0xFFFFFFFFFFFFFFFFFFFFFFFFFFFFFFFFFFFFFFFFFFFFFFFFFFFFFFFFFFFFFFFF DUP5 DUP5 PUSH3 0x5B1 JUMP JUMPDEST SWAP1 POP SWAP3 SWAP2 POP POP JUMP JUMPDEST PUSH1 0x0 DUP3 PUSH3 0x5C3 JUMPI PUSH1 0x1 SWAP1 POP PUSH3 0x696 JUMP JUMPDEST DUP2 PUSH3 0x5D3 JUMPI PUSH1 0x0 SWAP1 POP PUSH3 0x696 JUMP JUMPDEST DUP2 PUSH1 0x1 DUP2 EQ PUSH3 0x5EC JUMPI PUSH1 0x2 DUP2 EQ PUSH3 0x5F7 JUMPI PUSH3 0x62D JUMP JUMPDEST PUSH1 0x1 SWAP2 POP POP PUSH3 0x696 JUMP JUMPDEST PUSH1 0xFF DUP5 GT ISZERO PUSH3 0x60C JUMPI PUSH3 0x60B PUSH3 0x74B JUMP JUMPDEST JUMPDEST DUP4 PUSH1 0x2 EXP SWAP2 POP DUP5 DUP3 GT ISZERO PUSH3 0x626 JUMPI PUSH3 0x625 PUSH3 0x74B JUMP JUMPDEST JUMPDEST POP PUSH3 0x696 JUMP JUMPDEST POP PUSH1 0x20 DUP4 LT PUSH2 0x133 DUP4 LT AND PUSH1 0x4E DUP5 LT PUSH1 0xB DUP5 LT AND OR ISZERO PUSH3 0x667 JUMPI DUP3 DUP3 EXP SWAP1 POP DUP4 DUP2 GT ISZERO PUSH3 0x661 JUMPI PUSH3 0x660 PUSH3 0x74B JUMP JUMPDEST JUMPDEST PUSH3 0x696 JUMP JUMPDEST PUSH3 0x676 DUP5 DUP5 DUP5 PUSH1 0x1 PUSH3 0x505 JUMP JUMPDEST SWAP3 POP SWAP1 POP DUP2 DUP5 DIV DUP2 GT ISZERO PUSH3 0x690 JUMPI PUSH3 0x68F PUSH3 0x74B JUMP JUMPDEST JUMPDEST DUP2 DUP2 MUL SWAP1 POP JUMPDEST SWAP4 SWAP3 POP POP POP JUMP JUMPDEST PUSH1 0x0 PUSH3 0x6AA DUP3 PUSH3 0x6FE JUMP JUMPDEST SWAP2 POP PUSH3 0x6B7 DUP4 PUSH3 0x6FE JUMP JUMPDEST SWAP3 POP DUP2 PUSH32 0xFFFFFFFFFFFFFFFFFFFFFFFFFFFFFFFFFFFFFFFFFFFFFFFFFFFFFFFFFFFFFFFF DIV DUP4 GT DUP3 ISZERO ISZERO AND ISZERO PUSH3 0x6F3 JUMPI PUSH3 0x6F2 PUSH3 0x74B JUMP JUMPDEST JUMPDEST DUP3 DUP3 MUL SWAP1 POP SWAP3 SWAP2 POP POP JUMP JUMPDEST PUSH1 0x0 DUP2 SWAP1 POP SWAP2 SWAP1 POP JUMP JUMPDEST PUSH1 0x0 PUSH1 0xFF DUP3 AND SWAP1 POP SWAP2 SWAP1 POP JUMP JUMPDEST PUSH1 0x0 PUSH1 0x2 DUP3 DIV SWAP1 POP PUSH1 0x1 DUP3 AND DUP1 PUSH3 0x72E JUMPI PUSH1 0x7F DUP3 AND SWAP2 POP JUMPDEST PUSH1 0x20 DUP3 LT DUP2 EQ ISZERO PUSH3 0x745 JUMPI PUSH3 0x744 PUSH3 0x77A JUMP JUMPDEST JUMPDEST POP SWAP2 SWAP1 POP JUMP JUMPDEST PUSH32 0x4E487B7100000000000000000000000000000000000000000000000000000000 PUSH1 0x0 MSTORE PUSH1 0x11 PUSH1 0x4 MSTORE PUSH1 0x24 PUSH1 0x0 REVERT JUMPDEST PUSH32 0x4E487B7100000000000000000000000000000000000000000000000000000000 PUSH1 0x0 MSTORE PUSH1 0x22 PUSH1 0x4 MSTORE PUSH1 0x24 PUSH1 0x0 REVERT JUMPDEST PUSH1 0x0 DUP2 PUSH1 0x1 SHR SWAP1 POP SWAP2 SWAP1 POP JUMP JUMPDEST PUSH32 0x45524332303A206D696E7420746F20746865207A65726F206164647265737300 PUSH1 0x0 DUP3 ADD MSTORE POP JUMP JUMPDEST PUSH2 0x2DAC DUP1 PUSH3 0x7EF PUSH1 0x0 CODECOPY PUSH1 0x0 RETURN INVALID PUSH1 0x80 PUSH1 0x40 MSTORE PUSH1 0x4 CALLDATASIZE LT PUSH2 0x1CD JUMPI PUSH1 0x0 CALLDATALOAD PUSH1 0xE0 SHR DUP1 PUSH4 0x715018A6 GT PUSH2 0xF7 JUMPI DUP1 PUSH4 0xB2BDFA7B GT PUSH2 0x95 JUMPI DUP1 PUSH4 0xDD62ED3E GT PUSH2 0x64 JUMPI DUP1 PUSH4 0xDD62ED3E EQ PUSH2 0x67F JUMPI DUP1 PUSH4 0xE5C42FD1 EQ PUSH2 0x6BC JUMPI DUP1 PUSH4 0xEF037B90 EQ PUSH2 0x6E5 JUMPI DUP1 PUSH4 0xF2FDE38B EQ PUSH2 0x723 JUMPI PUSH2 0x1CD JUMP JUMPDEST DUP1 PUSH4 0xB2BDFA7B EQ PUSH2 0x5D7 JUMPI DUP1 PUSH4 0xBCB0C2D7 EQ PUSH2 0x602 JUMPI DUP1 PUSH4 0xC885BC58 EQ PUSH2 0x62B JUMPI DUP1 PUSH4 0xD82E3962 EQ PUSH2 0x642 JUMPI PUSH2 0x1CD JUMP JUMPDEST DUP1 PUSH4 0x939624AB GT PUSH2 0xD1 JUMPI DUP1 PUSH4 0x939624AB EQ PUSH2 0x509 JUMPI DUP1 PUSH4 0x95D89B41 EQ PUSH2 0x532 JUMPI DUP1 PUSH4 0xA457C2D7 EQ PUSH2 0x55D JUMPI DUP1 PUSH4 0xA9059CBB EQ PUSH2 0x59A JUMPI PUSH2 0x1CD JUMP JUMPDEST DUP1 PUSH4 0x715018A6 EQ PUSH2 0x4AB JUMPI DUP1 PUSH4 0x7E72FB52 EQ PUSH2 0x4C2 JUMPI DUP1 PUSH4 0x8DA5CB5B EQ PUSH2 0x4DE JUMPI PUSH2 0x1CD JUMP JUMPDEST DUP1 PUSH4 0x23B872DD GT PUSH2 0x16F JUMPI DUP1 PUSH4 0x42623360 GT PUSH2 0x13E JUMPI DUP1 PUSH4 0x42623360 EQ PUSH2 0x3F1 JUMPI DUP1 PUSH4 0x4BE21E33 EQ PUSH2 0x42E JUMPI DUP1 PUSH4 0x6F4A2CD0 EQ PUSH2 0x457 JUMPI DUP1 PUSH4 0x70A08231 EQ PUSH2 0x46E JUMPI PUSH2 0x1CD JUMP JUMPDEST DUP1 PUSH4 0x23B872DD EQ PUSH2 0x321 JUMPI DUP1 PUSH4 0x313CE567 EQ PUSH2 0x35E JUMPI DUP1 PUSH4 0x35789C8B EQ PUSH2 0x389 JUMPI DUP1 PUSH4 0x39509351 EQ PUSH2 0x3B4 JUMPI PUSH2 0x1CD JUMP JUMPDEST DUP1 PUSH4 0xE15561A GT PUSH2 0x1AB JUMPI DUP1 PUSH4 0xE15561A EQ PUSH2 0x265 JUMPI DUP1 PUSH4 0x18160DDD EQ PUSH2 0x290 JUMPI DUP1 PUSH4 0x1BF6DDAE EQ PUSH2 0x2BB JUMPI DUP1 PUSH4 0x1D62EBD9 EQ PUSH2 0x2E4 JUMPI PUSH2 0x1CD JUMP JUMPDEST DUP1 PUSH4 0x46E2EDB EQ PUSH2 0x1D2 JUMPI DUP1 PUSH4 0x6FDDE03 EQ PUSH2 0x1FD JUMPI DUP1 PUSH4 0x95EA7B3 EQ PUSH2 0x228 JUMPI JUMPDEST PUSH1 0x0 DUP1 REVERT JUMPDEST CALLVALUE DUP1 ISZERO PUSH2 0x1DE JUMPI PUSH1 0x0 DUP1 REVERT JUMPDEST POP PUSH2 0x1E7 PUSH2 0x74C JUMP JUMPDEST PUSH1 0x40 MLOAD PUSH2 0x1F4 SWAP2 SWAP1 PUSH2 0x24C8 JUMP JUMPDEST PUSH1 0x40 MLOAD DUP1 SWAP2 SUB SWAP1 RETURN JUMPDEST CALLVALUE DUP1 ISZERO PUSH2 0x209 JUMPI PUSH1 0x0 DUP1 REVERT JUMPDEST POP PUSH2 0x212 PUSH2 0x752 JUMP JUMPDEST PUSH1 0x40 MLOAD PUSH2 0x21F SWAP2 SWAP1 PUSH2 0x22E6 JUMP JUMPDEST PUSH1 0x40 MLOAD DUP1 SWAP2 SUB SWAP1 RETURN JUMPDEST CALLVALUE DUP1 ISZERO PUSH2 0x234 JUMPI PUSH1 0x0 DUP1 REVERT JUMPDEST POP PUSH2 0x24F PUSH1 0x4 DUP1 CALLDATASIZE SUB DUP2 ADD SWAP1 PUSH2 0x24A SWAP2 SWAP1 PUSH2 0x1FBB JUMP JUMPDEST PUSH2 0x7E4 JUMP JUMPDEST PUSH1 0x40 MLOAD PUSH2 0x25C SWAP2 SWAP1 PUSH2 0x22A2 JUMP JUMPDEST PUSH1 0x40 MLOAD DUP1 SWAP2 SUB SWAP1 RETURN JUMPDEST CALLVALUE DUP1 ISZERO PUSH2 0x271 JUMPI PUSH1 0x0 DUP1 REVERT JUMPDEST POP PUSH2 0x27A PUSH2 0x807 JUMP JUMPDEST PUSH1 0x40 MLOAD PUSH2 0x287 SWAP2 SWAP1 PUSH2 0x24C8 JUMP JUMPDEST PUSH1 0x40 MLOAD DUP1 SWAP2 SUB SWAP1 RETURN JUMPDEST CALLVALUE DUP1 ISZERO PUSH2 0x29C JUMPI PUSH1 0x0 DUP1 REVERT JUMPDEST POP PUSH2 0x2A5 PUSH2 0x8C5 JUMP JUMPDEST PUSH1 0x40 MLOAD PUSH2 0x2B2 SWAP2 SWAP1 PUSH2 0x24C8 JUMP JUMPDEST PUSH1 0x40 MLOAD DUP1 SWAP2 SUB SWAP1 RETURN JUMPDEST CALLVALUE DUP1 ISZERO PUSH2 0x2C7 JUMPI PUSH1 0x0 DUP1 REVERT JUMPDEST POP PUSH2 0x2E2 PUSH1 0x4 DUP1 CALLDATASIZE SUB DUP2 ADD SWAP1 PUSH2 0x2DD SWAP2 SWAP1 PUSH2 0x1FFB JUMP JUMPDEST PUSH2 0x8CF JUMP JUMPDEST STOP JUMPDEST CALLVALUE DUP1 ISZERO PUSH2 0x2F0 JUMPI PUSH1 0x0 DUP1 REVERT JUMPDEST POP PUSH2 0x30B PUSH1 0x4 DUP1 CALLDATASIZE SUB DUP2 ADD SWAP1 PUSH2 0x306 SWAP2 SWAP1 PUSH2 0x1EFB JUMP JUMPDEST PUSH2 0x9D1 JUMP JUMPDEST PUSH1 0x40 MLOAD PUSH2 0x318 SWAP2 SWAP1 PUSH2 0x24C8 JUMP JUMPDEST PUSH1 0x40 MLOAD DUP1 SWAP2 SUB SWAP1 RETURN JUMPDEST CALLVALUE DUP1 ISZERO PUSH2 0x32D JUMPI PUSH1 0x0 DUP1 REVERT JUMPDEST POP PUSH2 0x348 PUSH1 0x4 DUP1 CALLDATASIZE SUB DUP2 ADD SWAP1 PUSH2 0x343 SWAP2 SWAP1 PUSH2 0x1F68 JUMP JUMPDEST PUSH2 0xA1A JUMP JUMPDEST PUSH1 0x40 MLOAD PUSH2 0x355 SWAP2 SWAP1 PUSH2 0x22A2 JUMP JUMPDEST PUSH1 0x40 MLOAD DUP1 SWAP2 SUB SWAP1 RETURN JUMPDEST CALLVALUE DUP1 ISZERO PUSH2 0x36A JUMPI PUSH1 0x0 DUP1 REVERT JUMPDEST POP PUSH2 0x373 PUSH2 0xA49 JUMP JUMPDEST PUSH1 0x40 MLOAD PUSH2 0x380 SWAP2 SWAP1 PUSH2 0x24E3 JUMP JUMPDEST PUSH1 0x40 MLOAD DUP1 SWAP2 SUB SWAP1 RETURN JUMPDEST CALLVALUE DUP1 ISZERO PUSH2 0x395 JUMPI PUSH1 0x0 DUP1 REVERT JUMPDEST POP PUSH2 0x39E PUSH2 0xA52 JUMP JUMPDEST PUSH1 0x40 MLOAD PUSH2 0x3AB SWAP2 SWAP1 PUSH2 0x24C8 JUMP JUMPDEST PUSH1 0x40 MLOAD DUP1 SWAP2 SUB SWAP1 RETURN JUMPDEST CALLVALUE DUP1 ISZERO PUSH2 0x3C0 JUMPI PUSH1 0x0 DUP1 REVERT JUMPDEST POP PUSH2 0x3DB PUSH1 0x4 DUP1 CALLDATASIZE SUB DUP2 ADD SWAP1 PUSH2 0x3D6 SWAP2 SWAP1 PUSH2 0x1FBB JUMP JUMPDEST PUSH2 0xA58 JUMP JUMPDEST PUSH1 0x40 MLOAD PUSH2 0x3E8 SWAP2 SWAP1 PUSH2 0x22A2 JUMP JUMPDEST PUSH1 0x40 MLOAD DUP1 SWAP2 SUB SWAP1 RETURN JUMPDEST CALLVALUE DUP1 ISZERO PUSH2 0x3FD JUMPI PUSH1 0x0 DUP1 REVERT JUMPDEST POP PUSH2 0x418 PUSH1 0x4 DUP1 CALLDATASIZE SUB DUP2 ADD SWAP1 PUSH2 0x413 SWAP2 SWAP1 PUSH2 0x1EFB JUMP JUMPDEST PUSH2 0xB02 JUMP JUMPDEST PUSH1 0x40 MLOAD PUSH2 0x425 SWAP2 SWAP1 PUSH2 0x24C8 JUMP JUMPDEST PUSH1 0x40 MLOAD DUP1 SWAP2 SUB SWAP1 RETURN JUMPDEST CALLVALUE DUP1 ISZERO PUSH2 0x43A JUMPI PUSH1 0x0 DUP1 REVERT JUMPDEST POP PUSH2 0x455 PUSH1 0x4 DUP1 CALLDATASIZE SUB DUP2 ADD SWAP1 PUSH2 0x450 SWAP2 SWAP1 PUSH2 0x1FFB JUMP JUMPDEST PUSH2 0xB4B JUMP JUMPDEST STOP JUMPDEST CALLVALUE DUP1 ISZERO PUSH2 0x463 JUMPI PUSH1 0x0 DUP1 REVERT JUMPDEST POP PUSH2 0x46C PUSH2 0xBE5 JUMP JUMPDEST STOP JUMPDEST CALLVALUE DUP1 ISZERO PUSH2 0x47A JUMPI PUSH1 0x0 DUP1 REVERT JUMPDEST POP PUSH2 0x495 PUSH1 0x4 DUP1 CALLDATASIZE SUB DUP2 ADD SWAP1 PUSH2 0x490 SWAP2 SWAP1 PUSH2 0x1EFB JUMP JUMPDEST PUSH2 0xCEC JUMP JUMPDEST PUSH1 0x40 MLOAD PUSH2 0x4A2 SWAP2 SWAP1 PUSH2 0x24C8 JUMP JUMPDEST PUSH1 0x40 MLOAD DUP1 SWAP2 SUB SWAP1 RETURN JUMPDEST CALLVALUE DUP1 ISZERO PUSH2 0x4B7 JUMPI PUSH1 0x0 DUP1 REVERT JUMPDEST POP PUSH2 0x4C0 PUSH2 0xD34 JUMP JUMPDEST STOP JUMPDEST PUSH2 0x4DC PUSH1 0x4 DUP1 CALLDATASIZE SUB DUP2 ADD SWAP1 PUSH2 0x4D7 SWAP2 SWAP1 PUSH2 0x1EFB JUMP JUMPDEST PUSH2 0xDBC JUMP JUMPDEST STOP JUMPDEST CALLVALUE DUP1 ISZERO PUSH2 0x4EA JUMPI PUSH1 0x0 DUP1 REVERT JUMPDEST POP PUSH2 0x4F3 PUSH2 0xE21 JUMP JUMPDEST PUSH1 0x40 MLOAD PUSH2 0x500 SWAP2 SWAP1 PUSH2 0x2287 JUMP JUMPDEST PUSH1 0x40 MLOAD DUP1 SWAP2 SUB SWAP1 RETURN JUMPDEST CALLVALUE DUP1 ISZERO PUSH2 0x515 JUMPI PUSH1 0x0 DUP1 REVERT JUMPDEST POP PUSH2 0x530 PUSH1 0x4 DUP1 CALLDATASIZE SUB DUP2 ADD SWAP1 PUSH2 0x52B SWAP2 SWAP1 PUSH2 0x1FFB JUMP JUMPDEST PUSH2 0xE4B JUMP JUMPDEST STOP JUMPDEST CALLVALUE DUP1 ISZERO PUSH2 0x53E JUMPI PUSH1 0x0 DUP1 REVERT JUMPDEST POP PUSH2 0x547 PUSH2 0xF38 JUMP JUMPDEST PUSH1 0x40 MLOAD PUSH2 0x554 SWAP2 SWAP1 PUSH2 0x22E6 JUMP JUMPDEST PUSH1 0x40 MLOAD DUP1 SWAP2 SUB SWAP1 RETURN JUMPDEST CALLVALUE DUP1 ISZERO PUSH2 0x569 JUMPI PUSH1 0x0 DUP1 REVERT JUMPDEST POP PUSH2 0x584 PUSH1 0x4 DUP1 CALLDATASIZE SUB DUP2 ADD SWAP1 PUSH2 0x57F SWAP2 SWAP1 PUSH2 0x1FBB JUMP JUMPDEST PUSH2 0xFCA JUMP JUMPDEST PUSH1 0x40 MLOAD PUSH2 0x591 SWAP2 SWAP1 PUSH2 0x22A2 JUMP JUMPDEST PUSH1 0x40 MLOAD DUP1 SWAP2 SUB SWAP1 RETURN JUMPDEST CALLVALUE DUP1 ISZERO PUSH2 0x5A6 JUMPI PUSH1 0x0 DUP1 REVERT JUMPDEST POP PUSH2 0x5C1 PUSH1 0x4 DUP1 CALLDATASIZE SUB DUP2 ADD SWAP1 PUSH2 0x5BC SWAP2 SWAP1 PUSH2 0x1FBB JUMP JUMPDEST PUSH2 0x10B4 JUMP JUMPDEST PUSH1 0x40 MLOAD PUSH2 0x5CE SWAP2 SWAP1 PUSH2 0x22A2 JUMP JUMPDEST PUSH1 0x40 MLOAD DUP1 SWAP2 SUB SWAP1 RETURN JUMPDEST CALLVALUE DUP1 ISZERO PUSH2 0x5E3 JUMPI PUSH1 0x0 DUP1 REVERT JUMPDEST POP PUSH2 0x5EC PUSH2 0x10D7 JUMP JUMPDEST PUSH1 0x40 MLOAD PUSH2 0x5F9 SWAP2 SWAP1 PUSH2 0x2287 JUMP JUMPDEST PUSH1 0x40 MLOAD DUP1 SWAP2 SUB SWAP1 RETURN JUMPDEST CALLVALUE DUP1 ISZERO PUSH2 0x60E JUMPI PUSH1 0x0 DUP1 REVERT JUMPDEST POP PUSH2 0x629 PUSH1 0x4 DUP1 CALLDATASIZE SUB DUP2 ADD SWAP1 PUSH2 0x624 SWAP2 SWAP1 PUSH2 0x1EFB JUMP JUMPDEST PUSH2 0x10FD JUMP JUMPDEST STOP JUMPDEST CALLVALUE DUP1 ISZERO PUSH2 0x637 JUMPI PUSH1 0x0 DUP1 REVERT JUMPDEST POP PUSH2 0x640 PUSH2 0x120C JUMP JUMPDEST STOP JUMPDEST CALLVALUE DUP1 ISZERO PUSH2 0x64E JUMPI PUSH1 0x0 DUP1 REVERT JUMPDEST POP PUSH2 0x669 PUSH1 0x4 DUP1 CALLDATASIZE SUB DUP2 ADD SWAP1 PUSH2 0x664 SWAP2 SWAP1 PUSH2 0x1EFB JUMP JUMPDEST PUSH2 0x12E7 JUMP JUMPDEST PUSH1 0x40 MLOAD PUSH2 0x676 SWAP2 SWAP1 PUSH2 0x24C8 JUMP JUMPDEST PUSH1 0x40 MLOAD DUP1 SWAP2 SUB SWAP1 RETURN JUMPDEST CALLVALUE DUP1 ISZERO PUSH2 0x68B JUMPI PUSH1 0x0 DUP1 REVERT JUMPDEST POP PUSH2 0x6A6 PUSH1 0x4 DUP1 CALLDATASIZE SUB DUP2 ADD SWAP1 PUSH2 0x6A1 SWAP2 SWAP1 PUSH2 0x1F28 JUMP JUMPDEST PUSH2 0x133C JUMP JUMPDEST PUSH1 0x40 MLOAD PUSH2 0x6B3 SWAP2 SWAP1 PUSH2 0x24C8 JUMP JUMPDEST PUSH1 0x40 MLOAD DUP1 SWAP2 SUB SWAP1 RETURN JUMPDEST CALLVALUE DUP1 ISZERO PUSH2 0x6C8 JUMPI PUSH1 0x0 DUP1 REVERT JUMPDEST POP PUSH2 0x6E3 PUSH1 0x4 DUP1 CALLDATASIZE SUB DUP2 ADD SWAP1 PUSH2 0x6DE SWAP2 SWAP1 PUSH2 0x1EFB JUMP JUMPDEST PUSH2 0x13C3 JUMP JUMPDEST STOP JUMPDEST CALLVALUE DUP1 ISZERO PUSH2 0x6F1 JUMPI PUSH1 0x0 DUP1 REVERT JUMPDEST POP PUSH2 0x70C PUSH1 0x4 DUP1 CALLDATASIZE SUB DUP2 ADD SWAP1 PUSH2 0x707 SWAP2 SWAP1 PUSH2 0x1EFB JUMP JUMPDEST PUSH2 0x143E JUMP JUMPDEST PUSH1 0x40 MLOAD PUSH2 0x71A SWAP3 SWAP2 SWAP1 PUSH2 0x22BD JUMP JUMPDEST PUSH1 0x40 MLOAD DUP1 SWAP2 SUB SWAP1 RETURN JUMPDEST CALLVALUE DUP1 ISZERO PUSH2 0x72F JUMPI PUSH1 0x0 DUP1 REVERT JUMPDEST POP PUSH2 0x74A PUSH1 0x4 DUP1 CALLDATASIZE SUB DUP2 ADD SWAP1 PUSH2 0x745 SWAP2 SWAP1 PUSH2 0x1EFB JUMP JUMPDEST PUSH2 0x14F2 JUMP JUMPDEST STOP JUMPDEST PUSH1 0x8 SLOAD DUP2 JUMP JUMPDEST PUSH1 0x60 PUSH1 0x3 DUP1 SLOAD PUSH2 0x761 SWAP1 PUSH2 0x2828 JUMP JUMPDEST DUP1 PUSH1 0x1F ADD PUSH1 0x20 DUP1 SWAP2 DIV MUL PUSH1 0x20 ADD PUSH1 0x40 MLOAD SWAP1 DUP2 ADD PUSH1 0x40 MSTORE DUP1 SWAP3 SWAP2 SWAP1 DUP2 DUP2 MSTORE PUSH1 0x20 ADD DUP3 DUP1 SLOAD PUSH2 0x78D SWAP1 PUSH2 0x2828 JUMP JUMPDEST DUP1 ISZERO PUSH2 0x7DA JUMPI DUP1 PUSH1 0x1F LT PUSH2 0x7AF JUMPI PUSH2 0x100 DUP1 DUP4 SLOAD DIV MUL DUP4 MSTORE SWAP2 PUSH1 0x20 ADD SWAP2 PUSH2 0x7DA JUMP JUMPDEST DUP3 ADD SWAP2 SWAP1 PUSH1 0x0 MSTORE PUSH1 0x20 PUSH1 0x0 KECCAK256 SWAP1 JUMPDEST DUP2 SLOAD DUP2 MSTORE SWAP1 PUSH1 0x1 ADD SWAP1 PUSH1 0x20 ADD DUP1 DUP4 GT PUSH2 0x7BD JUMPI DUP3 SWAP1 SUB PUSH1 0x1F AND DUP3 ADD SWAP2 JUMPDEST POP POP POP POP POP SWAP1 POP SWAP1 JUMP JUMPDEST PUSH1 0x0 DUP1 PUSH2 0x7EF PUSH2 0x15EA JUMP JUMPDEST SWAP1 POP PUSH2 0x7FC DUP2 DUP6 DUP6 PUSH2 0x15F2 JUMP JUMPDEST PUSH1 0x1 SWAP2 POP POP SWAP3 SWAP2 POP POP JUMP JUMPDEST PUSH1 0x0 DUP1 PUSH1 0x0 SWAP1 POP PUSH1 0x0 JUMPDEST PUSH1 0xA DUP1 SLOAD SWAP1 POP DUP2 LT ISZERO PUSH2 0x8BD JUMPI PUSH1 0xB PUSH1 0x0 PUSH1 0xA DUP4 DUP2 SLOAD DUP2 LT PUSH2 0x836 JUMPI PUSH2 0x835 PUSH2 0x2916 JUMP JUMPDEST JUMPDEST SWAP1 PUSH1 0x0 MSTORE PUSH1 0x20 PUSH1 0x0 KECCAK256 ADD PUSH1 0x0 SWAP1 SLOAD SWAP1 PUSH2 0x100 EXP SWAP1 DIV PUSH20 0xFFFFFFFFFFFFFFFFFFFFFFFFFFFFFFFFFFFFFFFF AND PUSH20 0xFFFFFFFFFFFFFFFFFFFFFFFFFFFFFFFFFFFFFFFF AND PUSH20 0xFFFFFFFFFFFFFFFFFFFFFFFFFFFFFFFFFFFFFFFF AND DUP2 MSTORE PUSH1 0x20 ADD SWAP1 DUP2 MSTORE PUSH1 0x20 ADD PUSH1 0x0 KECCAK256 SLOAD DUP3 PUSH2 0x8A7 SWAP2 SWAP1 PUSH2 0x251A JUMP JUMPDEST SWAP2 POP PUSH1 0x1 DUP2 PUSH2 0x8B6 SWAP2 SWAP1 PUSH2 0x251A JUMP JUMPDEST SWAP1 POP PUSH2 0x811 JUMP JUMPDEST POP DUP1 SWAP2 POP POP SWAP1 JUMP JUMPDEST PUSH1 0x0 PUSH1 0x2 SLOAD SWAP1 POP SWAP1 JUMP JUMPDEST PUSH2 0x8D9 CALLER DUP3 PUSH2 0x17BD JUMP JUMPDEST PUSH1 0x0 PUSH1 0x9 PUSH1 0x0 CALLER PUSH20 0xFFFFFFFFFFFFFFFFFFFFFFFFFFFFFFFFFFFFFFFF AND PUSH20 0xFFFFFFFFFFFFFFFFFFFFFFFFFFFFFFFFFFFFFFFF AND DUP2 MSTORE PUSH1 0x20 ADD SWAP1 DUP2 MSTORE PUSH1 0x20 ADD PUSH1 0x0 KECCAK256 SLOAD EQ ISZERO PUSH2 0x92B JUMPI PUSH2 0x92A CALLER PUSH2 0x13C3 JUMP JUMPDEST JUMPDEST DUP1 PUSH1 0x9 PUSH1 0x0 CALLER PUSH20 0xFFFFFFFFFFFFFFFFFFFFFFFFFFFFFFFFFFFFFFFF AND PUSH20 0xFFFFFFFFFFFFFFFFFFFFFFFFFFFFFFFFFFFFFFFF AND DUP2 MSTORE PUSH1 0x20 ADD SWAP1 DUP2 MSTORE PUSH1 0x20 ADD PUSH1 0x0 KECCAK256 SLOAD PUSH2 0x976 SWAP2 SWAP1 PUSH2 0x251A JUMP JUMPDEST PUSH1 0x9 PUSH1 0x0 CALLER PUSH20 0xFFFFFFFFFFFFFFFFFFFFFFFFFFFFFFFFFFFFFFFF AND PUSH20 0xFFFFFFFFFFFFFFFFFFFFFFFFFFFFFFFFFFFFFFFF AND DUP2 MSTORE PUSH1 0x20 ADD SWAP1 DUP2 MSTORE PUSH1 0x20 ADD PUSH1 0x0 KECCAK256 DUP2 SWAP1 SSTORE POP PUSH3 0x93A80 TIMESTAMP PUSH2 0x9C8 SWAP2 SWAP1 PUSH2 0x251A JUMP JUMPDEST PUSH1 0xC DUP2 SWAP1 SSTORE POP POP JUMP JUMPDEST PUSH1 0x0 PUSH1 0xB PUSH1 0x0 DUP4 PUSH20 0xFFFFFFFFFFFFFFFFFFFFFFFFFFFFFFFFFFFFFFFF AND PUSH20 0xFFFFFFFFFFFFFFFFFFFFFFFFFFFFFFFFFFFFFFFF AND DUP2 MSTORE PUSH1 0x20 ADD SWAP1 DUP2 MSTORE PUSH1 0x20 ADD PUSH1 0x0 KECCAK256 SLOAD SWAP1 POP SWAP2 SWAP1 POP JUMP JUMPDEST PUSH1 0x0 DUP1 PUSH2 0xA25 PUSH2 0x15EA JUMP JUMPDEST SWAP1 POP PUSH2 0xA32 DUP6 DUP3 DUP6 PUSH2 0x1994 JUMP JUMPDEST PUSH2 0xA3D DUP6 DUP6 DUP6 PUSH2 0x1A20 JUMP JUMPDEST PUSH1 0x1 SWAP2 POP POP SWAP4 SWAP3 POP POP POP JUMP JUMPDEST PUSH1 0x0 PUSH1 0x12 SWAP1 POP SWAP1 JUMP JUMPDEST PUSH1 0x7 SLOAD DUP2 JUMP JUMPDEST PUSH1 0x0 DUP1 PUSH2 0xA63 PUSH2 0x15EA JUMP JUMPDEST SWAP1 POP PUSH2 0xAF7 DUP2 DUP6 DUP6 PUSH1 0x1 PUSH1 0x0 DUP7 PUSH20 0xFFFFFFFFFFFFFFFFFFFFFFFFFFFFFFFFFFFFFFFF AND PUSH20 0xFFFFFFFFFFFFFFFFFFFFFFFFFFFFFFFFFFFFFFFF AND DUP2 MSTORE PUSH1 0x20 ADD SWAP1 DUP2 MSTORE PUSH1 0x20 ADD PUSH1 0x0 KECCAK256 PUSH1 0x0 DUP10 PUSH20 0xFFFFFFFFFFFFFFFFFFFFFFFFFFFFFFFFFFFFFFFF AND PUSH20 0xFFFFFFFFFFFFFFFFFFFFFFFFFFFFFFFFFFFFFFFF AND DUP2 MSTORE PUSH1 0x20 ADD SWAP1 DUP2 MSTORE PUSH1 0x20 ADD PUSH1 0x0 KECCAK256 SLOAD PUSH2 0xAF2 SWAP2 SWAP1 PUSH2 0x251A JUMP JUMPDEST PUSH2 0x15F2 JUMP JUMPDEST PUSH1 0x1 SWAP2 POP POP SWAP3 SWAP2 POP POP JUMP JUMPDEST PUSH1 0x0 PUSH1 0x9 PUSH1 0x0 DUP4 PUSH20 0xFFFFFFFFFFFFFFFFFFFFFFFFFFFFFFFFFFFFFFFF AND PUSH20 0xFFFFFFFFFFFFFFFFFFFFFFFFFFFFFFFFFFFFFFFF AND DUP2 MSTORE PUSH1 0x20 ADD SWAP1 DUP2 MSTORE PUSH1 0x20 ADD PUSH1 0x0 KECCAK256 SLOAD SWAP1 POP SWAP2 SWAP1 POP JUMP JUMPDEST PUSH1 0x6 PUSH1 0x0 SWAP1 SLOAD SWAP1 PUSH2 0x100 EXP SWAP1 DIV PUSH20 0xFFFFFFFFFFFFFFFFFFFFFFFFFFFFFFFFFFFFFFFF AND PUSH20 0xFFFFFFFFFFFFFFFFFFFFFFFFFFFFFFFFFFFFFFFF AND CALLER PUSH20 0xFFFFFFFFFFFFFFFFFFFFFFFFFFFFFFFFFFFFFFFF AND EQ PUSH2 0xBDB JUMPI PUSH1 0x40 MLOAD PUSH32 0x8C379A000000000000000000000000000000000000000000000000000000000 DUP2 MSTORE PUSH1 0x4 ADD PUSH2 0xBD2 SWAP1 PUSH2 0x2308 JUMP JUMPDEST PUSH1 0x40 MLOAD DUP1 SWAP2 SUB SWAP1 REVERT JUMPDEST DUP1 PUSH1 0x7 DUP2 SWAP1 SSTORE POP POP JUMP JUMPDEST PUSH1 0x0 JUMPDEST PUSH1 0xA DUP1 SLOAD SWAP1 POP DUP2 LT ISZERO PUSH2 0xCE9 JUMPI PUSH1 0x0 PUSH1 0xA DUP3 DUP2 SLOAD DUP2 LT PUSH2 0xC0B JUMPI PUSH2 0xC0A PUSH2 0x2916 JUMP JUMPDEST JUMPDEST SWAP1 PUSH1 0x0 MSTORE PUSH1 0x20 PUSH1 0x0 KECCAK256 ADD PUSH1 0x0 SWAP1 SLOAD SWAP1 PUSH2 0x100 EXP SWAP1 DIV PUSH20 0xFFFFFFFFFFFFFFFFFFFFFFFFFFFFFFFFFFFFFFFF AND SWAP1 POP PUSH1 0x0 PUSH2 0xC43 DUP3 PUSH2 0x12E7 JUMP JUMPDEST SWAP1 POP DUP1 PUSH1 0xB PUSH1 0x0 DUP5 PUSH20 0xFFFFFFFFFFFFFFFFFFFFFFFFFFFFFFFFFFFFFFFF AND PUSH20 0xFFFFFFFFFFFFFFFFFFFFFFFFFFFFFFFFFFFFFFFF AND DUP2 MSTORE PUSH1 0x20 ADD SWAP1 DUP2 MSTORE PUSH1 0x20 ADD PUSH1 0x0 KECCAK256 SLOAD PUSH2 0xC90 SWAP2 SWAP1 PUSH2 0x251A JUMP JUMPDEST PUSH1 0xB PUSH1 0x0 DUP5 PUSH20 0xFFFFFFFFFFFFFFFFFFFFFFFFFFFFFFFFFFFFFFFF AND PUSH20 0xFFFFFFFFFFFFFFFFFFFFFFFFFFFFFFFFFFFFFFFF AND DUP2 MSTORE PUSH1 0x20 ADD SWAP1 DUP2 MSTORE PUSH1 0x20 ADD PUSH1 0x0 KECCAK256 DUP2 SWAP1 SSTORE POP POP POP PUSH1 0x1 DUP2 PUSH2 0xCE2 SWAP2 SWAP1 PUSH2 0x251A JUMP JUMPDEST SWAP1 POP PUSH2 0xBE8 JUMP JUMPDEST POP JUMP JUMPDEST PUSH1 0x0 DUP1 PUSH1 0x0 DUP4 PUSH20 0xFFFFFFFFFFFFFFFFFFFFFFFFFFFFFFFFFFFFFFFF AND PUSH20 0xFFFFFFFFFFFFFFFFFFFFFFFFFFFFFFFFFFFFFFFF AND DUP2 MSTORE PUSH1 0x20 ADD SWAP1 DUP2 MSTORE PUSH1 0x20 ADD PUSH1 0x0 KECCAK256 SLOAD SWAP1 POP SWAP2 SWAP1 POP JUMP JUMPDEST PUSH2 0xD3C PUSH2 0x15EA JUMP JUMPDEST PUSH20 0xFFFFFFFFFFFFFFFFFFFFFFFFFFFFFFFFFFFFFFFF AND PUSH2 0xD5A PUSH2 0xE21 JUMP JUMPDEST PUSH20 0xFFFFFFFFFFFFFFFFFFFFFFFFFFFFFFFFFFFFFFFF AND EQ PUSH2 0xDB0 JUMPI PUSH1 0x40 MLOAD PUSH32 0x8C379A000000000000000000000000000000000000000000000000000000000 DUP2 MSTORE PUSH1 0x4 ADD PUSH2 0xDA7 SWAP1 PUSH2 0x2408 JUMP JUMPDEST PUSH1 0x40 MLOAD DUP1 SWAP2 SUB SWAP1 REVERT JUMPDEST PUSH2 0xDBA PUSH1 0x0 PUSH2 0x1CA1 JUMP JUMPDEST JUMP JUMPDEST PUSH2 0xDC4 PUSH2 0xA49 JUMP JUMPDEST PUSH1 0xA PUSH2 0xDD0 SWAP2 SWAP1 PUSH2 0x25F4 JUMP JUMPDEST PUSH1 0x7 SLOAD PUSH2 0xDDD SWAP2 SWAP1 PUSH2 0x2712 JUMP JUMPDEST PUSH1 0x8 DUP2 SWAP1 SSTORE POP PUSH1 0x0 PUSH2 0xDED PUSH2 0xA49 JUMP JUMPDEST PUSH1 0xA PUSH2 0xDF9 SWAP2 SWAP1 PUSH2 0x25F4 JUMP JUMPDEST PUSH1 0x8 SLOAD CALLVALUE PUSH2 0xE07 SWAP2 SWAP1 PUSH2 0x2712 JUMP JUMPDEST PUSH2 0xE11 SWAP2 SWAP1 PUSH2 0x2570 JUMP JUMPDEST SWAP1 POP PUSH2 0xE1D DUP3 DUP3 PUSH2 0x1D67 JUMP JUMPDEST POP POP JUMP JUMPDEST PUSH1 0x0 PUSH1 0x5 PUSH1 0x0 SWAP1 SLOAD SWAP1 PUSH2 0x100 EXP SWAP1 DIV PUSH20 0xFFFFFFFFFFFFFFFFFFFFFFFFFFFFFFFFFFFFFFFF AND SWAP1 POP SWAP1 JUMP JUMPDEST DUP1 PUSH1 0x9 PUSH1 0x0 CALLER PUSH20 0xFFFFFFFFFFFFFFFFFFFFFFFFFFFFFFFFFFFFFFFF AND PUSH20 0xFFFFFFFFFFFFFFFFFFFFFFFFFFFFFFFFFFFFFFFF AND DUP2 MSTORE PUSH1 0x20 ADD SWAP1 DUP2 MSTORE PUSH1 0x20 ADD PUSH1 0x0 KECCAK256 SLOAD PUSH2 0xE96 SWAP2 SWAP1 PUSH2 0x276C JUMP JUMPDEST PUSH1 0x9 PUSH1 0x0 CALLER PUSH20 0xFFFFFFFFFFFFFFFFFFFFFFFFFFFFFFFFFFFFFFFF AND PUSH20 0xFFFFFFFFFFFFFFFFFFFFFFFFFFFFFFFFFFFFFFFF AND DUP2 MSTORE PUSH1 0x20 ADD SWAP1 DUP2 MSTORE PUSH1 0x20 ADD PUSH1 0x0 KECCAK256 DUP2 SWAP1 SSTORE POP PUSH1 0x0 PUSH1 0x9 PUSH1 0x0 CALLER PUSH20 0xFFFFFFFFFFFFFFFFFFFFFFFFFFFFFFFFFFFFFFFF AND PUSH20 0xFFFFFFFFFFFFFFFFFFFFFFFFFFFFFFFFFFFFFFFF AND DUP2 MSTORE PUSH1 0x20 ADD SWAP1 DUP2 MSTORE PUSH1 0x20 ADD PUSH1 0x0 KECCAK256 SLOAD EQ ISZERO PUSH2 0xF2B JUMPI PUSH2 0xF2A CALLER PUSH2 0x10FD JUMP JUMPDEST JUMPDEST PUSH2 0xF35 CALLER DUP3 PUSH2 0x1D67 JUMP JUMPDEST POP JUMP JUMPDEST PUSH1 0x60 PUSH1 0x4 DUP1 SLOAD PUSH2 0xF47 SWAP1 PUSH2 0x2828 JUMP JUMPDEST DUP1 PUSH1 0x1F ADD PUSH1 0x20 DUP1 SWAP2 DIV MUL PUSH1 0x20 ADD PUSH1 0x40 MLOAD SWAP1 DUP2 ADD PUSH1 0x40 MSTORE DUP1 SWAP3 SWAP2 SWAP1 DUP2 DUP2 MSTORE PUSH1 0x20 ADD DUP3 DUP1 SLOAD PUSH2 0xF73 SWAP1 PUSH2 0x2828 JUMP JUMPDEST DUP1 ISZERO PUSH2 0xFC0 JUMPI DUP1 PUSH1 0x1F LT PUSH2 0xF95 JUMPI PUSH2 0x100 DUP1 DUP4 SLOAD DIV MUL DUP4 MSTORE SWAP2 PUSH1 0x20 ADD SWAP2 PUSH2 0xFC0 JUMP JUMPDEST DUP3 ADD SWAP2 SWAP1 PUSH1 0x0 MSTORE PUSH1 0x20 PUSH1 0x0 KECCAK256 SWAP1 JUMPDEST DUP2 SLOAD DUP2 MSTORE SWAP1 PUSH1 0x1 ADD SWAP1 PUSH1 0x20 ADD DUP1 DUP4 GT PUSH2 0xFA3 JUMPI DUP3 SWAP1 SUB PUSH1 0x1F AND DUP3 ADD SWAP2 JUMPDEST POP POP POP POP POP SWAP1 POP SWAP1 JUMP JUMPDEST PUSH1 0x0 DUP1 PUSH2 0xFD5 PUSH2 0x15EA JUMP JUMPDEST SWAP1 POP PUSH1 0x0 PUSH1 0x1 PUSH1 0x0 DUP4 PUSH20 0xFFFFFFFFFFFFFFFFFFFFFFFFFFFFFFFFFFFFFFFF AND PUSH20 0xFFFFFFFFFFFFFFFFFFFFFFFFFFFFFFFFFFFFFFFF AND DUP2 MSTORE PUSH1 0x20 ADD SWAP1 DUP2 MSTORE PUSH1 0x20 ADD PUSH1 0x0 KECCAK256 PUSH1 0x0 DUP7 PUSH20 0xFFFFFFFFFFFFFFFFFFFFFFFFFFFFFFFFFFFFFFFF AND PUSH20 0xFFFFFFFFFFFFFFFFFFFFFFFFFFFFFFFFFFFFFFFF AND DUP2 MSTORE PUSH1 0x20 ADD SWAP1 DUP2 MSTORE PUSH1 0x20 ADD PUSH1 0x0 KECCAK256 SLOAD SWAP1 POP DUP4 DUP2 LT ISZERO PUSH2 0x109B JUMPI PUSH1 0x40 MLOAD PUSH32 0x8C379A000000000000000000000000000000000000000000000000000000000 DUP2 MSTORE PUSH1 0x4 ADD PUSH2 0x1092 SWAP1 PUSH2 0x2488 JUMP JUMPDEST PUSH1 0x40 MLOAD DUP1 SWAP2 SUB SWAP1 REVERT JUMPDEST PUSH2 0x10A8 DUP3 DUP7 DUP7 DUP5 SUB PUSH2 0x15F2 JUMP JUMPDEST PUSH1 0x1 SWAP3 POP POP POP SWAP3 SWAP2 POP POP JUMP JUMPDEST PUSH1 0x0 DUP1 PUSH2 0x10BF PUSH2 0x15EA JUMP JUMPDEST SWAP1 POP PUSH2 0x10CC DUP2 DUP6 DUP6 PUSH2 0x1A20 JUMP JUMPDEST PUSH1 0x1 SWAP2 POP POP SWAP3 SWAP2 POP POP JUMP JUMPDEST PUSH1 0x6 PUSH1 0x0 SWAP1 SLOAD SWAP1 PUSH2 0x100 EXP SWAP1 DIV PUSH20 0xFFFFFFFFFFFFFFFFFFFFFFFFFFFFFFFFFFFFFFFF AND DUP2 JUMP JUMPDEST PUSH1 0x0 DUP1 PUSH2 0x1109 DUP4 PUSH2 0x143E JUMP JUMPDEST SWAP2 POP SWAP2 POP DUP2 ISZERO PUSH2 0x1207 JUMPI PUSH1 0xA PUSH1 0x1 PUSH1 0xA DUP1 SLOAD SWAP1 POP PUSH2 0x1127 SWAP2 SWAP1 PUSH2 0x276C JUMP JUMPDEST DUP2 SLOAD DUP2 LT PUSH2 0x1138 JUMPI PUSH2 0x1137 PUSH2 0x2916 JUMP JUMPDEST JUMPDEST SWAP1 PUSH1 0x0 MSTORE PUSH1 0x20 PUSH1 0x0 KECCAK256 ADD PUSH1 0x0 SWAP1 SLOAD SWAP1 PUSH2 0x100 EXP SWAP1 DIV PUSH20 0xFFFFFFFFFFFFFFFFFFFFFFFFFFFFFFFFFFFFFFFF AND PUSH1 0xA DUP3 DUP2 SLOAD DUP2 LT PUSH2 0x1177 JUMPI PUSH2 0x1176 PUSH2 0x2916 JUMP JUMPDEST JUMPDEST SWAP1 PUSH1 0x0 MSTORE PUSH1 0x20 PUSH1 0x0 KECCAK256 ADD PUSH1 0x0 PUSH2 0x100 EXP DUP2 SLOAD DUP2 PUSH20 0xFFFFFFFFFFFFFFFFFFFFFFFFFFFFFFFFFFFFFFFF MUL NOT AND SWAP1 DUP4 PUSH20 0xFFFFFFFFFFFFFFFFFFFFFFFFFFFFFFFFFFFFFFFF AND MUL OR SWAP1 SSTORE POP PUSH1 0xA DUP1 SLOAD DUP1 PUSH2 0x11D1 JUMPI PUSH2 0x11D0 PUSH2 0x28E7 JUMP JUMPDEST JUMPDEST PUSH1 0x1 SWAP1 SUB DUP2 DUP2 SWAP1 PUSH1 0x0 MSTORE PUSH1 0x20 PUSH1 0x0 KECCAK256 ADD PUSH1 0x0 PUSH2 0x100 EXP DUP2 SLOAD SWAP1 PUSH20 0xFFFFFFFFFFFFFFFFFFFFFFFFFFFFFFFFFFFFFFFF MUL NOT AND SWAP1 SSTORE SWAP1 SSTORE JUMPDEST POP POP POP JUMP JUMPDEST PUSH1 0xC SLOAD TIMESTAMP LT ISZERO PUSH2 0x1251 JUMPI PUSH1 0x40 MLOAD PUSH32 0x8C379A000000000000000000000000000000000000000000000000000000000 DUP2 MSTORE PUSH1 0x4 ADD PUSH2 0x1248 SWAP1 PUSH2 0x23A8 JUMP JUMPDEST PUSH1 0x40 MLOAD DUP1 SWAP2 SUB SWAP1 REVERT JUMPDEST PUSH1 0x0 PUSH1 0xB PUSH1 0x0 CALLER PUSH20 0xFFFFFFFFFFFFFFFFFFFFFFFFFFFFFFFFFFFFFFFF AND PUSH20 0xFFFFFFFFFFFFFFFFFFFFFFFFFFFFFFFFFFFFFFFF AND DUP2 MSTORE PUSH1 0x20 ADD SWAP1 DUP2 MSTORE PUSH1 0x20 ADD PUSH1 0x0 KECCAK256 SLOAD SWAP1 POP PUSH1 0x0 PUSH1 0xB PUSH1 0x0 CALLER PUSH20 0xFFFFFFFFFFFFFFFFFFFFFFFFFFFFFFFFFFFFFFFF AND PUSH20 0xFFFFFFFFFFFFFFFFFFFFFFFFFFFFFFFFFFFFFFFF AND DUP2 MSTORE PUSH1 0x20 ADD SWAP1 DUP2 MSTORE PUSH1 0x20 ADD PUSH1 0x0 KECCAK256 DUP2 SWAP1 SSTORE POP PUSH2 0x12E4 CALLER DUP3 PUSH2 0x1D67 JUMP JUMPDEST POP JUMP JUMPDEST PUSH1 0x0 PUSH1 0x64 PUSH1 0x9 PUSH1 0x0 DUP5 PUSH20 0xFFFFFFFFFFFFFFFFFFFFFFFFFFFFFFFFFFFFFFFF AND PUSH20 0xFFFFFFFFFFFFFFFFFFFFFFFFFFFFFFFFFFFFFFFF AND DUP2 MSTORE PUSH1 0x20 ADD SWAP1 DUP2 MSTORE PUSH1 0x20 ADD PUSH1 0x0 KECCAK256 SLOAD PUSH2 0x1335 SWAP2 SWAP1 PUSH2 0x2570 JUMP JUMPDEST SWAP1 POP SWAP2 SWAP1 POP JUMP JUMPDEST PUSH1 0x0 PUSH1 0x1 PUSH1 0x0 DUP5 PUSH20 0xFFFFFFFFFFFFFFFFFFFFFFFFFFFFFFFFFFFFFFFF AND PUSH20 0xFFFFFFFFFFFFFFFFFFFFFFFFFFFFFFFFFFFFFFFF AND DUP2 MSTORE PUSH1 0x20 ADD SWAP1 DUP2 MSTORE PUSH1 0x20 ADD PUSH1 0x0 KECCAK256 PUSH1 0x0 DUP4 PUSH20 0xFFFFFFFFFFFFFFFFFFFFFFFFFFFFFFFFFFFFFFFF AND PUSH20 0xFFFFFFFFFFFFFFFFFFFFFFFFFFFFFFFFFFFFFFFF AND DUP2 MSTORE PUSH1 0x20 ADD SWAP1 DUP2 MSTORE PUSH1 0x20 ADD PUSH1 0x0 KECCAK256 SLOAD SWAP1 POP SWAP3 SWAP2 POP POP JUMP JUMPDEST PUSH1 0x0 PUSH2 0x13CE DUP3 PUSH2 0x143E JUMP JUMPDEST POP SWAP1 POP DUP1 PUSH2 0x143A JUMPI PUSH1 0xA DUP3 SWAP1 DUP1 PUSH1 0x1 DUP2 SLOAD ADD DUP1 DUP3 SSTORE DUP1 SWAP2 POP POP PUSH1 0x1 SWAP1 SUB SWAP1 PUSH1 0x0 MSTORE PUSH1 0x20 PUSH1 0x0 KECCAK256 ADD PUSH1 0x0 SWAP1 SWAP2 SWAP1 SWAP2 SWAP1 SWAP2 PUSH2 0x100 EXP DUP2 SLOAD DUP2 PUSH20 0xFFFFFFFFFFFFFFFFFFFFFFFFFFFFFFFFFFFFFFFF MUL NOT AND SWAP1 DUP4 PUSH20 0xFFFFFFFFFFFFFFFFFFFFFFFFFFFFFFFFFFFFFFFF AND MUL OR SWAP1 SSTORE POP JUMPDEST POP POP JUMP JUMPDEST PUSH1 0x0 DUP1 PUSH1 0x0 JUMPDEST PUSH1 0xA DUP1 SLOAD SWAP1 POP DUP2 LT ISZERO PUSH2 0x14E4 JUMPI PUSH1 0xA DUP2 DUP2 SLOAD DUP2 LT PUSH2 0x1465 JUMPI PUSH2 0x1464 PUSH2 0x2916 JUMP JUMPDEST JUMPDEST SWAP1 PUSH1 0x0 MSTORE PUSH1 0x20 PUSH1 0x0 KECCAK256 ADD PUSH1 0x0 SWAP1 SLOAD SWAP1 PUSH2 0x100 EXP SWAP1 DIV PUSH20 0xFFFFFFFFFFFFFFFFFFFFFFFFFFFFFFFFFFFFFFFF AND PUSH20 0xFFFFFFFFFFFFFFFFFFFFFFFFFFFFFFFFFFFFFFFF AND DUP5 PUSH20 0xFFFFFFFFFFFFFFFFFFFFFFFFFFFFFFFFFFFFFFFF AND EQ ISZERO PUSH2 0x14D0 JUMPI PUSH1 0x1 DUP2 SWAP3 POP SWAP3 POP POP PUSH2 0x14ED JUMP JUMPDEST PUSH1 0x1 DUP2 PUSH2 0x14DD SWAP2 SWAP1 PUSH2 0x251A JUMP JUMPDEST SWAP1 POP PUSH2 0x1444 JUMP JUMPDEST POP PUSH1 0x0 DUP1 SWAP2 POP SWAP2 POP JUMPDEST SWAP2 POP SWAP2 JUMP JUMPDEST PUSH2 0x14FA PUSH2 0x15EA JUMP JUMPDEST PUSH20 0xFFFFFFFFFFFFFFFFFFFFFFFFFFFFFFFFFFFFFFFF AND PUSH2 0x1518 PUSH2 0xE21 JUMP JUMPDEST PUSH20 0xFFFFFFFFFFFFFFFFFFFFFFFFFFFFFFFFFFFFFFFF AND EQ PUSH2 0x156E JUMPI PUSH1 0x40 MLOAD PUSH32 0x8C379A000000000000000000000000000000000000000000000000000000000 DUP2 MSTORE PUSH1 0x4 ADD PUSH2 0x1565 SWAP1 PUSH2 0x2408 JUMP JUMPDEST PUSH1 0x40 MLOAD DUP1 SWAP2 SUB SWAP1 REVERT JUMPDEST PUSH1 0x0 PUSH20 0xFFFFFFFFFFFFFFFFFFFFFFFFFFFFFFFFFFFFFFFF AND DUP2 PUSH20 0xFFFFFFFFFFFFFFFFFFFFFFFFFFFFFFFFFFFFFFFF AND EQ ISZERO PUSH2 0x15DE JUMPI PUSH1 0x40 MLOAD PUSH32 0x8C379A000000000000000000000000000000000000000000000000000000000 DUP2 MSTORE PUSH1 0x4 ADD PUSH2 0x15D5 SWAP1 PUSH2 0x2368 JUMP JUMPDEST PUSH1 0x40 MLOAD DUP1 SWAP2 SUB SWAP1 REVERT JUMPDEST PUSH2 0x15E7 DUP2 PUSH2 0x1CA1 JUMP JUMPDEST POP JUMP JUMPDEST PUSH1 0x0 CALLER SWAP1 POP SWAP1 JUMP JUMPDEST PUSH1 0x0 PUSH20 0xFFFFFFFFFFFFFFFFFFFFFFFFFFFFFFFFFFFFFFFF AND DUP4 PUSH20 0xFFFFFFFFFFFFFFFFFFFFFFFFFFFFFFFFFFFFFFFF AND EQ ISZERO PUSH2 0x1662 JUMPI PUSH1 0x40 MLOAD PUSH32 0x8C379A000000000000000000000000000000000000000000000000000000000 DUP2 MSTORE PUSH1 0x4 ADD PUSH2 0x1659 SWAP1 PUSH2 0x2468 JUMP JUMPDEST PUSH1 0x40 MLOAD DUP1 SWAP2 SUB SWAP1 REVERT JUMPDEST PUSH1 0x0 PUSH20 0xFFFFFFFFFFFFFFFFFFFFFFFFFFFFFFFFFFFFFFFF AND DUP3 PUSH20 0xFFFFFFFFFFFFFFFFFFFFFFFFFFFFFFFFFFFFFFFF AND EQ ISZERO PUSH2 0x16D2 JUMPI PUSH1 0x40 MLOAD PUSH32 0x8C379A000000000000000000000000000000000000000000000000000000000 DUP2 MSTORE PUSH1 0x4 ADD PUSH2 0x16C9 SWAP1 PUSH2 0x2388 JUMP JUMPDEST PUSH1 0x40 MLOAD DUP1 SWAP2 SUB SWAP1 REVERT JUMPDEST DUP1 PUSH1 0x1 PUSH1 0x0 DUP6 PUSH20 0xFFFFFFFFFFFFFFFFFFFFFFFFFFFFFFFFFFFFFFFF AND PUSH20 0xFFFFFFFFFFFFFFFFFFFFFFFFFFFFFFFFFFFFFFFF AND DUP2 MSTORE PUSH1 0x20 ADD SWAP1 DUP2 MSTORE PUSH1 0x20 ADD PUSH1 0x0 KECCAK256 PUSH1 0x0 DUP5 PUSH20 0xFFFFFFFFFFFFFFFFFFFFFFFFFFFFFFFFFFFFFFFF AND PUSH20 0xFFFFFFFFFFFFFFFFFFFFFFFFFFFFFFFFFFFFFFFF AND DUP2 MSTORE PUSH1 0x20 ADD SWAP1 DUP2 MSTORE PUSH1 0x20 ADD PUSH1 0x0 KECCAK256 DUP2 SWAP1 SSTORE POP DUP2 PUSH20 0xFFFFFFFFFFFFFFFFFFFFFFFFFFFFFFFFFFFFFFFF AND DUP4 PUSH20 0xFFFFFFFFFFFFFFFFFFFFFFFFFFFFFFFFFFFFFFFF AND PUSH32 0x8C5BE1E5EBEC7D5BD14F71427D1E84F3DD0314C0F7B2291E5B200AC8C7C3B925 DUP4 PUSH1 0x40 MLOAD PUSH2 0x17B0 SWAP2 SWAP1 PUSH2 0x24C8 JUMP JUMPDEST PUSH1 0x40 MLOAD DUP1 SWAP2 SUB SWAP1 LOG3 POP POP POP JUMP JUMPDEST PUSH1 0x0 PUSH20 0xFFFFFFFFFFFFFFFFFFFFFFFFFFFFFFFFFFFFFFFF AND DUP3 PUSH20 0xFFFFFFFFFFFFFFFFFFFFFFFFFFFFFFFFFFFFFFFF AND EQ ISZERO PUSH2 0x182D JUMPI PUSH1 0x40 MLOAD PUSH32 0x8C379A000000000000000000000000000000000000000000000000000000000 DUP2 MSTORE PUSH1 0x4 ADD PUSH2 0x1824 SWAP1 PUSH2 0x2428 JUMP JUMPDEST PUSH1 0x40 MLOAD DUP1 SWAP2 SUB SWAP1 REVERT JUMPDEST PUSH2 0x1839 DUP3 PUSH1 0x0 DUP4 PUSH2 0x1EC7 JUMP JUMPDEST PUSH1 0x0 DUP1 PUSH1 0x0 DUP5 PUSH20 0xFFFFFFFFFFFFFFFFFFFFFFFFFFFFFFFFFFFFFFFF AND PUSH20 0xFFFFFFFFFFFFFFFFFFFFFFFFFFFFFFFFFFFFFFFF AND DUP2 MSTORE PUSH1 0x20 ADD SWAP1 DUP2 MSTORE PUSH1 0x20 ADD PUSH1 0x0 KECCAK256 SLOAD SWAP1 POP DUP2 DUP2 LT ISZERO PUSH2 0x18BF JUMPI PUSH1 0x40 MLOAD PUSH32 0x8C379A000000000000000000000000000000000000000000000000000000000 DUP2 MSTORE PUSH1 0x4 ADD PUSH2 0x18B6 SWAP1 PUSH2 0x2348 JUMP JUMPDEST PUSH1 0x40 MLOAD DUP1 SWAP2 SUB SWAP1 REVERT JUMPDEST DUP2 DUP2 SUB PUSH1 0x0 DUP1 DUP6 PUSH20 0xFFFFFFFFFFFFFFFFFFFFFFFFFFFFFFFFFFFFFFFF AND PUSH20 0xFFFFFFFFFFFFFFFFFFFFFFFFFFFFFFFFFFFFFFFF AND DUP2 MSTORE PUSH1 0x20 ADD SWAP1 DUP2 MSTORE PUSH1 0x20 ADD PUSH1 0x0 KECCAK256 DUP2 SWAP1 SSTORE POP DUP2 PUSH1 0x2 PUSH1 0x0 DUP3 DUP3 SLOAD PUSH2 0x1916 SWAP2 SWAP1 PUSH2 0x276C JUMP JUMPDEST SWAP3 POP POP DUP2 SWAP1 SSTORE POP PUSH1 0x0 PUSH20 0xFFFFFFFFFFFFFFFFFFFFFFFFFFFFFFFFFFFFFFFF AND DUP4 PUSH20 0xFFFFFFFFFFFFFFFFFFFFFFFFFFFFFFFFFFFFFFFF AND PUSH32 0xDDF252AD1BE2C89B69C2B068FC378DAA952BA7F163C4A11628F55A4DF523B3EF DUP5 PUSH1 0x40 MLOAD PUSH2 0x197B SWAP2 SWAP1 PUSH2 0x24C8 JUMP JUMPDEST PUSH1 0x40 MLOAD DUP1 SWAP2 SUB SWAP1 LOG3 PUSH2 0x198F DUP4 PUSH1 0x0 DUP5 PUSH2 0x1ECC JUMP JUMPDEST POP POP POP JUMP JUMPDEST PUSH1 0x0 PUSH2 0x19A0 DUP5 DUP5 PUSH2 0x133C JUMP JUMPDEST SWAP1 POP PUSH32 0xFFFFFFFFFFFFFFFFFFFFFFFFFFFFFFFFFFFFFFFFFFFFFFFFFFFFFFFFFFFFFFFF DUP2 EQ PUSH2 0x1A1A JUMPI DUP2 DUP2 LT ISZERO PUSH2 0x1A0C JUMPI PUSH1 0x40 MLOAD PUSH32 0x8C379A000000000000000000000000000000000000000000000000000000000 DUP2 MSTORE PUSH1 0x4 ADD PUSH2 0x1A03 SWAP1 PUSH2 0x23C8 JUMP JUMPDEST PUSH1 0x40 MLOAD DUP1 SWAP2 SUB SWAP1 REVERT JUMPDEST PUSH2 0x1A19 DUP5 DUP5 DUP5 DUP5 SUB PUSH2 0x15F2 JUMP JUMPDEST JUMPDEST POP POP POP POP JUMP JUMPDEST PUSH1 0x0 PUSH20 0xFFFFFFFFFFFFFFFFFFFFFFFFFFFFFFFFFFFFFFFF AND DUP4 PUSH20 0xFFFFFFFFFFFFFFFFFFFFFFFFFFFFFFFFFFFFFFFF AND EQ ISZERO PUSH2 0x1A90 JUMPI PUSH1 0x40 MLOAD PUSH32 0x8C379A000000000000000000000000000000000000000000000000000000000 DUP2 MSTORE PUSH1 0x4 ADD PUSH2 0x1A87 SWAP1 PUSH2 0x2448 JUMP JUMPDEST PUSH1 0x40 MLOAD DUP1 SWAP2 SUB SWAP1 REVERT JUMPDEST PUSH1 0x0 PUSH20 0xFFFFFFFFFFFFFFFFFFFFFFFFFFFFFFFFFFFFFFFF AND DUP3 PUSH20 0xFFFFFFFFFFFFFFFFFFFFFFFFFFFFFFFFFFFFFFFF AND EQ ISZERO PUSH2 0x1B00 JUMPI PUSH1 0x40 MLOAD PUSH32 0x8C379A000000000000000000000000000000000000000000000000000000000 DUP2 MSTORE PUSH1 0x4 ADD PUSH2 0x1AF7 SWAP1 PUSH2 0x2328 JUMP JUMPDEST PUSH1 0x40 MLOAD DUP1 SWAP2 SUB SWAP1 REVERT JUMPDEST PUSH2 0x1B0B DUP4 DUP4 DUP4 PUSH2 0x1EC7 JUMP JUMPDEST PUSH1 0x0 DUP1 PUSH1 0x0 DUP6 PUSH20 0xFFFFFFFFFFFFFFFFFFFFFFFFFFFFFFFFFFFFFFFF AND PUSH20 0xFFFFFFFFFFFFFFFFFFFFFFFFFFFFFFFFFFFFFFFF AND DUP2 MSTORE PUSH1 0x20 ADD SWAP1 DUP2 MSTORE PUSH1 0x20 ADD PUSH1 0x0 KECCAK256 SLOAD SWAP1 POP DUP2 DUP2 LT ISZERO PUSH2 0x1B91 JUMPI PUSH1 0x40 MLOAD PUSH32 0x8C379A000000000000000000000000000000000000000000000000000000000 DUP2 MSTORE PUSH1 0x4 ADD PUSH2 0x1B88 SWAP1 PUSH2 0x23E8 JUMP JUMPDEST PUSH1 0x40 MLOAD DUP1 SWAP2 SUB SWAP1 REVERT JUMPDEST DUP2 DUP2 SUB PUSH1 0x0 DUP1 DUP7 PUSH20 0xFFFFFFFFFFFFFFFFFFFFFFFFFFFFFFFFFFFFFFFF AND PUSH20 0xFFFFFFFFFFFFFFFFFFFFFFFFFFFFFFFFFFFFFFFF AND DUP2 MSTORE PUSH1 0x20 ADD SWAP1 DUP2 MSTORE PUSH1 0x20 ADD PUSH1 0x0 KECCAK256 DUP2 SWAP1 SSTORE POP DUP2 PUSH1 0x0 DUP1 DUP6 PUSH20 0xFFFFFFFFFFFFFFFFFFFFFFFFFFFFFFFFFFFFFFFF AND PUSH20 0xFFFFFFFFFFFFFFFFFFFFFFFFFFFFFFFFFFFFFFFF AND DUP2 MSTORE PUSH1 0x20 ADD SWAP1 DUP2 MSTORE PUSH1 0x20 ADD PUSH1 0x0 KECCAK256 PUSH1 0x0 DUP3 DUP3 SLOAD PUSH2 0x1C24 SWAP2 SWAP1 PUSH2 0x251A JUMP JUMPDEST SWAP3 POP POP DUP2 SWAP1 SSTORE POP DUP3 PUSH20 0xFFFFFFFFFFFFFFFFFFFFFFFFFFFFFFFFFFFFFFFF AND DUP5 PUSH20 0xFFFFFFFFFFFFFFFFFFFFFFFFFFFFFFFFFFFFFFFF AND PUSH32 0xDDF252AD1BE2C89B69C2B068FC378DAA952BA7F163C4A11628F55A4DF523B3EF DUP5 PUSH1 0x40 MLOAD PUSH2 0x1C88 SWAP2 SWAP1 PUSH2 0x24C8 JUMP JUMPDEST PUSH1 0x40 MLOAD DUP1 SWAP2 SUB SWAP1 LOG3 PUSH2 0x1C9B DUP5 DUP5 DUP5 PUSH2 0x1ECC JUMP JUMPDEST POP POP POP POP JUMP JUMPDEST PUSH1 0x0 PUSH1 0x5 PUSH1 0x0 SWAP1 SLOAD SWAP1 PUSH2 0x100 EXP SWAP1 DIV PUSH20 0xFFFFFFFFFFFFFFFFFFFFFFFFFFFFFFFFFFFFFFFF AND SWAP1 POP DUP2 PUSH1 0x5 PUSH1 0x0 PUSH2 0x100 EXP DUP2 SLOAD DUP2 PUSH20 0xFFFFFFFFFFFFFFFFFFFFFFFFFFFFFFFFFFFFFFFF MUL NOT AND SWAP1 DUP4 PUSH20 0xFFFFFFFFFFFFFFFFFFFFFFFFFFFFFFFFFFFFFFFF AND MUL OR SWAP1 SSTORE POP DUP2 PUSH20 0xFFFFFFFFFFFFFFFFFFFFFFFFFFFFFFFFFFFFFFFF AND DUP2 PUSH20 0xFFFFFFFFFFFFFFFFFFFFFFFFFFFFFFFFFFFFFFFF AND PUSH32 0x8BE0079C531659141344CD1FD0A4F28419497F9722A3DAAFE3B4186F6B6457E0 PUSH1 0x40 MLOAD PUSH1 0x40 MLOAD DUP1 SWAP2 SUB SWAP1 LOG3 POP POP JUMP JUMPDEST PUSH1 0x0 PUSH20 0xFFFFFFFFFFFFFFFFFFFFFFFFFFFFFFFFFFFFFFFF AND DUP3 PUSH20 0xFFFFFFFFFFFFFFFFFFFFFFFFFFFFFFFFFFFFFFFF AND EQ ISZERO PUSH2 0x1DD7 JUMPI PUSH1 0x40 MLOAD PUSH32 0x8C379A000000000000000000000000000000000000000000000000000000000 DUP2 MSTORE PUSH1 0x4 ADD PUSH2 0x1DCE SWAP1 PUSH2 0x24A8 JUMP JUMPDEST PUSH1 0x40 MLOAD DUP1 SWAP2 SUB SWAP1 REVERT JUMPDEST PUSH2 0x1DE3 PUSH1 0x0 DUP4 DUP4 PUSH2 0x1EC7 JUMP JUMPDEST DUP1 PUSH1 0x2 PUSH1 0x0 DUP3 DUP3 SLOAD PUSH2 0x1DF5 SWAP2 SWAP1 PUSH2 0x251A JUMP JUMPDEST SWAP3 POP POP DUP2 SWAP1 SSTORE POP DUP1 PUSH1 0x0 DUP1 DUP5 PUSH20 0xFFFFFFFFFFFFFFFFFFFFFFFFFFFFFFFFFFFFFFFF AND PUSH20 0xFFFFFFFFFFFFFFFFFFFFFFFFFFFFFFFFFFFFFFFF AND DUP2 MSTORE PUSH1 0x20 ADD SWAP1 DUP2 MSTORE PUSH1 0x20 ADD PUSH1 0x0 KECCAK256 PUSH1 0x0 DUP3 DUP3 SLOAD PUSH2 0x1E4A SWAP2 SWAP1 PUSH2 0x251A JUMP JUMPDEST SWAP3 POP POP DUP2 SWAP1 SSTORE POP DUP2 PUSH20 0xFFFFFFFFFFFFFFFFFFFFFFFFFFFFFFFFFFFFFFFF AND PUSH1 0x0 PUSH20 0xFFFFFFFFFFFFFFFFFFFFFFFFFFFFFFFFFFFFFFFF AND PUSH32 0xDDF252AD1BE2C89B69C2B068FC378DAA952BA7F163C4A11628F55A4DF523B3EF DUP4 PUSH1 0x40 MLOAD PUSH2 0x1EAF SWAP2 SWAP1 PUSH2 0x24C8 JUMP JUMPDEST PUSH1 0x40 MLOAD DUP1 SWAP2 SUB SWAP1 LOG3 PUSH2 0x1EC3 PUSH1 0x0 DUP4 DUP4 PUSH2 0x1ECC JUMP JUMPDEST POP POP JUMP JUMPDEST POP POP POP JUMP JUMPDEST POP POP POP JUMP JUMPDEST PUSH1 0x0 DUP2 CALLDATALOAD SWAP1 POP PUSH2 0x1EE0 DUP2 PUSH2 0x2D48 JUMP JUMPDEST SWAP3 SWAP2 POP POP JUMP JUMPDEST PUSH1 0x0 DUP2 CALLDATALOAD SWAP1 POP PUSH2 0x1EF5 DUP2 PUSH2 0x2D5F JUMP JUMPDEST SWAP3 SWAP2 POP POP JUMP JUMPDEST PUSH1 0x0 PUSH1 0x20 DUP3 DUP5 SUB SLT ISZERO PUSH2 0x1F11 JUMPI PUSH2 0x1F10 PUSH2 0x2945 JUMP JUMPDEST JUMPDEST PUSH1 0x0 PUSH2 0x1F1F DUP5 DUP3 DUP6 ADD PUSH2 0x1ED1 JUMP JUMPDEST SWAP2 POP POP SWAP3 SWAP2 POP POP JUMP JUMPDEST PUSH1 0x0 DUP1 PUSH1 0x40 DUP4 DUP6 SUB SLT ISZERO PUSH2 0x1F3F JUMPI PUSH2 0x1F3E PUSH2 0x2945 JUMP JUMPDEST JUMPDEST PUSH1 0x0 PUSH2 0x1F4D DUP6 DUP3 DUP7 ADD PUSH2 0x1ED1 JUMP JUMPDEST SWAP3 POP POP PUSH1 0x20 PUSH2 0x1F5E DUP6 DUP3 DUP7 ADD PUSH2 0x1ED1 JUMP JUMPDEST SWAP2 POP POP SWAP3 POP SWAP3 SWAP1 POP JUMP JUMPDEST PUSH1 0x0 DUP1 PUSH1 0x0 PUSH1 0x60 DUP5 DUP7 SUB SLT ISZERO PUSH2 0x1F81 JUMPI PUSH2 0x1F80 PUSH2 0x2945 JUMP JUMPDEST JUMPDEST PUSH1 0x0 PUSH2 0x1F8F DUP7 DUP3 DUP8 ADD PUSH2 0x1ED1 JUMP JUMPDEST SWAP4 POP POP PUSH1 0x20 PUSH2 0x1FA0 DUP7 DUP3 DUP8 ADD PUSH2 0x1ED1 JUMP JUMPDEST SWAP3 POP POP PUSH1 0x40 PUSH2 0x1FB1 DUP7 DUP3 DUP8 ADD PUSH2 0x1EE6 JUMP JUMPDEST SWAP2 POP POP SWAP3 POP SWAP3 POP SWAP3 JUMP JUMPDEST PUSH1 0x0 DUP1 PUSH1 0x40 DUP4 DUP6 SUB SLT ISZERO PUSH2 0x1FD2 JUMPI PUSH2 0x1FD1 PUSH2 0x2945 JUMP JUMPDEST JUMPDEST PUSH1 0x0 PUSH2 0x1FE0 DUP6 DUP3 DUP7 ADD PUSH2 0x1ED1 JUMP JUMPDEST SWAP3 POP POP PUSH1 0x20 PUSH2 0x1FF1 DUP6 DUP3 DUP7 ADD PUSH2 0x1EE6 JUMP JUMPDEST SWAP2 POP POP SWAP3 POP SWAP3 SWAP1 POP JUMP JUMPDEST PUSH1 0x0 PUSH1 0x20 DUP3 DUP5 SUB SLT ISZERO PUSH2 0x2011 JUMPI PUSH2 0x2010 PUSH2 0x2945 JUMP JUMPDEST JUMPDEST PUSH1 0x0 PUSH2 0x201F DUP5 DUP3 DUP6 ADD PUSH2 0x1EE6 JUMP JUMPDEST SWAP2 POP POP SWAP3 SWAP2 POP POP JUMP JUMPDEST PUSH2 0x2031 DUP2 PUSH2 0x27A0 JUMP JUMPDEST DUP3 MSTORE POP POP JUMP JUMPDEST PUSH2 0x2040 DUP2 PUSH2 0x27B2 JUMP JUMPDEST DUP3 MSTORE POP POP JUMP JUMPDEST PUSH1 0x0 PUSH2 0x2051 DUP3 PUSH2 0x24FE JUMP JUMPDEST PUSH2 0x205B DUP2 DUP6 PUSH2 0x2509 JUMP JUMPDEST SWAP4 POP PUSH2 0x206B DUP2 DUP6 PUSH1 0x20 DUP7 ADD PUSH2 0x27F5 JUMP JUMPDEST PUSH2 0x2074 DUP2 PUSH2 0x294A JUMP JUMPDEST DUP5 ADD SWAP2 POP POP SWAP3 SWAP2 POP POP JUMP JUMPDEST PUSH1 0x0 PUSH2 0x208C PUSH1 0x2D DUP4 PUSH2 0x2509 JUMP JUMPDEST SWAP2 POP PUSH2 0x2097 DUP3 PUSH2 0x2968 JUMP JUMPDEST PUSH1 0x40 DUP3 ADD SWAP1 POP SWAP2 SWAP1 POP JUMP JUMPDEST PUSH1 0x0 PUSH2 0x20AF PUSH1 0x23 DUP4 PUSH2 0x2509 JUMP JUMPDEST SWAP2 POP PUSH2 0x20BA DUP3 PUSH2 0x29B7 JUMP JUMPDEST PUSH1 0x40 DUP3 ADD SWAP1 POP SWAP2 SWAP1 POP JUMP JUMPDEST PUSH1 0x0 PUSH2 0x20D2 PUSH1 0x22 DUP4 PUSH2 0x2509 JUMP JUMPDEST SWAP2 POP PUSH2 0x20DD DUP3 PUSH2 0x2A06 JUMP JUMPDEST PUSH1 0x40 DUP3 ADD SWAP1 POP SWAP2 SWAP1 POP JUMP JUMPDEST PUSH1 0x0 PUSH2 0x20F5 PUSH1 0x26 DUP4 PUSH2 0x2509 JUMP JUMPDEST SWAP2 POP PUSH2 0x2100 DUP3 PUSH2 0x2A55 JUMP JUMPDEST PUSH1 0x40 DUP3 ADD SWAP1 POP SWAP2 SWAP1 POP JUMP JUMPDEST PUSH1 0x0 PUSH2 0x2118 PUSH1 0x22 DUP4 PUSH2 0x2509 JUMP JUMPDEST SWAP2 POP PUSH2 0x2123 DUP3 PUSH2 0x2AA4 JUMP JUMPDEST PUSH1 0x40 DUP3 ADD SWAP1 POP SWAP2 SWAP1 POP JUMP JUMPDEST PUSH1 0x0 PUSH2 0x213B PUSH1 0x24 DUP4 PUSH2 0x2509 JUMP JUMPDEST SWAP2 POP PUSH2 0x2146 DUP3 PUSH2 0x2AF3 JUMP JUMPDEST PUSH1 0x40 DUP3 ADD SWAP1 POP SWAP2 SWAP1 POP JUMP JUMPDEST PUSH1 0x0 PUSH2 0x215E PUSH1 0x1D DUP4 PUSH2 0x2509 JUMP JUMPDEST SWAP2 POP PUSH2 0x2169 DUP3 PUSH2 0x2B42 JUMP JUMPDEST PUSH1 0x20 DUP3 ADD SWAP1 POP SWAP2 SWAP1 POP JUMP JUMPDEST PUSH1 0x0 PUSH2 0x2181 PUSH1 0x26 DUP4 PUSH2 0x2509 JUMP JUMPDEST SWAP2 POP PUSH2 0x218C DUP3 PUSH2 0x2B6B JUMP JUMPDEST PUSH1 0x40 DUP3 ADD SWAP1 POP SWAP2 SWAP1 POP JUMP JUMPDEST PUSH1 0x0 PUSH2 0x21A4 PUSH1 0x20 DUP4 PUSH2 0x2509 JUMP JUMPDEST SWAP2 POP PUSH2 0x21AF DUP3 PUSH2 0x2BBA JUMP JUMPDEST PUSH1 0x20 DUP3 ADD SWAP1 POP SWAP2 SWAP1 POP JUMP JUMPDEST PUSH1 0x0 PUSH2 0x21C7 PUSH1 0x21 DUP4 PUSH2 0x2509 JUMP JUMPDEST SWAP2 POP PUSH2 0x21D2 DUP3 PUSH2 0x2BE3 JUMP JUMPDEST PUSH1 0x40 DUP3 ADD SWAP1 POP SWAP2 SWAP1 POP JUMP JUMPDEST PUSH1 0x0 PUSH2 0x21EA PUSH1 0x25 DUP4 PUSH2 0x2509 JUMP JUMPDEST SWAP2 POP PUSH2 0x21F5 DUP3 PUSH2 0x2C32 JUMP JUMPDEST PUSH1 0x40 DUP3 ADD SWAP1 POP SWAP2 SWAP1 POP JUMP JUMPDEST PUSH1 0x0 PUSH2 0x220D PUSH1 0x24 DUP4 PUSH2 0x2509 JUMP JUMPDEST SWAP2 POP PUSH2 0x2218 DUP3 PUSH2 0x2C81 JUMP JUMPDEST PUSH1 0x40 DUP3 ADD SWAP1 POP SWAP2 SWAP1 POP JUMP JUMPDEST PUSH1 0x0 PUSH2 0x2230 PUSH1 0x25 DUP4 PUSH2 0x2509 JUMP JUMPDEST SWAP2 POP PUSH2 0x223B DUP3 PUSH2 0x2CD0 JUMP JUMPDEST PUSH1 0x40 DUP3 ADD SWAP1 POP SWAP2 SWAP1 POP JUMP JUMPDEST PUSH1 0x0 PUSH2 0x2253 PUSH1 0x1F DUP4 PUSH2 0x2509 JUMP JUMPDEST SWAP2 POP PUSH2 0x225E DUP3 PUSH2 0x2D1F JUMP JUMPDEST PUSH1 0x20 DUP3 ADD SWAP1 POP SWAP2 SWAP1 POP JUMP JUMPDEST PUSH2 0x2272 DUP2 PUSH2 0x27DE JUMP JUMPDEST DUP3 MSTORE POP POP JUMP JUMPDEST PUSH2 0x2281 DUP2 PUSH2 0x27E8 JUMP JUMPDEST DUP3 MSTORE POP POP JUMP JUMPDEST PUSH1 0x0 PUSH1 0x20 DUP3 ADD SWAP1 POP PUSH2 0x229C PUSH1 0x0 DUP4 ADD DUP5 PUSH2 0x2028 JUMP JUMPDEST SWAP3 SWAP2 POP POP JUMP JUMPDEST PUSH1 0x0 PUSH1 0x20 DUP3 ADD SWAP1 POP PUSH2 0x22B7 PUSH1 0x0 DUP4 ADD DUP5 PUSH2 0x2037 JUMP JUMPDEST SWAP3 SWAP2 POP POP JUMP JUMPDEST PUSH1 0x0 PUSH1 0x40 DUP3 ADD SWAP1 POP PUSH2 0x22D2 PUSH1 0x0 DUP4 ADD DUP6 PUSH2 0x2037 JUMP JUMPDEST PUSH2 0x22DF PUSH1 0x20 DUP4 ADD DUP5 PUSH2 0x2269 JUMP JUMPDEST SWAP4 SWAP3 POP POP POP JUMP JUMPDEST PUSH1 0x0 PUSH1 0x20 DUP3 ADD SWAP1 POP DUP2 DUP2 SUB PUSH1 0x0 DUP4 ADD MSTORE PUSH2 0x2300 DUP2 DUP5 PUSH2 0x2046 JUMP JUMPDEST SWAP1 POP SWAP3 SWAP2 POP POP JUMP JUMPDEST PUSH1 0x0 PUSH1 0x20 DUP3 ADD SWAP1 POP DUP2 DUP2 SUB PUSH1 0x0 DUP4 ADD MSTORE PUSH2 0x2321 DUP2 PUSH2 0x207F JUMP JUMPDEST SWAP1 POP SWAP2 SWAP1 POP JUMP JUMPDEST PUSH1 0x0 PUSH1 0x20 DUP3 ADD SWAP1 POP DUP2 DUP2 SUB PUSH1 0x0 DUP4 ADD MSTORE PUSH2 0x2341 DUP2 PUSH2 0x20A2 JUMP JUMPDEST SWAP1 POP SWAP2 SWAP1 POP JUMP JUMPDEST PUSH1 0x0 PUSH1 0x20 DUP3 ADD SWAP1 POP DUP2 DUP2 SUB PUSH1 0x0 DUP4 ADD MSTORE PUSH2 0x2361 DUP2 PUSH2 0x20C5 JUMP JUMPDEST SWAP1 POP SWAP2 SWAP1 POP JUMP JUMPDEST PUSH1 0x0 PUSH1 0x20 DUP3 ADD SWAP1 POP DUP2 DUP2 SUB PUSH1 0x0 DUP4 ADD MSTORE PUSH2 0x2381 DUP2 PUSH2 0x20E8 JUMP JUMPDEST SWAP1 POP SWAP2 SWAP1 POP JUMP JUMPDEST PUSH1 0x0 PUSH1 0x20 DUP3 ADD SWAP1 POP DUP2 DUP2 SUB PUSH1 0x0 DUP4 ADD MSTORE PUSH2 0x23A1 DUP2 PUSH2 0x210B JUMP JUMPDEST SWAP1 POP SWAP2 SWAP1 POP JUMP JUMPDEST PUSH1 0x0 PUSH1 0x20 DUP3 ADD SWAP1 POP DUP2 DUP2 SUB PUSH1 0x0 DUP4 ADD MSTORE PUSH2 0x23C1 DUP2 PUSH2 0x212E JUMP JUMPDEST SWAP1 POP SWAP2 SWAP1 POP JUMP JUMPDEST PUSH1 0x0 PUSH1 0x20 DUP3 ADD SWAP1 POP DUP2 DUP2 SUB PUSH1 0x0 DUP4 ADD MSTORE PUSH2 0x23E1 DUP2 PUSH2 0x2151 JUMP JUMPDEST SWAP1 POP SWAP2 SWAP1 POP JUMP JUMPDEST PUSH1 0x0 PUSH1 0x20 DUP3 ADD SWAP1 POP DUP2 DUP2 SUB PUSH1 0x0 DUP4 ADD MSTORE PUSH2 0x2401 DUP2 PUSH2 0x2174 JUMP JUMPDEST SWAP1 POP SWAP2 SWAP1 POP JUMP JUMPDEST PUSH1 0x0 PUSH1 0x20 DUP3 ADD SWAP1 POP DUP2 DUP2 SUB PUSH1 0x0 DUP4 ADD MSTORE PUSH2 0x2421 DUP2 PUSH2 0x2197 JUMP JUMPDEST SWAP1 POP SWAP2 SWAP1 POP JUMP JUMPDEST PUSH1 0x0 PUSH1 0x20 DUP3 ADD SWAP1 POP DUP2 DUP2 SUB PUSH1 0x0 DUP4 ADD MSTORE PUSH2 0x2441 DUP2 PUSH2 0x21BA JUMP JUMPDEST SWAP1 POP SWAP2 SWAP1 POP JUMP JUMPDEST PUSH1 0x0 PUSH1 0x20 DUP3 ADD SWAP1 POP DUP2 DUP2 SUB PUSH1 0x0 DUP4 ADD MSTORE PUSH2 0x2461 DUP2 PUSH2 0x21DD JUMP JUMPDEST SWAP1 POP SWAP2 SWAP1 POP JUMP JUMPDEST PUSH1 0x0 PUSH1 0x20 DUP3 ADD SWAP1 POP DUP2 DUP2 SUB PUSH1 0x0 DUP4 ADD MSTORE PUSH2 0x2481 DUP2 PUSH2 0x2200 JUMP JUMPDEST SWAP1 POP SWAP2 SWAP1 POP JUMP JUMPDEST PUSH1 0x0 PUSH1 0x20 DUP3 ADD SWAP1 POP DUP2 DUP2 SUB PUSH1 0x0 DUP4 ADD MSTORE PUSH2 0x24A1 DUP2 PUSH2 0x2223 JUMP JUMPDEST SWAP1 POP SWAP2 SWAP1 POP JUMP JUMPDEST PUSH1 0x0 PUSH1 0x20 DUP3 ADD SWAP1 POP DUP2 DUP2 SUB PUSH1 0x0 DUP4 ADD MSTORE PUSH2 0x24C1 DUP2 PUSH2 0x2246 JUMP JUMPDEST SWAP1 POP SWAP2 SWAP1 POP JUMP JUMPDEST PUSH1 0x0 PUSH1 0x20 DUP3 ADD SWAP1 POP PUSH2 0x24DD PUSH1 0x0 DUP4 ADD DUP5 PUSH2 0x2269 JUMP JUMPDEST SWAP3 SWAP2 POP POP JUMP JUMPDEST PUSH1 0x0 PUSH1 0x20 DUP3 ADD SWAP1 POP PUSH2 0x24F8 PUSH1 0x0 DUP4 ADD DUP5 PUSH2 0x2278 JUMP JUMPDEST SWAP3 SWAP2 POP POP JUMP JUMPDEST PUSH1 0x0 DUP2 MLOAD SWAP1 POP SWAP2 SWAP1 POP JUMP JUMPDEST PUSH1 0x0 DUP3 DUP3 MSTORE PUSH1 0x20 DUP3 ADD SWAP1 POP SWAP3 SWAP2 POP POP JUMP JUMPDEST PUSH1 0x0 PUSH2 0x2525 DUP3 PUSH2 0x27DE JUMP JUMPDEST SWAP2 POP PUSH2 0x2530 DUP4 PUSH2 0x27DE JUMP JUMPDEST SWAP3 POP DUP3 PUSH32 0xFFFFFFFFFFFFFFFFFFFFFFFFFFFFFFFFFFFFFFFFFFFFFFFFFFFFFFFFFFFFFFFF SUB DUP3 GT ISZERO PUSH2 0x2565 JUMPI PUSH2 0x2564 PUSH2 0x285A JUMP JUMPDEST JUMPDEST DUP3 DUP3 ADD SWAP1 POP SWAP3 SWAP2 POP POP JUMP JUMPDEST PUSH1 0x0 PUSH2 0x257B DUP3 PUSH2 0x27DE JUMP JUMPDEST SWAP2 POP PUSH2 0x2586 DUP4 PUSH2 0x27DE JUMP JUMPDEST SWAP3 POP DUP3 PUSH2 0x2596 JUMPI PUSH2 0x2595 PUSH2 0x2889 JUMP JUMPDEST JUMPDEST DUP3 DUP3 DIV SWAP1 POP SWAP3 SWAP2 POP POP JUMP JUMPDEST PUSH1 0x0 DUP1 DUP3 SWAP2 POP DUP4 SWAP1 POP JUMPDEST PUSH1 0x1 DUP6 GT ISZERO PUSH2 0x25EB JUMPI DUP1 DUP7 DIV DUP2 GT ISZERO PUSH2 0x25C7 JUMPI PUSH2 0x25C6 PUSH2 0x285A JUMP JUMPDEST JUMPDEST PUSH1 0x1 DUP6 AND ISZERO PUSH2 0x25D6 JUMPI DUP1 DUP3 MUL SWAP2 POP JUMPDEST DUP1 DUP2 MUL SWAP1 POP PUSH2 0x25E4 DUP6 PUSH2 0x295B JUMP JUMPDEST SWAP5 POP PUSH2 0x25AB JUMP JUMPDEST SWAP5 POP SWAP5 SWAP3 POP POP POP JUMP JUMPDEST PUSH1 0x0 PUSH2 0x25FF DUP3 PUSH2 0x27DE JUMP JUMPDEST SWAP2 POP PUSH2 0x260A DUP4 PUSH2 0x27E8 JUMP JUMPDEST SWAP3 POP PUSH2 0x2637 PUSH32 0xFFFFFFFFFFFFFFFFFFFFFFFFFFFFFFFFFFFFFFFFFFFFFFFFFFFFFFFFFFFFFFFF DUP5 DUP5 PUSH2 0x263F JUMP JUMPDEST SWAP1 POP SWAP3 SWAP2 POP POP JUMP JUMPDEST PUSH1 0x0 DUP3 PUSH2 0x264F JUMPI PUSH1 0x1 SWAP1 POP PUSH2 0x270B JUMP JUMPDEST DUP2 PUSH2 0x265D JUMPI PUSH1 0x0 SWAP1 POP PUSH2 0x270B JUMP JUMPDEST DUP2 PUSH1 0x1 DUP2 EQ PUSH2 0x2673 JUMPI PUSH1 0x2 DUP2 EQ PUSH2 0x267D JUMPI PUSH2 0x26AC JUMP JUMPDEST PUSH1 0x1 SWAP2 POP POP PUSH2 0x270B JUMP JUMPDEST PUSH1 0xFF DUP5 GT ISZERO PUSH2 0x268F JUMPI PUSH2 0x268E PUSH2 0x285A JUMP JUMPDEST JUMPDEST DUP4 PUSH1 0x2 EXP SWAP2 POP DUP5 DUP3 GT ISZERO PUSH2 0x26A6 JUMPI PUSH2 0x26A5 PUSH2 0x285A JUMP JUMPDEST JUMPDEST POP PUSH2 0x270B JUMP JUMPDEST POP PUSH1 0x20 DUP4 LT PUSH2 0x133 DUP4 LT AND PUSH1 0x4E DUP5 LT PUSH1 0xB DUP5 LT AND OR ISZERO PUSH2 0x26E1 JUMPI DUP3 DUP3 EXP SWAP1 POP DUP4 DUP2 GT ISZERO PUSH2 0x26DC JUMPI PUSH2 0x26DB PUSH2 0x285A JUMP JUMPDEST JUMPDEST PUSH2 0x270B JUMP JUMPDEST PUSH2 0x26EE DUP5 DUP5 DUP5 PUSH1 0x1 PUSH2 0x25A1 JUMP JUMPDEST SWAP3 POP SWAP1 POP DUP2 DUP5 DIV DUP2 GT ISZERO PUSH2 0x2705 JUMPI PUSH2 0x2704 PUSH2 0x285A JUMP JUMPDEST JUMPDEST DUP2 DUP2 MUL SWAP1 POP JUMPDEST SWAP4 SWAP3 POP POP POP JUMP JUMPDEST PUSH1 0x0 PUSH2 0x271D DUP3 PUSH2 0x27DE JUMP JUMPDEST SWAP2 POP PUSH2 0x2728 DUP4 PUSH2 0x27DE JUMP JUMPDEST SWAP3 POP DUP2 PUSH32 0xFFFFFFFFFFFFFFFFFFFFFFFFFFFFFFFFFFFFFFFFFFFFFFFFFFFFFFFFFFFFFFFF DIV DUP4 GT DUP3 ISZERO ISZERO AND ISZERO PUSH2 0x2761 JUMPI PUSH2 0x2760 PUSH2 0x285A JUMP JUMPDEST JUMPDEST DUP3 DUP3 MUL SWAP1 POP SWAP3 SWAP2 POP POP JUMP JUMPDEST PUSH1 0x0 PUSH2 0x2777 DUP3 PUSH2 0x27DE JUMP JUMPDEST SWAP2 POP PUSH2 0x2782 DUP4 PUSH2 0x27DE JUMP JUMPDEST SWAP3 POP DUP3 DUP3 LT ISZERO PUSH2 0x2795 JUMPI PUSH2 0x2794 PUSH2 0x285A JUMP JUMPDEST JUMPDEST DUP3 DUP3 SUB SWAP1 POP SWAP3 SWAP2 POP POP JUMP JUMPDEST PUSH1 0x0 PUSH2 0x27AB DUP3 PUSH2 0x27BE JUMP JUMPDEST SWAP1 POP SWAP2 SWAP1 POP JUMP JUMPDEST PUSH1 0x0 DUP2 ISZERO ISZERO SWAP1 POP SWAP2 SWAP1 POP JUMP JUMPDEST PUSH1 0x0 PUSH20 0xFFFFFFFFFFFFFFFFFFFFFFFFFFFFFFFFFFFFFFFF DUP3 AND SWAP1 POP SWAP2 SWAP1 POP JUMP JUMPDEST PUSH1 0x0 DUP2 SWAP1 POP SWAP2 SWAP1 POP JUMP JUMPDEST PUSH1 0x0 PUSH1 0xFF DUP3 AND SWAP1 POP SWAP2 SWAP1 POP JUMP JUMPDEST PUSH1 0x0 JUMPDEST DUP4 DUP2 LT ISZERO PUSH2 0x2813 JUMPI DUP1 DUP3 ADD MLOAD DUP2 DUP5 ADD MSTORE PUSH1 0x20 DUP2 ADD SWAP1 POP PUSH2 0x27F8 JUMP JUMPDEST DUP4 DUP2 GT ISZERO PUSH2 0x2822 JUMPI PUSH1 0x0 DUP5 DUP5 ADD MSTORE JUMPDEST POP POP POP POP JUMP JUMPDEST PUSH1 0x0 PUSH1 0x2 DUP3 DIV SWAP1 POP PUSH1 0x1 DUP3 AND DUP1 PUSH2 0x2840 JUMPI PUSH1 0x7F DUP3 AND SWAP2 POP JUMPDEST PUSH1 0x20 DUP3 LT DUP2 EQ ISZERO PUSH2 0x2854 JUMPI PUSH2 0x2853 PUSH2 0x28B8 JUMP JUMPDEST JUMPDEST POP SWAP2 SWAP1 POP JUMP JUMPDEST PUSH32 0x4E487B7100000000000000000000000000000000000000000000000000000000 PUSH1 0x0 MSTORE PUSH1 0x11 PUSH1 0x4 MSTORE PUSH1 0x24 PUSH1 0x0 REVERT JUMPDEST PUSH32 0x4E487B7100000000000000000000000000000000000000000000000000000000 PUSH1 0x0 MSTORE PUSH1 0x12 PUSH1 0x4 MSTORE PUSH1 0x24 PUSH1 0x0 REVERT JUMPDEST PUSH32 0x4E487B7100000000000000000000000000000000000000000000000000000000 PUSH1 0x0 MSTORE PUSH1 0x22 PUSH1 0x4 MSTORE PUSH1 0x24 PUSH1 0x0 REVERT JUMPDEST PUSH32 0x4E487B7100000000000000000000000000000000000000000000000000000000 PUSH1 0x0 MSTORE PUSH1 0x31 PUSH1 0x4 MSTORE PUSH1 0x24 PUSH1 0x0 REVERT JUMPDEST PUSH32 0x4E487B7100000000000000000000000000000000000000000000000000000000 PUSH1 0x0 MSTORE PUSH1 0x32 PUSH1 0x4 MSTORE PUSH1 0x24 PUSH1 0x0 REVERT JUMPDEST PUSH1 0x0 DUP1 REVERT JUMPDEST PUSH1 0x0 PUSH1 0x1F NOT PUSH1 0x1F DUP4 ADD AND SWAP1 POP SWAP2 SWAP1 POP JUMP JUMPDEST PUSH1 0x0 DUP2 PUSH1 0x1 SHR SWAP1 POP SWAP2 SWAP1 POP JUMP JUMPDEST PUSH32 0x4F6E6C7920746865204F776E65722063616E2073657420746865207072696365 PUSH1 0x0 DUP3 ADD MSTORE PUSH32 0x206F662074686520746F6B656E00000000000000000000000000000000000000 PUSH1 0x20 DUP3 ADD MSTORE POP JUMP JUMPDEST PUSH32 0x45524332303A207472616E7366657220746F20746865207A65726F2061646472 PUSH1 0x0 DUP3 ADD MSTORE PUSH32 0x6573730000000000000000000000000000000000000000000000000000000000 PUSH1 0x20 DUP3 ADD MSTORE POP JUMP JUMPDEST PUSH32 0x45524332303A206275726E20616D6F756E7420657863656564732062616C616E PUSH1 0x0 DUP3 ADD MSTORE PUSH32 0x6365000000000000000000000000000000000000000000000000000000000000 PUSH1 0x20 DUP3 ADD MSTORE POP JUMP JUMPDEST PUSH32 0x4F776E61626C653A206E6577206F776E657220697320746865207A65726F2061 PUSH1 0x0 DUP3 ADD MSTORE PUSH32 0x6464726573730000000000000000000000000000000000000000000000000000 PUSH1 0x20 DUP3 ADD MSTORE POP JUMP JUMPDEST PUSH32 0x45524332303A20617070726F766520746F20746865207A65726F206164647265 PUSH1 0x0 DUP3 ADD MSTORE PUSH32 0x7373000000000000000000000000000000000000000000000000000000000000 PUSH1 0x20 DUP3 ADD MSTORE POP JUMP JUMPDEST PUSH32 0x596F75722037206461797320646561646C696E65206973206E6F7420636F6D70 PUSH1 0x0 DUP3 ADD MSTORE PUSH32 0x6C65746500000000000000000000000000000000000000000000000000000000 PUSH1 0x20 DUP3 ADD MSTORE POP JUMP JUMPDEST PUSH32 0x45524332303A20696E73756666696369656E7420616C6C6F77616E6365000000 PUSH1 0x0 DUP3 ADD MSTORE POP JUMP JUMPDEST PUSH32 0x45524332303A207472616E7366657220616D6F756E7420657863656564732062 PUSH1 0x0 DUP3 ADD MSTORE PUSH32 0x616C616E63650000000000000000000000000000000000000000000000000000 PUSH1 0x20 DUP3 ADD MSTORE POP JUMP JUMPDEST PUSH32 0x4F776E61626C653A2063616C6C6572206973206E6F7420746865206F776E6572 PUSH1 0x0 DUP3 ADD MSTORE POP JUMP JUMPDEST PUSH32 0x45524332303A206275726E2066726F6D20746865207A65726F20616464726573 PUSH1 0x0 DUP3 ADD MSTORE PUSH32 0x7300000000000000000000000000000000000000000000000000000000000000 PUSH1 0x20 DUP3 ADD MSTORE POP JUMP JUMPDEST PUSH32 0x45524332303A207472616E736665722066726F6D20746865207A65726F206164 PUSH1 0x0 DUP3 ADD MSTORE PUSH32 0x6472657373000000000000000000000000000000000000000000000000000000 PUSH1 0x20 DUP3 ADD MSTORE POP JUMP JUMPDEST PUSH32 0x45524332303A20617070726F76652066726F6D20746865207A65726F20616464 PUSH1 0x0 DUP3 ADD MSTORE PUSH32 0x7265737300000000000000000000000000000000000000000000000000000000 PUSH1 0x20 DUP3 ADD MSTORE POP JUMP JUMPDEST PUSH32 0x45524332303A2064656372656173656420616C6C6F77616E63652062656C6F77 PUSH1 0x0 DUP3 ADD MSTORE PUSH32 0x207A65726F000000000000000000000000000000000000000000000000000000 PUSH1 0x20 DUP3 ADD MSTORE POP JUMP JUMPDEST PUSH32 0x45524332303A206D696E7420746F20746865207A65726F206164647265737300 PUSH1 0x0 DUP3 ADD MSTORE POP JUMP JUMPDEST PUSH2 0x2D51 DUP2 PUSH2 0x27A0 JUMP JUMPDEST DUP2 EQ PUSH2 0x2D5C JUMPI PUSH1 0x0 DUP1 REVERT JUMPDEST POP JUMP JUMPDEST PUSH2 0x2D68 DUP2 PUSH2 0x27DE JUMP JUMPDEST DUP2 EQ PUSH2 0x2D73 JUMPI PUSH1 0x0 DUP1 REVERT JUMPDEST POP JUMP INVALID LOG2 PUSH5 0x6970667358 0x22 SLT KECCAK256 0x5D 0x2E SWAP7 PUSH19 0x9869D3EC4654F41B3FC6642D58983F91DCF6D7 BYTE SDIV 0xD6 0xA8 BASEFEE CREATE2 MSIZE ADDRESS 0xC0 PUSH5 0x736F6C6343 STOP ADDMOD SMOD STOP CALLER "
				},
				"gasEstimates": {
					"creation": {
						"codeDepositCost": "2338400",
						"executionCost": "infinite",
						"totalCost": "infinite"
					},
					"external": {
						"_buyTokenPrice()": "2519",
						"_owner()": "2559",
						"addStakeholder(address)": "infinite",
						"allowance(address,address)": "infinite",
						"approve(address,uint256)": "infinite",
						"balanceOf(address)": "2952",
						"buyToken(address)": "infinite",
						"calculateReward(address)": "infinite",
						"createStake(uint256)": "infinite",
						"decimals()": "411",
						"decreaseAllowance(address,uint256)": "infinite",
						"distributeRewards()": "infinite",
						"increaseAllowance(address,uint256)": "infinite",
						"isStakeholder(address)": "infinite",
						"name()": "infinite",
						"owner()": "2612",
						"removeStake(uint256)": "infinite",
						"removeStakeholder(address)": "infinite",
						"renounceOwnership()": "30420",
						"rewardOf(address)": "2953",
						"setTokenBuyPrice(uint256)": "24757",
						"stakeOf(address)": "2886",
						"symbol()": "infinite",
						"totalRewards()": "infinite",
						"totalSupply()": "2505",
						"transfer(address,uint256)": "infinite",
						"transferFrom(address,address,uint256)": "infinite",
						"transferOwnership(address)": "30833",
						"withdrawReward()": "infinite",
						"zenyaPerEth()": "2476"
					}
				},
				"methodIdentifiers": {
					"_buyTokenPrice()": "35789c8b",
					"_owner()": "b2bdfa7b",
					"addStakeholder(address)": "e5c42fd1",
					"allowance(address,address)": "dd62ed3e",
					"approve(address,uint256)": "095ea7b3",
					"balanceOf(address)": "70a08231",
					"buyToken(address)": "7e72fb52",
					"calculateReward(address)": "d82e3962",
					"createStake(uint256)": "1bf6ddae",
					"decimals()": "313ce567",
					"decreaseAllowance(address,uint256)": "a457c2d7",
					"distributeRewards()": "6f4a2cd0",
					"increaseAllowance(address,uint256)": "39509351",
					"isStakeholder(address)": "ef037b90",
					"name()": "06fdde03",
					"owner()": "8da5cb5b",
					"removeStake(uint256)": "939624ab",
					"removeStakeholder(address)": "bcb0c2d7",
					"renounceOwnership()": "715018a6",
					"rewardOf(address)": "1d62ebd9",
					"setTokenBuyPrice(uint256)": "4be21e33",
					"stakeOf(address)": "42623360",
					"symbol()": "95d89b41",
					"totalRewards()": "0e15561a",
					"totalSupply()": "18160ddd",
					"transfer(address,uint256)": "a9059cbb",
					"transferFrom(address,address,uint256)": "23b872dd",
					"transferOwnership(address)": "f2fde38b",
					"withdrawReward()": "c885bc58",
					"zenyaPerEth()": "046e2edb"
				}
			},
			"userdoc": {
				"kind": "user",
				"methods": {},
				"version": 1
			}
		}
	}
}