{
	"contracts/ZenyaStake.sol": {
		"ZenyaStake": {
			"abi": [
				{
					"inputs": [],
					"stateMutability": "nonpayable",
					"type": "constructor"
				},
				{
					"anonymous": false,
					"inputs": [
						{
							"indexed": true,
							"internalType": "address",
							"name": "owner",
							"type": "address"
						},
						{
							"indexed": true,
							"internalType": "address",
							"name": "spender",
							"type": "address"
						},
						{
							"indexed": false,
							"internalType": "uint256",
							"name": "value",
							"type": "uint256"
						}
					],
					"name": "Approval",
					"type": "event"
				},
				{
					"anonymous": false,
					"inputs": [
						{
							"indexed": true,
							"internalType": "address",
							"name": "previousOwner",
							"type": "address"
						},
						{
							"indexed": true,
							"internalType": "address",
							"name": "newOwner",
							"type": "address"
						}
					],
					"name": "OwnershipTransferred",
					"type": "event"
				},
				{
					"anonymous": false,
					"inputs": [
						{
							"indexed": true,
							"internalType": "address",
							"name": "from",
							"type": "address"
						},
						{
							"indexed": true,
							"internalType": "address",
							"name": "to",
							"type": "address"
						},
						{
							"indexed": false,
							"internalType": "uint256",
							"name": "value",
							"type": "uint256"
						}
					],
					"name": "Transfer",
					"type": "event"
				},
				{
					"inputs": [],
					"name": "_buyTokenPrice",
					"outputs": [
						{
							"internalType": "uint256",
							"name": "",
							"type": "uint256"
						}
					],
					"stateMutability": "view",
					"type": "function"
				},
				{
					"inputs": [],
					"name": "_owner",
					"outputs": [
						{
							"internalType": "address",
							"name": "",
							"type": "address"
						}
					],
					"stateMutability": "view",
					"type": "function"
				},
				{
					"inputs": [
						{
							"internalType": "address",
							"name": "_stakeholder",
							"type": "address"
						}
					],
					"name": "addStakeholder",
					"outputs": [],
					"stateMutability": "nonpayable",
					"type": "function"
				},
				{
					"inputs": [
						{
							"internalType": "address",
							"name": "owner",
							"type": "address"
						},
						{
							"internalType": "address",
							"name": "spender",
							"type": "address"
						}
					],
					"name": "allowance",
					"outputs": [
						{
							"internalType": "uint256",
							"name": "",
							"type": "uint256"
						}
					],
					"stateMutability": "view",
					"type": "function"
				},
				{
					"inputs": [
						{
							"internalType": "address",
							"name": "spender",
							"type": "address"
						},
						{
							"internalType": "uint256",
							"name": "amount",
							"type": "uint256"
						}
					],
					"name": "approve",
					"outputs": [
						{
							"internalType": "bool",
							"name": "",
							"type": "bool"
						}
					],
					"stateMutability": "nonpayable",
					"type": "function"
				},
				{
					"inputs": [
						{
							"internalType": "address",
							"name": "account",
							"type": "address"
						}
					],
					"name": "balanceOf",
					"outputs": [
						{
							"internalType": "uint256",
							"name": "",
							"type": "uint256"
						}
					],
					"stateMutability": "view",
					"type": "function"
				},
				{
					"inputs": [
						{
							"internalType": "address",
							"name": "receiver",
							"type": "address"
						}
					],
					"name": "buyToken",
					"outputs": [],
					"stateMutability": "payable",
					"type": "function"
				},
				{
					"inputs": [
						{
							"internalType": "address",
							"name": "_stakeholder",
							"type": "address"
						}
					],
					"name": "calculateReward",
					"outputs": [
						{
							"internalType": "uint256",
							"name": "",
							"type": "uint256"
						}
					],
					"stateMutability": "view",
					"type": "function"
				},
				{
					"inputs": [],
					"name": "checkTime",
					"outputs": [
						{
							"internalType": "bool",
							"name": "",
							"type": "bool"
						}
					],
					"stateMutability": "nonpayable",
					"type": "function"
				},
				{
					"inputs": [
						{
							"internalType": "uint256",
							"name": "_stake",
							"type": "uint256"
						},
						{
							"internalType": "uint256",
							"name": "numberOfDays",
							"type": "uint256"
						}
					],
					"name": "createStake",
					"outputs": [],
					"stateMutability": "nonpayable",
					"type": "function"
				},
				{
					"inputs": [],
					"name": "decimals",
					"outputs": [
						{
							"internalType": "uint8",
							"name": "",
							"type": "uint8"
						}
					],
					"stateMutability": "view",
					"type": "function"
				},
				{
					"inputs": [
						{
							"internalType": "address",
							"name": "spender",
							"type": "address"
						},
						{
							"internalType": "uint256",
							"name": "subtractedValue",
							"type": "uint256"
						}
					],
					"name": "decreaseAllowance",
					"outputs": [
						{
							"internalType": "bool",
							"name": "",
							"type": "bool"
						}
					],
					"stateMutability": "nonpayable",
					"type": "function"
				},
				{
					"inputs": [],
					"name": "distributeRewards",
					"outputs": [],
					"stateMutability": "nonpayable",
					"type": "function"
				},
				{
					"inputs": [
						{
							"internalType": "address",
							"name": "spender",
							"type": "address"
						},
						{
							"internalType": "uint256",
							"name": "addedValue",
							"type": "uint256"
						}
					],
					"name": "increaseAllowance",
					"outputs": [
						{
							"internalType": "bool",
							"name": "",
							"type": "bool"
						}
					],
					"stateMutability": "nonpayable",
					"type": "function"
				},
				{
					"inputs": [
						{
							"internalType": "address",
							"name": "_address",
							"type": "address"
						}
					],
					"name": "isStakeholder",
					"outputs": [
						{
							"internalType": "bool",
							"name": "",
							"type": "bool"
						},
						{
							"internalType": "uint256",
							"name": "",
							"type": "uint256"
						}
					],
					"stateMutability": "view",
					"type": "function"
				},
				{
					"inputs": [],
					"name": "name",
					"outputs": [
						{
							"internalType": "string",
							"name": "",
							"type": "string"
						}
					],
					"stateMutability": "view",
					"type": "function"
				},
				{
					"inputs": [],
					"name": "owner",
					"outputs": [
						{
							"internalType": "address",
							"name": "",
							"type": "address"
						}
					],
					"stateMutability": "view",
					"type": "function"
				},
				{
					"inputs": [
						{
							"internalType": "uint256",
							"name": "_stake",
							"type": "uint256"
						}
					],
					"name": "removeStake",
					"outputs": [],
					"stateMutability": "nonpayable",
					"type": "function"
				},
				{
					"inputs": [
						{
							"internalType": "address",
							"name": "_stakeholder",
							"type": "address"
						}
					],
					"name": "removeStakeholder",
					"outputs": [],
					"stateMutability": "nonpayable",
					"type": "function"
				},
				{
					"inputs": [],
					"name": "renounceOwnership",
					"outputs": [],
					"stateMutability": "nonpayable",
					"type": "function"
				},
				{
					"inputs": [
						{
							"internalType": "address",
							"name": "_stakeholder",
							"type": "address"
						}
					],
					"name": "rewardOf",
					"outputs": [
						{
							"internalType": "uint256",
							"name": "",
							"type": "uint256"
						}
					],
					"stateMutability": "view",
					"type": "function"
				},
				{
					"inputs": [
						{
							"internalType": "uint256",
							"name": "buyPrice",
							"type": "uint256"
						}
					],
					"name": "setTokenBuyPrice",
					"outputs": [],
					"stateMutability": "nonpayable",
					"type": "function"
				},
				{
					"inputs": [
						{
							"internalType": "address",
							"name": "_stakeholder",
							"type": "address"
						}
					],
					"name": "stakeOf",
					"outputs": [
						{
							"internalType": "uint256",
							"name": "",
							"type": "uint256"
						}
					],
					"stateMutability": "view",
					"type": "function"
				},
				{
					"inputs": [],
					"name": "symbol",
					"outputs": [
						{
							"internalType": "string",
							"name": "",
							"type": "string"
						}
					],
					"stateMutability": "view",
					"type": "function"
				},
				{
					"inputs": [],
					"name": "totalRewards",
					"outputs": [
						{
							"internalType": "uint256",
							"name": "",
							"type": "uint256"
						}
					],
					"stateMutability": "view",
					"type": "function"
				},
				{
					"inputs": [],
					"name": "totalSupply",
					"outputs": [
						{
							"internalType": "uint256",
							"name": "",
							"type": "uint256"
						}
					],
					"stateMutability": "view",
					"type": "function"
				},
				{
					"inputs": [
						{
							"internalType": "address",
							"name": "to",
							"type": "address"
						},
						{
							"internalType": "uint256",
							"name": "amount",
							"type": "uint256"
						}
					],
					"name": "transfer",
					"outputs": [
						{
							"internalType": "bool",
							"name": "",
							"type": "bool"
						}
					],
					"stateMutability": "nonpayable",
					"type": "function"
				},
				{
					"inputs": [
						{
							"internalType": "address",
							"name": "from",
							"type": "address"
						},
						{
							"internalType": "address",
							"name": "to",
							"type": "address"
						},
						{
							"internalType": "uint256",
							"name": "amount",
							"type": "uint256"
						}
					],
					"name": "transferFrom",
					"outputs": [
						{
							"internalType": "bool",
							"name": "",
							"type": "bool"
						}
					],
					"stateMutability": "nonpayable",
					"type": "function"
				},
				{
					"inputs": [
						{
							"internalType": "address",
							"name": "newOwner",
							"type": "address"
						}
					],
					"name": "transferOwnership",
					"outputs": [],
					"stateMutability": "nonpayable",
					"type": "function"
				},
				{
					"inputs": [],
					"name": "withdrawReward",
					"outputs": [],
					"stateMutability": "nonpayable",
					"type": "function"
				},
				{
					"inputs": [],
					"name": "zenyaPerEth",
					"outputs": [
						{
							"internalType": "uint256",
							"name": "",
							"type": "uint256"
						}
					],
					"stateMutability": "view",
					"type": "function"
				}
			],
			"devdoc": {
				"kind": "dev",
				"methods": {
					"allowance(address,address)": {
						"details": "See {IERC20-allowance}."
					},
					"approve(address,uint256)": {
						"details": "See {IERC20-approve}. NOTE: If `amount` is the maximum `uint256`, the allowance is not updated on `transferFrom`. This is semantically equivalent to an infinite approval. Requirements: - `spender` cannot be the zero address."
					},
					"balanceOf(address)": {
						"details": "See {IERC20-balanceOf}."
					},
					"decimals()": {
						"details": "Returns the number of decimals used to get its user representation. For example, if `decimals` equals `2`, a balance of `505` tokens should be displayed to a user as `5.05` (`505 / 10 ** 2`). Tokens usually opt for a value of 18, imitating the relationship between Ether and Wei. This is the value {ERC20} uses, unless this function is overridden; NOTE: This information is only used for _display_ purposes: it in no way affects any of the arithmetic of the contract, including {IERC20-balanceOf} and {IERC20-transfer}."
					},
					"decreaseAllowance(address,uint256)": {
						"details": "Atomically decreases the allowance granted to `spender` by the caller. This is an alternative to {approve} that can be used as a mitigation for problems described in {IERC20-approve}. Emits an {Approval} event indicating the updated allowance. Requirements: - `spender` cannot be the zero address. - `spender` must have allowance for the caller of at least `subtractedValue`."
					},
					"increaseAllowance(address,uint256)": {
						"details": "Atomically increases the allowance granted to `spender` by the caller. This is an alternative to {approve} that can be used as a mitigation for problems described in {IERC20-approve}. Emits an {Approval} event indicating the updated allowance. Requirements: - `spender` cannot be the zero address."
					},
					"name()": {
						"details": "Returns the name of the token."
					},
					"owner()": {
						"details": "Returns the address of the current owner."
					},
					"renounceOwnership()": {
						"details": "Leaves the contract without owner. It will not be possible to call `onlyOwner` functions anymore. Can only be called by the current owner. NOTE: Renouncing ownership will leave the contract without an owner, thereby removing any functionality that is only available to the owner."
					},
					"symbol()": {
						"details": "Returns the symbol of the token, usually a shorter version of the name."
					},
					"totalSupply()": {
						"details": "See {IERC20-totalSupply}."
					},
					"transfer(address,uint256)": {
						"details": "See {IERC20-transfer}. Requirements: - `to` cannot be the zero address. - the caller must have a balance of at least `amount`."
					},
					"transferFrom(address,address,uint256)": {
						"details": "See {IERC20-transferFrom}. Emits an {Approval} event indicating the updated allowance. This is not required by the EIP. See the note at the beginning of {ERC20}. NOTE: Does not update the allowance if the current allowance is the maximum `uint256`. Requirements: - `from` and `to` cannot be the zero address. - `from` must have a balance of at least `amount`. - the caller must have allowance for ``from``'s tokens of at least `amount`."
					},
					"transferOwnership(address)": {
						"details": "Transfers ownership of the contract to a new account (`newOwner`). Can only be called by the current owner."
					}
				},
				"version": 1
			},
			"evm": {
				"assembly": "    /* \"contracts/ZenyaStake.sol\":173:5408  contract ZenyaStake is ERC20, Ownable  {\r... */\n  mstore(0x40, 0x80)\n    /* \"contracts/ZenyaStake.sol\":958:1061  constructor() ERC20(\"ZenyaStake\", \"ZNYS\") {\r... */\n  callvalue\n  dup1\n  iszero\n  tag_1\n  jumpi\n  0x00\n  dup1\n  revert\ntag_1:\n  pop\n    /* \"@openzeppelin/contracts/token/ERC20/ERC20.sol\":1978:2091  constructor(string memory name_, string memory symbol_) {... */\n  mload(0x40)\n  dup1\n  0x40\n  add\n  0x40\n  mstore\n  dup1\n  0x0a\n  dup2\n  mstore\n  0x20\n  add\n  0x5a656e79615374616b6500000000000000000000000000000000000000000000\n  dup2\n  mstore\n  pop\n  mload(0x40)\n  dup1\n  0x40\n  add\n  0x40\n  mstore\n  dup1\n  0x04\n  dup2\n  mstore\n  0x20\n  add\n  0x5a4e595300000000000000000000000000000000000000000000000000000000\n  dup2\n  mstore\n  pop\n    /* \"@openzeppelin/contracts/token/ERC20/ERC20.sol\":2052:2057  name_ */\n  dup2\n    /* \"@openzeppelin/contracts/token/ERC20/ERC20.sol\":2044:2049  _name */\n  0x03\n    /* \"@openzeppelin/contracts/token/ERC20/ERC20.sol\":2044:2057  _name = name_ */\n  swap1\n  dup1\n  mload\n  swap1\n  0x20\n  add\n  swap1\n  tag_6\n  swap3\n  swap2\n  swap1\n  tag_7\n  jump\t// in\ntag_6:\n  pop\n    /* \"@openzeppelin/contracts/token/ERC20/ERC20.sol\":2077:2084  symbol_ */\n  dup1\n    /* \"@openzeppelin/contracts/token/ERC20/ERC20.sol\":2067:2074  _symbol */\n  0x04\n    /* \"@openzeppelin/contracts/token/ERC20/ERC20.sol\":2067:2084  _symbol = symbol_ */\n  swap1\n  dup1\n  mload\n  swap1\n  0x20\n  add\n  swap1\n  tag_8\n  swap3\n  swap2\n  swap1\n  tag_7\n  jump\t// in\ntag_8:\n  pop\n    /* \"@openzeppelin/contracts/token/ERC20/ERC20.sol\":1978:2091  constructor(string memory name_, string memory symbol_) {... */\n  pop\n  pop\n    /* \"@openzeppelin/contracts/access/Ownable.sol\":921:953  _transferOwnership(_msgSender()) */\n  tag_10\n    /* \"@openzeppelin/contracts/access/Ownable.sol\":940:952  _msgSender() */\n  tag_11\n    /* \"@openzeppelin/contracts/access/Ownable.sol\":940:950  _msgSender */\n  shl(0x20, tag_12)\n    /* \"@openzeppelin/contracts/access/Ownable.sol\":940:952  _msgSender() */\n  0x20\n  shr\n  jump\t// in\ntag_11:\n    /* \"@openzeppelin/contracts/access/Ownable.sol\":921:939  _transferOwnership */\n  shl(0x20, tag_13)\n    /* \"@openzeppelin/contracts/access/Ownable.sol\":921:953  _transferOwnership(_msgSender()) */\n  0x20\n  shr\n  jump\t// in\ntag_10:\n    /* \"contracts/ZenyaStake.sol\":1011:1053  _mint(msg.sender, 1000 * 10 ** decimals()) */\n  tag_15\n    /* \"contracts/ZenyaStake.sol\":1017:1027  msg.sender */\n  caller\n    /* \"contracts/ZenyaStake.sol\":1042:1052  decimals() */\n  tag_16\n    /* \"contracts/ZenyaStake.sol\":1042:1050  decimals */\n  shl(0x20, tag_17)\n    /* \"contracts/ZenyaStake.sol\":1042:1052  decimals() */\n  0x20\n  shr\n  jump\t// in\ntag_16:\n    /* \"contracts/ZenyaStake.sol\":1036:1038  10 */\n  0x0a\n    /* \"contracts/ZenyaStake.sol\":1036:1052  10 ** decimals() */\n  tag_18\n  swap2\n  swap1\n  tag_19\n  jump\t// in\ntag_18:\n    /* \"contracts/ZenyaStake.sol\":1029:1033  1000 */\n  0x03e8\n    /* \"contracts/ZenyaStake.sol\":1029:1052  1000 * 10 ** decimals() */\n  tag_20\n  swap2\n  swap1\n  tag_21\n  jump\t// in\ntag_20:\n    /* \"contracts/ZenyaStake.sol\":1011:1016  _mint */\n  shl(0x20, tag_22)\n    /* \"contracts/ZenyaStake.sol\":1011:1053  _mint(msg.sender, 1000 * 10 ** decimals()) */\n  0x20\n  shr\n  jump\t// in\ntag_15:\n    /* \"contracts/ZenyaStake.sol\":173:5408  contract ZenyaStake is ERC20, Ownable  {\r... */\n  jump(tag_23)\n    /* \"@openzeppelin/contracts/utils/Context.sol\":640:736  function _msgSender() internal view virtual returns (address) {... */\ntag_12:\n    /* \"@openzeppelin/contracts/utils/Context.sol\":693:700  address */\n  0x00\n    /* \"@openzeppelin/contracts/utils/Context.sol\":719:729  msg.sender */\n  caller\n    /* \"@openzeppelin/contracts/utils/Context.sol\":712:729  return msg.sender */\n  swap1\n  pop\n    /* \"@openzeppelin/contracts/utils/Context.sol\":640:736  function _msgSender() internal view virtual returns (address) {... */\n  swap1\n  jump\t// out\n    /* \"@openzeppelin/contracts/access/Ownable.sol\":2270:2457  function _transferOwnership(address newOwner) internal virtual {... */\ntag_13:\n    /* \"@openzeppelin/contracts/access/Ownable.sol\":2343:2359  address oldOwner */\n  0x00\n    /* \"@openzeppelin/contracts/access/Ownable.sol\":2362:2368  _owner */\n  0x05\n  0x00\n  swap1\n  sload\n  swap1\n  0x0100\n  exp\n  swap1\n  div\n  0xffffffffffffffffffffffffffffffffffffffff\n  and\n    /* \"@openzeppelin/contracts/access/Ownable.sol\":2343:2368  address oldOwner = _owner */\n  swap1\n  pop\n    /* \"@openzeppelin/contracts/access/Ownable.sol\":2387:2395  newOwner */\n  dup2\n    /* \"@openzeppelin/contracts/access/Ownable.sol\":2378:2384  _owner */\n  0x05\n  0x00\n    /* \"@openzeppelin/contracts/access/Ownable.sol\":2378:2395  _owner = newOwner */\n  0x0100\n  exp\n  dup2\n  sload\n  dup2\n  0xffffffffffffffffffffffffffffffffffffffff\n  mul\n  not\n  and\n  swap1\n  dup4\n  0xffffffffffffffffffffffffffffffffffffffff\n  and\n  mul\n  or\n  swap1\n  sstore\n  pop\n    /* \"@openzeppelin/contracts/access/Ownable.sol\":2441:2449  newOwner */\n  dup2\n    /* \"@openzeppelin/contracts/access/Ownable.sol\":2410:2450  OwnershipTransferred(oldOwner, newOwner) */\n  0xffffffffffffffffffffffffffffffffffffffff\n  and\n    /* \"@openzeppelin/contracts/access/Ownable.sol\":2431:2439  oldOwner */\n  dup2\n    /* \"@openzeppelin/contracts/access/Ownable.sol\":2410:2450  OwnershipTransferred(oldOwner, newOwner) */\n  0xffffffffffffffffffffffffffffffffffffffff\n  and\n  0x8be0079c531659141344cd1fd0a4f28419497f9722a3daafe3b4186f6b6457e0\n  mload(0x40)\n  mload(0x40)\n  dup1\n  swap2\n  sub\n  swap1\n  log3\n    /* \"@openzeppelin/contracts/access/Ownable.sol\":2333:2457  {... */\n  pop\n    /* \"@openzeppelin/contracts/access/Ownable.sol\":2270:2457  function _transferOwnership(address newOwner) internal virtual {... */\n  pop\n  jump\t// out\n    /* \"@openzeppelin/contracts/token/ERC20/ERC20.sol\":3093:3184  function decimals() public view virtual override returns (uint8) {... */\ntag_17:\n    /* \"@openzeppelin/contracts/token/ERC20/ERC20.sol\":3151:3156  uint8 */\n  0x00\n    /* \"@openzeppelin/contracts/token/ERC20/ERC20.sol\":3175:3177  18 */\n  0x12\n    /* \"@openzeppelin/contracts/token/ERC20/ERC20.sol\":3168:3177  return 18 */\n  swap1\n  pop\n    /* \"@openzeppelin/contracts/token/ERC20/ERC20.sol\":3093:3184  function decimals() public view virtual override returns (uint8) {... */\n  swap1\n  jump\t// out\n    /* \"@openzeppelin/contracts/token/ERC20/ERC20.sol\":8415:8804  function _mint(address account, uint256 amount) internal virtual {... */\ntag_22:\n    /* \"@openzeppelin/contracts/token/ERC20/ERC20.sol\":8517:8518  0 */\n  0x00\n    /* \"@openzeppelin/contracts/token/ERC20/ERC20.sol\":8498:8519  account != address(0) */\n  0xffffffffffffffffffffffffffffffffffffffff\n  and\n    /* \"@openzeppelin/contracts/token/ERC20/ERC20.sol\":8498:8505  account */\n  dup3\n    /* \"@openzeppelin/contracts/token/ERC20/ERC20.sol\":8498:8519  account != address(0) */\n  0xffffffffffffffffffffffffffffffffffffffff\n  and\n  eq\n  iszero\n    /* \"@openzeppelin/contracts/token/ERC20/ERC20.sol\":8490:8555  require(account != address(0), \"ERC20: mint to the zero address\") */\n  tag_28\n  jumpi\n  mload(0x40)\n  0x08c379a000000000000000000000000000000000000000000000000000000000\n  dup2\n  mstore\n  0x04\n  add\n  tag_29\n  swap1\n  tag_30\n  jump\t// in\ntag_29:\n  mload(0x40)\n  dup1\n  swap2\n  sub\n  swap1\n  revert\ntag_28:\n    /* \"@openzeppelin/contracts/token/ERC20/ERC20.sol\":8566:8615  _beforeTokenTransfer(address(0), account, amount) */\n  tag_31\n    /* \"@openzeppelin/contracts/token/ERC20/ERC20.sol\":8595:8596  0 */\n  0x00\n    /* \"@openzeppelin/contracts/token/ERC20/ERC20.sol\":8599:8606  account */\n  dup4\n    /* \"@openzeppelin/contracts/token/ERC20/ERC20.sol\":8608:8614  amount */\n  dup4\n    /* \"@openzeppelin/contracts/token/ERC20/ERC20.sol\":8566:8586  _beforeTokenTransfer */\n  shl(0x20, tag_32)\n    /* \"@openzeppelin/contracts/token/ERC20/ERC20.sol\":8566:8615  _beforeTokenTransfer(address(0), account, amount) */\n  0x20\n  shr\n  jump\t// in\ntag_31:\n    /* \"@openzeppelin/contracts/token/ERC20/ERC20.sol\":8642:8648  amount */\n  dup1\n    /* \"@openzeppelin/contracts/token/ERC20/ERC20.sol\":8626:8638  _totalSupply */\n  0x02\n  0x00\n    /* \"@openzeppelin/contracts/token/ERC20/ERC20.sol\":8626:8648  _totalSupply += amount */\n  dup3\n  dup3\n  sload\n  tag_33\n  swap2\n  swap1\n  tag_34\n  jump\t// in\ntag_33:\n  swap3\n  pop\n  pop\n  dup2\n  swap1\n  sstore\n  pop\n    /* \"@openzeppelin/contracts/token/ERC20/ERC20.sol\":8680:8686  amount */\n  dup1\n    /* \"@openzeppelin/contracts/token/ERC20/ERC20.sol\":8658:8667  _balances */\n  0x00\n    /* \"@openzeppelin/contracts/token/ERC20/ERC20.sol\":8658:8676  _balances[account] */\n  dup1\n    /* \"@openzeppelin/contracts/token/ERC20/ERC20.sol\":8668:8675  account */\n  dup5\n    /* \"@openzeppelin/contracts/token/ERC20/ERC20.sol\":8658:8676  _balances[account] */\n  0xffffffffffffffffffffffffffffffffffffffff\n  and\n  0xffffffffffffffffffffffffffffffffffffffff\n  and\n  dup2\n  mstore\n  0x20\n  add\n  swap1\n  dup2\n  mstore\n  0x20\n  add\n  0x00\n  keccak256\n  0x00\n    /* \"@openzeppelin/contracts/token/ERC20/ERC20.sol\":8658:8686  _balances[account] += amount */\n  dup3\n  dup3\n  sload\n  tag_35\n  swap2\n  swap1\n  tag_34\n  jump\t// in\ntag_35:\n  swap3\n  pop\n  pop\n  dup2\n  swap1\n  sstore\n  pop\n    /* \"@openzeppelin/contracts/token/ERC20/ERC20.sol\":8722:8729  account */\n  dup2\n    /* \"@openzeppelin/contracts/token/ERC20/ERC20.sol\":8701:8738  Transfer(address(0), account, amount) */\n  0xffffffffffffffffffffffffffffffffffffffff\n  and\n    /* \"@openzeppelin/contracts/token/ERC20/ERC20.sol\":8718:8719  0 */\n  0x00\n    /* \"@openzeppelin/contracts/token/ERC20/ERC20.sol\":8701:8738  Transfer(address(0), account, amount) */\n  0xffffffffffffffffffffffffffffffffffffffff\n  and\n  0xddf252ad1be2c89b69c2b068fc378daa952ba7f163c4a11628f55a4df523b3ef\n    /* \"@openzeppelin/contracts/token/ERC20/ERC20.sol\":8731:8737  amount */\n  dup4\n    /* \"@openzeppelin/contracts/token/ERC20/ERC20.sol\":8701:8738  Transfer(address(0), account, amount) */\n  mload(0x40)\n  tag_36\n  swap2\n  swap1\n  tag_37\n  jump\t// in\ntag_36:\n  mload(0x40)\n  dup1\n  swap2\n  sub\n  swap1\n  log3\n    /* \"@openzeppelin/contracts/token/ERC20/ERC20.sol\":8749:8797  _afterTokenTransfer(address(0), account, amount) */\n  tag_38\n    /* \"@openzeppelin/contracts/token/ERC20/ERC20.sol\":8777:8778  0 */\n  0x00\n    /* \"@openzeppelin/contracts/token/ERC20/ERC20.sol\":8781:8788  account */\n  dup4\n    /* \"@openzeppelin/contracts/token/ERC20/ERC20.sol\":8790:8796  amount */\n  dup4\n    /* \"@openzeppelin/contracts/token/ERC20/ERC20.sol\":8749:8768  _afterTokenTransfer */\n  shl(0x20, tag_39)\n    /* \"@openzeppelin/contracts/token/ERC20/ERC20.sol\":8749:8797  _afterTokenTransfer(address(0), account, amount) */\n  0x20\n  shr\n  jump\t// in\ntag_38:\n    /* \"@openzeppelin/contracts/token/ERC20/ERC20.sol\":8415:8804  function _mint(address account, uint256 amount) internal virtual {... */\n  pop\n  pop\n  jump\t// out\n    /* \"@openzeppelin/contracts/token/ERC20/ERC20.sol\":11795:11916  function _beforeTokenTransfer(... */\ntag_32:\n  pop\n  pop\n  pop\n  jump\t// out\n    /* \"@openzeppelin/contracts/token/ERC20/ERC20.sol\":12504:12624  function _afterTokenTransfer(... */\ntag_39:\n  pop\n  pop\n  pop\n  jump\t// out\n    /* \"contracts/ZenyaStake.sol\":173:5408  contract ZenyaStake is ERC20, Ownable  {\r... */\ntag_7:\n  dup3\n  dup1\n  sload\n  tag_42\n  swap1\n  tag_43\n  jump\t// in\ntag_42:\n  swap1\n  0x00\n  mstore\n  keccak256(0x00, 0x20)\n  swap1\n  0x1f\n  add\n  0x20\n  swap1\n  div\n  dup2\n  add\n  swap3\n  dup3\n  tag_45\n  jumpi\n  0x00\n  dup6\n  sstore\n  jump(tag_44)\ntag_45:\n  dup3\n  0x1f\n  lt\n  tag_46\n  jumpi\n  dup1\n  mload\n  not(0xff)\n  and\n  dup4\n  dup1\n  add\n  or\n  dup6\n  sstore\n  jump(tag_44)\ntag_46:\n  dup3\n  dup1\n  add\n  0x01\n  add\n  dup6\n  sstore\n  dup3\n  iszero\n  tag_44\n  jumpi\n  swap2\n  dup3\n  add\ntag_47:\n  dup3\n  dup2\n  gt\n  iszero\n  tag_48\n  jumpi\n  dup3\n  mload\n  dup3\n  sstore\n  swap2\n  0x20\n  add\n  swap2\n  swap1\n  0x01\n  add\n  swap1\n  jump(tag_47)\ntag_48:\ntag_44:\n  pop\n  swap1\n  pop\n  tag_49\n  swap2\n  swap1\n  tag_50\n  jump\t// in\ntag_49:\n  pop\n  swap1\n  jump\t// out\ntag_50:\ntag_51:\n  dup1\n  dup3\n  gt\n  iszero\n  tag_52\n  jumpi\n  0x00\n  dup2\n  0x00\n  swap1\n  sstore\n  pop\n  0x01\n  add\n  jump(tag_51)\ntag_52:\n  pop\n  swap1\n  jump\t// out\n    /* \"#utility.yul\":7:373   */\ntag_54:\n    /* \"#utility.yul\":149:152   */\n  0x00\n    /* \"#utility.yul\":170:237   */\n  tag_56\n    /* \"#utility.yul\":234:236   */\n  0x1f\n    /* \"#utility.yul\":229:232   */\n  dup4\n    /* \"#utility.yul\":170:237   */\n  tag_57\n  jump\t// in\ntag_56:\n    /* \"#utility.yul\":163:237   */\n  swap2\n  pop\n    /* \"#utility.yul\":246:339   */\n  tag_58\n    /* \"#utility.yul\":335:338   */\n  dup3\n    /* \"#utility.yul\":246:339   */\n  tag_59\n  jump\t// in\ntag_58:\n    /* \"#utility.yul\":364:366   */\n  0x20\n    /* \"#utility.yul\":359:362   */\n  dup3\n    /* \"#utility.yul\":355:367   */\n  add\n    /* \"#utility.yul\":348:367   */\n  swap1\n  pop\n    /* \"#utility.yul\":7:373   */\n  swap2\n  swap1\n  pop\n  jump\t// out\n    /* \"#utility.yul\":379:497   */\ntag_60:\n    /* \"#utility.yul\":466:490   */\n  tag_62\n    /* \"#utility.yul\":484:489   */\n  dup2\n    /* \"#utility.yul\":466:490   */\n  tag_63\n  jump\t// in\ntag_62:\n    /* \"#utility.yul\":461:464   */\n  dup3\n    /* \"#utility.yul\":454:491   */\n  mstore\n    /* \"#utility.yul\":379:497   */\n  pop\n  pop\n  jump\t// out\n    /* \"#utility.yul\":503:922   */\ntag_30:\n    /* \"#utility.yul\":669:673   */\n  0x00\n    /* \"#utility.yul\":707:709   */\n  0x20\n    /* \"#utility.yul\":696:705   */\n  dup3\n    /* \"#utility.yul\":692:710   */\n  add\n    /* \"#utility.yul\":684:710   */\n  swap1\n  pop\n    /* \"#utility.yul\":756:765   */\n  dup2\n    /* \"#utility.yul\":750:754   */\n  dup2\n    /* \"#utility.yul\":746:766   */\n  sub\n    /* \"#utility.yul\":742:743   */\n  0x00\n    /* \"#utility.yul\":731:740   */\n  dup4\n    /* \"#utility.yul\":727:744   */\n  add\n    /* \"#utility.yul\":720:767   */\n  mstore\n    /* \"#utility.yul\":784:915   */\n  tag_65\n    /* \"#utility.yul\":910:914   */\n  dup2\n    /* \"#utility.yul\":784:915   */\n  tag_54\n  jump\t// in\ntag_65:\n    /* \"#utility.yul\":776:915   */\n  swap1\n  pop\n    /* \"#utility.yul\":503:922   */\n  swap2\n  swap1\n  pop\n  jump\t// out\n    /* \"#utility.yul\":928:1150   */\ntag_37:\n    /* \"#utility.yul\":1021:1025   */\n  0x00\n    /* \"#utility.yul\":1059:1061   */\n  0x20\n    /* \"#utility.yul\":1048:1057   */\n  dup3\n    /* \"#utility.yul\":1044:1062   */\n  add\n    /* \"#utility.yul\":1036:1062   */\n  swap1\n  pop\n    /* \"#utility.yul\":1072:1143   */\n  tag_67\n    /* \"#utility.yul\":1140:1141   */\n  0x00\n    /* \"#utility.yul\":1129:1138   */\n  dup4\n    /* \"#utility.yul\":1125:1142   */\n  add\n    /* \"#utility.yul\":1116:1122   */\n  dup5\n    /* \"#utility.yul\":1072:1143   */\n  tag_60\n  jump\t// in\ntag_67:\n    /* \"#utility.yul\":928:1150   */\n  swap3\n  swap2\n  pop\n  pop\n  jump\t// out\n    /* \"#utility.yul\":1156:1325   */\ntag_57:\n    /* \"#utility.yul\":1240:1251   */\n  0x00\n    /* \"#utility.yul\":1274:1280   */\n  dup3\n    /* \"#utility.yul\":1269:1272   */\n  dup3\n    /* \"#utility.yul\":1262:1281   */\n  mstore\n    /* \"#utility.yul\":1314:1318   */\n  0x20\n    /* \"#utility.yul\":1309:1312   */\n  dup3\n    /* \"#utility.yul\":1305:1319   */\n  add\n    /* \"#utility.yul\":1290:1319   */\n  swap1\n  pop\n    /* \"#utility.yul\":1156:1325   */\n  swap3\n  swap2\n  pop\n  pop\n  jump\t// out\n    /* \"#utility.yul\":1331:1636   */\ntag_34:\n    /* \"#utility.yul\":1371:1374   */\n  0x00\n    /* \"#utility.yul\":1390:1410   */\n  tag_70\n    /* \"#utility.yul\":1408:1409   */\n  dup3\n    /* \"#utility.yul\":1390:1410   */\n  tag_63\n  jump\t// in\ntag_70:\n    /* \"#utility.yul\":1385:1410   */\n  swap2\n  pop\n    /* \"#utility.yul\":1424:1444   */\n  tag_71\n    /* \"#utility.yul\":1442:1443   */\n  dup4\n    /* \"#utility.yul\":1424:1444   */\n  tag_63\n  jump\t// in\ntag_71:\n    /* \"#utility.yul\":1419:1444   */\n  swap3\n  pop\n    /* \"#utility.yul\":1578:1579   */\n  dup3\n    /* \"#utility.yul\":1510:1576   */\n  0xffffffffffffffffffffffffffffffffffffffffffffffffffffffffffffffff\n    /* \"#utility.yul\":1506:1580   */\n  sub\n    /* \"#utility.yul\":1503:1504   */\n  dup3\n    /* \"#utility.yul\":1500:1581   */\n  gt\n    /* \"#utility.yul\":1497:1604   */\n  iszero\n  tag_72\n  jumpi\n    /* \"#utility.yul\":1584:1602   */\n  tag_73\n  tag_74\n  jump\t// in\ntag_73:\n    /* \"#utility.yul\":1497:1604   */\ntag_72:\n    /* \"#utility.yul\":1628:1629   */\n  dup3\n    /* \"#utility.yul\":1625:1626   */\n  dup3\n    /* \"#utility.yul\":1621:1630   */\n  add\n    /* \"#utility.yul\":1614:1630   */\n  swap1\n  pop\n    /* \"#utility.yul\":1331:1636   */\n  swap3\n  swap2\n  pop\n  pop\n  jump\t// out\n    /* \"#utility.yul\":1642:2490   */\ntag_75:\n    /* \"#utility.yul\":1703:1708   */\n  0x00\n    /* \"#utility.yul\":1710:1714   */\n  dup1\n    /* \"#utility.yul\":1734:1740   */\n  dup3\n    /* \"#utility.yul\":1725:1740   */\n  swap2\n  pop\n    /* \"#utility.yul\":1758:1763   */\n  dup4\n    /* \"#utility.yul\":1749:1763   */\n  swap1\n  pop\n    /* \"#utility.yul\":1772:2484   */\ntag_77:\n    /* \"#utility.yul\":1793:1794   */\n  0x01\n    /* \"#utility.yul\":1783:1791   */\n  dup6\n    /* \"#utility.yul\":1780:1795   */\n  gt\n    /* \"#utility.yul\":1772:2484   */\n  iszero\n  tag_79\n  jumpi\n    /* \"#utility.yul\":1888:1892   */\n  dup1\n    /* \"#utility.yul\":1883:1886   */\n  dup7\n    /* \"#utility.yul\":1879:1893   */\n  div\n    /* \"#utility.yul\":1873:1877   */\n  dup2\n    /* \"#utility.yul\":1870:1894   */\n  gt\n    /* \"#utility.yul\":1867:1917   */\n  iszero\n  tag_80\n  jumpi\n    /* \"#utility.yul\":1897:1915   */\n  tag_81\n  tag_74\n  jump\t// in\ntag_81:\n    /* \"#utility.yul\":1867:1917   */\ntag_80:\n    /* \"#utility.yul\":1947:1948   */\n  0x01\n    /* \"#utility.yul\":1937:1945   */\n  dup6\n    /* \"#utility.yul\":1933:1949   */\n  and\n    /* \"#utility.yul\":1930:2381   */\n  iszero\n  tag_82\n  jumpi\n    /* \"#utility.yul\":2362:2366   */\n  dup1\n    /* \"#utility.yul\":2355:2360   */\n  dup3\n    /* \"#utility.yul\":2351:2367   */\n  mul\n    /* \"#utility.yul\":2342:2367   */\n  swap2\n  pop\n    /* \"#utility.yul\":1930:2381   */\ntag_82:\n    /* \"#utility.yul\":2412:2416   */\n  dup1\n    /* \"#utility.yul\":2406:2410   */\n  dup2\n    /* \"#utility.yul\":2402:2417   */\n  mul\n    /* \"#utility.yul\":2394:2417   */\n  swap1\n  pop\n    /* \"#utility.yul\":2442:2474   */\n  tag_83\n    /* \"#utility.yul\":2465:2473   */\n  dup6\n    /* \"#utility.yul\":2442:2474   */\n  tag_84\n  jump\t// in\ntag_83:\n    /* \"#utility.yul\":2430:2474   */\n  swap5\n  pop\n    /* \"#utility.yul\":1772:2484   */\n  jump(tag_77)\ntag_79:\n    /* \"#utility.yul\":1642:2490   */\n  swap5\n  pop\n  swap5\n  swap3\n  pop\n  pop\n  pop\n  jump\t// out\n    /* \"#utility.yul\":2496:2777   */\ntag_19:\n    /* \"#utility.yul\":2554:2559   */\n  0x00\n    /* \"#utility.yul\":2578:2601   */\n  tag_86\n    /* \"#utility.yul\":2596:2600   */\n  dup3\n    /* \"#utility.yul\":2578:2601   */\n  tag_63\n  jump\t// in\ntag_86:\n    /* \"#utility.yul\":2570:2601   */\n  swap2\n  pop\n    /* \"#utility.yul\":2622:2647   */\n  tag_87\n    /* \"#utility.yul\":2638:2646   */\n  dup4\n    /* \"#utility.yul\":2622:2647   */\n  tag_88\n  jump\t// in\ntag_87:\n    /* \"#utility.yul\":2610:2647   */\n  swap3\n  pop\n    /* \"#utility.yul\":2666:2770   */\n  tag_89\n    /* \"#utility.yul\":2703:2769   */\n  0xffffffffffffffffffffffffffffffffffffffffffffffffffffffffffffffff\n    /* \"#utility.yul\":2693:2701   */\n  dup5\n    /* \"#utility.yul\":2687:2691   */\n  dup5\n    /* \"#utility.yul\":2666:2770   */\n  tag_90\n  jump\t// in\ntag_89:\n    /* \"#utility.yul\":2657:2770   */\n  swap1\n  pop\n    /* \"#utility.yul\":2496:2777   */\n  swap3\n  swap2\n  pop\n  pop\n  jump\t// out\n    /* \"#utility.yul\":2783:3856   */\ntag_90:\n    /* \"#utility.yul\":2837:2842   */\n  0x00\n    /* \"#utility.yul\":3028:3036   */\n  dup3\n    /* \"#utility.yul\":3018:3058   */\n  tag_92\n  jumpi\n    /* \"#utility.yul\":3049:3050   */\n  0x01\n    /* \"#utility.yul\":3040:3050   */\n  swap1\n  pop\n    /* \"#utility.yul\":3051:3056   */\n  jump(tag_91)\n    /* \"#utility.yul\":3018:3058   */\ntag_92:\n    /* \"#utility.yul\":3077:3081   */\n  dup2\n    /* \"#utility.yul\":3067:3103   */\n  tag_93\n  jumpi\n    /* \"#utility.yul\":3094:3095   */\n  0x00\n    /* \"#utility.yul\":3085:3095   */\n  swap1\n  pop\n    /* \"#utility.yul\":3096:3101   */\n  jump(tag_91)\n    /* \"#utility.yul\":3067:3103   */\ntag_93:\n    /* \"#utility.yul\":3163:3167   */\n  dup2\n    /* \"#utility.yul\":3211:3212   */\n  0x01\n    /* \"#utility.yul\":3206:3233   */\n  dup2\n  eq\n  tag_95\n  jumpi\n    /* \"#utility.yul\":3247:3248   */\n  0x02\n    /* \"#utility.yul\":3242:3433   */\n  dup2\n  eq\n  tag_96\n  jumpi\n    /* \"#utility.yul\":3156:3433   */\n  jump(tag_94)\n    /* \"#utility.yul\":3206:3233   */\ntag_95:\n    /* \"#utility.yul\":3224:3225   */\n  0x01\n    /* \"#utility.yul\":3215:3225   */\n  swap2\n  pop\n    /* \"#utility.yul\":3226:3231   */\n  pop\n  jump(tag_91)\n    /* \"#utility.yul\":3242:3433   */\ntag_96:\n    /* \"#utility.yul\":3287:3290   */\n  0xff\n    /* \"#utility.yul\":3277:3285   */\n  dup5\n    /* \"#utility.yul\":3274:3291   */\n  gt\n    /* \"#utility.yul\":3271:3314   */\n  iszero\n  tag_97\n  jumpi\n    /* \"#utility.yul\":3294:3312   */\n  tag_98\n  tag_74\n  jump\t// in\ntag_98:\n    /* \"#utility.yul\":3271:3314   */\ntag_97:\n    /* \"#utility.yul\":3343:3351   */\n  dup4\n    /* \"#utility.yul\":3340:3341   */\n  0x02\n    /* \"#utility.yul\":3336:3352   */\n  exp\n    /* \"#utility.yul\":3327:3352   */\n  swap2\n  pop\n    /* \"#utility.yul\":3378:3381   */\n  dup5\n    /* \"#utility.yul\":3371:3376   */\n  dup3\n    /* \"#utility.yul\":3368:3382   */\n  gt\n    /* \"#utility.yul\":3365:3405   */\n  iszero\n  tag_99\n  jumpi\n    /* \"#utility.yul\":3385:3403   */\n  tag_100\n  tag_74\n  jump\t// in\ntag_100:\n    /* \"#utility.yul\":3365:3405   */\ntag_99:\n    /* \"#utility.yul\":3418:3423   */\n  pop\n  jump(tag_91)\n    /* \"#utility.yul\":3156:3433   */\ntag_94:\n  pop\n    /* \"#utility.yul\":3542:3544   */\n  0x20\n    /* \"#utility.yul\":3532:3540   */\n  dup4\n    /* \"#utility.yul\":3529:3545   */\n  lt\n    /* \"#utility.yul\":3523:3526   */\n  0x0133\n    /* \"#utility.yul\":3517:3521   */\n  dup4\n    /* \"#utility.yul\":3514:3527   */\n  lt\n    /* \"#utility.yul\":3510:3546   */\n  and\n    /* \"#utility.yul\":3492:3494   */\n  0x4e\n    /* \"#utility.yul\":3482:3490   */\n  dup5\n    /* \"#utility.yul\":3479:3495   */\n  lt\n    /* \"#utility.yul\":3474:3476   */\n  0x0b\n    /* \"#utility.yul\":3468:3472   */\n  dup5\n    /* \"#utility.yul\":3465:3477   */\n  lt\n    /* \"#utility.yul\":3461:3496   */\n  and\n    /* \"#utility.yul\":3445:3556   */\n  or\n    /* \"#utility.yul\":3442:3688   */\n  iszero\n  tag_101\n  jumpi\n    /* \"#utility.yul\":3598:3606   */\n  dup3\n    /* \"#utility.yul\":3592:3596   */\n  dup3\n    /* \"#utility.yul\":3588:3607   */\n  exp\n    /* \"#utility.yul\":3579:3607   */\n  swap1\n  pop\n    /* \"#utility.yul\":3633:3636   */\n  dup4\n    /* \"#utility.yul\":3626:3631   */\n  dup2\n    /* \"#utility.yul\":3623:3637   */\n  gt\n    /* \"#utility.yul\":3620:3660   */\n  iszero\n  tag_102\n  jumpi\n    /* \"#utility.yul\":3640:3658   */\n  tag_103\n  tag_74\n  jump\t// in\ntag_103:\n    /* \"#utility.yul\":3620:3660   */\ntag_102:\n    /* \"#utility.yul\":3673:3678   */\n  jump(tag_91)\n    /* \"#utility.yul\":3442:3688   */\ntag_101:\n    /* \"#utility.yul\":3713:3755   */\n  tag_104\n    /* \"#utility.yul\":3751:3754   */\n  dup5\n    /* \"#utility.yul\":3741:3749   */\n  dup5\n    /* \"#utility.yul\":3735:3739   */\n  dup5\n    /* \"#utility.yul\":3732:3733   */\n  0x01\n    /* \"#utility.yul\":3713:3755   */\n  tag_75\n  jump\t// in\ntag_104:\n    /* \"#utility.yul\":3698:3755   */\n  swap3\n  pop\n  swap1\n  pop\n    /* \"#utility.yul\":3787:3791   */\n  dup2\n    /* \"#utility.yul\":3782:3785   */\n  dup5\n    /* \"#utility.yul\":3778:3792   */\n  div\n    /* \"#utility.yul\":3771:3776   */\n  dup2\n    /* \"#utility.yul\":3768:3793   */\n  gt\n    /* \"#utility.yul\":3765:3816   */\n  iszero\n  tag_105\n  jumpi\n    /* \"#utility.yul\":3796:3814   */\n  tag_106\n  tag_74\n  jump\t// in\ntag_106:\n    /* \"#utility.yul\":3765:3816   */\ntag_105:\n    /* \"#utility.yul\":3845:3849   */\n  dup2\n    /* \"#utility.yul\":3838:3843   */\n  dup2\n    /* \"#utility.yul\":3834:3850   */\n  mul\n    /* \"#utility.yul\":3825:3850   */\n  swap1\n  pop\n    /* \"#utility.yul\":2783:3856   */\ntag_91:\n  swap4\n  swap3\n  pop\n  pop\n  pop\n  jump\t// out\n    /* \"#utility.yul\":3862:4210   */\ntag_21:\n    /* \"#utility.yul\":3902:3909   */\n  0x00\n    /* \"#utility.yul\":3925:3945   */\n  tag_108\n    /* \"#utility.yul\":3943:3944   */\n  dup3\n    /* \"#utility.yul\":3925:3945   */\n  tag_63\n  jump\t// in\ntag_108:\n    /* \"#utility.yul\":3920:3945   */\n  swap2\n  pop\n    /* \"#utility.yul\":3959:3979   */\n  tag_109\n    /* \"#utility.yul\":3977:3978   */\n  dup4\n    /* \"#utility.yul\":3959:3979   */\n  tag_63\n  jump\t// in\ntag_109:\n    /* \"#utility.yul\":3954:3979   */\n  swap3\n  pop\n    /* \"#utility.yul\":4147:4148   */\n  dup2\n    /* \"#utility.yul\":4079:4145   */\n  0xffffffffffffffffffffffffffffffffffffffffffffffffffffffffffffffff\n    /* \"#utility.yul\":4075:4149   */\n  div\n    /* \"#utility.yul\":4072:4073   */\n  dup4\n    /* \"#utility.yul\":4069:4150   */\n  gt\n    /* \"#utility.yul\":4064:4065   */\n  dup3\n    /* \"#utility.yul\":4057:4066   */\n  iszero\n    /* \"#utility.yul\":4050:4067   */\n  iszero\n    /* \"#utility.yul\":4046:4151   */\n  and\n    /* \"#utility.yul\":4043:4174   */\n  iszero\n  tag_110\n  jumpi\n    /* \"#utility.yul\":4154:4172   */\n  tag_111\n  tag_74\n  jump\t// in\ntag_111:\n    /* \"#utility.yul\":4043:4174   */\ntag_110:\n    /* \"#utility.yul\":4202:4203   */\n  dup3\n    /* \"#utility.yul\":4199:4200   */\n  dup3\n    /* \"#utility.yul\":4195:4204   */\n  mul\n    /* \"#utility.yul\":4184:4204   */\n  swap1\n  pop\n    /* \"#utility.yul\":3862:4210   */\n  swap3\n  swap2\n  pop\n  pop\n  jump\t// out\n    /* \"#utility.yul\":4216:4293   */\ntag_63:\n    /* \"#utility.yul\":4253:4260   */\n  0x00\n    /* \"#utility.yul\":4282:4287   */\n  dup2\n    /* \"#utility.yul\":4271:4287   */\n  swap1\n  pop\n    /* \"#utility.yul\":4216:4293   */\n  swap2\n  swap1\n  pop\n  jump\t// out\n    /* \"#utility.yul\":4299:4385   */\ntag_88:\n    /* \"#utility.yul\":4334:4341   */\n  0x00\n    /* \"#utility.yul\":4374:4378   */\n  0xff\n    /* \"#utility.yul\":4367:4372   */\n  dup3\n    /* \"#utility.yul\":4363:4379   */\n  and\n    /* \"#utility.yul\":4352:4379   */\n  swap1\n  pop\n    /* \"#utility.yul\":4299:4385   */\n  swap2\n  swap1\n  pop\n  jump\t// out\n    /* \"#utility.yul\":4391:4711   */\ntag_43:\n    /* \"#utility.yul\":4435:4441   */\n  0x00\n    /* \"#utility.yul\":4472:4473   */\n  0x02\n    /* \"#utility.yul\":4466:4470   */\n  dup3\n    /* \"#utility.yul\":4462:4474   */\n  div\n    /* \"#utility.yul\":4452:4474   */\n  swap1\n  pop\n    /* \"#utility.yul\":4519:4520   */\n  0x01\n    /* \"#utility.yul\":4513:4517   */\n  dup3\n    /* \"#utility.yul\":4509:4521   */\n  and\n    /* \"#utility.yul\":4540:4558   */\n  dup1\n    /* \"#utility.yul\":4530:4611   */\n  tag_115\n  jumpi\n    /* \"#utility.yul\":4596:4600   */\n  0x7f\n    /* \"#utility.yul\":4588:4594   */\n  dup3\n    /* \"#utility.yul\":4584:4601   */\n  and\n    /* \"#utility.yul\":4574:4601   */\n  swap2\n  pop\n    /* \"#utility.yul\":4530:4611   */\ntag_115:\n    /* \"#utility.yul\":4658:4660   */\n  0x20\n    /* \"#utility.yul\":4650:4656   */\n  dup3\n    /* \"#utility.yul\":4647:4661   */\n  lt\n    /* \"#utility.yul\":4627:4645   */\n  dup2\n    /* \"#utility.yul\":4624:4662   */\n  eq\n    /* \"#utility.yul\":4621:4705   */\n  iszero\n  tag_116\n  jumpi\n    /* \"#utility.yul\":4677:4695   */\n  tag_117\n  tag_118\n  jump\t// in\ntag_117:\n    /* \"#utility.yul\":4621:4705   */\ntag_116:\n    /* \"#utility.yul\":4442:4711   */\n  pop\n    /* \"#utility.yul\":4391:4711   */\n  swap2\n  swap1\n  pop\n  jump\t// out\n    /* \"#utility.yul\":4717:4897   */\ntag_74:\n    /* \"#utility.yul\":4765:4842   */\n  0x4e487b7100000000000000000000000000000000000000000000000000000000\n    /* \"#utility.yul\":4762:4763   */\n  0x00\n    /* \"#utility.yul\":4755:4843   */\n  mstore\n    /* \"#utility.yul\":4862:4866   */\n  0x11\n    /* \"#utility.yul\":4859:4860   */\n  0x04\n    /* \"#utility.yul\":4852:4867   */\n  mstore\n    /* \"#utility.yul\":4886:4890   */\n  0x24\n    /* \"#utility.yul\":4883:4884   */\n  0x00\n    /* \"#utility.yul\":4876:4891   */\n  revert\n    /* \"#utility.yul\":4903:5083   */\ntag_118:\n    /* \"#utility.yul\":4951:5028   */\n  0x4e487b7100000000000000000000000000000000000000000000000000000000\n    /* \"#utility.yul\":4948:4949   */\n  0x00\n    /* \"#utility.yul\":4941:5029   */\n  mstore\n    /* \"#utility.yul\":5048:5052   */\n  0x22\n    /* \"#utility.yul\":5045:5046   */\n  0x04\n    /* \"#utility.yul\":5038:5053   */\n  mstore\n    /* \"#utility.yul\":5072:5076   */\n  0x24\n    /* \"#utility.yul\":5069:5070   */\n  0x00\n    /* \"#utility.yul\":5062:5077   */\n  revert\n    /* \"#utility.yul\":5089:5191   */\ntag_84:\n    /* \"#utility.yul\":5131:5139   */\n  0x00\n    /* \"#utility.yul\":5178:5183   */\n  dup2\n    /* \"#utility.yul\":5175:5176   */\n  0x01\n    /* \"#utility.yul\":5171:5184   */\n  shr\n    /* \"#utility.yul\":5150:5184   */\n  swap1\n  pop\n    /* \"#utility.yul\":5089:5191   */\n  swap2\n  swap1\n  pop\n  jump\t// out\n    /* \"#utility.yul\":5197:5378   */\ntag_59:\n    /* \"#utility.yul\":5337:5370   */\n  0x45524332303a206d696e7420746f20746865207a65726f206164647265737300\n    /* \"#utility.yul\":5333:5334   */\n  0x00\n    /* \"#utility.yul\":5325:5331   */\n  dup3\n    /* \"#utility.yul\":5321:5335   */\n  add\n    /* \"#utility.yul\":5314:5371   */\n  mstore\n    /* \"#utility.yul\":5197:5378   */\n  pop\n  jump\t// out\n    /* \"contracts/ZenyaStake.sol\":173:5408  contract ZenyaStake is ERC20, Ownable  {\r... */\ntag_23:\n  dataSize(sub_0)\n  dup1\n  dataOffset(sub_0)\n  0x00\n  codecopy\n  0x00\n  return\nstop\n\nsub_0: assembly {\n        /* \"contracts/ZenyaStake.sol\":173:5408  contract ZenyaStake is ERC20, Ownable  {\r... */\n      mstore(0x40, 0x80)\n      jumpi(tag_1, lt(calldatasize, 0x04))\n      shr(0xe0, calldataload(0x00))\n      dup1\n      0x7e72fb52\n      gt\n      tag_33\n      jumpi\n      dup1\n      0xc885bc58\n      gt\n      tag_34\n      jumpi\n      dup1\n      0xe0c6190d\n      gt\n      tag_35\n      jumpi\n      dup1\n      0xe0c6190d\n      eq\n      tag_29\n      jumpi\n      dup1\n      0xe5c42fd1\n      eq\n      tag_30\n      jumpi\n      dup1\n      0xef037b90\n      eq\n      tag_31\n      jumpi\n      dup1\n      0xf2fde38b\n      eq\n      tag_32\n      jumpi\n      jump(tag_1)\n    tag_35:\n      dup1\n      0xc885bc58\n      eq\n      tag_25\n      jumpi\n      dup1\n      0xd7fa023d\n      eq\n      tag_26\n      jumpi\n      dup1\n      0xd82e3962\n      eq\n      tag_27\n      jumpi\n      dup1\n      0xdd62ed3e\n      eq\n      tag_28\n      jumpi\n      jump(tag_1)\n    tag_34:\n      dup1\n      0xa457c2d7\n      gt\n      tag_36\n      jumpi\n      dup1\n      0xa457c2d7\n      eq\n      tag_21\n      jumpi\n      dup1\n      0xa9059cbb\n      eq\n      tag_22\n      jumpi\n      dup1\n      0xb2bdfa7b\n      eq\n      tag_23\n      jumpi\n      dup1\n      0xbcb0c2d7\n      eq\n      tag_24\n      jumpi\n      jump(tag_1)\n    tag_36:\n      dup1\n      0x7e72fb52\n      eq\n      tag_17\n      jumpi\n      dup1\n      0x8da5cb5b\n      eq\n      tag_18\n      jumpi\n      dup1\n      0x939624ab\n      eq\n      tag_19\n      jumpi\n      dup1\n      0x95d89b41\n      eq\n      tag_20\n      jumpi\n      jump(tag_1)\n    tag_33:\n      dup1\n      0x313ce567\n      gt\n      tag_37\n      jumpi\n      dup1\n      0x4be21e33\n      gt\n      tag_38\n      jumpi\n      dup1\n      0x4be21e33\n      eq\n      tag_13\n      jumpi\n      dup1\n      0x6f4a2cd0\n      eq\n      tag_14\n      jumpi\n      dup1\n      0x70a08231\n      eq\n      tag_15\n      jumpi\n      dup1\n      0x715018a6\n      eq\n      tag_16\n      jumpi\n      jump(tag_1)\n    tag_38:\n      dup1\n      0x313ce567\n      eq\n      tag_9\n      jumpi\n      dup1\n      0x35789c8b\n      eq\n      tag_10\n      jumpi\n      dup1\n      0x39509351\n      eq\n      tag_11\n      jumpi\n      dup1\n      0x42623360\n      eq\n      tag_12\n      jumpi\n      jump(tag_1)\n    tag_37:\n      dup1\n      0x0e15561a\n      gt\n      tag_39\n      jumpi\n      dup1\n      0x0e15561a\n      eq\n      tag_5\n      jumpi\n      dup1\n      0x18160ddd\n      eq\n      tag_6\n      jumpi\n      dup1\n      0x1d62ebd9\n      eq\n      tag_7\n      jumpi\n      dup1\n      0x23b872dd\n      eq\n      tag_8\n      jumpi\n      jump(tag_1)\n    tag_39:\n      dup1\n      0x046e2edb\n      eq\n      tag_2\n      jumpi\n      dup1\n      0x06fdde03\n      eq\n      tag_3\n      jumpi\n      dup1\n      0x095ea7b3\n      eq\n      tag_4\n      jumpi\n    tag_1:\n      0x00\n      dup1\n      revert\n        /* \"contracts/ZenyaStake.sol\":524:550  uint256 public zenyaPerEth */\n    tag_2:\n      callvalue\n      dup1\n      iszero\n      tag_40\n      jumpi\n      0x00\n      dup1\n      revert\n    tag_40:\n      pop\n      tag_41\n      tag_42\n      jump\t// in\n    tag_41:\n      mload(0x40)\n      tag_43\n      swap2\n      swap1\n      tag_44\n      jump\t// in\n    tag_43:\n      mload(0x40)\n      dup1\n      swap2\n      sub\n      swap1\n      return\n        /* \"@openzeppelin/contracts/token/ERC20/ERC20.sol\":2156:2254  function name() public view virtual override returns (string memory) {... */\n    tag_3:\n      callvalue\n      dup1\n      iszero\n      tag_45\n      jumpi\n      0x00\n      dup1\n      revert\n    tag_45:\n      pop\n      tag_46\n      tag_47\n      jump\t// in\n    tag_46:\n      mload(0x40)\n      tag_48\n      swap2\n      swap1\n      tag_49\n      jump\t// in\n    tag_48:\n      mload(0x40)\n      dup1\n      swap2\n      sub\n      swap1\n      return\n        /* \"@openzeppelin/contracts/token/ERC20/ERC20.sol\":4433:4630  function approve(address spender, uint256 amount) public virtual override returns (bool) {... */\n    tag_4:\n      callvalue\n      dup1\n      iszero\n      tag_50\n      jumpi\n      0x00\n      dup1\n      revert\n    tag_50:\n      pop\n      tag_51\n      0x04\n      dup1\n      calldatasize\n      sub\n      dup2\n      add\n      swap1\n      tag_52\n      swap2\n      swap1\n      tag_53\n      jump\t// in\n    tag_52:\n      tag_54\n      jump\t// in\n    tag_51:\n      mload(0x40)\n      tag_55\n      swap2\n      swap1\n      tag_56\n      jump\t// in\n    tag_55:\n      mload(0x40)\n      dup1\n      swap2\n      sub\n      swap1\n      return\n        /* \"contracts/ZenyaStake.sol\":4048:4320  function totalRewards() public view returns(uint256){\r... */\n    tag_5:\n      callvalue\n      dup1\n      iszero\n      tag_57\n      jumpi\n      0x00\n      dup1\n      revert\n    tag_57:\n      pop\n      tag_58\n      tag_59\n      jump\t// in\n    tag_58:\n      mload(0x40)\n      tag_60\n      swap2\n      swap1\n      tag_44\n      jump\t// in\n    tag_60:\n      mload(0x40)\n      dup1\n      swap2\n      sub\n      swap1\n      return\n        /* \"@openzeppelin/contracts/token/ERC20/ERC20.sol\":3244:3350  function totalSupply() public view virtual override returns (uint256) {... */\n    tag_6:\n      callvalue\n      dup1\n      iszero\n      tag_61\n      jumpi\n      0x00\n      dup1\n      revert\n    tag_61:\n      pop\n      tag_62\n      tag_63\n      jump\t// in\n    tag_62:\n      mload(0x40)\n      tag_64\n      swap2\n      swap1\n      tag_44\n      jump\t// in\n    tag_64:\n      mload(0x40)\n      dup1\n      swap2\n      sub\n      swap1\n      return\n        /* \"contracts/ZenyaStake.sol\":3853:3969  function rewardOf(address _stakeholder) public view returns(uint256) {\r... */\n    tag_7:\n      callvalue\n      dup1\n      iszero\n      tag_65\n      jumpi\n      0x00\n      dup1\n      revert\n    tag_65:\n      pop\n      tag_66\n      0x04\n      dup1\n      calldatasize\n      sub\n      dup2\n      add\n      swap1\n      tag_67\n      swap2\n      swap1\n      tag_68\n      jump\t// in\n    tag_67:\n      tag_69\n      jump\t// in\n    tag_66:\n      mload(0x40)\n      tag_70\n      swap2\n      swap1\n      tag_44\n      jump\t// in\n    tag_70:\n      mload(0x40)\n      dup1\n      swap2\n      sub\n      swap1\n      return\n        /* \"@openzeppelin/contracts/token/ERC20/ERC20.sol\":5192:5478  function transferFrom(... */\n    tag_8:\n      callvalue\n      dup1\n      iszero\n      tag_71\n      jumpi\n      0x00\n      dup1\n      revert\n    tag_71:\n      pop\n      tag_72\n      0x04\n      dup1\n      calldatasize\n      sub\n      dup2\n      add\n      swap1\n      tag_73\n      swap2\n      swap1\n      tag_74\n      jump\t// in\n    tag_73:\n      tag_75\n      jump\t// in\n    tag_72:\n      mload(0x40)\n      tag_76\n      swap2\n      swap1\n      tag_56\n      jump\t// in\n    tag_76:\n      mload(0x40)\n      dup1\n      swap2\n      sub\n      swap1\n      return\n        /* \"@openzeppelin/contracts/token/ERC20/ERC20.sol\":3093:3184  function decimals() public view virtual override returns (uint8) {... */\n    tag_9:\n      callvalue\n      dup1\n      iszero\n      tag_77\n      jumpi\n      0x00\n      dup1\n      revert\n    tag_77:\n      pop\n      tag_78\n      tag_79\n      jump\t// in\n    tag_78:\n      mload(0x40)\n      tag_80\n      swap2\n      swap1\n      tag_81\n      jump\t// in\n    tag_80:\n      mload(0x40)\n      dup1\n      swap2\n      sub\n      swap1\n      return\n        /* \"contracts/ZenyaStake.sol\":401:430  uint256 public _buyTokenPrice */\n    tag_10:\n      callvalue\n      dup1\n      iszero\n      tag_82\n      jumpi\n      0x00\n      dup1\n      revert\n    tag_82:\n      pop\n      tag_83\n      tag_84\n      jump\t// in\n    tag_83:\n      mload(0x40)\n      tag_85\n      swap2\n      swap1\n      tag_44\n      jump\t// in\n    tag_85:\n      mload(0x40)\n      dup1\n      swap2\n      sub\n      swap1\n      return\n        /* \"@openzeppelin/contracts/token/ERC20/ERC20.sol\":5873:6109  function increaseAllowance(address spender, uint256 addedValue) public virtual returns (bool) {... */\n    tag_11:\n      callvalue\n      dup1\n      iszero\n      tag_86\n      jumpi\n      0x00\n      dup1\n      revert\n    tag_86:\n      pop\n      tag_87\n      0x04\n      dup1\n      calldatasize\n      sub\n      dup2\n      add\n      swap1\n      tag_88\n      swap2\n      swap1\n      tag_53\n      jump\t// in\n    tag_88:\n      tag_89\n      jump\t// in\n    tag_87:\n      mload(0x40)\n      tag_90\n      swap2\n      swap1\n      tag_56\n      jump\t// in\n    tag_90:\n      mload(0x40)\n      dup1\n      swap2\n      sub\n      swap1\n      return\n        /* \"contracts/ZenyaStake.sol\":2960:3074  function stakeOf(address _stakeholder) public view returns(uint256) {\r... */\n    tag_12:\n      callvalue\n      dup1\n      iszero\n      tag_91\n      jumpi\n      0x00\n      dup1\n      revert\n    tag_91:\n      pop\n      tag_92\n      0x04\n      dup1\n      calldatasize\n      sub\n      dup2\n      add\n      swap1\n      tag_93\n      swap2\n      swap1\n      tag_68\n      jump\t// in\n    tag_93:\n      tag_94\n      jump\t// in\n    tag_92:\n      mload(0x40)\n      tag_95\n      swap2\n      swap1\n      tag_44\n      jump\t// in\n    tag_95:\n      mload(0x40)\n      dup1\n      swap2\n      sub\n      swap1\n      return\n        /* \"contracts/ZenyaStake.sol\":1158:1343  function setTokenBuyPrice (uint256 buyPrice) public {\r... */\n    tag_13:\n      callvalue\n      dup1\n      iszero\n      tag_96\n      jumpi\n      0x00\n      dup1\n      revert\n    tag_96:\n      pop\n      tag_97\n      0x04\n      dup1\n      calldatasize\n      sub\n      dup2\n      add\n      swap1\n      tag_98\n      swap2\n      swap1\n      tag_99\n      jump\t// in\n    tag_98:\n      tag_100\n      jump\t// in\n    tag_97:\n      stop\n        /* \"contracts/ZenyaStake.sol\":4595:4893  function distributeRewards() public  {\r... */\n    tag_14:\n      callvalue\n      dup1\n      iszero\n      tag_101\n      jumpi\n      0x00\n      dup1\n      revert\n    tag_101:\n      pop\n      tag_102\n      tag_103\n      jump\t// in\n    tag_102:\n      stop\n        /* \"@openzeppelin/contracts/token/ERC20/ERC20.sol\":3408:3533  function balanceOf(address account) public view virtual override returns (uint256) {... */\n    tag_15:\n      callvalue\n      dup1\n      iszero\n      tag_104\n      jumpi\n      0x00\n      dup1\n      revert\n    tag_104:\n      pop\n      tag_105\n      0x04\n      dup1\n      calldatasize\n      sub\n      dup2\n      add\n      swap1\n      tag_106\n      swap2\n      swap1\n      tag_68\n      jump\t// in\n    tag_106:\n      tag_107\n      jump\t// in\n    tag_105:\n      mload(0x40)\n      tag_108\n      swap2\n      swap1\n      tag_44\n      jump\t// in\n    tag_108:\n      mload(0x40)\n      dup1\n      swap2\n      sub\n      swap1\n      return\n        /* \"@openzeppelin/contracts/access/Ownable.sol\":1668:1769  function renounceOwnership() public virtual onlyOwner {... */\n    tag_16:\n      callvalue\n      dup1\n      iszero\n      tag_109\n      jumpi\n      0x00\n      dup1\n      revert\n    tag_109:\n      pop\n      tag_110\n      tag_111\n      jump\t// in\n    tag_110:\n      stop\n        /* \"contracts/ZenyaStake.sol\":1489:1950  function buyToken(address receiver) public payable{\r... */\n    tag_17:\n      tag_112\n      0x04\n      dup1\n      calldatasize\n      sub\n      dup2\n      add\n      swap1\n      tag_113\n      swap2\n      swap1\n      tag_68\n      jump\t// in\n    tag_113:\n      tag_114\n      jump\t// in\n    tag_112:\n      stop\n        /* \"@openzeppelin/contracts/access/Ownable.sol\":1036:1121  function owner() public view virtual returns (address) {... */\n    tag_18:\n      callvalue\n      dup1\n      iszero\n      tag_115\n      jumpi\n      0x00\n      dup1\n      revert\n    tag_115:\n      pop\n      tag_116\n      tag_117\n      jump\t// in\n    tag_116:\n      mload(0x40)\n      tag_118\n      swap2\n      swap1\n      tag_119\n      jump\t// in\n    tag_118:\n      mload(0x40)\n      dup1\n      swap2\n      sub\n      swap1\n      return\n        /* \"contracts/ZenyaStake.sol\":3515:3730  function removeStake(uint256 _stake) public {\r... */\n    tag_19:\n      callvalue\n      dup1\n      iszero\n      tag_120\n      jumpi\n      0x00\n      dup1\n      revert\n    tag_120:\n      pop\n      tag_121\n      0x04\n      dup1\n      calldatasize\n      sub\n      dup2\n      add\n      swap1\n      tag_122\n      swap2\n      swap1\n      tag_99\n      jump\t// in\n    tag_122:\n      tag_123\n      jump\t// in\n    tag_121:\n      stop\n        /* \"@openzeppelin/contracts/token/ERC20/ERC20.sol\":2367:2469  function symbol() public view virtual override returns (string memory) {... */\n    tag_20:\n      callvalue\n      dup1\n      iszero\n      tag_124\n      jumpi\n      0x00\n      dup1\n      revert\n    tag_124:\n      pop\n      tag_125\n      tag_126\n      jump\t// in\n    tag_125:\n      mload(0x40)\n      tag_127\n      swap2\n      swap1\n      tag_49\n      jump\t// in\n    tag_127:\n      mload(0x40)\n      dup1\n      swap2\n      sub\n      swap1\n      return\n        /* \"@openzeppelin/contracts/token/ERC20/ERC20.sol\":6596:7025  function decreaseAllowance(address spender, uint256 subtractedValue) public virtual returns (bool) {... */\n    tag_21:\n      callvalue\n      dup1\n      iszero\n      tag_128\n      jumpi\n      0x00\n      dup1\n      revert\n    tag_128:\n      pop\n      tag_129\n      0x04\n      dup1\n      calldatasize\n      sub\n      dup2\n      add\n      swap1\n      tag_130\n      swap2\n      swap1\n      tag_53\n      jump\t// in\n    tag_130:\n      tag_131\n      jump\t// in\n    tag_129:\n      mload(0x40)\n      tag_132\n      swap2\n      swap1\n      tag_56\n      jump\t// in\n    tag_132:\n      mload(0x40)\n      dup1\n      swap2\n      sub\n      swap1\n      return\n        /* \"@openzeppelin/contracts/token/ERC20/ERC20.sol\":3729:3918  function transfer(address to, uint256 amount) public virtual override returns (bool) {... */\n    tag_22:\n      callvalue\n      dup1\n      iszero\n      tag_133\n      jumpi\n      0x00\n      dup1\n      revert\n    tag_133:\n      pop\n      tag_134\n      0x04\n      dup1\n      calldatasize\n      sub\n      dup2\n      add\n      swap1\n      tag_135\n      swap2\n      swap1\n      tag_53\n      jump\t// in\n    tag_135:\n      tag_136\n      jump\t// in\n    tag_134:\n      mload(0x40)\n      tag_137\n      swap2\n      swap1\n      tag_56\n      jump\t// in\n    tag_137:\n      mload(0x40)\n      dup1\n      swap2\n      sub\n      swap1\n      return\n        /* \"contracts/ZenyaStake.sol\":288:309  address public _owner */\n    tag_23:\n      callvalue\n      dup1\n      iszero\n      tag_138\n      jumpi\n      0x00\n      dup1\n      revert\n    tag_138:\n      pop\n      tag_139\n      tag_140\n      jump\t// in\n    tag_139:\n      mload(0x40)\n      tag_141\n      swap2\n      swap1\n      tag_119\n      jump\t// in\n    tag_141:\n      mload(0x40)\n      dup1\n      swap2\n      sub\n      swap1\n      return\n        /* \"contracts/ZenyaStake.sol\":2615:2895  function removeStakeholder(address _stakeholder) public {\r... */\n    tag_24:\n      callvalue\n      dup1\n      iszero\n      tag_142\n      jumpi\n      0x00\n      dup1\n      revert\n    tag_142:\n      pop\n      tag_143\n      0x04\n      dup1\n      calldatasize\n      sub\n      dup2\n      add\n      swap1\n      tag_144\n      swap2\n      swap1\n      tag_68\n      jump\t// in\n    tag_144:\n      tag_145\n      jump\t// in\n    tag_143:\n      stop\n        /* \"contracts/ZenyaStake.sol\":4965:5159  function withdrawReward() public {\r... */\n    tag_25:\n      callvalue\n      dup1\n      iszero\n      tag_146\n      jumpi\n      0x00\n      dup1\n      revert\n    tag_146:\n      pop\n      tag_147\n      tag_148\n      jump\t// in\n    tag_147:\n      stop\n        /* \"contracts/ZenyaStake.sol\":3135:3454  function createStake(uint256 _stake, uint numberOfDays) public {\r... */\n    tag_26:\n      callvalue\n      dup1\n      iszero\n      tag_149\n      jumpi\n      0x00\n      dup1\n      revert\n    tag_149:\n      pop\n      tag_150\n      0x04\n      dup1\n      calldatasize\n      sub\n      dup2\n      add\n      swap1\n      tag_151\n      swap2\n      swap1\n      tag_152\n      jump\t// in\n    tag_151:\n      tag_153\n      jump\t// in\n    tag_150:\n      stop\n        /* \"contracts/ZenyaStake.sol\":4401:4528  function calculateReward(address _stakeholder) public view returns(uint256){\r... */\n    tag_27:\n      callvalue\n      dup1\n      iszero\n      tag_154\n      jumpi\n      0x00\n      dup1\n      revert\n    tag_154:\n      pop\n      tag_155\n      0x04\n      dup1\n      calldatasize\n      sub\n      dup2\n      add\n      swap1\n      tag_156\n      swap2\n      swap1\n      tag_68\n      jump\t// in\n    tag_156:\n      tag_157\n      jump\t// in\n    tag_155:\n      mload(0x40)\n      tag_158\n      swap2\n      swap1\n      tag_44\n      jump\t// in\n    tag_158:\n      mload(0x40)\n      dup1\n      swap2\n      sub\n      swap1\n      return\n        /* \"@openzeppelin/contracts/token/ERC20/ERC20.sol\":3976:4125  function allowance(address owner, address spender) public view virtual override returns (uint256) {... */\n    tag_28:\n      callvalue\n      dup1\n      iszero\n      tag_159\n      jumpi\n      0x00\n      dup1\n      revert\n    tag_159:\n      pop\n      tag_160\n      0x04\n      dup1\n      calldatasize\n      sub\n      dup2\n      add\n      swap1\n      tag_161\n      swap2\n      swap1\n      tag_162\n      jump\t// in\n    tag_161:\n      tag_163\n      jump\t// in\n    tag_160:\n      mload(0x40)\n      tag_164\n      swap2\n      swap1\n      tag_44\n      jump\t// in\n    tag_164:\n      mload(0x40)\n      dup1\n      swap2\n      sub\n      swap1\n      return\n        /* \"contracts/ZenyaStake.sol\":5167:5405  function checkTime() public returns (bool){\r... */\n    tag_29:\n      callvalue\n      dup1\n      iszero\n      tag_165\n      jumpi\n      0x00\n      dup1\n      revert\n    tag_165:\n      pop\n      tag_166\n      tag_167\n      jump\t// in\n    tag_166:\n      mload(0x40)\n      tag_168\n      swap2\n      swap1\n      tag_56\n      jump\t// in\n    tag_168:\n      mload(0x40)\n      dup1\n      swap2\n      sub\n      swap1\n      return\n        /* \"contracts/ZenyaStake.sol\":2381:2566  function addStakeholder(address _stakeholder) public {\r... */\n    tag_30:\n      callvalue\n      dup1\n      iszero\n      tag_169\n      jumpi\n      0x00\n      dup1\n      revert\n    tag_169:\n      pop\n      tag_170\n      0x04\n      dup1\n      calldatasize\n      sub\n      dup2\n      add\n      swap1\n      tag_171\n      swap2\n      swap1\n      tag_68\n      jump\t// in\n    tag_171:\n      tag_172\n      jump\t// in\n    tag_170:\n      stop\n        /* \"contracts/ZenyaStake.sol\":2086:2335  function isStakeholder(address _address) public view returns(bool, uint256) {\r... */\n    tag_31:\n      callvalue\n      dup1\n      iszero\n      tag_173\n      jumpi\n      0x00\n      dup1\n      revert\n    tag_173:\n      pop\n      tag_174\n      0x04\n      dup1\n      calldatasize\n      sub\n      dup2\n      add\n      swap1\n      tag_175\n      swap2\n      swap1\n      tag_68\n      jump\t// in\n    tag_175:\n      tag_176\n      jump\t// in\n    tag_174:\n      mload(0x40)\n      tag_177\n      swap3\n      swap2\n      swap1\n      tag_178\n      jump\t// in\n    tag_177:\n      mload(0x40)\n      dup1\n      swap2\n      sub\n      swap1\n      return\n        /* \"@openzeppelin/contracts/access/Ownable.sol\":1918:2116  function transferOwnership(address newOwner) public virtual onlyOwner {... */\n    tag_32:\n      callvalue\n      dup1\n      iszero\n      tag_179\n      jumpi\n      0x00\n      dup1\n      revert\n    tag_179:\n      pop\n      tag_180\n      0x04\n      dup1\n      calldatasize\n      sub\n      dup2\n      add\n      swap1\n      tag_181\n      swap2\n      swap1\n      tag_68\n      jump\t// in\n    tag_181:\n      tag_182\n      jump\t// in\n    tag_180:\n      stop\n        /* \"contracts/ZenyaStake.sol\":524:550  uint256 public zenyaPerEth */\n    tag_42:\n      sload(0x08)\n      dup2\n      jump\t// out\n        /* \"@openzeppelin/contracts/token/ERC20/ERC20.sol\":2156:2254  function name() public view virtual override returns (string memory) {... */\n    tag_47:\n        /* \"@openzeppelin/contracts/token/ERC20/ERC20.sol\":2210:2223  string memory */\n      0x60\n        /* \"@openzeppelin/contracts/token/ERC20/ERC20.sol\":2242:2247  _name */\n      0x03\n        /* \"@openzeppelin/contracts/token/ERC20/ERC20.sol\":2235:2247  return _name */\n      dup1\n      sload\n      tag_184\n      swap1\n      tag_185\n      jump\t// in\n    tag_184:\n      dup1\n      0x1f\n      add\n      0x20\n      dup1\n      swap2\n      div\n      mul\n      0x20\n      add\n      mload(0x40)\n      swap1\n      dup2\n      add\n      0x40\n      mstore\n      dup1\n      swap3\n      swap2\n      swap1\n      dup2\n      dup2\n      mstore\n      0x20\n      add\n      dup3\n      dup1\n      sload\n      tag_186\n      swap1\n      tag_185\n      jump\t// in\n    tag_186:\n      dup1\n      iszero\n      tag_187\n      jumpi\n      dup1\n      0x1f\n      lt\n      tag_188\n      jumpi\n      0x0100\n      dup1\n      dup4\n      sload\n      div\n      mul\n      dup4\n      mstore\n      swap2\n      0x20\n      add\n      swap2\n      jump(tag_187)\n    tag_188:\n      dup3\n      add\n      swap2\n      swap1\n      0x00\n      mstore\n      keccak256(0x00, 0x20)\n      swap1\n    tag_189:\n      dup2\n      sload\n      dup2\n      mstore\n      swap1\n      0x01\n      add\n      swap1\n      0x20\n      add\n      dup1\n      dup4\n      gt\n      tag_189\n      jumpi\n      dup3\n      swap1\n      sub\n      0x1f\n      and\n      dup3\n      add\n      swap2\n    tag_187:\n      pop\n      pop\n      pop\n      pop\n      pop\n      swap1\n      pop\n        /* \"@openzeppelin/contracts/token/ERC20/ERC20.sol\":2156:2254  function name() public view virtual override returns (string memory) {... */\n      swap1\n      jump\t// out\n        /* \"@openzeppelin/contracts/token/ERC20/ERC20.sol\":4433:4630  function approve(address spender, uint256 amount) public virtual override returns (bool) {... */\n    tag_54:\n        /* \"@openzeppelin/contracts/token/ERC20/ERC20.sol\":4516:4520  bool */\n      0x00\n        /* \"@openzeppelin/contracts/token/ERC20/ERC20.sol\":4532:4545  address owner */\n      dup1\n        /* \"@openzeppelin/contracts/token/ERC20/ERC20.sol\":4548:4560  _msgSender() */\n      tag_191\n        /* \"@openzeppelin/contracts/token/ERC20/ERC20.sol\":4548:4558  _msgSender */\n      tag_192\n        /* \"@openzeppelin/contracts/token/ERC20/ERC20.sol\":4548:4560  _msgSender() */\n      jump\t// in\n    tag_191:\n        /* \"@openzeppelin/contracts/token/ERC20/ERC20.sol\":4532:4560  address owner = _msgSender() */\n      swap1\n      pop\n        /* \"@openzeppelin/contracts/token/ERC20/ERC20.sol\":4570:4602  _approve(owner, spender, amount) */\n      tag_193\n        /* \"@openzeppelin/contracts/token/ERC20/ERC20.sol\":4579:4584  owner */\n      dup2\n        /* \"@openzeppelin/contracts/token/ERC20/ERC20.sol\":4586:4593  spender */\n      dup6\n        /* \"@openzeppelin/contracts/token/ERC20/ERC20.sol\":4595:4601  amount */\n      dup6\n        /* \"@openzeppelin/contracts/token/ERC20/ERC20.sol\":4570:4578  _approve */\n      tag_194\n        /* \"@openzeppelin/contracts/token/ERC20/ERC20.sol\":4570:4602  _approve(owner, spender, amount) */\n      jump\t// in\n    tag_193:\n        /* \"@openzeppelin/contracts/token/ERC20/ERC20.sol\":4619:4623  true */\n      0x01\n        /* \"@openzeppelin/contracts/token/ERC20/ERC20.sol\":4612:4623  return true */\n      swap2\n      pop\n      pop\n        /* \"@openzeppelin/contracts/token/ERC20/ERC20.sol\":4433:4630  function approve(address spender, uint256 amount) public virtual override returns (bool) {... */\n      swap3\n      swap2\n      pop\n      pop\n      jump\t// out\n        /* \"contracts/ZenyaStake.sol\":4048:4320  function totalRewards() public view returns(uint256){\r... */\n    tag_59:\n        /* \"contracts/ZenyaStake.sol\":4092:4099  uint256 */\n      0x00\n        /* \"contracts/ZenyaStake.sol\":4111:4132  uint256 _totalRewards */\n      dup1\n        /* \"contracts/ZenyaStake.sol\":4135:4136  0 */\n      0x00\n        /* \"contracts/ZenyaStake.sol\":4111:4136  uint256 _totalRewards = 0 */\n      swap1\n      pop\n        /* \"contracts/ZenyaStake.sol\":4152:4161  uint256 s */\n      0x00\n        /* \"contracts/ZenyaStake.sol\":4147:4282  for (uint256 s = 0; s < stakeholders.length; s += 1){\r... */\n    tag_196:\n        /* \"contracts/ZenyaStake.sol\":4171:4183  stakeholders */\n      0x0a\n        /* \"contracts/ZenyaStake.sol\":4171:4190  stakeholders.length */\n      dup1\n      sload\n      swap1\n      pop\n        /* \"contracts/ZenyaStake.sol\":4167:4168  s */\n      dup2\n        /* \"contracts/ZenyaStake.sol\":4167:4190  s < stakeholders.length */\n      lt\n        /* \"contracts/ZenyaStake.sol\":4147:4282  for (uint256 s = 0; s < stakeholders.length; s += 1){\r... */\n      iszero\n      tag_197\n      jumpi\n        /* \"contracts/ZenyaStake.sol\":4246:4253  rewards */\n      0x0b\n        /* \"contracts/ZenyaStake.sol\":4246:4270  rewards[stakeholders[s]] */\n      0x00\n        /* \"contracts/ZenyaStake.sol\":4254:4266  stakeholders */\n      0x0a\n        /* \"contracts/ZenyaStake.sol\":4267:4268  s */\n      dup4\n        /* \"contracts/ZenyaStake.sol\":4254:4269  stakeholders[s] */\n      dup2\n      sload\n      dup2\n      lt\n      tag_199\n      jumpi\n      tag_200\n      tag_201\n      jump\t// in\n    tag_200:\n    tag_199:\n      swap1\n      0x00\n      mstore\n      keccak256(0x00, 0x20)\n      add\n      0x00\n      swap1\n      sload\n      swap1\n      0x0100\n      exp\n      swap1\n      div\n      0xffffffffffffffffffffffffffffffffffffffff\n      and\n        /* \"contracts/ZenyaStake.sol\":4246:4270  rewards[stakeholders[s]] */\n      0xffffffffffffffffffffffffffffffffffffffff\n      and\n      0xffffffffffffffffffffffffffffffffffffffff\n      and\n      dup2\n      mstore\n      0x20\n      add\n      swap1\n      dup2\n      mstore\n      0x20\n      add\n      0x00\n      keccak256\n      sload\n        /* \"contracts/ZenyaStake.sol\":4230:4243  _totalRewards */\n      dup3\n        /* \"contracts/ZenyaStake.sol\":4230:4270  _totalRewards + rewards[stakeholders[s]] */\n      tag_203\n      swap2\n      swap1\n      tag_204\n      jump\t// in\n    tag_203:\n        /* \"contracts/ZenyaStake.sol\":4214:4270  _totalRewards = _totalRewards + rewards[stakeholders[s]] */\n      swap2\n      pop\n        /* \"contracts/ZenyaStake.sol\":4197:4198  1 */\n      0x01\n        /* \"contracts/ZenyaStake.sol\":4192:4198  s += 1 */\n      dup2\n      tag_205\n      swap2\n      swap1\n      tag_204\n      jump\t// in\n    tag_205:\n      swap1\n      pop\n        /* \"contracts/ZenyaStake.sol\":4147:4282  for (uint256 s = 0; s < stakeholders.length; s += 1){\r... */\n      jump(tag_196)\n    tag_197:\n      pop\n        /* \"contracts/ZenyaStake.sol\":4299:4312  _totalRewards */\n      dup1\n        /* \"contracts/ZenyaStake.sol\":4292:4312  return _totalRewards */\n      swap2\n      pop\n      pop\n        /* \"contracts/ZenyaStake.sol\":4048:4320  function totalRewards() public view returns(uint256){\r... */\n      swap1\n      jump\t// out\n        /* \"@openzeppelin/contracts/token/ERC20/ERC20.sol\":3244:3350  function totalSupply() public view virtual override returns (uint256) {... */\n    tag_63:\n        /* \"@openzeppelin/contracts/token/ERC20/ERC20.sol\":3305:3312  uint256 */\n      0x00\n        /* \"@openzeppelin/contracts/token/ERC20/ERC20.sol\":3331:3343  _totalSupply */\n      sload(0x02)\n        /* \"@openzeppelin/contracts/token/ERC20/ERC20.sol\":3324:3343  return _totalSupply */\n      swap1\n      pop\n        /* \"@openzeppelin/contracts/token/ERC20/ERC20.sol\":3244:3350  function totalSupply() public view virtual override returns (uint256) {... */\n      swap1\n      jump\t// out\n        /* \"contracts/ZenyaStake.sol\":3853:3969  function rewardOf(address _stakeholder) public view returns(uint256) {\r... */\n    tag_69:\n        /* \"contracts/ZenyaStake.sol\":3913:3920  uint256 */\n      0x00\n        /* \"contracts/ZenyaStake.sol\":3940:3947  rewards */\n      0x0b\n        /* \"contracts/ZenyaStake.sol\":3940:3961  rewards[_stakeholder] */\n      0x00\n        /* \"contracts/ZenyaStake.sol\":3948:3960  _stakeholder */\n      dup4\n        /* \"contracts/ZenyaStake.sol\":3940:3961  rewards[_stakeholder] */\n      0xffffffffffffffffffffffffffffffffffffffff\n      and\n      0xffffffffffffffffffffffffffffffffffffffff\n      and\n      dup2\n      mstore\n      0x20\n      add\n      swap1\n      dup2\n      mstore\n      0x20\n      add\n      0x00\n      keccak256\n      sload\n        /* \"contracts/ZenyaStake.sol\":3933:3961  return rewards[_stakeholder] */\n      swap1\n      pop\n        /* \"contracts/ZenyaStake.sol\":3853:3969  function rewardOf(address _stakeholder) public view returns(uint256) {\r... */\n      swap2\n      swap1\n      pop\n      jump\t// out\n        /* \"@openzeppelin/contracts/token/ERC20/ERC20.sol\":5192:5478  function transferFrom(... */\n    tag_75:\n        /* \"@openzeppelin/contracts/token/ERC20/ERC20.sol\":5319:5323  bool */\n      0x00\n        /* \"@openzeppelin/contracts/token/ERC20/ERC20.sol\":5335:5350  address spender */\n      dup1\n        /* \"@openzeppelin/contracts/token/ERC20/ERC20.sol\":5353:5365  _msgSender() */\n      tag_209\n        /* \"@openzeppelin/contracts/token/ERC20/ERC20.sol\":5353:5363  _msgSender */\n      tag_192\n        /* \"@openzeppelin/contracts/token/ERC20/ERC20.sol\":5353:5365  _msgSender() */\n      jump\t// in\n    tag_209:\n        /* \"@openzeppelin/contracts/token/ERC20/ERC20.sol\":5335:5365  address spender = _msgSender() */\n      swap1\n      pop\n        /* \"@openzeppelin/contracts/token/ERC20/ERC20.sol\":5375:5413  _spendAllowance(from, spender, amount) */\n      tag_210\n        /* \"@openzeppelin/contracts/token/ERC20/ERC20.sol\":5391:5395  from */\n      dup6\n        /* \"@openzeppelin/contracts/token/ERC20/ERC20.sol\":5397:5404  spender */\n      dup3\n        /* \"@openzeppelin/contracts/token/ERC20/ERC20.sol\":5406:5412  amount */\n      dup6\n        /* \"@openzeppelin/contracts/token/ERC20/ERC20.sol\":5375:5390  _spendAllowance */\n      tag_211\n        /* \"@openzeppelin/contracts/token/ERC20/ERC20.sol\":5375:5413  _spendAllowance(from, spender, amount) */\n      jump\t// in\n    tag_210:\n        /* \"@openzeppelin/contracts/token/ERC20/ERC20.sol\":5423:5450  _transfer(from, to, amount) */\n      tag_212\n        /* \"@openzeppelin/contracts/token/ERC20/ERC20.sol\":5433:5437  from */\n      dup6\n        /* \"@openzeppelin/contracts/token/ERC20/ERC20.sol\":5439:5441  to */\n      dup6\n        /* \"@openzeppelin/contracts/token/ERC20/ERC20.sol\":5443:5449  amount */\n      dup6\n        /* \"@openzeppelin/contracts/token/ERC20/ERC20.sol\":5423:5432  _transfer */\n      tag_213\n        /* \"@openzeppelin/contracts/token/ERC20/ERC20.sol\":5423:5450  _transfer(from, to, amount) */\n      jump\t// in\n    tag_212:\n        /* \"@openzeppelin/contracts/token/ERC20/ERC20.sol\":5467:5471  true */\n      0x01\n        /* \"@openzeppelin/contracts/token/ERC20/ERC20.sol\":5460:5471  return true */\n      swap2\n      pop\n      pop\n        /* \"@openzeppelin/contracts/token/ERC20/ERC20.sol\":5192:5478  function transferFrom(... */\n      swap4\n      swap3\n      pop\n      pop\n      pop\n      jump\t// out\n        /* \"@openzeppelin/contracts/token/ERC20/ERC20.sol\":3093:3184  function decimals() public view virtual override returns (uint8) {... */\n    tag_79:\n        /* \"@openzeppelin/contracts/token/ERC20/ERC20.sol\":3151:3156  uint8 */\n      0x00\n        /* \"@openzeppelin/contracts/token/ERC20/ERC20.sol\":3175:3177  18 */\n      0x12\n        /* \"@openzeppelin/contracts/token/ERC20/ERC20.sol\":3168:3177  return 18 */\n      swap1\n      pop\n        /* \"@openzeppelin/contracts/token/ERC20/ERC20.sol\":3093:3184  function decimals() public view virtual override returns (uint8) {... */\n      swap1\n      jump\t// out\n        /* \"contracts/ZenyaStake.sol\":401:430  uint256 public _buyTokenPrice */\n    tag_84:\n      sload(0x07)\n      dup2\n      jump\t// out\n        /* \"@openzeppelin/contracts/token/ERC20/ERC20.sol\":5873:6109  function increaseAllowance(address spender, uint256 addedValue) public virtual returns (bool) {... */\n    tag_89:\n        /* \"@openzeppelin/contracts/token/ERC20/ERC20.sol\":5961:5965  bool */\n      0x00\n        /* \"@openzeppelin/contracts/token/ERC20/ERC20.sol\":5977:5990  address owner */\n      dup1\n        /* \"@openzeppelin/contracts/token/ERC20/ERC20.sol\":5993:6005  _msgSender() */\n      tag_216\n        /* \"@openzeppelin/contracts/token/ERC20/ERC20.sol\":5993:6003  _msgSender */\n      tag_192\n        /* \"@openzeppelin/contracts/token/ERC20/ERC20.sol\":5993:6005  _msgSender() */\n      jump\t// in\n    tag_216:\n        /* \"@openzeppelin/contracts/token/ERC20/ERC20.sol\":5977:6005  address owner = _msgSender() */\n      swap1\n      pop\n        /* \"@openzeppelin/contracts/token/ERC20/ERC20.sol\":6015:6081  _approve(owner, spender, _allowances[owner][spender] + addedValue) */\n      tag_217\n        /* \"@openzeppelin/contracts/token/ERC20/ERC20.sol\":6024:6029  owner */\n      dup2\n        /* \"@openzeppelin/contracts/token/ERC20/ERC20.sol\":6031:6038  spender */\n      dup6\n        /* \"@openzeppelin/contracts/token/ERC20/ERC20.sol\":6070:6080  addedValue */\n      dup6\n        /* \"@openzeppelin/contracts/token/ERC20/ERC20.sol\":6040:6051  _allowances */\n      0x01\n        /* \"@openzeppelin/contracts/token/ERC20/ERC20.sol\":6040:6058  _allowances[owner] */\n      0x00\n        /* \"@openzeppelin/contracts/token/ERC20/ERC20.sol\":6052:6057  owner */\n      dup7\n        /* \"@openzeppelin/contracts/token/ERC20/ERC20.sol\":6040:6058  _allowances[owner] */\n      0xffffffffffffffffffffffffffffffffffffffff\n      and\n      0xffffffffffffffffffffffffffffffffffffffff\n      and\n      dup2\n      mstore\n      0x20\n      add\n      swap1\n      dup2\n      mstore\n      0x20\n      add\n      0x00\n      keccak256\n        /* \"@openzeppelin/contracts/token/ERC20/ERC20.sol\":6040:6067  _allowances[owner][spender] */\n      0x00\n        /* \"@openzeppelin/contracts/token/ERC20/ERC20.sol\":6059:6066  spender */\n      dup10\n        /* \"@openzeppelin/contracts/token/ERC20/ERC20.sol\":6040:6067  _allowances[owner][spender] */\n      0xffffffffffffffffffffffffffffffffffffffff\n      and\n      0xffffffffffffffffffffffffffffffffffffffff\n      and\n      dup2\n      mstore\n      0x20\n      add\n      swap1\n      dup2\n      mstore\n      0x20\n      add\n      0x00\n      keccak256\n      sload\n        /* \"@openzeppelin/contracts/token/ERC20/ERC20.sol\":6040:6080  _allowances[owner][spender] + addedValue */\n      tag_218\n      swap2\n      swap1\n      tag_204\n      jump\t// in\n    tag_218:\n        /* \"@openzeppelin/contracts/token/ERC20/ERC20.sol\":6015:6023  _approve */\n      tag_194\n        /* \"@openzeppelin/contracts/token/ERC20/ERC20.sol\":6015:6081  _approve(owner, spender, _allowances[owner][spender] + addedValue) */\n      jump\t// in\n    tag_217:\n        /* \"@openzeppelin/contracts/token/ERC20/ERC20.sol\":6098:6102  true */\n      0x01\n        /* \"@openzeppelin/contracts/token/ERC20/ERC20.sol\":6091:6102  return true */\n      swap2\n      pop\n      pop\n        /* \"@openzeppelin/contracts/token/ERC20/ERC20.sol\":5873:6109  function increaseAllowance(address spender, uint256 addedValue) public virtual returns (bool) {... */\n      swap3\n      swap2\n      pop\n      pop\n      jump\t// out\n        /* \"contracts/ZenyaStake.sol\":2960:3074  function stakeOf(address _stakeholder) public view returns(uint256) {\r... */\n    tag_94:\n        /* \"contracts/ZenyaStake.sol\":3019:3026  uint256 */\n      0x00\n        /* \"contracts/ZenyaStake.sol\":3046:3052  stakes */\n      0x09\n        /* \"contracts/ZenyaStake.sol\":3046:3066  stakes[_stakeholder] */\n      0x00\n        /* \"contracts/ZenyaStake.sol\":3053:3065  _stakeholder */\n      dup4\n        /* \"contracts/ZenyaStake.sol\":3046:3066  stakes[_stakeholder] */\n      0xffffffffffffffffffffffffffffffffffffffff\n      and\n      0xffffffffffffffffffffffffffffffffffffffff\n      and\n      dup2\n      mstore\n      0x20\n      add\n      swap1\n      dup2\n      mstore\n      0x20\n      add\n      0x00\n      keccak256\n      sload\n        /* \"contracts/ZenyaStake.sol\":3039:3066  return stakes[_stakeholder] */\n      swap1\n      pop\n        /* \"contracts/ZenyaStake.sol\":2960:3074  function stakeOf(address _stakeholder) public view returns(uint256) {\r... */\n      swap2\n      swap1\n      pop\n      jump\t// out\n        /* \"contracts/ZenyaStake.sol\":1158:1343  function setTokenBuyPrice (uint256 buyPrice) public {\r... */\n    tag_100:\n        /* \"contracts/ZenyaStake.sol\":1243:1249  _owner */\n      0x06\n      0x00\n      swap1\n      sload\n      swap1\n      0x0100\n      exp\n      swap1\n      div\n      0xffffffffffffffffffffffffffffffffffffffff\n      and\n        /* \"contracts/ZenyaStake.sol\":1229:1249  msg.sender == _owner */\n      0xffffffffffffffffffffffffffffffffffffffff\n      and\n        /* \"contracts/ZenyaStake.sol\":1229:1239  msg.sender */\n      caller\n        /* \"contracts/ZenyaStake.sol\":1229:1249  msg.sender == _owner */\n      0xffffffffffffffffffffffffffffffffffffffff\n      and\n      eq\n        /* \"contracts/ZenyaStake.sol\":1221:1299  require(msg.sender == _owner, \"Only the Owner can set the price of the token\") */\n      tag_221\n      jumpi\n      mload(0x40)\n      0x08c379a000000000000000000000000000000000000000000000000000000000\n      dup2\n      mstore\n      0x04\n      add\n      tag_222\n      swap1\n      tag_223\n      jump\t// in\n    tag_222:\n      mload(0x40)\n      dup1\n      swap2\n      sub\n      swap1\n      revert\n    tag_221:\n        /* \"contracts/ZenyaStake.sol\":1327:1335  buyPrice */\n      dup1\n        /* \"contracts/ZenyaStake.sol\":1310:1324  _buyTokenPrice */\n      0x07\n        /* \"contracts/ZenyaStake.sol\":1310:1335  _buyTokenPrice = buyPrice */\n      dup2\n      swap1\n      sstore\n      pop\n        /* \"contracts/ZenyaStake.sol\":1158:1343  function setTokenBuyPrice (uint256 buyPrice) public {\r... */\n      pop\n      jump\t// out\n        /* \"contracts/ZenyaStake.sol\":4595:4893  function distributeRewards() public  {\r... */\n    tag_103:\n        /* \"contracts/ZenyaStake.sol\":4648:4657  uint256 s */\n      0x00\n        /* \"contracts/ZenyaStake.sol\":4643:4886  for (uint256 s = 0; s < stakeholders.length; s += 1){\r... */\n    tag_225:\n        /* \"contracts/ZenyaStake.sol\":4667:4679  stakeholders */\n      0x0a\n        /* \"contracts/ZenyaStake.sol\":4667:4686  stakeholders.length */\n      dup1\n      sload\n      swap1\n      pop\n        /* \"contracts/ZenyaStake.sol\":4663:4664  s */\n      dup2\n        /* \"contracts/ZenyaStake.sol\":4663:4686  s < stakeholders.length */\n      lt\n        /* \"contracts/ZenyaStake.sol\":4643:4886  for (uint256 s = 0; s < stakeholders.length; s += 1){\r... */\n      iszero\n      tag_226\n      jumpi\n        /* \"contracts/ZenyaStake.sol\":4710:4729  address stakeholder */\n      0x00\n        /* \"contracts/ZenyaStake.sol\":4732:4744  stakeholders */\n      0x0a\n        /* \"contracts/ZenyaStake.sol\":4745:4746  s */\n      dup3\n        /* \"contracts/ZenyaStake.sol\":4732:4747  stakeholders[s] */\n      dup2\n      sload\n      dup2\n      lt\n      tag_228\n      jumpi\n      tag_229\n      tag_201\n      jump\t// in\n    tag_229:\n    tag_228:\n      swap1\n      0x00\n      mstore\n      keccak256(0x00, 0x20)\n      add\n      0x00\n      swap1\n      sload\n      swap1\n      0x0100\n      exp\n      swap1\n      div\n      0xffffffffffffffffffffffffffffffffffffffff\n      and\n        /* \"contracts/ZenyaStake.sol\":4710:4747  address stakeholder = stakeholders[s] */\n      swap1\n      pop\n        /* \"contracts/ZenyaStake.sol\":4762:4776  uint256 reward */\n      0x00\n        /* \"contracts/ZenyaStake.sol\":4779:4807  calculateReward(stakeholder) */\n      tag_231\n        /* \"contracts/ZenyaStake.sol\":4795:4806  stakeholder */\n      dup3\n        /* \"contracts/ZenyaStake.sol\":4779:4794  calculateReward */\n      tag_157\n        /* \"contracts/ZenyaStake.sol\":4779:4807  calculateReward(stakeholder) */\n      jump\t// in\n    tag_231:\n        /* \"contracts/ZenyaStake.sol\":4762:4807  uint256 reward = calculateReward(stakeholder) */\n      swap1\n      pop\n        /* \"contracts/ZenyaStake.sol\":4868:4874  reward */\n      dup1\n        /* \"contracts/ZenyaStake.sol\":4845:4852  rewards */\n      0x0b\n        /* \"contracts/ZenyaStake.sol\":4845:4865  rewards[stakeholder] */\n      0x00\n        /* \"contracts/ZenyaStake.sol\":4853:4864  stakeholder */\n      dup5\n        /* \"contracts/ZenyaStake.sol\":4845:4865  rewards[stakeholder] */\n      0xffffffffffffffffffffffffffffffffffffffff\n      and\n      0xffffffffffffffffffffffffffffffffffffffff\n      and\n      dup2\n      mstore\n      0x20\n      add\n      swap1\n      dup2\n      mstore\n      0x20\n      add\n      0x00\n      keccak256\n      sload\n        /* \"contracts/ZenyaStake.sol\":4845:4874  rewards[stakeholder] + reward */\n      tag_232\n      swap2\n      swap1\n      tag_204\n      jump\t// in\n    tag_232:\n        /* \"contracts/ZenyaStake.sol\":4822:4829  rewards */\n      0x0b\n        /* \"contracts/ZenyaStake.sol\":4822:4842  rewards[stakeholder] */\n      0x00\n        /* \"contracts/ZenyaStake.sol\":4830:4841  stakeholder */\n      dup5\n        /* \"contracts/ZenyaStake.sol\":4822:4842  rewards[stakeholder] */\n      0xffffffffffffffffffffffffffffffffffffffff\n      and\n      0xffffffffffffffffffffffffffffffffffffffff\n      and\n      dup2\n      mstore\n      0x20\n      add\n      swap1\n      dup2\n      mstore\n      0x20\n      add\n      0x00\n      keccak256\n        /* \"contracts/ZenyaStake.sol\":4822:4874  rewards[stakeholder] = rewards[stakeholder] + reward */\n      dup2\n      swap1\n      sstore\n      pop\n        /* \"contracts/ZenyaStake.sol\":4695:4886  {\r... */\n      pop\n      pop\n        /* \"contracts/ZenyaStake.sol\":4693:4694  1 */\n      0x01\n        /* \"contracts/ZenyaStake.sol\":4688:4694  s += 1 */\n      dup2\n      tag_233\n      swap2\n      swap1\n      tag_204\n      jump\t// in\n    tag_233:\n      swap1\n      pop\n        /* \"contracts/ZenyaStake.sol\":4643:4886  for (uint256 s = 0; s < stakeholders.length; s += 1){\r... */\n      jump(tag_225)\n    tag_226:\n      pop\n        /* \"contracts/ZenyaStake.sol\":4595:4893  function distributeRewards() public  {\r... */\n      jump\t// out\n        /* \"@openzeppelin/contracts/token/ERC20/ERC20.sol\":3408:3533  function balanceOf(address account) public view virtual override returns (uint256) {... */\n    tag_107:\n        /* \"@openzeppelin/contracts/token/ERC20/ERC20.sol\":3482:3489  uint256 */\n      0x00\n        /* \"@openzeppelin/contracts/token/ERC20/ERC20.sol\":3508:3517  _balances */\n      dup1\n        /* \"@openzeppelin/contracts/token/ERC20/ERC20.sol\":3508:3526  _balances[account] */\n      0x00\n        /* \"@openzeppelin/contracts/token/ERC20/ERC20.sol\":3518:3525  account */\n      dup4\n        /* \"@openzeppelin/contracts/token/ERC20/ERC20.sol\":3508:3526  _balances[account] */\n      0xffffffffffffffffffffffffffffffffffffffff\n      and\n      0xffffffffffffffffffffffffffffffffffffffff\n      and\n      dup2\n      mstore\n      0x20\n      add\n      swap1\n      dup2\n      mstore\n      0x20\n      add\n      0x00\n      keccak256\n      sload\n        /* \"@openzeppelin/contracts/token/ERC20/ERC20.sol\":3501:3526  return _balances[account] */\n      swap1\n      pop\n        /* \"@openzeppelin/contracts/token/ERC20/ERC20.sol\":3408:3533  function balanceOf(address account) public view virtual override returns (uint256) {... */\n      swap2\n      swap1\n      pop\n      jump\t// out\n        /* \"@openzeppelin/contracts/access/Ownable.sol\":1668:1769  function renounceOwnership() public virtual onlyOwner {... */\n    tag_111:\n        /* \"@openzeppelin/contracts/access/Ownable.sol\":1259:1271  _msgSender() */\n      tag_236\n        /* \"@openzeppelin/contracts/access/Ownable.sol\":1259:1269  _msgSender */\n      tag_192\n        /* \"@openzeppelin/contracts/access/Ownable.sol\":1259:1271  _msgSender() */\n      jump\t// in\n    tag_236:\n        /* \"@openzeppelin/contracts/access/Ownable.sol\":1248:1271  owner() == _msgSender() */\n      0xffffffffffffffffffffffffffffffffffffffff\n      and\n        /* \"@openzeppelin/contracts/access/Ownable.sol\":1248:1255  owner() */\n      tag_237\n        /* \"@openzeppelin/contracts/access/Ownable.sol\":1248:1253  owner */\n      tag_117\n        /* \"@openzeppelin/contracts/access/Ownable.sol\":1248:1255  owner() */\n      jump\t// in\n    tag_237:\n        /* \"@openzeppelin/contracts/access/Ownable.sol\":1248:1271  owner() == _msgSender() */\n      0xffffffffffffffffffffffffffffffffffffffff\n      and\n      eq\n        /* \"@openzeppelin/contracts/access/Ownable.sol\":1240:1308  require(owner() == _msgSender(), \"Ownable: caller is not the owner\") */\n      tag_238\n      jumpi\n      mload(0x40)\n      0x08c379a000000000000000000000000000000000000000000000000000000000\n      dup2\n      mstore\n      0x04\n      add\n      tag_239\n      swap1\n      tag_240\n      jump\t// in\n    tag_239:\n      mload(0x40)\n      dup1\n      swap2\n      sub\n      swap1\n      revert\n    tag_238:\n        /* \"@openzeppelin/contracts/access/Ownable.sol\":1732:1762  _transferOwnership(address(0)) */\n      tag_242\n        /* \"@openzeppelin/contracts/access/Ownable.sol\":1759:1760  0 */\n      0x00\n        /* \"@openzeppelin/contracts/access/Ownable.sol\":1732:1750  _transferOwnership */\n      tag_243\n        /* \"@openzeppelin/contracts/access/Ownable.sol\":1732:1762  _transferOwnership(address(0)) */\n      jump\t// in\n    tag_242:\n        /* \"@openzeppelin/contracts/access/Ownable.sol\":1668:1769  function renounceOwnership() public virtual onlyOwner {... */\n      jump\t// out\n        /* \"contracts/ZenyaStake.sol\":1489:1950  function buyToken(address receiver) public payable{\r... */\n    tag_114:\n        /* \"contracts/ZenyaStake.sol\":1654:1664  decimals() */\n      tag_245\n        /* \"contracts/ZenyaStake.sol\":1654:1662  decimals */\n      tag_79\n        /* \"contracts/ZenyaStake.sol\":1654:1664  decimals() */\n      jump\t// in\n    tag_245:\n        /* \"contracts/ZenyaStake.sol\":1650:1652  10 */\n      0x0a\n        /* \"contracts/ZenyaStake.sol\":1650:1664  10**decimals() */\n      tag_246\n      swap2\n      swap1\n      tag_247\n      jump\t// in\n    tag_246:\n        /* \"contracts/ZenyaStake.sol\":1633:1647  _buyTokenPrice */\n      sload(0x07)\n        /* \"contracts/ZenyaStake.sol\":1633:1664  _buyTokenPrice * 10**decimals() */\n      tag_248\n      swap2\n      swap1\n      tag_249\n      jump\t// in\n    tag_248:\n        /* \"contracts/ZenyaStake.sol\":1618:1629  zenyaPerEth */\n      0x08\n        /* \"contracts/ZenyaStake.sol\":1618:1664  zenyaPerEth  = _buyTokenPrice * 10**decimals() */\n      dup2\n      swap1\n      sstore\n      pop\n        /* \"contracts/ZenyaStake.sol\":1766:1788  uint256 amountMintable */\n      0x00\n        /* \"contracts/ZenyaStake.sol\":1823:1833  decimals() */\n      tag_250\n        /* \"contracts/ZenyaStake.sol\":1823:1831  decimals */\n      tag_79\n        /* \"contracts/ZenyaStake.sol\":1823:1833  decimals() */\n      jump\t// in\n    tag_250:\n        /* \"contracts/ZenyaStake.sol\":1819:1821  10 */\n      0x0a\n        /* \"contracts/ZenyaStake.sol\":1819:1833  10**decimals() */\n      tag_251\n      swap2\n      swap1\n      tag_247\n      jump\t// in\n    tag_251:\n        /* \"contracts/ZenyaStake.sol\":1804:1815  zenyaPerEth */\n      sload(0x08)\n        /* \"contracts/ZenyaStake.sol\":1792:1801  msg.value */\n      callvalue\n        /* \"contracts/ZenyaStake.sol\":1792:1815  msg.value * zenyaPerEth */\n      tag_252\n      swap2\n      swap1\n      tag_249\n      jump\t// in\n    tag_252:\n        /* \"contracts/ZenyaStake.sol\":1791:1833  (msg.value * zenyaPerEth) / 10**decimals() */\n      tag_253\n      swap2\n      swap1\n      tag_254\n      jump\t// in\n    tag_253:\n        /* \"contracts/ZenyaStake.sol\":1766:1833  uint256 amountMintable = (msg.value * zenyaPerEth) / 10**decimals() */\n      swap1\n      pop\n        /* \"contracts/ZenyaStake.sol\":1911:1942  _mint(receiver, amountMintable) */\n      tag_255\n        /* \"contracts/ZenyaStake.sol\":1917:1925  receiver */\n      dup3\n        /* \"contracts/ZenyaStake.sol\":1927:1941  amountMintable */\n      dup3\n        /* \"contracts/ZenyaStake.sol\":1911:1916  _mint */\n      tag_256\n        /* \"contracts/ZenyaStake.sol\":1911:1942  _mint(receiver, amountMintable) */\n      jump\t// in\n    tag_255:\n        /* \"contracts/ZenyaStake.sol\":1539:1950  {\r... */\n      pop\n        /* \"contracts/ZenyaStake.sol\":1489:1950  function buyToken(address receiver) public payable{\r... */\n      pop\n      jump\t// out\n        /* \"@openzeppelin/contracts/access/Ownable.sol\":1036:1121  function owner() public view virtual returns (address) {... */\n    tag_117:\n        /* \"@openzeppelin/contracts/access/Ownable.sol\":1082:1089  address */\n      0x00\n        /* \"@openzeppelin/contracts/access/Ownable.sol\":1108:1114  _owner */\n      0x05\n      0x00\n      swap1\n      sload\n      swap1\n      0x0100\n      exp\n      swap1\n      div\n      0xffffffffffffffffffffffffffffffffffffffff\n      and\n        /* \"@openzeppelin/contracts/access/Ownable.sol\":1101:1114  return _owner */\n      swap1\n      pop\n        /* \"@openzeppelin/contracts/access/Ownable.sol\":1036:1121  function owner() public view virtual returns (address) {... */\n      swap1\n      jump\t// out\n        /* \"contracts/ZenyaStake.sol\":3515:3730  function removeStake(uint256 _stake) public {\r... */\n    tag_123:\n        /* \"contracts/ZenyaStake.sol\":3612:3618  _stake */\n      dup1\n        /* \"contracts/ZenyaStake.sol\":3591:3597  stakes */\n      0x09\n        /* \"contracts/ZenyaStake.sol\":3591:3609  stakes[msg.sender] */\n      0x00\n        /* \"contracts/ZenyaStake.sol\":3598:3608  msg.sender */\n      caller\n        /* \"contracts/ZenyaStake.sol\":3591:3609  stakes[msg.sender] */\n      0xffffffffffffffffffffffffffffffffffffffff\n      and\n      0xffffffffffffffffffffffffffffffffffffffff\n      and\n      dup2\n      mstore\n      0x20\n      add\n      swap1\n      dup2\n      mstore\n      0x20\n      add\n      0x00\n      keccak256\n      sload\n        /* \"contracts/ZenyaStake.sol\":3591:3618  stakes[msg.sender] - _stake */\n      tag_259\n      swap2\n      swap1\n      tag_260\n      jump\t// in\n    tag_259:\n        /* \"contracts/ZenyaStake.sol\":3570:3576  stakes */\n      0x09\n        /* \"contracts/ZenyaStake.sol\":3570:3588  stakes[msg.sender] */\n      0x00\n        /* \"contracts/ZenyaStake.sol\":3577:3587  msg.sender */\n      caller\n        /* \"contracts/ZenyaStake.sol\":3570:3588  stakes[msg.sender] */\n      0xffffffffffffffffffffffffffffffffffffffff\n      and\n      0xffffffffffffffffffffffffffffffffffffffff\n      and\n      dup2\n      mstore\n      0x20\n      add\n      swap1\n      dup2\n      mstore\n      0x20\n      add\n      0x00\n      keccak256\n        /* \"contracts/ZenyaStake.sol\":3570:3618  stakes[msg.sender] = stakes[msg.sender] - _stake */\n      dup2\n      swap1\n      sstore\n      pop\n        /* \"contracts/ZenyaStake.sol\":3654:3655  0 */\n      0x00\n        /* \"contracts/ZenyaStake.sol\":3632:3638  stakes */\n      0x09\n        /* \"contracts/ZenyaStake.sol\":3632:3650  stakes[msg.sender] */\n      0x00\n        /* \"contracts/ZenyaStake.sol\":3639:3649  msg.sender */\n      caller\n        /* \"contracts/ZenyaStake.sol\":3632:3650  stakes[msg.sender] */\n      0xffffffffffffffffffffffffffffffffffffffff\n      and\n      0xffffffffffffffffffffffffffffffffffffffff\n      and\n      dup2\n      mstore\n      0x20\n      add\n      swap1\n      dup2\n      mstore\n      0x20\n      add\n      0x00\n      keccak256\n      sload\n        /* \"contracts/ZenyaStake.sol\":3632:3655  stakes[msg.sender] == 0 */\n      eq\n        /* \"contracts/ZenyaStake.sol\":3629:3686  if(stakes[msg.sender] == 0) removeStakeholder(msg.sender) */\n      iszero\n      tag_261\n      jumpi\n        /* \"contracts/ZenyaStake.sol\":3657:3686  removeStakeholder(msg.sender) */\n      tag_262\n        /* \"contracts/ZenyaStake.sol\":3675:3685  msg.sender */\n      caller\n        /* \"contracts/ZenyaStake.sol\":3657:3674  removeStakeholder */\n      tag_145\n        /* \"contracts/ZenyaStake.sol\":3657:3686  removeStakeholder(msg.sender) */\n      jump\t// in\n    tag_262:\n        /* \"contracts/ZenyaStake.sol\":3629:3686  if(stakes[msg.sender] == 0) removeStakeholder(msg.sender) */\n    tag_261:\n        /* \"contracts/ZenyaStake.sol\":3697:3722  _mint(msg.sender, _stake) */\n      tag_263\n        /* \"contracts/ZenyaStake.sol\":3703:3713  msg.sender */\n      caller\n        /* \"contracts/ZenyaStake.sol\":3715:3721  _stake */\n      dup3\n        /* \"contracts/ZenyaStake.sol\":3697:3702  _mint */\n      tag_256\n        /* \"contracts/ZenyaStake.sol\":3697:3722  _mint(msg.sender, _stake) */\n      jump\t// in\n    tag_263:\n        /* \"contracts/ZenyaStake.sol\":3515:3730  function removeStake(uint256 _stake) public {\r... */\n      pop\n      jump\t// out\n        /* \"@openzeppelin/contracts/token/ERC20/ERC20.sol\":2367:2469  function symbol() public view virtual override returns (string memory) {... */\n    tag_126:\n        /* \"@openzeppelin/contracts/token/ERC20/ERC20.sol\":2423:2436  string memory */\n      0x60\n        /* \"@openzeppelin/contracts/token/ERC20/ERC20.sol\":2455:2462  _symbol */\n      0x04\n        /* \"@openzeppelin/contracts/token/ERC20/ERC20.sol\":2448:2462  return _symbol */\n      dup1\n      sload\n      tag_265\n      swap1\n      tag_185\n      jump\t// in\n    tag_265:\n      dup1\n      0x1f\n      add\n      0x20\n      dup1\n      swap2\n      div\n      mul\n      0x20\n      add\n      mload(0x40)\n      swap1\n      dup2\n      add\n      0x40\n      mstore\n      dup1\n      swap3\n      swap2\n      swap1\n      dup2\n      dup2\n      mstore\n      0x20\n      add\n      dup3\n      dup1\n      sload\n      tag_266\n      swap1\n      tag_185\n      jump\t// in\n    tag_266:\n      dup1\n      iszero\n      tag_267\n      jumpi\n      dup1\n      0x1f\n      lt\n      tag_268\n      jumpi\n      0x0100\n      dup1\n      dup4\n      sload\n      div\n      mul\n      dup4\n      mstore\n      swap2\n      0x20\n      add\n      swap2\n      jump(tag_267)\n    tag_268:\n      dup3\n      add\n      swap2\n      swap1\n      0x00\n      mstore\n      keccak256(0x00, 0x20)\n      swap1\n    tag_269:\n      dup2\n      sload\n      dup2\n      mstore\n      swap1\n      0x01\n      add\n      swap1\n      0x20\n      add\n      dup1\n      dup4\n      gt\n      tag_269\n      jumpi\n      dup3\n      swap1\n      sub\n      0x1f\n      and\n      dup3\n      add\n      swap2\n    tag_267:\n      pop\n      pop\n      pop\n      pop\n      pop\n      swap1\n      pop\n        /* \"@openzeppelin/contracts/token/ERC20/ERC20.sol\":2367:2469  function symbol() public view virtual override returns (string memory) {... */\n      swap1\n      jump\t// out\n        /* \"@openzeppelin/contracts/token/ERC20/ERC20.sol\":6596:7025  function decreaseAllowance(address spender, uint256 subtractedValue) public virtual returns (bool) {... */\n    tag_131:\n        /* \"@openzeppelin/contracts/token/ERC20/ERC20.sol\":6689:6693  bool */\n      0x00\n        /* \"@openzeppelin/contracts/token/ERC20/ERC20.sol\":6705:6718  address owner */\n      dup1\n        /* \"@openzeppelin/contracts/token/ERC20/ERC20.sol\":6721:6733  _msgSender() */\n      tag_271\n        /* \"@openzeppelin/contracts/token/ERC20/ERC20.sol\":6721:6731  _msgSender */\n      tag_192\n        /* \"@openzeppelin/contracts/token/ERC20/ERC20.sol\":6721:6733  _msgSender() */\n      jump\t// in\n    tag_271:\n        /* \"@openzeppelin/contracts/token/ERC20/ERC20.sol\":6705:6733  address owner = _msgSender() */\n      swap1\n      pop\n        /* \"@openzeppelin/contracts/token/ERC20/ERC20.sol\":6743:6767  uint256 currentAllowance */\n      0x00\n        /* \"@openzeppelin/contracts/token/ERC20/ERC20.sol\":6770:6781  _allowances */\n      0x01\n        /* \"@openzeppelin/contracts/token/ERC20/ERC20.sol\":6770:6788  _allowances[owner] */\n      0x00\n        /* \"@openzeppelin/contracts/token/ERC20/ERC20.sol\":6782:6787  owner */\n      dup4\n        /* \"@openzeppelin/contracts/token/ERC20/ERC20.sol\":6770:6788  _allowances[owner] */\n      0xffffffffffffffffffffffffffffffffffffffff\n      and\n      0xffffffffffffffffffffffffffffffffffffffff\n      and\n      dup2\n      mstore\n      0x20\n      add\n      swap1\n      dup2\n      mstore\n      0x20\n      add\n      0x00\n      keccak256\n        /* \"@openzeppelin/contracts/token/ERC20/ERC20.sol\":6770:6797  _allowances[owner][spender] */\n      0x00\n        /* \"@openzeppelin/contracts/token/ERC20/ERC20.sol\":6789:6796  spender */\n      dup7\n        /* \"@openzeppelin/contracts/token/ERC20/ERC20.sol\":6770:6797  _allowances[owner][spender] */\n      0xffffffffffffffffffffffffffffffffffffffff\n      and\n      0xffffffffffffffffffffffffffffffffffffffff\n      and\n      dup2\n      mstore\n      0x20\n      add\n      swap1\n      dup2\n      mstore\n      0x20\n      add\n      0x00\n      keccak256\n      sload\n        /* \"@openzeppelin/contracts/token/ERC20/ERC20.sol\":6743:6797  uint256 currentAllowance = _allowances[owner][spender] */\n      swap1\n      pop\n        /* \"@openzeppelin/contracts/token/ERC20/ERC20.sol\":6835:6850  subtractedValue */\n      dup4\n        /* \"@openzeppelin/contracts/token/ERC20/ERC20.sol\":6815:6831  currentAllowance */\n      dup2\n        /* \"@openzeppelin/contracts/token/ERC20/ERC20.sol\":6815:6850  currentAllowance >= subtractedValue */\n      lt\n      iszero\n        /* \"@openzeppelin/contracts/token/ERC20/ERC20.sol\":6807:6892  require(currentAllowance >= subtractedValue, \"ERC20: decreased allowance below zero\") */\n      tag_272\n      jumpi\n      mload(0x40)\n      0x08c379a000000000000000000000000000000000000000000000000000000000\n      dup2\n      mstore\n      0x04\n      add\n      tag_273\n      swap1\n      tag_274\n      jump\t// in\n    tag_273:\n      mload(0x40)\n      dup1\n      swap2\n      sub\n      swap1\n      revert\n    tag_272:\n        /* \"@openzeppelin/contracts/token/ERC20/ERC20.sol\":6926:6986  _approve(owner, spender, currentAllowance - subtractedValue) */\n      tag_275\n        /* \"@openzeppelin/contracts/token/ERC20/ERC20.sol\":6935:6940  owner */\n      dup3\n        /* \"@openzeppelin/contracts/token/ERC20/ERC20.sol\":6942:6949  spender */\n      dup7\n        /* \"@openzeppelin/contracts/token/ERC20/ERC20.sol\":6970:6985  subtractedValue */\n      dup7\n        /* \"@openzeppelin/contracts/token/ERC20/ERC20.sol\":6951:6967  currentAllowance */\n      dup5\n        /* \"@openzeppelin/contracts/token/ERC20/ERC20.sol\":6951:6985  currentAllowance - subtractedValue */\n      sub\n        /* \"@openzeppelin/contracts/token/ERC20/ERC20.sol\":6926:6934  _approve */\n      tag_194\n        /* \"@openzeppelin/contracts/token/ERC20/ERC20.sol\":6926:6986  _approve(owner, spender, currentAllowance - subtractedValue) */\n      jump\t// in\n    tag_275:\n        /* \"@openzeppelin/contracts/token/ERC20/ERC20.sol\":7014:7018  true */\n      0x01\n        /* \"@openzeppelin/contracts/token/ERC20/ERC20.sol\":7007:7018  return true */\n      swap3\n      pop\n      pop\n      pop\n        /* \"@openzeppelin/contracts/token/ERC20/ERC20.sol\":6596:7025  function decreaseAllowance(address spender, uint256 subtractedValue) public virtual returns (bool) {... */\n      swap3\n      swap2\n      pop\n      pop\n      jump\t// out\n        /* \"@openzeppelin/contracts/token/ERC20/ERC20.sol\":3729:3918  function transfer(address to, uint256 amount) public virtual override returns (bool) {... */\n    tag_136:\n        /* \"@openzeppelin/contracts/token/ERC20/ERC20.sol\":3808:3812  bool */\n      0x00\n        /* \"@openzeppelin/contracts/token/ERC20/ERC20.sol\":3824:3837  address owner */\n      dup1\n        /* \"@openzeppelin/contracts/token/ERC20/ERC20.sol\":3840:3852  _msgSender() */\n      tag_277\n        /* \"@openzeppelin/contracts/token/ERC20/ERC20.sol\":3840:3850  _msgSender */\n      tag_192\n        /* \"@openzeppelin/contracts/token/ERC20/ERC20.sol\":3840:3852  _msgSender() */\n      jump\t// in\n    tag_277:\n        /* \"@openzeppelin/contracts/token/ERC20/ERC20.sol\":3824:3852  address owner = _msgSender() */\n      swap1\n      pop\n        /* \"@openzeppelin/contracts/token/ERC20/ERC20.sol\":3862:3890  _transfer(owner, to, amount) */\n      tag_278\n        /* \"@openzeppelin/contracts/token/ERC20/ERC20.sol\":3872:3877  owner */\n      dup2\n        /* \"@openzeppelin/contracts/token/ERC20/ERC20.sol\":3879:3881  to */\n      dup6\n        /* \"@openzeppelin/contracts/token/ERC20/ERC20.sol\":3883:3889  amount */\n      dup6\n        /* \"@openzeppelin/contracts/token/ERC20/ERC20.sol\":3862:3871  _transfer */\n      tag_213\n        /* \"@openzeppelin/contracts/token/ERC20/ERC20.sol\":3862:3890  _transfer(owner, to, amount) */\n      jump\t// in\n    tag_278:\n        /* \"@openzeppelin/contracts/token/ERC20/ERC20.sol\":3907:3911  true */\n      0x01\n        /* \"@openzeppelin/contracts/token/ERC20/ERC20.sol\":3900:3911  return true */\n      swap2\n      pop\n      pop\n        /* \"@openzeppelin/contracts/token/ERC20/ERC20.sol\":3729:3918  function transfer(address to, uint256 amount) public virtual override returns (bool) {... */\n      swap3\n      swap2\n      pop\n      pop\n      jump\t// out\n        /* \"contracts/ZenyaStake.sol\":288:309  address public _owner */\n    tag_140:\n      0x06\n      0x00\n      swap1\n      sload\n      swap1\n      0x0100\n      exp\n      swap1\n      div\n      0xffffffffffffffffffffffffffffffffffffffff\n      and\n      dup2\n      jump\t// out\n        /* \"contracts/ZenyaStake.sol\":2615:2895  function removeStakeholder(address _stakeholder) public {\r... */\n    tag_145:\n        /* \"contracts/ZenyaStake.sol\":2683:2702  bool _isStakeholder */\n      0x00\n        /* \"contracts/ZenyaStake.sol\":2704:2713  uint256 s */\n      dup1\n        /* \"contracts/ZenyaStake.sol\":2717:2744  isStakeholder(_stakeholder) */\n      tag_280\n        /* \"contracts/ZenyaStake.sol\":2731:2743  _stakeholder */\n      dup4\n        /* \"contracts/ZenyaStake.sol\":2717:2730  isStakeholder */\n      tag_176\n        /* \"contracts/ZenyaStake.sol\":2717:2744  isStakeholder(_stakeholder) */\n      jump\t// in\n    tag_280:\n        /* \"contracts/ZenyaStake.sol\":2682:2744  (bool _isStakeholder, uint256 s) = isStakeholder(_stakeholder) */\n      swap2\n      pop\n      swap2\n      pop\n        /* \"contracts/ZenyaStake.sol\":2758:2772  _isStakeholder */\n      dup2\n        /* \"contracts/ZenyaStake.sol\":2755:2888  if(_isStakeholder){\r... */\n      iszero\n      tag_281\n      jumpi\n        /* \"contracts/ZenyaStake.sol\":2806:2818  stakeholders */\n      0x0a\n        /* \"contracts/ZenyaStake.sol\":2841:2842  1 */\n      0x01\n        /* \"contracts/ZenyaStake.sol\":2819:2831  stakeholders */\n      0x0a\n        /* \"contracts/ZenyaStake.sol\":2819:2838  stakeholders.length */\n      dup1\n      sload\n      swap1\n      pop\n        /* \"contracts/ZenyaStake.sol\":2819:2842  stakeholders.length - 1 */\n      tag_282\n      swap2\n      swap1\n      tag_260\n      jump\t// in\n    tag_282:\n        /* \"contracts/ZenyaStake.sol\":2806:2843  stakeholders[stakeholders.length - 1] */\n      dup2\n      sload\n      dup2\n      lt\n      tag_283\n      jumpi\n      tag_284\n      tag_201\n      jump\t// in\n    tag_284:\n    tag_283:\n      swap1\n      0x00\n      mstore\n      keccak256(0x00, 0x20)\n      add\n      0x00\n      swap1\n      sload\n      swap1\n      0x0100\n      exp\n      swap1\n      div\n      0xffffffffffffffffffffffffffffffffffffffff\n      and\n        /* \"contracts/ZenyaStake.sol\":2788:2800  stakeholders */\n      0x0a\n        /* \"contracts/ZenyaStake.sol\":2801:2802  s */\n      dup3\n        /* \"contracts/ZenyaStake.sol\":2788:2803  stakeholders[s] */\n      dup2\n      sload\n      dup2\n      lt\n      tag_286\n      jumpi\n      tag_287\n      tag_201\n      jump\t// in\n    tag_287:\n    tag_286:\n      swap1\n      0x00\n      mstore\n      keccak256(0x00, 0x20)\n      add\n      0x00\n        /* \"contracts/ZenyaStake.sol\":2788:2843  stakeholders[s] = stakeholders[stakeholders.length - 1] */\n      0x0100\n      exp\n      dup2\n      sload\n      dup2\n      0xffffffffffffffffffffffffffffffffffffffff\n      mul\n      not\n      and\n      swap1\n      dup4\n      0xffffffffffffffffffffffffffffffffffffffff\n      and\n      mul\n      or\n      swap1\n      sstore\n      pop\n        /* \"contracts/ZenyaStake.sol\":2858:2870  stakeholders */\n      0x0a\n        /* \"contracts/ZenyaStake.sol\":2858:2876  stakeholders.pop() */\n      dup1\n      sload\n      dup1\n      tag_289\n      jumpi\n      tag_290\n      tag_291\n      jump\t// in\n    tag_290:\n    tag_289:\n      0x01\n      swap1\n      sub\n      dup2\n      dup2\n      swap1\n      0x00\n      mstore\n      keccak256(0x00, 0x20)\n      add\n      exp(0x0100, 0x00)\n      dup2\n      sload\n      swap1\n      0xffffffffffffffffffffffffffffffffffffffff\n      mul\n      not\n      and\n      swap1\n      sstore\n      swap1\n      sstore\n        /* \"contracts/ZenyaStake.sol\":2755:2888  if(_isStakeholder){\r... */\n    tag_281:\n        /* \"contracts/ZenyaStake.sol\":2671:2895  {\r... */\n      pop\n      pop\n        /* \"contracts/ZenyaStake.sol\":2615:2895  function removeStakeholder(address _stakeholder) public {\r... */\n      pop\n      jump\t// out\n        /* \"contracts/ZenyaStake.sol\":4965:5159  function withdrawReward() public {\r... */\n    tag_148:\n        /* \"contracts/ZenyaStake.sol\":5045:5059  uint256 reward */\n      0x00\n        /* \"contracts/ZenyaStake.sol\":5062:5069  rewards */\n      0x0b\n        /* \"contracts/ZenyaStake.sol\":5062:5081  rewards[msg.sender] */\n      0x00\n        /* \"contracts/ZenyaStake.sol\":5070:5080  msg.sender */\n      caller\n        /* \"contracts/ZenyaStake.sol\":5062:5081  rewards[msg.sender] */\n      0xffffffffffffffffffffffffffffffffffffffff\n      and\n      0xffffffffffffffffffffffffffffffffffffffff\n      and\n      dup2\n      mstore\n      0x20\n      add\n      swap1\n      dup2\n      mstore\n      0x20\n      add\n      0x00\n      keccak256\n      sload\n        /* \"contracts/ZenyaStake.sol\":5045:5081  uint256 reward = rewards[msg.sender] */\n      swap1\n      pop\n        /* \"contracts/ZenyaStake.sol\":5114:5115  0 */\n      0x00\n        /* \"contracts/ZenyaStake.sol\":5092:5099  rewards */\n      0x0b\n        /* \"contracts/ZenyaStake.sol\":5092:5111  rewards[msg.sender] */\n      0x00\n        /* \"contracts/ZenyaStake.sol\":5100:5110  msg.sender */\n      caller\n        /* \"contracts/ZenyaStake.sol\":5092:5111  rewards[msg.sender] */\n      0xffffffffffffffffffffffffffffffffffffffff\n      and\n      0xffffffffffffffffffffffffffffffffffffffff\n      and\n      dup2\n      mstore\n      0x20\n      add\n      swap1\n      dup2\n      mstore\n      0x20\n      add\n      0x00\n      keccak256\n        /* \"contracts/ZenyaStake.sol\":5092:5115  rewards[msg.sender] = 0 */\n      dup2\n      swap1\n      sstore\n      pop\n        /* \"contracts/ZenyaStake.sol\":5126:5151  _mint(msg.sender, reward) */\n      tag_294\n        /* \"contracts/ZenyaStake.sol\":5132:5142  msg.sender */\n      caller\n        /* \"contracts/ZenyaStake.sol\":5144:5150  reward */\n      dup3\n        /* \"contracts/ZenyaStake.sol\":5126:5131  _mint */\n      tag_256\n        /* \"contracts/ZenyaStake.sol\":5126:5151  _mint(msg.sender, reward) */\n      jump\t// in\n    tag_294:\n        /* \"contracts/ZenyaStake.sol\":4998:5159  {\r... */\n      pop\n        /* \"contracts/ZenyaStake.sol\":4965:5159  function withdrawReward() public {\r... */\n      jump\t// out\n        /* \"contracts/ZenyaStake.sol\":3135:3454  function createStake(uint256 _stake, uint numberOfDays) public {\r... */\n    tag_153:\n        /* \"contracts/ZenyaStake.sol\":3209:3234  _burn(msg.sender, _stake) */\n      tag_296\n        /* \"contracts/ZenyaStake.sol\":3215:3225  msg.sender */\n      caller\n        /* \"contracts/ZenyaStake.sol\":3227:3233  _stake */\n      dup4\n        /* \"contracts/ZenyaStake.sol\":3209:3214  _burn */\n      tag_297\n        /* \"contracts/ZenyaStake.sol\":3209:3234  _burn(msg.sender, _stake) */\n      jump\t// in\n    tag_296:\n        /* \"contracts/ZenyaStake.sol\":3270:3271  0 */\n      0x00\n        /* \"contracts/ZenyaStake.sol\":3248:3254  stakes */\n      0x09\n        /* \"contracts/ZenyaStake.sol\":3248:3266  stakes[msg.sender] */\n      0x00\n        /* \"contracts/ZenyaStake.sol\":3255:3265  msg.sender */\n      caller\n        /* \"contracts/ZenyaStake.sol\":3248:3266  stakes[msg.sender] */\n      0xffffffffffffffffffffffffffffffffffffffff\n      and\n      0xffffffffffffffffffffffffffffffffffffffff\n      and\n      dup2\n      mstore\n      0x20\n      add\n      swap1\n      dup2\n      mstore\n      0x20\n      add\n      0x00\n      keccak256\n      sload\n        /* \"contracts/ZenyaStake.sol\":3248:3271  stakes[msg.sender] == 0 */\n      eq\n        /* \"contracts/ZenyaStake.sol\":3245:3299  if(stakes[msg.sender] == 0) addStakeholder(msg.sender) */\n      iszero\n      tag_298\n      jumpi\n        /* \"contracts/ZenyaStake.sol\":3273:3299  addStakeholder(msg.sender) */\n      tag_299\n        /* \"contracts/ZenyaStake.sol\":3288:3298  msg.sender */\n      caller\n        /* \"contracts/ZenyaStake.sol\":3273:3287  addStakeholder */\n      tag_172\n        /* \"contracts/ZenyaStake.sol\":3273:3299  addStakeholder(msg.sender) */\n      jump\t// in\n    tag_299:\n        /* \"contracts/ZenyaStake.sol\":3245:3299  if(stakes[msg.sender] == 0) addStakeholder(msg.sender) */\n    tag_298:\n        /* \"contracts/ZenyaStake.sol\":3352:3358  _stake */\n      dup2\n        /* \"contracts/ZenyaStake.sol\":3331:3337  stakes */\n      0x09\n        /* \"contracts/ZenyaStake.sol\":3331:3349  stakes[msg.sender] */\n      0x00\n        /* \"contracts/ZenyaStake.sol\":3338:3348  msg.sender */\n      caller\n        /* \"contracts/ZenyaStake.sol\":3331:3349  stakes[msg.sender] */\n      0xffffffffffffffffffffffffffffffffffffffff\n      and\n      0xffffffffffffffffffffffffffffffffffffffff\n      and\n      dup2\n      mstore\n      0x20\n      add\n      swap1\n      dup2\n      mstore\n      0x20\n      add\n      0x00\n      keccak256\n      sload\n        /* \"contracts/ZenyaStake.sol\":3331:3358  stakes[msg.sender] + _stake */\n      tag_300\n      swap2\n      swap1\n      tag_204\n      jump\t// in\n    tag_300:\n        /* \"contracts/ZenyaStake.sol\":3310:3316  stakes */\n      0x09\n        /* \"contracts/ZenyaStake.sol\":3310:3328  stakes[msg.sender] */\n      0x00\n        /* \"contracts/ZenyaStake.sol\":3317:3327  msg.sender */\n      caller\n        /* \"contracts/ZenyaStake.sol\":3310:3328  stakes[msg.sender] */\n      0xffffffffffffffffffffffffffffffffffffffff\n      and\n      0xffffffffffffffffffffffffffffffffffffffff\n      and\n      dup2\n      mstore\n      0x20\n      add\n      swap1\n      dup2\n      mstore\n      0x20\n      add\n      0x00\n      keccak256\n        /* \"contracts/ZenyaStake.sol\":3310:3358  stakes[msg.sender] = stakes[msg.sender] + _stake */\n      dup2\n      swap1\n      sstore\n      pop\n        /* \"contracts/ZenyaStake.sol\":3414:3420  1 days */\n      0x015180\n        /* \"contracts/ZenyaStake.sol\":3399:3411  numberOfDays */\n      dup2\n        /* \"contracts/ZenyaStake.sol\":3399:3420  numberOfDays * 1 days */\n      tag_301\n      swap2\n      swap1\n      tag_249\n      jump\t// in\n    tag_301:\n        /* \"contracts/ZenyaStake.sol\":3380:3395  block.timestamp */\n      timestamp\n        /* \"contracts/ZenyaStake.sol\":3380:3421  block.timestamp + (numberOfDays * 1 days) */\n      tag_302\n      swap2\n      swap1\n      tag_204\n      jump\t// in\n    tag_302:\n        /* \"contracts/ZenyaStake.sol\":3369:3377  deadline */\n      0x0c\n        /* \"contracts/ZenyaStake.sol\":3369:3421  deadline = block.timestamp + (numberOfDays * 1 days) */\n      dup2\n      swap1\n      sstore\n      pop\n        /* \"contracts/ZenyaStake.sol\":3135:3454  function createStake(uint256 _stake, uint numberOfDays) public {\r... */\n      pop\n      pop\n      jump\t// out\n        /* \"contracts/ZenyaStake.sol\":4401:4528  function calculateReward(address _stakeholder) public view returns(uint256){\r... */\n    tag_157:\n        /* \"contracts/ZenyaStake.sol\":4468:4475  uint256 */\n      0x00\n        /* \"contracts/ZenyaStake.sol\":4517:4520  100 */\n      0x64\n        /* \"contracts/ZenyaStake.sol\":4494:4500  stakes */\n      0x09\n        /* \"contracts/ZenyaStake.sol\":4494:4514  stakes[_stakeholder] */\n      0x00\n        /* \"contracts/ZenyaStake.sol\":4501:4513  _stakeholder */\n      dup5\n        /* \"contracts/ZenyaStake.sol\":4494:4514  stakes[_stakeholder] */\n      0xffffffffffffffffffffffffffffffffffffffff\n      and\n      0xffffffffffffffffffffffffffffffffffffffff\n      and\n      dup2\n      mstore\n      0x20\n      add\n      swap1\n      dup2\n      mstore\n      0x20\n      add\n      0x00\n      keccak256\n      sload\n        /* \"contracts/ZenyaStake.sol\":4494:4520  stakes[_stakeholder] / 100 */\n      tag_304\n      swap2\n      swap1\n      tag_254\n      jump\t// in\n    tag_304:\n        /* \"contracts/ZenyaStake.sol\":4487:4520  return stakes[_stakeholder] / 100 */\n      swap1\n      pop\n        /* \"contracts/ZenyaStake.sol\":4401:4528  function calculateReward(address _stakeholder) public view returns(uint256){\r... */\n      swap2\n      swap1\n      pop\n      jump\t// out\n        /* \"@openzeppelin/contracts/token/ERC20/ERC20.sol\":3976:4125  function allowance(address owner, address spender) public view virtual override returns (uint256) {... */\n    tag_163:\n        /* \"@openzeppelin/contracts/token/ERC20/ERC20.sol\":4065:4072  uint256 */\n      0x00\n        /* \"@openzeppelin/contracts/token/ERC20/ERC20.sol\":4091:4102  _allowances */\n      0x01\n        /* \"@openzeppelin/contracts/token/ERC20/ERC20.sol\":4091:4109  _allowances[owner] */\n      0x00\n        /* \"@openzeppelin/contracts/token/ERC20/ERC20.sol\":4103:4108  owner */\n      dup5\n        /* \"@openzeppelin/contracts/token/ERC20/ERC20.sol\":4091:4109  _allowances[owner] */\n      0xffffffffffffffffffffffffffffffffffffffff\n      and\n      0xffffffffffffffffffffffffffffffffffffffff\n      and\n      dup2\n      mstore\n      0x20\n      add\n      swap1\n      dup2\n      mstore\n      0x20\n      add\n      0x00\n      keccak256\n        /* \"@openzeppelin/contracts/token/ERC20/ERC20.sol\":4091:4118  _allowances[owner][spender] */\n      0x00\n        /* \"@openzeppelin/contracts/token/ERC20/ERC20.sol\":4110:4117  spender */\n      dup4\n        /* \"@openzeppelin/contracts/token/ERC20/ERC20.sol\":4091:4118  _allowances[owner][spender] */\n      0xffffffffffffffffffffffffffffffffffffffff\n      and\n      0xffffffffffffffffffffffffffffffffffffffff\n      and\n      dup2\n      mstore\n      0x20\n      add\n      swap1\n      dup2\n      mstore\n      0x20\n      add\n      0x00\n      keccak256\n      sload\n        /* \"@openzeppelin/contracts/token/ERC20/ERC20.sol\":4084:4118  return _allowances[owner][spender] */\n      swap1\n      pop\n        /* \"@openzeppelin/contracts/token/ERC20/ERC20.sol\":3976:4125  function allowance(address owner, address spender) public view virtual override returns (uint256) {... */\n      swap3\n      swap2\n      pop\n      pop\n      jump\t// out\n        /* \"contracts/ZenyaStake.sol\":5167:5405  function checkTime() public returns (bool){\r... */\n    tag_167:\n        /* \"contracts/ZenyaStake.sol\":5204:5208  bool */\n      0x00\n        /* \"contracts/ZenyaStake.sol\":5220:5233  uint duration */\n      dup1\n        /* \"contracts/ZenyaStake.sol\":5236:5252  7 * 24 * 60 * 60 */\n      0x093a80\n        /* \"contracts/ZenyaStake.sol\":5220:5252  uint duration = 7 * 24 * 60 * 60 */\n      swap1\n      pop\n        /* \"contracts/ZenyaStake.sol\":5281:5293  uint  _start */\n      0x00\n        /* \"contracts/ZenyaStake.sol\":5296:5311  block.timestamp */\n      timestamp\n        /* \"contracts/ZenyaStake.sol\":5281:5311  uint  _start = block.timestamp */\n      swap1\n      pop\n        /* \"contracts/ZenyaStake.sol\":5341:5351  uint  _end */\n      0x00\n        /* \"contracts/ZenyaStake.sol\":5363:5371  duration */\n      dup3\n        /* \"contracts/ZenyaStake.sol\":5354:5360  _start */\n      dup3\n        /* \"contracts/ZenyaStake.sol\":5354:5371  _start + duration */\n      tag_307\n      swap2\n      swap1\n      tag_204\n      jump\t// in\n    tag_307:\n        /* \"contracts/ZenyaStake.sol\":5341:5371  uint  _end = _start + duration */\n      swap1\n      pop\n        /* \"contracts/ZenyaStake.sol\":5209:5405  {\r... */\n      pop\n      pop\n      pop\n        /* \"contracts/ZenyaStake.sol\":5167:5405  function checkTime() public returns (bool){\r... */\n      swap1\n      jump\t// out\n        /* \"contracts/ZenyaStake.sol\":2381:2566  function addStakeholder(address _stakeholder) public {\r... */\n    tag_172:\n        /* \"contracts/ZenyaStake.sol\":2445:2464  bool _isStakeholder */\n      0x00\n        /* \"contracts/ZenyaStake.sol\":2470:2497  isStakeholder(_stakeholder) */\n      tag_309\n        /* \"contracts/ZenyaStake.sol\":2484:2496  _stakeholder */\n      dup3\n        /* \"contracts/ZenyaStake.sol\":2470:2483  isStakeholder */\n      tag_176\n        /* \"contracts/ZenyaStake.sol\":2470:2497  isStakeholder(_stakeholder) */\n      jump\t// in\n    tag_309:\n        /* \"contracts/ZenyaStake.sol\":2444:2497  (bool _isStakeholder, ) = isStakeholder(_stakeholder) */\n      pop\n      swap1\n      pop\n        /* \"contracts/ZenyaStake.sol\":2511:2525  _isStakeholder */\n      dup1\n        /* \"contracts/ZenyaStake.sol\":2507:2558  if(!_isStakeholder) stakeholders.push(_stakeholder) */\n      tag_310\n      jumpi\n        /* \"contracts/ZenyaStake.sol\":2527:2539  stakeholders */\n      0x0a\n        /* \"contracts/ZenyaStake.sol\":2545:2557  _stakeholder */\n      dup3\n        /* \"contracts/ZenyaStake.sol\":2527:2558  stakeholders.push(_stakeholder) */\n      swap1\n      dup1\n      0x01\n      dup2\n      sload\n      add\n      dup1\n      dup3\n      sstore\n      dup1\n      swap2\n      pop\n      pop\n      0x01\n      swap1\n      sub\n      swap1\n      0x00\n      mstore\n      keccak256(0x00, 0x20)\n      add\n      0x00\n      swap1\n      swap2\n      swap1\n      swap2\n      swap1\n      swap2\n      0x0100\n      exp\n      dup2\n      sload\n      dup2\n      0xffffffffffffffffffffffffffffffffffffffff\n      mul\n      not\n      and\n      swap1\n      dup4\n      0xffffffffffffffffffffffffffffffffffffffff\n      and\n      mul\n      or\n      swap1\n      sstore\n      pop\n        /* \"contracts/ZenyaStake.sol\":2507:2558  if(!_isStakeholder) stakeholders.push(_stakeholder) */\n    tag_310:\n        /* \"contracts/ZenyaStake.sol\":2434:2566  {\r... */\n      pop\n        /* \"contracts/ZenyaStake.sol\":2381:2566  function addStakeholder(address _stakeholder) public {\r... */\n      pop\n      jump\t// out\n        /* \"contracts/ZenyaStake.sol\":2086:2335  function isStakeholder(address _address) public view returns(bool, uint256) {\r... */\n    tag_176:\n        /* \"contracts/ZenyaStake.sol\":2147:2151  bool */\n      0x00\n        /* \"contracts/ZenyaStake.sol\":2153:2160  uint256 */\n      dup1\n        /* \"contracts/ZenyaStake.sol\":2177:2186  uint256 s */\n      0x00\n        /* \"contracts/ZenyaStake.sol\":2172:2300  for (uint256 s = 0; s < stakeholders.length; s += 1) {\r... */\n    tag_313:\n        /* \"contracts/ZenyaStake.sol\":2196:2208  stakeholders */\n      0x0a\n        /* \"contracts/ZenyaStake.sol\":2196:2215  stakeholders.length */\n      dup1\n      sload\n      swap1\n      pop\n        /* \"contracts/ZenyaStake.sol\":2192:2193  s */\n      dup2\n        /* \"contracts/ZenyaStake.sol\":2192:2215  s < stakeholders.length */\n      lt\n        /* \"contracts/ZenyaStake.sol\":2172:2300  for (uint256 s = 0; s < stakeholders.length; s += 1) {\r... */\n      iszero\n      tag_314\n      jumpi\n        /* \"contracts/ZenyaStake.sol\":2255:2267  stakeholders */\n      0x0a\n        /* \"contracts/ZenyaStake.sol\":2268:2269  s */\n      dup2\n        /* \"contracts/ZenyaStake.sol\":2255:2270  stakeholders[s] */\n      dup2\n      sload\n      dup2\n      lt\n      tag_316\n      jumpi\n      tag_317\n      tag_201\n      jump\t// in\n    tag_317:\n    tag_316:\n      swap1\n      0x00\n      mstore\n      keccak256(0x00, 0x20)\n      add\n      0x00\n      swap1\n      sload\n      swap1\n      0x0100\n      exp\n      swap1\n      div\n      0xffffffffffffffffffffffffffffffffffffffff\n      and\n        /* \"contracts/ZenyaStake.sol\":2243:2270  _address == stakeholders[s] */\n      0xffffffffffffffffffffffffffffffffffffffff\n      and\n        /* \"contracts/ZenyaStake.sol\":2243:2251  _address */\n      dup5\n        /* \"contracts/ZenyaStake.sol\":2243:2270  _address == stakeholders[s] */\n      0xffffffffffffffffffffffffffffffffffffffff\n      and\n      eq\n        /* \"contracts/ZenyaStake.sol\":2239:2288  if (_address == stakeholders[s]) return (true, s) */\n      iszero\n      tag_319\n      jumpi\n        /* \"contracts/ZenyaStake.sol\":2280:2284  true */\n      0x01\n        /* \"contracts/ZenyaStake.sol\":2286:2287  s */\n      dup2\n        /* \"contracts/ZenyaStake.sol\":2272:2288  return (true, s) */\n      swap3\n      pop\n      swap3\n      pop\n      pop\n      jump(tag_312)\n        /* \"contracts/ZenyaStake.sol\":2239:2288  if (_address == stakeholders[s]) return (true, s) */\n    tag_319:\n        /* \"contracts/ZenyaStake.sol\":2222:2223  1 */\n      0x01\n        /* \"contracts/ZenyaStake.sol\":2217:2223  s += 1 */\n      dup2\n      tag_320\n      swap2\n      swap1\n      tag_204\n      jump\t// in\n    tag_320:\n      swap1\n      pop\n        /* \"contracts/ZenyaStake.sol\":2172:2300  for (uint256 s = 0; s < stakeholders.length; s += 1) {\r... */\n      jump(tag_313)\n    tag_314:\n      pop\n        /* \"contracts/ZenyaStake.sol\":2318:2323  false */\n      0x00\n        /* \"contracts/ZenyaStake.sol\":2325:2326  0 */\n      dup1\n        /* \"contracts/ZenyaStake.sol\":2310:2327  return (false, 0) */\n      swap2\n      pop\n      swap2\n      pop\n        /* \"contracts/ZenyaStake.sol\":2086:2335  function isStakeholder(address _address) public view returns(bool, uint256) {\r... */\n    tag_312:\n      swap2\n      pop\n      swap2\n      jump\t// out\n        /* \"@openzeppelin/contracts/access/Ownable.sol\":1918:2116  function transferOwnership(address newOwner) public virtual onlyOwner {... */\n    tag_182:\n        /* \"@openzeppelin/contracts/access/Ownable.sol\":1259:1271  _msgSender() */\n      tag_322\n        /* \"@openzeppelin/contracts/access/Ownable.sol\":1259:1269  _msgSender */\n      tag_192\n        /* \"@openzeppelin/contracts/access/Ownable.sol\":1259:1271  _msgSender() */\n      jump\t// in\n    tag_322:\n        /* \"@openzeppelin/contracts/access/Ownable.sol\":1248:1271  owner() == _msgSender() */\n      0xffffffffffffffffffffffffffffffffffffffff\n      and\n        /* \"@openzeppelin/contracts/access/Ownable.sol\":1248:1255  owner() */\n      tag_323\n        /* \"@openzeppelin/contracts/access/Ownable.sol\":1248:1253  owner */\n      tag_117\n        /* \"@openzeppelin/contracts/access/Ownable.sol\":1248:1255  owner() */\n      jump\t// in\n    tag_323:\n        /* \"@openzeppelin/contracts/access/Ownable.sol\":1248:1271  owner() == _msgSender() */\n      0xffffffffffffffffffffffffffffffffffffffff\n      and\n      eq\n        /* \"@openzeppelin/contracts/access/Ownable.sol\":1240:1308  require(owner() == _msgSender(), \"Ownable: caller is not the owner\") */\n      tag_324\n      jumpi\n      mload(0x40)\n      0x08c379a000000000000000000000000000000000000000000000000000000000\n      dup2\n      mstore\n      0x04\n      add\n      tag_325\n      swap1\n      tag_240\n      jump\t// in\n    tag_325:\n      mload(0x40)\n      dup1\n      swap2\n      sub\n      swap1\n      revert\n    tag_324:\n        /* \"@openzeppelin/contracts/access/Ownable.sol\":2026:2027  0 */\n      0x00\n        /* \"@openzeppelin/contracts/access/Ownable.sol\":2006:2028  newOwner != address(0) */\n      0xffffffffffffffffffffffffffffffffffffffff\n      and\n        /* \"@openzeppelin/contracts/access/Ownable.sol\":2006:2014  newOwner */\n      dup2\n        /* \"@openzeppelin/contracts/access/Ownable.sol\":2006:2028  newOwner != address(0) */\n      0xffffffffffffffffffffffffffffffffffffffff\n      and\n      eq\n      iszero\n        /* \"@openzeppelin/contracts/access/Ownable.sol\":1998:2071  require(newOwner != address(0), \"Ownable: new owner is the zero address\") */\n      tag_327\n      jumpi\n      mload(0x40)\n      0x08c379a000000000000000000000000000000000000000000000000000000000\n      dup2\n      mstore\n      0x04\n      add\n      tag_328\n      swap1\n      tag_329\n      jump\t// in\n    tag_328:\n      mload(0x40)\n      dup1\n      swap2\n      sub\n      swap1\n      revert\n    tag_327:\n        /* \"@openzeppelin/contracts/access/Ownable.sol\":2081:2109  _transferOwnership(newOwner) */\n      tag_330\n        /* \"@openzeppelin/contracts/access/Ownable.sol\":2100:2108  newOwner */\n      dup2\n        /* \"@openzeppelin/contracts/access/Ownable.sol\":2081:2099  _transferOwnership */\n      tag_243\n        /* \"@openzeppelin/contracts/access/Ownable.sol\":2081:2109  _transferOwnership(newOwner) */\n      jump\t// in\n    tag_330:\n        /* \"@openzeppelin/contracts/access/Ownable.sol\":1918:2116  function transferOwnership(address newOwner) public virtual onlyOwner {... */\n      pop\n      jump\t// out\n        /* \"@openzeppelin/contracts/utils/Context.sol\":640:736  function _msgSender() internal view virtual returns (address) {... */\n    tag_192:\n        /* \"@openzeppelin/contracts/utils/Context.sol\":693:700  address */\n      0x00\n        /* \"@openzeppelin/contracts/utils/Context.sol\":719:729  msg.sender */\n      caller\n        /* \"@openzeppelin/contracts/utils/Context.sol\":712:729  return msg.sender */\n      swap1\n      pop\n        /* \"@openzeppelin/contracts/utils/Context.sol\":640:736  function _msgSender() internal view virtual returns (address) {... */\n      swap1\n      jump\t// out\n        /* \"@openzeppelin/contracts/token/ERC20/ERC20.sol\":10123:10493  function _approve(... */\n    tag_194:\n        /* \"@openzeppelin/contracts/token/ERC20/ERC20.sol\":10271:10272  0 */\n      0x00\n        /* \"@openzeppelin/contracts/token/ERC20/ERC20.sol\":10254:10273  owner != address(0) */\n      0xffffffffffffffffffffffffffffffffffffffff\n      and\n        /* \"@openzeppelin/contracts/token/ERC20/ERC20.sol\":10254:10259  owner */\n      dup4\n        /* \"@openzeppelin/contracts/token/ERC20/ERC20.sol\":10254:10273  owner != address(0) */\n      0xffffffffffffffffffffffffffffffffffffffff\n      and\n      eq\n      iszero\n        /* \"@openzeppelin/contracts/token/ERC20/ERC20.sol\":10246:10314  require(owner != address(0), \"ERC20: approve from the zero address\") */\n      tag_333\n      jumpi\n      mload(0x40)\n      0x08c379a000000000000000000000000000000000000000000000000000000000\n      dup2\n      mstore\n      0x04\n      add\n      tag_334\n      swap1\n      tag_335\n      jump\t// in\n    tag_334:\n      mload(0x40)\n      dup1\n      swap2\n      sub\n      swap1\n      revert\n    tag_333:\n        /* \"@openzeppelin/contracts/token/ERC20/ERC20.sol\":10351:10352  0 */\n      0x00\n        /* \"@openzeppelin/contracts/token/ERC20/ERC20.sol\":10332:10353  spender != address(0) */\n      0xffffffffffffffffffffffffffffffffffffffff\n      and\n        /* \"@openzeppelin/contracts/token/ERC20/ERC20.sol\":10332:10339  spender */\n      dup3\n        /* \"@openzeppelin/contracts/token/ERC20/ERC20.sol\":10332:10353  spender != address(0) */\n      0xffffffffffffffffffffffffffffffffffffffff\n      and\n      eq\n      iszero\n        /* \"@openzeppelin/contracts/token/ERC20/ERC20.sol\":10324:10392  require(spender != address(0), \"ERC20: approve to the zero address\") */\n      tag_336\n      jumpi\n      mload(0x40)\n      0x08c379a000000000000000000000000000000000000000000000000000000000\n      dup2\n      mstore\n      0x04\n      add\n      tag_337\n      swap1\n      tag_338\n      jump\t// in\n    tag_337:\n      mload(0x40)\n      dup1\n      swap2\n      sub\n      swap1\n      revert\n    tag_336:\n        /* \"@openzeppelin/contracts/token/ERC20/ERC20.sol\":10433:10439  amount */\n      dup1\n        /* \"@openzeppelin/contracts/token/ERC20/ERC20.sol\":10403:10414  _allowances */\n      0x01\n        /* \"@openzeppelin/contracts/token/ERC20/ERC20.sol\":10403:10421  _allowances[owner] */\n      0x00\n        /* \"@openzeppelin/contracts/token/ERC20/ERC20.sol\":10415:10420  owner */\n      dup6\n        /* \"@openzeppelin/contracts/token/ERC20/ERC20.sol\":10403:10421  _allowances[owner] */\n      0xffffffffffffffffffffffffffffffffffffffff\n      and\n      0xffffffffffffffffffffffffffffffffffffffff\n      and\n      dup2\n      mstore\n      0x20\n      add\n      swap1\n      dup2\n      mstore\n      0x20\n      add\n      0x00\n      keccak256\n        /* \"@openzeppelin/contracts/token/ERC20/ERC20.sol\":10403:10430  _allowances[owner][spender] */\n      0x00\n        /* \"@openzeppelin/contracts/token/ERC20/ERC20.sol\":10422:10429  spender */\n      dup5\n        /* \"@openzeppelin/contracts/token/ERC20/ERC20.sol\":10403:10430  _allowances[owner][spender] */\n      0xffffffffffffffffffffffffffffffffffffffff\n      and\n      0xffffffffffffffffffffffffffffffffffffffff\n      and\n      dup2\n      mstore\n      0x20\n      add\n      swap1\n      dup2\n      mstore\n      0x20\n      add\n      0x00\n      keccak256\n        /* \"@openzeppelin/contracts/token/ERC20/ERC20.sol\":10403:10439  _allowances[owner][spender] = amount */\n      dup2\n      swap1\n      sstore\n      pop\n        /* \"@openzeppelin/contracts/token/ERC20/ERC20.sol\":10470:10477  spender */\n      dup2\n        /* \"@openzeppelin/contracts/token/ERC20/ERC20.sol\":10454:10486  Approval(owner, spender, amount) */\n      0xffffffffffffffffffffffffffffffffffffffff\n      and\n        /* \"@openzeppelin/contracts/token/ERC20/ERC20.sol\":10463:10468  owner */\n      dup4\n        /* \"@openzeppelin/contracts/token/ERC20/ERC20.sol\":10454:10486  Approval(owner, spender, amount) */\n      0xffffffffffffffffffffffffffffffffffffffff\n      and\n      0x8c5be1e5ebec7d5bd14f71427d1e84f3dd0314c0f7b2291e5b200ac8c7c3b925\n        /* \"@openzeppelin/contracts/token/ERC20/ERC20.sol\":10479:10485  amount */\n      dup4\n        /* \"@openzeppelin/contracts/token/ERC20/ERC20.sol\":10454:10486  Approval(owner, spender, amount) */\n      mload(0x40)\n      tag_339\n      swap2\n      swap1\n      tag_44\n      jump\t// in\n    tag_339:\n      mload(0x40)\n      dup1\n      swap2\n      sub\n      swap1\n      log3\n        /* \"@openzeppelin/contracts/token/ERC20/ERC20.sol\":10123:10493  function _approve(... */\n      pop\n      pop\n      pop\n      jump\t// out\n        /* \"@openzeppelin/contracts/token/ERC20/ERC20.sol\":10770:11211  function _spendAllowance(... */\n    tag_211:\n        /* \"@openzeppelin/contracts/token/ERC20/ERC20.sol\":10900:10924  uint256 currentAllowance */\n      0x00\n        /* \"@openzeppelin/contracts/token/ERC20/ERC20.sol\":10927:10952  allowance(owner, spender) */\n      tag_341\n        /* \"@openzeppelin/contracts/token/ERC20/ERC20.sol\":10937:10942  owner */\n      dup5\n        /* \"@openzeppelin/contracts/token/ERC20/ERC20.sol\":10944:10951  spender */\n      dup5\n        /* \"@openzeppelin/contracts/token/ERC20/ERC20.sol\":10927:10936  allowance */\n      tag_163\n        /* \"@openzeppelin/contracts/token/ERC20/ERC20.sol\":10927:10952  allowance(owner, spender) */\n      jump\t// in\n    tag_341:\n        /* \"@openzeppelin/contracts/token/ERC20/ERC20.sol\":10900:10952  uint256 currentAllowance = allowance(owner, spender) */\n      swap1\n      pop\n        /* \"@openzeppelin/contracts/token/ERC20/ERC20.sol\":10986:11003  type(uint256).max */\n      0xffffffffffffffffffffffffffffffffffffffffffffffffffffffffffffffff\n        /* \"@openzeppelin/contracts/token/ERC20/ERC20.sol\":10966:10982  currentAllowance */\n      dup2\n        /* \"@openzeppelin/contracts/token/ERC20/ERC20.sol\":10966:11003  currentAllowance != type(uint256).max */\n      eq\n        /* \"@openzeppelin/contracts/token/ERC20/ERC20.sol\":10962:11205  if (currentAllowance != type(uint256).max) {... */\n      tag_342\n      jumpi\n        /* \"@openzeppelin/contracts/token/ERC20/ERC20.sol\":11047:11053  amount */\n      dup2\n        /* \"@openzeppelin/contracts/token/ERC20/ERC20.sol\":11027:11043  currentAllowance */\n      dup2\n        /* \"@openzeppelin/contracts/token/ERC20/ERC20.sol\":11027:11053  currentAllowance >= amount */\n      lt\n      iszero\n        /* \"@openzeppelin/contracts/token/ERC20/ERC20.sol\":11019:11087  require(currentAllowance >= amount, \"ERC20: insufficient allowance\") */\n      tag_343\n      jumpi\n      mload(0x40)\n      0x08c379a000000000000000000000000000000000000000000000000000000000\n      dup2\n      mstore\n      0x04\n      add\n      tag_344\n      swap1\n      tag_345\n      jump\t// in\n    tag_344:\n      mload(0x40)\n      dup1\n      swap2\n      sub\n      swap1\n      revert\n    tag_343:\n        /* \"@openzeppelin/contracts/token/ERC20/ERC20.sol\":11129:11180  _approve(owner, spender, currentAllowance - amount) */\n      tag_346\n        /* \"@openzeppelin/contracts/token/ERC20/ERC20.sol\":11138:11143  owner */\n      dup5\n        /* \"@openzeppelin/contracts/token/ERC20/ERC20.sol\":11145:11152  spender */\n      dup5\n        /* \"@openzeppelin/contracts/token/ERC20/ERC20.sol\":11173:11179  amount */\n      dup5\n        /* \"@openzeppelin/contracts/token/ERC20/ERC20.sol\":11154:11170  currentAllowance */\n      dup5\n        /* \"@openzeppelin/contracts/token/ERC20/ERC20.sol\":11154:11179  currentAllowance - amount */\n      sub\n        /* \"@openzeppelin/contracts/token/ERC20/ERC20.sol\":11129:11137  _approve */\n      tag_194\n        /* \"@openzeppelin/contracts/token/ERC20/ERC20.sol\":11129:11180  _approve(owner, spender, currentAllowance - amount) */\n      jump\t// in\n    tag_346:\n        /* \"@openzeppelin/contracts/token/ERC20/ERC20.sol\":10962:11205  if (currentAllowance != type(uint256).max) {... */\n    tag_342:\n        /* \"@openzeppelin/contracts/token/ERC20/ERC20.sol\":10890:11211  {... */\n      pop\n        /* \"@openzeppelin/contracts/token/ERC20/ERC20.sol\":10770:11211  function _spendAllowance(... */\n      pop\n      pop\n      pop\n      jump\t// out\n        /* \"@openzeppelin/contracts/token/ERC20/ERC20.sol\":7488:8139  function _transfer(... */\n    tag_213:\n        /* \"@openzeppelin/contracts/token/ERC20/ERC20.sol\":7630:7631  0 */\n      0x00\n        /* \"@openzeppelin/contracts/token/ERC20/ERC20.sol\":7614:7632  from != address(0) */\n      0xffffffffffffffffffffffffffffffffffffffff\n      and\n        /* \"@openzeppelin/contracts/token/ERC20/ERC20.sol\":7614:7618  from */\n      dup4\n        /* \"@openzeppelin/contracts/token/ERC20/ERC20.sol\":7614:7632  from != address(0) */\n      0xffffffffffffffffffffffffffffffffffffffff\n      and\n      eq\n      iszero\n        /* \"@openzeppelin/contracts/token/ERC20/ERC20.sol\":7606:7674  require(from != address(0), \"ERC20: transfer from the zero address\") */\n      tag_348\n      jumpi\n      mload(0x40)\n      0x08c379a000000000000000000000000000000000000000000000000000000000\n      dup2\n      mstore\n      0x04\n      add\n      tag_349\n      swap1\n      tag_350\n      jump\t// in\n    tag_349:\n      mload(0x40)\n      dup1\n      swap2\n      sub\n      swap1\n      revert\n    tag_348:\n        /* \"@openzeppelin/contracts/token/ERC20/ERC20.sol\":7706:7707  0 */\n      0x00\n        /* \"@openzeppelin/contracts/token/ERC20/ERC20.sol\":7692:7708  to != address(0) */\n      0xffffffffffffffffffffffffffffffffffffffff\n      and\n        /* \"@openzeppelin/contracts/token/ERC20/ERC20.sol\":7692:7694  to */\n      dup3\n        /* \"@openzeppelin/contracts/token/ERC20/ERC20.sol\":7692:7708  to != address(0) */\n      0xffffffffffffffffffffffffffffffffffffffff\n      and\n      eq\n      iszero\n        /* \"@openzeppelin/contracts/token/ERC20/ERC20.sol\":7684:7748  require(to != address(0), \"ERC20: transfer to the zero address\") */\n      tag_351\n      jumpi\n      mload(0x40)\n      0x08c379a000000000000000000000000000000000000000000000000000000000\n      dup2\n      mstore\n      0x04\n      add\n      tag_352\n      swap1\n      tag_353\n      jump\t// in\n    tag_352:\n      mload(0x40)\n      dup1\n      swap2\n      sub\n      swap1\n      revert\n    tag_351:\n        /* \"@openzeppelin/contracts/token/ERC20/ERC20.sol\":7759:7797  _beforeTokenTransfer(from, to, amount) */\n      tag_354\n        /* \"@openzeppelin/contracts/token/ERC20/ERC20.sol\":7780:7784  from */\n      dup4\n        /* \"@openzeppelin/contracts/token/ERC20/ERC20.sol\":7786:7788  to */\n      dup4\n        /* \"@openzeppelin/contracts/token/ERC20/ERC20.sol\":7790:7796  amount */\n      dup4\n        /* \"@openzeppelin/contracts/token/ERC20/ERC20.sol\":7759:7779  _beforeTokenTransfer */\n      tag_355\n        /* \"@openzeppelin/contracts/token/ERC20/ERC20.sol\":7759:7797  _beforeTokenTransfer(from, to, amount) */\n      jump\t// in\n    tag_354:\n        /* \"@openzeppelin/contracts/token/ERC20/ERC20.sol\":7808:7827  uint256 fromBalance */\n      0x00\n        /* \"@openzeppelin/contracts/token/ERC20/ERC20.sol\":7830:7839  _balances */\n      dup1\n        /* \"@openzeppelin/contracts/token/ERC20/ERC20.sol\":7830:7845  _balances[from] */\n      0x00\n        /* \"@openzeppelin/contracts/token/ERC20/ERC20.sol\":7840:7844  from */\n      dup6\n        /* \"@openzeppelin/contracts/token/ERC20/ERC20.sol\":7830:7845  _balances[from] */\n      0xffffffffffffffffffffffffffffffffffffffff\n      and\n      0xffffffffffffffffffffffffffffffffffffffff\n      and\n      dup2\n      mstore\n      0x20\n      add\n      swap1\n      dup2\n      mstore\n      0x20\n      add\n      0x00\n      keccak256\n      sload\n        /* \"@openzeppelin/contracts/token/ERC20/ERC20.sol\":7808:7845  uint256 fromBalance = _balances[from] */\n      swap1\n      pop\n        /* \"@openzeppelin/contracts/token/ERC20/ERC20.sol\":7878:7884  amount */\n      dup2\n        /* \"@openzeppelin/contracts/token/ERC20/ERC20.sol\":7863:7874  fromBalance */\n      dup2\n        /* \"@openzeppelin/contracts/token/ERC20/ERC20.sol\":7863:7884  fromBalance >= amount */\n      lt\n      iszero\n        /* \"@openzeppelin/contracts/token/ERC20/ERC20.sol\":7855:7927  require(fromBalance >= amount, \"ERC20: transfer amount exceeds balance\") */\n      tag_356\n      jumpi\n      mload(0x40)\n      0x08c379a000000000000000000000000000000000000000000000000000000000\n      dup2\n      mstore\n      0x04\n      add\n      tag_357\n      swap1\n      tag_358\n      jump\t// in\n    tag_357:\n      mload(0x40)\n      dup1\n      swap2\n      sub\n      swap1\n      revert\n    tag_356:\n        /* \"@openzeppelin/contracts/token/ERC20/ERC20.sol\":7993:7999  amount */\n      dup2\n        /* \"@openzeppelin/contracts/token/ERC20/ERC20.sol\":7979:7990  fromBalance */\n      dup2\n        /* \"@openzeppelin/contracts/token/ERC20/ERC20.sol\":7979:7999  fromBalance - amount */\n      sub\n        /* \"@openzeppelin/contracts/token/ERC20/ERC20.sol\":7961:7970  _balances */\n      0x00\n        /* \"@openzeppelin/contracts/token/ERC20/ERC20.sol\":7961:7976  _balances[from] */\n      dup1\n        /* \"@openzeppelin/contracts/token/ERC20/ERC20.sol\":7971:7975  from */\n      dup7\n        /* \"@openzeppelin/contracts/token/ERC20/ERC20.sol\":7961:7976  _balances[from] */\n      0xffffffffffffffffffffffffffffffffffffffff\n      and\n      0xffffffffffffffffffffffffffffffffffffffff\n      and\n      dup2\n      mstore\n      0x20\n      add\n      swap1\n      dup2\n      mstore\n      0x20\n      add\n      0x00\n      keccak256\n        /* \"@openzeppelin/contracts/token/ERC20/ERC20.sol\":7961:7999  _balances[from] = fromBalance - amount */\n      dup2\n      swap1\n      sstore\n      pop\n        /* \"@openzeppelin/contracts/token/ERC20/ERC20.sol\":8036:8042  amount */\n      dup2\n        /* \"@openzeppelin/contracts/token/ERC20/ERC20.sol\":8019:8028  _balances */\n      0x00\n        /* \"@openzeppelin/contracts/token/ERC20/ERC20.sol\":8019:8032  _balances[to] */\n      dup1\n        /* \"@openzeppelin/contracts/token/ERC20/ERC20.sol\":8029:8031  to */\n      dup6\n        /* \"@openzeppelin/contracts/token/ERC20/ERC20.sol\":8019:8032  _balances[to] */\n      0xffffffffffffffffffffffffffffffffffffffff\n      and\n      0xffffffffffffffffffffffffffffffffffffffff\n      and\n      dup2\n      mstore\n      0x20\n      add\n      swap1\n      dup2\n      mstore\n      0x20\n      add\n      0x00\n      keccak256\n      0x00\n        /* \"@openzeppelin/contracts/token/ERC20/ERC20.sol\":8019:8042  _balances[to] += amount */\n      dup3\n      dup3\n      sload\n      tag_359\n      swap2\n      swap1\n      tag_204\n      jump\t// in\n    tag_359:\n      swap3\n      pop\n      pop\n      dup2\n      swap1\n      sstore\n      pop\n        /* \"@openzeppelin/contracts/token/ERC20/ERC20.sol\":8073:8075  to */\n      dup3\n        /* \"@openzeppelin/contracts/token/ERC20/ERC20.sol\":8058:8084  Transfer(from, to, amount) */\n      0xffffffffffffffffffffffffffffffffffffffff\n      and\n        /* \"@openzeppelin/contracts/token/ERC20/ERC20.sol\":8067:8071  from */\n      dup5\n        /* \"@openzeppelin/contracts/token/ERC20/ERC20.sol\":8058:8084  Transfer(from, to, amount) */\n      0xffffffffffffffffffffffffffffffffffffffff\n      and\n      0xddf252ad1be2c89b69c2b068fc378daa952ba7f163c4a11628f55a4df523b3ef\n        /* \"@openzeppelin/contracts/token/ERC20/ERC20.sol\":8077:8083  amount */\n      dup5\n        /* \"@openzeppelin/contracts/token/ERC20/ERC20.sol\":8058:8084  Transfer(from, to, amount) */\n      mload(0x40)\n      tag_360\n      swap2\n      swap1\n      tag_44\n      jump\t// in\n    tag_360:\n      mload(0x40)\n      dup1\n      swap2\n      sub\n      swap1\n      log3\n        /* \"@openzeppelin/contracts/token/ERC20/ERC20.sol\":8095:8132  _afterTokenTransfer(from, to, amount) */\n      tag_361\n        /* \"@openzeppelin/contracts/token/ERC20/ERC20.sol\":8115:8119  from */\n      dup5\n        /* \"@openzeppelin/contracts/token/ERC20/ERC20.sol\":8121:8123  to */\n      dup5\n        /* \"@openzeppelin/contracts/token/ERC20/ERC20.sol\":8125:8131  amount */\n      dup5\n        /* \"@openzeppelin/contracts/token/ERC20/ERC20.sol\":8095:8114  _afterTokenTransfer */\n      tag_362\n        /* \"@openzeppelin/contracts/token/ERC20/ERC20.sol\":8095:8132  _afterTokenTransfer(from, to, amount) */\n      jump\t// in\n    tag_361:\n        /* \"@openzeppelin/contracts/token/ERC20/ERC20.sol\":7596:8139  {... */\n      pop\n        /* \"@openzeppelin/contracts/token/ERC20/ERC20.sol\":7488:8139  function _transfer(... */\n      pop\n      pop\n      pop\n      jump\t// out\n        /* \"@openzeppelin/contracts/access/Ownable.sol\":2270:2457  function _transferOwnership(address newOwner) internal virtual {... */\n    tag_243:\n        /* \"@openzeppelin/contracts/access/Ownable.sol\":2343:2359  address oldOwner */\n      0x00\n        /* \"@openzeppelin/contracts/access/Ownable.sol\":2362:2368  _owner */\n      0x05\n      0x00\n      swap1\n      sload\n      swap1\n      0x0100\n      exp\n      swap1\n      div\n      0xffffffffffffffffffffffffffffffffffffffff\n      and\n        /* \"@openzeppelin/contracts/access/Ownable.sol\":2343:2368  address oldOwner = _owner */\n      swap1\n      pop\n        /* \"@openzeppelin/contracts/access/Ownable.sol\":2387:2395  newOwner */\n      dup2\n        /* \"@openzeppelin/contracts/access/Ownable.sol\":2378:2384  _owner */\n      0x05\n      0x00\n        /* \"@openzeppelin/contracts/access/Ownable.sol\":2378:2395  _owner = newOwner */\n      0x0100\n      exp\n      dup2\n      sload\n      dup2\n      0xffffffffffffffffffffffffffffffffffffffff\n      mul\n      not\n      and\n      swap1\n      dup4\n      0xffffffffffffffffffffffffffffffffffffffff\n      and\n      mul\n      or\n      swap1\n      sstore\n      pop\n        /* \"@openzeppelin/contracts/access/Ownable.sol\":2441:2449  newOwner */\n      dup2\n        /* \"@openzeppelin/contracts/access/Ownable.sol\":2410:2450  OwnershipTransferred(oldOwner, newOwner) */\n      0xffffffffffffffffffffffffffffffffffffffff\n      and\n        /* \"@openzeppelin/contracts/access/Ownable.sol\":2431:2439  oldOwner */\n      dup2\n        /* \"@openzeppelin/contracts/access/Ownable.sol\":2410:2450  OwnershipTransferred(oldOwner, newOwner) */\n      0xffffffffffffffffffffffffffffffffffffffff\n      and\n      0x8be0079c531659141344cd1fd0a4f28419497f9722a3daafe3b4186f6b6457e0\n      mload(0x40)\n      mload(0x40)\n      dup1\n      swap2\n      sub\n      swap1\n      log3\n        /* \"@openzeppelin/contracts/access/Ownable.sol\":2333:2457  {... */\n      pop\n        /* \"@openzeppelin/contracts/access/Ownable.sol\":2270:2457  function _transferOwnership(address newOwner) internal virtual {... */\n      pop\n      jump\t// out\n        /* \"@openzeppelin/contracts/token/ERC20/ERC20.sol\":8415:8804  function _mint(address account, uint256 amount) internal virtual {... */\n    tag_256:\n        /* \"@openzeppelin/contracts/token/ERC20/ERC20.sol\":8517:8518  0 */\n      0x00\n        /* \"@openzeppelin/contracts/token/ERC20/ERC20.sol\":8498:8519  account != address(0) */\n      0xffffffffffffffffffffffffffffffffffffffff\n      and\n        /* \"@openzeppelin/contracts/token/ERC20/ERC20.sol\":8498:8505  account */\n      dup3\n        /* \"@openzeppelin/contracts/token/ERC20/ERC20.sol\":8498:8519  account != address(0) */\n      0xffffffffffffffffffffffffffffffffffffffff\n      and\n      eq\n      iszero\n        /* \"@openzeppelin/contracts/token/ERC20/ERC20.sol\":8490:8555  require(account != address(0), \"ERC20: mint to the zero address\") */\n      tag_365\n      jumpi\n      mload(0x40)\n      0x08c379a000000000000000000000000000000000000000000000000000000000\n      dup2\n      mstore\n      0x04\n      add\n      tag_366\n      swap1\n      tag_367\n      jump\t// in\n    tag_366:\n      mload(0x40)\n      dup1\n      swap2\n      sub\n      swap1\n      revert\n    tag_365:\n        /* \"@openzeppelin/contracts/token/ERC20/ERC20.sol\":8566:8615  _beforeTokenTransfer(address(0), account, amount) */\n      tag_368\n        /* \"@openzeppelin/contracts/token/ERC20/ERC20.sol\":8595:8596  0 */\n      0x00\n        /* \"@openzeppelin/contracts/token/ERC20/ERC20.sol\":8599:8606  account */\n      dup4\n        /* \"@openzeppelin/contracts/token/ERC20/ERC20.sol\":8608:8614  amount */\n      dup4\n        /* \"@openzeppelin/contracts/token/ERC20/ERC20.sol\":8566:8586  _beforeTokenTransfer */\n      tag_355\n        /* \"@openzeppelin/contracts/token/ERC20/ERC20.sol\":8566:8615  _beforeTokenTransfer(address(0), account, amount) */\n      jump\t// in\n    tag_368:\n        /* \"@openzeppelin/contracts/token/ERC20/ERC20.sol\":8642:8648  amount */\n      dup1\n        /* \"@openzeppelin/contracts/token/ERC20/ERC20.sol\":8626:8638  _totalSupply */\n      0x02\n      0x00\n        /* \"@openzeppelin/contracts/token/ERC20/ERC20.sol\":8626:8648  _totalSupply += amount */\n      dup3\n      dup3\n      sload\n      tag_369\n      swap2\n      swap1\n      tag_204\n      jump\t// in\n    tag_369:\n      swap3\n      pop\n      pop\n      dup2\n      swap1\n      sstore\n      pop\n        /* \"@openzeppelin/contracts/token/ERC20/ERC20.sol\":8680:8686  amount */\n      dup1\n        /* \"@openzeppelin/contracts/token/ERC20/ERC20.sol\":8658:8667  _balances */\n      0x00\n        /* \"@openzeppelin/contracts/token/ERC20/ERC20.sol\":8658:8676  _balances[account] */\n      dup1\n        /* \"@openzeppelin/contracts/token/ERC20/ERC20.sol\":8668:8675  account */\n      dup5\n        /* \"@openzeppelin/contracts/token/ERC20/ERC20.sol\":8658:8676  _balances[account] */\n      0xffffffffffffffffffffffffffffffffffffffff\n      and\n      0xffffffffffffffffffffffffffffffffffffffff\n      and\n      dup2\n      mstore\n      0x20\n      add\n      swap1\n      dup2\n      mstore\n      0x20\n      add\n      0x00\n      keccak256\n      0x00\n        /* \"@openzeppelin/contracts/token/ERC20/ERC20.sol\":8658:8686  _balances[account] += amount */\n      dup3\n      dup3\n      sload\n      tag_370\n      swap2\n      swap1\n      tag_204\n      jump\t// in\n    tag_370:\n      swap3\n      pop\n      pop\n      dup2\n      swap1\n      sstore\n      pop\n        /* \"@openzeppelin/contracts/token/ERC20/ERC20.sol\":8722:8729  account */\n      dup2\n        /* \"@openzeppelin/contracts/token/ERC20/ERC20.sol\":8701:8738  Transfer(address(0), account, amount) */\n      0xffffffffffffffffffffffffffffffffffffffff\n      and\n        /* \"@openzeppelin/contracts/token/ERC20/ERC20.sol\":8718:8719  0 */\n      0x00\n        /* \"@openzeppelin/contracts/token/ERC20/ERC20.sol\":8701:8738  Transfer(address(0), account, amount) */\n      0xffffffffffffffffffffffffffffffffffffffff\n      and\n      0xddf252ad1be2c89b69c2b068fc378daa952ba7f163c4a11628f55a4df523b3ef\n        /* \"@openzeppelin/contracts/token/ERC20/ERC20.sol\":8731:8737  amount */\n      dup4\n        /* \"@openzeppelin/contracts/token/ERC20/ERC20.sol\":8701:8738  Transfer(address(0), account, amount) */\n      mload(0x40)\n      tag_371\n      swap2\n      swap1\n      tag_44\n      jump\t// in\n    tag_371:\n      mload(0x40)\n      dup1\n      swap2\n      sub\n      swap1\n      log3\n        /* \"@openzeppelin/contracts/token/ERC20/ERC20.sol\":8749:8797  _afterTokenTransfer(address(0), account, amount) */\n      tag_372\n        /* \"@openzeppelin/contracts/token/ERC20/ERC20.sol\":8777:8778  0 */\n      0x00\n        /* \"@openzeppelin/contracts/token/ERC20/ERC20.sol\":8781:8788  account */\n      dup4\n        /* \"@openzeppelin/contracts/token/ERC20/ERC20.sol\":8790:8796  amount */\n      dup4\n        /* \"@openzeppelin/contracts/token/ERC20/ERC20.sol\":8749:8768  _afterTokenTransfer */\n      tag_362\n        /* \"@openzeppelin/contracts/token/ERC20/ERC20.sol\":8749:8797  _afterTokenTransfer(address(0), account, amount) */\n      jump\t// in\n    tag_372:\n        /* \"@openzeppelin/contracts/token/ERC20/ERC20.sol\":8415:8804  function _mint(address account, uint256 amount) internal virtual {... */\n      pop\n      pop\n      jump\t// out\n        /* \"@openzeppelin/contracts/token/ERC20/ERC20.sol\":9124:9700  function _burn(address account, uint256 amount) internal virtual {... */\n    tag_297:\n        /* \"@openzeppelin/contracts/token/ERC20/ERC20.sol\":9226:9227  0 */\n      0x00\n        /* \"@openzeppelin/contracts/token/ERC20/ERC20.sol\":9207:9228  account != address(0) */\n      0xffffffffffffffffffffffffffffffffffffffff\n      and\n        /* \"@openzeppelin/contracts/token/ERC20/ERC20.sol\":9207:9214  account */\n      dup3\n        /* \"@openzeppelin/contracts/token/ERC20/ERC20.sol\":9207:9228  account != address(0) */\n      0xffffffffffffffffffffffffffffffffffffffff\n      and\n      eq\n      iszero\n        /* \"@openzeppelin/contracts/token/ERC20/ERC20.sol\":9199:9266  require(account != address(0), \"ERC20: burn from the zero address\") */\n      tag_374\n      jumpi\n      mload(0x40)\n      0x08c379a000000000000000000000000000000000000000000000000000000000\n      dup2\n      mstore\n      0x04\n      add\n      tag_375\n      swap1\n      tag_376\n      jump\t// in\n    tag_375:\n      mload(0x40)\n      dup1\n      swap2\n      sub\n      swap1\n      revert\n    tag_374:\n        /* \"@openzeppelin/contracts/token/ERC20/ERC20.sol\":9277:9326  _beforeTokenTransfer(account, address(0), amount) */\n      tag_377\n        /* \"@openzeppelin/contracts/token/ERC20/ERC20.sol\":9298:9305  account */\n      dup3\n        /* \"@openzeppelin/contracts/token/ERC20/ERC20.sol\":9315:9316  0 */\n      0x00\n        /* \"@openzeppelin/contracts/token/ERC20/ERC20.sol\":9319:9325  amount */\n      dup4\n        /* \"@openzeppelin/contracts/token/ERC20/ERC20.sol\":9277:9297  _beforeTokenTransfer */\n      tag_355\n        /* \"@openzeppelin/contracts/token/ERC20/ERC20.sol\":9277:9326  _beforeTokenTransfer(account, address(0), amount) */\n      jump\t// in\n    tag_377:\n        /* \"@openzeppelin/contracts/token/ERC20/ERC20.sol\":9337:9359  uint256 accountBalance */\n      0x00\n        /* \"@openzeppelin/contracts/token/ERC20/ERC20.sol\":9362:9371  _balances */\n      dup1\n        /* \"@openzeppelin/contracts/token/ERC20/ERC20.sol\":9362:9380  _balances[account] */\n      0x00\n        /* \"@openzeppelin/contracts/token/ERC20/ERC20.sol\":9372:9379  account */\n      dup5\n        /* \"@openzeppelin/contracts/token/ERC20/ERC20.sol\":9362:9380  _balances[account] */\n      0xffffffffffffffffffffffffffffffffffffffff\n      and\n      0xffffffffffffffffffffffffffffffffffffffff\n      and\n      dup2\n      mstore\n      0x20\n      add\n      swap1\n      dup2\n      mstore\n      0x20\n      add\n      0x00\n      keccak256\n      sload\n        /* \"@openzeppelin/contracts/token/ERC20/ERC20.sol\":9337:9380  uint256 accountBalance = _balances[account] */\n      swap1\n      pop\n        /* \"@openzeppelin/contracts/token/ERC20/ERC20.sol\":9416:9422  amount */\n      dup2\n        /* \"@openzeppelin/contracts/token/ERC20/ERC20.sol\":9398:9412  accountBalance */\n      dup2\n        /* \"@openzeppelin/contracts/token/ERC20/ERC20.sol\":9398:9422  accountBalance >= amount */\n      lt\n      iszero\n        /* \"@openzeppelin/contracts/token/ERC20/ERC20.sol\":9390:9461  require(accountBalance >= amount, \"ERC20: burn amount exceeds balance\") */\n      tag_378\n      jumpi\n      mload(0x40)\n      0x08c379a000000000000000000000000000000000000000000000000000000000\n      dup2\n      mstore\n      0x04\n      add\n      tag_379\n      swap1\n      tag_380\n      jump\t// in\n    tag_379:\n      mload(0x40)\n      dup1\n      swap2\n      sub\n      swap1\n      revert\n    tag_378:\n        /* \"@openzeppelin/contracts/token/ERC20/ERC20.sol\":9533:9539  amount */\n      dup2\n        /* \"@openzeppelin/contracts/token/ERC20/ERC20.sol\":9516:9530  accountBalance */\n      dup2\n        /* \"@openzeppelin/contracts/token/ERC20/ERC20.sol\":9516:9539  accountBalance - amount */\n      sub\n        /* \"@openzeppelin/contracts/token/ERC20/ERC20.sol\":9495:9504  _balances */\n      0x00\n        /* \"@openzeppelin/contracts/token/ERC20/ERC20.sol\":9495:9513  _balances[account] */\n      dup1\n        /* \"@openzeppelin/contracts/token/ERC20/ERC20.sol\":9505:9512  account */\n      dup6\n        /* \"@openzeppelin/contracts/token/ERC20/ERC20.sol\":9495:9513  _balances[account] */\n      0xffffffffffffffffffffffffffffffffffffffff\n      and\n      0xffffffffffffffffffffffffffffffffffffffff\n      and\n      dup2\n      mstore\n      0x20\n      add\n      swap1\n      dup2\n      mstore\n      0x20\n      add\n      0x00\n      keccak256\n        /* \"@openzeppelin/contracts/token/ERC20/ERC20.sol\":9495:9539  _balances[account] = accountBalance - amount */\n      dup2\n      swap1\n      sstore\n      pop\n        /* \"@openzeppelin/contracts/token/ERC20/ERC20.sol\":9575:9581  amount */\n      dup2\n        /* \"@openzeppelin/contracts/token/ERC20/ERC20.sol\":9559:9571  _totalSupply */\n      0x02\n      0x00\n        /* \"@openzeppelin/contracts/token/ERC20/ERC20.sol\":9559:9581  _totalSupply -= amount */\n      dup3\n      dup3\n      sload\n      tag_381\n      swap2\n      swap1\n      tag_260\n      jump\t// in\n    tag_381:\n      swap3\n      pop\n      pop\n      dup2\n      swap1\n      sstore\n      pop\n        /* \"@openzeppelin/contracts/token/ERC20/ERC20.sol\":9623:9624  0 */\n      0x00\n        /* \"@openzeppelin/contracts/token/ERC20/ERC20.sol\":9597:9634  Transfer(account, address(0), amount) */\n      0xffffffffffffffffffffffffffffffffffffffff\n      and\n        /* \"@openzeppelin/contracts/token/ERC20/ERC20.sol\":9606:9613  account */\n      dup4\n        /* \"@openzeppelin/contracts/token/ERC20/ERC20.sol\":9597:9634  Transfer(account, address(0), amount) */\n      0xffffffffffffffffffffffffffffffffffffffff\n      and\n      0xddf252ad1be2c89b69c2b068fc378daa952ba7f163c4a11628f55a4df523b3ef\n        /* \"@openzeppelin/contracts/token/ERC20/ERC20.sol\":9627:9633  amount */\n      dup5\n        /* \"@openzeppelin/contracts/token/ERC20/ERC20.sol\":9597:9634  Transfer(account, address(0), amount) */\n      mload(0x40)\n      tag_382\n      swap2\n      swap1\n      tag_44\n      jump\t// in\n    tag_382:\n      mload(0x40)\n      dup1\n      swap2\n      sub\n      swap1\n      log3\n        /* \"@openzeppelin/contracts/token/ERC20/ERC20.sol\":9645:9693  _afterTokenTransfer(account, address(0), amount) */\n      tag_383\n        /* \"@openzeppelin/contracts/token/ERC20/ERC20.sol\":9665:9672  account */\n      dup4\n        /* \"@openzeppelin/contracts/token/ERC20/ERC20.sol\":9682:9683  0 */\n      0x00\n        /* \"@openzeppelin/contracts/token/ERC20/ERC20.sol\":9686:9692  amount */\n      dup5\n        /* \"@openzeppelin/contracts/token/ERC20/ERC20.sol\":9645:9664  _afterTokenTransfer */\n      tag_362\n        /* \"@openzeppelin/contracts/token/ERC20/ERC20.sol\":9645:9693  _afterTokenTransfer(account, address(0), amount) */\n      jump\t// in\n    tag_383:\n        /* \"@openzeppelin/contracts/token/ERC20/ERC20.sol\":9189:9700  {... */\n      pop\n        /* \"@openzeppelin/contracts/token/ERC20/ERC20.sol\":9124:9700  function _burn(address account, uint256 amount) internal virtual {... */\n      pop\n      pop\n      jump\t// out\n        /* \"@openzeppelin/contracts/token/ERC20/ERC20.sol\":11795:11916  function _beforeTokenTransfer(... */\n    tag_355:\n      pop\n      pop\n      pop\n      jump\t// out\n        /* \"@openzeppelin/contracts/token/ERC20/ERC20.sol\":12504:12624  function _afterTokenTransfer(... */\n    tag_362:\n      pop\n      pop\n      pop\n      jump\t// out\n        /* \"#utility.yul\":7:146   */\n    tag_387:\n        /* \"#utility.yul\":53:58   */\n      0x00\n        /* \"#utility.yul\":91:97   */\n      dup2\n        /* \"#utility.yul\":78:98   */\n      calldataload\n        /* \"#utility.yul\":69:98   */\n      swap1\n      pop\n        /* \"#utility.yul\":107:140   */\n      tag_389\n        /* \"#utility.yul\":134:139   */\n      dup2\n        /* \"#utility.yul\":107:140   */\n      tag_390\n      jump\t// in\n    tag_389:\n        /* \"#utility.yul\":7:146   */\n      swap3\n      swap2\n      pop\n      pop\n      jump\t// out\n        /* \"#utility.yul\":152:291   */\n    tag_391:\n        /* \"#utility.yul\":198:203   */\n      0x00\n        /* \"#utility.yul\":236:242   */\n      dup2\n        /* \"#utility.yul\":223:243   */\n      calldataload\n        /* \"#utility.yul\":214:243   */\n      swap1\n      pop\n        /* \"#utility.yul\":252:285   */\n      tag_393\n        /* \"#utility.yul\":279:284   */\n      dup2\n        /* \"#utility.yul\":252:285   */\n      tag_394\n      jump\t// in\n    tag_393:\n        /* \"#utility.yul\":152:291   */\n      swap3\n      swap2\n      pop\n      pop\n      jump\t// out\n        /* \"#utility.yul\":297:626   */\n    tag_68:\n        /* \"#utility.yul\":356:362   */\n      0x00\n        /* \"#utility.yul\":405:407   */\n      0x20\n        /* \"#utility.yul\":393:402   */\n      dup3\n        /* \"#utility.yul\":384:391   */\n      dup5\n        /* \"#utility.yul\":380:403   */\n      sub\n        /* \"#utility.yul\":376:408   */\n      slt\n        /* \"#utility.yul\":373:492   */\n      iszero\n      tag_396\n      jumpi\n        /* \"#utility.yul\":411:490   */\n      tag_397\n      tag_398\n      jump\t// in\n    tag_397:\n        /* \"#utility.yul\":373:492   */\n    tag_396:\n        /* \"#utility.yul\":531:532   */\n      0x00\n        /* \"#utility.yul\":556:609   */\n      tag_399\n        /* \"#utility.yul\":601:608   */\n      dup5\n        /* \"#utility.yul\":592:598   */\n      dup3\n        /* \"#utility.yul\":581:590   */\n      dup6\n        /* \"#utility.yul\":577:599   */\n      add\n        /* \"#utility.yul\":556:609   */\n      tag_387\n      jump\t// in\n    tag_399:\n        /* \"#utility.yul\":546:609   */\n      swap2\n      pop\n        /* \"#utility.yul\":502:619   */\n      pop\n        /* \"#utility.yul\":297:626   */\n      swap3\n      swap2\n      pop\n      pop\n      jump\t// out\n        /* \"#utility.yul\":632:1106   */\n    tag_162:\n        /* \"#utility.yul\":700:706   */\n      0x00\n        /* \"#utility.yul\":708:714   */\n      dup1\n        /* \"#utility.yul\":757:759   */\n      0x40\n        /* \"#utility.yul\":745:754   */\n      dup4\n        /* \"#utility.yul\":736:743   */\n      dup6\n        /* \"#utility.yul\":732:755   */\n      sub\n        /* \"#utility.yul\":728:760   */\n      slt\n        /* \"#utility.yul\":725:844   */\n      iszero\n      tag_401\n      jumpi\n        /* \"#utility.yul\":763:842   */\n      tag_402\n      tag_398\n      jump\t// in\n    tag_402:\n        /* \"#utility.yul\":725:844   */\n    tag_401:\n        /* \"#utility.yul\":883:884   */\n      0x00\n        /* \"#utility.yul\":908:961   */\n      tag_403\n        /* \"#utility.yul\":953:960   */\n      dup6\n        /* \"#utility.yul\":944:950   */\n      dup3\n        /* \"#utility.yul\":933:942   */\n      dup7\n        /* \"#utility.yul\":929:951   */\n      add\n        /* \"#utility.yul\":908:961   */\n      tag_387\n      jump\t// in\n    tag_403:\n        /* \"#utility.yul\":898:961   */\n      swap3\n      pop\n        /* \"#utility.yul\":854:971   */\n      pop\n        /* \"#utility.yul\":1010:1012   */\n      0x20\n        /* \"#utility.yul\":1036:1089   */\n      tag_404\n        /* \"#utility.yul\":1081:1088   */\n      dup6\n        /* \"#utility.yul\":1072:1078   */\n      dup3\n        /* \"#utility.yul\":1061:1070   */\n      dup7\n        /* \"#utility.yul\":1057:1079   */\n      add\n        /* \"#utility.yul\":1036:1089   */\n      tag_387\n      jump\t// in\n    tag_404:\n        /* \"#utility.yul\":1026:1089   */\n      swap2\n      pop\n        /* \"#utility.yul\":981:1099   */\n      pop\n        /* \"#utility.yul\":632:1106   */\n      swap3\n      pop\n      swap3\n      swap1\n      pop\n      jump\t// out\n        /* \"#utility.yul\":1112:1731   */\n    tag_74:\n        /* \"#utility.yul\":1189:1195   */\n      0x00\n        /* \"#utility.yul\":1197:1203   */\n      dup1\n        /* \"#utility.yul\":1205:1211   */\n      0x00\n        /* \"#utility.yul\":1254:1256   */\n      0x60\n        /* \"#utility.yul\":1242:1251   */\n      dup5\n        /* \"#utility.yul\":1233:1240   */\n      dup7\n        /* \"#utility.yul\":1229:1252   */\n      sub\n        /* \"#utility.yul\":1225:1257   */\n      slt\n        /* \"#utility.yul\":1222:1341   */\n      iszero\n      tag_406\n      jumpi\n        /* \"#utility.yul\":1260:1339   */\n      tag_407\n      tag_398\n      jump\t// in\n    tag_407:\n        /* \"#utility.yul\":1222:1341   */\n    tag_406:\n        /* \"#utility.yul\":1380:1381   */\n      0x00\n        /* \"#utility.yul\":1405:1458   */\n      tag_408\n        /* \"#utility.yul\":1450:1457   */\n      dup7\n        /* \"#utility.yul\":1441:1447   */\n      dup3\n        /* \"#utility.yul\":1430:1439   */\n      dup8\n        /* \"#utility.yul\":1426:1448   */\n      add\n        /* \"#utility.yul\":1405:1458   */\n      tag_387\n      jump\t// in\n    tag_408:\n        /* \"#utility.yul\":1395:1458   */\n      swap4\n      pop\n        /* \"#utility.yul\":1351:1468   */\n      pop\n        /* \"#utility.yul\":1507:1509   */\n      0x20\n        /* \"#utility.yul\":1533:1586   */\n      tag_409\n        /* \"#utility.yul\":1578:1585   */\n      dup7\n        /* \"#utility.yul\":1569:1575   */\n      dup3\n        /* \"#utility.yul\":1558:1567   */\n      dup8\n        /* \"#utility.yul\":1554:1576   */\n      add\n        /* \"#utility.yul\":1533:1586   */\n      tag_387\n      jump\t// in\n    tag_409:\n        /* \"#utility.yul\":1523:1586   */\n      swap3\n      pop\n        /* \"#utility.yul\":1478:1596   */\n      pop\n        /* \"#utility.yul\":1635:1637   */\n      0x40\n        /* \"#utility.yul\":1661:1714   */\n      tag_410\n        /* \"#utility.yul\":1706:1713   */\n      dup7\n        /* \"#utility.yul\":1697:1703   */\n      dup3\n        /* \"#utility.yul\":1686:1695   */\n      dup8\n        /* \"#utility.yul\":1682:1704   */\n      add\n        /* \"#utility.yul\":1661:1714   */\n      tag_391\n      jump\t// in\n    tag_410:\n        /* \"#utility.yul\":1651:1714   */\n      swap2\n      pop\n        /* \"#utility.yul\":1606:1724   */\n      pop\n        /* \"#utility.yul\":1112:1731   */\n      swap3\n      pop\n      swap3\n      pop\n      swap3\n      jump\t// out\n        /* \"#utility.yul\":1737:2211   */\n    tag_53:\n        /* \"#utility.yul\":1805:1811   */\n      0x00\n        /* \"#utility.yul\":1813:1819   */\n      dup1\n        /* \"#utility.yul\":1862:1864   */\n      0x40\n        /* \"#utility.yul\":1850:1859   */\n      dup4\n        /* \"#utility.yul\":1841:1848   */\n      dup6\n        /* \"#utility.yul\":1837:1860   */\n      sub\n        /* \"#utility.yul\":1833:1865   */\n      slt\n        /* \"#utility.yul\":1830:1949   */\n      iszero\n      tag_412\n      jumpi\n        /* \"#utility.yul\":1868:1947   */\n      tag_413\n      tag_398\n      jump\t// in\n    tag_413:\n        /* \"#utility.yul\":1830:1949   */\n    tag_412:\n        /* \"#utility.yul\":1988:1989   */\n      0x00\n        /* \"#utility.yul\":2013:2066   */\n      tag_414\n        /* \"#utility.yul\":2058:2065   */\n      dup6\n        /* \"#utility.yul\":2049:2055   */\n      dup3\n        /* \"#utility.yul\":2038:2047   */\n      dup7\n        /* \"#utility.yul\":2034:2056   */\n      add\n        /* \"#utility.yul\":2013:2066   */\n      tag_387\n      jump\t// in\n    tag_414:\n        /* \"#utility.yul\":2003:2066   */\n      swap3\n      pop\n        /* \"#utility.yul\":1959:2076   */\n      pop\n        /* \"#utility.yul\":2115:2117   */\n      0x20\n        /* \"#utility.yul\":2141:2194   */\n      tag_415\n        /* \"#utility.yul\":2186:2193   */\n      dup6\n        /* \"#utility.yul\":2177:2183   */\n      dup3\n        /* \"#utility.yul\":2166:2175   */\n      dup7\n        /* \"#utility.yul\":2162:2184   */\n      add\n        /* \"#utility.yul\":2141:2194   */\n      tag_391\n      jump\t// in\n    tag_415:\n        /* \"#utility.yul\":2131:2194   */\n      swap2\n      pop\n        /* \"#utility.yul\":2086:2204   */\n      pop\n        /* \"#utility.yul\":1737:2211   */\n      swap3\n      pop\n      swap3\n      swap1\n      pop\n      jump\t// out\n        /* \"#utility.yul\":2217:2546   */\n    tag_99:\n        /* \"#utility.yul\":2276:2282   */\n      0x00\n        /* \"#utility.yul\":2325:2327   */\n      0x20\n        /* \"#utility.yul\":2313:2322   */\n      dup3\n        /* \"#utility.yul\":2304:2311   */\n      dup5\n        /* \"#utility.yul\":2300:2323   */\n      sub\n        /* \"#utility.yul\":2296:2328   */\n      slt\n        /* \"#utility.yul\":2293:2412   */\n      iszero\n      tag_417\n      jumpi\n        /* \"#utility.yul\":2331:2410   */\n      tag_418\n      tag_398\n      jump\t// in\n    tag_418:\n        /* \"#utility.yul\":2293:2412   */\n    tag_417:\n        /* \"#utility.yul\":2451:2452   */\n      0x00\n        /* \"#utility.yul\":2476:2529   */\n      tag_419\n        /* \"#utility.yul\":2521:2528   */\n      dup5\n        /* \"#utility.yul\":2512:2518   */\n      dup3\n        /* \"#utility.yul\":2501:2510   */\n      dup6\n        /* \"#utility.yul\":2497:2519   */\n      add\n        /* \"#utility.yul\":2476:2529   */\n      tag_391\n      jump\t// in\n    tag_419:\n        /* \"#utility.yul\":2466:2529   */\n      swap2\n      pop\n        /* \"#utility.yul\":2422:2539   */\n      pop\n        /* \"#utility.yul\":2217:2546   */\n      swap3\n      swap2\n      pop\n      pop\n      jump\t// out\n        /* \"#utility.yul\":2552:3026   */\n    tag_152:\n        /* \"#utility.yul\":2620:2626   */\n      0x00\n        /* \"#utility.yul\":2628:2634   */\n      dup1\n        /* \"#utility.yul\":2677:2679   */\n      0x40\n        /* \"#utility.yul\":2665:2674   */\n      dup4\n        /* \"#utility.yul\":2656:2663   */\n      dup6\n        /* \"#utility.yul\":2652:2675   */\n      sub\n        /* \"#utility.yul\":2648:2680   */\n      slt\n        /* \"#utility.yul\":2645:2764   */\n      iszero\n      tag_421\n      jumpi\n        /* \"#utility.yul\":2683:2762   */\n      tag_422\n      tag_398\n      jump\t// in\n    tag_422:\n        /* \"#utility.yul\":2645:2764   */\n    tag_421:\n        /* \"#utility.yul\":2803:2804   */\n      0x00\n        /* \"#utility.yul\":2828:2881   */\n      tag_423\n        /* \"#utility.yul\":2873:2880   */\n      dup6\n        /* \"#utility.yul\":2864:2870   */\n      dup3\n        /* \"#utility.yul\":2853:2862   */\n      dup7\n        /* \"#utility.yul\":2849:2871   */\n      add\n        /* \"#utility.yul\":2828:2881   */\n      tag_391\n      jump\t// in\n    tag_423:\n        /* \"#utility.yul\":2818:2881   */\n      swap3\n      pop\n        /* \"#utility.yul\":2774:2891   */\n      pop\n        /* \"#utility.yul\":2930:2932   */\n      0x20\n        /* \"#utility.yul\":2956:3009   */\n      tag_424\n        /* \"#utility.yul\":3001:3008   */\n      dup6\n        /* \"#utility.yul\":2992:2998   */\n      dup3\n        /* \"#utility.yul\":2981:2990   */\n      dup7\n        /* \"#utility.yul\":2977:2999   */\n      add\n        /* \"#utility.yul\":2956:3009   */\n      tag_391\n      jump\t// in\n    tag_424:\n        /* \"#utility.yul\":2946:3009   */\n      swap2\n      pop\n        /* \"#utility.yul\":2901:3019   */\n      pop\n        /* \"#utility.yul\":2552:3026   */\n      swap3\n      pop\n      swap3\n      swap1\n      pop\n      jump\t// out\n        /* \"#utility.yul\":3032:3150   */\n    tag_425:\n        /* \"#utility.yul\":3119:3143   */\n      tag_427\n        /* \"#utility.yul\":3137:3142   */\n      dup2\n        /* \"#utility.yul\":3119:3143   */\n      tag_428\n      jump\t// in\n    tag_427:\n        /* \"#utility.yul\":3114:3117   */\n      dup3\n        /* \"#utility.yul\":3107:3144   */\n      mstore\n        /* \"#utility.yul\":3032:3150   */\n      pop\n      pop\n      jump\t// out\n        /* \"#utility.yul\":3156:3265   */\n    tag_429:\n        /* \"#utility.yul\":3237:3258   */\n      tag_431\n        /* \"#utility.yul\":3252:3257   */\n      dup2\n        /* \"#utility.yul\":3237:3258   */\n      tag_432\n      jump\t// in\n    tag_431:\n        /* \"#utility.yul\":3232:3235   */\n      dup3\n        /* \"#utility.yul\":3225:3259   */\n      mstore\n        /* \"#utility.yul\":3156:3265   */\n      pop\n      pop\n      jump\t// out\n        /* \"#utility.yul\":3271:3635   */\n    tag_433:\n        /* \"#utility.yul\":3359:3362   */\n      0x00\n        /* \"#utility.yul\":3387:3426   */\n      tag_435\n        /* \"#utility.yul\":3420:3425   */\n      dup3\n        /* \"#utility.yul\":3387:3426   */\n      tag_436\n      jump\t// in\n    tag_435:\n        /* \"#utility.yul\":3442:3513   */\n      tag_437\n        /* \"#utility.yul\":3506:3512   */\n      dup2\n        /* \"#utility.yul\":3501:3504   */\n      dup6\n        /* \"#utility.yul\":3442:3513   */\n      tag_438\n      jump\t// in\n    tag_437:\n        /* \"#utility.yul\":3435:3513   */\n      swap4\n      pop\n        /* \"#utility.yul\":3522:3574   */\n      tag_439\n        /* \"#utility.yul\":3567:3573   */\n      dup2\n        /* \"#utility.yul\":3562:3565   */\n      dup6\n        /* \"#utility.yul\":3555:3559   */\n      0x20\n        /* \"#utility.yul\":3548:3553   */\n      dup7\n        /* \"#utility.yul\":3544:3560   */\n      add\n        /* \"#utility.yul\":3522:3574   */\n      tag_440\n      jump\t// in\n    tag_439:\n        /* \"#utility.yul\":3599:3628   */\n      tag_441\n        /* \"#utility.yul\":3621:3627   */\n      dup2\n        /* \"#utility.yul\":3599:3628   */\n      tag_442\n      jump\t// in\n    tag_441:\n        /* \"#utility.yul\":3594:3597   */\n      dup5\n        /* \"#utility.yul\":3590:3629   */\n      add\n        /* \"#utility.yul\":3583:3629   */\n      swap2\n      pop\n        /* \"#utility.yul\":3363:3635   */\n      pop\n        /* \"#utility.yul\":3271:3635   */\n      swap3\n      swap2\n      pop\n      pop\n      jump\t// out\n        /* \"#utility.yul\":3641:4007   */\n    tag_443:\n        /* \"#utility.yul\":3783:3786   */\n      0x00\n        /* \"#utility.yul\":3804:3871   */\n      tag_445\n        /* \"#utility.yul\":3868:3870   */\n      0x2d\n        /* \"#utility.yul\":3863:3866   */\n      dup4\n        /* \"#utility.yul\":3804:3871   */\n      tag_438\n      jump\t// in\n    tag_445:\n        /* \"#utility.yul\":3797:3871   */\n      swap2\n      pop\n        /* \"#utility.yul\":3880:3973   */\n      tag_446\n        /* \"#utility.yul\":3969:3972   */\n      dup3\n        /* \"#utility.yul\":3880:3973   */\n      tag_447\n      jump\t// in\n    tag_446:\n        /* \"#utility.yul\":3998:4000   */\n      0x40\n        /* \"#utility.yul\":3993:3996   */\n      dup3\n        /* \"#utility.yul\":3989:4001   */\n      add\n        /* \"#utility.yul\":3982:4001   */\n      swap1\n      pop\n        /* \"#utility.yul\":3641:4007   */\n      swap2\n      swap1\n      pop\n      jump\t// out\n        /* \"#utility.yul\":4013:4379   */\n    tag_448:\n        /* \"#utility.yul\":4155:4158   */\n      0x00\n        /* \"#utility.yul\":4176:4243   */\n      tag_450\n        /* \"#utility.yul\":4240:4242   */\n      0x23\n        /* \"#utility.yul\":4235:4238   */\n      dup4\n        /* \"#utility.yul\":4176:4243   */\n      tag_438\n      jump\t// in\n    tag_450:\n        /* \"#utility.yul\":4169:4243   */\n      swap2\n      pop\n        /* \"#utility.yul\":4252:4345   */\n      tag_451\n        /* \"#utility.yul\":4341:4344   */\n      dup3\n        /* \"#utility.yul\":4252:4345   */\n      tag_452\n      jump\t// in\n    tag_451:\n        /* \"#utility.yul\":4370:4372   */\n      0x40\n        /* \"#utility.yul\":4365:4368   */\n      dup3\n        /* \"#utility.yul\":4361:4373   */\n      add\n        /* \"#utility.yul\":4354:4373   */\n      swap1\n      pop\n        /* \"#utility.yul\":4013:4379   */\n      swap2\n      swap1\n      pop\n      jump\t// out\n        /* \"#utility.yul\":4385:4751   */\n    tag_453:\n        /* \"#utility.yul\":4527:4530   */\n      0x00\n        /* \"#utility.yul\":4548:4615   */\n      tag_455\n        /* \"#utility.yul\":4612:4614   */\n      0x22\n        /* \"#utility.yul\":4607:4610   */\n      dup4\n        /* \"#utility.yul\":4548:4615   */\n      tag_438\n      jump\t// in\n    tag_455:\n        /* \"#utility.yul\":4541:4615   */\n      swap2\n      pop\n        /* \"#utility.yul\":4624:4717   */\n      tag_456\n        /* \"#utility.yul\":4713:4716   */\n      dup3\n        /* \"#utility.yul\":4624:4717   */\n      tag_457\n      jump\t// in\n    tag_456:\n        /* \"#utility.yul\":4742:4744   */\n      0x40\n        /* \"#utility.yul\":4737:4740   */\n      dup3\n        /* \"#utility.yul\":4733:4745   */\n      add\n        /* \"#utility.yul\":4726:4745   */\n      swap1\n      pop\n        /* \"#utility.yul\":4385:4751   */\n      swap2\n      swap1\n      pop\n      jump\t// out\n        /* \"#utility.yul\":4757:5123   */\n    tag_458:\n        /* \"#utility.yul\":4899:4902   */\n      0x00\n        /* \"#utility.yul\":4920:4987   */\n      tag_460\n        /* \"#utility.yul\":4984:4986   */\n      0x26\n        /* \"#utility.yul\":4979:4982   */\n      dup4\n        /* \"#utility.yul\":4920:4987   */\n      tag_438\n      jump\t// in\n    tag_460:\n        /* \"#utility.yul\":4913:4987   */\n      swap2\n      pop\n        /* \"#utility.yul\":4996:5089   */\n      tag_461\n        /* \"#utility.yul\":5085:5088   */\n      dup3\n        /* \"#utility.yul\":4996:5089   */\n      tag_462\n      jump\t// in\n    tag_461:\n        /* \"#utility.yul\":5114:5116   */\n      0x40\n        /* \"#utility.yul\":5109:5112   */\n      dup3\n        /* \"#utility.yul\":5105:5117   */\n      add\n        /* \"#utility.yul\":5098:5117   */\n      swap1\n      pop\n        /* \"#utility.yul\":4757:5123   */\n      swap2\n      swap1\n      pop\n      jump\t// out\n        /* \"#utility.yul\":5129:5495   */\n    tag_463:\n        /* \"#utility.yul\":5271:5274   */\n      0x00\n        /* \"#utility.yul\":5292:5359   */\n      tag_465\n        /* \"#utility.yul\":5356:5358   */\n      0x22\n        /* \"#utility.yul\":5351:5354   */\n      dup4\n        /* \"#utility.yul\":5292:5359   */\n      tag_438\n      jump\t// in\n    tag_465:\n        /* \"#utility.yul\":5285:5359   */\n      swap2\n      pop\n        /* \"#utility.yul\":5368:5461   */\n      tag_466\n        /* \"#utility.yul\":5457:5460   */\n      dup3\n        /* \"#utility.yul\":5368:5461   */\n      tag_467\n      jump\t// in\n    tag_466:\n        /* \"#utility.yul\":5486:5488   */\n      0x40\n        /* \"#utility.yul\":5481:5484   */\n      dup3\n        /* \"#utility.yul\":5477:5489   */\n      add\n        /* \"#utility.yul\":5470:5489   */\n      swap1\n      pop\n        /* \"#utility.yul\":5129:5495   */\n      swap2\n      swap1\n      pop\n      jump\t// out\n        /* \"#utility.yul\":5501:5867   */\n    tag_468:\n        /* \"#utility.yul\":5643:5646   */\n      0x00\n        /* \"#utility.yul\":5664:5731   */\n      tag_470\n        /* \"#utility.yul\":5728:5730   */\n      0x1d\n        /* \"#utility.yul\":5723:5726   */\n      dup4\n        /* \"#utility.yul\":5664:5731   */\n      tag_438\n      jump\t// in\n    tag_470:\n        /* \"#utility.yul\":5657:5731   */\n      swap2\n      pop\n        /* \"#utility.yul\":5740:5833   */\n      tag_471\n        /* \"#utility.yul\":5829:5832   */\n      dup3\n        /* \"#utility.yul\":5740:5833   */\n      tag_472\n      jump\t// in\n    tag_471:\n        /* \"#utility.yul\":5858:5860   */\n      0x20\n        /* \"#utility.yul\":5853:5856   */\n      dup3\n        /* \"#utility.yul\":5849:5861   */\n      add\n        /* \"#utility.yul\":5842:5861   */\n      swap1\n      pop\n        /* \"#utility.yul\":5501:5867   */\n      swap2\n      swap1\n      pop\n      jump\t// out\n        /* \"#utility.yul\":5873:6239   */\n    tag_473:\n        /* \"#utility.yul\":6015:6018   */\n      0x00\n        /* \"#utility.yul\":6036:6103   */\n      tag_475\n        /* \"#utility.yul\":6100:6102   */\n      0x26\n        /* \"#utility.yul\":6095:6098   */\n      dup4\n        /* \"#utility.yul\":6036:6103   */\n      tag_438\n      jump\t// in\n    tag_475:\n        /* \"#utility.yul\":6029:6103   */\n      swap2\n      pop\n        /* \"#utility.yul\":6112:6205   */\n      tag_476\n        /* \"#utility.yul\":6201:6204   */\n      dup3\n        /* \"#utility.yul\":6112:6205   */\n      tag_477\n      jump\t// in\n    tag_476:\n        /* \"#utility.yul\":6230:6232   */\n      0x40\n        /* \"#utility.yul\":6225:6228   */\n      dup3\n        /* \"#utility.yul\":6221:6233   */\n      add\n        /* \"#utility.yul\":6214:6233   */\n      swap1\n      pop\n        /* \"#utility.yul\":5873:6239   */\n      swap2\n      swap1\n      pop\n      jump\t// out\n        /* \"#utility.yul\":6245:6611   */\n    tag_478:\n        /* \"#utility.yul\":6387:6390   */\n      0x00\n        /* \"#utility.yul\":6408:6475   */\n      tag_480\n        /* \"#utility.yul\":6472:6474   */\n      0x20\n        /* \"#utility.yul\":6467:6470   */\n      dup4\n        /* \"#utility.yul\":6408:6475   */\n      tag_438\n      jump\t// in\n    tag_480:\n        /* \"#utility.yul\":6401:6475   */\n      swap2\n      pop\n        /* \"#utility.yul\":6484:6577   */\n      tag_481\n        /* \"#utility.yul\":6573:6576   */\n      dup3\n        /* \"#utility.yul\":6484:6577   */\n      tag_482\n      jump\t// in\n    tag_481:\n        /* \"#utility.yul\":6602:6604   */\n      0x20\n        /* \"#utility.yul\":6597:6600   */\n      dup3\n        /* \"#utility.yul\":6593:6605   */\n      add\n        /* \"#utility.yul\":6586:6605   */\n      swap1\n      pop\n        /* \"#utility.yul\":6245:6611   */\n      swap2\n      swap1\n      pop\n      jump\t// out\n        /* \"#utility.yul\":6617:6983   */\n    tag_483:\n        /* \"#utility.yul\":6759:6762   */\n      0x00\n        /* \"#utility.yul\":6780:6847   */\n      tag_485\n        /* \"#utility.yul\":6844:6846   */\n      0x21\n        /* \"#utility.yul\":6839:6842   */\n      dup4\n        /* \"#utility.yul\":6780:6847   */\n      tag_438\n      jump\t// in\n    tag_485:\n        /* \"#utility.yul\":6773:6847   */\n      swap2\n      pop\n        /* \"#utility.yul\":6856:6949   */\n      tag_486\n        /* \"#utility.yul\":6945:6948   */\n      dup3\n        /* \"#utility.yul\":6856:6949   */\n      tag_487\n      jump\t// in\n    tag_486:\n        /* \"#utility.yul\":6974:6976   */\n      0x40\n        /* \"#utility.yul\":6969:6972   */\n      dup3\n        /* \"#utility.yul\":6965:6977   */\n      add\n        /* \"#utility.yul\":6958:6977   */\n      swap1\n      pop\n        /* \"#utility.yul\":6617:6983   */\n      swap2\n      swap1\n      pop\n      jump\t// out\n        /* \"#utility.yul\":6989:7355   */\n    tag_488:\n        /* \"#utility.yul\":7131:7134   */\n      0x00\n        /* \"#utility.yul\":7152:7219   */\n      tag_490\n        /* \"#utility.yul\":7216:7218   */\n      0x25\n        /* \"#utility.yul\":7211:7214   */\n      dup4\n        /* \"#utility.yul\":7152:7219   */\n      tag_438\n      jump\t// in\n    tag_490:\n        /* \"#utility.yul\":7145:7219   */\n      swap2\n      pop\n        /* \"#utility.yul\":7228:7321   */\n      tag_491\n        /* \"#utility.yul\":7317:7320   */\n      dup3\n        /* \"#utility.yul\":7228:7321   */\n      tag_492\n      jump\t// in\n    tag_491:\n        /* \"#utility.yul\":7346:7348   */\n      0x40\n        /* \"#utility.yul\":7341:7344   */\n      dup3\n        /* \"#utility.yul\":7337:7349   */\n      add\n        /* \"#utility.yul\":7330:7349   */\n      swap1\n      pop\n        /* \"#utility.yul\":6989:7355   */\n      swap2\n      swap1\n      pop\n      jump\t// out\n        /* \"#utility.yul\":7361:7727   */\n    tag_493:\n        /* \"#utility.yul\":7503:7506   */\n      0x00\n        /* \"#utility.yul\":7524:7591   */\n      tag_495\n        /* \"#utility.yul\":7588:7590   */\n      0x24\n        /* \"#utility.yul\":7583:7586   */\n      dup4\n        /* \"#utility.yul\":7524:7591   */\n      tag_438\n      jump\t// in\n    tag_495:\n        /* \"#utility.yul\":7517:7591   */\n      swap2\n      pop\n        /* \"#utility.yul\":7600:7693   */\n      tag_496\n        /* \"#utility.yul\":7689:7692   */\n      dup3\n        /* \"#utility.yul\":7600:7693   */\n      tag_497\n      jump\t// in\n    tag_496:\n        /* \"#utility.yul\":7718:7720   */\n      0x40\n        /* \"#utility.yul\":7713:7716   */\n      dup3\n        /* \"#utility.yul\":7709:7721   */\n      add\n        /* \"#utility.yul\":7702:7721   */\n      swap1\n      pop\n        /* \"#utility.yul\":7361:7727   */\n      swap2\n      swap1\n      pop\n      jump\t// out\n        /* \"#utility.yul\":7733:8099   */\n    tag_498:\n        /* \"#utility.yul\":7875:7878   */\n      0x00\n        /* \"#utility.yul\":7896:7963   */\n      tag_500\n        /* \"#utility.yul\":7960:7962   */\n      0x25\n        /* \"#utility.yul\":7955:7958   */\n      dup4\n        /* \"#utility.yul\":7896:7963   */\n      tag_438\n      jump\t// in\n    tag_500:\n        /* \"#utility.yul\":7889:7963   */\n      swap2\n      pop\n        /* \"#utility.yul\":7972:8065   */\n      tag_501\n        /* \"#utility.yul\":8061:8064   */\n      dup3\n        /* \"#utility.yul\":7972:8065   */\n      tag_502\n      jump\t// in\n    tag_501:\n        /* \"#utility.yul\":8090:8092   */\n      0x40\n        /* \"#utility.yul\":8085:8088   */\n      dup3\n        /* \"#utility.yul\":8081:8093   */\n      add\n        /* \"#utility.yul\":8074:8093   */\n      swap1\n      pop\n        /* \"#utility.yul\":7733:8099   */\n      swap2\n      swap1\n      pop\n      jump\t// out\n        /* \"#utility.yul\":8105:8471   */\n    tag_503:\n        /* \"#utility.yul\":8247:8250   */\n      0x00\n        /* \"#utility.yul\":8268:8335   */\n      tag_505\n        /* \"#utility.yul\":8332:8334   */\n      0x1f\n        /* \"#utility.yul\":8327:8330   */\n      dup4\n        /* \"#utility.yul\":8268:8335   */\n      tag_438\n      jump\t// in\n    tag_505:\n        /* \"#utility.yul\":8261:8335   */\n      swap2\n      pop\n        /* \"#utility.yul\":8344:8437   */\n      tag_506\n        /* \"#utility.yul\":8433:8436   */\n      dup3\n        /* \"#utility.yul\":8344:8437   */\n      tag_507\n      jump\t// in\n    tag_506:\n        /* \"#utility.yul\":8462:8464   */\n      0x20\n        /* \"#utility.yul\":8457:8460   */\n      dup3\n        /* \"#utility.yul\":8453:8465   */\n      add\n        /* \"#utility.yul\":8446:8465   */\n      swap1\n      pop\n        /* \"#utility.yul\":8105:8471   */\n      swap2\n      swap1\n      pop\n      jump\t// out\n        /* \"#utility.yul\":8477:8595   */\n    tag_508:\n        /* \"#utility.yul\":8564:8588   */\n      tag_510\n        /* \"#utility.yul\":8582:8587   */\n      dup2\n        /* \"#utility.yul\":8564:8588   */\n      tag_511\n      jump\t// in\n    tag_510:\n        /* \"#utility.yul\":8559:8562   */\n      dup3\n        /* \"#utility.yul\":8552:8589   */\n      mstore\n        /* \"#utility.yul\":8477:8595   */\n      pop\n      pop\n      jump\t// out\n        /* \"#utility.yul\":8601:8713   */\n    tag_512:\n        /* \"#utility.yul\":8684:8706   */\n      tag_514\n        /* \"#utility.yul\":8700:8705   */\n      dup2\n        /* \"#utility.yul\":8684:8706   */\n      tag_515\n      jump\t// in\n    tag_514:\n        /* \"#utility.yul\":8679:8682   */\n      dup3\n        /* \"#utility.yul\":8672:8707   */\n      mstore\n        /* \"#utility.yul\":8601:8713   */\n      pop\n      pop\n      jump\t// out\n        /* \"#utility.yul\":8719:8941   */\n    tag_119:\n        /* \"#utility.yul\":8812:8816   */\n      0x00\n        /* \"#utility.yul\":8850:8852   */\n      0x20\n        /* \"#utility.yul\":8839:8848   */\n      dup3\n        /* \"#utility.yul\":8835:8853   */\n      add\n        /* \"#utility.yul\":8827:8853   */\n      swap1\n      pop\n        /* \"#utility.yul\":8863:8934   */\n      tag_517\n        /* \"#utility.yul\":8931:8932   */\n      0x00\n        /* \"#utility.yul\":8920:8929   */\n      dup4\n        /* \"#utility.yul\":8916:8933   */\n      add\n        /* \"#utility.yul\":8907:8913   */\n      dup5\n        /* \"#utility.yul\":8863:8934   */\n      tag_425\n      jump\t// in\n    tag_517:\n        /* \"#utility.yul\":8719:8941   */\n      swap3\n      swap2\n      pop\n      pop\n      jump\t// out\n        /* \"#utility.yul\":8947:9157   */\n    tag_56:\n        /* \"#utility.yul\":9034:9038   */\n      0x00\n        /* \"#utility.yul\":9072:9074   */\n      0x20\n        /* \"#utility.yul\":9061:9070   */\n      dup3\n        /* \"#utility.yul\":9057:9075   */\n      add\n        /* \"#utility.yul\":9049:9075   */\n      swap1\n      pop\n        /* \"#utility.yul\":9085:9150   */\n      tag_519\n        /* \"#utility.yul\":9147:9148   */\n      0x00\n        /* \"#utility.yul\":9136:9145   */\n      dup4\n        /* \"#utility.yul\":9132:9149   */\n      add\n        /* \"#utility.yul\":9123:9129   */\n      dup5\n        /* \"#utility.yul\":9085:9150   */\n      tag_429\n      jump\t// in\n    tag_519:\n        /* \"#utility.yul\":8947:9157   */\n      swap3\n      swap2\n      pop\n      pop\n      jump\t// out\n        /* \"#utility.yul\":9163:9483   */\n    tag_178:\n        /* \"#utility.yul\":9278:9282   */\n      0x00\n        /* \"#utility.yul\":9316:9318   */\n      0x40\n        /* \"#utility.yul\":9305:9314   */\n      dup3\n        /* \"#utility.yul\":9301:9319   */\n      add\n        /* \"#utility.yul\":9293:9319   */\n      swap1\n      pop\n        /* \"#utility.yul\":9329:9394   */\n      tag_521\n        /* \"#utility.yul\":9391:9392   */\n      0x00\n        /* \"#utility.yul\":9380:9389   */\n      dup4\n        /* \"#utility.yul\":9376:9393   */\n      add\n        /* \"#utility.yul\":9367:9373   */\n      dup6\n        /* \"#utility.yul\":9329:9394   */\n      tag_429\n      jump\t// in\n    tag_521:\n        /* \"#utility.yul\":9404:9476   */\n      tag_522\n        /* \"#utility.yul\":9472:9474   */\n      0x20\n        /* \"#utility.yul\":9461:9470   */\n      dup4\n        /* \"#utility.yul\":9457:9475   */\n      add\n        /* \"#utility.yul\":9448:9454   */\n      dup5\n        /* \"#utility.yul\":9404:9476   */\n      tag_508\n      jump\t// in\n    tag_522:\n        /* \"#utility.yul\":9163:9483   */\n      swap4\n      swap3\n      pop\n      pop\n      pop\n      jump\t// out\n        /* \"#utility.yul\":9489:9802   */\n    tag_49:\n        /* \"#utility.yul\":9602:9606   */\n      0x00\n        /* \"#utility.yul\":9640:9642   */\n      0x20\n        /* \"#utility.yul\":9629:9638   */\n      dup3\n        /* \"#utility.yul\":9625:9643   */\n      add\n        /* \"#utility.yul\":9617:9643   */\n      swap1\n      pop\n        /* \"#utility.yul\":9689:9698   */\n      dup2\n        /* \"#utility.yul\":9683:9687   */\n      dup2\n        /* \"#utility.yul\":9679:9699   */\n      sub\n        /* \"#utility.yul\":9675:9676   */\n      0x00\n        /* \"#utility.yul\":9664:9673   */\n      dup4\n        /* \"#utility.yul\":9660:9677   */\n      add\n        /* \"#utility.yul\":9653:9700   */\n      mstore\n        /* \"#utility.yul\":9717:9795   */\n      tag_524\n        /* \"#utility.yul\":9790:9794   */\n      dup2\n        /* \"#utility.yul\":9781:9787   */\n      dup5\n        /* \"#utility.yul\":9717:9795   */\n      tag_433\n      jump\t// in\n    tag_524:\n        /* \"#utility.yul\":9709:9795   */\n      swap1\n      pop\n        /* \"#utility.yul\":9489:9802   */\n      swap3\n      swap2\n      pop\n      pop\n      jump\t// out\n        /* \"#utility.yul\":9808:10227   */\n    tag_223:\n        /* \"#utility.yul\":9974:9978   */\n      0x00\n        /* \"#utility.yul\":10012:10014   */\n      0x20\n        /* \"#utility.yul\":10001:10010   */\n      dup3\n        /* \"#utility.yul\":9997:10015   */\n      add\n        /* \"#utility.yul\":9989:10015   */\n      swap1\n      pop\n        /* \"#utility.yul\":10061:10070   */\n      dup2\n        /* \"#utility.yul\":10055:10059   */\n      dup2\n        /* \"#utility.yul\":10051:10071   */\n      sub\n        /* \"#utility.yul\":10047:10048   */\n      0x00\n        /* \"#utility.yul\":10036:10045   */\n      dup4\n        /* \"#utility.yul\":10032:10049   */\n      add\n        /* \"#utility.yul\":10025:10072   */\n      mstore\n        /* \"#utility.yul\":10089:10220   */\n      tag_526\n        /* \"#utility.yul\":10215:10219   */\n      dup2\n        /* \"#utility.yul\":10089:10220   */\n      tag_443\n      jump\t// in\n    tag_526:\n        /* \"#utility.yul\":10081:10220   */\n      swap1\n      pop\n        /* \"#utility.yul\":9808:10227   */\n      swap2\n      swap1\n      pop\n      jump\t// out\n        /* \"#utility.yul\":10233:10652   */\n    tag_353:\n        /* \"#utility.yul\":10399:10403   */\n      0x00\n        /* \"#utility.yul\":10437:10439   */\n      0x20\n        /* \"#utility.yul\":10426:10435   */\n      dup3\n        /* \"#utility.yul\":10422:10440   */\n      add\n        /* \"#utility.yul\":10414:10440   */\n      swap1\n      pop\n        /* \"#utility.yul\":10486:10495   */\n      dup2\n        /* \"#utility.yul\":10480:10484   */\n      dup2\n        /* \"#utility.yul\":10476:10496   */\n      sub\n        /* \"#utility.yul\":10472:10473   */\n      0x00\n        /* \"#utility.yul\":10461:10470   */\n      dup4\n        /* \"#utility.yul\":10457:10474   */\n      add\n        /* \"#utility.yul\":10450:10497   */\n      mstore\n        /* \"#utility.yul\":10514:10645   */\n      tag_528\n        /* \"#utility.yul\":10640:10644   */\n      dup2\n        /* \"#utility.yul\":10514:10645   */\n      tag_448\n      jump\t// in\n    tag_528:\n        /* \"#utility.yul\":10506:10645   */\n      swap1\n      pop\n        /* \"#utility.yul\":10233:10652   */\n      swap2\n      swap1\n      pop\n      jump\t// out\n        /* \"#utility.yul\":10658:11077   */\n    tag_380:\n        /* \"#utility.yul\":10824:10828   */\n      0x00\n        /* \"#utility.yul\":10862:10864   */\n      0x20\n        /* \"#utility.yul\":10851:10860   */\n      dup3\n        /* \"#utility.yul\":10847:10865   */\n      add\n        /* \"#utility.yul\":10839:10865   */\n      swap1\n      pop\n        /* \"#utility.yul\":10911:10920   */\n      dup2\n        /* \"#utility.yul\":10905:10909   */\n      dup2\n        /* \"#utility.yul\":10901:10921   */\n      sub\n        /* \"#utility.yul\":10897:10898   */\n      0x00\n        /* \"#utility.yul\":10886:10895   */\n      dup4\n        /* \"#utility.yul\":10882:10899   */\n      add\n        /* \"#utility.yul\":10875:10922   */\n      mstore\n        /* \"#utility.yul\":10939:11070   */\n      tag_530\n        /* \"#utility.yul\":11065:11069   */\n      dup2\n        /* \"#utility.yul\":10939:11070   */\n      tag_453\n      jump\t// in\n    tag_530:\n        /* \"#utility.yul\":10931:11070   */\n      swap1\n      pop\n        /* \"#utility.yul\":10658:11077   */\n      swap2\n      swap1\n      pop\n      jump\t// out\n        /* \"#utility.yul\":11083:11502   */\n    tag_329:\n        /* \"#utility.yul\":11249:11253   */\n      0x00\n        /* \"#utility.yul\":11287:11289   */\n      0x20\n        /* \"#utility.yul\":11276:11285   */\n      dup3\n        /* \"#utility.yul\":11272:11290   */\n      add\n        /* \"#utility.yul\":11264:11290   */\n      swap1\n      pop\n        /* \"#utility.yul\":11336:11345   */\n      dup2\n        /* \"#utility.yul\":11330:11334   */\n      dup2\n        /* \"#utility.yul\":11326:11346   */\n      sub\n        /* \"#utility.yul\":11322:11323   */\n      0x00\n        /* \"#utility.yul\":11311:11320   */\n      dup4\n        /* \"#utility.yul\":11307:11324   */\n      add\n        /* \"#utility.yul\":11300:11347   */\n      mstore\n        /* \"#utility.yul\":11364:11495   */\n      tag_532\n        /* \"#utility.yul\":11490:11494   */\n      dup2\n        /* \"#utility.yul\":11364:11495   */\n      tag_458\n      jump\t// in\n    tag_532:\n        /* \"#utility.yul\":11356:11495   */\n      swap1\n      pop\n        /* \"#utility.yul\":11083:11502   */\n      swap2\n      swap1\n      pop\n      jump\t// out\n        /* \"#utility.yul\":11508:11927   */\n    tag_338:\n        /* \"#utility.yul\":11674:11678   */\n      0x00\n        /* \"#utility.yul\":11712:11714   */\n      0x20\n        /* \"#utility.yul\":11701:11710   */\n      dup3\n        /* \"#utility.yul\":11697:11715   */\n      add\n        /* \"#utility.yul\":11689:11715   */\n      swap1\n      pop\n        /* \"#utility.yul\":11761:11770   */\n      dup2\n        /* \"#utility.yul\":11755:11759   */\n      dup2\n        /* \"#utility.yul\":11751:11771   */\n      sub\n        /* \"#utility.yul\":11747:11748   */\n      0x00\n        /* \"#utility.yul\":11736:11745   */\n      dup4\n        /* \"#utility.yul\":11732:11749   */\n      add\n        /* \"#utility.yul\":11725:11772   */\n      mstore\n        /* \"#utility.yul\":11789:11920   */\n      tag_534\n        /* \"#utility.yul\":11915:11919   */\n      dup2\n        /* \"#utility.yul\":11789:11920   */\n      tag_463\n      jump\t// in\n    tag_534:\n        /* \"#utility.yul\":11781:11920   */\n      swap1\n      pop\n        /* \"#utility.yul\":11508:11927   */\n      swap2\n      swap1\n      pop\n      jump\t// out\n        /* \"#utility.yul\":11933:12352   */\n    tag_345:\n        /* \"#utility.yul\":12099:12103   */\n      0x00\n        /* \"#utility.yul\":12137:12139   */\n      0x20\n        /* \"#utility.yul\":12126:12135   */\n      dup3\n        /* \"#utility.yul\":12122:12140   */\n      add\n        /* \"#utility.yul\":12114:12140   */\n      swap1\n      pop\n        /* \"#utility.yul\":12186:12195   */\n      dup2\n        /* \"#utility.yul\":12180:12184   */\n      dup2\n        /* \"#utility.yul\":12176:12196   */\n      sub\n        /* \"#utility.yul\":12172:12173   */\n      0x00\n        /* \"#utility.yul\":12161:12170   */\n      dup4\n        /* \"#utility.yul\":12157:12174   */\n      add\n        /* \"#utility.yul\":12150:12197   */\n      mstore\n        /* \"#utility.yul\":12214:12345   */\n      tag_536\n        /* \"#utility.yul\":12340:12344   */\n      dup2\n        /* \"#utility.yul\":12214:12345   */\n      tag_468\n      jump\t// in\n    tag_536:\n        /* \"#utility.yul\":12206:12345   */\n      swap1\n      pop\n        /* \"#utility.yul\":11933:12352   */\n      swap2\n      swap1\n      pop\n      jump\t// out\n        /* \"#utility.yul\":12358:12777   */\n    tag_358:\n        /* \"#utility.yul\":12524:12528   */\n      0x00\n        /* \"#utility.yul\":12562:12564   */\n      0x20\n        /* \"#utility.yul\":12551:12560   */\n      dup3\n        /* \"#utility.yul\":12547:12565   */\n      add\n        /* \"#utility.yul\":12539:12565   */\n      swap1\n      pop\n        /* \"#utility.yul\":12611:12620   */\n      dup2\n        /* \"#utility.yul\":12605:12609   */\n      dup2\n        /* \"#utility.yul\":12601:12621   */\n      sub\n        /* \"#utility.yul\":12597:12598   */\n      0x00\n        /* \"#utility.yul\":12586:12595   */\n      dup4\n        /* \"#utility.yul\":12582:12599   */\n      add\n        /* \"#utility.yul\":12575:12622   */\n      mstore\n        /* \"#utility.yul\":12639:12770   */\n      tag_538\n        /* \"#utility.yul\":12765:12769   */\n      dup2\n        /* \"#utility.yul\":12639:12770   */\n      tag_473\n      jump\t// in\n    tag_538:\n        /* \"#utility.yul\":12631:12770   */\n      swap1\n      pop\n        /* \"#utility.yul\":12358:12777   */\n      swap2\n      swap1\n      pop\n      jump\t// out\n        /* \"#utility.yul\":12783:13202   */\n    tag_240:\n        /* \"#utility.yul\":12949:12953   */\n      0x00\n        /* \"#utility.yul\":12987:12989   */\n      0x20\n        /* \"#utility.yul\":12976:12985   */\n      dup3\n        /* \"#utility.yul\":12972:12990   */\n      add\n        /* \"#utility.yul\":12964:12990   */\n      swap1\n      pop\n        /* \"#utility.yul\":13036:13045   */\n      dup2\n        /* \"#utility.yul\":13030:13034   */\n      dup2\n        /* \"#utility.yul\":13026:13046   */\n      sub\n        /* \"#utility.yul\":13022:13023   */\n      0x00\n        /* \"#utility.yul\":13011:13020   */\n      dup4\n        /* \"#utility.yul\":13007:13024   */\n      add\n        /* \"#utility.yul\":13000:13047   */\n      mstore\n        /* \"#utility.yul\":13064:13195   */\n      tag_540\n        /* \"#utility.yul\":13190:13194   */\n      dup2\n        /* \"#utility.yul\":13064:13195   */\n      tag_478\n      jump\t// in\n    tag_540:\n        /* \"#utility.yul\":13056:13195   */\n      swap1\n      pop\n        /* \"#utility.yul\":12783:13202   */\n      swap2\n      swap1\n      pop\n      jump\t// out\n        /* \"#utility.yul\":13208:13627   */\n    tag_376:\n        /* \"#utility.yul\":13374:13378   */\n      0x00\n        /* \"#utility.yul\":13412:13414   */\n      0x20\n        /* \"#utility.yul\":13401:13410   */\n      dup3\n        /* \"#utility.yul\":13397:13415   */\n      add\n        /* \"#utility.yul\":13389:13415   */\n      swap1\n      pop\n        /* \"#utility.yul\":13461:13470   */\n      dup2\n        /* \"#utility.yul\":13455:13459   */\n      dup2\n        /* \"#utility.yul\":13451:13471   */\n      sub\n        /* \"#utility.yul\":13447:13448   */\n      0x00\n        /* \"#utility.yul\":13436:13445   */\n      dup4\n        /* \"#utility.yul\":13432:13449   */\n      add\n        /* \"#utility.yul\":13425:13472   */\n      mstore\n        /* \"#utility.yul\":13489:13620   */\n      tag_542\n        /* \"#utility.yul\":13615:13619   */\n      dup2\n        /* \"#utility.yul\":13489:13620   */\n      tag_483\n      jump\t// in\n    tag_542:\n        /* \"#utility.yul\":13481:13620   */\n      swap1\n      pop\n        /* \"#utility.yul\":13208:13627   */\n      swap2\n      swap1\n      pop\n      jump\t// out\n        /* \"#utility.yul\":13633:14052   */\n    tag_350:\n        /* \"#utility.yul\":13799:13803   */\n      0x00\n        /* \"#utility.yul\":13837:13839   */\n      0x20\n        /* \"#utility.yul\":13826:13835   */\n      dup3\n        /* \"#utility.yul\":13822:13840   */\n      add\n        /* \"#utility.yul\":13814:13840   */\n      swap1\n      pop\n        /* \"#utility.yul\":13886:13895   */\n      dup2\n        /* \"#utility.yul\":13880:13884   */\n      dup2\n        /* \"#utility.yul\":13876:13896   */\n      sub\n        /* \"#utility.yul\":13872:13873   */\n      0x00\n        /* \"#utility.yul\":13861:13870   */\n      dup4\n        /* \"#utility.yul\":13857:13874   */\n      add\n        /* \"#utility.yul\":13850:13897   */\n      mstore\n        /* \"#utility.yul\":13914:14045   */\n      tag_544\n        /* \"#utility.yul\":14040:14044   */\n      dup2\n        /* \"#utility.yul\":13914:14045   */\n      tag_488\n      jump\t// in\n    tag_544:\n        /* \"#utility.yul\":13906:14045   */\n      swap1\n      pop\n        /* \"#utility.yul\":13633:14052   */\n      swap2\n      swap1\n      pop\n      jump\t// out\n        /* \"#utility.yul\":14058:14477   */\n    tag_335:\n        /* \"#utility.yul\":14224:14228   */\n      0x00\n        /* \"#utility.yul\":14262:14264   */\n      0x20\n        /* \"#utility.yul\":14251:14260   */\n      dup3\n        /* \"#utility.yul\":14247:14265   */\n      add\n        /* \"#utility.yul\":14239:14265   */\n      swap1\n      pop\n        /* \"#utility.yul\":14311:14320   */\n      dup2\n        /* \"#utility.yul\":14305:14309   */\n      dup2\n        /* \"#utility.yul\":14301:14321   */\n      sub\n        /* \"#utility.yul\":14297:14298   */\n      0x00\n        /* \"#utility.yul\":14286:14295   */\n      dup4\n        /* \"#utility.yul\":14282:14299   */\n      add\n        /* \"#utility.yul\":14275:14322   */\n      mstore\n        /* \"#utility.yul\":14339:14470   */\n      tag_546\n        /* \"#utility.yul\":14465:14469   */\n      dup2\n        /* \"#utility.yul\":14339:14470   */\n      tag_493\n      jump\t// in\n    tag_546:\n        /* \"#utility.yul\":14331:14470   */\n      swap1\n      pop\n        /* \"#utility.yul\":14058:14477   */\n      swap2\n      swap1\n      pop\n      jump\t// out\n        /* \"#utility.yul\":14483:14902   */\n    tag_274:\n        /* \"#utility.yul\":14649:14653   */\n      0x00\n        /* \"#utility.yul\":14687:14689   */\n      0x20\n        /* \"#utility.yul\":14676:14685   */\n      dup3\n        /* \"#utility.yul\":14672:14690   */\n      add\n        /* \"#utility.yul\":14664:14690   */\n      swap1\n      pop\n        /* \"#utility.yul\":14736:14745   */\n      dup2\n        /* \"#utility.yul\":14730:14734   */\n      dup2\n        /* \"#utility.yul\":14726:14746   */\n      sub\n        /* \"#utility.yul\":14722:14723   */\n      0x00\n        /* \"#utility.yul\":14711:14720   */\n      dup4\n        /* \"#utility.yul\":14707:14724   */\n      add\n        /* \"#utility.yul\":14700:14747   */\n      mstore\n        /* \"#utility.yul\":14764:14895   */\n      tag_548\n        /* \"#utility.yul\":14890:14894   */\n      dup2\n        /* \"#utility.yul\":14764:14895   */\n      tag_498\n      jump\t// in\n    tag_548:\n        /* \"#utility.yul\":14756:14895   */\n      swap1\n      pop\n        /* \"#utility.yul\":14483:14902   */\n      swap2\n      swap1\n      pop\n      jump\t// out\n        /* \"#utility.yul\":14908:15327   */\n    tag_367:\n        /* \"#utility.yul\":15074:15078   */\n      0x00\n        /* \"#utility.yul\":15112:15114   */\n      0x20\n        /* \"#utility.yul\":15101:15110   */\n      dup3\n        /* \"#utility.yul\":15097:15115   */\n      add\n        /* \"#utility.yul\":15089:15115   */\n      swap1\n      pop\n        /* \"#utility.yul\":15161:15170   */\n      dup2\n        /* \"#utility.yul\":15155:15159   */\n      dup2\n        /* \"#utility.yul\":15151:15171   */\n      sub\n        /* \"#utility.yul\":15147:15148   */\n      0x00\n        /* \"#utility.yul\":15136:15145   */\n      dup4\n        /* \"#utility.yul\":15132:15149   */\n      add\n        /* \"#utility.yul\":15125:15172   */\n      mstore\n        /* \"#utility.yul\":15189:15320   */\n      tag_550\n        /* \"#utility.yul\":15315:15319   */\n      dup2\n        /* \"#utility.yul\":15189:15320   */\n      tag_503\n      jump\t// in\n    tag_550:\n        /* \"#utility.yul\":15181:15320   */\n      swap1\n      pop\n        /* \"#utility.yul\":14908:15327   */\n      swap2\n      swap1\n      pop\n      jump\t// out\n        /* \"#utility.yul\":15333:15555   */\n    tag_44:\n        /* \"#utility.yul\":15426:15430   */\n      0x00\n        /* \"#utility.yul\":15464:15466   */\n      0x20\n        /* \"#utility.yul\":15453:15462   */\n      dup3\n        /* \"#utility.yul\":15449:15467   */\n      add\n        /* \"#utility.yul\":15441:15467   */\n      swap1\n      pop\n        /* \"#utility.yul\":15477:15548   */\n      tag_552\n        /* \"#utility.yul\":15545:15546   */\n      0x00\n        /* \"#utility.yul\":15534:15543   */\n      dup4\n        /* \"#utility.yul\":15530:15547   */\n      add\n        /* \"#utility.yul\":15521:15527   */\n      dup5\n        /* \"#utility.yul\":15477:15548   */\n      tag_508\n      jump\t// in\n    tag_552:\n        /* \"#utility.yul\":15333:15555   */\n      swap3\n      swap2\n      pop\n      pop\n      jump\t// out\n        /* \"#utility.yul\":15561:15775   */\n    tag_81:\n        /* \"#utility.yul\":15650:15654   */\n      0x00\n        /* \"#utility.yul\":15688:15690   */\n      0x20\n        /* \"#utility.yul\":15677:15686   */\n      dup3\n        /* \"#utility.yul\":15673:15691   */\n      add\n        /* \"#utility.yul\":15665:15691   */\n      swap1\n      pop\n        /* \"#utility.yul\":15701:15768   */\n      tag_554\n        /* \"#utility.yul\":15765:15766   */\n      0x00\n        /* \"#utility.yul\":15754:15763   */\n      dup4\n        /* \"#utility.yul\":15750:15767   */\n      add\n        /* \"#utility.yul\":15741:15747   */\n      dup5\n        /* \"#utility.yul\":15701:15768   */\n      tag_512\n      jump\t// in\n    tag_554:\n        /* \"#utility.yul\":15561:15775   */\n      swap3\n      swap2\n      pop\n      pop\n      jump\t// out\n        /* \"#utility.yul\":15862:15961   */\n    tag_436:\n        /* \"#utility.yul\":15914:15920   */\n      0x00\n        /* \"#utility.yul\":15948:15953   */\n      dup2\n        /* \"#utility.yul\":15942:15954   */\n      mload\n        /* \"#utility.yul\":15932:15954   */\n      swap1\n      pop\n        /* \"#utility.yul\":15862:15961   */\n      swap2\n      swap1\n      pop\n      jump\t// out\n        /* \"#utility.yul\":15967:16136   */\n    tag_438:\n        /* \"#utility.yul\":16051:16062   */\n      0x00\n        /* \"#utility.yul\":16085:16091   */\n      dup3\n        /* \"#utility.yul\":16080:16083   */\n      dup3\n        /* \"#utility.yul\":16073:16092   */\n      mstore\n        /* \"#utility.yul\":16125:16129   */\n      0x20\n        /* \"#utility.yul\":16120:16123   */\n      dup3\n        /* \"#utility.yul\":16116:16130   */\n      add\n        /* \"#utility.yul\":16101:16130   */\n      swap1\n      pop\n        /* \"#utility.yul\":15967:16136   */\n      swap3\n      swap2\n      pop\n      pop\n      jump\t// out\n        /* \"#utility.yul\":16142:16447   */\n    tag_204:\n        /* \"#utility.yul\":16182:16185   */\n      0x00\n        /* \"#utility.yul\":16201:16221   */\n      tag_560\n        /* \"#utility.yul\":16219:16220   */\n      dup3\n        /* \"#utility.yul\":16201:16221   */\n      tag_511\n      jump\t// in\n    tag_560:\n        /* \"#utility.yul\":16196:16221   */\n      swap2\n      pop\n        /* \"#utility.yul\":16235:16255   */\n      tag_561\n        /* \"#utility.yul\":16253:16254   */\n      dup4\n        /* \"#utility.yul\":16235:16255   */\n      tag_511\n      jump\t// in\n    tag_561:\n        /* \"#utility.yul\":16230:16255   */\n      swap3\n      pop\n        /* \"#utility.yul\":16389:16390   */\n      dup3\n        /* \"#utility.yul\":16321:16387   */\n      0xffffffffffffffffffffffffffffffffffffffffffffffffffffffffffffffff\n        /* \"#utility.yul\":16317:16391   */\n      sub\n        /* \"#utility.yul\":16314:16315   */\n      dup3\n        /* \"#utility.yul\":16311:16392   */\n      gt\n        /* \"#utility.yul\":16308:16415   */\n      iszero\n      tag_562\n      jumpi\n        /* \"#utility.yul\":16395:16413   */\n      tag_563\n      tag_564\n      jump\t// in\n    tag_563:\n        /* \"#utility.yul\":16308:16415   */\n    tag_562:\n        /* \"#utility.yul\":16439:16440   */\n      dup3\n        /* \"#utility.yul\":16436:16437   */\n      dup3\n        /* \"#utility.yul\":16432:16441   */\n      add\n        /* \"#utility.yul\":16425:16441   */\n      swap1\n      pop\n        /* \"#utility.yul\":16142:16447   */\n      swap3\n      swap2\n      pop\n      pop\n      jump\t// out\n        /* \"#utility.yul\":16453:16638   */\n    tag_254:\n        /* \"#utility.yul\":16493:16494   */\n      0x00\n        /* \"#utility.yul\":16510:16530   */\n      tag_566\n        /* \"#utility.yul\":16528:16529   */\n      dup3\n        /* \"#utility.yul\":16510:16530   */\n      tag_511\n      jump\t// in\n    tag_566:\n        /* \"#utility.yul\":16505:16530   */\n      swap2\n      pop\n        /* \"#utility.yul\":16544:16564   */\n      tag_567\n        /* \"#utility.yul\":16562:16563   */\n      dup4\n        /* \"#utility.yul\":16544:16564   */\n      tag_511\n      jump\t// in\n    tag_567:\n        /* \"#utility.yul\":16539:16564   */\n      swap3\n      pop\n        /* \"#utility.yul\":16583:16584   */\n      dup3\n        /* \"#utility.yul\":16573:16608   */\n      tag_568\n      jumpi\n        /* \"#utility.yul\":16588:16606   */\n      tag_569\n      tag_570\n      jump\t// in\n    tag_569:\n        /* \"#utility.yul\":16573:16608   */\n    tag_568:\n        /* \"#utility.yul\":16630:16631   */\n      dup3\n        /* \"#utility.yul\":16627:16628   */\n      dup3\n        /* \"#utility.yul\":16623:16632   */\n      div\n        /* \"#utility.yul\":16618:16632   */\n      swap1\n      pop\n        /* \"#utility.yul\":16453:16638   */\n      swap3\n      swap2\n      pop\n      pop\n      jump\t// out\n        /* \"#utility.yul\":16644:17492   */\n    tag_571:\n        /* \"#utility.yul\":16705:16710   */\n      0x00\n        /* \"#utility.yul\":16712:16716   */\n      dup1\n        /* \"#utility.yul\":16736:16742   */\n      dup3\n        /* \"#utility.yul\":16727:16742   */\n      swap2\n      pop\n        /* \"#utility.yul\":16760:16765   */\n      dup4\n        /* \"#utility.yul\":16751:16765   */\n      swap1\n      pop\n        /* \"#utility.yul\":16774:17486   */\n    tag_573:\n        /* \"#utility.yul\":16795:16796   */\n      0x01\n        /* \"#utility.yul\":16785:16793   */\n      dup6\n        /* \"#utility.yul\":16782:16797   */\n      gt\n        /* \"#utility.yul\":16774:17486   */\n      iszero\n      tag_575\n      jumpi\n        /* \"#utility.yul\":16890:16894   */\n      dup1\n        /* \"#utility.yul\":16885:16888   */\n      dup7\n        /* \"#utility.yul\":16881:16895   */\n      div\n        /* \"#utility.yul\":16875:16879   */\n      dup2\n        /* \"#utility.yul\":16872:16896   */\n      gt\n        /* \"#utility.yul\":16869:16919   */\n      iszero\n      tag_576\n      jumpi\n        /* \"#utility.yul\":16899:16917   */\n      tag_577\n      tag_564\n      jump\t// in\n    tag_577:\n        /* \"#utility.yul\":16869:16919   */\n    tag_576:\n        /* \"#utility.yul\":16949:16950   */\n      0x01\n        /* \"#utility.yul\":16939:16947   */\n      dup6\n        /* \"#utility.yul\":16935:16951   */\n      and\n        /* \"#utility.yul\":16932:17383   */\n      iszero\n      tag_578\n      jumpi\n        /* \"#utility.yul\":17364:17368   */\n      dup1\n        /* \"#utility.yul\":17357:17362   */\n      dup3\n        /* \"#utility.yul\":17353:17369   */\n      mul\n        /* \"#utility.yul\":17344:17369   */\n      swap2\n      pop\n        /* \"#utility.yul\":16932:17383   */\n    tag_578:\n        /* \"#utility.yul\":17414:17418   */\n      dup1\n        /* \"#utility.yul\":17408:17412   */\n      dup2\n        /* \"#utility.yul\":17404:17419   */\n      mul\n        /* \"#utility.yul\":17396:17419   */\n      swap1\n      pop\n        /* \"#utility.yul\":17444:17476   */\n      tag_579\n        /* \"#utility.yul\":17467:17475   */\n      dup6\n        /* \"#utility.yul\":17444:17476   */\n      tag_580\n      jump\t// in\n    tag_579:\n        /* \"#utility.yul\":17432:17476   */\n      swap5\n      pop\n        /* \"#utility.yul\":16774:17486   */\n      jump(tag_573)\n    tag_575:\n        /* \"#utility.yul\":16644:17492   */\n      swap5\n      pop\n      swap5\n      swap3\n      pop\n      pop\n      pop\n      jump\t// out\n        /* \"#utility.yul\":17498:17779   */\n    tag_247:\n        /* \"#utility.yul\":17556:17561   */\n      0x00\n        /* \"#utility.yul\":17580:17603   */\n      tag_582\n        /* \"#utility.yul\":17598:17602   */\n      dup3\n        /* \"#utility.yul\":17580:17603   */\n      tag_511\n      jump\t// in\n    tag_582:\n        /* \"#utility.yul\":17572:17603   */\n      swap2\n      pop\n        /* \"#utility.yul\":17624:17649   */\n      tag_583\n        /* \"#utility.yul\":17640:17648   */\n      dup4\n        /* \"#utility.yul\":17624:17649   */\n      tag_515\n      jump\t// in\n    tag_583:\n        /* \"#utility.yul\":17612:17649   */\n      swap3\n      pop\n        /* \"#utility.yul\":17668:17772   */\n      tag_584\n        /* \"#utility.yul\":17705:17771   */\n      0xffffffffffffffffffffffffffffffffffffffffffffffffffffffffffffffff\n        /* \"#utility.yul\":17695:17703   */\n      dup5\n        /* \"#utility.yul\":17689:17693   */\n      dup5\n        /* \"#utility.yul\":17668:17772   */\n      tag_585\n      jump\t// in\n    tag_584:\n        /* \"#utility.yul\":17659:17772   */\n      swap1\n      pop\n        /* \"#utility.yul\":17498:17779   */\n      swap3\n      swap2\n      pop\n      pop\n      jump\t// out\n        /* \"#utility.yul\":17785:18858   */\n    tag_585:\n        /* \"#utility.yul\":17839:17844   */\n      0x00\n        /* \"#utility.yul\":18030:18038   */\n      dup3\n        /* \"#utility.yul\":18020:18060   */\n      tag_587\n      jumpi\n        /* \"#utility.yul\":18051:18052   */\n      0x01\n        /* \"#utility.yul\":18042:18052   */\n      swap1\n      pop\n        /* \"#utility.yul\":18053:18058   */\n      jump(tag_586)\n        /* \"#utility.yul\":18020:18060   */\n    tag_587:\n        /* \"#utility.yul\":18079:18083   */\n      dup2\n        /* \"#utility.yul\":18069:18105   */\n      tag_588\n      jumpi\n        /* \"#utility.yul\":18096:18097   */\n      0x00\n        /* \"#utility.yul\":18087:18097   */\n      swap1\n      pop\n        /* \"#utility.yul\":18098:18103   */\n      jump(tag_586)\n        /* \"#utility.yul\":18069:18105   */\n    tag_588:\n        /* \"#utility.yul\":18165:18169   */\n      dup2\n        /* \"#utility.yul\":18213:18214   */\n      0x01\n        /* \"#utility.yul\":18208:18235   */\n      dup2\n      eq\n      tag_590\n      jumpi\n        /* \"#utility.yul\":18249:18250   */\n      0x02\n        /* \"#utility.yul\":18244:18435   */\n      dup2\n      eq\n      tag_591\n      jumpi\n        /* \"#utility.yul\":18158:18435   */\n      jump(tag_589)\n        /* \"#utility.yul\":18208:18235   */\n    tag_590:\n        /* \"#utility.yul\":18226:18227   */\n      0x01\n        /* \"#utility.yul\":18217:18227   */\n      swap2\n      pop\n        /* \"#utility.yul\":18228:18233   */\n      pop\n      jump(tag_586)\n        /* \"#utility.yul\":18244:18435   */\n    tag_591:\n        /* \"#utility.yul\":18289:18292   */\n      0xff\n        /* \"#utility.yul\":18279:18287   */\n      dup5\n        /* \"#utility.yul\":18276:18293   */\n      gt\n        /* \"#utility.yul\":18273:18316   */\n      iszero\n      tag_592\n      jumpi\n        /* \"#utility.yul\":18296:18314   */\n      tag_593\n      tag_564\n      jump\t// in\n    tag_593:\n        /* \"#utility.yul\":18273:18316   */\n    tag_592:\n        /* \"#utility.yul\":18345:18353   */\n      dup4\n        /* \"#utility.yul\":18342:18343   */\n      0x02\n        /* \"#utility.yul\":18338:18354   */\n      exp\n        /* \"#utility.yul\":18329:18354   */\n      swap2\n      pop\n        /* \"#utility.yul\":18380:18383   */\n      dup5\n        /* \"#utility.yul\":18373:18378   */\n      dup3\n        /* \"#utility.yul\":18370:18384   */\n      gt\n        /* \"#utility.yul\":18367:18407   */\n      iszero\n      tag_594\n      jumpi\n        /* \"#utility.yul\":18387:18405   */\n      tag_595\n      tag_564\n      jump\t// in\n    tag_595:\n        /* \"#utility.yul\":18367:18407   */\n    tag_594:\n        /* \"#utility.yul\":18420:18425   */\n      pop\n      jump(tag_586)\n        /* \"#utility.yul\":18158:18435   */\n    tag_589:\n      pop\n        /* \"#utility.yul\":18544:18546   */\n      0x20\n        /* \"#utility.yul\":18534:18542   */\n      dup4\n        /* \"#utility.yul\":18531:18547   */\n      lt\n        /* \"#utility.yul\":18525:18528   */\n      0x0133\n        /* \"#utility.yul\":18519:18523   */\n      dup4\n        /* \"#utility.yul\":18516:18529   */\n      lt\n        /* \"#utility.yul\":18512:18548   */\n      and\n        /* \"#utility.yul\":18494:18496   */\n      0x4e\n        /* \"#utility.yul\":18484:18492   */\n      dup5\n        /* \"#utility.yul\":18481:18497   */\n      lt\n        /* \"#utility.yul\":18476:18478   */\n      0x0b\n        /* \"#utility.yul\":18470:18474   */\n      dup5\n        /* \"#utility.yul\":18467:18479   */\n      lt\n        /* \"#utility.yul\":18463:18498   */\n      and\n        /* \"#utility.yul\":18447:18558   */\n      or\n        /* \"#utility.yul\":18444:18690   */\n      iszero\n      tag_596\n      jumpi\n        /* \"#utility.yul\":18600:18608   */\n      dup3\n        /* \"#utility.yul\":18594:18598   */\n      dup3\n        /* \"#utility.yul\":18590:18609   */\n      exp\n        /* \"#utility.yul\":18581:18609   */\n      swap1\n      pop\n        /* \"#utility.yul\":18635:18638   */\n      dup4\n        /* \"#utility.yul\":18628:18633   */\n      dup2\n        /* \"#utility.yul\":18625:18639   */\n      gt\n        /* \"#utility.yul\":18622:18662   */\n      iszero\n      tag_597\n      jumpi\n        /* \"#utility.yul\":18642:18660   */\n      tag_598\n      tag_564\n      jump\t// in\n    tag_598:\n        /* \"#utility.yul\":18622:18662   */\n    tag_597:\n        /* \"#utility.yul\":18675:18680   */\n      jump(tag_586)\n        /* \"#utility.yul\":18444:18690   */\n    tag_596:\n        /* \"#utility.yul\":18715:18757   */\n      tag_599\n        /* \"#utility.yul\":18753:18756   */\n      dup5\n        /* \"#utility.yul\":18743:18751   */\n      dup5\n        /* \"#utility.yul\":18737:18741   */\n      dup5\n        /* \"#utility.yul\":18734:18735   */\n      0x01\n        /* \"#utility.yul\":18715:18757   */\n      tag_571\n      jump\t// in\n    tag_599:\n        /* \"#utility.yul\":18700:18757   */\n      swap3\n      pop\n      swap1\n      pop\n        /* \"#utility.yul\":18789:18793   */\n      dup2\n        /* \"#utility.yul\":18784:18787   */\n      dup5\n        /* \"#utility.yul\":18780:18794   */\n      div\n        /* \"#utility.yul\":18773:18778   */\n      dup2\n        /* \"#utility.yul\":18770:18795   */\n      gt\n        /* \"#utility.yul\":18767:18818   */\n      iszero\n      tag_600\n      jumpi\n        /* \"#utility.yul\":18798:18816   */\n      tag_601\n      tag_564\n      jump\t// in\n    tag_601:\n        /* \"#utility.yul\":18767:18818   */\n    tag_600:\n        /* \"#utility.yul\":18847:18851   */\n      dup2\n        /* \"#utility.yul\":18840:18845   */\n      dup2\n        /* \"#utility.yul\":18836:18852   */\n      mul\n        /* \"#utility.yul\":18827:18852   */\n      swap1\n      pop\n        /* \"#utility.yul\":17785:18858   */\n    tag_586:\n      swap4\n      swap3\n      pop\n      pop\n      pop\n      jump\t// out\n        /* \"#utility.yul\":18864:19212   */\n    tag_249:\n        /* \"#utility.yul\":18904:18911   */\n      0x00\n        /* \"#utility.yul\":18927:18947   */\n      tag_603\n        /* \"#utility.yul\":18945:18946   */\n      dup3\n        /* \"#utility.yul\":18927:18947   */\n      tag_511\n      jump\t// in\n    tag_603:\n        /* \"#utility.yul\":18922:18947   */\n      swap2\n      pop\n        /* \"#utility.yul\":18961:18981   */\n      tag_604\n        /* \"#utility.yul\":18979:18980   */\n      dup4\n        /* \"#utility.yul\":18961:18981   */\n      tag_511\n      jump\t// in\n    tag_604:\n        /* \"#utility.yul\":18956:18981   */\n      swap3\n      pop\n        /* \"#utility.yul\":19149:19150   */\n      dup2\n        /* \"#utility.yul\":19081:19147   */\n      0xffffffffffffffffffffffffffffffffffffffffffffffffffffffffffffffff\n        /* \"#utility.yul\":19077:19151   */\n      div\n        /* \"#utility.yul\":19074:19075   */\n      dup4\n        /* \"#utility.yul\":19071:19152   */\n      gt\n        /* \"#utility.yul\":19066:19067   */\n      dup3\n        /* \"#utility.yul\":19059:19068   */\n      iszero\n        /* \"#utility.yul\":19052:19069   */\n      iszero\n        /* \"#utility.yul\":19048:19153   */\n      and\n        /* \"#utility.yul\":19045:19176   */\n      iszero\n      tag_605\n      jumpi\n        /* \"#utility.yul\":19156:19174   */\n      tag_606\n      tag_564\n      jump\t// in\n    tag_606:\n        /* \"#utility.yul\":19045:19176   */\n    tag_605:\n        /* \"#utility.yul\":19204:19205   */\n      dup3\n        /* \"#utility.yul\":19201:19202   */\n      dup3\n        /* \"#utility.yul\":19197:19206   */\n      mul\n        /* \"#utility.yul\":19186:19206   */\n      swap1\n      pop\n        /* \"#utility.yul\":18864:19212   */\n      swap3\n      swap2\n      pop\n      pop\n      jump\t// out\n        /* \"#utility.yul\":19218:19409   */\n    tag_260:\n        /* \"#utility.yul\":19258:19262   */\n      0x00\n        /* \"#utility.yul\":19278:19298   */\n      tag_608\n        /* \"#utility.yul\":19296:19297   */\n      dup3\n        /* \"#utility.yul\":19278:19298   */\n      tag_511\n      jump\t// in\n    tag_608:\n        /* \"#utility.yul\":19273:19298   */\n      swap2\n      pop\n        /* \"#utility.yul\":19312:19332   */\n      tag_609\n        /* \"#utility.yul\":19330:19331   */\n      dup4\n        /* \"#utility.yul\":19312:19332   */\n      tag_511\n      jump\t// in\n    tag_609:\n        /* \"#utility.yul\":19307:19332   */\n      swap3\n      pop\n        /* \"#utility.yul\":19351:19352   */\n      dup3\n        /* \"#utility.yul\":19348:19349   */\n      dup3\n        /* \"#utility.yul\":19345:19353   */\n      lt\n        /* \"#utility.yul\":19342:19376   */\n      iszero\n      tag_610\n      jumpi\n        /* \"#utility.yul\":19356:19374   */\n      tag_611\n      tag_564\n      jump\t// in\n    tag_611:\n        /* \"#utility.yul\":19342:19376   */\n    tag_610:\n        /* \"#utility.yul\":19401:19402   */\n      dup3\n        /* \"#utility.yul\":19398:19399   */\n      dup3\n        /* \"#utility.yul\":19394:19403   */\n      sub\n        /* \"#utility.yul\":19386:19403   */\n      swap1\n      pop\n        /* \"#utility.yul\":19218:19409   */\n      swap3\n      swap2\n      pop\n      pop\n      jump\t// out\n        /* \"#utility.yul\":19415:19511   */\n    tag_428:\n        /* \"#utility.yul\":19452:19459   */\n      0x00\n        /* \"#utility.yul\":19481:19505   */\n      tag_613\n        /* \"#utility.yul\":19499:19504   */\n      dup3\n        /* \"#utility.yul\":19481:19505   */\n      tag_614\n      jump\t// in\n    tag_613:\n        /* \"#utility.yul\":19470:19505   */\n      swap1\n      pop\n        /* \"#utility.yul\":19415:19511   */\n      swap2\n      swap1\n      pop\n      jump\t// out\n        /* \"#utility.yul\":19517:19607   */\n    tag_432:\n        /* \"#utility.yul\":19551:19558   */\n      0x00\n        /* \"#utility.yul\":19594:19599   */\n      dup2\n        /* \"#utility.yul\":19587:19600   */\n      iszero\n        /* \"#utility.yul\":19580:19601   */\n      iszero\n        /* \"#utility.yul\":19569:19601   */\n      swap1\n      pop\n        /* \"#utility.yul\":19517:19607   */\n      swap2\n      swap1\n      pop\n      jump\t// out\n        /* \"#utility.yul\":19613:19739   */\n    tag_614:\n        /* \"#utility.yul\":19650:19657   */\n      0x00\n        /* \"#utility.yul\":19690:19732   */\n      0xffffffffffffffffffffffffffffffffffffffff\n        /* \"#utility.yul\":19683:19688   */\n      dup3\n        /* \"#utility.yul\":19679:19733   */\n      and\n        /* \"#utility.yul\":19668:19733   */\n      swap1\n      pop\n        /* \"#utility.yul\":19613:19739   */\n      swap2\n      swap1\n      pop\n      jump\t// out\n        /* \"#utility.yul\":19745:19822   */\n    tag_511:\n        /* \"#utility.yul\":19782:19789   */\n      0x00\n        /* \"#utility.yul\":19811:19816   */\n      dup2\n        /* \"#utility.yul\":19800:19816   */\n      swap1\n      pop\n        /* \"#utility.yul\":19745:19822   */\n      swap2\n      swap1\n      pop\n      jump\t// out\n        /* \"#utility.yul\":19828:19914   */\n    tag_515:\n        /* \"#utility.yul\":19863:19870   */\n      0x00\n        /* \"#utility.yul\":19903:19907   */\n      0xff\n        /* \"#utility.yul\":19896:19901   */\n      dup3\n        /* \"#utility.yul\":19892:19908   */\n      and\n        /* \"#utility.yul\":19881:19908   */\n      swap1\n      pop\n        /* \"#utility.yul\":19828:19914   */\n      swap2\n      swap1\n      pop\n      jump\t// out\n        /* \"#utility.yul\":19920:20227   */\n    tag_440:\n        /* \"#utility.yul\":19988:19989   */\n      0x00\n        /* \"#utility.yul\":19998:20111   */\n    tag_620:\n        /* \"#utility.yul\":20012:20018   */\n      dup4\n        /* \"#utility.yul\":20009:20010   */\n      dup2\n        /* \"#utility.yul\":20006:20019   */\n      lt\n        /* \"#utility.yul\":19998:20111   */\n      iszero\n      tag_622\n      jumpi\n        /* \"#utility.yul\":20097:20098   */\n      dup1\n        /* \"#utility.yul\":20092:20095   */\n      dup3\n        /* \"#utility.yul\":20088:20099   */\n      add\n        /* \"#utility.yul\":20082:20100   */\n      mload\n        /* \"#utility.yul\":20078:20079   */\n      dup2\n        /* \"#utility.yul\":20073:20076   */\n      dup5\n        /* \"#utility.yul\":20069:20080   */\n      add\n        /* \"#utility.yul\":20062:20101   */\n      mstore\n        /* \"#utility.yul\":20034:20036   */\n      0x20\n        /* \"#utility.yul\":20031:20032   */\n      dup2\n        /* \"#utility.yul\":20027:20037   */\n      add\n        /* \"#utility.yul\":20022:20037   */\n      swap1\n      pop\n        /* \"#utility.yul\":19998:20111   */\n      jump(tag_620)\n    tag_622:\n        /* \"#utility.yul\":20129:20135   */\n      dup4\n        /* \"#utility.yul\":20126:20127   */\n      dup2\n        /* \"#utility.yul\":20123:20136   */\n      gt\n        /* \"#utility.yul\":20120:20221   */\n      iszero\n      tag_623\n      jumpi\n        /* \"#utility.yul\":20209:20210   */\n      0x00\n        /* \"#utility.yul\":20200:20206   */\n      dup5\n        /* \"#utility.yul\":20195:20198   */\n      dup5\n        /* \"#utility.yul\":20191:20207   */\n      add\n        /* \"#utility.yul\":20184:20211   */\n      mstore\n        /* \"#utility.yul\":20120:20221   */\n    tag_623:\n        /* \"#utility.yul\":19969:20227   */\n      pop\n        /* \"#utility.yul\":19920:20227   */\n      pop\n      pop\n      pop\n      jump\t// out\n        /* \"#utility.yul\":20233:20553   */\n    tag_185:\n        /* \"#utility.yul\":20277:20283   */\n      0x00\n        /* \"#utility.yul\":20314:20315   */\n      0x02\n        /* \"#utility.yul\":20308:20312   */\n      dup3\n        /* \"#utility.yul\":20304:20316   */\n      div\n        /* \"#utility.yul\":20294:20316   */\n      swap1\n      pop\n        /* \"#utility.yul\":20361:20362   */\n      0x01\n        /* \"#utility.yul\":20355:20359   */\n      dup3\n        /* \"#utility.yul\":20351:20363   */\n      and\n        /* \"#utility.yul\":20382:20400   */\n      dup1\n        /* \"#utility.yul\":20372:20453   */\n      tag_625\n      jumpi\n        /* \"#utility.yul\":20438:20442   */\n      0x7f\n        /* \"#utility.yul\":20430:20436   */\n      dup3\n        /* \"#utility.yul\":20426:20443   */\n      and\n        /* \"#utility.yul\":20416:20443   */\n      swap2\n      pop\n        /* \"#utility.yul\":20372:20453   */\n    tag_625:\n        /* \"#utility.yul\":20500:20502   */\n      0x20\n        /* \"#utility.yul\":20492:20498   */\n      dup3\n        /* \"#utility.yul\":20489:20503   */\n      lt\n        /* \"#utility.yul\":20469:20487   */\n      dup2\n        /* \"#utility.yul\":20466:20504   */\n      eq\n        /* \"#utility.yul\":20463:20547   */\n      iszero\n      tag_626\n      jumpi\n        /* \"#utility.yul\":20519:20537   */\n      tag_627\n      tag_628\n      jump\t// in\n    tag_627:\n        /* \"#utility.yul\":20463:20547   */\n    tag_626:\n        /* \"#utility.yul\":20284:20553   */\n      pop\n        /* \"#utility.yul\":20233:20553   */\n      swap2\n      swap1\n      pop\n      jump\t// out\n        /* \"#utility.yul\":20559:20739   */\n    tag_564:\n        /* \"#utility.yul\":20607:20684   */\n      0x4e487b7100000000000000000000000000000000000000000000000000000000\n        /* \"#utility.yul\":20604:20605   */\n      0x00\n        /* \"#utility.yul\":20597:20685   */\n      mstore\n        /* \"#utility.yul\":20704:20708   */\n      0x11\n        /* \"#utility.yul\":20701:20702   */\n      0x04\n        /* \"#utility.yul\":20694:20709   */\n      mstore\n        /* \"#utility.yul\":20728:20732   */\n      0x24\n        /* \"#utility.yul\":20725:20726   */\n      0x00\n        /* \"#utility.yul\":20718:20733   */\n      revert\n        /* \"#utility.yul\":20745:20925   */\n    tag_570:\n        /* \"#utility.yul\":20793:20870   */\n      0x4e487b7100000000000000000000000000000000000000000000000000000000\n        /* \"#utility.yul\":20790:20791   */\n      0x00\n        /* \"#utility.yul\":20783:20871   */\n      mstore\n        /* \"#utility.yul\":20890:20894   */\n      0x12\n        /* \"#utility.yul\":20887:20888   */\n      0x04\n        /* \"#utility.yul\":20880:20895   */\n      mstore\n        /* \"#utility.yul\":20914:20918   */\n      0x24\n        /* \"#utility.yul\":20911:20912   */\n      0x00\n        /* \"#utility.yul\":20904:20919   */\n      revert\n        /* \"#utility.yul\":20931:21111   */\n    tag_628:\n        /* \"#utility.yul\":20979:21056   */\n      0x4e487b7100000000000000000000000000000000000000000000000000000000\n        /* \"#utility.yul\":20976:20977   */\n      0x00\n        /* \"#utility.yul\":20969:21057   */\n      mstore\n        /* \"#utility.yul\":21076:21080   */\n      0x22\n        /* \"#utility.yul\":21073:21074   */\n      0x04\n        /* \"#utility.yul\":21066:21081   */\n      mstore\n        /* \"#utility.yul\":21100:21104   */\n      0x24\n        /* \"#utility.yul\":21097:21098   */\n      0x00\n        /* \"#utility.yul\":21090:21105   */\n      revert\n        /* \"#utility.yul\":21117:21297   */\n    tag_291:\n        /* \"#utility.yul\":21165:21242   */\n      0x4e487b7100000000000000000000000000000000000000000000000000000000\n        /* \"#utility.yul\":21162:21163   */\n      0x00\n        /* \"#utility.yul\":21155:21243   */\n      mstore\n        /* \"#utility.yul\":21262:21266   */\n      0x31\n        /* \"#utility.yul\":21259:21260   */\n      0x04\n        /* \"#utility.yul\":21252:21267   */\n      mstore\n        /* \"#utility.yul\":21286:21290   */\n      0x24\n        /* \"#utility.yul\":21283:21284   */\n      0x00\n        /* \"#utility.yul\":21276:21291   */\n      revert\n        /* \"#utility.yul\":21303:21483   */\n    tag_201:\n        /* \"#utility.yul\":21351:21428   */\n      0x4e487b7100000000000000000000000000000000000000000000000000000000\n        /* \"#utility.yul\":21348:21349   */\n      0x00\n        /* \"#utility.yul\":21341:21429   */\n      mstore\n        /* \"#utility.yul\":21448:21452   */\n      0x32\n        /* \"#utility.yul\":21445:21446   */\n      0x04\n        /* \"#utility.yul\":21438:21453   */\n      mstore\n        /* \"#utility.yul\":21472:21476   */\n      0x24\n        /* \"#utility.yul\":21469:21470   */\n      0x00\n        /* \"#utility.yul\":21462:21477   */\n      revert\n        /* \"#utility.yul\":21612:21729   */\n    tag_398:\n        /* \"#utility.yul\":21721:21722   */\n      0x00\n        /* \"#utility.yul\":21718:21719   */\n      dup1\n        /* \"#utility.yul\":21711:21723   */\n      revert\n        /* \"#utility.yul\":21735:21837   */\n    tag_442:\n        /* \"#utility.yul\":21776:21782   */\n      0x00\n        /* \"#utility.yul\":21827:21829   */\n      0x1f\n        /* \"#utility.yul\":21823:21830   */\n      not\n        /* \"#utility.yul\":21818:21820   */\n      0x1f\n        /* \"#utility.yul\":21811:21816   */\n      dup4\n        /* \"#utility.yul\":21807:21821   */\n      add\n        /* \"#utility.yul\":21803:21831   */\n      and\n        /* \"#utility.yul\":21793:21831   */\n      swap1\n      pop\n        /* \"#utility.yul\":21735:21837   */\n      swap2\n      swap1\n      pop\n      jump\t// out\n        /* \"#utility.yul\":21843:21945   */\n    tag_580:\n        /* \"#utility.yul\":21885:21893   */\n      0x00\n        /* \"#utility.yul\":21932:21937   */\n      dup2\n        /* \"#utility.yul\":21929:21930   */\n      0x01\n        /* \"#utility.yul\":21925:21938   */\n      shr\n        /* \"#utility.yul\":21904:21938   */\n      swap1\n      pop\n        /* \"#utility.yul\":21843:21945   */\n      swap2\n      swap1\n      pop\n      jump\t// out\n        /* \"#utility.yul\":21951:22183   */\n    tag_447:\n        /* \"#utility.yul\":22091:22125   */\n      0x4f6e6c7920746865204f776e65722063616e2073657420746865207072696365\n        /* \"#utility.yul\":22087:22088   */\n      0x00\n        /* \"#utility.yul\":22079:22085   */\n      dup3\n        /* \"#utility.yul\":22075:22089   */\n      add\n        /* \"#utility.yul\":22068:22126   */\n      mstore\n        /* \"#utility.yul\":22160:22175   */\n      0x206f662074686520746f6b656e00000000000000000000000000000000000000\n        /* \"#utility.yul\":22155:22157   */\n      0x20\n        /* \"#utility.yul\":22147:22153   */\n      dup3\n        /* \"#utility.yul\":22143:22158   */\n      add\n        /* \"#utility.yul\":22136:22176   */\n      mstore\n        /* \"#utility.yul\":21951:22183   */\n      pop\n      jump\t// out\n        /* \"#utility.yul\":22189:22411   */\n    tag_452:\n        /* \"#utility.yul\":22329:22363   */\n      0x45524332303a207472616e7366657220746f20746865207a65726f2061646472\n        /* \"#utility.yul\":22325:22326   */\n      0x00\n        /* \"#utility.yul\":22317:22323   */\n      dup3\n        /* \"#utility.yul\":22313:22327   */\n      add\n        /* \"#utility.yul\":22306:22364   */\n      mstore\n        /* \"#utility.yul\":22398:22403   */\n      0x6573730000000000000000000000000000000000000000000000000000000000\n        /* \"#utility.yul\":22393:22395   */\n      0x20\n        /* \"#utility.yul\":22385:22391   */\n      dup3\n        /* \"#utility.yul\":22381:22396   */\n      add\n        /* \"#utility.yul\":22374:22404   */\n      mstore\n        /* \"#utility.yul\":22189:22411   */\n      pop\n      jump\t// out\n        /* \"#utility.yul\":22417:22638   */\n    tag_457:\n        /* \"#utility.yul\":22557:22591   */\n      0x45524332303a206275726e20616d6f756e7420657863656564732062616c616e\n        /* \"#utility.yul\":22553:22554   */\n      0x00\n        /* \"#utility.yul\":22545:22551   */\n      dup3\n        /* \"#utility.yul\":22541:22555   */\n      add\n        /* \"#utility.yul\":22534:22592   */\n      mstore\n        /* \"#utility.yul\":22626:22630   */\n      0x6365000000000000000000000000000000000000000000000000000000000000\n        /* \"#utility.yul\":22621:22623   */\n      0x20\n        /* \"#utility.yul\":22613:22619   */\n      dup3\n        /* \"#utility.yul\":22609:22624   */\n      add\n        /* \"#utility.yul\":22602:22631   */\n      mstore\n        /* \"#utility.yul\":22417:22638   */\n      pop\n      jump\t// out\n        /* \"#utility.yul\":22644:22869   */\n    tag_462:\n        /* \"#utility.yul\":22784:22818   */\n      0x4f776e61626c653a206e6577206f776e657220697320746865207a65726f2061\n        /* \"#utility.yul\":22780:22781   */\n      0x00\n        /* \"#utility.yul\":22772:22778   */\n      dup3\n        /* \"#utility.yul\":22768:22782   */\n      add\n        /* \"#utility.yul\":22761:22819   */\n      mstore\n        /* \"#utility.yul\":22853:22861   */\n      0x6464726573730000000000000000000000000000000000000000000000000000\n        /* \"#utility.yul\":22848:22850   */\n      0x20\n        /* \"#utility.yul\":22840:22846   */\n      dup3\n        /* \"#utility.yul\":22836:22851   */\n      add\n        /* \"#utility.yul\":22829:22862   */\n      mstore\n        /* \"#utility.yul\":22644:22869   */\n      pop\n      jump\t// out\n        /* \"#utility.yul\":22875:23096   */\n    tag_467:\n        /* \"#utility.yul\":23015:23049   */\n      0x45524332303a20617070726f766520746f20746865207a65726f206164647265\n        /* \"#utility.yul\":23011:23012   */\n      0x00\n        /* \"#utility.yul\":23003:23009   */\n      dup3\n        /* \"#utility.yul\":22999:23013   */\n      add\n        /* \"#utility.yul\":22992:23050   */\n      mstore\n        /* \"#utility.yul\":23084:23088   */\n      0x7373000000000000000000000000000000000000000000000000000000000000\n        /* \"#utility.yul\":23079:23081   */\n      0x20\n        /* \"#utility.yul\":23071:23077   */\n      dup3\n        /* \"#utility.yul\":23067:23082   */\n      add\n        /* \"#utility.yul\":23060:23089   */\n      mstore\n        /* \"#utility.yul\":22875:23096   */\n      pop\n      jump\t// out\n        /* \"#utility.yul\":23102:23281   */\n    tag_472:\n        /* \"#utility.yul\":23242:23273   */\n      0x45524332303a20696e73756666696369656e7420616c6c6f77616e6365000000\n        /* \"#utility.yul\":23238:23239   */\n      0x00\n        /* \"#utility.yul\":23230:23236   */\n      dup3\n        /* \"#utility.yul\":23226:23240   */\n      add\n        /* \"#utility.yul\":23219:23274   */\n      mstore\n        /* \"#utility.yul\":23102:23281   */\n      pop\n      jump\t// out\n        /* \"#utility.yul\":23287:23512   */\n    tag_477:\n        /* \"#utility.yul\":23427:23461   */\n      0x45524332303a207472616e7366657220616d6f756e7420657863656564732062\n        /* \"#utility.yul\":23423:23424   */\n      0x00\n        /* \"#utility.yul\":23415:23421   */\n      dup3\n        /* \"#utility.yul\":23411:23425   */\n      add\n        /* \"#utility.yul\":23404:23462   */\n      mstore\n        /* \"#utility.yul\":23496:23504   */\n      0x616c616e63650000000000000000000000000000000000000000000000000000\n        /* \"#utility.yul\":23491:23493   */\n      0x20\n        /* \"#utility.yul\":23483:23489   */\n      dup3\n        /* \"#utility.yul\":23479:23494   */\n      add\n        /* \"#utility.yul\":23472:23505   */\n      mstore\n        /* \"#utility.yul\":23287:23512   */\n      pop\n      jump\t// out\n        /* \"#utility.yul\":23518:23700   */\n    tag_482:\n        /* \"#utility.yul\":23658:23692   */\n      0x4f776e61626c653a2063616c6c6572206973206e6f7420746865206f776e6572\n        /* \"#utility.yul\":23654:23655   */\n      0x00\n        /* \"#utility.yul\":23646:23652   */\n      dup3\n        /* \"#utility.yul\":23642:23656   */\n      add\n        /* \"#utility.yul\":23635:23693   */\n      mstore\n        /* \"#utility.yul\":23518:23700   */\n      pop\n      jump\t// out\n        /* \"#utility.yul\":23706:23926   */\n    tag_487:\n        /* \"#utility.yul\":23846:23880   */\n      0x45524332303a206275726e2066726f6d20746865207a65726f20616464726573\n        /* \"#utility.yul\":23842:23843   */\n      0x00\n        /* \"#utility.yul\":23834:23840   */\n      dup3\n        /* \"#utility.yul\":23830:23844   */\n      add\n        /* \"#utility.yul\":23823:23881   */\n      mstore\n        /* \"#utility.yul\":23915:23918   */\n      0x7300000000000000000000000000000000000000000000000000000000000000\n        /* \"#utility.yul\":23910:23912   */\n      0x20\n        /* \"#utility.yul\":23902:23908   */\n      dup3\n        /* \"#utility.yul\":23898:23913   */\n      add\n        /* \"#utility.yul\":23891:23919   */\n      mstore\n        /* \"#utility.yul\":23706:23926   */\n      pop\n      jump\t// out\n        /* \"#utility.yul\":23932:24156   */\n    tag_492:\n        /* \"#utility.yul\":24072:24106   */\n      0x45524332303a207472616e736665722066726f6d20746865207a65726f206164\n        /* \"#utility.yul\":24068:24069   */\n      0x00\n        /* \"#utility.yul\":24060:24066   */\n      dup3\n        /* \"#utility.yul\":24056:24070   */\n      add\n        /* \"#utility.yul\":24049:24107   */\n      mstore\n        /* \"#utility.yul\":24141:24148   */\n      0x6472657373000000000000000000000000000000000000000000000000000000\n        /* \"#utility.yul\":24136:24138   */\n      0x20\n        /* \"#utility.yul\":24128:24134   */\n      dup3\n        /* \"#utility.yul\":24124:24139   */\n      add\n        /* \"#utility.yul\":24117:24149   */\n      mstore\n        /* \"#utility.yul\":23932:24156   */\n      pop\n      jump\t// out\n        /* \"#utility.yul\":24162:24385   */\n    tag_497:\n        /* \"#utility.yul\":24302:24336   */\n      0x45524332303a20617070726f76652066726f6d20746865207a65726f20616464\n        /* \"#utility.yul\":24298:24299   */\n      0x00\n        /* \"#utility.yul\":24290:24296   */\n      dup3\n        /* \"#utility.yul\":24286:24300   */\n      add\n        /* \"#utility.yul\":24279:24337   */\n      mstore\n        /* \"#utility.yul\":24371:24377   */\n      0x7265737300000000000000000000000000000000000000000000000000000000\n        /* \"#utility.yul\":24366:24368   */\n      0x20\n        /* \"#utility.yul\":24358:24364   */\n      dup3\n        /* \"#utility.yul\":24354:24369   */\n      add\n        /* \"#utility.yul\":24347:24378   */\n      mstore\n        /* \"#utility.yul\":24162:24385   */\n      pop\n      jump\t// out\n        /* \"#utility.yul\":24391:24615   */\n    tag_502:\n        /* \"#utility.yul\":24531:24565   */\n      0x45524332303a2064656372656173656420616c6c6f77616e63652062656c6f77\n        /* \"#utility.yul\":24527:24528   */\n      0x00\n        /* \"#utility.yul\":24519:24525   */\n      dup3\n        /* \"#utility.yul\":24515:24529   */\n      add\n        /* \"#utility.yul\":24508:24566   */\n      mstore\n        /* \"#utility.yul\":24600:24607   */\n      0x207a65726f000000000000000000000000000000000000000000000000000000\n        /* \"#utility.yul\":24595:24597   */\n      0x20\n        /* \"#utility.yul\":24587:24593   */\n      dup3\n        /* \"#utility.yul\":24583:24598   */\n      add\n        /* \"#utility.yul\":24576:24608   */\n      mstore\n        /* \"#utility.yul\":24391:24615   */\n      pop\n      jump\t// out\n        /* \"#utility.yul\":24621:24802   */\n    tag_507:\n        /* \"#utility.yul\":24761:24794   */\n      0x45524332303a206d696e7420746f20746865207a65726f206164647265737300\n        /* \"#utility.yul\":24757:24758   */\n      0x00\n        /* \"#utility.yul\":24749:24755   */\n      dup3\n        /* \"#utility.yul\":24745:24759   */\n      add\n        /* \"#utility.yul\":24738:24795   */\n      mstore\n        /* \"#utility.yul\":24621:24802   */\n      pop\n      jump\t// out\n        /* \"#utility.yul\":24808:24930   */\n    tag_390:\n        /* \"#utility.yul\":24881:24905   */\n      tag_653\n        /* \"#utility.yul\":24899:24904   */\n      dup2\n        /* \"#utility.yul\":24881:24905   */\n      tag_428\n      jump\t// in\n    tag_653:\n        /* \"#utility.yul\":24874:24879   */\n      dup2\n        /* \"#utility.yul\":24871:24906   */\n      eq\n        /* \"#utility.yul\":24861:24924   */\n      tag_654\n      jumpi\n        /* \"#utility.yul\":24920:24921   */\n      0x00\n        /* \"#utility.yul\":24917:24918   */\n      dup1\n        /* \"#utility.yul\":24910:24922   */\n      revert\n        /* \"#utility.yul\":24861:24924   */\n    tag_654:\n        /* \"#utility.yul\":24808:24930   */\n      pop\n      jump\t// out\n        /* \"#utility.yul\":24936:25058   */\n    tag_394:\n        /* \"#utility.yul\":25009:25033   */\n      tag_656\n        /* \"#utility.yul\":25027:25032   */\n      dup2\n        /* \"#utility.yul\":25009:25033   */\n      tag_511\n      jump\t// in\n    tag_656:\n        /* \"#utility.yul\":25002:25007   */\n      dup2\n        /* \"#utility.yul\":24999:25034   */\n      eq\n        /* \"#utility.yul\":24989:25052   */\n      tag_657\n      jumpi\n        /* \"#utility.yul\":25048:25049   */\n      0x00\n        /* \"#utility.yul\":25045:25046   */\n      dup1\n        /* \"#utility.yul\":25038:25050   */\n      revert\n        /* \"#utility.yul\":24989:25052   */\n    tag_657:\n        /* \"#utility.yul\":24936:25058   */\n      pop\n      jump\t// out\n\n    auxdata: 0xa26469706673582212209cd5b3737212bcfe0627324c4b6842aaf99417fb44f0012add1e3accaf5b041b64736f6c63430008070033\n}\n",
				"bytecode": {
					"linkReferences": {},
					"object": "60806040523480156200001157600080fd5b506040518060400160405280600a81526020017f5a656e79615374616b65000000000000000000000000000000000000000000008152506040518060400160405280600481526020017f5a4e59530000000000000000000000000000000000000000000000000000000081525081600390805190602001906200009692919062000370565b508060049080519060200190620000af92919062000370565b505050620000d2620000c66200011660201b60201c565b6200011e60201b60201c565b6200011033620000e7620001e460201b60201c565b600a620000f5919062000560565b6103e86200010491906200069d565b620001ed60201b60201c565b620007df565b600033905090565b6000600560009054906101000a900473ffffffffffffffffffffffffffffffffffffffff16905081600560006101000a81548173ffffffffffffffffffffffffffffffffffffffff021916908373ffffffffffffffffffffffffffffffffffffffff1602179055508173ffffffffffffffffffffffffffffffffffffffff168173ffffffffffffffffffffffffffffffffffffffff167f8be0079c531659141344cd1fd0a4f28419497f9722a3daafe3b4186f6b6457e060405160405180910390a35050565b60006012905090565b600073ffffffffffffffffffffffffffffffffffffffff168273ffffffffffffffffffffffffffffffffffffffff16141562000260576040517f08c379a0000000000000000000000000000000000000000000000000000000008152600401620002579062000458565b60405180910390fd5b62000274600083836200036660201b60201c565b8060026000828254620002889190620004a8565b92505081905550806000808473ffffffffffffffffffffffffffffffffffffffff1673ffffffffffffffffffffffffffffffffffffffff1681526020019081526020016000206000828254620002df9190620004a8565b925050819055508173ffffffffffffffffffffffffffffffffffffffff16600073ffffffffffffffffffffffffffffffffffffffff167fddf252ad1be2c89b69c2b068fc378daa952ba7f163c4a11628f55a4df523b3ef836040516200034691906200047a565b60405180910390a362000362600083836200036b60201b60201c565b5050565b505050565b505050565b8280546200037e9062000715565b90600052602060002090601f016020900481019282620003a25760008555620003ee565b82601f10620003bd57805160ff1916838001178555620003ee565b82800160010185558215620003ee579182015b82811115620003ed578251825591602001919060010190620003d0565b5b509050620003fd919062000401565b5090565b5b808211156200041c57600081600090555060010162000402565b5090565b60006200042f601f8362000497565b91506200043c82620007b6565b602082019050919050565b6200045281620006fe565b82525050565b60006020820190508181036000830152620004738162000420565b9050919050565b600060208201905062000491600083018462000447565b92915050565b600082825260208201905092915050565b6000620004b582620006fe565b9150620004c283620006fe565b9250827fffffffffffffffffffffffffffffffffffffffffffffffffffffffffffffffff03821115620004fa57620004f96200074b565b5b828201905092915050565b6000808291508390505b600185111562000557578086048111156200052f576200052e6200074b565b5b60018516156200053f5780820291505b80810290506200054f85620007a9565b94506200050f565b94509492505050565b60006200056d82620006fe565b91506200057a8362000708565b9250620005a97fffffffffffffffffffffffffffffffffffffffffffffffffffffffffffffffff8484620005b1565b905092915050565b600082620005c3576001905062000696565b81620005d3576000905062000696565b8160018114620005ec5760028114620005f7576200062d565b600191505062000696565b60ff8411156200060c576200060b6200074b565b5b8360020a9150848211156200062657620006256200074b565b5b5062000696565b5060208310610133831016604e8410600b8410161715620006675782820a9050838111156200066157620006606200074b565b5b62000696565b62000676848484600162000505565b9250905081840481111562000690576200068f6200074b565b5b81810290505b9392505050565b6000620006aa82620006fe565b9150620006b783620006fe565b9250817fffffffffffffffffffffffffffffffffffffffffffffffffffffffffffffffff0483118215151615620006f357620006f26200074b565b5b828202905092915050565b6000819050919050565b600060ff82169050919050565b600060028204905060018216806200072e57607f821691505b602082108114156200074557620007446200077a565b5b50919050565b7f4e487b7100000000000000000000000000000000000000000000000000000000600052601160045260246000fd5b7f4e487b7100000000000000000000000000000000000000000000000000000000600052602260045260246000fd5b60008160011c9050919050565b7f45524332303a206d696e7420746f20746865207a65726f206164647265737300600082015250565b612d7b80620007ef6000396000f3fe6080604052600436106101d85760003560e01c80637e72fb5211610102578063c885bc5811610095578063e0c6190d11610064578063e0c6190d146106c7578063e5c42fd1146106f2578063ef037b901461071b578063f2fde38b14610759576101d8565b8063c885bc581461060d578063d7fa023d14610624578063d82e39621461064d578063dd62ed3e1461068a576101d8565b8063a457c2d7116100d1578063a457c2d71461053f578063a9059cbb1461057c578063b2bdfa7b146105b9578063bcb0c2d7146105e4576101d8565b80637e72fb52146104a45780638da5cb5b146104c0578063939624ab146104eb57806395d89b4114610514576101d8565b8063313ce5671161017a5780634be21e33116101495780634be21e33146104105780636f4a2cd01461043957806370a0823114610450578063715018a61461048d576101d8565b8063313ce5671461034057806335789c8b1461036b578063395093511461039657806342623360146103d3576101d8565b80630e15561a116101b65780630e15561a1461027057806318160ddd1461029b5780631d62ebd9146102c657806323b872dd14610303576101d8565b8063046e2edb146101dd57806306fdde0314610208578063095ea7b314610233575b600080fd5b3480156101e957600080fd5b506101f2610782565b6040516101ff91906124e6565b60405180910390f35b34801561021457600080fd5b5061021d610788565b60405161022a9190612324565b60405180910390f35b34801561023f57600080fd5b5061025a60048036038101906102559190611fdc565b61081a565b60405161026791906122e0565b60405180910390f35b34801561027c57600080fd5b5061028561083d565b60405161029291906124e6565b60405180910390f35b3480156102a757600080fd5b506102b06108fb565b6040516102bd91906124e6565b60405180910390f35b3480156102d257600080fd5b506102ed60048036038101906102e89190611f1c565b610905565b6040516102fa91906124e6565b60405180910390f35b34801561030f57600080fd5b5061032a60048036038101906103259190611f89565b61094e565b60405161033791906122e0565b60405180910390f35b34801561034c57600080fd5b5061035561097d565b6040516103629190612501565b60405180910390f35b34801561037757600080fd5b50610380610986565b60405161038d91906124e6565b60405180910390f35b3480156103a257600080fd5b506103bd60048036038101906103b89190611fdc565b61098c565b6040516103ca91906122e0565b60405180910390f35b3480156103df57600080fd5b506103fa60048036038101906103f59190611f1c565b610a36565b60405161040791906124e6565b60405180910390f35b34801561041c57600080fd5b506104376004803603810190610432919061201c565b610a7f565b005b34801561044557600080fd5b5061044e610b19565b005b34801561045c57600080fd5b5061047760048036038101906104729190611f1c565b610c20565b60405161048491906124e6565b60405180910390f35b34801561049957600080fd5b506104a2610c68565b005b6104be60048036038101906104b99190611f1c565b610cf0565b005b3480156104cc57600080fd5b506104d5610d55565b6040516104e291906122c5565b60405180910390f35b3480156104f757600080fd5b50610512600480360381019061050d919061201c565b610d7f565b005b34801561052057600080fd5b50610529610e6c565b6040516105369190612324565b60405180910390f35b34801561054b57600080fd5b5061056660048036038101906105619190611fdc565b610efe565b60405161057391906122e0565b60405180910390f35b34801561058857600080fd5b506105a3600480360381019061059e9190611fdc565b610fe8565b6040516105b091906122e0565b60405180910390f35b3480156105c557600080fd5b506105ce61100b565b6040516105db91906122c5565b60405180910390f35b3480156105f057600080fd5b5061060b60048036038101906106069190611f1c565b611031565b005b34801561061957600080fd5b50610622611140565b005b34801561063057600080fd5b5061064b60048036038101906106469190612049565b6111d6565b005b34801561065957600080fd5b50610674600480360381019061066f9190611f1c565b6112e4565b60405161068191906124e6565b60405180910390f35b34801561069657600080fd5b506106b160048036038101906106ac9190611f49565b611339565b6040516106be91906124e6565b60405180910390f35b3480156106d357600080fd5b506106dc6113c0565b6040516106e991906122e0565b60405180910390f35b3480156106fe57600080fd5b5061071960048036038101906107149190611f1c565b6113e4565b005b34801561072757600080fd5b50610742600480360381019061073d9190611f1c565b61145f565b6040516107509291906122fb565b60405180910390f35b34801561076557600080fd5b50610780600480360381019061077b9190611f1c565b611513565b005b60085481565b60606003805461079790612846565b80601f01602080910402602001604051908101604052809291908181526020018280546107c390612846565b80156108105780601f106107e557610100808354040283529160200191610810565b820191906000526020600020905b8154815290600101906020018083116107f357829003601f168201915b5050505050905090565b60008061082561160b565b9050610832818585611613565b600191505092915050565b6000806000905060005b600a805490508110156108f357600b6000600a838154811061086c5761086b612934565b5b9060005260206000200160009054906101000a900473ffffffffffffffffffffffffffffffffffffffff1673ffffffffffffffffffffffffffffffffffffffff1673ffffffffffffffffffffffffffffffffffffffff16815260200190815260200160002054826108dd9190612538565b91506001816108ec9190612538565b9050610847565b508091505090565b6000600254905090565b6000600b60008373ffffffffffffffffffffffffffffffffffffffff1673ffffffffffffffffffffffffffffffffffffffff168152602001908152602001600020549050919050565b60008061095961160b565b90506109668582856117de565b61097185858561186a565b60019150509392505050565b60006012905090565b60075481565b60008061099761160b565b9050610a2b818585600160008673ffffffffffffffffffffffffffffffffffffffff1673ffffffffffffffffffffffffffffffffffffffff16815260200190815260200160002060008973ffffffffffffffffffffffffffffffffffffffff1673ffffffffffffffffffffffffffffffffffffffff16815260200190815260200160002054610a269190612538565b611613565b600191505092915050565b6000600960008373ffffffffffffffffffffffffffffffffffffffff1673ffffffffffffffffffffffffffffffffffffffff168152602001908152602001600020549050919050565b600660009054906101000a900473ffffffffffffffffffffffffffffffffffffffff1673ffffffffffffffffffffffffffffffffffffffff163373ffffffffffffffffffffffffffffffffffffffff1614610b0f576040517f08c379a0000000000000000000000000000000000000000000000000000000008152600401610b0690612346565b60405180910390fd5b8060078190555050565b60005b600a80549050811015610c1d576000600a8281548110610b3f57610b3e612934565b5b9060005260206000200160009054906101000a900473ffffffffffffffffffffffffffffffffffffffff1690506000610b77826112e4565b905080600b60008473ffffffffffffffffffffffffffffffffffffffff1673ffffffffffffffffffffffffffffffffffffffff16815260200190815260200160002054610bc49190612538565b600b60008473ffffffffffffffffffffffffffffffffffffffff1673ffffffffffffffffffffffffffffffffffffffff168152602001908152602001600020819055505050600181610c169190612538565b9050610b1c565b50565b60008060008373ffffffffffffffffffffffffffffffffffffffff1673ffffffffffffffffffffffffffffffffffffffff168152602001908152602001600020549050919050565b610c7061160b565b73ffffffffffffffffffffffffffffffffffffffff16610c8e610d55565b73ffffffffffffffffffffffffffffffffffffffff1614610ce4576040517f08c379a0000000000000000000000000000000000000000000000000000000008152600401610cdb90612426565b60405180910390fd5b610cee6000611aeb565b565b610cf861097d565b600a610d049190612612565b600754610d119190612730565b6008819055506000610d2161097d565b600a610d2d9190612612565b60085434610d3b9190612730565b610d45919061258e565b9050610d518282611bb1565b5050565b6000600560009054906101000a900473ffffffffffffffffffffffffffffffffffffffff16905090565b80600960003373ffffffffffffffffffffffffffffffffffffffff1673ffffffffffffffffffffffffffffffffffffffff16815260200190815260200160002054610dca919061278a565b600960003373ffffffffffffffffffffffffffffffffffffffff1673ffffffffffffffffffffffffffffffffffffffff168152602001908152602001600020819055506000600960003373ffffffffffffffffffffffffffffffffffffffff1673ffffffffffffffffffffffffffffffffffffffff168152602001908152602001600020541415610e5f57610e5e33611031565b5b610e693382611bb1565b50565b606060048054610e7b90612846565b80601f0160208091040260200160405190810160405280929190818152602001828054610ea790612846565b8015610ef45780601f10610ec957610100808354040283529160200191610ef4565b820191906000526020600020905b815481529060010190602001808311610ed757829003601f168201915b5050505050905090565b600080610f0961160b565b90506000600160008373ffffffffffffffffffffffffffffffffffffffff1673ffffffffffffffffffffffffffffffffffffffff16815260200190815260200160002060008673ffffffffffffffffffffffffffffffffffffffff1673ffffffffffffffffffffffffffffffffffffffff16815260200190815260200160002054905083811015610fcf576040517f08c379a0000000000000000000000000000000000000000000000000000000008152600401610fc6906124a6565b60405180910390fd5b610fdc8286868403611613565b60019250505092915050565b600080610ff361160b565b905061100081858561186a565b600191505092915050565b600660009054906101000a900473ffffffffffffffffffffffffffffffffffffffff1681565b60008061103d8361145f565b91509150811561113b57600a6001600a8054905061105b919061278a565b8154811061106c5761106b612934565b5b9060005260206000200160009054906101000a900473ffffffffffffffffffffffffffffffffffffffff16600a82815481106110ab576110aa612934565b5b9060005260206000200160006101000a81548173ffffffffffffffffffffffffffffffffffffffff021916908373ffffffffffffffffffffffffffffffffffffffff160217905550600a80548061110557611104612905565b5b6001900381819060005260206000200160006101000a81549073ffffffffffffffffffffffffffffffffffffffff021916905590555b505050565b6000600b60003373ffffffffffffffffffffffffffffffffffffffff1673ffffffffffffffffffffffffffffffffffffffff1681526020019081526020016000205490506000600b60003373ffffffffffffffffffffffffffffffffffffffff1673ffffffffffffffffffffffffffffffffffffffff168152602001908152602001600020819055506111d33382611bb1565b50565b6111e03383611d11565b6000600960003373ffffffffffffffffffffffffffffffffffffffff1673ffffffffffffffffffffffffffffffffffffffff16815260200190815260200160002054141561123257611231336113e4565b5b81600960003373ffffffffffffffffffffffffffffffffffffffff1673ffffffffffffffffffffffffffffffffffffffff1681526020019081526020016000205461127d9190612538565b600960003373ffffffffffffffffffffffffffffffffffffffff1673ffffffffffffffffffffffffffffffffffffffff1681526020019081526020016000208190555062015180816112cf9190612730565b426112da9190612538565b600c819055505050565b60006064600960008473ffffffffffffffffffffffffffffffffffffffff1673ffffffffffffffffffffffffffffffffffffffff16815260200190815260200160002054611332919061258e565b9050919050565b6000600160008473ffffffffffffffffffffffffffffffffffffffff1673ffffffffffffffffffffffffffffffffffffffff16815260200190815260200160002060008373ffffffffffffffffffffffffffffffffffffffff1673ffffffffffffffffffffffffffffffffffffffff16815260200190815260200160002054905092915050565b60008062093a8090506000429050600082826113dc9190612538565b905050505090565b60006113ef8261145f565b5090508061145b57600a829080600181540180825580915050600190039060005260206000200160009091909190916101000a81548173ffffffffffffffffffffffffffffffffffffffff021916908373ffffffffffffffffffffffffffffffffffffffff1602179055505b5050565b60008060005b600a8054905081101561150557600a818154811061148657611485612934565b5b9060005260206000200160009054906101000a900473ffffffffffffffffffffffffffffffffffffffff1673ffffffffffffffffffffffffffffffffffffffff168473ffffffffffffffffffffffffffffffffffffffff1614156114f157600181925092505061150e565b6001816114fe9190612538565b9050611465565b50600080915091505b915091565b61151b61160b565b73ffffffffffffffffffffffffffffffffffffffff16611539610d55565b73ffffffffffffffffffffffffffffffffffffffff161461158f576040517f08c379a000000000000000000000000000000000000000000000000000000000815260040161158690612426565b60405180910390fd5b600073ffffffffffffffffffffffffffffffffffffffff168173ffffffffffffffffffffffffffffffffffffffff1614156115ff576040517f08c379a00000000000000000000000000000000000000000000000000000000081526004016115f6906123a6565b60405180910390fd5b61160881611aeb565b50565b600033905090565b600073ffffffffffffffffffffffffffffffffffffffff168373ffffffffffffffffffffffffffffffffffffffff161415611683576040517f08c379a000000000000000000000000000000000000000000000000000000000815260040161167a90612486565b60405180910390fd5b600073ffffffffffffffffffffffffffffffffffffffff168273ffffffffffffffffffffffffffffffffffffffff1614156116f3576040517f08c379a00000000000000000000000000000000000000000000000000000000081526004016116ea906123c6565b60405180910390fd5b80600160008573ffffffffffffffffffffffffffffffffffffffff1673ffffffffffffffffffffffffffffffffffffffff16815260200190815260200160002060008473ffffffffffffffffffffffffffffffffffffffff1673ffffffffffffffffffffffffffffffffffffffff168152602001908152602001600020819055508173ffffffffffffffffffffffffffffffffffffffff168373ffffffffffffffffffffffffffffffffffffffff167f8c5be1e5ebec7d5bd14f71427d1e84f3dd0314c0f7b2291e5b200ac8c7c3b925836040516117d191906124e6565b60405180910390a3505050565b60006117ea8484611339565b90507fffffffffffffffffffffffffffffffffffffffffffffffffffffffffffffffff81146118645781811015611856576040517f08c379a000000000000000000000000000000000000000000000000000000000815260040161184d906123e6565b60405180910390fd5b6118638484848403611613565b5b50505050565b600073ffffffffffffffffffffffffffffffffffffffff168373ffffffffffffffffffffffffffffffffffffffff1614156118da576040517f08c379a00000000000000000000000000000000000000000000000000000000081526004016118d190612466565b60405180910390fd5b600073ffffffffffffffffffffffffffffffffffffffff168273ffffffffffffffffffffffffffffffffffffffff16141561194a576040517f08c379a000000000000000000000000000000000000000000000000000000000815260040161194190612366565b60405180910390fd5b611955838383611ee8565b60008060008573ffffffffffffffffffffffffffffffffffffffff1673ffffffffffffffffffffffffffffffffffffffff168152602001908152602001600020549050818110156119db576040517f08c379a00000000000000000000000000000000000000000000000000000000081526004016119d290612406565b60405180910390fd5b8181036000808673ffffffffffffffffffffffffffffffffffffffff1673ffffffffffffffffffffffffffffffffffffffff16815260200190815260200160002081905550816000808573ffffffffffffffffffffffffffffffffffffffff1673ffffffffffffffffffffffffffffffffffffffff1681526020019081526020016000206000828254611a6e9190612538565b925050819055508273ffffffffffffffffffffffffffffffffffffffff168473ffffffffffffffffffffffffffffffffffffffff167fddf252ad1be2c89b69c2b068fc378daa952ba7f163c4a11628f55a4df523b3ef84604051611ad291906124e6565b60405180910390a3611ae5848484611eed565b50505050565b6000600560009054906101000a900473ffffffffffffffffffffffffffffffffffffffff16905081600560006101000a81548173ffffffffffffffffffffffffffffffffffffffff021916908373ffffffffffffffffffffffffffffffffffffffff1602179055508173ffffffffffffffffffffffffffffffffffffffff168173ffffffffffffffffffffffffffffffffffffffff167f8be0079c531659141344cd1fd0a4f28419497f9722a3daafe3b4186f6b6457e060405160405180910390a35050565b600073ffffffffffffffffffffffffffffffffffffffff168273ffffffffffffffffffffffffffffffffffffffff161415611c21576040517f08c379a0000000000000000000000000000000000000000000000000000000008152600401611c18906124c6565b60405180910390fd5b611c2d60008383611ee8565b8060026000828254611c3f9190612538565b92505081905550806000808473ffffffffffffffffffffffffffffffffffffffff1673ffffffffffffffffffffffffffffffffffffffff1681526020019081526020016000206000828254611c949190612538565b925050819055508173ffffffffffffffffffffffffffffffffffffffff16600073ffffffffffffffffffffffffffffffffffffffff167fddf252ad1be2c89b69c2b068fc378daa952ba7f163c4a11628f55a4df523b3ef83604051611cf991906124e6565b60405180910390a3611d0d60008383611eed565b5050565b600073ffffffffffffffffffffffffffffffffffffffff168273ffffffffffffffffffffffffffffffffffffffff161415611d81576040517f08c379a0000000000000000000000000000000000000000000000000000000008152600401611d7890612446565b60405180910390fd5b611d8d82600083611ee8565b60008060008473ffffffffffffffffffffffffffffffffffffffff1673ffffffffffffffffffffffffffffffffffffffff16815260200190815260200160002054905081811015611e13576040517f08c379a0000000000000000000000000000000000000000000000000000000008152600401611e0a90612386565b60405180910390fd5b8181036000808573ffffffffffffffffffffffffffffffffffffffff1673ffffffffffffffffffffffffffffffffffffffff168152602001908152602001600020819055508160026000828254611e6a919061278a565b92505081905550600073ffffffffffffffffffffffffffffffffffffffff168373ffffffffffffffffffffffffffffffffffffffff167fddf252ad1be2c89b69c2b068fc378daa952ba7f163c4a11628f55a4df523b3ef84604051611ecf91906124e6565b60405180910390a3611ee383600084611eed565b505050565b505050565b505050565b600081359050611f0181612d17565b92915050565b600081359050611f1681612d2e565b92915050565b600060208284031215611f3257611f31612963565b5b6000611f4084828501611ef2565b91505092915050565b60008060408385031215611f6057611f5f612963565b5b6000611f6e85828601611ef2565b9250506020611f7f85828601611ef2565b9150509250929050565b600080600060608486031215611fa257611fa1612963565b5b6000611fb086828701611ef2565b9350506020611fc186828701611ef2565b9250506040611fd286828701611f07565b9150509250925092565b60008060408385031215611ff357611ff2612963565b5b600061200185828601611ef2565b925050602061201285828601611f07565b9150509250929050565b60006020828403121561203257612031612963565b5b600061204084828501611f07565b91505092915050565b600080604083850312156120605761205f612963565b5b600061206e85828601611f07565b925050602061207f85828601611f07565b9150509250929050565b612092816127be565b82525050565b6120a1816127d0565b82525050565b60006120b28261251c565b6120bc8185612527565b93506120cc818560208601612813565b6120d581612968565b840191505092915050565b60006120ed602d83612527565b91506120f882612986565b604082019050919050565b6000612110602383612527565b915061211b826129d5565b604082019050919050565b6000612133602283612527565b915061213e82612a24565b604082019050919050565b6000612156602683612527565b915061216182612a73565b604082019050919050565b6000612179602283612527565b915061218482612ac2565b604082019050919050565b600061219c601d83612527565b91506121a782612b11565b602082019050919050565b60006121bf602683612527565b91506121ca82612b3a565b604082019050919050565b60006121e2602083612527565b91506121ed82612b89565b602082019050919050565b6000612205602183612527565b915061221082612bb2565b604082019050919050565b6000612228602583612527565b915061223382612c01565b604082019050919050565b600061224b602483612527565b915061225682612c50565b604082019050919050565b600061226e602583612527565b915061227982612c9f565b604082019050919050565b6000612291601f83612527565b915061229c82612cee565b602082019050919050565b6122b0816127fc565b82525050565b6122bf81612806565b82525050565b60006020820190506122da6000830184612089565b92915050565b60006020820190506122f56000830184612098565b92915050565b60006040820190506123106000830185612098565b61231d60208301846122a7565b9392505050565b6000602082019050818103600083015261233e81846120a7565b905092915050565b6000602082019050818103600083015261235f816120e0565b9050919050565b6000602082019050818103600083015261237f81612103565b9050919050565b6000602082019050818103600083015261239f81612126565b9050919050565b600060208201905081810360008301526123bf81612149565b9050919050565b600060208201905081810360008301526123df8161216c565b9050919050565b600060208201905081810360008301526123ff8161218f565b9050919050565b6000602082019050818103600083015261241f816121b2565b9050919050565b6000602082019050818103600083015261243f816121d5565b9050919050565b6000602082019050818103600083015261245f816121f8565b9050919050565b6000602082019050818103600083015261247f8161221b565b9050919050565b6000602082019050818103600083015261249f8161223e565b9050919050565b600060208201905081810360008301526124bf81612261565b9050919050565b600060208201905081810360008301526124df81612284565b9050919050565b60006020820190506124fb60008301846122a7565b92915050565b600060208201905061251660008301846122b6565b92915050565b600081519050919050565b600082825260208201905092915050565b6000612543826127fc565b915061254e836127fc565b9250827fffffffffffffffffffffffffffffffffffffffffffffffffffffffffffffffff0382111561258357612582612878565b5b828201905092915050565b6000612599826127fc565b91506125a4836127fc565b9250826125b4576125b36128a7565b5b828204905092915050565b6000808291508390505b6001851115612609578086048111156125e5576125e4612878565b5b60018516156125f45780820291505b808102905061260285612979565b94506125c9565b94509492505050565b600061261d826127fc565b915061262883612806565b92506126557fffffffffffffffffffffffffffffffffffffffffffffffffffffffffffffffff848461265d565b905092915050565b60008261266d5760019050612729565b8161267b5760009050612729565b8160018114612691576002811461269b576126ca565b6001915050612729565b60ff8411156126ad576126ac612878565b5b8360020a9150848211156126c4576126c3612878565b5b50612729565b5060208310610133831016604e8410600b84101617156126ff5782820a9050838111156126fa576126f9612878565b5b612729565b61270c84848460016125bf565b9250905081840481111561272357612722612878565b5b81810290505b9392505050565b600061273b826127fc565b9150612746836127fc565b9250817fffffffffffffffffffffffffffffffffffffffffffffffffffffffffffffffff048311821515161561277f5761277e612878565b5b828202905092915050565b6000612795826127fc565b91506127a0836127fc565b9250828210156127b3576127b2612878565b5b828203905092915050565b60006127c9826127dc565b9050919050565b60008115159050919050565b600073ffffffffffffffffffffffffffffffffffffffff82169050919050565b6000819050919050565b600060ff82169050919050565b60005b83811015612831578082015181840152602081019050612816565b83811115612840576000848401525b50505050565b6000600282049050600182168061285e57607f821691505b60208210811415612872576128716128d6565b5b50919050565b7f4e487b7100000000000000000000000000000000000000000000000000000000600052601160045260246000fd5b7f4e487b7100000000000000000000000000000000000000000000000000000000600052601260045260246000fd5b7f4e487b7100000000000000000000000000000000000000000000000000000000600052602260045260246000fd5b7f4e487b7100000000000000000000000000000000000000000000000000000000600052603160045260246000fd5b7f4e487b7100000000000000000000000000000000000000000000000000000000600052603260045260246000fd5b600080fd5b6000601f19601f8301169050919050565b60008160011c9050919050565b7f4f6e6c7920746865204f776e65722063616e207365742074686520707269636560008201527f206f662074686520746f6b656e00000000000000000000000000000000000000602082015250565b7f45524332303a207472616e7366657220746f20746865207a65726f206164647260008201527f6573730000000000000000000000000000000000000000000000000000000000602082015250565b7f45524332303a206275726e20616d6f756e7420657863656564732062616c616e60008201527f6365000000000000000000000000000000000000000000000000000000000000602082015250565b7f4f776e61626c653a206e6577206f776e657220697320746865207a65726f206160008201527f6464726573730000000000000000000000000000000000000000000000000000602082015250565b7f45524332303a20617070726f766520746f20746865207a65726f20616464726560008201527f7373000000000000000000000000000000000000000000000000000000000000602082015250565b7f45524332303a20696e73756666696369656e7420616c6c6f77616e6365000000600082015250565b7f45524332303a207472616e7366657220616d6f756e742065786365656473206260008201527f616c616e63650000000000000000000000000000000000000000000000000000602082015250565b7f4f776e61626c653a2063616c6c6572206973206e6f7420746865206f776e6572600082015250565b7f45524332303a206275726e2066726f6d20746865207a65726f2061646472657360008201527f7300000000000000000000000000000000000000000000000000000000000000602082015250565b7f45524332303a207472616e736665722066726f6d20746865207a65726f20616460008201527f6472657373000000000000000000000000000000000000000000000000000000602082015250565b7f45524332303a20617070726f76652066726f6d20746865207a65726f2061646460008201527f7265737300000000000000000000000000000000000000000000000000000000602082015250565b7f45524332303a2064656372656173656420616c6c6f77616e63652062656c6f7760008201527f207a65726f000000000000000000000000000000000000000000000000000000602082015250565b7f45524332303a206d696e7420746f20746865207a65726f206164647265737300600082015250565b612d20816127be565b8114612d2b57600080fd5b50565b612d37816127fc565b8114612d4257600080fd5b5056fea26469706673582212209cd5b3737212bcfe0627324c4b6842aaf99417fb44f0012add1e3accaf5b041b64736f6c63430008070033",
					"opcodes": "PUSH1 0x80 PUSH1 0x40 MSTORE CALLVALUE DUP1 ISZERO PUSH3 0x11 JUMPI PUSH1 0x0 DUP1 REVERT JUMPDEST POP PUSH1 0x40 MLOAD DUP1 PUSH1 0x40 ADD PUSH1 0x40 MSTORE DUP1 PUSH1 0xA DUP2 MSTORE PUSH1 0x20 ADD PUSH32 0x5A656E79615374616B6500000000000000000000000000000000000000000000 DUP2 MSTORE POP PUSH1 0x40 MLOAD DUP1 PUSH1 0x40 ADD PUSH1 0x40 MSTORE DUP1 PUSH1 0x4 DUP2 MSTORE PUSH1 0x20 ADD PUSH32 0x5A4E595300000000000000000000000000000000000000000000000000000000 DUP2 MSTORE POP DUP2 PUSH1 0x3 SWAP1 DUP1 MLOAD SWAP1 PUSH1 0x20 ADD SWAP1 PUSH3 0x96 SWAP3 SWAP2 SWAP1 PUSH3 0x370 JUMP JUMPDEST POP DUP1 PUSH1 0x4 SWAP1 DUP1 MLOAD SWAP1 PUSH1 0x20 ADD SWAP1 PUSH3 0xAF SWAP3 SWAP2 SWAP1 PUSH3 0x370 JUMP JUMPDEST POP POP POP PUSH3 0xD2 PUSH3 0xC6 PUSH3 0x116 PUSH1 0x20 SHL PUSH1 0x20 SHR JUMP JUMPDEST PUSH3 0x11E PUSH1 0x20 SHL PUSH1 0x20 SHR JUMP JUMPDEST PUSH3 0x110 CALLER PUSH3 0xE7 PUSH3 0x1E4 PUSH1 0x20 SHL PUSH1 0x20 SHR JUMP JUMPDEST PUSH1 0xA PUSH3 0xF5 SWAP2 SWAP1 PUSH3 0x560 JUMP JUMPDEST PUSH2 0x3E8 PUSH3 0x104 SWAP2 SWAP1 PUSH3 0x69D JUMP JUMPDEST PUSH3 0x1ED PUSH1 0x20 SHL PUSH1 0x20 SHR JUMP JUMPDEST PUSH3 0x7DF JUMP JUMPDEST PUSH1 0x0 CALLER SWAP1 POP SWAP1 JUMP JUMPDEST PUSH1 0x0 PUSH1 0x5 PUSH1 0x0 SWAP1 SLOAD SWAP1 PUSH2 0x100 EXP SWAP1 DIV PUSH20 0xFFFFFFFFFFFFFFFFFFFFFFFFFFFFFFFFFFFFFFFF AND SWAP1 POP DUP2 PUSH1 0x5 PUSH1 0x0 PUSH2 0x100 EXP DUP2 SLOAD DUP2 PUSH20 0xFFFFFFFFFFFFFFFFFFFFFFFFFFFFFFFFFFFFFFFF MUL NOT AND SWAP1 DUP4 PUSH20 0xFFFFFFFFFFFFFFFFFFFFFFFFFFFFFFFFFFFFFFFF AND MUL OR SWAP1 SSTORE POP DUP2 PUSH20 0xFFFFFFFFFFFFFFFFFFFFFFFFFFFFFFFFFFFFFFFF AND DUP2 PUSH20 0xFFFFFFFFFFFFFFFFFFFFFFFFFFFFFFFFFFFFFFFF AND PUSH32 0x8BE0079C531659141344CD1FD0A4F28419497F9722A3DAAFE3B4186F6B6457E0 PUSH1 0x40 MLOAD PUSH1 0x40 MLOAD DUP1 SWAP2 SUB SWAP1 LOG3 POP POP JUMP JUMPDEST PUSH1 0x0 PUSH1 0x12 SWAP1 POP SWAP1 JUMP JUMPDEST PUSH1 0x0 PUSH20 0xFFFFFFFFFFFFFFFFFFFFFFFFFFFFFFFFFFFFFFFF AND DUP3 PUSH20 0xFFFFFFFFFFFFFFFFFFFFFFFFFFFFFFFFFFFFFFFF AND EQ ISZERO PUSH3 0x260 JUMPI PUSH1 0x40 MLOAD PUSH32 0x8C379A000000000000000000000000000000000000000000000000000000000 DUP2 MSTORE PUSH1 0x4 ADD PUSH3 0x257 SWAP1 PUSH3 0x458 JUMP JUMPDEST PUSH1 0x40 MLOAD DUP1 SWAP2 SUB SWAP1 REVERT JUMPDEST PUSH3 0x274 PUSH1 0x0 DUP4 DUP4 PUSH3 0x366 PUSH1 0x20 SHL PUSH1 0x20 SHR JUMP JUMPDEST DUP1 PUSH1 0x2 PUSH1 0x0 DUP3 DUP3 SLOAD PUSH3 0x288 SWAP2 SWAP1 PUSH3 0x4A8 JUMP JUMPDEST SWAP3 POP POP DUP2 SWAP1 SSTORE POP DUP1 PUSH1 0x0 DUP1 DUP5 PUSH20 0xFFFFFFFFFFFFFFFFFFFFFFFFFFFFFFFFFFFFFFFF AND PUSH20 0xFFFFFFFFFFFFFFFFFFFFFFFFFFFFFFFFFFFFFFFF AND DUP2 MSTORE PUSH1 0x20 ADD SWAP1 DUP2 MSTORE PUSH1 0x20 ADD PUSH1 0x0 KECCAK256 PUSH1 0x0 DUP3 DUP3 SLOAD PUSH3 0x2DF SWAP2 SWAP1 PUSH3 0x4A8 JUMP JUMPDEST SWAP3 POP POP DUP2 SWAP1 SSTORE POP DUP2 PUSH20 0xFFFFFFFFFFFFFFFFFFFFFFFFFFFFFFFFFFFFFFFF AND PUSH1 0x0 PUSH20 0xFFFFFFFFFFFFFFFFFFFFFFFFFFFFFFFFFFFFFFFF AND PUSH32 0xDDF252AD1BE2C89B69C2B068FC378DAA952BA7F163C4A11628F55A4DF523B3EF DUP4 PUSH1 0x40 MLOAD PUSH3 0x346 SWAP2 SWAP1 PUSH3 0x47A JUMP JUMPDEST PUSH1 0x40 MLOAD DUP1 SWAP2 SUB SWAP1 LOG3 PUSH3 0x362 PUSH1 0x0 DUP4 DUP4 PUSH3 0x36B PUSH1 0x20 SHL PUSH1 0x20 SHR JUMP JUMPDEST POP POP JUMP JUMPDEST POP POP POP JUMP JUMPDEST POP POP POP JUMP JUMPDEST DUP3 DUP1 SLOAD PUSH3 0x37E SWAP1 PUSH3 0x715 JUMP JUMPDEST SWAP1 PUSH1 0x0 MSTORE PUSH1 0x20 PUSH1 0x0 KECCAK256 SWAP1 PUSH1 0x1F ADD PUSH1 0x20 SWAP1 DIV DUP2 ADD SWAP3 DUP3 PUSH3 0x3A2 JUMPI PUSH1 0x0 DUP6 SSTORE PUSH3 0x3EE JUMP JUMPDEST DUP3 PUSH1 0x1F LT PUSH3 0x3BD JUMPI DUP1 MLOAD PUSH1 0xFF NOT AND DUP4 DUP1 ADD OR DUP6 SSTORE PUSH3 0x3EE JUMP JUMPDEST DUP3 DUP1 ADD PUSH1 0x1 ADD DUP6 SSTORE DUP3 ISZERO PUSH3 0x3EE JUMPI SWAP2 DUP3 ADD JUMPDEST DUP3 DUP2 GT ISZERO PUSH3 0x3ED JUMPI DUP3 MLOAD DUP3 SSTORE SWAP2 PUSH1 0x20 ADD SWAP2 SWAP1 PUSH1 0x1 ADD SWAP1 PUSH3 0x3D0 JUMP JUMPDEST JUMPDEST POP SWAP1 POP PUSH3 0x3FD SWAP2 SWAP1 PUSH3 0x401 JUMP JUMPDEST POP SWAP1 JUMP JUMPDEST JUMPDEST DUP1 DUP3 GT ISZERO PUSH3 0x41C JUMPI PUSH1 0x0 DUP2 PUSH1 0x0 SWAP1 SSTORE POP PUSH1 0x1 ADD PUSH3 0x402 JUMP JUMPDEST POP SWAP1 JUMP JUMPDEST PUSH1 0x0 PUSH3 0x42F PUSH1 0x1F DUP4 PUSH3 0x497 JUMP JUMPDEST SWAP2 POP PUSH3 0x43C DUP3 PUSH3 0x7B6 JUMP JUMPDEST PUSH1 0x20 DUP3 ADD SWAP1 POP SWAP2 SWAP1 POP JUMP JUMPDEST PUSH3 0x452 DUP2 PUSH3 0x6FE JUMP JUMPDEST DUP3 MSTORE POP POP JUMP JUMPDEST PUSH1 0x0 PUSH1 0x20 DUP3 ADD SWAP1 POP DUP2 DUP2 SUB PUSH1 0x0 DUP4 ADD MSTORE PUSH3 0x473 DUP2 PUSH3 0x420 JUMP JUMPDEST SWAP1 POP SWAP2 SWAP1 POP JUMP JUMPDEST PUSH1 0x0 PUSH1 0x20 DUP3 ADD SWAP1 POP PUSH3 0x491 PUSH1 0x0 DUP4 ADD DUP5 PUSH3 0x447 JUMP JUMPDEST SWAP3 SWAP2 POP POP JUMP JUMPDEST PUSH1 0x0 DUP3 DUP3 MSTORE PUSH1 0x20 DUP3 ADD SWAP1 POP SWAP3 SWAP2 POP POP JUMP JUMPDEST PUSH1 0x0 PUSH3 0x4B5 DUP3 PUSH3 0x6FE JUMP JUMPDEST SWAP2 POP PUSH3 0x4C2 DUP4 PUSH3 0x6FE JUMP JUMPDEST SWAP3 POP DUP3 PUSH32 0xFFFFFFFFFFFFFFFFFFFFFFFFFFFFFFFFFFFFFFFFFFFFFFFFFFFFFFFFFFFFFFFF SUB DUP3 GT ISZERO PUSH3 0x4FA JUMPI PUSH3 0x4F9 PUSH3 0x74B JUMP JUMPDEST JUMPDEST DUP3 DUP3 ADD SWAP1 POP SWAP3 SWAP2 POP POP JUMP JUMPDEST PUSH1 0x0 DUP1 DUP3 SWAP2 POP DUP4 SWAP1 POP JUMPDEST PUSH1 0x1 DUP6 GT ISZERO PUSH3 0x557 JUMPI DUP1 DUP7 DIV DUP2 GT ISZERO PUSH3 0x52F JUMPI PUSH3 0x52E PUSH3 0x74B JUMP JUMPDEST JUMPDEST PUSH1 0x1 DUP6 AND ISZERO PUSH3 0x53F JUMPI DUP1 DUP3 MUL SWAP2 POP JUMPDEST DUP1 DUP2 MUL SWAP1 POP PUSH3 0x54F DUP6 PUSH3 0x7A9 JUMP JUMPDEST SWAP5 POP PUSH3 0x50F JUMP JUMPDEST SWAP5 POP SWAP5 SWAP3 POP POP POP JUMP JUMPDEST PUSH1 0x0 PUSH3 0x56D DUP3 PUSH3 0x6FE JUMP JUMPDEST SWAP2 POP PUSH3 0x57A DUP4 PUSH3 0x708 JUMP JUMPDEST SWAP3 POP PUSH3 0x5A9 PUSH32 0xFFFFFFFFFFFFFFFFFFFFFFFFFFFFFFFFFFFFFFFFFFFFFFFFFFFFFFFFFFFFFFFF DUP5 DUP5 PUSH3 0x5B1 JUMP JUMPDEST SWAP1 POP SWAP3 SWAP2 POP POP JUMP JUMPDEST PUSH1 0x0 DUP3 PUSH3 0x5C3 JUMPI PUSH1 0x1 SWAP1 POP PUSH3 0x696 JUMP JUMPDEST DUP2 PUSH3 0x5D3 JUMPI PUSH1 0x0 SWAP1 POP PUSH3 0x696 JUMP JUMPDEST DUP2 PUSH1 0x1 DUP2 EQ PUSH3 0x5EC JUMPI PUSH1 0x2 DUP2 EQ PUSH3 0x5F7 JUMPI PUSH3 0x62D JUMP JUMPDEST PUSH1 0x1 SWAP2 POP POP PUSH3 0x696 JUMP JUMPDEST PUSH1 0xFF DUP5 GT ISZERO PUSH3 0x60C JUMPI PUSH3 0x60B PUSH3 0x74B JUMP JUMPDEST JUMPDEST DUP4 PUSH1 0x2 EXP SWAP2 POP DUP5 DUP3 GT ISZERO PUSH3 0x626 JUMPI PUSH3 0x625 PUSH3 0x74B JUMP JUMPDEST JUMPDEST POP PUSH3 0x696 JUMP JUMPDEST POP PUSH1 0x20 DUP4 LT PUSH2 0x133 DUP4 LT AND PUSH1 0x4E DUP5 LT PUSH1 0xB DUP5 LT AND OR ISZERO PUSH3 0x667 JUMPI DUP3 DUP3 EXP SWAP1 POP DUP4 DUP2 GT ISZERO PUSH3 0x661 JUMPI PUSH3 0x660 PUSH3 0x74B JUMP JUMPDEST JUMPDEST PUSH3 0x696 JUMP JUMPDEST PUSH3 0x676 DUP5 DUP5 DUP5 PUSH1 0x1 PUSH3 0x505 JUMP JUMPDEST SWAP3 POP SWAP1 POP DUP2 DUP5 DIV DUP2 GT ISZERO PUSH3 0x690 JUMPI PUSH3 0x68F PUSH3 0x74B JUMP JUMPDEST JUMPDEST DUP2 DUP2 MUL SWAP1 POP JUMPDEST SWAP4 SWAP3 POP POP POP JUMP JUMPDEST PUSH1 0x0 PUSH3 0x6AA DUP3 PUSH3 0x6FE JUMP JUMPDEST SWAP2 POP PUSH3 0x6B7 DUP4 PUSH3 0x6FE JUMP JUMPDEST SWAP3 POP DUP2 PUSH32 0xFFFFFFFFFFFFFFFFFFFFFFFFFFFFFFFFFFFFFFFFFFFFFFFFFFFFFFFFFFFFFFFF DIV DUP4 GT DUP3 ISZERO ISZERO AND ISZERO PUSH3 0x6F3 JUMPI PUSH3 0x6F2 PUSH3 0x74B JUMP JUMPDEST JUMPDEST DUP3 DUP3 MUL SWAP1 POP SWAP3 SWAP2 POP POP JUMP JUMPDEST PUSH1 0x0 DUP2 SWAP1 POP SWAP2 SWAP1 POP JUMP JUMPDEST PUSH1 0x0 PUSH1 0xFF DUP3 AND SWAP1 POP SWAP2 SWAP1 POP JUMP JUMPDEST PUSH1 0x0 PUSH1 0x2 DUP3 DIV SWAP1 POP PUSH1 0x1 DUP3 AND DUP1 PUSH3 0x72E JUMPI PUSH1 0x7F DUP3 AND SWAP2 POP JUMPDEST PUSH1 0x20 DUP3 LT DUP2 EQ ISZERO PUSH3 0x745 JUMPI PUSH3 0x744 PUSH3 0x77A JUMP JUMPDEST JUMPDEST POP SWAP2 SWAP1 POP JUMP JUMPDEST PUSH32 0x4E487B7100000000000000000000000000000000000000000000000000000000 PUSH1 0x0 MSTORE PUSH1 0x11 PUSH1 0x4 MSTORE PUSH1 0x24 PUSH1 0x0 REVERT JUMPDEST PUSH32 0x4E487B7100000000000000000000000000000000000000000000000000000000 PUSH1 0x0 MSTORE PUSH1 0x22 PUSH1 0x4 MSTORE PUSH1 0x24 PUSH1 0x0 REVERT JUMPDEST PUSH1 0x0 DUP2 PUSH1 0x1 SHR SWAP1 POP SWAP2 SWAP1 POP JUMP JUMPDEST PUSH32 0x45524332303A206D696E7420746F20746865207A65726F206164647265737300 PUSH1 0x0 DUP3 ADD MSTORE POP JUMP JUMPDEST PUSH2 0x2D7B DUP1 PUSH3 0x7EF PUSH1 0x0 CODECOPY PUSH1 0x0 RETURN INVALID PUSH1 0x80 PUSH1 0x40 MSTORE PUSH1 0x4 CALLDATASIZE LT PUSH2 0x1D8 JUMPI PUSH1 0x0 CALLDATALOAD PUSH1 0xE0 SHR DUP1 PUSH4 0x7E72FB52 GT PUSH2 0x102 JUMPI DUP1 PUSH4 0xC885BC58 GT PUSH2 0x95 JUMPI DUP1 PUSH4 0xE0C6190D GT PUSH2 0x64 JUMPI DUP1 PUSH4 0xE0C6190D EQ PUSH2 0x6C7 JUMPI DUP1 PUSH4 0xE5C42FD1 EQ PUSH2 0x6F2 JUMPI DUP1 PUSH4 0xEF037B90 EQ PUSH2 0x71B JUMPI DUP1 PUSH4 0xF2FDE38B EQ PUSH2 0x759 JUMPI PUSH2 0x1D8 JUMP JUMPDEST DUP1 PUSH4 0xC885BC58 EQ PUSH2 0x60D JUMPI DUP1 PUSH4 0xD7FA023D EQ PUSH2 0x624 JUMPI DUP1 PUSH4 0xD82E3962 EQ PUSH2 0x64D JUMPI DUP1 PUSH4 0xDD62ED3E EQ PUSH2 0x68A JUMPI PUSH2 0x1D8 JUMP JUMPDEST DUP1 PUSH4 0xA457C2D7 GT PUSH2 0xD1 JUMPI DUP1 PUSH4 0xA457C2D7 EQ PUSH2 0x53F JUMPI DUP1 PUSH4 0xA9059CBB EQ PUSH2 0x57C JUMPI DUP1 PUSH4 0xB2BDFA7B EQ PUSH2 0x5B9 JUMPI DUP1 PUSH4 0xBCB0C2D7 EQ PUSH2 0x5E4 JUMPI PUSH2 0x1D8 JUMP JUMPDEST DUP1 PUSH4 0x7E72FB52 EQ PUSH2 0x4A4 JUMPI DUP1 PUSH4 0x8DA5CB5B EQ PUSH2 0x4C0 JUMPI DUP1 PUSH4 0x939624AB EQ PUSH2 0x4EB JUMPI DUP1 PUSH4 0x95D89B41 EQ PUSH2 0x514 JUMPI PUSH2 0x1D8 JUMP JUMPDEST DUP1 PUSH4 0x313CE567 GT PUSH2 0x17A JUMPI DUP1 PUSH4 0x4BE21E33 GT PUSH2 0x149 JUMPI DUP1 PUSH4 0x4BE21E33 EQ PUSH2 0x410 JUMPI DUP1 PUSH4 0x6F4A2CD0 EQ PUSH2 0x439 JUMPI DUP1 PUSH4 0x70A08231 EQ PUSH2 0x450 JUMPI DUP1 PUSH4 0x715018A6 EQ PUSH2 0x48D JUMPI PUSH2 0x1D8 JUMP JUMPDEST DUP1 PUSH4 0x313CE567 EQ PUSH2 0x340 JUMPI DUP1 PUSH4 0x35789C8B EQ PUSH2 0x36B JUMPI DUP1 PUSH4 0x39509351 EQ PUSH2 0x396 JUMPI DUP1 PUSH4 0x42623360 EQ PUSH2 0x3D3 JUMPI PUSH2 0x1D8 JUMP JUMPDEST DUP1 PUSH4 0xE15561A GT PUSH2 0x1B6 JUMPI DUP1 PUSH4 0xE15561A EQ PUSH2 0x270 JUMPI DUP1 PUSH4 0x18160DDD EQ PUSH2 0x29B JUMPI DUP1 PUSH4 0x1D62EBD9 EQ PUSH2 0x2C6 JUMPI DUP1 PUSH4 0x23B872DD EQ PUSH2 0x303 JUMPI PUSH2 0x1D8 JUMP JUMPDEST DUP1 PUSH4 0x46E2EDB EQ PUSH2 0x1DD JUMPI DUP1 PUSH4 0x6FDDE03 EQ PUSH2 0x208 JUMPI DUP1 PUSH4 0x95EA7B3 EQ PUSH2 0x233 JUMPI JUMPDEST PUSH1 0x0 DUP1 REVERT JUMPDEST CALLVALUE DUP1 ISZERO PUSH2 0x1E9 JUMPI PUSH1 0x0 DUP1 REVERT JUMPDEST POP PUSH2 0x1F2 PUSH2 0x782 JUMP JUMPDEST PUSH1 0x40 MLOAD PUSH2 0x1FF SWAP2 SWAP1 PUSH2 0x24E6 JUMP JUMPDEST PUSH1 0x40 MLOAD DUP1 SWAP2 SUB SWAP1 RETURN JUMPDEST CALLVALUE DUP1 ISZERO PUSH2 0x214 JUMPI PUSH1 0x0 DUP1 REVERT JUMPDEST POP PUSH2 0x21D PUSH2 0x788 JUMP JUMPDEST PUSH1 0x40 MLOAD PUSH2 0x22A SWAP2 SWAP1 PUSH2 0x2324 JUMP JUMPDEST PUSH1 0x40 MLOAD DUP1 SWAP2 SUB SWAP1 RETURN JUMPDEST CALLVALUE DUP1 ISZERO PUSH2 0x23F JUMPI PUSH1 0x0 DUP1 REVERT JUMPDEST POP PUSH2 0x25A PUSH1 0x4 DUP1 CALLDATASIZE SUB DUP2 ADD SWAP1 PUSH2 0x255 SWAP2 SWAP1 PUSH2 0x1FDC JUMP JUMPDEST PUSH2 0x81A JUMP JUMPDEST PUSH1 0x40 MLOAD PUSH2 0x267 SWAP2 SWAP1 PUSH2 0x22E0 JUMP JUMPDEST PUSH1 0x40 MLOAD DUP1 SWAP2 SUB SWAP1 RETURN JUMPDEST CALLVALUE DUP1 ISZERO PUSH2 0x27C JUMPI PUSH1 0x0 DUP1 REVERT JUMPDEST POP PUSH2 0x285 PUSH2 0x83D JUMP JUMPDEST PUSH1 0x40 MLOAD PUSH2 0x292 SWAP2 SWAP1 PUSH2 0x24E6 JUMP JUMPDEST PUSH1 0x40 MLOAD DUP1 SWAP2 SUB SWAP1 RETURN JUMPDEST CALLVALUE DUP1 ISZERO PUSH2 0x2A7 JUMPI PUSH1 0x0 DUP1 REVERT JUMPDEST POP PUSH2 0x2B0 PUSH2 0x8FB JUMP JUMPDEST PUSH1 0x40 MLOAD PUSH2 0x2BD SWAP2 SWAP1 PUSH2 0x24E6 JUMP JUMPDEST PUSH1 0x40 MLOAD DUP1 SWAP2 SUB SWAP1 RETURN JUMPDEST CALLVALUE DUP1 ISZERO PUSH2 0x2D2 JUMPI PUSH1 0x0 DUP1 REVERT JUMPDEST POP PUSH2 0x2ED PUSH1 0x4 DUP1 CALLDATASIZE SUB DUP2 ADD SWAP1 PUSH2 0x2E8 SWAP2 SWAP1 PUSH2 0x1F1C JUMP JUMPDEST PUSH2 0x905 JUMP JUMPDEST PUSH1 0x40 MLOAD PUSH2 0x2FA SWAP2 SWAP1 PUSH2 0x24E6 JUMP JUMPDEST PUSH1 0x40 MLOAD DUP1 SWAP2 SUB SWAP1 RETURN JUMPDEST CALLVALUE DUP1 ISZERO PUSH2 0x30F JUMPI PUSH1 0x0 DUP1 REVERT JUMPDEST POP PUSH2 0x32A PUSH1 0x4 DUP1 CALLDATASIZE SUB DUP2 ADD SWAP1 PUSH2 0x325 SWAP2 SWAP1 PUSH2 0x1F89 JUMP JUMPDEST PUSH2 0x94E JUMP JUMPDEST PUSH1 0x40 MLOAD PUSH2 0x337 SWAP2 SWAP1 PUSH2 0x22E0 JUMP JUMPDEST PUSH1 0x40 MLOAD DUP1 SWAP2 SUB SWAP1 RETURN JUMPDEST CALLVALUE DUP1 ISZERO PUSH2 0x34C JUMPI PUSH1 0x0 DUP1 REVERT JUMPDEST POP PUSH2 0x355 PUSH2 0x97D JUMP JUMPDEST PUSH1 0x40 MLOAD PUSH2 0x362 SWAP2 SWAP1 PUSH2 0x2501 JUMP JUMPDEST PUSH1 0x40 MLOAD DUP1 SWAP2 SUB SWAP1 RETURN JUMPDEST CALLVALUE DUP1 ISZERO PUSH2 0x377 JUMPI PUSH1 0x0 DUP1 REVERT JUMPDEST POP PUSH2 0x380 PUSH2 0x986 JUMP JUMPDEST PUSH1 0x40 MLOAD PUSH2 0x38D SWAP2 SWAP1 PUSH2 0x24E6 JUMP JUMPDEST PUSH1 0x40 MLOAD DUP1 SWAP2 SUB SWAP1 RETURN JUMPDEST CALLVALUE DUP1 ISZERO PUSH2 0x3A2 JUMPI PUSH1 0x0 DUP1 REVERT JUMPDEST POP PUSH2 0x3BD PUSH1 0x4 DUP1 CALLDATASIZE SUB DUP2 ADD SWAP1 PUSH2 0x3B8 SWAP2 SWAP1 PUSH2 0x1FDC JUMP JUMPDEST PUSH2 0x98C JUMP JUMPDEST PUSH1 0x40 MLOAD PUSH2 0x3CA SWAP2 SWAP1 PUSH2 0x22E0 JUMP JUMPDEST PUSH1 0x40 MLOAD DUP1 SWAP2 SUB SWAP1 RETURN JUMPDEST CALLVALUE DUP1 ISZERO PUSH2 0x3DF JUMPI PUSH1 0x0 DUP1 REVERT JUMPDEST POP PUSH2 0x3FA PUSH1 0x4 DUP1 CALLDATASIZE SUB DUP2 ADD SWAP1 PUSH2 0x3F5 SWAP2 SWAP1 PUSH2 0x1F1C JUMP JUMPDEST PUSH2 0xA36 JUMP JUMPDEST PUSH1 0x40 MLOAD PUSH2 0x407 SWAP2 SWAP1 PUSH2 0x24E6 JUMP JUMPDEST PUSH1 0x40 MLOAD DUP1 SWAP2 SUB SWAP1 RETURN JUMPDEST CALLVALUE DUP1 ISZERO PUSH2 0x41C JUMPI PUSH1 0x0 DUP1 REVERT JUMPDEST POP PUSH2 0x437 PUSH1 0x4 DUP1 CALLDATASIZE SUB DUP2 ADD SWAP1 PUSH2 0x432 SWAP2 SWAP1 PUSH2 0x201C JUMP JUMPDEST PUSH2 0xA7F JUMP JUMPDEST STOP JUMPDEST CALLVALUE DUP1 ISZERO PUSH2 0x445 JUMPI PUSH1 0x0 DUP1 REVERT JUMPDEST POP PUSH2 0x44E PUSH2 0xB19 JUMP JUMPDEST STOP JUMPDEST CALLVALUE DUP1 ISZERO PUSH2 0x45C JUMPI PUSH1 0x0 DUP1 REVERT JUMPDEST POP PUSH2 0x477 PUSH1 0x4 DUP1 CALLDATASIZE SUB DUP2 ADD SWAP1 PUSH2 0x472 SWAP2 SWAP1 PUSH2 0x1F1C JUMP JUMPDEST PUSH2 0xC20 JUMP JUMPDEST PUSH1 0x40 MLOAD PUSH2 0x484 SWAP2 SWAP1 PUSH2 0x24E6 JUMP JUMPDEST PUSH1 0x40 MLOAD DUP1 SWAP2 SUB SWAP1 RETURN JUMPDEST CALLVALUE DUP1 ISZERO PUSH2 0x499 JUMPI PUSH1 0x0 DUP1 REVERT JUMPDEST POP PUSH2 0x4A2 PUSH2 0xC68 JUMP JUMPDEST STOP JUMPDEST PUSH2 0x4BE PUSH1 0x4 DUP1 CALLDATASIZE SUB DUP2 ADD SWAP1 PUSH2 0x4B9 SWAP2 SWAP1 PUSH2 0x1F1C JUMP JUMPDEST PUSH2 0xCF0 JUMP JUMPDEST STOP JUMPDEST CALLVALUE DUP1 ISZERO PUSH2 0x4CC JUMPI PUSH1 0x0 DUP1 REVERT JUMPDEST POP PUSH2 0x4D5 PUSH2 0xD55 JUMP JUMPDEST PUSH1 0x40 MLOAD PUSH2 0x4E2 SWAP2 SWAP1 PUSH2 0x22C5 JUMP JUMPDEST PUSH1 0x40 MLOAD DUP1 SWAP2 SUB SWAP1 RETURN JUMPDEST CALLVALUE DUP1 ISZERO PUSH2 0x4F7 JUMPI PUSH1 0x0 DUP1 REVERT JUMPDEST POP PUSH2 0x512 PUSH1 0x4 DUP1 CALLDATASIZE SUB DUP2 ADD SWAP1 PUSH2 0x50D SWAP2 SWAP1 PUSH2 0x201C JUMP JUMPDEST PUSH2 0xD7F JUMP JUMPDEST STOP JUMPDEST CALLVALUE DUP1 ISZERO PUSH2 0x520 JUMPI PUSH1 0x0 DUP1 REVERT JUMPDEST POP PUSH2 0x529 PUSH2 0xE6C JUMP JUMPDEST PUSH1 0x40 MLOAD PUSH2 0x536 SWAP2 SWAP1 PUSH2 0x2324 JUMP JUMPDEST PUSH1 0x40 MLOAD DUP1 SWAP2 SUB SWAP1 RETURN JUMPDEST CALLVALUE DUP1 ISZERO PUSH2 0x54B JUMPI PUSH1 0x0 DUP1 REVERT JUMPDEST POP PUSH2 0x566 PUSH1 0x4 DUP1 CALLDATASIZE SUB DUP2 ADD SWAP1 PUSH2 0x561 SWAP2 SWAP1 PUSH2 0x1FDC JUMP JUMPDEST PUSH2 0xEFE JUMP JUMPDEST PUSH1 0x40 MLOAD PUSH2 0x573 SWAP2 SWAP1 PUSH2 0x22E0 JUMP JUMPDEST PUSH1 0x40 MLOAD DUP1 SWAP2 SUB SWAP1 RETURN JUMPDEST CALLVALUE DUP1 ISZERO PUSH2 0x588 JUMPI PUSH1 0x0 DUP1 REVERT JUMPDEST POP PUSH2 0x5A3 PUSH1 0x4 DUP1 CALLDATASIZE SUB DUP2 ADD SWAP1 PUSH2 0x59E SWAP2 SWAP1 PUSH2 0x1FDC JUMP JUMPDEST PUSH2 0xFE8 JUMP JUMPDEST PUSH1 0x40 MLOAD PUSH2 0x5B0 SWAP2 SWAP1 PUSH2 0x22E0 JUMP JUMPDEST PUSH1 0x40 MLOAD DUP1 SWAP2 SUB SWAP1 RETURN JUMPDEST CALLVALUE DUP1 ISZERO PUSH2 0x5C5 JUMPI PUSH1 0x0 DUP1 REVERT JUMPDEST POP PUSH2 0x5CE PUSH2 0x100B JUMP JUMPDEST PUSH1 0x40 MLOAD PUSH2 0x5DB SWAP2 SWAP1 PUSH2 0x22C5 JUMP JUMPDEST PUSH1 0x40 MLOAD DUP1 SWAP2 SUB SWAP1 RETURN JUMPDEST CALLVALUE DUP1 ISZERO PUSH2 0x5F0 JUMPI PUSH1 0x0 DUP1 REVERT JUMPDEST POP PUSH2 0x60B PUSH1 0x4 DUP1 CALLDATASIZE SUB DUP2 ADD SWAP1 PUSH2 0x606 SWAP2 SWAP1 PUSH2 0x1F1C JUMP JUMPDEST PUSH2 0x1031 JUMP JUMPDEST STOP JUMPDEST CALLVALUE DUP1 ISZERO PUSH2 0x619 JUMPI PUSH1 0x0 DUP1 REVERT JUMPDEST POP PUSH2 0x622 PUSH2 0x1140 JUMP JUMPDEST STOP JUMPDEST CALLVALUE DUP1 ISZERO PUSH2 0x630 JUMPI PUSH1 0x0 DUP1 REVERT JUMPDEST POP PUSH2 0x64B PUSH1 0x4 DUP1 CALLDATASIZE SUB DUP2 ADD SWAP1 PUSH2 0x646 SWAP2 SWAP1 PUSH2 0x2049 JUMP JUMPDEST PUSH2 0x11D6 JUMP JUMPDEST STOP JUMPDEST CALLVALUE DUP1 ISZERO PUSH2 0x659 JUMPI PUSH1 0x0 DUP1 REVERT JUMPDEST POP PUSH2 0x674 PUSH1 0x4 DUP1 CALLDATASIZE SUB DUP2 ADD SWAP1 PUSH2 0x66F SWAP2 SWAP1 PUSH2 0x1F1C JUMP JUMPDEST PUSH2 0x12E4 JUMP JUMPDEST PUSH1 0x40 MLOAD PUSH2 0x681 SWAP2 SWAP1 PUSH2 0x24E6 JUMP JUMPDEST PUSH1 0x40 MLOAD DUP1 SWAP2 SUB SWAP1 RETURN JUMPDEST CALLVALUE DUP1 ISZERO PUSH2 0x696 JUMPI PUSH1 0x0 DUP1 REVERT JUMPDEST POP PUSH2 0x6B1 PUSH1 0x4 DUP1 CALLDATASIZE SUB DUP2 ADD SWAP1 PUSH2 0x6AC SWAP2 SWAP1 PUSH2 0x1F49 JUMP JUMPDEST PUSH2 0x1339 JUMP JUMPDEST PUSH1 0x40 MLOAD PUSH2 0x6BE SWAP2 SWAP1 PUSH2 0x24E6 JUMP JUMPDEST PUSH1 0x40 MLOAD DUP1 SWAP2 SUB SWAP1 RETURN JUMPDEST CALLVALUE DUP1 ISZERO PUSH2 0x6D3 JUMPI PUSH1 0x0 DUP1 REVERT JUMPDEST POP PUSH2 0x6DC PUSH2 0x13C0 JUMP JUMPDEST PUSH1 0x40 MLOAD PUSH2 0x6E9 SWAP2 SWAP1 PUSH2 0x22E0 JUMP JUMPDEST PUSH1 0x40 MLOAD DUP1 SWAP2 SUB SWAP1 RETURN JUMPDEST CALLVALUE DUP1 ISZERO PUSH2 0x6FE JUMPI PUSH1 0x0 DUP1 REVERT JUMPDEST POP PUSH2 0x719 PUSH1 0x4 DUP1 CALLDATASIZE SUB DUP2 ADD SWAP1 PUSH2 0x714 SWAP2 SWAP1 PUSH2 0x1F1C JUMP JUMPDEST PUSH2 0x13E4 JUMP JUMPDEST STOP JUMPDEST CALLVALUE DUP1 ISZERO PUSH2 0x727 JUMPI PUSH1 0x0 DUP1 REVERT JUMPDEST POP PUSH2 0x742 PUSH1 0x4 DUP1 CALLDATASIZE SUB DUP2 ADD SWAP1 PUSH2 0x73D SWAP2 SWAP1 PUSH2 0x1F1C JUMP JUMPDEST PUSH2 0x145F JUMP JUMPDEST PUSH1 0x40 MLOAD PUSH2 0x750 SWAP3 SWAP2 SWAP1 PUSH2 0x22FB JUMP JUMPDEST PUSH1 0x40 MLOAD DUP1 SWAP2 SUB SWAP1 RETURN JUMPDEST CALLVALUE DUP1 ISZERO PUSH2 0x765 JUMPI PUSH1 0x0 DUP1 REVERT JUMPDEST POP PUSH2 0x780 PUSH1 0x4 DUP1 CALLDATASIZE SUB DUP2 ADD SWAP1 PUSH2 0x77B SWAP2 SWAP1 PUSH2 0x1F1C JUMP JUMPDEST PUSH2 0x1513 JUMP JUMPDEST STOP JUMPDEST PUSH1 0x8 SLOAD DUP2 JUMP JUMPDEST PUSH1 0x60 PUSH1 0x3 DUP1 SLOAD PUSH2 0x797 SWAP1 PUSH2 0x2846 JUMP JUMPDEST DUP1 PUSH1 0x1F ADD PUSH1 0x20 DUP1 SWAP2 DIV MUL PUSH1 0x20 ADD PUSH1 0x40 MLOAD SWAP1 DUP2 ADD PUSH1 0x40 MSTORE DUP1 SWAP3 SWAP2 SWAP1 DUP2 DUP2 MSTORE PUSH1 0x20 ADD DUP3 DUP1 SLOAD PUSH2 0x7C3 SWAP1 PUSH2 0x2846 JUMP JUMPDEST DUP1 ISZERO PUSH2 0x810 JUMPI DUP1 PUSH1 0x1F LT PUSH2 0x7E5 JUMPI PUSH2 0x100 DUP1 DUP4 SLOAD DIV MUL DUP4 MSTORE SWAP2 PUSH1 0x20 ADD SWAP2 PUSH2 0x810 JUMP JUMPDEST DUP3 ADD SWAP2 SWAP1 PUSH1 0x0 MSTORE PUSH1 0x20 PUSH1 0x0 KECCAK256 SWAP1 JUMPDEST DUP2 SLOAD DUP2 MSTORE SWAP1 PUSH1 0x1 ADD SWAP1 PUSH1 0x20 ADD DUP1 DUP4 GT PUSH2 0x7F3 JUMPI DUP3 SWAP1 SUB PUSH1 0x1F AND DUP3 ADD SWAP2 JUMPDEST POP POP POP POP POP SWAP1 POP SWAP1 JUMP JUMPDEST PUSH1 0x0 DUP1 PUSH2 0x825 PUSH2 0x160B JUMP JUMPDEST SWAP1 POP PUSH2 0x832 DUP2 DUP6 DUP6 PUSH2 0x1613 JUMP JUMPDEST PUSH1 0x1 SWAP2 POP POP SWAP3 SWAP2 POP POP JUMP JUMPDEST PUSH1 0x0 DUP1 PUSH1 0x0 SWAP1 POP PUSH1 0x0 JUMPDEST PUSH1 0xA DUP1 SLOAD SWAP1 POP DUP2 LT ISZERO PUSH2 0x8F3 JUMPI PUSH1 0xB PUSH1 0x0 PUSH1 0xA DUP4 DUP2 SLOAD DUP2 LT PUSH2 0x86C JUMPI PUSH2 0x86B PUSH2 0x2934 JUMP JUMPDEST JUMPDEST SWAP1 PUSH1 0x0 MSTORE PUSH1 0x20 PUSH1 0x0 KECCAK256 ADD PUSH1 0x0 SWAP1 SLOAD SWAP1 PUSH2 0x100 EXP SWAP1 DIV PUSH20 0xFFFFFFFFFFFFFFFFFFFFFFFFFFFFFFFFFFFFFFFF AND PUSH20 0xFFFFFFFFFFFFFFFFFFFFFFFFFFFFFFFFFFFFFFFF AND PUSH20 0xFFFFFFFFFFFFFFFFFFFFFFFFFFFFFFFFFFFFFFFF AND DUP2 MSTORE PUSH1 0x20 ADD SWAP1 DUP2 MSTORE PUSH1 0x20 ADD PUSH1 0x0 KECCAK256 SLOAD DUP3 PUSH2 0x8DD SWAP2 SWAP1 PUSH2 0x2538 JUMP JUMPDEST SWAP2 POP PUSH1 0x1 DUP2 PUSH2 0x8EC SWAP2 SWAP1 PUSH2 0x2538 JUMP JUMPDEST SWAP1 POP PUSH2 0x847 JUMP JUMPDEST POP DUP1 SWAP2 POP POP SWAP1 JUMP JUMPDEST PUSH1 0x0 PUSH1 0x2 SLOAD SWAP1 POP SWAP1 JUMP JUMPDEST PUSH1 0x0 PUSH1 0xB PUSH1 0x0 DUP4 PUSH20 0xFFFFFFFFFFFFFFFFFFFFFFFFFFFFFFFFFFFFFFFF AND PUSH20 0xFFFFFFFFFFFFFFFFFFFFFFFFFFFFFFFFFFFFFFFF AND DUP2 MSTORE PUSH1 0x20 ADD SWAP1 DUP2 MSTORE PUSH1 0x20 ADD PUSH1 0x0 KECCAK256 SLOAD SWAP1 POP SWAP2 SWAP1 POP JUMP JUMPDEST PUSH1 0x0 DUP1 PUSH2 0x959 PUSH2 0x160B JUMP JUMPDEST SWAP1 POP PUSH2 0x966 DUP6 DUP3 DUP6 PUSH2 0x17DE JUMP JUMPDEST PUSH2 0x971 DUP6 DUP6 DUP6 PUSH2 0x186A JUMP JUMPDEST PUSH1 0x1 SWAP2 POP POP SWAP4 SWAP3 POP POP POP JUMP JUMPDEST PUSH1 0x0 PUSH1 0x12 SWAP1 POP SWAP1 JUMP JUMPDEST PUSH1 0x7 SLOAD DUP2 JUMP JUMPDEST PUSH1 0x0 DUP1 PUSH2 0x997 PUSH2 0x160B JUMP JUMPDEST SWAP1 POP PUSH2 0xA2B DUP2 DUP6 DUP6 PUSH1 0x1 PUSH1 0x0 DUP7 PUSH20 0xFFFFFFFFFFFFFFFFFFFFFFFFFFFFFFFFFFFFFFFF AND PUSH20 0xFFFFFFFFFFFFFFFFFFFFFFFFFFFFFFFFFFFFFFFF AND DUP2 MSTORE PUSH1 0x20 ADD SWAP1 DUP2 MSTORE PUSH1 0x20 ADD PUSH1 0x0 KECCAK256 PUSH1 0x0 DUP10 PUSH20 0xFFFFFFFFFFFFFFFFFFFFFFFFFFFFFFFFFFFFFFFF AND PUSH20 0xFFFFFFFFFFFFFFFFFFFFFFFFFFFFFFFFFFFFFFFF AND DUP2 MSTORE PUSH1 0x20 ADD SWAP1 DUP2 MSTORE PUSH1 0x20 ADD PUSH1 0x0 KECCAK256 SLOAD PUSH2 0xA26 SWAP2 SWAP1 PUSH2 0x2538 JUMP JUMPDEST PUSH2 0x1613 JUMP JUMPDEST PUSH1 0x1 SWAP2 POP POP SWAP3 SWAP2 POP POP JUMP JUMPDEST PUSH1 0x0 PUSH1 0x9 PUSH1 0x0 DUP4 PUSH20 0xFFFFFFFFFFFFFFFFFFFFFFFFFFFFFFFFFFFFFFFF AND PUSH20 0xFFFFFFFFFFFFFFFFFFFFFFFFFFFFFFFFFFFFFFFF AND DUP2 MSTORE PUSH1 0x20 ADD SWAP1 DUP2 MSTORE PUSH1 0x20 ADD PUSH1 0x0 KECCAK256 SLOAD SWAP1 POP SWAP2 SWAP1 POP JUMP JUMPDEST PUSH1 0x6 PUSH1 0x0 SWAP1 SLOAD SWAP1 PUSH2 0x100 EXP SWAP1 DIV PUSH20 0xFFFFFFFFFFFFFFFFFFFFFFFFFFFFFFFFFFFFFFFF AND PUSH20 0xFFFFFFFFFFFFFFFFFFFFFFFFFFFFFFFFFFFFFFFF AND CALLER PUSH20 0xFFFFFFFFFFFFFFFFFFFFFFFFFFFFFFFFFFFFFFFF AND EQ PUSH2 0xB0F JUMPI PUSH1 0x40 MLOAD PUSH32 0x8C379A000000000000000000000000000000000000000000000000000000000 DUP2 MSTORE PUSH1 0x4 ADD PUSH2 0xB06 SWAP1 PUSH2 0x2346 JUMP JUMPDEST PUSH1 0x40 MLOAD DUP1 SWAP2 SUB SWAP1 REVERT JUMPDEST DUP1 PUSH1 0x7 DUP2 SWAP1 SSTORE POP POP JUMP JUMPDEST PUSH1 0x0 JUMPDEST PUSH1 0xA DUP1 SLOAD SWAP1 POP DUP2 LT ISZERO PUSH2 0xC1D JUMPI PUSH1 0x0 PUSH1 0xA DUP3 DUP2 SLOAD DUP2 LT PUSH2 0xB3F JUMPI PUSH2 0xB3E PUSH2 0x2934 JUMP JUMPDEST JUMPDEST SWAP1 PUSH1 0x0 MSTORE PUSH1 0x20 PUSH1 0x0 KECCAK256 ADD PUSH1 0x0 SWAP1 SLOAD SWAP1 PUSH2 0x100 EXP SWAP1 DIV PUSH20 0xFFFFFFFFFFFFFFFFFFFFFFFFFFFFFFFFFFFFFFFF AND SWAP1 POP PUSH1 0x0 PUSH2 0xB77 DUP3 PUSH2 0x12E4 JUMP JUMPDEST SWAP1 POP DUP1 PUSH1 0xB PUSH1 0x0 DUP5 PUSH20 0xFFFFFFFFFFFFFFFFFFFFFFFFFFFFFFFFFFFFFFFF AND PUSH20 0xFFFFFFFFFFFFFFFFFFFFFFFFFFFFFFFFFFFFFFFF AND DUP2 MSTORE PUSH1 0x20 ADD SWAP1 DUP2 MSTORE PUSH1 0x20 ADD PUSH1 0x0 KECCAK256 SLOAD PUSH2 0xBC4 SWAP2 SWAP1 PUSH2 0x2538 JUMP JUMPDEST PUSH1 0xB PUSH1 0x0 DUP5 PUSH20 0xFFFFFFFFFFFFFFFFFFFFFFFFFFFFFFFFFFFFFFFF AND PUSH20 0xFFFFFFFFFFFFFFFFFFFFFFFFFFFFFFFFFFFFFFFF AND DUP2 MSTORE PUSH1 0x20 ADD SWAP1 DUP2 MSTORE PUSH1 0x20 ADD PUSH1 0x0 KECCAK256 DUP2 SWAP1 SSTORE POP POP POP PUSH1 0x1 DUP2 PUSH2 0xC16 SWAP2 SWAP1 PUSH2 0x2538 JUMP JUMPDEST SWAP1 POP PUSH2 0xB1C JUMP JUMPDEST POP JUMP JUMPDEST PUSH1 0x0 DUP1 PUSH1 0x0 DUP4 PUSH20 0xFFFFFFFFFFFFFFFFFFFFFFFFFFFFFFFFFFFFFFFF AND PUSH20 0xFFFFFFFFFFFFFFFFFFFFFFFFFFFFFFFFFFFFFFFF AND DUP2 MSTORE PUSH1 0x20 ADD SWAP1 DUP2 MSTORE PUSH1 0x20 ADD PUSH1 0x0 KECCAK256 SLOAD SWAP1 POP SWAP2 SWAP1 POP JUMP JUMPDEST PUSH2 0xC70 PUSH2 0x160B JUMP JUMPDEST PUSH20 0xFFFFFFFFFFFFFFFFFFFFFFFFFFFFFFFFFFFFFFFF AND PUSH2 0xC8E PUSH2 0xD55 JUMP JUMPDEST PUSH20 0xFFFFFFFFFFFFFFFFFFFFFFFFFFFFFFFFFFFFFFFF AND EQ PUSH2 0xCE4 JUMPI PUSH1 0x40 MLOAD PUSH32 0x8C379A000000000000000000000000000000000000000000000000000000000 DUP2 MSTORE PUSH1 0x4 ADD PUSH2 0xCDB SWAP1 PUSH2 0x2426 JUMP JUMPDEST PUSH1 0x40 MLOAD DUP1 SWAP2 SUB SWAP1 REVERT JUMPDEST PUSH2 0xCEE PUSH1 0x0 PUSH2 0x1AEB JUMP JUMPDEST JUMP JUMPDEST PUSH2 0xCF8 PUSH2 0x97D JUMP JUMPDEST PUSH1 0xA PUSH2 0xD04 SWAP2 SWAP1 PUSH2 0x2612 JUMP JUMPDEST PUSH1 0x7 SLOAD PUSH2 0xD11 SWAP2 SWAP1 PUSH2 0x2730 JUMP JUMPDEST PUSH1 0x8 DUP2 SWAP1 SSTORE POP PUSH1 0x0 PUSH2 0xD21 PUSH2 0x97D JUMP JUMPDEST PUSH1 0xA PUSH2 0xD2D SWAP2 SWAP1 PUSH2 0x2612 JUMP JUMPDEST PUSH1 0x8 SLOAD CALLVALUE PUSH2 0xD3B SWAP2 SWAP1 PUSH2 0x2730 JUMP JUMPDEST PUSH2 0xD45 SWAP2 SWAP1 PUSH2 0x258E JUMP JUMPDEST SWAP1 POP PUSH2 0xD51 DUP3 DUP3 PUSH2 0x1BB1 JUMP JUMPDEST POP POP JUMP JUMPDEST PUSH1 0x0 PUSH1 0x5 PUSH1 0x0 SWAP1 SLOAD SWAP1 PUSH2 0x100 EXP SWAP1 DIV PUSH20 0xFFFFFFFFFFFFFFFFFFFFFFFFFFFFFFFFFFFFFFFF AND SWAP1 POP SWAP1 JUMP JUMPDEST DUP1 PUSH1 0x9 PUSH1 0x0 CALLER PUSH20 0xFFFFFFFFFFFFFFFFFFFFFFFFFFFFFFFFFFFFFFFF AND PUSH20 0xFFFFFFFFFFFFFFFFFFFFFFFFFFFFFFFFFFFFFFFF AND DUP2 MSTORE PUSH1 0x20 ADD SWAP1 DUP2 MSTORE PUSH1 0x20 ADD PUSH1 0x0 KECCAK256 SLOAD PUSH2 0xDCA SWAP2 SWAP1 PUSH2 0x278A JUMP JUMPDEST PUSH1 0x9 PUSH1 0x0 CALLER PUSH20 0xFFFFFFFFFFFFFFFFFFFFFFFFFFFFFFFFFFFFFFFF AND PUSH20 0xFFFFFFFFFFFFFFFFFFFFFFFFFFFFFFFFFFFFFFFF AND DUP2 MSTORE PUSH1 0x20 ADD SWAP1 DUP2 MSTORE PUSH1 0x20 ADD PUSH1 0x0 KECCAK256 DUP2 SWAP1 SSTORE POP PUSH1 0x0 PUSH1 0x9 PUSH1 0x0 CALLER PUSH20 0xFFFFFFFFFFFFFFFFFFFFFFFFFFFFFFFFFFFFFFFF AND PUSH20 0xFFFFFFFFFFFFFFFFFFFFFFFFFFFFFFFFFFFFFFFF AND DUP2 MSTORE PUSH1 0x20 ADD SWAP1 DUP2 MSTORE PUSH1 0x20 ADD PUSH1 0x0 KECCAK256 SLOAD EQ ISZERO PUSH2 0xE5F JUMPI PUSH2 0xE5E CALLER PUSH2 0x1031 JUMP JUMPDEST JUMPDEST PUSH2 0xE69 CALLER DUP3 PUSH2 0x1BB1 JUMP JUMPDEST POP JUMP JUMPDEST PUSH1 0x60 PUSH1 0x4 DUP1 SLOAD PUSH2 0xE7B SWAP1 PUSH2 0x2846 JUMP JUMPDEST DUP1 PUSH1 0x1F ADD PUSH1 0x20 DUP1 SWAP2 DIV MUL PUSH1 0x20 ADD PUSH1 0x40 MLOAD SWAP1 DUP2 ADD PUSH1 0x40 MSTORE DUP1 SWAP3 SWAP2 SWAP1 DUP2 DUP2 MSTORE PUSH1 0x20 ADD DUP3 DUP1 SLOAD PUSH2 0xEA7 SWAP1 PUSH2 0x2846 JUMP JUMPDEST DUP1 ISZERO PUSH2 0xEF4 JUMPI DUP1 PUSH1 0x1F LT PUSH2 0xEC9 JUMPI PUSH2 0x100 DUP1 DUP4 SLOAD DIV MUL DUP4 MSTORE SWAP2 PUSH1 0x20 ADD SWAP2 PUSH2 0xEF4 JUMP JUMPDEST DUP3 ADD SWAP2 SWAP1 PUSH1 0x0 MSTORE PUSH1 0x20 PUSH1 0x0 KECCAK256 SWAP1 JUMPDEST DUP2 SLOAD DUP2 MSTORE SWAP1 PUSH1 0x1 ADD SWAP1 PUSH1 0x20 ADD DUP1 DUP4 GT PUSH2 0xED7 JUMPI DUP3 SWAP1 SUB PUSH1 0x1F AND DUP3 ADD SWAP2 JUMPDEST POP POP POP POP POP SWAP1 POP SWAP1 JUMP JUMPDEST PUSH1 0x0 DUP1 PUSH2 0xF09 PUSH2 0x160B JUMP JUMPDEST SWAP1 POP PUSH1 0x0 PUSH1 0x1 PUSH1 0x0 DUP4 PUSH20 0xFFFFFFFFFFFFFFFFFFFFFFFFFFFFFFFFFFFFFFFF AND PUSH20 0xFFFFFFFFFFFFFFFFFFFFFFFFFFFFFFFFFFFFFFFF AND DUP2 MSTORE PUSH1 0x20 ADD SWAP1 DUP2 MSTORE PUSH1 0x20 ADD PUSH1 0x0 KECCAK256 PUSH1 0x0 DUP7 PUSH20 0xFFFFFFFFFFFFFFFFFFFFFFFFFFFFFFFFFFFFFFFF AND PUSH20 0xFFFFFFFFFFFFFFFFFFFFFFFFFFFFFFFFFFFFFFFF AND DUP2 MSTORE PUSH1 0x20 ADD SWAP1 DUP2 MSTORE PUSH1 0x20 ADD PUSH1 0x0 KECCAK256 SLOAD SWAP1 POP DUP4 DUP2 LT ISZERO PUSH2 0xFCF JUMPI PUSH1 0x40 MLOAD PUSH32 0x8C379A000000000000000000000000000000000000000000000000000000000 DUP2 MSTORE PUSH1 0x4 ADD PUSH2 0xFC6 SWAP1 PUSH2 0x24A6 JUMP JUMPDEST PUSH1 0x40 MLOAD DUP1 SWAP2 SUB SWAP1 REVERT JUMPDEST PUSH2 0xFDC DUP3 DUP7 DUP7 DUP5 SUB PUSH2 0x1613 JUMP JUMPDEST PUSH1 0x1 SWAP3 POP POP POP SWAP3 SWAP2 POP POP JUMP JUMPDEST PUSH1 0x0 DUP1 PUSH2 0xFF3 PUSH2 0x160B JUMP JUMPDEST SWAP1 POP PUSH2 0x1000 DUP2 DUP6 DUP6 PUSH2 0x186A JUMP JUMPDEST PUSH1 0x1 SWAP2 POP POP SWAP3 SWAP2 POP POP JUMP JUMPDEST PUSH1 0x6 PUSH1 0x0 SWAP1 SLOAD SWAP1 PUSH2 0x100 EXP SWAP1 DIV PUSH20 0xFFFFFFFFFFFFFFFFFFFFFFFFFFFFFFFFFFFFFFFF AND DUP2 JUMP JUMPDEST PUSH1 0x0 DUP1 PUSH2 0x103D DUP4 PUSH2 0x145F JUMP JUMPDEST SWAP2 POP SWAP2 POP DUP2 ISZERO PUSH2 0x113B JUMPI PUSH1 0xA PUSH1 0x1 PUSH1 0xA DUP1 SLOAD SWAP1 POP PUSH2 0x105B SWAP2 SWAP1 PUSH2 0x278A JUMP JUMPDEST DUP2 SLOAD DUP2 LT PUSH2 0x106C JUMPI PUSH2 0x106B PUSH2 0x2934 JUMP JUMPDEST JUMPDEST SWAP1 PUSH1 0x0 MSTORE PUSH1 0x20 PUSH1 0x0 KECCAK256 ADD PUSH1 0x0 SWAP1 SLOAD SWAP1 PUSH2 0x100 EXP SWAP1 DIV PUSH20 0xFFFFFFFFFFFFFFFFFFFFFFFFFFFFFFFFFFFFFFFF AND PUSH1 0xA DUP3 DUP2 SLOAD DUP2 LT PUSH2 0x10AB JUMPI PUSH2 0x10AA PUSH2 0x2934 JUMP JUMPDEST JUMPDEST SWAP1 PUSH1 0x0 MSTORE PUSH1 0x20 PUSH1 0x0 KECCAK256 ADD PUSH1 0x0 PUSH2 0x100 EXP DUP2 SLOAD DUP2 PUSH20 0xFFFFFFFFFFFFFFFFFFFFFFFFFFFFFFFFFFFFFFFF MUL NOT AND SWAP1 DUP4 PUSH20 0xFFFFFFFFFFFFFFFFFFFFFFFFFFFFFFFFFFFFFFFF AND MUL OR SWAP1 SSTORE POP PUSH1 0xA DUP1 SLOAD DUP1 PUSH2 0x1105 JUMPI PUSH2 0x1104 PUSH2 0x2905 JUMP JUMPDEST JUMPDEST PUSH1 0x1 SWAP1 SUB DUP2 DUP2 SWAP1 PUSH1 0x0 MSTORE PUSH1 0x20 PUSH1 0x0 KECCAK256 ADD PUSH1 0x0 PUSH2 0x100 EXP DUP2 SLOAD SWAP1 PUSH20 0xFFFFFFFFFFFFFFFFFFFFFFFFFFFFFFFFFFFFFFFF MUL NOT AND SWAP1 SSTORE SWAP1 SSTORE JUMPDEST POP POP POP JUMP JUMPDEST PUSH1 0x0 PUSH1 0xB PUSH1 0x0 CALLER PUSH20 0xFFFFFFFFFFFFFFFFFFFFFFFFFFFFFFFFFFFFFFFF AND PUSH20 0xFFFFFFFFFFFFFFFFFFFFFFFFFFFFFFFFFFFFFFFF AND DUP2 MSTORE PUSH1 0x20 ADD SWAP1 DUP2 MSTORE PUSH1 0x20 ADD PUSH1 0x0 KECCAK256 SLOAD SWAP1 POP PUSH1 0x0 PUSH1 0xB PUSH1 0x0 CALLER PUSH20 0xFFFFFFFFFFFFFFFFFFFFFFFFFFFFFFFFFFFFFFFF AND PUSH20 0xFFFFFFFFFFFFFFFFFFFFFFFFFFFFFFFFFFFFFFFF AND DUP2 MSTORE PUSH1 0x20 ADD SWAP1 DUP2 MSTORE PUSH1 0x20 ADD PUSH1 0x0 KECCAK256 DUP2 SWAP1 SSTORE POP PUSH2 0x11D3 CALLER DUP3 PUSH2 0x1BB1 JUMP JUMPDEST POP JUMP JUMPDEST PUSH2 0x11E0 CALLER DUP4 PUSH2 0x1D11 JUMP JUMPDEST PUSH1 0x0 PUSH1 0x9 PUSH1 0x0 CALLER PUSH20 0xFFFFFFFFFFFFFFFFFFFFFFFFFFFFFFFFFFFFFFFF AND PUSH20 0xFFFFFFFFFFFFFFFFFFFFFFFFFFFFFFFFFFFFFFFF AND DUP2 MSTORE PUSH1 0x20 ADD SWAP1 DUP2 MSTORE PUSH1 0x20 ADD PUSH1 0x0 KECCAK256 SLOAD EQ ISZERO PUSH2 0x1232 JUMPI PUSH2 0x1231 CALLER PUSH2 0x13E4 JUMP JUMPDEST JUMPDEST DUP2 PUSH1 0x9 PUSH1 0x0 CALLER PUSH20 0xFFFFFFFFFFFFFFFFFFFFFFFFFFFFFFFFFFFFFFFF AND PUSH20 0xFFFFFFFFFFFFFFFFFFFFFFFFFFFFFFFFFFFFFFFF AND DUP2 MSTORE PUSH1 0x20 ADD SWAP1 DUP2 MSTORE PUSH1 0x20 ADD PUSH1 0x0 KECCAK256 SLOAD PUSH2 0x127D SWAP2 SWAP1 PUSH2 0x2538 JUMP JUMPDEST PUSH1 0x9 PUSH1 0x0 CALLER PUSH20 0xFFFFFFFFFFFFFFFFFFFFFFFFFFFFFFFFFFFFFFFF AND PUSH20 0xFFFFFFFFFFFFFFFFFFFFFFFFFFFFFFFFFFFFFFFF AND DUP2 MSTORE PUSH1 0x20 ADD SWAP1 DUP2 MSTORE PUSH1 0x20 ADD PUSH1 0x0 KECCAK256 DUP2 SWAP1 SSTORE POP PUSH3 0x15180 DUP2 PUSH2 0x12CF SWAP2 SWAP1 PUSH2 0x2730 JUMP JUMPDEST TIMESTAMP PUSH2 0x12DA SWAP2 SWAP1 PUSH2 0x2538 JUMP JUMPDEST PUSH1 0xC DUP2 SWAP1 SSTORE POP POP POP JUMP JUMPDEST PUSH1 0x0 PUSH1 0x64 PUSH1 0x9 PUSH1 0x0 DUP5 PUSH20 0xFFFFFFFFFFFFFFFFFFFFFFFFFFFFFFFFFFFFFFFF AND PUSH20 0xFFFFFFFFFFFFFFFFFFFFFFFFFFFFFFFFFFFFFFFF AND DUP2 MSTORE PUSH1 0x20 ADD SWAP1 DUP2 MSTORE PUSH1 0x20 ADD PUSH1 0x0 KECCAK256 SLOAD PUSH2 0x1332 SWAP2 SWAP1 PUSH2 0x258E JUMP JUMPDEST SWAP1 POP SWAP2 SWAP1 POP JUMP JUMPDEST PUSH1 0x0 PUSH1 0x1 PUSH1 0x0 DUP5 PUSH20 0xFFFFFFFFFFFFFFFFFFFFFFFFFFFFFFFFFFFFFFFF AND PUSH20 0xFFFFFFFFFFFFFFFFFFFFFFFFFFFFFFFFFFFFFFFF AND DUP2 MSTORE PUSH1 0x20 ADD SWAP1 DUP2 MSTORE PUSH1 0x20 ADD PUSH1 0x0 KECCAK256 PUSH1 0x0 DUP4 PUSH20 0xFFFFFFFFFFFFFFFFFFFFFFFFFFFFFFFFFFFFFFFF AND PUSH20 0xFFFFFFFFFFFFFFFFFFFFFFFFFFFFFFFFFFFFFFFF AND DUP2 MSTORE PUSH1 0x20 ADD SWAP1 DUP2 MSTORE PUSH1 0x20 ADD PUSH1 0x0 KECCAK256 SLOAD SWAP1 POP SWAP3 SWAP2 POP POP JUMP JUMPDEST PUSH1 0x0 DUP1 PUSH3 0x93A80 SWAP1 POP PUSH1 0x0 TIMESTAMP SWAP1 POP PUSH1 0x0 DUP3 DUP3 PUSH2 0x13DC SWAP2 SWAP1 PUSH2 0x2538 JUMP JUMPDEST SWAP1 POP POP POP POP SWAP1 JUMP JUMPDEST PUSH1 0x0 PUSH2 0x13EF DUP3 PUSH2 0x145F JUMP JUMPDEST POP SWAP1 POP DUP1 PUSH2 0x145B JUMPI PUSH1 0xA DUP3 SWAP1 DUP1 PUSH1 0x1 DUP2 SLOAD ADD DUP1 DUP3 SSTORE DUP1 SWAP2 POP POP PUSH1 0x1 SWAP1 SUB SWAP1 PUSH1 0x0 MSTORE PUSH1 0x20 PUSH1 0x0 KECCAK256 ADD PUSH1 0x0 SWAP1 SWAP2 SWAP1 SWAP2 SWAP1 SWAP2 PUSH2 0x100 EXP DUP2 SLOAD DUP2 PUSH20 0xFFFFFFFFFFFFFFFFFFFFFFFFFFFFFFFFFFFFFFFF MUL NOT AND SWAP1 DUP4 PUSH20 0xFFFFFFFFFFFFFFFFFFFFFFFFFFFFFFFFFFFFFFFF AND MUL OR SWAP1 SSTORE POP JUMPDEST POP POP JUMP JUMPDEST PUSH1 0x0 DUP1 PUSH1 0x0 JUMPDEST PUSH1 0xA DUP1 SLOAD SWAP1 POP DUP2 LT ISZERO PUSH2 0x1505 JUMPI PUSH1 0xA DUP2 DUP2 SLOAD DUP2 LT PUSH2 0x1486 JUMPI PUSH2 0x1485 PUSH2 0x2934 JUMP JUMPDEST JUMPDEST SWAP1 PUSH1 0x0 MSTORE PUSH1 0x20 PUSH1 0x0 KECCAK256 ADD PUSH1 0x0 SWAP1 SLOAD SWAP1 PUSH2 0x100 EXP SWAP1 DIV PUSH20 0xFFFFFFFFFFFFFFFFFFFFFFFFFFFFFFFFFFFFFFFF AND PUSH20 0xFFFFFFFFFFFFFFFFFFFFFFFFFFFFFFFFFFFFFFFF AND DUP5 PUSH20 0xFFFFFFFFFFFFFFFFFFFFFFFFFFFFFFFFFFFFFFFF AND EQ ISZERO PUSH2 0x14F1 JUMPI PUSH1 0x1 DUP2 SWAP3 POP SWAP3 POP POP PUSH2 0x150E JUMP JUMPDEST PUSH1 0x1 DUP2 PUSH2 0x14FE SWAP2 SWAP1 PUSH2 0x2538 JUMP JUMPDEST SWAP1 POP PUSH2 0x1465 JUMP JUMPDEST POP PUSH1 0x0 DUP1 SWAP2 POP SWAP2 POP JUMPDEST SWAP2 POP SWAP2 JUMP JUMPDEST PUSH2 0x151B PUSH2 0x160B JUMP JUMPDEST PUSH20 0xFFFFFFFFFFFFFFFFFFFFFFFFFFFFFFFFFFFFFFFF AND PUSH2 0x1539 PUSH2 0xD55 JUMP JUMPDEST PUSH20 0xFFFFFFFFFFFFFFFFFFFFFFFFFFFFFFFFFFFFFFFF AND EQ PUSH2 0x158F JUMPI PUSH1 0x40 MLOAD PUSH32 0x8C379A000000000000000000000000000000000000000000000000000000000 DUP2 MSTORE PUSH1 0x4 ADD PUSH2 0x1586 SWAP1 PUSH2 0x2426 JUMP JUMPDEST PUSH1 0x40 MLOAD DUP1 SWAP2 SUB SWAP1 REVERT JUMPDEST PUSH1 0x0 PUSH20 0xFFFFFFFFFFFFFFFFFFFFFFFFFFFFFFFFFFFFFFFF AND DUP2 PUSH20 0xFFFFFFFFFFFFFFFFFFFFFFFFFFFFFFFFFFFFFFFF AND EQ ISZERO PUSH2 0x15FF JUMPI PUSH1 0x40 MLOAD PUSH32 0x8C379A000000000000000000000000000000000000000000000000000000000 DUP2 MSTORE PUSH1 0x4 ADD PUSH2 0x15F6 SWAP1 PUSH2 0x23A6 JUMP JUMPDEST PUSH1 0x40 MLOAD DUP1 SWAP2 SUB SWAP1 REVERT JUMPDEST PUSH2 0x1608 DUP2 PUSH2 0x1AEB JUMP JUMPDEST POP JUMP JUMPDEST PUSH1 0x0 CALLER SWAP1 POP SWAP1 JUMP JUMPDEST PUSH1 0x0 PUSH20 0xFFFFFFFFFFFFFFFFFFFFFFFFFFFFFFFFFFFFFFFF AND DUP4 PUSH20 0xFFFFFFFFFFFFFFFFFFFFFFFFFFFFFFFFFFFFFFFF AND EQ ISZERO PUSH2 0x1683 JUMPI PUSH1 0x40 MLOAD PUSH32 0x8C379A000000000000000000000000000000000000000000000000000000000 DUP2 MSTORE PUSH1 0x4 ADD PUSH2 0x167A SWAP1 PUSH2 0x2486 JUMP JUMPDEST PUSH1 0x40 MLOAD DUP1 SWAP2 SUB SWAP1 REVERT JUMPDEST PUSH1 0x0 PUSH20 0xFFFFFFFFFFFFFFFFFFFFFFFFFFFFFFFFFFFFFFFF AND DUP3 PUSH20 0xFFFFFFFFFFFFFFFFFFFFFFFFFFFFFFFFFFFFFFFF AND EQ ISZERO PUSH2 0x16F3 JUMPI PUSH1 0x40 MLOAD PUSH32 0x8C379A000000000000000000000000000000000000000000000000000000000 DUP2 MSTORE PUSH1 0x4 ADD PUSH2 0x16EA SWAP1 PUSH2 0x23C6 JUMP JUMPDEST PUSH1 0x40 MLOAD DUP1 SWAP2 SUB SWAP1 REVERT JUMPDEST DUP1 PUSH1 0x1 PUSH1 0x0 DUP6 PUSH20 0xFFFFFFFFFFFFFFFFFFFFFFFFFFFFFFFFFFFFFFFF AND PUSH20 0xFFFFFFFFFFFFFFFFFFFFFFFFFFFFFFFFFFFFFFFF AND DUP2 MSTORE PUSH1 0x20 ADD SWAP1 DUP2 MSTORE PUSH1 0x20 ADD PUSH1 0x0 KECCAK256 PUSH1 0x0 DUP5 PUSH20 0xFFFFFFFFFFFFFFFFFFFFFFFFFFFFFFFFFFFFFFFF AND PUSH20 0xFFFFFFFFFFFFFFFFFFFFFFFFFFFFFFFFFFFFFFFF AND DUP2 MSTORE PUSH1 0x20 ADD SWAP1 DUP2 MSTORE PUSH1 0x20 ADD PUSH1 0x0 KECCAK256 DUP2 SWAP1 SSTORE POP DUP2 PUSH20 0xFFFFFFFFFFFFFFFFFFFFFFFFFFFFFFFFFFFFFFFF AND DUP4 PUSH20 0xFFFFFFFFFFFFFFFFFFFFFFFFFFFFFFFFFFFFFFFF AND PUSH32 0x8C5BE1E5EBEC7D5BD14F71427D1E84F3DD0314C0F7B2291E5B200AC8C7C3B925 DUP4 PUSH1 0x40 MLOAD PUSH2 0x17D1 SWAP2 SWAP1 PUSH2 0x24E6 JUMP JUMPDEST PUSH1 0x40 MLOAD DUP1 SWAP2 SUB SWAP1 LOG3 POP POP POP JUMP JUMPDEST PUSH1 0x0 PUSH2 0x17EA DUP5 DUP5 PUSH2 0x1339 JUMP JUMPDEST SWAP1 POP PUSH32 0xFFFFFFFFFFFFFFFFFFFFFFFFFFFFFFFFFFFFFFFFFFFFFFFFFFFFFFFFFFFFFFFF DUP2 EQ PUSH2 0x1864 JUMPI DUP2 DUP2 LT ISZERO PUSH2 0x1856 JUMPI PUSH1 0x40 MLOAD PUSH32 0x8C379A000000000000000000000000000000000000000000000000000000000 DUP2 MSTORE PUSH1 0x4 ADD PUSH2 0x184D SWAP1 PUSH2 0x23E6 JUMP JUMPDEST PUSH1 0x40 MLOAD DUP1 SWAP2 SUB SWAP1 REVERT JUMPDEST PUSH2 0x1863 DUP5 DUP5 DUP5 DUP5 SUB PUSH2 0x1613 JUMP JUMPDEST JUMPDEST POP POP POP POP JUMP JUMPDEST PUSH1 0x0 PUSH20 0xFFFFFFFFFFFFFFFFFFFFFFFFFFFFFFFFFFFFFFFF AND DUP4 PUSH20 0xFFFFFFFFFFFFFFFFFFFFFFFFFFFFFFFFFFFFFFFF AND EQ ISZERO PUSH2 0x18DA JUMPI PUSH1 0x40 MLOAD PUSH32 0x8C379A000000000000000000000000000000000000000000000000000000000 DUP2 MSTORE PUSH1 0x4 ADD PUSH2 0x18D1 SWAP1 PUSH2 0x2466 JUMP JUMPDEST PUSH1 0x40 MLOAD DUP1 SWAP2 SUB SWAP1 REVERT JUMPDEST PUSH1 0x0 PUSH20 0xFFFFFFFFFFFFFFFFFFFFFFFFFFFFFFFFFFFFFFFF AND DUP3 PUSH20 0xFFFFFFFFFFFFFFFFFFFFFFFFFFFFFFFFFFFFFFFF AND EQ ISZERO PUSH2 0x194A JUMPI PUSH1 0x40 MLOAD PUSH32 0x8C379A000000000000000000000000000000000000000000000000000000000 DUP2 MSTORE PUSH1 0x4 ADD PUSH2 0x1941 SWAP1 PUSH2 0x2366 JUMP JUMPDEST PUSH1 0x40 MLOAD DUP1 SWAP2 SUB SWAP1 REVERT JUMPDEST PUSH2 0x1955 DUP4 DUP4 DUP4 PUSH2 0x1EE8 JUMP JUMPDEST PUSH1 0x0 DUP1 PUSH1 0x0 DUP6 PUSH20 0xFFFFFFFFFFFFFFFFFFFFFFFFFFFFFFFFFFFFFFFF AND PUSH20 0xFFFFFFFFFFFFFFFFFFFFFFFFFFFFFFFFFFFFFFFF AND DUP2 MSTORE PUSH1 0x20 ADD SWAP1 DUP2 MSTORE PUSH1 0x20 ADD PUSH1 0x0 KECCAK256 SLOAD SWAP1 POP DUP2 DUP2 LT ISZERO PUSH2 0x19DB JUMPI PUSH1 0x40 MLOAD PUSH32 0x8C379A000000000000000000000000000000000000000000000000000000000 DUP2 MSTORE PUSH1 0x4 ADD PUSH2 0x19D2 SWAP1 PUSH2 0x2406 JUMP JUMPDEST PUSH1 0x40 MLOAD DUP1 SWAP2 SUB SWAP1 REVERT JUMPDEST DUP2 DUP2 SUB PUSH1 0x0 DUP1 DUP7 PUSH20 0xFFFFFFFFFFFFFFFFFFFFFFFFFFFFFFFFFFFFFFFF AND PUSH20 0xFFFFFFFFFFFFFFFFFFFFFFFFFFFFFFFFFFFFFFFF AND DUP2 MSTORE PUSH1 0x20 ADD SWAP1 DUP2 MSTORE PUSH1 0x20 ADD PUSH1 0x0 KECCAK256 DUP2 SWAP1 SSTORE POP DUP2 PUSH1 0x0 DUP1 DUP6 PUSH20 0xFFFFFFFFFFFFFFFFFFFFFFFFFFFFFFFFFFFFFFFF AND PUSH20 0xFFFFFFFFFFFFFFFFFFFFFFFFFFFFFFFFFFFFFFFF AND DUP2 MSTORE PUSH1 0x20 ADD SWAP1 DUP2 MSTORE PUSH1 0x20 ADD PUSH1 0x0 KECCAK256 PUSH1 0x0 DUP3 DUP3 SLOAD PUSH2 0x1A6E SWAP2 SWAP1 PUSH2 0x2538 JUMP JUMPDEST SWAP3 POP POP DUP2 SWAP1 SSTORE POP DUP3 PUSH20 0xFFFFFFFFFFFFFFFFFFFFFFFFFFFFFFFFFFFFFFFF AND DUP5 PUSH20 0xFFFFFFFFFFFFFFFFFFFFFFFFFFFFFFFFFFFFFFFF AND PUSH32 0xDDF252AD1BE2C89B69C2B068FC378DAA952BA7F163C4A11628F55A4DF523B3EF DUP5 PUSH1 0x40 MLOAD PUSH2 0x1AD2 SWAP2 SWAP1 PUSH2 0x24E6 JUMP JUMPDEST PUSH1 0x40 MLOAD DUP1 SWAP2 SUB SWAP1 LOG3 PUSH2 0x1AE5 DUP5 DUP5 DUP5 PUSH2 0x1EED JUMP JUMPDEST POP POP POP POP JUMP JUMPDEST PUSH1 0x0 PUSH1 0x5 PUSH1 0x0 SWAP1 SLOAD SWAP1 PUSH2 0x100 EXP SWAP1 DIV PUSH20 0xFFFFFFFFFFFFFFFFFFFFFFFFFFFFFFFFFFFFFFFF AND SWAP1 POP DUP2 PUSH1 0x5 PUSH1 0x0 PUSH2 0x100 EXP DUP2 SLOAD DUP2 PUSH20 0xFFFFFFFFFFFFFFFFFFFFFFFFFFFFFFFFFFFFFFFF MUL NOT AND SWAP1 DUP4 PUSH20 0xFFFFFFFFFFFFFFFFFFFFFFFFFFFFFFFFFFFFFFFF AND MUL OR SWAP1 SSTORE POP DUP2 PUSH20 0xFFFFFFFFFFFFFFFFFFFFFFFFFFFFFFFFFFFFFFFF AND DUP2 PUSH20 0xFFFFFFFFFFFFFFFFFFFFFFFFFFFFFFFFFFFFFFFF AND PUSH32 0x8BE0079C531659141344CD1FD0A4F28419497F9722A3DAAFE3B4186F6B6457E0 PUSH1 0x40 MLOAD PUSH1 0x40 MLOAD DUP1 SWAP2 SUB SWAP1 LOG3 POP POP JUMP JUMPDEST PUSH1 0x0 PUSH20 0xFFFFFFFFFFFFFFFFFFFFFFFFFFFFFFFFFFFFFFFF AND DUP3 PUSH20 0xFFFFFFFFFFFFFFFFFFFFFFFFFFFFFFFFFFFFFFFF AND EQ ISZERO PUSH2 0x1C21 JUMPI PUSH1 0x40 MLOAD PUSH32 0x8C379A000000000000000000000000000000000000000000000000000000000 DUP2 MSTORE PUSH1 0x4 ADD PUSH2 0x1C18 SWAP1 PUSH2 0x24C6 JUMP JUMPDEST PUSH1 0x40 MLOAD DUP1 SWAP2 SUB SWAP1 REVERT JUMPDEST PUSH2 0x1C2D PUSH1 0x0 DUP4 DUP4 PUSH2 0x1EE8 JUMP JUMPDEST DUP1 PUSH1 0x2 PUSH1 0x0 DUP3 DUP3 SLOAD PUSH2 0x1C3F SWAP2 SWAP1 PUSH2 0x2538 JUMP JUMPDEST SWAP3 POP POP DUP2 SWAP1 SSTORE POP DUP1 PUSH1 0x0 DUP1 DUP5 PUSH20 0xFFFFFFFFFFFFFFFFFFFFFFFFFFFFFFFFFFFFFFFF AND PUSH20 0xFFFFFFFFFFFFFFFFFFFFFFFFFFFFFFFFFFFFFFFF AND DUP2 MSTORE PUSH1 0x20 ADD SWAP1 DUP2 MSTORE PUSH1 0x20 ADD PUSH1 0x0 KECCAK256 PUSH1 0x0 DUP3 DUP3 SLOAD PUSH2 0x1C94 SWAP2 SWAP1 PUSH2 0x2538 JUMP JUMPDEST SWAP3 POP POP DUP2 SWAP1 SSTORE POP DUP2 PUSH20 0xFFFFFFFFFFFFFFFFFFFFFFFFFFFFFFFFFFFFFFFF AND PUSH1 0x0 PUSH20 0xFFFFFFFFFFFFFFFFFFFFFFFFFFFFFFFFFFFFFFFF AND PUSH32 0xDDF252AD1BE2C89B69C2B068FC378DAA952BA7F163C4A11628F55A4DF523B3EF DUP4 PUSH1 0x40 MLOAD PUSH2 0x1CF9 SWAP2 SWAP1 PUSH2 0x24E6 JUMP JUMPDEST PUSH1 0x40 MLOAD DUP1 SWAP2 SUB SWAP1 LOG3 PUSH2 0x1D0D PUSH1 0x0 DUP4 DUP4 PUSH2 0x1EED JUMP JUMPDEST POP POP JUMP JUMPDEST PUSH1 0x0 PUSH20 0xFFFFFFFFFFFFFFFFFFFFFFFFFFFFFFFFFFFFFFFF AND DUP3 PUSH20 0xFFFFFFFFFFFFFFFFFFFFFFFFFFFFFFFFFFFFFFFF AND EQ ISZERO PUSH2 0x1D81 JUMPI PUSH1 0x40 MLOAD PUSH32 0x8C379A000000000000000000000000000000000000000000000000000000000 DUP2 MSTORE PUSH1 0x4 ADD PUSH2 0x1D78 SWAP1 PUSH2 0x2446 JUMP JUMPDEST PUSH1 0x40 MLOAD DUP1 SWAP2 SUB SWAP1 REVERT JUMPDEST PUSH2 0x1D8D DUP3 PUSH1 0x0 DUP4 PUSH2 0x1EE8 JUMP JUMPDEST PUSH1 0x0 DUP1 PUSH1 0x0 DUP5 PUSH20 0xFFFFFFFFFFFFFFFFFFFFFFFFFFFFFFFFFFFFFFFF AND PUSH20 0xFFFFFFFFFFFFFFFFFFFFFFFFFFFFFFFFFFFFFFFF AND DUP2 MSTORE PUSH1 0x20 ADD SWAP1 DUP2 MSTORE PUSH1 0x20 ADD PUSH1 0x0 KECCAK256 SLOAD SWAP1 POP DUP2 DUP2 LT ISZERO PUSH2 0x1E13 JUMPI PUSH1 0x40 MLOAD PUSH32 0x8C379A000000000000000000000000000000000000000000000000000000000 DUP2 MSTORE PUSH1 0x4 ADD PUSH2 0x1E0A SWAP1 PUSH2 0x2386 JUMP JUMPDEST PUSH1 0x40 MLOAD DUP1 SWAP2 SUB SWAP1 REVERT JUMPDEST DUP2 DUP2 SUB PUSH1 0x0 DUP1 DUP6 PUSH20 0xFFFFFFFFFFFFFFFFFFFFFFFFFFFFFFFFFFFFFFFF AND PUSH20 0xFFFFFFFFFFFFFFFFFFFFFFFFFFFFFFFFFFFFFFFF AND DUP2 MSTORE PUSH1 0x20 ADD SWAP1 DUP2 MSTORE PUSH1 0x20 ADD PUSH1 0x0 KECCAK256 DUP2 SWAP1 SSTORE POP DUP2 PUSH1 0x2 PUSH1 0x0 DUP3 DUP3 SLOAD PUSH2 0x1E6A SWAP2 SWAP1 PUSH2 0x278A JUMP JUMPDEST SWAP3 POP POP DUP2 SWAP1 SSTORE POP PUSH1 0x0 PUSH20 0xFFFFFFFFFFFFFFFFFFFFFFFFFFFFFFFFFFFFFFFF AND DUP4 PUSH20 0xFFFFFFFFFFFFFFFFFFFFFFFFFFFFFFFFFFFFFFFF AND PUSH32 0xDDF252AD1BE2C89B69C2B068FC378DAA952BA7F163C4A11628F55A4DF523B3EF DUP5 PUSH1 0x40 MLOAD PUSH2 0x1ECF SWAP2 SWAP1 PUSH2 0x24E6 JUMP JUMPDEST PUSH1 0x40 MLOAD DUP1 SWAP2 SUB SWAP1 LOG3 PUSH2 0x1EE3 DUP4 PUSH1 0x0 DUP5 PUSH2 0x1EED JUMP JUMPDEST POP POP POP JUMP JUMPDEST POP POP POP JUMP JUMPDEST POP POP POP JUMP JUMPDEST PUSH1 0x0 DUP2 CALLDATALOAD SWAP1 POP PUSH2 0x1F01 DUP2 PUSH2 0x2D17 JUMP JUMPDEST SWAP3 SWAP2 POP POP JUMP JUMPDEST PUSH1 0x0 DUP2 CALLDATALOAD SWAP1 POP PUSH2 0x1F16 DUP2 PUSH2 0x2D2E JUMP JUMPDEST SWAP3 SWAP2 POP POP JUMP JUMPDEST PUSH1 0x0 PUSH1 0x20 DUP3 DUP5 SUB SLT ISZERO PUSH2 0x1F32 JUMPI PUSH2 0x1F31 PUSH2 0x2963 JUMP JUMPDEST JUMPDEST PUSH1 0x0 PUSH2 0x1F40 DUP5 DUP3 DUP6 ADD PUSH2 0x1EF2 JUMP JUMPDEST SWAP2 POP POP SWAP3 SWAP2 POP POP JUMP JUMPDEST PUSH1 0x0 DUP1 PUSH1 0x40 DUP4 DUP6 SUB SLT ISZERO PUSH2 0x1F60 JUMPI PUSH2 0x1F5F PUSH2 0x2963 JUMP JUMPDEST JUMPDEST PUSH1 0x0 PUSH2 0x1F6E DUP6 DUP3 DUP7 ADD PUSH2 0x1EF2 JUMP JUMPDEST SWAP3 POP POP PUSH1 0x20 PUSH2 0x1F7F DUP6 DUP3 DUP7 ADD PUSH2 0x1EF2 JUMP JUMPDEST SWAP2 POP POP SWAP3 POP SWAP3 SWAP1 POP JUMP JUMPDEST PUSH1 0x0 DUP1 PUSH1 0x0 PUSH1 0x60 DUP5 DUP7 SUB SLT ISZERO PUSH2 0x1FA2 JUMPI PUSH2 0x1FA1 PUSH2 0x2963 JUMP JUMPDEST JUMPDEST PUSH1 0x0 PUSH2 0x1FB0 DUP7 DUP3 DUP8 ADD PUSH2 0x1EF2 JUMP JUMPDEST SWAP4 POP POP PUSH1 0x20 PUSH2 0x1FC1 DUP7 DUP3 DUP8 ADD PUSH2 0x1EF2 JUMP JUMPDEST SWAP3 POP POP PUSH1 0x40 PUSH2 0x1FD2 DUP7 DUP3 DUP8 ADD PUSH2 0x1F07 JUMP JUMPDEST SWAP2 POP POP SWAP3 POP SWAP3 POP SWAP3 JUMP JUMPDEST PUSH1 0x0 DUP1 PUSH1 0x40 DUP4 DUP6 SUB SLT ISZERO PUSH2 0x1FF3 JUMPI PUSH2 0x1FF2 PUSH2 0x2963 JUMP JUMPDEST JUMPDEST PUSH1 0x0 PUSH2 0x2001 DUP6 DUP3 DUP7 ADD PUSH2 0x1EF2 JUMP JUMPDEST SWAP3 POP POP PUSH1 0x20 PUSH2 0x2012 DUP6 DUP3 DUP7 ADD PUSH2 0x1F07 JUMP JUMPDEST SWAP2 POP POP SWAP3 POP SWAP3 SWAP1 POP JUMP JUMPDEST PUSH1 0x0 PUSH1 0x20 DUP3 DUP5 SUB SLT ISZERO PUSH2 0x2032 JUMPI PUSH2 0x2031 PUSH2 0x2963 JUMP JUMPDEST JUMPDEST PUSH1 0x0 PUSH2 0x2040 DUP5 DUP3 DUP6 ADD PUSH2 0x1F07 JUMP JUMPDEST SWAP2 POP POP SWAP3 SWAP2 POP POP JUMP JUMPDEST PUSH1 0x0 DUP1 PUSH1 0x40 DUP4 DUP6 SUB SLT ISZERO PUSH2 0x2060 JUMPI PUSH2 0x205F PUSH2 0x2963 JUMP JUMPDEST JUMPDEST PUSH1 0x0 PUSH2 0x206E DUP6 DUP3 DUP7 ADD PUSH2 0x1F07 JUMP JUMPDEST SWAP3 POP POP PUSH1 0x20 PUSH2 0x207F DUP6 DUP3 DUP7 ADD PUSH2 0x1F07 JUMP JUMPDEST SWAP2 POP POP SWAP3 POP SWAP3 SWAP1 POP JUMP JUMPDEST PUSH2 0x2092 DUP2 PUSH2 0x27BE JUMP JUMPDEST DUP3 MSTORE POP POP JUMP JUMPDEST PUSH2 0x20A1 DUP2 PUSH2 0x27D0 JUMP JUMPDEST DUP3 MSTORE POP POP JUMP JUMPDEST PUSH1 0x0 PUSH2 0x20B2 DUP3 PUSH2 0x251C JUMP JUMPDEST PUSH2 0x20BC DUP2 DUP6 PUSH2 0x2527 JUMP JUMPDEST SWAP4 POP PUSH2 0x20CC DUP2 DUP6 PUSH1 0x20 DUP7 ADD PUSH2 0x2813 JUMP JUMPDEST PUSH2 0x20D5 DUP2 PUSH2 0x2968 JUMP JUMPDEST DUP5 ADD SWAP2 POP POP SWAP3 SWAP2 POP POP JUMP JUMPDEST PUSH1 0x0 PUSH2 0x20ED PUSH1 0x2D DUP4 PUSH2 0x2527 JUMP JUMPDEST SWAP2 POP PUSH2 0x20F8 DUP3 PUSH2 0x2986 JUMP JUMPDEST PUSH1 0x40 DUP3 ADD SWAP1 POP SWAP2 SWAP1 POP JUMP JUMPDEST PUSH1 0x0 PUSH2 0x2110 PUSH1 0x23 DUP4 PUSH2 0x2527 JUMP JUMPDEST SWAP2 POP PUSH2 0x211B DUP3 PUSH2 0x29D5 JUMP JUMPDEST PUSH1 0x40 DUP3 ADD SWAP1 POP SWAP2 SWAP1 POP JUMP JUMPDEST PUSH1 0x0 PUSH2 0x2133 PUSH1 0x22 DUP4 PUSH2 0x2527 JUMP JUMPDEST SWAP2 POP PUSH2 0x213E DUP3 PUSH2 0x2A24 JUMP JUMPDEST PUSH1 0x40 DUP3 ADD SWAP1 POP SWAP2 SWAP1 POP JUMP JUMPDEST PUSH1 0x0 PUSH2 0x2156 PUSH1 0x26 DUP4 PUSH2 0x2527 JUMP JUMPDEST SWAP2 POP PUSH2 0x2161 DUP3 PUSH2 0x2A73 JUMP JUMPDEST PUSH1 0x40 DUP3 ADD SWAP1 POP SWAP2 SWAP1 POP JUMP JUMPDEST PUSH1 0x0 PUSH2 0x2179 PUSH1 0x22 DUP4 PUSH2 0x2527 JUMP JUMPDEST SWAP2 POP PUSH2 0x2184 DUP3 PUSH2 0x2AC2 JUMP JUMPDEST PUSH1 0x40 DUP3 ADD SWAP1 POP SWAP2 SWAP1 POP JUMP JUMPDEST PUSH1 0x0 PUSH2 0x219C PUSH1 0x1D DUP4 PUSH2 0x2527 JUMP JUMPDEST SWAP2 POP PUSH2 0x21A7 DUP3 PUSH2 0x2B11 JUMP JUMPDEST PUSH1 0x20 DUP3 ADD SWAP1 POP SWAP2 SWAP1 POP JUMP JUMPDEST PUSH1 0x0 PUSH2 0x21BF PUSH1 0x26 DUP4 PUSH2 0x2527 JUMP JUMPDEST SWAP2 POP PUSH2 0x21CA DUP3 PUSH2 0x2B3A JUMP JUMPDEST PUSH1 0x40 DUP3 ADD SWAP1 POP SWAP2 SWAP1 POP JUMP JUMPDEST PUSH1 0x0 PUSH2 0x21E2 PUSH1 0x20 DUP4 PUSH2 0x2527 JUMP JUMPDEST SWAP2 POP PUSH2 0x21ED DUP3 PUSH2 0x2B89 JUMP JUMPDEST PUSH1 0x20 DUP3 ADD SWAP1 POP SWAP2 SWAP1 POP JUMP JUMPDEST PUSH1 0x0 PUSH2 0x2205 PUSH1 0x21 DUP4 PUSH2 0x2527 JUMP JUMPDEST SWAP2 POP PUSH2 0x2210 DUP3 PUSH2 0x2BB2 JUMP JUMPDEST PUSH1 0x40 DUP3 ADD SWAP1 POP SWAP2 SWAP1 POP JUMP JUMPDEST PUSH1 0x0 PUSH2 0x2228 PUSH1 0x25 DUP4 PUSH2 0x2527 JUMP JUMPDEST SWAP2 POP PUSH2 0x2233 DUP3 PUSH2 0x2C01 JUMP JUMPDEST PUSH1 0x40 DUP3 ADD SWAP1 POP SWAP2 SWAP1 POP JUMP JUMPDEST PUSH1 0x0 PUSH2 0x224B PUSH1 0x24 DUP4 PUSH2 0x2527 JUMP JUMPDEST SWAP2 POP PUSH2 0x2256 DUP3 PUSH2 0x2C50 JUMP JUMPDEST PUSH1 0x40 DUP3 ADD SWAP1 POP SWAP2 SWAP1 POP JUMP JUMPDEST PUSH1 0x0 PUSH2 0x226E PUSH1 0x25 DUP4 PUSH2 0x2527 JUMP JUMPDEST SWAP2 POP PUSH2 0x2279 DUP3 PUSH2 0x2C9F JUMP JUMPDEST PUSH1 0x40 DUP3 ADD SWAP1 POP SWAP2 SWAP1 POP JUMP JUMPDEST PUSH1 0x0 PUSH2 0x2291 PUSH1 0x1F DUP4 PUSH2 0x2527 JUMP JUMPDEST SWAP2 POP PUSH2 0x229C DUP3 PUSH2 0x2CEE JUMP JUMPDEST PUSH1 0x20 DUP3 ADD SWAP1 POP SWAP2 SWAP1 POP JUMP JUMPDEST PUSH2 0x22B0 DUP2 PUSH2 0x27FC JUMP JUMPDEST DUP3 MSTORE POP POP JUMP JUMPDEST PUSH2 0x22BF DUP2 PUSH2 0x2806 JUMP JUMPDEST DUP3 MSTORE POP POP JUMP JUMPDEST PUSH1 0x0 PUSH1 0x20 DUP3 ADD SWAP1 POP PUSH2 0x22DA PUSH1 0x0 DUP4 ADD DUP5 PUSH2 0x2089 JUMP JUMPDEST SWAP3 SWAP2 POP POP JUMP JUMPDEST PUSH1 0x0 PUSH1 0x20 DUP3 ADD SWAP1 POP PUSH2 0x22F5 PUSH1 0x0 DUP4 ADD DUP5 PUSH2 0x2098 JUMP JUMPDEST SWAP3 SWAP2 POP POP JUMP JUMPDEST PUSH1 0x0 PUSH1 0x40 DUP3 ADD SWAP1 POP PUSH2 0x2310 PUSH1 0x0 DUP4 ADD DUP6 PUSH2 0x2098 JUMP JUMPDEST PUSH2 0x231D PUSH1 0x20 DUP4 ADD DUP5 PUSH2 0x22A7 JUMP JUMPDEST SWAP4 SWAP3 POP POP POP JUMP JUMPDEST PUSH1 0x0 PUSH1 0x20 DUP3 ADD SWAP1 POP DUP2 DUP2 SUB PUSH1 0x0 DUP4 ADD MSTORE PUSH2 0x233E DUP2 DUP5 PUSH2 0x20A7 JUMP JUMPDEST SWAP1 POP SWAP3 SWAP2 POP POP JUMP JUMPDEST PUSH1 0x0 PUSH1 0x20 DUP3 ADD SWAP1 POP DUP2 DUP2 SUB PUSH1 0x0 DUP4 ADD MSTORE PUSH2 0x235F DUP2 PUSH2 0x20E0 JUMP JUMPDEST SWAP1 POP SWAP2 SWAP1 POP JUMP JUMPDEST PUSH1 0x0 PUSH1 0x20 DUP3 ADD SWAP1 POP DUP2 DUP2 SUB PUSH1 0x0 DUP4 ADD MSTORE PUSH2 0x237F DUP2 PUSH2 0x2103 JUMP JUMPDEST SWAP1 POP SWAP2 SWAP1 POP JUMP JUMPDEST PUSH1 0x0 PUSH1 0x20 DUP3 ADD SWAP1 POP DUP2 DUP2 SUB PUSH1 0x0 DUP4 ADD MSTORE PUSH2 0x239F DUP2 PUSH2 0x2126 JUMP JUMPDEST SWAP1 POP SWAP2 SWAP1 POP JUMP JUMPDEST PUSH1 0x0 PUSH1 0x20 DUP3 ADD SWAP1 POP DUP2 DUP2 SUB PUSH1 0x0 DUP4 ADD MSTORE PUSH2 0x23BF DUP2 PUSH2 0x2149 JUMP JUMPDEST SWAP1 POP SWAP2 SWAP1 POP JUMP JUMPDEST PUSH1 0x0 PUSH1 0x20 DUP3 ADD SWAP1 POP DUP2 DUP2 SUB PUSH1 0x0 DUP4 ADD MSTORE PUSH2 0x23DF DUP2 PUSH2 0x216C JUMP JUMPDEST SWAP1 POP SWAP2 SWAP1 POP JUMP JUMPDEST PUSH1 0x0 PUSH1 0x20 DUP3 ADD SWAP1 POP DUP2 DUP2 SUB PUSH1 0x0 DUP4 ADD MSTORE PUSH2 0x23FF DUP2 PUSH2 0x218F JUMP JUMPDEST SWAP1 POP SWAP2 SWAP1 POP JUMP JUMPDEST PUSH1 0x0 PUSH1 0x20 DUP3 ADD SWAP1 POP DUP2 DUP2 SUB PUSH1 0x0 DUP4 ADD MSTORE PUSH2 0x241F DUP2 PUSH2 0x21B2 JUMP JUMPDEST SWAP1 POP SWAP2 SWAP1 POP JUMP JUMPDEST PUSH1 0x0 PUSH1 0x20 DUP3 ADD SWAP1 POP DUP2 DUP2 SUB PUSH1 0x0 DUP4 ADD MSTORE PUSH2 0x243F DUP2 PUSH2 0x21D5 JUMP JUMPDEST SWAP1 POP SWAP2 SWAP1 POP JUMP JUMPDEST PUSH1 0x0 PUSH1 0x20 DUP3 ADD SWAP1 POP DUP2 DUP2 SUB PUSH1 0x0 DUP4 ADD MSTORE PUSH2 0x245F DUP2 PUSH2 0x21F8 JUMP JUMPDEST SWAP1 POP SWAP2 SWAP1 POP JUMP JUMPDEST PUSH1 0x0 PUSH1 0x20 DUP3 ADD SWAP1 POP DUP2 DUP2 SUB PUSH1 0x0 DUP4 ADD MSTORE PUSH2 0x247F DUP2 PUSH2 0x221B JUMP JUMPDEST SWAP1 POP SWAP2 SWAP1 POP JUMP JUMPDEST PUSH1 0x0 PUSH1 0x20 DUP3 ADD SWAP1 POP DUP2 DUP2 SUB PUSH1 0x0 DUP4 ADD MSTORE PUSH2 0x249F DUP2 PUSH2 0x223E JUMP JUMPDEST SWAP1 POP SWAP2 SWAP1 POP JUMP JUMPDEST PUSH1 0x0 PUSH1 0x20 DUP3 ADD SWAP1 POP DUP2 DUP2 SUB PUSH1 0x0 DUP4 ADD MSTORE PUSH2 0x24BF DUP2 PUSH2 0x2261 JUMP JUMPDEST SWAP1 POP SWAP2 SWAP1 POP JUMP JUMPDEST PUSH1 0x0 PUSH1 0x20 DUP3 ADD SWAP1 POP DUP2 DUP2 SUB PUSH1 0x0 DUP4 ADD MSTORE PUSH2 0x24DF DUP2 PUSH2 0x2284 JUMP JUMPDEST SWAP1 POP SWAP2 SWAP1 POP JUMP JUMPDEST PUSH1 0x0 PUSH1 0x20 DUP3 ADD SWAP1 POP PUSH2 0x24FB PUSH1 0x0 DUP4 ADD DUP5 PUSH2 0x22A7 JUMP JUMPDEST SWAP3 SWAP2 POP POP JUMP JUMPDEST PUSH1 0x0 PUSH1 0x20 DUP3 ADD SWAP1 POP PUSH2 0x2516 PUSH1 0x0 DUP4 ADD DUP5 PUSH2 0x22B6 JUMP JUMPDEST SWAP3 SWAP2 POP POP JUMP JUMPDEST PUSH1 0x0 DUP2 MLOAD SWAP1 POP SWAP2 SWAP1 POP JUMP JUMPDEST PUSH1 0x0 DUP3 DUP3 MSTORE PUSH1 0x20 DUP3 ADD SWAP1 POP SWAP3 SWAP2 POP POP JUMP JUMPDEST PUSH1 0x0 PUSH2 0x2543 DUP3 PUSH2 0x27FC JUMP JUMPDEST SWAP2 POP PUSH2 0x254E DUP4 PUSH2 0x27FC JUMP JUMPDEST SWAP3 POP DUP3 PUSH32 0xFFFFFFFFFFFFFFFFFFFFFFFFFFFFFFFFFFFFFFFFFFFFFFFFFFFFFFFFFFFFFFFF SUB DUP3 GT ISZERO PUSH2 0x2583 JUMPI PUSH2 0x2582 PUSH2 0x2878 JUMP JUMPDEST JUMPDEST DUP3 DUP3 ADD SWAP1 POP SWAP3 SWAP2 POP POP JUMP JUMPDEST PUSH1 0x0 PUSH2 0x2599 DUP3 PUSH2 0x27FC JUMP JUMPDEST SWAP2 POP PUSH2 0x25A4 DUP4 PUSH2 0x27FC JUMP JUMPDEST SWAP3 POP DUP3 PUSH2 0x25B4 JUMPI PUSH2 0x25B3 PUSH2 0x28A7 JUMP JUMPDEST JUMPDEST DUP3 DUP3 DIV SWAP1 POP SWAP3 SWAP2 POP POP JUMP JUMPDEST PUSH1 0x0 DUP1 DUP3 SWAP2 POP DUP4 SWAP1 POP JUMPDEST PUSH1 0x1 DUP6 GT ISZERO PUSH2 0x2609 JUMPI DUP1 DUP7 DIV DUP2 GT ISZERO PUSH2 0x25E5 JUMPI PUSH2 0x25E4 PUSH2 0x2878 JUMP JUMPDEST JUMPDEST PUSH1 0x1 DUP6 AND ISZERO PUSH2 0x25F4 JUMPI DUP1 DUP3 MUL SWAP2 POP JUMPDEST DUP1 DUP2 MUL SWAP1 POP PUSH2 0x2602 DUP6 PUSH2 0x2979 JUMP JUMPDEST SWAP5 POP PUSH2 0x25C9 JUMP JUMPDEST SWAP5 POP SWAP5 SWAP3 POP POP POP JUMP JUMPDEST PUSH1 0x0 PUSH2 0x261D DUP3 PUSH2 0x27FC JUMP JUMPDEST SWAP2 POP PUSH2 0x2628 DUP4 PUSH2 0x2806 JUMP JUMPDEST SWAP3 POP PUSH2 0x2655 PUSH32 0xFFFFFFFFFFFFFFFFFFFFFFFFFFFFFFFFFFFFFFFFFFFFFFFFFFFFFFFFFFFFFFFF DUP5 DUP5 PUSH2 0x265D JUMP JUMPDEST SWAP1 POP SWAP3 SWAP2 POP POP JUMP JUMPDEST PUSH1 0x0 DUP3 PUSH2 0x266D JUMPI PUSH1 0x1 SWAP1 POP PUSH2 0x2729 JUMP JUMPDEST DUP2 PUSH2 0x267B JUMPI PUSH1 0x0 SWAP1 POP PUSH2 0x2729 JUMP JUMPDEST DUP2 PUSH1 0x1 DUP2 EQ PUSH2 0x2691 JUMPI PUSH1 0x2 DUP2 EQ PUSH2 0x269B JUMPI PUSH2 0x26CA JUMP JUMPDEST PUSH1 0x1 SWAP2 POP POP PUSH2 0x2729 JUMP JUMPDEST PUSH1 0xFF DUP5 GT ISZERO PUSH2 0x26AD JUMPI PUSH2 0x26AC PUSH2 0x2878 JUMP JUMPDEST JUMPDEST DUP4 PUSH1 0x2 EXP SWAP2 POP DUP5 DUP3 GT ISZERO PUSH2 0x26C4 JUMPI PUSH2 0x26C3 PUSH2 0x2878 JUMP JUMPDEST JUMPDEST POP PUSH2 0x2729 JUMP JUMPDEST POP PUSH1 0x20 DUP4 LT PUSH2 0x133 DUP4 LT AND PUSH1 0x4E DUP5 LT PUSH1 0xB DUP5 LT AND OR ISZERO PUSH2 0x26FF JUMPI DUP3 DUP3 EXP SWAP1 POP DUP4 DUP2 GT ISZERO PUSH2 0x26FA JUMPI PUSH2 0x26F9 PUSH2 0x2878 JUMP JUMPDEST JUMPDEST PUSH2 0x2729 JUMP JUMPDEST PUSH2 0x270C DUP5 DUP5 DUP5 PUSH1 0x1 PUSH2 0x25BF JUMP JUMPDEST SWAP3 POP SWAP1 POP DUP2 DUP5 DIV DUP2 GT ISZERO PUSH2 0x2723 JUMPI PUSH2 0x2722 PUSH2 0x2878 JUMP JUMPDEST JUMPDEST DUP2 DUP2 MUL SWAP1 POP JUMPDEST SWAP4 SWAP3 POP POP POP JUMP JUMPDEST PUSH1 0x0 PUSH2 0x273B DUP3 PUSH2 0x27FC JUMP JUMPDEST SWAP2 POP PUSH2 0x2746 DUP4 PUSH2 0x27FC JUMP JUMPDEST SWAP3 POP DUP2 PUSH32 0xFFFFFFFFFFFFFFFFFFFFFFFFFFFFFFFFFFFFFFFFFFFFFFFFFFFFFFFFFFFFFFFF DIV DUP4 GT DUP3 ISZERO ISZERO AND ISZERO PUSH2 0x277F JUMPI PUSH2 0x277E PUSH2 0x2878 JUMP JUMPDEST JUMPDEST DUP3 DUP3 MUL SWAP1 POP SWAP3 SWAP2 POP POP JUMP JUMPDEST PUSH1 0x0 PUSH2 0x2795 DUP3 PUSH2 0x27FC JUMP JUMPDEST SWAP2 POP PUSH2 0x27A0 DUP4 PUSH2 0x27FC JUMP JUMPDEST SWAP3 POP DUP3 DUP3 LT ISZERO PUSH2 0x27B3 JUMPI PUSH2 0x27B2 PUSH2 0x2878 JUMP JUMPDEST JUMPDEST DUP3 DUP3 SUB SWAP1 POP SWAP3 SWAP2 POP POP JUMP JUMPDEST PUSH1 0x0 PUSH2 0x27C9 DUP3 PUSH2 0x27DC JUMP JUMPDEST SWAP1 POP SWAP2 SWAP1 POP JUMP JUMPDEST PUSH1 0x0 DUP2 ISZERO ISZERO SWAP1 POP SWAP2 SWAP1 POP JUMP JUMPDEST PUSH1 0x0 PUSH20 0xFFFFFFFFFFFFFFFFFFFFFFFFFFFFFFFFFFFFFFFF DUP3 AND SWAP1 POP SWAP2 SWAP1 POP JUMP JUMPDEST PUSH1 0x0 DUP2 SWAP1 POP SWAP2 SWAP1 POP JUMP JUMPDEST PUSH1 0x0 PUSH1 0xFF DUP3 AND SWAP1 POP SWAP2 SWAP1 POP JUMP JUMPDEST PUSH1 0x0 JUMPDEST DUP4 DUP2 LT ISZERO PUSH2 0x2831 JUMPI DUP1 DUP3 ADD MLOAD DUP2 DUP5 ADD MSTORE PUSH1 0x20 DUP2 ADD SWAP1 POP PUSH2 0x2816 JUMP JUMPDEST DUP4 DUP2 GT ISZERO PUSH2 0x2840 JUMPI PUSH1 0x0 DUP5 DUP5 ADD MSTORE JUMPDEST POP POP POP POP JUMP JUMPDEST PUSH1 0x0 PUSH1 0x2 DUP3 DIV SWAP1 POP PUSH1 0x1 DUP3 AND DUP1 PUSH2 0x285E JUMPI PUSH1 0x7F DUP3 AND SWAP2 POP JUMPDEST PUSH1 0x20 DUP3 LT DUP2 EQ ISZERO PUSH2 0x2872 JUMPI PUSH2 0x2871 PUSH2 0x28D6 JUMP JUMPDEST JUMPDEST POP SWAP2 SWAP1 POP JUMP JUMPDEST PUSH32 0x4E487B7100000000000000000000000000000000000000000000000000000000 PUSH1 0x0 MSTORE PUSH1 0x11 PUSH1 0x4 MSTORE PUSH1 0x24 PUSH1 0x0 REVERT JUMPDEST PUSH32 0x4E487B7100000000000000000000000000000000000000000000000000000000 PUSH1 0x0 MSTORE PUSH1 0x12 PUSH1 0x4 MSTORE PUSH1 0x24 PUSH1 0x0 REVERT JUMPDEST PUSH32 0x4E487B7100000000000000000000000000000000000000000000000000000000 PUSH1 0x0 MSTORE PUSH1 0x22 PUSH1 0x4 MSTORE PUSH1 0x24 PUSH1 0x0 REVERT JUMPDEST PUSH32 0x4E487B7100000000000000000000000000000000000000000000000000000000 PUSH1 0x0 MSTORE PUSH1 0x31 PUSH1 0x4 MSTORE PUSH1 0x24 PUSH1 0x0 REVERT JUMPDEST PUSH32 0x4E487B7100000000000000000000000000000000000000000000000000000000 PUSH1 0x0 MSTORE PUSH1 0x32 PUSH1 0x4 MSTORE PUSH1 0x24 PUSH1 0x0 REVERT JUMPDEST PUSH1 0x0 DUP1 REVERT JUMPDEST PUSH1 0x0 PUSH1 0x1F NOT PUSH1 0x1F DUP4 ADD AND SWAP1 POP SWAP2 SWAP1 POP JUMP JUMPDEST PUSH1 0x0 DUP2 PUSH1 0x1 SHR SWAP1 POP SWAP2 SWAP1 POP JUMP JUMPDEST PUSH32 0x4F6E6C7920746865204F776E65722063616E2073657420746865207072696365 PUSH1 0x0 DUP3 ADD MSTORE PUSH32 0x206F662074686520746F6B656E00000000000000000000000000000000000000 PUSH1 0x20 DUP3 ADD MSTORE POP JUMP JUMPDEST PUSH32 0x45524332303A207472616E7366657220746F20746865207A65726F2061646472 PUSH1 0x0 DUP3 ADD MSTORE PUSH32 0x6573730000000000000000000000000000000000000000000000000000000000 PUSH1 0x20 DUP3 ADD MSTORE POP JUMP JUMPDEST PUSH32 0x45524332303A206275726E20616D6F756E7420657863656564732062616C616E PUSH1 0x0 DUP3 ADD MSTORE PUSH32 0x6365000000000000000000000000000000000000000000000000000000000000 PUSH1 0x20 DUP3 ADD MSTORE POP JUMP JUMPDEST PUSH32 0x4F776E61626C653A206E6577206F776E657220697320746865207A65726F2061 PUSH1 0x0 DUP3 ADD MSTORE PUSH32 0x6464726573730000000000000000000000000000000000000000000000000000 PUSH1 0x20 DUP3 ADD MSTORE POP JUMP JUMPDEST PUSH32 0x45524332303A20617070726F766520746F20746865207A65726F206164647265 PUSH1 0x0 DUP3 ADD MSTORE PUSH32 0x7373000000000000000000000000000000000000000000000000000000000000 PUSH1 0x20 DUP3 ADD MSTORE POP JUMP JUMPDEST PUSH32 0x45524332303A20696E73756666696369656E7420616C6C6F77616E6365000000 PUSH1 0x0 DUP3 ADD MSTORE POP JUMP JUMPDEST PUSH32 0x45524332303A207472616E7366657220616D6F756E7420657863656564732062 PUSH1 0x0 DUP3 ADD MSTORE PUSH32 0x616C616E63650000000000000000000000000000000000000000000000000000 PUSH1 0x20 DUP3 ADD MSTORE POP JUMP JUMPDEST PUSH32 0x4F776E61626C653A2063616C6C6572206973206E6F7420746865206F776E6572 PUSH1 0x0 DUP3 ADD MSTORE POP JUMP JUMPDEST PUSH32 0x45524332303A206275726E2066726F6D20746865207A65726F20616464726573 PUSH1 0x0 DUP3 ADD MSTORE PUSH32 0x7300000000000000000000000000000000000000000000000000000000000000 PUSH1 0x20 DUP3 ADD MSTORE POP JUMP JUMPDEST PUSH32 0x45524332303A207472616E736665722066726F6D20746865207A65726F206164 PUSH1 0x0 DUP3 ADD MSTORE PUSH32 0x6472657373000000000000000000000000000000000000000000000000000000 PUSH1 0x20 DUP3 ADD MSTORE POP JUMP JUMPDEST PUSH32 0x45524332303A20617070726F76652066726F6D20746865207A65726F20616464 PUSH1 0x0 DUP3 ADD MSTORE PUSH32 0x7265737300000000000000000000000000000000000000000000000000000000 PUSH1 0x20 DUP3 ADD MSTORE POP JUMP JUMPDEST PUSH32 0x45524332303A2064656372656173656420616C6C6F77616E63652062656C6F77 PUSH1 0x0 DUP3 ADD MSTORE PUSH32 0x207A65726F000000000000000000000000000000000000000000000000000000 PUSH1 0x20 DUP3 ADD MSTORE POP JUMP JUMPDEST PUSH32 0x45524332303A206D696E7420746F20746865207A65726F206164647265737300 PUSH1 0x0 DUP3 ADD MSTORE POP JUMP JUMPDEST PUSH2 0x2D20 DUP2 PUSH2 0x27BE JUMP JUMPDEST DUP2 EQ PUSH2 0x2D2B JUMPI PUSH1 0x0 DUP1 REVERT JUMPDEST POP JUMP JUMPDEST PUSH2 0x2D37 DUP2 PUSH2 0x27FC JUMP JUMPDEST DUP2 EQ PUSH2 0x2D42 JUMPI PUSH1 0x0 DUP1 REVERT JUMPDEST POP JUMP INVALID LOG2 PUSH5 0x6970667358 0x22 SLT KECCAK256 SWAP13 0xD5 0xB3 PUSH20 0x7212BCFE0627324C4B6842AAF99417FB44F0012A 0xDD 0x1E GASPRICE 0xCC 0xAF JUMPDEST DIV SHL PUSH5 0x736F6C6343 STOP ADDMOD SMOD STOP CALLER "
				},
				"gasEstimates": {
					"creation": {
						"codeDepositCost": "2328600",
						"executionCost": "infinite",
						"totalCost": "infinite"
					},
					"external": {
						"_buyTokenPrice()": "2497",
						"_owner()": "2603",
						"addStakeholder(address)": "infinite",
						"allowance(address,address)": "infinite",
						"approve(address,uint256)": "infinite",
						"balanceOf(address)": "2930",
						"buyToken(address)": "infinite",
						"calculateReward(address)": "infinite",
						"checkTime()": "infinite",
						"createStake(uint256,uint256)": "infinite",
						"decimals()": "389",
						"decreaseAllowance(address,uint256)": "infinite",
						"distributeRewards()": "infinite",
						"increaseAllowance(address,uint256)": "infinite",
						"isStakeholder(address)": "infinite",
						"name()": "infinite",
						"owner()": "2590",
						"removeStake(uint256)": "infinite",
						"removeStakeholder(address)": "infinite",
						"renounceOwnership()": "30485",
						"rewardOf(address)": "2931",
						"setTokenBuyPrice(uint256)": "24735",
						"stakeOf(address)": "2953",
						"symbol()": "infinite",
						"totalRewards()": "infinite",
						"totalSupply()": "2505",
						"transfer(address,uint256)": "infinite",
						"transferFrom(address,address,uint256)": "infinite",
						"transferOwnership(address)": "30833",
						"withdrawReward()": "infinite",
						"zenyaPerEth()": "2476"
					}
				},
				"methodIdentifiers": {
					"_buyTokenPrice()": "35789c8b",
					"_owner()": "b2bdfa7b",
					"addStakeholder(address)": "e5c42fd1",
					"allowance(address,address)": "dd62ed3e",
					"approve(address,uint256)": "095ea7b3",
					"balanceOf(address)": "70a08231",
					"buyToken(address)": "7e72fb52",
					"calculateReward(address)": "d82e3962",
					"checkTime()": "e0c6190d",
					"createStake(uint256,uint256)": "d7fa023d",
					"decimals()": "313ce567",
					"decreaseAllowance(address,uint256)": "a457c2d7",
					"distributeRewards()": "6f4a2cd0",
					"increaseAllowance(address,uint256)": "39509351",
					"isStakeholder(address)": "ef037b90",
					"name()": "06fdde03",
					"owner()": "8da5cb5b",
					"removeStake(uint256)": "939624ab",
					"removeStakeholder(address)": "bcb0c2d7",
					"renounceOwnership()": "715018a6",
					"rewardOf(address)": "1d62ebd9",
					"setTokenBuyPrice(uint256)": "4be21e33",
					"stakeOf(address)": "42623360",
					"symbol()": "95d89b41",
					"totalRewards()": "0e15561a",
					"totalSupply()": "18160ddd",
					"transfer(address,uint256)": "a9059cbb",
					"transferFrom(address,address,uint256)": "23b872dd",
					"transferOwnership(address)": "f2fde38b",
					"withdrawReward()": "c885bc58",
					"zenyaPerEth()": "046e2edb"
				}
			},
			"userdoc": {
				"kind": "user",
				"methods": {},
				"version": 1
			}
		}
	}
}