{
	"contracts/ZenyaStake.sol": {
		"ZenyaStake": {
			"abi": [
				{
					"inputs": [],
					"stateMutability": "nonpayable",
					"type": "constructor"
				},
				{
					"anonymous": false,
					"inputs": [
						{
							"indexed": true,
							"internalType": "address",
							"name": "owner",
							"type": "address"
						},
						{
							"indexed": true,
							"internalType": "address",
							"name": "spender",
							"type": "address"
						},
						{
							"indexed": false,
							"internalType": "uint256",
							"name": "value",
							"type": "uint256"
						}
					],
					"name": "Approval",
					"type": "event"
				},
				{
					"anonymous": false,
					"inputs": [
						{
							"indexed": true,
							"internalType": "address",
							"name": "previousOwner",
							"type": "address"
						},
						{
							"indexed": true,
							"internalType": "address",
							"name": "newOwner",
							"type": "address"
						}
					],
					"name": "OwnershipTransferred",
					"type": "event"
				},
				{
					"anonymous": false,
					"inputs": [
						{
							"indexed": true,
							"internalType": "address",
							"name": "from",
							"type": "address"
						},
						{
							"indexed": true,
							"internalType": "address",
							"name": "to",
							"type": "address"
						},
						{
							"indexed": false,
							"internalType": "uint256",
							"name": "value",
							"type": "uint256"
						}
					],
					"name": "Transfer",
					"type": "event"
				},
				{
					"inputs": [],
					"name": "_buyTokenPrice",
					"outputs": [
						{
							"internalType": "uint256",
							"name": "",
							"type": "uint256"
						}
					],
					"stateMutability": "view",
					"type": "function"
				},
				{
					"inputs": [],
					"name": "_owner",
					"outputs": [
						{
							"internalType": "address",
							"name": "",
							"type": "address"
						}
					],
					"stateMutability": "view",
					"type": "function"
				},
				{
					"inputs": [
						{
							"internalType": "address",
							"name": "_stakeholder",
							"type": "address"
						}
					],
					"name": "addStakeholder",
					"outputs": [],
					"stateMutability": "nonpayable",
					"type": "function"
				},
				{
					"inputs": [
						{
							"internalType": "address",
							"name": "owner",
							"type": "address"
						},
						{
							"internalType": "address",
							"name": "spender",
							"type": "address"
						}
					],
					"name": "allowance",
					"outputs": [
						{
							"internalType": "uint256",
							"name": "",
							"type": "uint256"
						}
					],
					"stateMutability": "view",
					"type": "function"
				},
				{
					"inputs": [
						{
							"internalType": "address",
							"name": "spender",
							"type": "address"
						},
						{
							"internalType": "uint256",
							"name": "amount",
							"type": "uint256"
						}
					],
					"name": "approve",
					"outputs": [
						{
							"internalType": "bool",
							"name": "",
							"type": "bool"
						}
					],
					"stateMutability": "nonpayable",
					"type": "function"
				},
				{
					"inputs": [
						{
							"internalType": "address",
							"name": "account",
							"type": "address"
						}
					],
					"name": "balanceOf",
					"outputs": [
						{
							"internalType": "uint256",
							"name": "",
							"type": "uint256"
						}
					],
					"stateMutability": "view",
					"type": "function"
				},
				{
					"inputs": [
						{
							"internalType": "address",
							"name": "receiver",
							"type": "address"
						}
					],
					"name": "buyToken",
					"outputs": [],
					"stateMutability": "payable",
					"type": "function"
				},
				{
					"inputs": [
						{
							"internalType": "address",
							"name": "_stakeholder",
							"type": "address"
						}
					],
					"name": "calculateReward",
					"outputs": [
						{
							"internalType": "uint256",
							"name": "",
							"type": "uint256"
						}
					],
					"stateMutability": "view",
					"type": "function"
				},
				{
					"inputs": [],
					"name": "checkTime",
					"outputs": [
						{
							"internalType": "bool",
							"name": "",
							"type": "bool"
						}
					],
					"stateMutability": "nonpayable",
					"type": "function"
				},
				{
					"inputs": [
						{
							"internalType": "uint256",
							"name": "_stake",
							"type": "uint256"
						}
					],
					"name": "createStake",
					"outputs": [],
					"stateMutability": "nonpayable",
					"type": "function"
				},
				{
					"inputs": [],
					"name": "decimals",
					"outputs": [
						{
							"internalType": "uint8",
							"name": "",
							"type": "uint8"
						}
					],
					"stateMutability": "view",
					"type": "function"
				},
				{
					"inputs": [
						{
							"internalType": "address",
							"name": "spender",
							"type": "address"
						},
						{
							"internalType": "uint256",
							"name": "subtractedValue",
							"type": "uint256"
						}
					],
					"name": "decreaseAllowance",
					"outputs": [
						{
							"internalType": "bool",
							"name": "",
							"type": "bool"
						}
					],
					"stateMutability": "nonpayable",
					"type": "function"
				},
				{
					"inputs": [],
					"name": "distributeRewards",
					"outputs": [],
					"stateMutability": "nonpayable",
					"type": "function"
				},
				{
					"inputs": [
						{
							"internalType": "address",
							"name": "spender",
							"type": "address"
						},
						{
							"internalType": "uint256",
							"name": "addedValue",
							"type": "uint256"
						}
					],
					"name": "increaseAllowance",
					"outputs": [
						{
							"internalType": "bool",
							"name": "",
							"type": "bool"
						}
					],
					"stateMutability": "nonpayable",
					"type": "function"
				},
				{
					"inputs": [
						{
							"internalType": "address",
							"name": "_address",
							"type": "address"
						}
					],
					"name": "isStakeholder",
					"outputs": [
						{
							"internalType": "bool",
							"name": "",
							"type": "bool"
						},
						{
							"internalType": "uint256",
							"name": "",
							"type": "uint256"
						}
					],
					"stateMutability": "view",
					"type": "function"
				},
				{
					"inputs": [],
					"name": "name",
					"outputs": [
						{
							"internalType": "string",
							"name": "",
							"type": "string"
						}
					],
					"stateMutability": "view",
					"type": "function"
				},
				{
					"inputs": [],
					"name": "owner",
					"outputs": [
						{
							"internalType": "address",
							"name": "",
							"type": "address"
						}
					],
					"stateMutability": "view",
					"type": "function"
				},
				{
					"inputs": [
						{
							"internalType": "uint256",
							"name": "_stake",
							"type": "uint256"
						}
					],
					"name": "removeStake",
					"outputs": [],
					"stateMutability": "nonpayable",
					"type": "function"
				},
				{
					"inputs": [
						{
							"internalType": "address",
							"name": "_stakeholder",
							"type": "address"
						}
					],
					"name": "removeStakeholder",
					"outputs": [],
					"stateMutability": "nonpayable",
					"type": "function"
				},
				{
					"inputs": [],
					"name": "renounceOwnership",
					"outputs": [],
					"stateMutability": "nonpayable",
					"type": "function"
				},
				{
					"inputs": [
						{
							"internalType": "address",
							"name": "_stakeholder",
							"type": "address"
						}
					],
					"name": "rewardOf",
					"outputs": [
						{
							"internalType": "uint256",
							"name": "",
							"type": "uint256"
						}
					],
					"stateMutability": "view",
					"type": "function"
				},
				{
					"inputs": [
						{
							"internalType": "uint256",
							"name": "buyPrice",
							"type": "uint256"
						}
					],
					"name": "setTokenBuyPrice",
					"outputs": [],
					"stateMutability": "nonpayable",
					"type": "function"
				},
				{
					"inputs": [
						{
							"internalType": "address",
							"name": "_stakeholder",
							"type": "address"
						}
					],
					"name": "stakeOf",
					"outputs": [
						{
							"internalType": "uint256",
							"name": "",
							"type": "uint256"
						}
					],
					"stateMutability": "view",
					"type": "function"
				},
				{
					"inputs": [],
					"name": "symbol",
					"outputs": [
						{
							"internalType": "string",
							"name": "",
							"type": "string"
						}
					],
					"stateMutability": "view",
					"type": "function"
				},
				{
					"inputs": [],
					"name": "totalRewards",
					"outputs": [
						{
							"internalType": "uint256",
							"name": "",
							"type": "uint256"
						}
					],
					"stateMutability": "view",
					"type": "function"
				},
				{
					"inputs": [],
					"name": "totalSupply",
					"outputs": [
						{
							"internalType": "uint256",
							"name": "",
							"type": "uint256"
						}
					],
					"stateMutability": "view",
					"type": "function"
				},
				{
					"inputs": [
						{
							"internalType": "address",
							"name": "to",
							"type": "address"
						},
						{
							"internalType": "uint256",
							"name": "amount",
							"type": "uint256"
						}
					],
					"name": "transfer",
					"outputs": [
						{
							"internalType": "bool",
							"name": "",
							"type": "bool"
						}
					],
					"stateMutability": "nonpayable",
					"type": "function"
				},
				{
					"inputs": [
						{
							"internalType": "address",
							"name": "from",
							"type": "address"
						},
						{
							"internalType": "address",
							"name": "to",
							"type": "address"
						},
						{
							"internalType": "uint256",
							"name": "amount",
							"type": "uint256"
						}
					],
					"name": "transferFrom",
					"outputs": [
						{
							"internalType": "bool",
							"name": "",
							"type": "bool"
						}
					],
					"stateMutability": "nonpayable",
					"type": "function"
				},
				{
					"inputs": [
						{
							"internalType": "address",
							"name": "newOwner",
							"type": "address"
						}
					],
					"name": "transferOwnership",
					"outputs": [],
					"stateMutability": "nonpayable",
					"type": "function"
				},
				{
					"inputs": [],
					"name": "withdrawReward",
					"outputs": [],
					"stateMutability": "nonpayable",
					"type": "function"
				},
				{
					"inputs": [],
					"name": "zenyaPerEth",
					"outputs": [
						{
							"internalType": "uint256",
							"name": "",
							"type": "uint256"
						}
					],
					"stateMutability": "view",
					"type": "function"
				}
			],
			"devdoc": {
				"kind": "dev",
				"methods": {
					"allowance(address,address)": {
						"details": "See {IERC20-allowance}."
					},
					"approve(address,uint256)": {
						"details": "See {IERC20-approve}. NOTE: If `amount` is the maximum `uint256`, the allowance is not updated on `transferFrom`. This is semantically equivalent to an infinite approval. Requirements: - `spender` cannot be the zero address."
					},
					"balanceOf(address)": {
						"details": "See {IERC20-balanceOf}."
					},
					"decimals()": {
						"details": "Returns the number of decimals used to get its user representation. For example, if `decimals` equals `2`, a balance of `505` tokens should be displayed to a user as `5.05` (`505 / 10 ** 2`). Tokens usually opt for a value of 18, imitating the relationship between Ether and Wei. This is the value {ERC20} uses, unless this function is overridden; NOTE: This information is only used for _display_ purposes: it in no way affects any of the arithmetic of the contract, including {IERC20-balanceOf} and {IERC20-transfer}."
					},
					"decreaseAllowance(address,uint256)": {
						"details": "Atomically decreases the allowance granted to `spender` by the caller. This is an alternative to {approve} that can be used as a mitigation for problems described in {IERC20-approve}. Emits an {Approval} event indicating the updated allowance. Requirements: - `spender` cannot be the zero address. - `spender` must have allowance for the caller of at least `subtractedValue`."
					},
					"increaseAllowance(address,uint256)": {
						"details": "Atomically increases the allowance granted to `spender` by the caller. This is an alternative to {approve} that can be used as a mitigation for problems described in {IERC20-approve}. Emits an {Approval} event indicating the updated allowance. Requirements: - `spender` cannot be the zero address."
					},
					"name()": {
						"details": "Returns the name of the token."
					},
					"owner()": {
						"details": "Returns the address of the current owner."
					},
					"renounceOwnership()": {
						"details": "Leaves the contract without owner. It will not be possible to call `onlyOwner` functions anymore. Can only be called by the current owner. NOTE: Renouncing ownership will leave the contract without an owner, thereby removing any functionality that is only available to the owner."
					},
					"symbol()": {
						"details": "Returns the symbol of the token, usually a shorter version of the name."
					},
					"totalSupply()": {
						"details": "See {IERC20-totalSupply}."
					},
					"transfer(address,uint256)": {
						"details": "See {IERC20-transfer}. Requirements: - `to` cannot be the zero address. - the caller must have a balance of at least `amount`."
					},
					"transferFrom(address,address,uint256)": {
						"details": "See {IERC20-transferFrom}. Emits an {Approval} event indicating the updated allowance. This is not required by the EIP. See the note at the beginning of {ERC20}. NOTE: Does not update the allowance if the current allowance is the maximum `uint256`. Requirements: - `from` and `to` cannot be the zero address. - `from` must have a balance of at least `amount`. - the caller must have allowance for ``from``'s tokens of at least `amount`."
					},
					"transferOwnership(address)": {
						"details": "Transfers ownership of the contract to a new account (`newOwner`). Can only be called by the current owner."
					}
				},
				"version": 1
			},
			"evm": {
				"assembly": "    /* \"contracts/ZenyaStake.sol\":173:5328  contract ZenyaStake is ERC20, Ownable  {\r... */\n  mstore(0x40, 0x80)\n    /* \"contracts/ZenyaStake.sol\":983:1086  constructor() ERC20(\"ZenyaStake\", \"ZNYS\") {\r... */\n  callvalue\n  dup1\n  iszero\n  tag_1\n  jumpi\n  0x00\n  dup1\n  revert\ntag_1:\n  pop\n    /* \"@openzeppelin/contracts/token/ERC20/ERC20.sol\":1978:2091  constructor(string memory name_, string memory symbol_) {... */\n  mload(0x40)\n  dup1\n  0x40\n  add\n  0x40\n  mstore\n  dup1\n  0x0a\n  dup2\n  mstore\n  0x20\n  add\n  0x5a656e79615374616b6500000000000000000000000000000000000000000000\n  dup2\n  mstore\n  pop\n  mload(0x40)\n  dup1\n  0x40\n  add\n  0x40\n  mstore\n  dup1\n  0x04\n  dup2\n  mstore\n  0x20\n  add\n  0x5a4e595300000000000000000000000000000000000000000000000000000000\n  dup2\n  mstore\n  pop\n    /* \"@openzeppelin/contracts/token/ERC20/ERC20.sol\":2052:2057  name_ */\n  dup2\n    /* \"@openzeppelin/contracts/token/ERC20/ERC20.sol\":2044:2049  _name */\n  0x03\n    /* \"@openzeppelin/contracts/token/ERC20/ERC20.sol\":2044:2057  _name = name_ */\n  swap1\n  dup1\n  mload\n  swap1\n  0x20\n  add\n  swap1\n  tag_6\n  swap3\n  swap2\n  swap1\n  tag_7\n  jump\t// in\ntag_6:\n  pop\n    /* \"@openzeppelin/contracts/token/ERC20/ERC20.sol\":2077:2084  symbol_ */\n  dup1\n    /* \"@openzeppelin/contracts/token/ERC20/ERC20.sol\":2067:2074  _symbol */\n  0x04\n    /* \"@openzeppelin/contracts/token/ERC20/ERC20.sol\":2067:2084  _symbol = symbol_ */\n  swap1\n  dup1\n  mload\n  swap1\n  0x20\n  add\n  swap1\n  tag_8\n  swap3\n  swap2\n  swap1\n  tag_7\n  jump\t// in\ntag_8:\n  pop\n    /* \"@openzeppelin/contracts/token/ERC20/ERC20.sol\":1978:2091  constructor(string memory name_, string memory symbol_) {... */\n  pop\n  pop\n    /* \"@openzeppelin/contracts/access/Ownable.sol\":921:953  _transferOwnership(_msgSender()) */\n  tag_10\n    /* \"@openzeppelin/contracts/access/Ownable.sol\":940:952  _msgSender() */\n  tag_11\n    /* \"@openzeppelin/contracts/access/Ownable.sol\":940:950  _msgSender */\n  shl(0x20, tag_12)\n    /* \"@openzeppelin/contracts/access/Ownable.sol\":940:952  _msgSender() */\n  0x20\n  shr\n  jump\t// in\ntag_11:\n    /* \"@openzeppelin/contracts/access/Ownable.sol\":921:939  _transferOwnership */\n  shl(0x20, tag_13)\n    /* \"@openzeppelin/contracts/access/Ownable.sol\":921:953  _transferOwnership(_msgSender()) */\n  0x20\n  shr\n  jump\t// in\ntag_10:\n    /* \"contracts/ZenyaStake.sol\":1036:1078  _mint(msg.sender, 1000 * 10 ** decimals()) */\n  tag_15\n    /* \"contracts/ZenyaStake.sol\":1042:1052  msg.sender */\n  caller\n    /* \"contracts/ZenyaStake.sol\":1067:1077  decimals() */\n  tag_16\n    /* \"contracts/ZenyaStake.sol\":1067:1075  decimals */\n  shl(0x20, tag_17)\n    /* \"contracts/ZenyaStake.sol\":1067:1077  decimals() */\n  0x20\n  shr\n  jump\t// in\ntag_16:\n    /* \"contracts/ZenyaStake.sol\":1061:1063  10 */\n  0x0a\n    /* \"contracts/ZenyaStake.sol\":1061:1077  10 ** decimals() */\n  tag_18\n  swap2\n  swap1\n  tag_19\n  jump\t// in\ntag_18:\n    /* \"contracts/ZenyaStake.sol\":1054:1058  1000 */\n  0x03e8\n    /* \"contracts/ZenyaStake.sol\":1054:1077  1000 * 10 ** decimals() */\n  tag_20\n  swap2\n  swap1\n  tag_21\n  jump\t// in\ntag_20:\n    /* \"contracts/ZenyaStake.sol\":1036:1041  _mint */\n  shl(0x20, tag_22)\n    /* \"contracts/ZenyaStake.sol\":1036:1078  _mint(msg.sender, 1000 * 10 ** decimals()) */\n  0x20\n  shr\n  jump\t// in\ntag_15:\n    /* \"contracts/ZenyaStake.sol\":173:5328  contract ZenyaStake is ERC20, Ownable  {\r... */\n  jump(tag_23)\n    /* \"@openzeppelin/contracts/utils/Context.sol\":640:736  function _msgSender() internal view virtual returns (address) {... */\ntag_12:\n    /* \"@openzeppelin/contracts/utils/Context.sol\":693:700  address */\n  0x00\n    /* \"@openzeppelin/contracts/utils/Context.sol\":719:729  msg.sender */\n  caller\n    /* \"@openzeppelin/contracts/utils/Context.sol\":712:729  return msg.sender */\n  swap1\n  pop\n    /* \"@openzeppelin/contracts/utils/Context.sol\":640:736  function _msgSender() internal view virtual returns (address) {... */\n  swap1\n  jump\t// out\n    /* \"@openzeppelin/contracts/access/Ownable.sol\":2270:2457  function _transferOwnership(address newOwner) internal virtual {... */\ntag_13:\n    /* \"@openzeppelin/contracts/access/Ownable.sol\":2343:2359  address oldOwner */\n  0x00\n    /* \"@openzeppelin/contracts/access/Ownable.sol\":2362:2368  _owner */\n  0x05\n  0x00\n  swap1\n  sload\n  swap1\n  0x0100\n  exp\n  swap1\n  div\n  0xffffffffffffffffffffffffffffffffffffffff\n  and\n    /* \"@openzeppelin/contracts/access/Ownable.sol\":2343:2368  address oldOwner = _owner */\n  swap1\n  pop\n    /* \"@openzeppelin/contracts/access/Ownable.sol\":2387:2395  newOwner */\n  dup2\n    /* \"@openzeppelin/contracts/access/Ownable.sol\":2378:2384  _owner */\n  0x05\n  0x00\n    /* \"@openzeppelin/contracts/access/Ownable.sol\":2378:2395  _owner = newOwner */\n  0x0100\n  exp\n  dup2\n  sload\n  dup2\n  0xffffffffffffffffffffffffffffffffffffffff\n  mul\n  not\n  and\n  swap1\n  dup4\n  0xffffffffffffffffffffffffffffffffffffffff\n  and\n  mul\n  or\n  swap1\n  sstore\n  pop\n    /* \"@openzeppelin/contracts/access/Ownable.sol\":2441:2449  newOwner */\n  dup2\n    /* \"@openzeppelin/contracts/access/Ownable.sol\":2410:2450  OwnershipTransferred(oldOwner, newOwner) */\n  0xffffffffffffffffffffffffffffffffffffffff\n  and\n    /* \"@openzeppelin/contracts/access/Ownable.sol\":2431:2439  oldOwner */\n  dup2\n    /* \"@openzeppelin/contracts/access/Ownable.sol\":2410:2450  OwnershipTransferred(oldOwner, newOwner) */\n  0xffffffffffffffffffffffffffffffffffffffff\n  and\n  0x8be0079c531659141344cd1fd0a4f28419497f9722a3daafe3b4186f6b6457e0\n  mload(0x40)\n  mload(0x40)\n  dup1\n  swap2\n  sub\n  swap1\n  log3\n    /* \"@openzeppelin/contracts/access/Ownable.sol\":2333:2457  {... */\n  pop\n    /* \"@openzeppelin/contracts/access/Ownable.sol\":2270:2457  function _transferOwnership(address newOwner) internal virtual {... */\n  pop\n  jump\t// out\n    /* \"@openzeppelin/contracts/token/ERC20/ERC20.sol\":3093:3184  function decimals() public view virtual override returns (uint8) {... */\ntag_17:\n    /* \"@openzeppelin/contracts/token/ERC20/ERC20.sol\":3151:3156  uint8 */\n  0x00\n    /* \"@openzeppelin/contracts/token/ERC20/ERC20.sol\":3175:3177  18 */\n  0x12\n    /* \"@openzeppelin/contracts/token/ERC20/ERC20.sol\":3168:3177  return 18 */\n  swap1\n  pop\n    /* \"@openzeppelin/contracts/token/ERC20/ERC20.sol\":3093:3184  function decimals() public view virtual override returns (uint8) {... */\n  swap1\n  jump\t// out\n    /* \"@openzeppelin/contracts/token/ERC20/ERC20.sol\":8415:8804  function _mint(address account, uint256 amount) internal virtual {... */\ntag_22:\n    /* \"@openzeppelin/contracts/token/ERC20/ERC20.sol\":8517:8518  0 */\n  0x00\n    /* \"@openzeppelin/contracts/token/ERC20/ERC20.sol\":8498:8519  account != address(0) */\n  0xffffffffffffffffffffffffffffffffffffffff\n  and\n    /* \"@openzeppelin/contracts/token/ERC20/ERC20.sol\":8498:8505  account */\n  dup3\n    /* \"@openzeppelin/contracts/token/ERC20/ERC20.sol\":8498:8519  account != address(0) */\n  0xffffffffffffffffffffffffffffffffffffffff\n  and\n  eq\n  iszero\n    /* \"@openzeppelin/contracts/token/ERC20/ERC20.sol\":8490:8555  require(account != address(0), \"ERC20: mint to the zero address\") */\n  tag_28\n  jumpi\n  mload(0x40)\n  0x08c379a000000000000000000000000000000000000000000000000000000000\n  dup2\n  mstore\n  0x04\n  add\n  tag_29\n  swap1\n  tag_30\n  jump\t// in\ntag_29:\n  mload(0x40)\n  dup1\n  swap2\n  sub\n  swap1\n  revert\ntag_28:\n    /* \"@openzeppelin/contracts/token/ERC20/ERC20.sol\":8566:8615  _beforeTokenTransfer(address(0), account, amount) */\n  tag_31\n    /* \"@openzeppelin/contracts/token/ERC20/ERC20.sol\":8595:8596  0 */\n  0x00\n    /* \"@openzeppelin/contracts/token/ERC20/ERC20.sol\":8599:8606  account */\n  dup4\n    /* \"@openzeppelin/contracts/token/ERC20/ERC20.sol\":8608:8614  amount */\n  dup4\n    /* \"@openzeppelin/contracts/token/ERC20/ERC20.sol\":8566:8586  _beforeTokenTransfer */\n  shl(0x20, tag_32)\n    /* \"@openzeppelin/contracts/token/ERC20/ERC20.sol\":8566:8615  _beforeTokenTransfer(address(0), account, amount) */\n  0x20\n  shr\n  jump\t// in\ntag_31:\n    /* \"@openzeppelin/contracts/token/ERC20/ERC20.sol\":8642:8648  amount */\n  dup1\n    /* \"@openzeppelin/contracts/token/ERC20/ERC20.sol\":8626:8638  _totalSupply */\n  0x02\n  0x00\n    /* \"@openzeppelin/contracts/token/ERC20/ERC20.sol\":8626:8648  _totalSupply += amount */\n  dup3\n  dup3\n  sload\n  tag_33\n  swap2\n  swap1\n  tag_34\n  jump\t// in\ntag_33:\n  swap3\n  pop\n  pop\n  dup2\n  swap1\n  sstore\n  pop\n    /* \"@openzeppelin/contracts/token/ERC20/ERC20.sol\":8680:8686  amount */\n  dup1\n    /* \"@openzeppelin/contracts/token/ERC20/ERC20.sol\":8658:8667  _balances */\n  0x00\n    /* \"@openzeppelin/contracts/token/ERC20/ERC20.sol\":8658:8676  _balances[account] */\n  dup1\n    /* \"@openzeppelin/contracts/token/ERC20/ERC20.sol\":8668:8675  account */\n  dup5\n    /* \"@openzeppelin/contracts/token/ERC20/ERC20.sol\":8658:8676  _balances[account] */\n  0xffffffffffffffffffffffffffffffffffffffff\n  and\n  0xffffffffffffffffffffffffffffffffffffffff\n  and\n  dup2\n  mstore\n  0x20\n  add\n  swap1\n  dup2\n  mstore\n  0x20\n  add\n  0x00\n  keccak256\n  0x00\n    /* \"@openzeppelin/contracts/token/ERC20/ERC20.sol\":8658:8686  _balances[account] += amount */\n  dup3\n  dup3\n  sload\n  tag_35\n  swap2\n  swap1\n  tag_34\n  jump\t// in\ntag_35:\n  swap3\n  pop\n  pop\n  dup2\n  swap1\n  sstore\n  pop\n    /* \"@openzeppelin/contracts/token/ERC20/ERC20.sol\":8722:8729  account */\n  dup2\n    /* \"@openzeppelin/contracts/token/ERC20/ERC20.sol\":8701:8738  Transfer(address(0), account, amount) */\n  0xffffffffffffffffffffffffffffffffffffffff\n  and\n    /* \"@openzeppelin/contracts/token/ERC20/ERC20.sol\":8718:8719  0 */\n  0x00\n    /* \"@openzeppelin/contracts/token/ERC20/ERC20.sol\":8701:8738  Transfer(address(0), account, amount) */\n  0xffffffffffffffffffffffffffffffffffffffff\n  and\n  0xddf252ad1be2c89b69c2b068fc378daa952ba7f163c4a11628f55a4df523b3ef\n    /* \"@openzeppelin/contracts/token/ERC20/ERC20.sol\":8731:8737  amount */\n  dup4\n    /* \"@openzeppelin/contracts/token/ERC20/ERC20.sol\":8701:8738  Transfer(address(0), account, amount) */\n  mload(0x40)\n  tag_36\n  swap2\n  swap1\n  tag_37\n  jump\t// in\ntag_36:\n  mload(0x40)\n  dup1\n  swap2\n  sub\n  swap1\n  log3\n    /* \"@openzeppelin/contracts/token/ERC20/ERC20.sol\":8749:8797  _afterTokenTransfer(address(0), account, amount) */\n  tag_38\n    /* \"@openzeppelin/contracts/token/ERC20/ERC20.sol\":8777:8778  0 */\n  0x00\n    /* \"@openzeppelin/contracts/token/ERC20/ERC20.sol\":8781:8788  account */\n  dup4\n    /* \"@openzeppelin/contracts/token/ERC20/ERC20.sol\":8790:8796  amount */\n  dup4\n    /* \"@openzeppelin/contracts/token/ERC20/ERC20.sol\":8749:8768  _afterTokenTransfer */\n  shl(0x20, tag_39)\n    /* \"@openzeppelin/contracts/token/ERC20/ERC20.sol\":8749:8797  _afterTokenTransfer(address(0), account, amount) */\n  0x20\n  shr\n  jump\t// in\ntag_38:\n    /* \"@openzeppelin/contracts/token/ERC20/ERC20.sol\":8415:8804  function _mint(address account, uint256 amount) internal virtual {... */\n  pop\n  pop\n  jump\t// out\n    /* \"@openzeppelin/contracts/token/ERC20/ERC20.sol\":11795:11916  function _beforeTokenTransfer(... */\ntag_32:\n  pop\n  pop\n  pop\n  jump\t// out\n    /* \"@openzeppelin/contracts/token/ERC20/ERC20.sol\":12504:12624  function _afterTokenTransfer(... */\ntag_39:\n  pop\n  pop\n  pop\n  jump\t// out\n    /* \"contracts/ZenyaStake.sol\":173:5328  contract ZenyaStake is ERC20, Ownable  {\r... */\ntag_7:\n  dup3\n  dup1\n  sload\n  tag_42\n  swap1\n  tag_43\n  jump\t// in\ntag_42:\n  swap1\n  0x00\n  mstore\n  keccak256(0x00, 0x20)\n  swap1\n  0x1f\n  add\n  0x20\n  swap1\n  div\n  dup2\n  add\n  swap3\n  dup3\n  tag_45\n  jumpi\n  0x00\n  dup6\n  sstore\n  jump(tag_44)\ntag_45:\n  dup3\n  0x1f\n  lt\n  tag_46\n  jumpi\n  dup1\n  mload\n  not(0xff)\n  and\n  dup4\n  dup1\n  add\n  or\n  dup6\n  sstore\n  jump(tag_44)\ntag_46:\n  dup3\n  dup1\n  add\n  0x01\n  add\n  dup6\n  sstore\n  dup3\n  iszero\n  tag_44\n  jumpi\n  swap2\n  dup3\n  add\ntag_47:\n  dup3\n  dup2\n  gt\n  iszero\n  tag_48\n  jumpi\n  dup3\n  mload\n  dup3\n  sstore\n  swap2\n  0x20\n  add\n  swap2\n  swap1\n  0x01\n  add\n  swap1\n  jump(tag_47)\ntag_48:\ntag_44:\n  pop\n  swap1\n  pop\n  tag_49\n  swap2\n  swap1\n  tag_50\n  jump\t// in\ntag_49:\n  pop\n  swap1\n  jump\t// out\ntag_50:\ntag_51:\n  dup1\n  dup3\n  gt\n  iszero\n  tag_52\n  jumpi\n  0x00\n  dup2\n  0x00\n  swap1\n  sstore\n  pop\n  0x01\n  add\n  jump(tag_51)\ntag_52:\n  pop\n  swap1\n  jump\t// out\n    /* \"#utility.yul\":7:373   */\ntag_54:\n    /* \"#utility.yul\":149:152   */\n  0x00\n    /* \"#utility.yul\":170:237   */\n  tag_56\n    /* \"#utility.yul\":234:236   */\n  0x1f\n    /* \"#utility.yul\":229:232   */\n  dup4\n    /* \"#utility.yul\":170:237   */\n  tag_57\n  jump\t// in\ntag_56:\n    /* \"#utility.yul\":163:237   */\n  swap2\n  pop\n    /* \"#utility.yul\":246:339   */\n  tag_58\n    /* \"#utility.yul\":335:338   */\n  dup3\n    /* \"#utility.yul\":246:339   */\n  tag_59\n  jump\t// in\ntag_58:\n    /* \"#utility.yul\":364:366   */\n  0x20\n    /* \"#utility.yul\":359:362   */\n  dup3\n    /* \"#utility.yul\":355:367   */\n  add\n    /* \"#utility.yul\":348:367   */\n  swap1\n  pop\n    /* \"#utility.yul\":7:373   */\n  swap2\n  swap1\n  pop\n  jump\t// out\n    /* \"#utility.yul\":379:497   */\ntag_60:\n    /* \"#utility.yul\":466:490   */\n  tag_62\n    /* \"#utility.yul\":484:489   */\n  dup2\n    /* \"#utility.yul\":466:490   */\n  tag_63\n  jump\t// in\ntag_62:\n    /* \"#utility.yul\":461:464   */\n  dup3\n    /* \"#utility.yul\":454:491   */\n  mstore\n    /* \"#utility.yul\":379:497   */\n  pop\n  pop\n  jump\t// out\n    /* \"#utility.yul\":503:922   */\ntag_30:\n    /* \"#utility.yul\":669:673   */\n  0x00\n    /* \"#utility.yul\":707:709   */\n  0x20\n    /* \"#utility.yul\":696:705   */\n  dup3\n    /* \"#utility.yul\":692:710   */\n  add\n    /* \"#utility.yul\":684:710   */\n  swap1\n  pop\n    /* \"#utility.yul\":756:765   */\n  dup2\n    /* \"#utility.yul\":750:754   */\n  dup2\n    /* \"#utility.yul\":746:766   */\n  sub\n    /* \"#utility.yul\":742:743   */\n  0x00\n    /* \"#utility.yul\":731:740   */\n  dup4\n    /* \"#utility.yul\":727:744   */\n  add\n    /* \"#utility.yul\":720:767   */\n  mstore\n    /* \"#utility.yul\":784:915   */\n  tag_65\n    /* \"#utility.yul\":910:914   */\n  dup2\n    /* \"#utility.yul\":784:915   */\n  tag_54\n  jump\t// in\ntag_65:\n    /* \"#utility.yul\":776:915   */\n  swap1\n  pop\n    /* \"#utility.yul\":503:922   */\n  swap2\n  swap1\n  pop\n  jump\t// out\n    /* \"#utility.yul\":928:1150   */\ntag_37:\n    /* \"#utility.yul\":1021:1025   */\n  0x00\n    /* \"#utility.yul\":1059:1061   */\n  0x20\n    /* \"#utility.yul\":1048:1057   */\n  dup3\n    /* \"#utility.yul\":1044:1062   */\n  add\n    /* \"#utility.yul\":1036:1062   */\n  swap1\n  pop\n    /* \"#utility.yul\":1072:1143   */\n  tag_67\n    /* \"#utility.yul\":1140:1141   */\n  0x00\n    /* \"#utility.yul\":1129:1138   */\n  dup4\n    /* \"#utility.yul\":1125:1142   */\n  add\n    /* \"#utility.yul\":1116:1122   */\n  dup5\n    /* \"#utility.yul\":1072:1143   */\n  tag_60\n  jump\t// in\ntag_67:\n    /* \"#utility.yul\":928:1150   */\n  swap3\n  swap2\n  pop\n  pop\n  jump\t// out\n    /* \"#utility.yul\":1156:1325   */\ntag_57:\n    /* \"#utility.yul\":1240:1251   */\n  0x00\n    /* \"#utility.yul\":1274:1280   */\n  dup3\n    /* \"#utility.yul\":1269:1272   */\n  dup3\n    /* \"#utility.yul\":1262:1281   */\n  mstore\n    /* \"#utility.yul\":1314:1318   */\n  0x20\n    /* \"#utility.yul\":1309:1312   */\n  dup3\n    /* \"#utility.yul\":1305:1319   */\n  add\n    /* \"#utility.yul\":1290:1319   */\n  swap1\n  pop\n    /* \"#utility.yul\":1156:1325   */\n  swap3\n  swap2\n  pop\n  pop\n  jump\t// out\n    /* \"#utility.yul\":1331:1636   */\ntag_34:\n    /* \"#utility.yul\":1371:1374   */\n  0x00\n    /* \"#utility.yul\":1390:1410   */\n  tag_70\n    /* \"#utility.yul\":1408:1409   */\n  dup3\n    /* \"#utility.yul\":1390:1410   */\n  tag_63\n  jump\t// in\ntag_70:\n    /* \"#utility.yul\":1385:1410   */\n  swap2\n  pop\n    /* \"#utility.yul\":1424:1444   */\n  tag_71\n    /* \"#utility.yul\":1442:1443   */\n  dup4\n    /* \"#utility.yul\":1424:1444   */\n  tag_63\n  jump\t// in\ntag_71:\n    /* \"#utility.yul\":1419:1444   */\n  swap3\n  pop\n    /* \"#utility.yul\":1578:1579   */\n  dup3\n    /* \"#utility.yul\":1510:1576   */\n  0xffffffffffffffffffffffffffffffffffffffffffffffffffffffffffffffff\n    /* \"#utility.yul\":1506:1580   */\n  sub\n    /* \"#utility.yul\":1503:1504   */\n  dup3\n    /* \"#utility.yul\":1500:1581   */\n  gt\n    /* \"#utility.yul\":1497:1604   */\n  iszero\n  tag_72\n  jumpi\n    /* \"#utility.yul\":1584:1602   */\n  tag_73\n  tag_74\n  jump\t// in\ntag_73:\n    /* \"#utility.yul\":1497:1604   */\ntag_72:\n    /* \"#utility.yul\":1628:1629   */\n  dup3\n    /* \"#utility.yul\":1625:1626   */\n  dup3\n    /* \"#utility.yul\":1621:1630   */\n  add\n    /* \"#utility.yul\":1614:1630   */\n  swap1\n  pop\n    /* \"#utility.yul\":1331:1636   */\n  swap3\n  swap2\n  pop\n  pop\n  jump\t// out\n    /* \"#utility.yul\":1642:2490   */\ntag_75:\n    /* \"#utility.yul\":1703:1708   */\n  0x00\n    /* \"#utility.yul\":1710:1714   */\n  dup1\n    /* \"#utility.yul\":1734:1740   */\n  dup3\n    /* \"#utility.yul\":1725:1740   */\n  swap2\n  pop\n    /* \"#utility.yul\":1758:1763   */\n  dup4\n    /* \"#utility.yul\":1749:1763   */\n  swap1\n  pop\n    /* \"#utility.yul\":1772:2484   */\ntag_77:\n    /* \"#utility.yul\":1793:1794   */\n  0x01\n    /* \"#utility.yul\":1783:1791   */\n  dup6\n    /* \"#utility.yul\":1780:1795   */\n  gt\n    /* \"#utility.yul\":1772:2484   */\n  iszero\n  tag_79\n  jumpi\n    /* \"#utility.yul\":1888:1892   */\n  dup1\n    /* \"#utility.yul\":1883:1886   */\n  dup7\n    /* \"#utility.yul\":1879:1893   */\n  div\n    /* \"#utility.yul\":1873:1877   */\n  dup2\n    /* \"#utility.yul\":1870:1894   */\n  gt\n    /* \"#utility.yul\":1867:1917   */\n  iszero\n  tag_80\n  jumpi\n    /* \"#utility.yul\":1897:1915   */\n  tag_81\n  tag_74\n  jump\t// in\ntag_81:\n    /* \"#utility.yul\":1867:1917   */\ntag_80:\n    /* \"#utility.yul\":1947:1948   */\n  0x01\n    /* \"#utility.yul\":1937:1945   */\n  dup6\n    /* \"#utility.yul\":1933:1949   */\n  and\n    /* \"#utility.yul\":1930:2381   */\n  iszero\n  tag_82\n  jumpi\n    /* \"#utility.yul\":2362:2366   */\n  dup1\n    /* \"#utility.yul\":2355:2360   */\n  dup3\n    /* \"#utility.yul\":2351:2367   */\n  mul\n    /* \"#utility.yul\":2342:2367   */\n  swap2\n  pop\n    /* \"#utility.yul\":1930:2381   */\ntag_82:\n    /* \"#utility.yul\":2412:2416   */\n  dup1\n    /* \"#utility.yul\":2406:2410   */\n  dup2\n    /* \"#utility.yul\":2402:2417   */\n  mul\n    /* \"#utility.yul\":2394:2417   */\n  swap1\n  pop\n    /* \"#utility.yul\":2442:2474   */\n  tag_83\n    /* \"#utility.yul\":2465:2473   */\n  dup6\n    /* \"#utility.yul\":2442:2474   */\n  tag_84\n  jump\t// in\ntag_83:\n    /* \"#utility.yul\":2430:2474   */\n  swap5\n  pop\n    /* \"#utility.yul\":1772:2484   */\n  jump(tag_77)\ntag_79:\n    /* \"#utility.yul\":1642:2490   */\n  swap5\n  pop\n  swap5\n  swap3\n  pop\n  pop\n  pop\n  jump\t// out\n    /* \"#utility.yul\":2496:2777   */\ntag_19:\n    /* \"#utility.yul\":2554:2559   */\n  0x00\n    /* \"#utility.yul\":2578:2601   */\n  tag_86\n    /* \"#utility.yul\":2596:2600   */\n  dup3\n    /* \"#utility.yul\":2578:2601   */\n  tag_63\n  jump\t// in\ntag_86:\n    /* \"#utility.yul\":2570:2601   */\n  swap2\n  pop\n    /* \"#utility.yul\":2622:2647   */\n  tag_87\n    /* \"#utility.yul\":2638:2646   */\n  dup4\n    /* \"#utility.yul\":2622:2647   */\n  tag_88\n  jump\t// in\ntag_87:\n    /* \"#utility.yul\":2610:2647   */\n  swap3\n  pop\n    /* \"#utility.yul\":2666:2770   */\n  tag_89\n    /* \"#utility.yul\":2703:2769   */\n  0xffffffffffffffffffffffffffffffffffffffffffffffffffffffffffffffff\n    /* \"#utility.yul\":2693:2701   */\n  dup5\n    /* \"#utility.yul\":2687:2691   */\n  dup5\n    /* \"#utility.yul\":2666:2770   */\n  tag_90\n  jump\t// in\ntag_89:\n    /* \"#utility.yul\":2657:2770   */\n  swap1\n  pop\n    /* \"#utility.yul\":2496:2777   */\n  swap3\n  swap2\n  pop\n  pop\n  jump\t// out\n    /* \"#utility.yul\":2783:3856   */\ntag_90:\n    /* \"#utility.yul\":2837:2842   */\n  0x00\n    /* \"#utility.yul\":3028:3036   */\n  dup3\n    /* \"#utility.yul\":3018:3058   */\n  tag_92\n  jumpi\n    /* \"#utility.yul\":3049:3050   */\n  0x01\n    /* \"#utility.yul\":3040:3050   */\n  swap1\n  pop\n    /* \"#utility.yul\":3051:3056   */\n  jump(tag_91)\n    /* \"#utility.yul\":3018:3058   */\ntag_92:\n    /* \"#utility.yul\":3077:3081   */\n  dup2\n    /* \"#utility.yul\":3067:3103   */\n  tag_93\n  jumpi\n    /* \"#utility.yul\":3094:3095   */\n  0x00\n    /* \"#utility.yul\":3085:3095   */\n  swap1\n  pop\n    /* \"#utility.yul\":3096:3101   */\n  jump(tag_91)\n    /* \"#utility.yul\":3067:3103   */\ntag_93:\n    /* \"#utility.yul\":3163:3167   */\n  dup2\n    /* \"#utility.yul\":3211:3212   */\n  0x01\n    /* \"#utility.yul\":3206:3233   */\n  dup2\n  eq\n  tag_95\n  jumpi\n    /* \"#utility.yul\":3247:3248   */\n  0x02\n    /* \"#utility.yul\":3242:3433   */\n  dup2\n  eq\n  tag_96\n  jumpi\n    /* \"#utility.yul\":3156:3433   */\n  jump(tag_94)\n    /* \"#utility.yul\":3206:3233   */\ntag_95:\n    /* \"#utility.yul\":3224:3225   */\n  0x01\n    /* \"#utility.yul\":3215:3225   */\n  swap2\n  pop\n    /* \"#utility.yul\":3226:3231   */\n  pop\n  jump(tag_91)\n    /* \"#utility.yul\":3242:3433   */\ntag_96:\n    /* \"#utility.yul\":3287:3290   */\n  0xff\n    /* \"#utility.yul\":3277:3285   */\n  dup5\n    /* \"#utility.yul\":3274:3291   */\n  gt\n    /* \"#utility.yul\":3271:3314   */\n  iszero\n  tag_97\n  jumpi\n    /* \"#utility.yul\":3294:3312   */\n  tag_98\n  tag_74\n  jump\t// in\ntag_98:\n    /* \"#utility.yul\":3271:3314   */\ntag_97:\n    /* \"#utility.yul\":3343:3351   */\n  dup4\n    /* \"#utility.yul\":3340:3341   */\n  0x02\n    /* \"#utility.yul\":3336:3352   */\n  exp\n    /* \"#utility.yul\":3327:3352   */\n  swap2\n  pop\n    /* \"#utility.yul\":3378:3381   */\n  dup5\n    /* \"#utility.yul\":3371:3376   */\n  dup3\n    /* \"#utility.yul\":3368:3382   */\n  gt\n    /* \"#utility.yul\":3365:3405   */\n  iszero\n  tag_99\n  jumpi\n    /* \"#utility.yul\":3385:3403   */\n  tag_100\n  tag_74\n  jump\t// in\ntag_100:\n    /* \"#utility.yul\":3365:3405   */\ntag_99:\n    /* \"#utility.yul\":3418:3423   */\n  pop\n  jump(tag_91)\n    /* \"#utility.yul\":3156:3433   */\ntag_94:\n  pop\n    /* \"#utility.yul\":3542:3544   */\n  0x20\n    /* \"#utility.yul\":3532:3540   */\n  dup4\n    /* \"#utility.yul\":3529:3545   */\n  lt\n    /* \"#utility.yul\":3523:3526   */\n  0x0133\n    /* \"#utility.yul\":3517:3521   */\n  dup4\n    /* \"#utility.yul\":3514:3527   */\n  lt\n    /* \"#utility.yul\":3510:3546   */\n  and\n    /* \"#utility.yul\":3492:3494   */\n  0x4e\n    /* \"#utility.yul\":3482:3490   */\n  dup5\n    /* \"#utility.yul\":3479:3495   */\n  lt\n    /* \"#utility.yul\":3474:3476   */\n  0x0b\n    /* \"#utility.yul\":3468:3472   */\n  dup5\n    /* \"#utility.yul\":3465:3477   */\n  lt\n    /* \"#utility.yul\":3461:3496   */\n  and\n    /* \"#utility.yul\":3445:3556   */\n  or\n    /* \"#utility.yul\":3442:3688   */\n  iszero\n  tag_101\n  jumpi\n    /* \"#utility.yul\":3598:3606   */\n  dup3\n    /* \"#utility.yul\":3592:3596   */\n  dup3\n    /* \"#utility.yul\":3588:3607   */\n  exp\n    /* \"#utility.yul\":3579:3607   */\n  swap1\n  pop\n    /* \"#utility.yul\":3633:3636   */\n  dup4\n    /* \"#utility.yul\":3626:3631   */\n  dup2\n    /* \"#utility.yul\":3623:3637   */\n  gt\n    /* \"#utility.yul\":3620:3660   */\n  iszero\n  tag_102\n  jumpi\n    /* \"#utility.yul\":3640:3658   */\n  tag_103\n  tag_74\n  jump\t// in\ntag_103:\n    /* \"#utility.yul\":3620:3660   */\ntag_102:\n    /* \"#utility.yul\":3673:3678   */\n  jump(tag_91)\n    /* \"#utility.yul\":3442:3688   */\ntag_101:\n    /* \"#utility.yul\":3713:3755   */\n  tag_104\n    /* \"#utility.yul\":3751:3754   */\n  dup5\n    /* \"#utility.yul\":3741:3749   */\n  dup5\n    /* \"#utility.yul\":3735:3739   */\n  dup5\n    /* \"#utility.yul\":3732:3733   */\n  0x01\n    /* \"#utility.yul\":3713:3755   */\n  tag_75\n  jump\t// in\ntag_104:\n    /* \"#utility.yul\":3698:3755   */\n  swap3\n  pop\n  swap1\n  pop\n    /* \"#utility.yul\":3787:3791   */\n  dup2\n    /* \"#utility.yul\":3782:3785   */\n  dup5\n    /* \"#utility.yul\":3778:3792   */\n  div\n    /* \"#utility.yul\":3771:3776   */\n  dup2\n    /* \"#utility.yul\":3768:3793   */\n  gt\n    /* \"#utility.yul\":3765:3816   */\n  iszero\n  tag_105\n  jumpi\n    /* \"#utility.yul\":3796:3814   */\n  tag_106\n  tag_74\n  jump\t// in\ntag_106:\n    /* \"#utility.yul\":3765:3816   */\ntag_105:\n    /* \"#utility.yul\":3845:3849   */\n  dup2\n    /* \"#utility.yul\":3838:3843   */\n  dup2\n    /* \"#utility.yul\":3834:3850   */\n  mul\n    /* \"#utility.yul\":3825:3850   */\n  swap1\n  pop\n    /* \"#utility.yul\":2783:3856   */\ntag_91:\n  swap4\n  swap3\n  pop\n  pop\n  pop\n  jump\t// out\n    /* \"#utility.yul\":3862:4210   */\ntag_21:\n    /* \"#utility.yul\":3902:3909   */\n  0x00\n    /* \"#utility.yul\":3925:3945   */\n  tag_108\n    /* \"#utility.yul\":3943:3944   */\n  dup3\n    /* \"#utility.yul\":3925:3945   */\n  tag_63\n  jump\t// in\ntag_108:\n    /* \"#utility.yul\":3920:3945   */\n  swap2\n  pop\n    /* \"#utility.yul\":3959:3979   */\n  tag_109\n    /* \"#utility.yul\":3977:3978   */\n  dup4\n    /* \"#utility.yul\":3959:3979   */\n  tag_63\n  jump\t// in\ntag_109:\n    /* \"#utility.yul\":3954:3979   */\n  swap3\n  pop\n    /* \"#utility.yul\":4147:4148   */\n  dup2\n    /* \"#utility.yul\":4079:4145   */\n  0xffffffffffffffffffffffffffffffffffffffffffffffffffffffffffffffff\n    /* \"#utility.yul\":4075:4149   */\n  div\n    /* \"#utility.yul\":4072:4073   */\n  dup4\n    /* \"#utility.yul\":4069:4150   */\n  gt\n    /* \"#utility.yul\":4064:4065   */\n  dup3\n    /* \"#utility.yul\":4057:4066   */\n  iszero\n    /* \"#utility.yul\":4050:4067   */\n  iszero\n    /* \"#utility.yul\":4046:4151   */\n  and\n    /* \"#utility.yul\":4043:4174   */\n  iszero\n  tag_110\n  jumpi\n    /* \"#utility.yul\":4154:4172   */\n  tag_111\n  tag_74\n  jump\t// in\ntag_111:\n    /* \"#utility.yul\":4043:4174   */\ntag_110:\n    /* \"#utility.yul\":4202:4203   */\n  dup3\n    /* \"#utility.yul\":4199:4200   */\n  dup3\n    /* \"#utility.yul\":4195:4204   */\n  mul\n    /* \"#utility.yul\":4184:4204   */\n  swap1\n  pop\n    /* \"#utility.yul\":3862:4210   */\n  swap3\n  swap2\n  pop\n  pop\n  jump\t// out\n    /* \"#utility.yul\":4216:4293   */\ntag_63:\n    /* \"#utility.yul\":4253:4260   */\n  0x00\n    /* \"#utility.yul\":4282:4287   */\n  dup2\n    /* \"#utility.yul\":4271:4287   */\n  swap1\n  pop\n    /* \"#utility.yul\":4216:4293   */\n  swap2\n  swap1\n  pop\n  jump\t// out\n    /* \"#utility.yul\":4299:4385   */\ntag_88:\n    /* \"#utility.yul\":4334:4341   */\n  0x00\n    /* \"#utility.yul\":4374:4378   */\n  0xff\n    /* \"#utility.yul\":4367:4372   */\n  dup3\n    /* \"#utility.yul\":4363:4379   */\n  and\n    /* \"#utility.yul\":4352:4379   */\n  swap1\n  pop\n    /* \"#utility.yul\":4299:4385   */\n  swap2\n  swap1\n  pop\n  jump\t// out\n    /* \"#utility.yul\":4391:4711   */\ntag_43:\n    /* \"#utility.yul\":4435:4441   */\n  0x00\n    /* \"#utility.yul\":4472:4473   */\n  0x02\n    /* \"#utility.yul\":4466:4470   */\n  dup3\n    /* \"#utility.yul\":4462:4474   */\n  div\n    /* \"#utility.yul\":4452:4474   */\n  swap1\n  pop\n    /* \"#utility.yul\":4519:4520   */\n  0x01\n    /* \"#utility.yul\":4513:4517   */\n  dup3\n    /* \"#utility.yul\":4509:4521   */\n  and\n    /* \"#utility.yul\":4540:4558   */\n  dup1\n    /* \"#utility.yul\":4530:4611   */\n  tag_115\n  jumpi\n    /* \"#utility.yul\":4596:4600   */\n  0x7f\n    /* \"#utility.yul\":4588:4594   */\n  dup3\n    /* \"#utility.yul\":4584:4601   */\n  and\n    /* \"#utility.yul\":4574:4601   */\n  swap2\n  pop\n    /* \"#utility.yul\":4530:4611   */\ntag_115:\n    /* \"#utility.yul\":4658:4660   */\n  0x20\n    /* \"#utility.yul\":4650:4656   */\n  dup3\n    /* \"#utility.yul\":4647:4661   */\n  lt\n    /* \"#utility.yul\":4627:4645   */\n  dup2\n    /* \"#utility.yul\":4624:4662   */\n  eq\n    /* \"#utility.yul\":4621:4705   */\n  iszero\n  tag_116\n  jumpi\n    /* \"#utility.yul\":4677:4695   */\n  tag_117\n  tag_118\n  jump\t// in\ntag_117:\n    /* \"#utility.yul\":4621:4705   */\ntag_116:\n    /* \"#utility.yul\":4442:4711   */\n  pop\n    /* \"#utility.yul\":4391:4711   */\n  swap2\n  swap1\n  pop\n  jump\t// out\n    /* \"#utility.yul\":4717:4897   */\ntag_74:\n    /* \"#utility.yul\":4765:4842   */\n  0x4e487b7100000000000000000000000000000000000000000000000000000000\n    /* \"#utility.yul\":4762:4763   */\n  0x00\n    /* \"#utility.yul\":4755:4843   */\n  mstore\n    /* \"#utility.yul\":4862:4866   */\n  0x11\n    /* \"#utility.yul\":4859:4860   */\n  0x04\n    /* \"#utility.yul\":4852:4867   */\n  mstore\n    /* \"#utility.yul\":4886:4890   */\n  0x24\n    /* \"#utility.yul\":4883:4884   */\n  0x00\n    /* \"#utility.yul\":4876:4891   */\n  revert\n    /* \"#utility.yul\":4903:5083   */\ntag_118:\n    /* \"#utility.yul\":4951:5028   */\n  0x4e487b7100000000000000000000000000000000000000000000000000000000\n    /* \"#utility.yul\":4948:4949   */\n  0x00\n    /* \"#utility.yul\":4941:5029   */\n  mstore\n    /* \"#utility.yul\":5048:5052   */\n  0x22\n    /* \"#utility.yul\":5045:5046   */\n  0x04\n    /* \"#utility.yul\":5038:5053   */\n  mstore\n    /* \"#utility.yul\":5072:5076   */\n  0x24\n    /* \"#utility.yul\":5069:5070   */\n  0x00\n    /* \"#utility.yul\":5062:5077   */\n  revert\n    /* \"#utility.yul\":5089:5191   */\ntag_84:\n    /* \"#utility.yul\":5131:5139   */\n  0x00\n    /* \"#utility.yul\":5178:5183   */\n  dup2\n    /* \"#utility.yul\":5175:5176   */\n  0x01\n    /* \"#utility.yul\":5171:5184   */\n  shr\n    /* \"#utility.yul\":5150:5184   */\n  swap1\n  pop\n    /* \"#utility.yul\":5089:5191   */\n  swap2\n  swap1\n  pop\n  jump\t// out\n    /* \"#utility.yul\":5197:5378   */\ntag_59:\n    /* \"#utility.yul\":5337:5370   */\n  0x45524332303a206d696e7420746f20746865207a65726f206164647265737300\n    /* \"#utility.yul\":5333:5334   */\n  0x00\n    /* \"#utility.yul\":5325:5331   */\n  dup3\n    /* \"#utility.yul\":5321:5335   */\n  add\n    /* \"#utility.yul\":5314:5371   */\n  mstore\n    /* \"#utility.yul\":5197:5378   */\n  pop\n  jump\t// out\n    /* \"contracts/ZenyaStake.sol\":173:5328  contract ZenyaStake is ERC20, Ownable  {\r... */\ntag_23:\n  dataSize(sub_0)\n  dup1\n  dataOffset(sub_0)\n  0x00\n  codecopy\n  0x00\n  return\nstop\n\nsub_0: assembly {\n        /* \"contracts/ZenyaStake.sol\":173:5328  contract ZenyaStake is ERC20, Ownable  {\r... */\n      mstore(0x40, 0x80)\n      jumpi(tag_1, lt(calldatasize, 0x04))\n      shr(0xe0, calldataload(0x00))\n      dup1\n      0x715018a6\n      gt\n      tag_33\n      jumpi\n      dup1\n      0xbcb0c2d7\n      gt\n      tag_34\n      jumpi\n      dup1\n      0xe0c6190d\n      gt\n      tag_35\n      jumpi\n      dup1\n      0xe0c6190d\n      eq\n      tag_29\n      jumpi\n      dup1\n      0xe5c42fd1\n      eq\n      tag_30\n      jumpi\n      dup1\n      0xef037b90\n      eq\n      tag_31\n      jumpi\n      dup1\n      0xf2fde38b\n      eq\n      tag_32\n      jumpi\n      jump(tag_1)\n    tag_35:\n      dup1\n      0xbcb0c2d7\n      eq\n      tag_25\n      jumpi\n      dup1\n      0xc885bc58\n      eq\n      tag_26\n      jumpi\n      dup1\n      0xd82e3962\n      eq\n      tag_27\n      jumpi\n      dup1\n      0xdd62ed3e\n      eq\n      tag_28\n      jumpi\n      jump(tag_1)\n    tag_34:\n      dup1\n      0x95d89b41\n      gt\n      tag_36\n      jumpi\n      dup1\n      0x95d89b41\n      eq\n      tag_21\n      jumpi\n      dup1\n      0xa457c2d7\n      eq\n      tag_22\n      jumpi\n      dup1\n      0xa9059cbb\n      eq\n      tag_23\n      jumpi\n      dup1\n      0xb2bdfa7b\n      eq\n      tag_24\n      jumpi\n      jump(tag_1)\n    tag_36:\n      dup1\n      0x715018a6\n      eq\n      tag_17\n      jumpi\n      dup1\n      0x7e72fb52\n      eq\n      tag_18\n      jumpi\n      dup1\n      0x8da5cb5b\n      eq\n      tag_19\n      jumpi\n      dup1\n      0x939624ab\n      eq\n      tag_20\n      jumpi\n      jump(tag_1)\n    tag_33:\n      dup1\n      0x23b872dd\n      gt\n      tag_37\n      jumpi\n      dup1\n      0x42623360\n      gt\n      tag_38\n      jumpi\n      dup1\n      0x42623360\n      eq\n      tag_13\n      jumpi\n      dup1\n      0x4be21e33\n      eq\n      tag_14\n      jumpi\n      dup1\n      0x6f4a2cd0\n      eq\n      tag_15\n      jumpi\n      dup1\n      0x70a08231\n      eq\n      tag_16\n      jumpi\n      jump(tag_1)\n    tag_38:\n      dup1\n      0x23b872dd\n      eq\n      tag_9\n      jumpi\n      dup1\n      0x313ce567\n      eq\n      tag_10\n      jumpi\n      dup1\n      0x35789c8b\n      eq\n      tag_11\n      jumpi\n      dup1\n      0x39509351\n      eq\n      tag_12\n      jumpi\n      jump(tag_1)\n    tag_37:\n      dup1\n      0x0e15561a\n      gt\n      tag_39\n      jumpi\n      dup1\n      0x0e15561a\n      eq\n      tag_5\n      jumpi\n      dup1\n      0x18160ddd\n      eq\n      tag_6\n      jumpi\n      dup1\n      0x1bf6ddae\n      eq\n      tag_7\n      jumpi\n      dup1\n      0x1d62ebd9\n      eq\n      tag_8\n      jumpi\n      jump(tag_1)\n    tag_39:\n      dup1\n      0x046e2edb\n      eq\n      tag_2\n      jumpi\n      dup1\n      0x06fdde03\n      eq\n      tag_3\n      jumpi\n      dup1\n      0x095ea7b3\n      eq\n      tag_4\n      jumpi\n    tag_1:\n      0x00\n      dup1\n      revert\n        /* \"contracts/ZenyaStake.sol\":524:550  uint256 public zenyaPerEth */\n    tag_2:\n      callvalue\n      dup1\n      iszero\n      tag_40\n      jumpi\n      0x00\n      dup1\n      revert\n    tag_40:\n      pop\n      tag_41\n      tag_42\n      jump\t// in\n    tag_41:\n      mload(0x40)\n      tag_43\n      swap2\n      swap1\n      tag_44\n      jump\t// in\n    tag_43:\n      mload(0x40)\n      dup1\n      swap2\n      sub\n      swap1\n      return\n        /* \"@openzeppelin/contracts/token/ERC20/ERC20.sol\":2156:2254  function name() public view virtual override returns (string memory) {... */\n    tag_3:\n      callvalue\n      dup1\n      iszero\n      tag_45\n      jumpi\n      0x00\n      dup1\n      revert\n    tag_45:\n      pop\n      tag_46\n      tag_47\n      jump\t// in\n    tag_46:\n      mload(0x40)\n      tag_48\n      swap2\n      swap1\n      tag_49\n      jump\t// in\n    tag_48:\n      mload(0x40)\n      dup1\n      swap2\n      sub\n      swap1\n      return\n        /* \"@openzeppelin/contracts/token/ERC20/ERC20.sol\":4433:4630  function approve(address spender, uint256 amount) public virtual override returns (bool) {... */\n    tag_4:\n      callvalue\n      dup1\n      iszero\n      tag_50\n      jumpi\n      0x00\n      dup1\n      revert\n    tag_50:\n      pop\n      tag_51\n      0x04\n      dup1\n      calldatasize\n      sub\n      dup2\n      add\n      swap1\n      tag_52\n      swap2\n      swap1\n      tag_53\n      jump\t// in\n    tag_52:\n      tag_54\n      jump\t// in\n    tag_51:\n      mload(0x40)\n      tag_55\n      swap2\n      swap1\n      tag_56\n      jump\t// in\n    tag_55:\n      mload(0x40)\n      dup1\n      swap2\n      sub\n      swap1\n      return\n        /* \"contracts/ZenyaStake.sol\":3968:4240  function totalRewards() public view returns(uint256){\r... */\n    tag_5:\n      callvalue\n      dup1\n      iszero\n      tag_57\n      jumpi\n      0x00\n      dup1\n      revert\n    tag_57:\n      pop\n      tag_58\n      tag_59\n      jump\t// in\n    tag_58:\n      mload(0x40)\n      tag_60\n      swap2\n      swap1\n      tag_44\n      jump\t// in\n    tag_60:\n      mload(0x40)\n      dup1\n      swap2\n      sub\n      swap1\n      return\n        /* \"@openzeppelin/contracts/token/ERC20/ERC20.sol\":3244:3350  function totalSupply() public view virtual override returns (uint256) {... */\n    tag_6:\n      callvalue\n      dup1\n      iszero\n      tag_61\n      jumpi\n      0x00\n      dup1\n      revert\n    tag_61:\n      pop\n      tag_62\n      tag_63\n      jump\t// in\n    tag_62:\n      mload(0x40)\n      tag_64\n      swap2\n      swap1\n      tag_44\n      jump\t// in\n    tag_64:\n      mload(0x40)\n      dup1\n      swap2\n      sub\n      swap1\n      return\n        /* \"contracts/ZenyaStake.sol\":3160:3374  function createStake(uint256 _stake) public {\r... */\n    tag_7:\n      callvalue\n      dup1\n      iszero\n      tag_65\n      jumpi\n      0x00\n      dup1\n      revert\n    tag_65:\n      pop\n      tag_66\n      0x04\n      dup1\n      calldatasize\n      sub\n      dup2\n      add\n      swap1\n      tag_67\n      swap2\n      swap1\n      tag_68\n      jump\t// in\n    tag_67:\n      tag_69\n      jump\t// in\n    tag_66:\n      stop\n        /* \"contracts/ZenyaStake.sol\":3773:3889  function rewardOf(address _stakeholder) public view returns(uint256) {\r... */\n    tag_8:\n      callvalue\n      dup1\n      iszero\n      tag_70\n      jumpi\n      0x00\n      dup1\n      revert\n    tag_70:\n      pop\n      tag_71\n      0x04\n      dup1\n      calldatasize\n      sub\n      dup2\n      add\n      swap1\n      tag_72\n      swap2\n      swap1\n      tag_73\n      jump\t// in\n    tag_72:\n      tag_74\n      jump\t// in\n    tag_71:\n      mload(0x40)\n      tag_75\n      swap2\n      swap1\n      tag_44\n      jump\t// in\n    tag_75:\n      mload(0x40)\n      dup1\n      swap2\n      sub\n      swap1\n      return\n        /* \"@openzeppelin/contracts/token/ERC20/ERC20.sol\":5192:5478  function transferFrom(... */\n    tag_9:\n      callvalue\n      dup1\n      iszero\n      tag_76\n      jumpi\n      0x00\n      dup1\n      revert\n    tag_76:\n      pop\n      tag_77\n      0x04\n      dup1\n      calldatasize\n      sub\n      dup2\n      add\n      swap1\n      tag_78\n      swap2\n      swap1\n      tag_79\n      jump\t// in\n    tag_78:\n      tag_80\n      jump\t// in\n    tag_77:\n      mload(0x40)\n      tag_81\n      swap2\n      swap1\n      tag_56\n      jump\t// in\n    tag_81:\n      mload(0x40)\n      dup1\n      swap2\n      sub\n      swap1\n      return\n        /* \"@openzeppelin/contracts/token/ERC20/ERC20.sol\":3093:3184  function decimals() public view virtual override returns (uint8) {... */\n    tag_10:\n      callvalue\n      dup1\n      iszero\n      tag_82\n      jumpi\n      0x00\n      dup1\n      revert\n    tag_82:\n      pop\n      tag_83\n      tag_84\n      jump\t// in\n    tag_83:\n      mload(0x40)\n      tag_85\n      swap2\n      swap1\n      tag_86\n      jump\t// in\n    tag_85:\n      mload(0x40)\n      dup1\n      swap2\n      sub\n      swap1\n      return\n        /* \"contracts/ZenyaStake.sol\":401:430  uint256 public _buyTokenPrice */\n    tag_11:\n      callvalue\n      dup1\n      iszero\n      tag_87\n      jumpi\n      0x00\n      dup1\n      revert\n    tag_87:\n      pop\n      tag_88\n      tag_89\n      jump\t// in\n    tag_88:\n      mload(0x40)\n      tag_90\n      swap2\n      swap1\n      tag_44\n      jump\t// in\n    tag_90:\n      mload(0x40)\n      dup1\n      swap2\n      sub\n      swap1\n      return\n        /* \"@openzeppelin/contracts/token/ERC20/ERC20.sol\":5873:6109  function increaseAllowance(address spender, uint256 addedValue) public virtual returns (bool) {... */\n    tag_12:\n      callvalue\n      dup1\n      iszero\n      tag_91\n      jumpi\n      0x00\n      dup1\n      revert\n    tag_91:\n      pop\n      tag_92\n      0x04\n      dup1\n      calldatasize\n      sub\n      dup2\n      add\n      swap1\n      tag_93\n      swap2\n      swap1\n      tag_53\n      jump\t// in\n    tag_93:\n      tag_94\n      jump\t// in\n    tag_92:\n      mload(0x40)\n      tag_95\n      swap2\n      swap1\n      tag_56\n      jump\t// in\n    tag_95:\n      mload(0x40)\n      dup1\n      swap2\n      sub\n      swap1\n      return\n        /* \"contracts/ZenyaStake.sol\":2985:3099  function stakeOf(address _stakeholder) public view returns(uint256) {\r... */\n    tag_13:\n      callvalue\n      dup1\n      iszero\n      tag_96\n      jumpi\n      0x00\n      dup1\n      revert\n    tag_96:\n      pop\n      tag_97\n      0x04\n      dup1\n      calldatasize\n      sub\n      dup2\n      add\n      swap1\n      tag_98\n      swap2\n      swap1\n      tag_73\n      jump\t// in\n    tag_98:\n      tag_99\n      jump\t// in\n    tag_97:\n      mload(0x40)\n      tag_100\n      swap2\n      swap1\n      tag_44\n      jump\t// in\n    tag_100:\n      mload(0x40)\n      dup1\n      swap2\n      sub\n      swap1\n      return\n        /* \"contracts/ZenyaStake.sol\":1183:1368  function setTokenBuyPrice (uint256 buyPrice) public {\r... */\n    tag_14:\n      callvalue\n      dup1\n      iszero\n      tag_101\n      jumpi\n      0x00\n      dup1\n      revert\n    tag_101:\n      pop\n      tag_102\n      0x04\n      dup1\n      calldatasize\n      sub\n      dup2\n      add\n      swap1\n      tag_103\n      swap2\n      swap1\n      tag_68\n      jump\t// in\n    tag_103:\n      tag_104\n      jump\t// in\n    tag_102:\n      stop\n        /* \"contracts/ZenyaStake.sol\":4515:4813  function distributeRewards() public  {\r... */\n    tag_15:\n      callvalue\n      dup1\n      iszero\n      tag_105\n      jumpi\n      0x00\n      dup1\n      revert\n    tag_105:\n      pop\n      tag_106\n      tag_107\n      jump\t// in\n    tag_106:\n      stop\n        /* \"@openzeppelin/contracts/token/ERC20/ERC20.sol\":3408:3533  function balanceOf(address account) public view virtual override returns (uint256) {... */\n    tag_16:\n      callvalue\n      dup1\n      iszero\n      tag_108\n      jumpi\n      0x00\n      dup1\n      revert\n    tag_108:\n      pop\n      tag_109\n      0x04\n      dup1\n      calldatasize\n      sub\n      dup2\n      add\n      swap1\n      tag_110\n      swap2\n      swap1\n      tag_73\n      jump\t// in\n    tag_110:\n      tag_111\n      jump\t// in\n    tag_109:\n      mload(0x40)\n      tag_112\n      swap2\n      swap1\n      tag_44\n      jump\t// in\n    tag_112:\n      mload(0x40)\n      dup1\n      swap2\n      sub\n      swap1\n      return\n        /* \"@openzeppelin/contracts/access/Ownable.sol\":1668:1769  function renounceOwnership() public virtual onlyOwner {... */\n    tag_17:\n      callvalue\n      dup1\n      iszero\n      tag_113\n      jumpi\n      0x00\n      dup1\n      revert\n    tag_113:\n      pop\n      tag_114\n      tag_115\n      jump\t// in\n    tag_114:\n      stop\n        /* \"contracts/ZenyaStake.sol\":1514:1975  function buyToken(address receiver) public payable{\r... */\n    tag_18:\n      tag_116\n      0x04\n      dup1\n      calldatasize\n      sub\n      dup2\n      add\n      swap1\n      tag_117\n      swap2\n      swap1\n      tag_73\n      jump\t// in\n    tag_117:\n      tag_118\n      jump\t// in\n    tag_116:\n      stop\n        /* \"@openzeppelin/contracts/access/Ownable.sol\":1036:1121  function owner() public view virtual returns (address) {... */\n    tag_19:\n      callvalue\n      dup1\n      iszero\n      tag_119\n      jumpi\n      0x00\n      dup1\n      revert\n    tag_119:\n      pop\n      tag_120\n      tag_121\n      jump\t// in\n    tag_120:\n      mload(0x40)\n      tag_122\n      swap2\n      swap1\n      tag_123\n      jump\t// in\n    tag_122:\n      mload(0x40)\n      dup1\n      swap2\n      sub\n      swap1\n      return\n        /* \"contracts/ZenyaStake.sol\":3435:3650  function removeStake(uint256 _stake) public {\r... */\n    tag_20:\n      callvalue\n      dup1\n      iszero\n      tag_124\n      jumpi\n      0x00\n      dup1\n      revert\n    tag_124:\n      pop\n      tag_125\n      0x04\n      dup1\n      calldatasize\n      sub\n      dup2\n      add\n      swap1\n      tag_126\n      swap2\n      swap1\n      tag_68\n      jump\t// in\n    tag_126:\n      tag_127\n      jump\t// in\n    tag_125:\n      stop\n        /* \"@openzeppelin/contracts/token/ERC20/ERC20.sol\":2367:2469  function symbol() public view virtual override returns (string memory) {... */\n    tag_21:\n      callvalue\n      dup1\n      iszero\n      tag_128\n      jumpi\n      0x00\n      dup1\n      revert\n    tag_128:\n      pop\n      tag_129\n      tag_130\n      jump\t// in\n    tag_129:\n      mload(0x40)\n      tag_131\n      swap2\n      swap1\n      tag_49\n      jump\t// in\n    tag_131:\n      mload(0x40)\n      dup1\n      swap2\n      sub\n      swap1\n      return\n        /* \"@openzeppelin/contracts/token/ERC20/ERC20.sol\":6596:7025  function decreaseAllowance(address spender, uint256 subtractedValue) public virtual returns (bool) {... */\n    tag_22:\n      callvalue\n      dup1\n      iszero\n      tag_132\n      jumpi\n      0x00\n      dup1\n      revert\n    tag_132:\n      pop\n      tag_133\n      0x04\n      dup1\n      calldatasize\n      sub\n      dup2\n      add\n      swap1\n      tag_134\n      swap2\n      swap1\n      tag_53\n      jump\t// in\n    tag_134:\n      tag_135\n      jump\t// in\n    tag_133:\n      mload(0x40)\n      tag_136\n      swap2\n      swap1\n      tag_56\n      jump\t// in\n    tag_136:\n      mload(0x40)\n      dup1\n      swap2\n      sub\n      swap1\n      return\n        /* \"@openzeppelin/contracts/token/ERC20/ERC20.sol\":3729:3918  function transfer(address to, uint256 amount) public virtual override returns (bool) {... */\n    tag_23:\n      callvalue\n      dup1\n      iszero\n      tag_137\n      jumpi\n      0x00\n      dup1\n      revert\n    tag_137:\n      pop\n      tag_138\n      0x04\n      dup1\n      calldatasize\n      sub\n      dup2\n      add\n      swap1\n      tag_139\n      swap2\n      swap1\n      tag_53\n      jump\t// in\n    tag_139:\n      tag_140\n      jump\t// in\n    tag_138:\n      mload(0x40)\n      tag_141\n      swap2\n      swap1\n      tag_56\n      jump\t// in\n    tag_141:\n      mload(0x40)\n      dup1\n      swap2\n      sub\n      swap1\n      return\n        /* \"contracts/ZenyaStake.sol\":288:309  address public _owner */\n    tag_24:\n      callvalue\n      dup1\n      iszero\n      tag_142\n      jumpi\n      0x00\n      dup1\n      revert\n    tag_142:\n      pop\n      tag_143\n      tag_144\n      jump\t// in\n    tag_143:\n      mload(0x40)\n      tag_145\n      swap2\n      swap1\n      tag_123\n      jump\t// in\n    tag_145:\n      mload(0x40)\n      dup1\n      swap2\n      sub\n      swap1\n      return\n        /* \"contracts/ZenyaStake.sol\":2640:2920  function removeStakeholder(address _stakeholder) public {\r... */\n    tag_25:\n      callvalue\n      dup1\n      iszero\n      tag_146\n      jumpi\n      0x00\n      dup1\n      revert\n    tag_146:\n      pop\n      tag_147\n      0x04\n      dup1\n      calldatasize\n      sub\n      dup2\n      add\n      swap1\n      tag_148\n      swap2\n      swap1\n      tag_73\n      jump\t// in\n    tag_148:\n      tag_149\n      jump\t// in\n    tag_147:\n      stop\n        /* \"contracts/ZenyaStake.sol\":4885:5079  function withdrawReward() public {\r... */\n    tag_26:\n      callvalue\n      dup1\n      iszero\n      tag_150\n      jumpi\n      0x00\n      dup1\n      revert\n    tag_150:\n      pop\n      tag_151\n      tag_152\n      jump\t// in\n    tag_151:\n      stop\n        /* \"contracts/ZenyaStake.sol\":4321:4448  function calculateReward(address _stakeholder) public view returns(uint256){\r... */\n    tag_27:\n      callvalue\n      dup1\n      iszero\n      tag_153\n      jumpi\n      0x00\n      dup1\n      revert\n    tag_153:\n      pop\n      tag_154\n      0x04\n      dup1\n      calldatasize\n      sub\n      dup2\n      add\n      swap1\n      tag_155\n      swap2\n      swap1\n      tag_73\n      jump\t// in\n    tag_155:\n      tag_156\n      jump\t// in\n    tag_154:\n      mload(0x40)\n      tag_157\n      swap2\n      swap1\n      tag_44\n      jump\t// in\n    tag_157:\n      mload(0x40)\n      dup1\n      swap2\n      sub\n      swap1\n      return\n        /* \"@openzeppelin/contracts/token/ERC20/ERC20.sol\":3976:4125  function allowance(address owner, address spender) public view virtual override returns (uint256) {... */\n    tag_28:\n      callvalue\n      dup1\n      iszero\n      tag_158\n      jumpi\n      0x00\n      dup1\n      revert\n    tag_158:\n      pop\n      tag_159\n      0x04\n      dup1\n      calldatasize\n      sub\n      dup2\n      add\n      swap1\n      tag_160\n      swap2\n      swap1\n      tag_161\n      jump\t// in\n    tag_160:\n      tag_162\n      jump\t// in\n    tag_159:\n      mload(0x40)\n      tag_163\n      swap2\n      swap1\n      tag_44\n      jump\t// in\n    tag_163:\n      mload(0x40)\n      dup1\n      swap2\n      sub\n      swap1\n      return\n        /* \"contracts/ZenyaStake.sol\":5087:5325  function checkTime() public returns (bool){\r... */\n    tag_29:\n      callvalue\n      dup1\n      iszero\n      tag_164\n      jumpi\n      0x00\n      dup1\n      revert\n    tag_164:\n      pop\n      tag_165\n      tag_166\n      jump\t// in\n    tag_165:\n      mload(0x40)\n      tag_167\n      swap2\n      swap1\n      tag_56\n      jump\t// in\n    tag_167:\n      mload(0x40)\n      dup1\n      swap2\n      sub\n      swap1\n      return\n        /* \"contracts/ZenyaStake.sol\":2406:2591  function addStakeholder(address _stakeholder) public {\r... */\n    tag_30:\n      callvalue\n      dup1\n      iszero\n      tag_168\n      jumpi\n      0x00\n      dup1\n      revert\n    tag_168:\n      pop\n      tag_169\n      0x04\n      dup1\n      calldatasize\n      sub\n      dup2\n      add\n      swap1\n      tag_170\n      swap2\n      swap1\n      tag_73\n      jump\t// in\n    tag_170:\n      tag_171\n      jump\t// in\n    tag_169:\n      stop\n        /* \"contracts/ZenyaStake.sol\":2111:2360  function isStakeholder(address _address) public view returns(bool, uint256) {\r... */\n    tag_31:\n      callvalue\n      dup1\n      iszero\n      tag_172\n      jumpi\n      0x00\n      dup1\n      revert\n    tag_172:\n      pop\n      tag_173\n      0x04\n      dup1\n      calldatasize\n      sub\n      dup2\n      add\n      swap1\n      tag_174\n      swap2\n      swap1\n      tag_73\n      jump\t// in\n    tag_174:\n      tag_175\n      jump\t// in\n    tag_173:\n      mload(0x40)\n      tag_176\n      swap3\n      swap2\n      swap1\n      tag_177\n      jump\t// in\n    tag_176:\n      mload(0x40)\n      dup1\n      swap2\n      sub\n      swap1\n      return\n        /* \"@openzeppelin/contracts/access/Ownable.sol\":1918:2116  function transferOwnership(address newOwner) public virtual onlyOwner {... */\n    tag_32:\n      callvalue\n      dup1\n      iszero\n      tag_178\n      jumpi\n      0x00\n      dup1\n      revert\n    tag_178:\n      pop\n      tag_179\n      0x04\n      dup1\n      calldatasize\n      sub\n      dup2\n      add\n      swap1\n      tag_180\n      swap2\n      swap1\n      tag_73\n      jump\t// in\n    tag_180:\n      tag_181\n      jump\t// in\n    tag_179:\n      stop\n        /* \"contracts/ZenyaStake.sol\":524:550  uint256 public zenyaPerEth */\n    tag_42:\n      sload(0x08)\n      dup2\n      jump\t// out\n        /* \"@openzeppelin/contracts/token/ERC20/ERC20.sol\":2156:2254  function name() public view virtual override returns (string memory) {... */\n    tag_47:\n        /* \"@openzeppelin/contracts/token/ERC20/ERC20.sol\":2210:2223  string memory */\n      0x60\n        /* \"@openzeppelin/contracts/token/ERC20/ERC20.sol\":2242:2247  _name */\n      0x03\n        /* \"@openzeppelin/contracts/token/ERC20/ERC20.sol\":2235:2247  return _name */\n      dup1\n      sload\n      tag_183\n      swap1\n      tag_184\n      jump\t// in\n    tag_183:\n      dup1\n      0x1f\n      add\n      0x20\n      dup1\n      swap2\n      div\n      mul\n      0x20\n      add\n      mload(0x40)\n      swap1\n      dup2\n      add\n      0x40\n      mstore\n      dup1\n      swap3\n      swap2\n      swap1\n      dup2\n      dup2\n      mstore\n      0x20\n      add\n      dup3\n      dup1\n      sload\n      tag_185\n      swap1\n      tag_184\n      jump\t// in\n    tag_185:\n      dup1\n      iszero\n      tag_186\n      jumpi\n      dup1\n      0x1f\n      lt\n      tag_187\n      jumpi\n      0x0100\n      dup1\n      dup4\n      sload\n      div\n      mul\n      dup4\n      mstore\n      swap2\n      0x20\n      add\n      swap2\n      jump(tag_186)\n    tag_187:\n      dup3\n      add\n      swap2\n      swap1\n      0x00\n      mstore\n      keccak256(0x00, 0x20)\n      swap1\n    tag_188:\n      dup2\n      sload\n      dup2\n      mstore\n      swap1\n      0x01\n      add\n      swap1\n      0x20\n      add\n      dup1\n      dup4\n      gt\n      tag_188\n      jumpi\n      dup3\n      swap1\n      sub\n      0x1f\n      and\n      dup3\n      add\n      swap2\n    tag_186:\n      pop\n      pop\n      pop\n      pop\n      pop\n      swap1\n      pop\n        /* \"@openzeppelin/contracts/token/ERC20/ERC20.sol\":2156:2254  function name() public view virtual override returns (string memory) {... */\n      swap1\n      jump\t// out\n        /* \"@openzeppelin/contracts/token/ERC20/ERC20.sol\":4433:4630  function approve(address spender, uint256 amount) public virtual override returns (bool) {... */\n    tag_54:\n        /* \"@openzeppelin/contracts/token/ERC20/ERC20.sol\":4516:4520  bool */\n      0x00\n        /* \"@openzeppelin/contracts/token/ERC20/ERC20.sol\":4532:4545  address owner */\n      dup1\n        /* \"@openzeppelin/contracts/token/ERC20/ERC20.sol\":4548:4560  _msgSender() */\n      tag_190\n        /* \"@openzeppelin/contracts/token/ERC20/ERC20.sol\":4548:4558  _msgSender */\n      tag_191\n        /* \"@openzeppelin/contracts/token/ERC20/ERC20.sol\":4548:4560  _msgSender() */\n      jump\t// in\n    tag_190:\n        /* \"@openzeppelin/contracts/token/ERC20/ERC20.sol\":4532:4560  address owner = _msgSender() */\n      swap1\n      pop\n        /* \"@openzeppelin/contracts/token/ERC20/ERC20.sol\":4570:4602  _approve(owner, spender, amount) */\n      tag_192\n        /* \"@openzeppelin/contracts/token/ERC20/ERC20.sol\":4579:4584  owner */\n      dup2\n        /* \"@openzeppelin/contracts/token/ERC20/ERC20.sol\":4586:4593  spender */\n      dup6\n        /* \"@openzeppelin/contracts/token/ERC20/ERC20.sol\":4595:4601  amount */\n      dup6\n        /* \"@openzeppelin/contracts/token/ERC20/ERC20.sol\":4570:4578  _approve */\n      tag_193\n        /* \"@openzeppelin/contracts/token/ERC20/ERC20.sol\":4570:4602  _approve(owner, spender, amount) */\n      jump\t// in\n    tag_192:\n        /* \"@openzeppelin/contracts/token/ERC20/ERC20.sol\":4619:4623  true */\n      0x01\n        /* \"@openzeppelin/contracts/token/ERC20/ERC20.sol\":4612:4623  return true */\n      swap2\n      pop\n      pop\n        /* \"@openzeppelin/contracts/token/ERC20/ERC20.sol\":4433:4630  function approve(address spender, uint256 amount) public virtual override returns (bool) {... */\n      swap3\n      swap2\n      pop\n      pop\n      jump\t// out\n        /* \"contracts/ZenyaStake.sol\":3968:4240  function totalRewards() public view returns(uint256){\r... */\n    tag_59:\n        /* \"contracts/ZenyaStake.sol\":4012:4019  uint256 */\n      0x00\n        /* \"contracts/ZenyaStake.sol\":4031:4052  uint256 _totalRewards */\n      dup1\n        /* \"contracts/ZenyaStake.sol\":4055:4056  0 */\n      0x00\n        /* \"contracts/ZenyaStake.sol\":4031:4056  uint256 _totalRewards = 0 */\n      swap1\n      pop\n        /* \"contracts/ZenyaStake.sol\":4072:4081  uint256 s */\n      0x00\n        /* \"contracts/ZenyaStake.sol\":4067:4202  for (uint256 s = 0; s < stakeholders.length; s += 1){\r... */\n    tag_195:\n        /* \"contracts/ZenyaStake.sol\":4091:4103  stakeholders */\n      0x0a\n        /* \"contracts/ZenyaStake.sol\":4091:4110  stakeholders.length */\n      dup1\n      sload\n      swap1\n      pop\n        /* \"contracts/ZenyaStake.sol\":4087:4088  s */\n      dup2\n        /* \"contracts/ZenyaStake.sol\":4087:4110  s < stakeholders.length */\n      lt\n        /* \"contracts/ZenyaStake.sol\":4067:4202  for (uint256 s = 0; s < stakeholders.length; s += 1){\r... */\n      iszero\n      tag_196\n      jumpi\n        /* \"contracts/ZenyaStake.sol\":4166:4173  rewards */\n      0x0b\n        /* \"contracts/ZenyaStake.sol\":4166:4190  rewards[stakeholders[s]] */\n      0x00\n        /* \"contracts/ZenyaStake.sol\":4174:4186  stakeholders */\n      0x0a\n        /* \"contracts/ZenyaStake.sol\":4187:4188  s */\n      dup4\n        /* \"contracts/ZenyaStake.sol\":4174:4189  stakeholders[s] */\n      dup2\n      sload\n      dup2\n      lt\n      tag_198\n      jumpi\n      tag_199\n      tag_200\n      jump\t// in\n    tag_199:\n    tag_198:\n      swap1\n      0x00\n      mstore\n      keccak256(0x00, 0x20)\n      add\n      0x00\n      swap1\n      sload\n      swap1\n      0x0100\n      exp\n      swap1\n      div\n      0xffffffffffffffffffffffffffffffffffffffff\n      and\n        /* \"contracts/ZenyaStake.sol\":4166:4190  rewards[stakeholders[s]] */\n      0xffffffffffffffffffffffffffffffffffffffff\n      and\n      0xffffffffffffffffffffffffffffffffffffffff\n      and\n      dup2\n      mstore\n      0x20\n      add\n      swap1\n      dup2\n      mstore\n      0x20\n      add\n      0x00\n      keccak256\n      sload\n        /* \"contracts/ZenyaStake.sol\":4150:4163  _totalRewards */\n      dup3\n        /* \"contracts/ZenyaStake.sol\":4150:4190  _totalRewards + rewards[stakeholders[s]] */\n      tag_202\n      swap2\n      swap1\n      tag_203\n      jump\t// in\n    tag_202:\n        /* \"contracts/ZenyaStake.sol\":4134:4190  _totalRewards = _totalRewards + rewards[stakeholders[s]] */\n      swap2\n      pop\n        /* \"contracts/ZenyaStake.sol\":4117:4118  1 */\n      0x01\n        /* \"contracts/ZenyaStake.sol\":4112:4118  s += 1 */\n      dup2\n      tag_204\n      swap2\n      swap1\n      tag_203\n      jump\t// in\n    tag_204:\n      swap1\n      pop\n        /* \"contracts/ZenyaStake.sol\":4067:4202  for (uint256 s = 0; s < stakeholders.length; s += 1){\r... */\n      jump(tag_195)\n    tag_196:\n      pop\n        /* \"contracts/ZenyaStake.sol\":4219:4232  _totalRewards */\n      dup1\n        /* \"contracts/ZenyaStake.sol\":4212:4232  return _totalRewards */\n      swap2\n      pop\n      pop\n        /* \"contracts/ZenyaStake.sol\":3968:4240  function totalRewards() public view returns(uint256){\r... */\n      swap1\n      jump\t// out\n        /* \"@openzeppelin/contracts/token/ERC20/ERC20.sol\":3244:3350  function totalSupply() public view virtual override returns (uint256) {... */\n    tag_63:\n        /* \"@openzeppelin/contracts/token/ERC20/ERC20.sol\":3305:3312  uint256 */\n      0x00\n        /* \"@openzeppelin/contracts/token/ERC20/ERC20.sol\":3331:3343  _totalSupply */\n      sload(0x02)\n        /* \"@openzeppelin/contracts/token/ERC20/ERC20.sol\":3324:3343  return _totalSupply */\n      swap1\n      pop\n        /* \"@openzeppelin/contracts/token/ERC20/ERC20.sol\":3244:3350  function totalSupply() public view virtual override returns (uint256) {... */\n      swap1\n      jump\t// out\n        /* \"contracts/ZenyaStake.sol\":3160:3374  function createStake(uint256 _stake) public {\r... */\n    tag_69:\n        /* \"contracts/ZenyaStake.sol\":3215:3240  _burn(msg.sender, _stake) */\n      tag_207\n        /* \"contracts/ZenyaStake.sol\":3221:3231  msg.sender */\n      caller\n        /* \"contracts/ZenyaStake.sol\":3233:3239  _stake */\n      dup3\n        /* \"contracts/ZenyaStake.sol\":3215:3220  _burn */\n      tag_208\n        /* \"contracts/ZenyaStake.sol\":3215:3240  _burn(msg.sender, _stake) */\n      jump\t// in\n    tag_207:\n        /* \"contracts/ZenyaStake.sol\":3276:3277  0 */\n      0x00\n        /* \"contracts/ZenyaStake.sol\":3254:3260  stakes */\n      0x09\n        /* \"contracts/ZenyaStake.sol\":3254:3272  stakes[msg.sender] */\n      0x00\n        /* \"contracts/ZenyaStake.sol\":3261:3271  msg.sender */\n      caller\n        /* \"contracts/ZenyaStake.sol\":3254:3272  stakes[msg.sender] */\n      0xffffffffffffffffffffffffffffffffffffffff\n      and\n      0xffffffffffffffffffffffffffffffffffffffff\n      and\n      dup2\n      mstore\n      0x20\n      add\n      swap1\n      dup2\n      mstore\n      0x20\n      add\n      0x00\n      keccak256\n      sload\n        /* \"contracts/ZenyaStake.sol\":3254:3277  stakes[msg.sender] == 0 */\n      eq\n        /* \"contracts/ZenyaStake.sol\":3251:3305  if(stakes[msg.sender] == 0) addStakeholder(msg.sender) */\n      iszero\n      tag_209\n      jumpi\n        /* \"contracts/ZenyaStake.sol\":3279:3305  addStakeholder(msg.sender) */\n      tag_210\n        /* \"contracts/ZenyaStake.sol\":3294:3304  msg.sender */\n      caller\n        /* \"contracts/ZenyaStake.sol\":3279:3293  addStakeholder */\n      tag_171\n        /* \"contracts/ZenyaStake.sol\":3279:3305  addStakeholder(msg.sender) */\n      jump\t// in\n    tag_210:\n        /* \"contracts/ZenyaStake.sol\":3251:3305  if(stakes[msg.sender] == 0) addStakeholder(msg.sender) */\n    tag_209:\n        /* \"contracts/ZenyaStake.sol\":3358:3364  _stake */\n      dup1\n        /* \"contracts/ZenyaStake.sol\":3337:3343  stakes */\n      0x09\n        /* \"contracts/ZenyaStake.sol\":3337:3355  stakes[msg.sender] */\n      0x00\n        /* \"contracts/ZenyaStake.sol\":3344:3354  msg.sender */\n      caller\n        /* \"contracts/ZenyaStake.sol\":3337:3355  stakes[msg.sender] */\n      0xffffffffffffffffffffffffffffffffffffffff\n      and\n      0xffffffffffffffffffffffffffffffffffffffff\n      and\n      dup2\n      mstore\n      0x20\n      add\n      swap1\n      dup2\n      mstore\n      0x20\n      add\n      0x00\n      keccak256\n      sload\n        /* \"contracts/ZenyaStake.sol\":3337:3364  stakes[msg.sender] + _stake */\n      tag_211\n      swap2\n      swap1\n      tag_203\n      jump\t// in\n    tag_211:\n        /* \"contracts/ZenyaStake.sol\":3316:3322  stakes */\n      0x09\n        /* \"contracts/ZenyaStake.sol\":3316:3334  stakes[msg.sender] */\n      0x00\n        /* \"contracts/ZenyaStake.sol\":3323:3333  msg.sender */\n      caller\n        /* \"contracts/ZenyaStake.sol\":3316:3334  stakes[msg.sender] */\n      0xffffffffffffffffffffffffffffffffffffffff\n      and\n      0xffffffffffffffffffffffffffffffffffffffff\n      and\n      dup2\n      mstore\n      0x20\n      add\n      swap1\n      dup2\n      mstore\n      0x20\n      add\n      0x00\n      keccak256\n        /* \"contracts/ZenyaStake.sol\":3316:3364  stakes[msg.sender] = stakes[msg.sender] + _stake */\n      dup2\n      swap1\n      sstore\n      pop\n        /* \"contracts/ZenyaStake.sol\":3160:3374  function createStake(uint256 _stake) public {\r... */\n      pop\n      jump\t// out\n        /* \"contracts/ZenyaStake.sol\":3773:3889  function rewardOf(address _stakeholder) public view returns(uint256) {\r... */\n    tag_74:\n        /* \"contracts/ZenyaStake.sol\":3833:3840  uint256 */\n      0x00\n        /* \"contracts/ZenyaStake.sol\":3860:3867  rewards */\n      0x0b\n        /* \"contracts/ZenyaStake.sol\":3860:3881  rewards[_stakeholder] */\n      0x00\n        /* \"contracts/ZenyaStake.sol\":3868:3880  _stakeholder */\n      dup4\n        /* \"contracts/ZenyaStake.sol\":3860:3881  rewards[_stakeholder] */\n      0xffffffffffffffffffffffffffffffffffffffff\n      and\n      0xffffffffffffffffffffffffffffffffffffffff\n      and\n      dup2\n      mstore\n      0x20\n      add\n      swap1\n      dup2\n      mstore\n      0x20\n      add\n      0x00\n      keccak256\n      sload\n        /* \"contracts/ZenyaStake.sol\":3853:3881  return rewards[_stakeholder] */\n      swap1\n      pop\n        /* \"contracts/ZenyaStake.sol\":3773:3889  function rewardOf(address _stakeholder) public view returns(uint256) {\r... */\n      swap2\n      swap1\n      pop\n      jump\t// out\n        /* \"@openzeppelin/contracts/token/ERC20/ERC20.sol\":5192:5478  function transferFrom(... */\n    tag_80:\n        /* \"@openzeppelin/contracts/token/ERC20/ERC20.sol\":5319:5323  bool */\n      0x00\n        /* \"@openzeppelin/contracts/token/ERC20/ERC20.sol\":5335:5350  address spender */\n      dup1\n        /* \"@openzeppelin/contracts/token/ERC20/ERC20.sol\":5353:5365  _msgSender() */\n      tag_214\n        /* \"@openzeppelin/contracts/token/ERC20/ERC20.sol\":5353:5363  _msgSender */\n      tag_191\n        /* \"@openzeppelin/contracts/token/ERC20/ERC20.sol\":5353:5365  _msgSender() */\n      jump\t// in\n    tag_214:\n        /* \"@openzeppelin/contracts/token/ERC20/ERC20.sol\":5335:5365  address spender = _msgSender() */\n      swap1\n      pop\n        /* \"@openzeppelin/contracts/token/ERC20/ERC20.sol\":5375:5413  _spendAllowance(from, spender, amount) */\n      tag_215\n        /* \"@openzeppelin/contracts/token/ERC20/ERC20.sol\":5391:5395  from */\n      dup6\n        /* \"@openzeppelin/contracts/token/ERC20/ERC20.sol\":5397:5404  spender */\n      dup3\n        /* \"@openzeppelin/contracts/token/ERC20/ERC20.sol\":5406:5412  amount */\n      dup6\n        /* \"@openzeppelin/contracts/token/ERC20/ERC20.sol\":5375:5390  _spendAllowance */\n      tag_216\n        /* \"@openzeppelin/contracts/token/ERC20/ERC20.sol\":5375:5413  _spendAllowance(from, spender, amount) */\n      jump\t// in\n    tag_215:\n        /* \"@openzeppelin/contracts/token/ERC20/ERC20.sol\":5423:5450  _transfer(from, to, amount) */\n      tag_217\n        /* \"@openzeppelin/contracts/token/ERC20/ERC20.sol\":5433:5437  from */\n      dup6\n        /* \"@openzeppelin/contracts/token/ERC20/ERC20.sol\":5439:5441  to */\n      dup6\n        /* \"@openzeppelin/contracts/token/ERC20/ERC20.sol\":5443:5449  amount */\n      dup6\n        /* \"@openzeppelin/contracts/token/ERC20/ERC20.sol\":5423:5432  _transfer */\n      tag_218\n        /* \"@openzeppelin/contracts/token/ERC20/ERC20.sol\":5423:5450  _transfer(from, to, amount) */\n      jump\t// in\n    tag_217:\n        /* \"@openzeppelin/contracts/token/ERC20/ERC20.sol\":5467:5471  true */\n      0x01\n        /* \"@openzeppelin/contracts/token/ERC20/ERC20.sol\":5460:5471  return true */\n      swap2\n      pop\n      pop\n        /* \"@openzeppelin/contracts/token/ERC20/ERC20.sol\":5192:5478  function transferFrom(... */\n      swap4\n      swap3\n      pop\n      pop\n      pop\n      jump\t// out\n        /* \"@openzeppelin/contracts/token/ERC20/ERC20.sol\":3093:3184  function decimals() public view virtual override returns (uint8) {... */\n    tag_84:\n        /* \"@openzeppelin/contracts/token/ERC20/ERC20.sol\":3151:3156  uint8 */\n      0x00\n        /* \"@openzeppelin/contracts/token/ERC20/ERC20.sol\":3175:3177  18 */\n      0x12\n        /* \"@openzeppelin/contracts/token/ERC20/ERC20.sol\":3168:3177  return 18 */\n      swap1\n      pop\n        /* \"@openzeppelin/contracts/token/ERC20/ERC20.sol\":3093:3184  function decimals() public view virtual override returns (uint8) {... */\n      swap1\n      jump\t// out\n        /* \"contracts/ZenyaStake.sol\":401:430  uint256 public _buyTokenPrice */\n    tag_89:\n      sload(0x07)\n      dup2\n      jump\t// out\n        /* \"@openzeppelin/contracts/token/ERC20/ERC20.sol\":5873:6109  function increaseAllowance(address spender, uint256 addedValue) public virtual returns (bool) {... */\n    tag_94:\n        /* \"@openzeppelin/contracts/token/ERC20/ERC20.sol\":5961:5965  bool */\n      0x00\n        /* \"@openzeppelin/contracts/token/ERC20/ERC20.sol\":5977:5990  address owner */\n      dup1\n        /* \"@openzeppelin/contracts/token/ERC20/ERC20.sol\":5993:6005  _msgSender() */\n      tag_221\n        /* \"@openzeppelin/contracts/token/ERC20/ERC20.sol\":5993:6003  _msgSender */\n      tag_191\n        /* \"@openzeppelin/contracts/token/ERC20/ERC20.sol\":5993:6005  _msgSender() */\n      jump\t// in\n    tag_221:\n        /* \"@openzeppelin/contracts/token/ERC20/ERC20.sol\":5977:6005  address owner = _msgSender() */\n      swap1\n      pop\n        /* \"@openzeppelin/contracts/token/ERC20/ERC20.sol\":6015:6081  _approve(owner, spender, _allowances[owner][spender] + addedValue) */\n      tag_222\n        /* \"@openzeppelin/contracts/token/ERC20/ERC20.sol\":6024:6029  owner */\n      dup2\n        /* \"@openzeppelin/contracts/token/ERC20/ERC20.sol\":6031:6038  spender */\n      dup6\n        /* \"@openzeppelin/contracts/token/ERC20/ERC20.sol\":6070:6080  addedValue */\n      dup6\n        /* \"@openzeppelin/contracts/token/ERC20/ERC20.sol\":6040:6051  _allowances */\n      0x01\n        /* \"@openzeppelin/contracts/token/ERC20/ERC20.sol\":6040:6058  _allowances[owner] */\n      0x00\n        /* \"@openzeppelin/contracts/token/ERC20/ERC20.sol\":6052:6057  owner */\n      dup7\n        /* \"@openzeppelin/contracts/token/ERC20/ERC20.sol\":6040:6058  _allowances[owner] */\n      0xffffffffffffffffffffffffffffffffffffffff\n      and\n      0xffffffffffffffffffffffffffffffffffffffff\n      and\n      dup2\n      mstore\n      0x20\n      add\n      swap1\n      dup2\n      mstore\n      0x20\n      add\n      0x00\n      keccak256\n        /* \"@openzeppelin/contracts/token/ERC20/ERC20.sol\":6040:6067  _allowances[owner][spender] */\n      0x00\n        /* \"@openzeppelin/contracts/token/ERC20/ERC20.sol\":6059:6066  spender */\n      dup10\n        /* \"@openzeppelin/contracts/token/ERC20/ERC20.sol\":6040:6067  _allowances[owner][spender] */\n      0xffffffffffffffffffffffffffffffffffffffff\n      and\n      0xffffffffffffffffffffffffffffffffffffffff\n      and\n      dup2\n      mstore\n      0x20\n      add\n      swap1\n      dup2\n      mstore\n      0x20\n      add\n      0x00\n      keccak256\n      sload\n        /* \"@openzeppelin/contracts/token/ERC20/ERC20.sol\":6040:6080  _allowances[owner][spender] + addedValue */\n      tag_223\n      swap2\n      swap1\n      tag_203\n      jump\t// in\n    tag_223:\n        /* \"@openzeppelin/contracts/token/ERC20/ERC20.sol\":6015:6023  _approve */\n      tag_193\n        /* \"@openzeppelin/contracts/token/ERC20/ERC20.sol\":6015:6081  _approve(owner, spender, _allowances[owner][spender] + addedValue) */\n      jump\t// in\n    tag_222:\n        /* \"@openzeppelin/contracts/token/ERC20/ERC20.sol\":6098:6102  true */\n      0x01\n        /* \"@openzeppelin/contracts/token/ERC20/ERC20.sol\":6091:6102  return true */\n      swap2\n      pop\n      pop\n        /* \"@openzeppelin/contracts/token/ERC20/ERC20.sol\":5873:6109  function increaseAllowance(address spender, uint256 addedValue) public virtual returns (bool) {... */\n      swap3\n      swap2\n      pop\n      pop\n      jump\t// out\n        /* \"contracts/ZenyaStake.sol\":2985:3099  function stakeOf(address _stakeholder) public view returns(uint256) {\r... */\n    tag_99:\n        /* \"contracts/ZenyaStake.sol\":3044:3051  uint256 */\n      0x00\n        /* \"contracts/ZenyaStake.sol\":3071:3077  stakes */\n      0x09\n        /* \"contracts/ZenyaStake.sol\":3071:3091  stakes[_stakeholder] */\n      0x00\n        /* \"contracts/ZenyaStake.sol\":3078:3090  _stakeholder */\n      dup4\n        /* \"contracts/ZenyaStake.sol\":3071:3091  stakes[_stakeholder] */\n      0xffffffffffffffffffffffffffffffffffffffff\n      and\n      0xffffffffffffffffffffffffffffffffffffffff\n      and\n      dup2\n      mstore\n      0x20\n      add\n      swap1\n      dup2\n      mstore\n      0x20\n      add\n      0x00\n      keccak256\n      sload\n        /* \"contracts/ZenyaStake.sol\":3064:3091  return stakes[_stakeholder] */\n      swap1\n      pop\n        /* \"contracts/ZenyaStake.sol\":2985:3099  function stakeOf(address _stakeholder) public view returns(uint256) {\r... */\n      swap2\n      swap1\n      pop\n      jump\t// out\n        /* \"contracts/ZenyaStake.sol\":1183:1368  function setTokenBuyPrice (uint256 buyPrice) public {\r... */\n    tag_104:\n        /* \"contracts/ZenyaStake.sol\":1268:1274  _owner */\n      0x06\n      0x00\n      swap1\n      sload\n      swap1\n      0x0100\n      exp\n      swap1\n      div\n      0xffffffffffffffffffffffffffffffffffffffff\n      and\n        /* \"contracts/ZenyaStake.sol\":1254:1274  msg.sender == _owner */\n      0xffffffffffffffffffffffffffffffffffffffff\n      and\n        /* \"contracts/ZenyaStake.sol\":1254:1264  msg.sender */\n      caller\n        /* \"contracts/ZenyaStake.sol\":1254:1274  msg.sender == _owner */\n      0xffffffffffffffffffffffffffffffffffffffff\n      and\n      eq\n        /* \"contracts/ZenyaStake.sol\":1246:1324  require(msg.sender == _owner, \"Only the Owner can set the price of the token\") */\n      tag_226\n      jumpi\n      mload(0x40)\n      0x08c379a000000000000000000000000000000000000000000000000000000000\n      dup2\n      mstore\n      0x04\n      add\n      tag_227\n      swap1\n      tag_228\n      jump\t// in\n    tag_227:\n      mload(0x40)\n      dup1\n      swap2\n      sub\n      swap1\n      revert\n    tag_226:\n        /* \"contracts/ZenyaStake.sol\":1352:1360  buyPrice */\n      dup1\n        /* \"contracts/ZenyaStake.sol\":1335:1349  _buyTokenPrice */\n      0x07\n        /* \"contracts/ZenyaStake.sol\":1335:1360  _buyTokenPrice = buyPrice */\n      dup2\n      swap1\n      sstore\n      pop\n        /* \"contracts/ZenyaStake.sol\":1183:1368  function setTokenBuyPrice (uint256 buyPrice) public {\r... */\n      pop\n      jump\t// out\n        /* \"contracts/ZenyaStake.sol\":4515:4813  function distributeRewards() public  {\r... */\n    tag_107:\n        /* \"contracts/ZenyaStake.sol\":4568:4577  uint256 s */\n      0x00\n        /* \"contracts/ZenyaStake.sol\":4563:4806  for (uint256 s = 0; s < stakeholders.length; s += 1){\r... */\n    tag_230:\n        /* \"contracts/ZenyaStake.sol\":4587:4599  stakeholders */\n      0x0a\n        /* \"contracts/ZenyaStake.sol\":4587:4606  stakeholders.length */\n      dup1\n      sload\n      swap1\n      pop\n        /* \"contracts/ZenyaStake.sol\":4583:4584  s */\n      dup2\n        /* \"contracts/ZenyaStake.sol\":4583:4606  s < stakeholders.length */\n      lt\n        /* \"contracts/ZenyaStake.sol\":4563:4806  for (uint256 s = 0; s < stakeholders.length; s += 1){\r... */\n      iszero\n      tag_231\n      jumpi\n        /* \"contracts/ZenyaStake.sol\":4630:4649  address stakeholder */\n      0x00\n        /* \"contracts/ZenyaStake.sol\":4652:4664  stakeholders */\n      0x0a\n        /* \"contracts/ZenyaStake.sol\":4665:4666  s */\n      dup3\n        /* \"contracts/ZenyaStake.sol\":4652:4667  stakeholders[s] */\n      dup2\n      sload\n      dup2\n      lt\n      tag_233\n      jumpi\n      tag_234\n      tag_200\n      jump\t// in\n    tag_234:\n    tag_233:\n      swap1\n      0x00\n      mstore\n      keccak256(0x00, 0x20)\n      add\n      0x00\n      swap1\n      sload\n      swap1\n      0x0100\n      exp\n      swap1\n      div\n      0xffffffffffffffffffffffffffffffffffffffff\n      and\n        /* \"contracts/ZenyaStake.sol\":4630:4667  address stakeholder = stakeholders[s] */\n      swap1\n      pop\n        /* \"contracts/ZenyaStake.sol\":4682:4696  uint256 reward */\n      0x00\n        /* \"contracts/ZenyaStake.sol\":4699:4727  calculateReward(stakeholder) */\n      tag_236\n        /* \"contracts/ZenyaStake.sol\":4715:4726  stakeholder */\n      dup3\n        /* \"contracts/ZenyaStake.sol\":4699:4714  calculateReward */\n      tag_156\n        /* \"contracts/ZenyaStake.sol\":4699:4727  calculateReward(stakeholder) */\n      jump\t// in\n    tag_236:\n        /* \"contracts/ZenyaStake.sol\":4682:4727  uint256 reward = calculateReward(stakeholder) */\n      swap1\n      pop\n        /* \"contracts/ZenyaStake.sol\":4788:4794  reward */\n      dup1\n        /* \"contracts/ZenyaStake.sol\":4765:4772  rewards */\n      0x0b\n        /* \"contracts/ZenyaStake.sol\":4765:4785  rewards[stakeholder] */\n      0x00\n        /* \"contracts/ZenyaStake.sol\":4773:4784  stakeholder */\n      dup5\n        /* \"contracts/ZenyaStake.sol\":4765:4785  rewards[stakeholder] */\n      0xffffffffffffffffffffffffffffffffffffffff\n      and\n      0xffffffffffffffffffffffffffffffffffffffff\n      and\n      dup2\n      mstore\n      0x20\n      add\n      swap1\n      dup2\n      mstore\n      0x20\n      add\n      0x00\n      keccak256\n      sload\n        /* \"contracts/ZenyaStake.sol\":4765:4794  rewards[stakeholder] + reward */\n      tag_237\n      swap2\n      swap1\n      tag_203\n      jump\t// in\n    tag_237:\n        /* \"contracts/ZenyaStake.sol\":4742:4749  rewards */\n      0x0b\n        /* \"contracts/ZenyaStake.sol\":4742:4762  rewards[stakeholder] */\n      0x00\n        /* \"contracts/ZenyaStake.sol\":4750:4761  stakeholder */\n      dup5\n        /* \"contracts/ZenyaStake.sol\":4742:4762  rewards[stakeholder] */\n      0xffffffffffffffffffffffffffffffffffffffff\n      and\n      0xffffffffffffffffffffffffffffffffffffffff\n      and\n      dup2\n      mstore\n      0x20\n      add\n      swap1\n      dup2\n      mstore\n      0x20\n      add\n      0x00\n      keccak256\n        /* \"contracts/ZenyaStake.sol\":4742:4794  rewards[stakeholder] = rewards[stakeholder] + reward */\n      dup2\n      swap1\n      sstore\n      pop\n        /* \"contracts/ZenyaStake.sol\":4615:4806  {\r... */\n      pop\n      pop\n        /* \"contracts/ZenyaStake.sol\":4613:4614  1 */\n      0x01\n        /* \"contracts/ZenyaStake.sol\":4608:4614  s += 1 */\n      dup2\n      tag_238\n      swap2\n      swap1\n      tag_203\n      jump\t// in\n    tag_238:\n      swap1\n      pop\n        /* \"contracts/ZenyaStake.sol\":4563:4806  for (uint256 s = 0; s < stakeholders.length; s += 1){\r... */\n      jump(tag_230)\n    tag_231:\n      pop\n        /* \"contracts/ZenyaStake.sol\":4515:4813  function distributeRewards() public  {\r... */\n      jump\t// out\n        /* \"@openzeppelin/contracts/token/ERC20/ERC20.sol\":3408:3533  function balanceOf(address account) public view virtual override returns (uint256) {... */\n    tag_111:\n        /* \"@openzeppelin/contracts/token/ERC20/ERC20.sol\":3482:3489  uint256 */\n      0x00\n        /* \"@openzeppelin/contracts/token/ERC20/ERC20.sol\":3508:3517  _balances */\n      dup1\n        /* \"@openzeppelin/contracts/token/ERC20/ERC20.sol\":3508:3526  _balances[account] */\n      0x00\n        /* \"@openzeppelin/contracts/token/ERC20/ERC20.sol\":3518:3525  account */\n      dup4\n        /* \"@openzeppelin/contracts/token/ERC20/ERC20.sol\":3508:3526  _balances[account] */\n      0xffffffffffffffffffffffffffffffffffffffff\n      and\n      0xffffffffffffffffffffffffffffffffffffffff\n      and\n      dup2\n      mstore\n      0x20\n      add\n      swap1\n      dup2\n      mstore\n      0x20\n      add\n      0x00\n      keccak256\n      sload\n        /* \"@openzeppelin/contracts/token/ERC20/ERC20.sol\":3501:3526  return _balances[account] */\n      swap1\n      pop\n        /* \"@openzeppelin/contracts/token/ERC20/ERC20.sol\":3408:3533  function balanceOf(address account) public view virtual override returns (uint256) {... */\n      swap2\n      swap1\n      pop\n      jump\t// out\n        /* \"@openzeppelin/contracts/access/Ownable.sol\":1668:1769  function renounceOwnership() public virtual onlyOwner {... */\n    tag_115:\n        /* \"@openzeppelin/contracts/access/Ownable.sol\":1259:1271  _msgSender() */\n      tag_241\n        /* \"@openzeppelin/contracts/access/Ownable.sol\":1259:1269  _msgSender */\n      tag_191\n        /* \"@openzeppelin/contracts/access/Ownable.sol\":1259:1271  _msgSender() */\n      jump\t// in\n    tag_241:\n        /* \"@openzeppelin/contracts/access/Ownable.sol\":1248:1271  owner() == _msgSender() */\n      0xffffffffffffffffffffffffffffffffffffffff\n      and\n        /* \"@openzeppelin/contracts/access/Ownable.sol\":1248:1255  owner() */\n      tag_242\n        /* \"@openzeppelin/contracts/access/Ownable.sol\":1248:1253  owner */\n      tag_121\n        /* \"@openzeppelin/contracts/access/Ownable.sol\":1248:1255  owner() */\n      jump\t// in\n    tag_242:\n        /* \"@openzeppelin/contracts/access/Ownable.sol\":1248:1271  owner() == _msgSender() */\n      0xffffffffffffffffffffffffffffffffffffffff\n      and\n      eq\n        /* \"@openzeppelin/contracts/access/Ownable.sol\":1240:1308  require(owner() == _msgSender(), \"Ownable: caller is not the owner\") */\n      tag_243\n      jumpi\n      mload(0x40)\n      0x08c379a000000000000000000000000000000000000000000000000000000000\n      dup2\n      mstore\n      0x04\n      add\n      tag_244\n      swap1\n      tag_245\n      jump\t// in\n    tag_244:\n      mload(0x40)\n      dup1\n      swap2\n      sub\n      swap1\n      revert\n    tag_243:\n        /* \"@openzeppelin/contracts/access/Ownable.sol\":1732:1762  _transferOwnership(address(0)) */\n      tag_247\n        /* \"@openzeppelin/contracts/access/Ownable.sol\":1759:1760  0 */\n      0x00\n        /* \"@openzeppelin/contracts/access/Ownable.sol\":1732:1750  _transferOwnership */\n      tag_248\n        /* \"@openzeppelin/contracts/access/Ownable.sol\":1732:1762  _transferOwnership(address(0)) */\n      jump\t// in\n    tag_247:\n        /* \"@openzeppelin/contracts/access/Ownable.sol\":1668:1769  function renounceOwnership() public virtual onlyOwner {... */\n      jump\t// out\n        /* \"contracts/ZenyaStake.sol\":1514:1975  function buyToken(address receiver) public payable{\r... */\n    tag_118:\n        /* \"contracts/ZenyaStake.sol\":1679:1689  decimals() */\n      tag_250\n        /* \"contracts/ZenyaStake.sol\":1679:1687  decimals */\n      tag_84\n        /* \"contracts/ZenyaStake.sol\":1679:1689  decimals() */\n      jump\t// in\n    tag_250:\n        /* \"contracts/ZenyaStake.sol\":1675:1677  10 */\n      0x0a\n        /* \"contracts/ZenyaStake.sol\":1675:1689  10**decimals() */\n      tag_251\n      swap2\n      swap1\n      tag_252\n      jump\t// in\n    tag_251:\n        /* \"contracts/ZenyaStake.sol\":1658:1672  _buyTokenPrice */\n      sload(0x07)\n        /* \"contracts/ZenyaStake.sol\":1658:1689  _buyTokenPrice * 10**decimals() */\n      tag_253\n      swap2\n      swap1\n      tag_254\n      jump\t// in\n    tag_253:\n        /* \"contracts/ZenyaStake.sol\":1643:1654  zenyaPerEth */\n      0x08\n        /* \"contracts/ZenyaStake.sol\":1643:1689  zenyaPerEth  = _buyTokenPrice * 10**decimals() */\n      dup2\n      swap1\n      sstore\n      pop\n        /* \"contracts/ZenyaStake.sol\":1791:1813  uint256 amountMintable */\n      0x00\n        /* \"contracts/ZenyaStake.sol\":1848:1858  decimals() */\n      tag_255\n        /* \"contracts/ZenyaStake.sol\":1848:1856  decimals */\n      tag_84\n        /* \"contracts/ZenyaStake.sol\":1848:1858  decimals() */\n      jump\t// in\n    tag_255:\n        /* \"contracts/ZenyaStake.sol\":1844:1846  10 */\n      0x0a\n        /* \"contracts/ZenyaStake.sol\":1844:1858  10**decimals() */\n      tag_256\n      swap2\n      swap1\n      tag_252\n      jump\t// in\n    tag_256:\n        /* \"contracts/ZenyaStake.sol\":1829:1840  zenyaPerEth */\n      sload(0x08)\n        /* \"contracts/ZenyaStake.sol\":1817:1826  msg.value */\n      callvalue\n        /* \"contracts/ZenyaStake.sol\":1817:1840  msg.value * zenyaPerEth */\n      tag_257\n      swap2\n      swap1\n      tag_254\n      jump\t// in\n    tag_257:\n        /* \"contracts/ZenyaStake.sol\":1816:1858  (msg.value * zenyaPerEth) / 10**decimals() */\n      tag_258\n      swap2\n      swap1\n      tag_259\n      jump\t// in\n    tag_258:\n        /* \"contracts/ZenyaStake.sol\":1791:1858  uint256 amountMintable = (msg.value * zenyaPerEth) / 10**decimals() */\n      swap1\n      pop\n        /* \"contracts/ZenyaStake.sol\":1936:1967  _mint(receiver, amountMintable) */\n      tag_260\n        /* \"contracts/ZenyaStake.sol\":1942:1950  receiver */\n      dup3\n        /* \"contracts/ZenyaStake.sol\":1952:1966  amountMintable */\n      dup3\n        /* \"contracts/ZenyaStake.sol\":1936:1941  _mint */\n      tag_261\n        /* \"contracts/ZenyaStake.sol\":1936:1967  _mint(receiver, amountMintable) */\n      jump\t// in\n    tag_260:\n        /* \"contracts/ZenyaStake.sol\":1564:1975  {\r... */\n      pop\n        /* \"contracts/ZenyaStake.sol\":1514:1975  function buyToken(address receiver) public payable{\r... */\n      pop\n      jump\t// out\n        /* \"@openzeppelin/contracts/access/Ownable.sol\":1036:1121  function owner() public view virtual returns (address) {... */\n    tag_121:\n        /* \"@openzeppelin/contracts/access/Ownable.sol\":1082:1089  address */\n      0x00\n        /* \"@openzeppelin/contracts/access/Ownable.sol\":1108:1114  _owner */\n      0x05\n      0x00\n      swap1\n      sload\n      swap1\n      0x0100\n      exp\n      swap1\n      div\n      0xffffffffffffffffffffffffffffffffffffffff\n      and\n        /* \"@openzeppelin/contracts/access/Ownable.sol\":1101:1114  return _owner */\n      swap1\n      pop\n        /* \"@openzeppelin/contracts/access/Ownable.sol\":1036:1121  function owner() public view virtual returns (address) {... */\n      swap1\n      jump\t// out\n        /* \"contracts/ZenyaStake.sol\":3435:3650  function removeStake(uint256 _stake) public {\r... */\n    tag_127:\n        /* \"contracts/ZenyaStake.sol\":3532:3538  _stake */\n      dup1\n        /* \"contracts/ZenyaStake.sol\":3511:3517  stakes */\n      0x09\n        /* \"contracts/ZenyaStake.sol\":3511:3529  stakes[msg.sender] */\n      0x00\n        /* \"contracts/ZenyaStake.sol\":3518:3528  msg.sender */\n      caller\n        /* \"contracts/ZenyaStake.sol\":3511:3529  stakes[msg.sender] */\n      0xffffffffffffffffffffffffffffffffffffffff\n      and\n      0xffffffffffffffffffffffffffffffffffffffff\n      and\n      dup2\n      mstore\n      0x20\n      add\n      swap1\n      dup2\n      mstore\n      0x20\n      add\n      0x00\n      keccak256\n      sload\n        /* \"contracts/ZenyaStake.sol\":3511:3538  stakes[msg.sender] - _stake */\n      tag_264\n      swap2\n      swap1\n      tag_265\n      jump\t// in\n    tag_264:\n        /* \"contracts/ZenyaStake.sol\":3490:3496  stakes */\n      0x09\n        /* \"contracts/ZenyaStake.sol\":3490:3508  stakes[msg.sender] */\n      0x00\n        /* \"contracts/ZenyaStake.sol\":3497:3507  msg.sender */\n      caller\n        /* \"contracts/ZenyaStake.sol\":3490:3508  stakes[msg.sender] */\n      0xffffffffffffffffffffffffffffffffffffffff\n      and\n      0xffffffffffffffffffffffffffffffffffffffff\n      and\n      dup2\n      mstore\n      0x20\n      add\n      swap1\n      dup2\n      mstore\n      0x20\n      add\n      0x00\n      keccak256\n        /* \"contracts/ZenyaStake.sol\":3490:3538  stakes[msg.sender] = stakes[msg.sender] - _stake */\n      dup2\n      swap1\n      sstore\n      pop\n        /* \"contracts/ZenyaStake.sol\":3574:3575  0 */\n      0x00\n        /* \"contracts/ZenyaStake.sol\":3552:3558  stakes */\n      0x09\n        /* \"contracts/ZenyaStake.sol\":3552:3570  stakes[msg.sender] */\n      0x00\n        /* \"contracts/ZenyaStake.sol\":3559:3569  msg.sender */\n      caller\n        /* \"contracts/ZenyaStake.sol\":3552:3570  stakes[msg.sender] */\n      0xffffffffffffffffffffffffffffffffffffffff\n      and\n      0xffffffffffffffffffffffffffffffffffffffff\n      and\n      dup2\n      mstore\n      0x20\n      add\n      swap1\n      dup2\n      mstore\n      0x20\n      add\n      0x00\n      keccak256\n      sload\n        /* \"contracts/ZenyaStake.sol\":3552:3575  stakes[msg.sender] == 0 */\n      eq\n        /* \"contracts/ZenyaStake.sol\":3549:3606  if(stakes[msg.sender] == 0) removeStakeholder(msg.sender) */\n      iszero\n      tag_266\n      jumpi\n        /* \"contracts/ZenyaStake.sol\":3577:3606  removeStakeholder(msg.sender) */\n      tag_267\n        /* \"contracts/ZenyaStake.sol\":3595:3605  msg.sender */\n      caller\n        /* \"contracts/ZenyaStake.sol\":3577:3594  removeStakeholder */\n      tag_149\n        /* \"contracts/ZenyaStake.sol\":3577:3606  removeStakeholder(msg.sender) */\n      jump\t// in\n    tag_267:\n        /* \"contracts/ZenyaStake.sol\":3549:3606  if(stakes[msg.sender] == 0) removeStakeholder(msg.sender) */\n    tag_266:\n        /* \"contracts/ZenyaStake.sol\":3617:3642  _mint(msg.sender, _stake) */\n      tag_268\n        /* \"contracts/ZenyaStake.sol\":3623:3633  msg.sender */\n      caller\n        /* \"contracts/ZenyaStake.sol\":3635:3641  _stake */\n      dup3\n        /* \"contracts/ZenyaStake.sol\":3617:3622  _mint */\n      tag_261\n        /* \"contracts/ZenyaStake.sol\":3617:3642  _mint(msg.sender, _stake) */\n      jump\t// in\n    tag_268:\n        /* \"contracts/ZenyaStake.sol\":3435:3650  function removeStake(uint256 _stake) public {\r... */\n      pop\n      jump\t// out\n        /* \"@openzeppelin/contracts/token/ERC20/ERC20.sol\":2367:2469  function symbol() public view virtual override returns (string memory) {... */\n    tag_130:\n        /* \"@openzeppelin/contracts/token/ERC20/ERC20.sol\":2423:2436  string memory */\n      0x60\n        /* \"@openzeppelin/contracts/token/ERC20/ERC20.sol\":2455:2462  _symbol */\n      0x04\n        /* \"@openzeppelin/contracts/token/ERC20/ERC20.sol\":2448:2462  return _symbol */\n      dup1\n      sload\n      tag_270\n      swap1\n      tag_184\n      jump\t// in\n    tag_270:\n      dup1\n      0x1f\n      add\n      0x20\n      dup1\n      swap2\n      div\n      mul\n      0x20\n      add\n      mload(0x40)\n      swap1\n      dup2\n      add\n      0x40\n      mstore\n      dup1\n      swap3\n      swap2\n      swap1\n      dup2\n      dup2\n      mstore\n      0x20\n      add\n      dup3\n      dup1\n      sload\n      tag_271\n      swap1\n      tag_184\n      jump\t// in\n    tag_271:\n      dup1\n      iszero\n      tag_272\n      jumpi\n      dup1\n      0x1f\n      lt\n      tag_273\n      jumpi\n      0x0100\n      dup1\n      dup4\n      sload\n      div\n      mul\n      dup4\n      mstore\n      swap2\n      0x20\n      add\n      swap2\n      jump(tag_272)\n    tag_273:\n      dup3\n      add\n      swap2\n      swap1\n      0x00\n      mstore\n      keccak256(0x00, 0x20)\n      swap1\n    tag_274:\n      dup2\n      sload\n      dup2\n      mstore\n      swap1\n      0x01\n      add\n      swap1\n      0x20\n      add\n      dup1\n      dup4\n      gt\n      tag_274\n      jumpi\n      dup3\n      swap1\n      sub\n      0x1f\n      and\n      dup3\n      add\n      swap2\n    tag_272:\n      pop\n      pop\n      pop\n      pop\n      pop\n      swap1\n      pop\n        /* \"@openzeppelin/contracts/token/ERC20/ERC20.sol\":2367:2469  function symbol() public view virtual override returns (string memory) {... */\n      swap1\n      jump\t// out\n        /* \"@openzeppelin/contracts/token/ERC20/ERC20.sol\":6596:7025  function decreaseAllowance(address spender, uint256 subtractedValue) public virtual returns (bool) {... */\n    tag_135:\n        /* \"@openzeppelin/contracts/token/ERC20/ERC20.sol\":6689:6693  bool */\n      0x00\n        /* \"@openzeppelin/contracts/token/ERC20/ERC20.sol\":6705:6718  address owner */\n      dup1\n        /* \"@openzeppelin/contracts/token/ERC20/ERC20.sol\":6721:6733  _msgSender() */\n      tag_276\n        /* \"@openzeppelin/contracts/token/ERC20/ERC20.sol\":6721:6731  _msgSender */\n      tag_191\n        /* \"@openzeppelin/contracts/token/ERC20/ERC20.sol\":6721:6733  _msgSender() */\n      jump\t// in\n    tag_276:\n        /* \"@openzeppelin/contracts/token/ERC20/ERC20.sol\":6705:6733  address owner = _msgSender() */\n      swap1\n      pop\n        /* \"@openzeppelin/contracts/token/ERC20/ERC20.sol\":6743:6767  uint256 currentAllowance */\n      0x00\n        /* \"@openzeppelin/contracts/token/ERC20/ERC20.sol\":6770:6781  _allowances */\n      0x01\n        /* \"@openzeppelin/contracts/token/ERC20/ERC20.sol\":6770:6788  _allowances[owner] */\n      0x00\n        /* \"@openzeppelin/contracts/token/ERC20/ERC20.sol\":6782:6787  owner */\n      dup4\n        /* \"@openzeppelin/contracts/token/ERC20/ERC20.sol\":6770:6788  _allowances[owner] */\n      0xffffffffffffffffffffffffffffffffffffffff\n      and\n      0xffffffffffffffffffffffffffffffffffffffff\n      and\n      dup2\n      mstore\n      0x20\n      add\n      swap1\n      dup2\n      mstore\n      0x20\n      add\n      0x00\n      keccak256\n        /* \"@openzeppelin/contracts/token/ERC20/ERC20.sol\":6770:6797  _allowances[owner][spender] */\n      0x00\n        /* \"@openzeppelin/contracts/token/ERC20/ERC20.sol\":6789:6796  spender */\n      dup7\n        /* \"@openzeppelin/contracts/token/ERC20/ERC20.sol\":6770:6797  _allowances[owner][spender] */\n      0xffffffffffffffffffffffffffffffffffffffff\n      and\n      0xffffffffffffffffffffffffffffffffffffffff\n      and\n      dup2\n      mstore\n      0x20\n      add\n      swap1\n      dup2\n      mstore\n      0x20\n      add\n      0x00\n      keccak256\n      sload\n        /* \"@openzeppelin/contracts/token/ERC20/ERC20.sol\":6743:6797  uint256 currentAllowance = _allowances[owner][spender] */\n      swap1\n      pop\n        /* \"@openzeppelin/contracts/token/ERC20/ERC20.sol\":6835:6850  subtractedValue */\n      dup4\n        /* \"@openzeppelin/contracts/token/ERC20/ERC20.sol\":6815:6831  currentAllowance */\n      dup2\n        /* \"@openzeppelin/contracts/token/ERC20/ERC20.sol\":6815:6850  currentAllowance >= subtractedValue */\n      lt\n      iszero\n        /* \"@openzeppelin/contracts/token/ERC20/ERC20.sol\":6807:6892  require(currentAllowance >= subtractedValue, \"ERC20: decreased allowance below zero\") */\n      tag_277\n      jumpi\n      mload(0x40)\n      0x08c379a000000000000000000000000000000000000000000000000000000000\n      dup2\n      mstore\n      0x04\n      add\n      tag_278\n      swap1\n      tag_279\n      jump\t// in\n    tag_278:\n      mload(0x40)\n      dup1\n      swap2\n      sub\n      swap1\n      revert\n    tag_277:\n        /* \"@openzeppelin/contracts/token/ERC20/ERC20.sol\":6926:6986  _approve(owner, spender, currentAllowance - subtractedValue) */\n      tag_280\n        /* \"@openzeppelin/contracts/token/ERC20/ERC20.sol\":6935:6940  owner */\n      dup3\n        /* \"@openzeppelin/contracts/token/ERC20/ERC20.sol\":6942:6949  spender */\n      dup7\n        /* \"@openzeppelin/contracts/token/ERC20/ERC20.sol\":6970:6985  subtractedValue */\n      dup7\n        /* \"@openzeppelin/contracts/token/ERC20/ERC20.sol\":6951:6967  currentAllowance */\n      dup5\n        /* \"@openzeppelin/contracts/token/ERC20/ERC20.sol\":6951:6985  currentAllowance - subtractedValue */\n      sub\n        /* \"@openzeppelin/contracts/token/ERC20/ERC20.sol\":6926:6934  _approve */\n      tag_193\n        /* \"@openzeppelin/contracts/token/ERC20/ERC20.sol\":6926:6986  _approve(owner, spender, currentAllowance - subtractedValue) */\n      jump\t// in\n    tag_280:\n        /* \"@openzeppelin/contracts/token/ERC20/ERC20.sol\":7014:7018  true */\n      0x01\n        /* \"@openzeppelin/contracts/token/ERC20/ERC20.sol\":7007:7018  return true */\n      swap3\n      pop\n      pop\n      pop\n        /* \"@openzeppelin/contracts/token/ERC20/ERC20.sol\":6596:7025  function decreaseAllowance(address spender, uint256 subtractedValue) public virtual returns (bool) {... */\n      swap3\n      swap2\n      pop\n      pop\n      jump\t// out\n        /* \"@openzeppelin/contracts/token/ERC20/ERC20.sol\":3729:3918  function transfer(address to, uint256 amount) public virtual override returns (bool) {... */\n    tag_140:\n        /* \"@openzeppelin/contracts/token/ERC20/ERC20.sol\":3808:3812  bool */\n      0x00\n        /* \"@openzeppelin/contracts/token/ERC20/ERC20.sol\":3824:3837  address owner */\n      dup1\n        /* \"@openzeppelin/contracts/token/ERC20/ERC20.sol\":3840:3852  _msgSender() */\n      tag_282\n        /* \"@openzeppelin/contracts/token/ERC20/ERC20.sol\":3840:3850  _msgSender */\n      tag_191\n        /* \"@openzeppelin/contracts/token/ERC20/ERC20.sol\":3840:3852  _msgSender() */\n      jump\t// in\n    tag_282:\n        /* \"@openzeppelin/contracts/token/ERC20/ERC20.sol\":3824:3852  address owner = _msgSender() */\n      swap1\n      pop\n        /* \"@openzeppelin/contracts/token/ERC20/ERC20.sol\":3862:3890  _transfer(owner, to, amount) */\n      tag_283\n        /* \"@openzeppelin/contracts/token/ERC20/ERC20.sol\":3872:3877  owner */\n      dup2\n        /* \"@openzeppelin/contracts/token/ERC20/ERC20.sol\":3879:3881  to */\n      dup6\n        /* \"@openzeppelin/contracts/token/ERC20/ERC20.sol\":3883:3889  amount */\n      dup6\n        /* \"@openzeppelin/contracts/token/ERC20/ERC20.sol\":3862:3871  _transfer */\n      tag_218\n        /* \"@openzeppelin/contracts/token/ERC20/ERC20.sol\":3862:3890  _transfer(owner, to, amount) */\n      jump\t// in\n    tag_283:\n        /* \"@openzeppelin/contracts/token/ERC20/ERC20.sol\":3907:3911  true */\n      0x01\n        /* \"@openzeppelin/contracts/token/ERC20/ERC20.sol\":3900:3911  return true */\n      swap2\n      pop\n      pop\n        /* \"@openzeppelin/contracts/token/ERC20/ERC20.sol\":3729:3918  function transfer(address to, uint256 amount) public virtual override returns (bool) {... */\n      swap3\n      swap2\n      pop\n      pop\n      jump\t// out\n        /* \"contracts/ZenyaStake.sol\":288:309  address public _owner */\n    tag_144:\n      0x06\n      0x00\n      swap1\n      sload\n      swap1\n      0x0100\n      exp\n      swap1\n      div\n      0xffffffffffffffffffffffffffffffffffffffff\n      and\n      dup2\n      jump\t// out\n        /* \"contracts/ZenyaStake.sol\":2640:2920  function removeStakeholder(address _stakeholder) public {\r... */\n    tag_149:\n        /* \"contracts/ZenyaStake.sol\":2708:2727  bool _isStakeholder */\n      0x00\n        /* \"contracts/ZenyaStake.sol\":2729:2738  uint256 s */\n      dup1\n        /* \"contracts/ZenyaStake.sol\":2742:2769  isStakeholder(_stakeholder) */\n      tag_285\n        /* \"contracts/ZenyaStake.sol\":2756:2768  _stakeholder */\n      dup4\n        /* \"contracts/ZenyaStake.sol\":2742:2755  isStakeholder */\n      tag_175\n        /* \"contracts/ZenyaStake.sol\":2742:2769  isStakeholder(_stakeholder) */\n      jump\t// in\n    tag_285:\n        /* \"contracts/ZenyaStake.sol\":2707:2769  (bool _isStakeholder, uint256 s) = isStakeholder(_stakeholder) */\n      swap2\n      pop\n      swap2\n      pop\n        /* \"contracts/ZenyaStake.sol\":2783:2797  _isStakeholder */\n      dup2\n        /* \"contracts/ZenyaStake.sol\":2780:2913  if(_isStakeholder){\r... */\n      iszero\n      tag_286\n      jumpi\n        /* \"contracts/ZenyaStake.sol\":2831:2843  stakeholders */\n      0x0a\n        /* \"contracts/ZenyaStake.sol\":2866:2867  1 */\n      0x01\n        /* \"contracts/ZenyaStake.sol\":2844:2856  stakeholders */\n      0x0a\n        /* \"contracts/ZenyaStake.sol\":2844:2863  stakeholders.length */\n      dup1\n      sload\n      swap1\n      pop\n        /* \"contracts/ZenyaStake.sol\":2844:2867  stakeholders.length - 1 */\n      tag_287\n      swap2\n      swap1\n      tag_265\n      jump\t// in\n    tag_287:\n        /* \"contracts/ZenyaStake.sol\":2831:2868  stakeholders[stakeholders.length - 1] */\n      dup2\n      sload\n      dup2\n      lt\n      tag_288\n      jumpi\n      tag_289\n      tag_200\n      jump\t// in\n    tag_289:\n    tag_288:\n      swap1\n      0x00\n      mstore\n      keccak256(0x00, 0x20)\n      add\n      0x00\n      swap1\n      sload\n      swap1\n      0x0100\n      exp\n      swap1\n      div\n      0xffffffffffffffffffffffffffffffffffffffff\n      and\n        /* \"contracts/ZenyaStake.sol\":2813:2825  stakeholders */\n      0x0a\n        /* \"contracts/ZenyaStake.sol\":2826:2827  s */\n      dup3\n        /* \"contracts/ZenyaStake.sol\":2813:2828  stakeholders[s] */\n      dup2\n      sload\n      dup2\n      lt\n      tag_291\n      jumpi\n      tag_292\n      tag_200\n      jump\t// in\n    tag_292:\n    tag_291:\n      swap1\n      0x00\n      mstore\n      keccak256(0x00, 0x20)\n      add\n      0x00\n        /* \"contracts/ZenyaStake.sol\":2813:2868  stakeholders[s] = stakeholders[stakeholders.length - 1] */\n      0x0100\n      exp\n      dup2\n      sload\n      dup2\n      0xffffffffffffffffffffffffffffffffffffffff\n      mul\n      not\n      and\n      swap1\n      dup4\n      0xffffffffffffffffffffffffffffffffffffffff\n      and\n      mul\n      or\n      swap1\n      sstore\n      pop\n        /* \"contracts/ZenyaStake.sol\":2883:2895  stakeholders */\n      0x0a\n        /* \"contracts/ZenyaStake.sol\":2883:2901  stakeholders.pop() */\n      dup1\n      sload\n      dup1\n      tag_294\n      jumpi\n      tag_295\n      tag_296\n      jump\t// in\n    tag_295:\n    tag_294:\n      0x01\n      swap1\n      sub\n      dup2\n      dup2\n      swap1\n      0x00\n      mstore\n      keccak256(0x00, 0x20)\n      add\n      exp(0x0100, 0x00)\n      dup2\n      sload\n      swap1\n      0xffffffffffffffffffffffffffffffffffffffff\n      mul\n      not\n      and\n      swap1\n      sstore\n      swap1\n      sstore\n        /* \"contracts/ZenyaStake.sol\":2780:2913  if(_isStakeholder){\r... */\n    tag_286:\n        /* \"contracts/ZenyaStake.sol\":2696:2920  {\r... */\n      pop\n      pop\n        /* \"contracts/ZenyaStake.sol\":2640:2920  function removeStakeholder(address _stakeholder) public {\r... */\n      pop\n      jump\t// out\n        /* \"contracts/ZenyaStake.sol\":4885:5079  function withdrawReward() public {\r... */\n    tag_152:\n        /* \"contracts/ZenyaStake.sol\":4965:4979  uint256 reward */\n      0x00\n        /* \"contracts/ZenyaStake.sol\":4982:4989  rewards */\n      0x0b\n        /* \"contracts/ZenyaStake.sol\":4982:5001  rewards[msg.sender] */\n      0x00\n        /* \"contracts/ZenyaStake.sol\":4990:5000  msg.sender */\n      caller\n        /* \"contracts/ZenyaStake.sol\":4982:5001  rewards[msg.sender] */\n      0xffffffffffffffffffffffffffffffffffffffff\n      and\n      0xffffffffffffffffffffffffffffffffffffffff\n      and\n      dup2\n      mstore\n      0x20\n      add\n      swap1\n      dup2\n      mstore\n      0x20\n      add\n      0x00\n      keccak256\n      sload\n        /* \"contracts/ZenyaStake.sol\":4965:5001  uint256 reward = rewards[msg.sender] */\n      swap1\n      pop\n        /* \"contracts/ZenyaStake.sol\":5034:5035  0 */\n      0x00\n        /* \"contracts/ZenyaStake.sol\":5012:5019  rewards */\n      0x0b\n        /* \"contracts/ZenyaStake.sol\":5012:5031  rewards[msg.sender] */\n      0x00\n        /* \"contracts/ZenyaStake.sol\":5020:5030  msg.sender */\n      caller\n        /* \"contracts/ZenyaStake.sol\":5012:5031  rewards[msg.sender] */\n      0xffffffffffffffffffffffffffffffffffffffff\n      and\n      0xffffffffffffffffffffffffffffffffffffffff\n      and\n      dup2\n      mstore\n      0x20\n      add\n      swap1\n      dup2\n      mstore\n      0x20\n      add\n      0x00\n      keccak256\n        /* \"contracts/ZenyaStake.sol\":5012:5035  rewards[msg.sender] = 0 */\n      dup2\n      swap1\n      sstore\n      pop\n        /* \"contracts/ZenyaStake.sol\":5046:5071  _mint(msg.sender, reward) */\n      tag_299\n        /* \"contracts/ZenyaStake.sol\":5052:5062  msg.sender */\n      caller\n        /* \"contracts/ZenyaStake.sol\":5064:5070  reward */\n      dup3\n        /* \"contracts/ZenyaStake.sol\":5046:5051  _mint */\n      tag_261\n        /* \"contracts/ZenyaStake.sol\":5046:5071  _mint(msg.sender, reward) */\n      jump\t// in\n    tag_299:\n        /* \"contracts/ZenyaStake.sol\":4918:5079  {\r... */\n      pop\n        /* \"contracts/ZenyaStake.sol\":4885:5079  function withdrawReward() public {\r... */\n      jump\t// out\n        /* \"contracts/ZenyaStake.sol\":4321:4448  function calculateReward(address _stakeholder) public view returns(uint256){\r... */\n    tag_156:\n        /* \"contracts/ZenyaStake.sol\":4388:4395  uint256 */\n      0x00\n        /* \"contracts/ZenyaStake.sol\":4437:4440  100 */\n      0x64\n        /* \"contracts/ZenyaStake.sol\":4414:4420  stakes */\n      0x09\n        /* \"contracts/ZenyaStake.sol\":4414:4434  stakes[_stakeholder] */\n      0x00\n        /* \"contracts/ZenyaStake.sol\":4421:4433  _stakeholder */\n      dup5\n        /* \"contracts/ZenyaStake.sol\":4414:4434  stakes[_stakeholder] */\n      0xffffffffffffffffffffffffffffffffffffffff\n      and\n      0xffffffffffffffffffffffffffffffffffffffff\n      and\n      dup2\n      mstore\n      0x20\n      add\n      swap1\n      dup2\n      mstore\n      0x20\n      add\n      0x00\n      keccak256\n      sload\n        /* \"contracts/ZenyaStake.sol\":4414:4440  stakes[_stakeholder] / 100 */\n      tag_301\n      swap2\n      swap1\n      tag_259\n      jump\t// in\n    tag_301:\n        /* \"contracts/ZenyaStake.sol\":4407:4440  return stakes[_stakeholder] / 100 */\n      swap1\n      pop\n        /* \"contracts/ZenyaStake.sol\":4321:4448  function calculateReward(address _stakeholder) public view returns(uint256){\r... */\n      swap2\n      swap1\n      pop\n      jump\t// out\n        /* \"@openzeppelin/contracts/token/ERC20/ERC20.sol\":3976:4125  function allowance(address owner, address spender) public view virtual override returns (uint256) {... */\n    tag_162:\n        /* \"@openzeppelin/contracts/token/ERC20/ERC20.sol\":4065:4072  uint256 */\n      0x00\n        /* \"@openzeppelin/contracts/token/ERC20/ERC20.sol\":4091:4102  _allowances */\n      0x01\n        /* \"@openzeppelin/contracts/token/ERC20/ERC20.sol\":4091:4109  _allowances[owner] */\n      0x00\n        /* \"@openzeppelin/contracts/token/ERC20/ERC20.sol\":4103:4108  owner */\n      dup5\n        /* \"@openzeppelin/contracts/token/ERC20/ERC20.sol\":4091:4109  _allowances[owner] */\n      0xffffffffffffffffffffffffffffffffffffffff\n      and\n      0xffffffffffffffffffffffffffffffffffffffff\n      and\n      dup2\n      mstore\n      0x20\n      add\n      swap1\n      dup2\n      mstore\n      0x20\n      add\n      0x00\n      keccak256\n        /* \"@openzeppelin/contracts/token/ERC20/ERC20.sol\":4091:4118  _allowances[owner][spender] */\n      0x00\n        /* \"@openzeppelin/contracts/token/ERC20/ERC20.sol\":4110:4117  spender */\n      dup4\n        /* \"@openzeppelin/contracts/token/ERC20/ERC20.sol\":4091:4118  _allowances[owner][spender] */\n      0xffffffffffffffffffffffffffffffffffffffff\n      and\n      0xffffffffffffffffffffffffffffffffffffffff\n      and\n      dup2\n      mstore\n      0x20\n      add\n      swap1\n      dup2\n      mstore\n      0x20\n      add\n      0x00\n      keccak256\n      sload\n        /* \"@openzeppelin/contracts/token/ERC20/ERC20.sol\":4084:4118  return _allowances[owner][spender] */\n      swap1\n      pop\n        /* \"@openzeppelin/contracts/token/ERC20/ERC20.sol\":3976:4125  function allowance(address owner, address spender) public view virtual override returns (uint256) {... */\n      swap3\n      swap2\n      pop\n      pop\n      jump\t// out\n        /* \"contracts/ZenyaStake.sol\":5087:5325  function checkTime() public returns (bool){\r... */\n    tag_166:\n        /* \"contracts/ZenyaStake.sol\":5124:5128  bool */\n      0x00\n        /* \"contracts/ZenyaStake.sol\":5140:5153  uint duration */\n      dup1\n        /* \"contracts/ZenyaStake.sol\":5156:5172  7 * 24 * 60 * 60 */\n      0x093a80\n        /* \"contracts/ZenyaStake.sol\":5140:5172  uint duration = 7 * 24 * 60 * 60 */\n      swap1\n      pop\n        /* \"contracts/ZenyaStake.sol\":5201:5213  uint  _start */\n      0x00\n        /* \"contracts/ZenyaStake.sol\":5216:5231  block.timestamp */\n      timestamp\n        /* \"contracts/ZenyaStake.sol\":5201:5231  uint  _start = block.timestamp */\n      swap1\n      pop\n        /* \"contracts/ZenyaStake.sol\":5261:5271  uint  _end */\n      0x00\n        /* \"contracts/ZenyaStake.sol\":5283:5291  duration */\n      dup3\n        /* \"contracts/ZenyaStake.sol\":5274:5280  _start */\n      dup3\n        /* \"contracts/ZenyaStake.sol\":5274:5291  _start + duration */\n      tag_304\n      swap2\n      swap1\n      tag_203\n      jump\t// in\n    tag_304:\n        /* \"contracts/ZenyaStake.sol\":5261:5291  uint  _end = _start + duration */\n      swap1\n      pop\n        /* \"contracts/ZenyaStake.sol\":5129:5325  {\r... */\n      pop\n      pop\n      pop\n        /* \"contracts/ZenyaStake.sol\":5087:5325  function checkTime() public returns (bool){\r... */\n      swap1\n      jump\t// out\n        /* \"contracts/ZenyaStake.sol\":2406:2591  function addStakeholder(address _stakeholder) public {\r... */\n    tag_171:\n        /* \"contracts/ZenyaStake.sol\":2470:2489  bool _isStakeholder */\n      0x00\n        /* \"contracts/ZenyaStake.sol\":2495:2522  isStakeholder(_stakeholder) */\n      tag_306\n        /* \"contracts/ZenyaStake.sol\":2509:2521  _stakeholder */\n      dup3\n        /* \"contracts/ZenyaStake.sol\":2495:2508  isStakeholder */\n      tag_175\n        /* \"contracts/ZenyaStake.sol\":2495:2522  isStakeholder(_stakeholder) */\n      jump\t// in\n    tag_306:\n        /* \"contracts/ZenyaStake.sol\":2469:2522  (bool _isStakeholder, ) = isStakeholder(_stakeholder) */\n      pop\n      swap1\n      pop\n        /* \"contracts/ZenyaStake.sol\":2536:2550  _isStakeholder */\n      dup1\n        /* \"contracts/ZenyaStake.sol\":2532:2583  if(!_isStakeholder) stakeholders.push(_stakeholder) */\n      tag_307\n      jumpi\n        /* \"contracts/ZenyaStake.sol\":2552:2564  stakeholders */\n      0x0a\n        /* \"contracts/ZenyaStake.sol\":2570:2582  _stakeholder */\n      dup3\n        /* \"contracts/ZenyaStake.sol\":2552:2583  stakeholders.push(_stakeholder) */\n      swap1\n      dup1\n      0x01\n      dup2\n      sload\n      add\n      dup1\n      dup3\n      sstore\n      dup1\n      swap2\n      pop\n      pop\n      0x01\n      swap1\n      sub\n      swap1\n      0x00\n      mstore\n      keccak256(0x00, 0x20)\n      add\n      0x00\n      swap1\n      swap2\n      swap1\n      swap2\n      swap1\n      swap2\n      0x0100\n      exp\n      dup2\n      sload\n      dup2\n      0xffffffffffffffffffffffffffffffffffffffff\n      mul\n      not\n      and\n      swap1\n      dup4\n      0xffffffffffffffffffffffffffffffffffffffff\n      and\n      mul\n      or\n      swap1\n      sstore\n      pop\n        /* \"contracts/ZenyaStake.sol\":2532:2583  if(!_isStakeholder) stakeholders.push(_stakeholder) */\n    tag_307:\n        /* \"contracts/ZenyaStake.sol\":2459:2591  {\r... */\n      pop\n        /* \"contracts/ZenyaStake.sol\":2406:2591  function addStakeholder(address _stakeholder) public {\r... */\n      pop\n      jump\t// out\n        /* \"contracts/ZenyaStake.sol\":2111:2360  function isStakeholder(address _address) public view returns(bool, uint256) {\r... */\n    tag_175:\n        /* \"contracts/ZenyaStake.sol\":2172:2176  bool */\n      0x00\n        /* \"contracts/ZenyaStake.sol\":2178:2185  uint256 */\n      dup1\n        /* \"contracts/ZenyaStake.sol\":2202:2211  uint256 s */\n      0x00\n        /* \"contracts/ZenyaStake.sol\":2197:2325  for (uint256 s = 0; s < stakeholders.length; s += 1) {\r... */\n    tag_310:\n        /* \"contracts/ZenyaStake.sol\":2221:2233  stakeholders */\n      0x0a\n        /* \"contracts/ZenyaStake.sol\":2221:2240  stakeholders.length */\n      dup1\n      sload\n      swap1\n      pop\n        /* \"contracts/ZenyaStake.sol\":2217:2218  s */\n      dup2\n        /* \"contracts/ZenyaStake.sol\":2217:2240  s < stakeholders.length */\n      lt\n        /* \"contracts/ZenyaStake.sol\":2197:2325  for (uint256 s = 0; s < stakeholders.length; s += 1) {\r... */\n      iszero\n      tag_311\n      jumpi\n        /* \"contracts/ZenyaStake.sol\":2280:2292  stakeholders */\n      0x0a\n        /* \"contracts/ZenyaStake.sol\":2293:2294  s */\n      dup2\n        /* \"contracts/ZenyaStake.sol\":2280:2295  stakeholders[s] */\n      dup2\n      sload\n      dup2\n      lt\n      tag_313\n      jumpi\n      tag_314\n      tag_200\n      jump\t// in\n    tag_314:\n    tag_313:\n      swap1\n      0x00\n      mstore\n      keccak256(0x00, 0x20)\n      add\n      0x00\n      swap1\n      sload\n      swap1\n      0x0100\n      exp\n      swap1\n      div\n      0xffffffffffffffffffffffffffffffffffffffff\n      and\n        /* \"contracts/ZenyaStake.sol\":2268:2295  _address == stakeholders[s] */\n      0xffffffffffffffffffffffffffffffffffffffff\n      and\n        /* \"contracts/ZenyaStake.sol\":2268:2276  _address */\n      dup5\n        /* \"contracts/ZenyaStake.sol\":2268:2295  _address == stakeholders[s] */\n      0xffffffffffffffffffffffffffffffffffffffff\n      and\n      eq\n        /* \"contracts/ZenyaStake.sol\":2264:2313  if (_address == stakeholders[s]) return (true, s) */\n      iszero\n      tag_316\n      jumpi\n        /* \"contracts/ZenyaStake.sol\":2305:2309  true */\n      0x01\n        /* \"contracts/ZenyaStake.sol\":2311:2312  s */\n      dup2\n        /* \"contracts/ZenyaStake.sol\":2297:2313  return (true, s) */\n      swap3\n      pop\n      swap3\n      pop\n      pop\n      jump(tag_309)\n        /* \"contracts/ZenyaStake.sol\":2264:2313  if (_address == stakeholders[s]) return (true, s) */\n    tag_316:\n        /* \"contracts/ZenyaStake.sol\":2247:2248  1 */\n      0x01\n        /* \"contracts/ZenyaStake.sol\":2242:2248  s += 1 */\n      dup2\n      tag_317\n      swap2\n      swap1\n      tag_203\n      jump\t// in\n    tag_317:\n      swap1\n      pop\n        /* \"contracts/ZenyaStake.sol\":2197:2325  for (uint256 s = 0; s < stakeholders.length; s += 1) {\r... */\n      jump(tag_310)\n    tag_311:\n      pop\n        /* \"contracts/ZenyaStake.sol\":2343:2348  false */\n      0x00\n        /* \"contracts/ZenyaStake.sol\":2350:2351  0 */\n      dup1\n        /* \"contracts/ZenyaStake.sol\":2335:2352  return (false, 0) */\n      swap2\n      pop\n      swap2\n      pop\n        /* \"contracts/ZenyaStake.sol\":2111:2360  function isStakeholder(address _address) public view returns(bool, uint256) {\r... */\n    tag_309:\n      swap2\n      pop\n      swap2\n      jump\t// out\n        /* \"@openzeppelin/contracts/access/Ownable.sol\":1918:2116  function transferOwnership(address newOwner) public virtual onlyOwner {... */\n    tag_181:\n        /* \"@openzeppelin/contracts/access/Ownable.sol\":1259:1271  _msgSender() */\n      tag_319\n        /* \"@openzeppelin/contracts/access/Ownable.sol\":1259:1269  _msgSender */\n      tag_191\n        /* \"@openzeppelin/contracts/access/Ownable.sol\":1259:1271  _msgSender() */\n      jump\t// in\n    tag_319:\n        /* \"@openzeppelin/contracts/access/Ownable.sol\":1248:1271  owner() == _msgSender() */\n      0xffffffffffffffffffffffffffffffffffffffff\n      and\n        /* \"@openzeppelin/contracts/access/Ownable.sol\":1248:1255  owner() */\n      tag_320\n        /* \"@openzeppelin/contracts/access/Ownable.sol\":1248:1253  owner */\n      tag_121\n        /* \"@openzeppelin/contracts/access/Ownable.sol\":1248:1255  owner() */\n      jump\t// in\n    tag_320:\n        /* \"@openzeppelin/contracts/access/Ownable.sol\":1248:1271  owner() == _msgSender() */\n      0xffffffffffffffffffffffffffffffffffffffff\n      and\n      eq\n        /* \"@openzeppelin/contracts/access/Ownable.sol\":1240:1308  require(owner() == _msgSender(), \"Ownable: caller is not the owner\") */\n      tag_321\n      jumpi\n      mload(0x40)\n      0x08c379a000000000000000000000000000000000000000000000000000000000\n      dup2\n      mstore\n      0x04\n      add\n      tag_322\n      swap1\n      tag_245\n      jump\t// in\n    tag_322:\n      mload(0x40)\n      dup1\n      swap2\n      sub\n      swap1\n      revert\n    tag_321:\n        /* \"@openzeppelin/contracts/access/Ownable.sol\":2026:2027  0 */\n      0x00\n        /* \"@openzeppelin/contracts/access/Ownable.sol\":2006:2028  newOwner != address(0) */\n      0xffffffffffffffffffffffffffffffffffffffff\n      and\n        /* \"@openzeppelin/contracts/access/Ownable.sol\":2006:2014  newOwner */\n      dup2\n        /* \"@openzeppelin/contracts/access/Ownable.sol\":2006:2028  newOwner != address(0) */\n      0xffffffffffffffffffffffffffffffffffffffff\n      and\n      eq\n      iszero\n        /* \"@openzeppelin/contracts/access/Ownable.sol\":1998:2071  require(newOwner != address(0), \"Ownable: new owner is the zero address\") */\n      tag_324\n      jumpi\n      mload(0x40)\n      0x08c379a000000000000000000000000000000000000000000000000000000000\n      dup2\n      mstore\n      0x04\n      add\n      tag_325\n      swap1\n      tag_326\n      jump\t// in\n    tag_325:\n      mload(0x40)\n      dup1\n      swap2\n      sub\n      swap1\n      revert\n    tag_324:\n        /* \"@openzeppelin/contracts/access/Ownable.sol\":2081:2109  _transferOwnership(newOwner) */\n      tag_327\n        /* \"@openzeppelin/contracts/access/Ownable.sol\":2100:2108  newOwner */\n      dup2\n        /* \"@openzeppelin/contracts/access/Ownable.sol\":2081:2099  _transferOwnership */\n      tag_248\n        /* \"@openzeppelin/contracts/access/Ownable.sol\":2081:2109  _transferOwnership(newOwner) */\n      jump\t// in\n    tag_327:\n        /* \"@openzeppelin/contracts/access/Ownable.sol\":1918:2116  function transferOwnership(address newOwner) public virtual onlyOwner {... */\n      pop\n      jump\t// out\n        /* \"@openzeppelin/contracts/utils/Context.sol\":640:736  function _msgSender() internal view virtual returns (address) {... */\n    tag_191:\n        /* \"@openzeppelin/contracts/utils/Context.sol\":693:700  address */\n      0x00\n        /* \"@openzeppelin/contracts/utils/Context.sol\":719:729  msg.sender */\n      caller\n        /* \"@openzeppelin/contracts/utils/Context.sol\":712:729  return msg.sender */\n      swap1\n      pop\n        /* \"@openzeppelin/contracts/utils/Context.sol\":640:736  function _msgSender() internal view virtual returns (address) {... */\n      swap1\n      jump\t// out\n        /* \"@openzeppelin/contracts/token/ERC20/ERC20.sol\":10123:10493  function _approve(... */\n    tag_193:\n        /* \"@openzeppelin/contracts/token/ERC20/ERC20.sol\":10271:10272  0 */\n      0x00\n        /* \"@openzeppelin/contracts/token/ERC20/ERC20.sol\":10254:10273  owner != address(0) */\n      0xffffffffffffffffffffffffffffffffffffffff\n      and\n        /* \"@openzeppelin/contracts/token/ERC20/ERC20.sol\":10254:10259  owner */\n      dup4\n        /* \"@openzeppelin/contracts/token/ERC20/ERC20.sol\":10254:10273  owner != address(0) */\n      0xffffffffffffffffffffffffffffffffffffffff\n      and\n      eq\n      iszero\n        /* \"@openzeppelin/contracts/token/ERC20/ERC20.sol\":10246:10314  require(owner != address(0), \"ERC20: approve from the zero address\") */\n      tag_330\n      jumpi\n      mload(0x40)\n      0x08c379a000000000000000000000000000000000000000000000000000000000\n      dup2\n      mstore\n      0x04\n      add\n      tag_331\n      swap1\n      tag_332\n      jump\t// in\n    tag_331:\n      mload(0x40)\n      dup1\n      swap2\n      sub\n      swap1\n      revert\n    tag_330:\n        /* \"@openzeppelin/contracts/token/ERC20/ERC20.sol\":10351:10352  0 */\n      0x00\n        /* \"@openzeppelin/contracts/token/ERC20/ERC20.sol\":10332:10353  spender != address(0) */\n      0xffffffffffffffffffffffffffffffffffffffff\n      and\n        /* \"@openzeppelin/contracts/token/ERC20/ERC20.sol\":10332:10339  spender */\n      dup3\n        /* \"@openzeppelin/contracts/token/ERC20/ERC20.sol\":10332:10353  spender != address(0) */\n      0xffffffffffffffffffffffffffffffffffffffff\n      and\n      eq\n      iszero\n        /* \"@openzeppelin/contracts/token/ERC20/ERC20.sol\":10324:10392  require(spender != address(0), \"ERC20: approve to the zero address\") */\n      tag_333\n      jumpi\n      mload(0x40)\n      0x08c379a000000000000000000000000000000000000000000000000000000000\n      dup2\n      mstore\n      0x04\n      add\n      tag_334\n      swap1\n      tag_335\n      jump\t// in\n    tag_334:\n      mload(0x40)\n      dup1\n      swap2\n      sub\n      swap1\n      revert\n    tag_333:\n        /* \"@openzeppelin/contracts/token/ERC20/ERC20.sol\":10433:10439  amount */\n      dup1\n        /* \"@openzeppelin/contracts/token/ERC20/ERC20.sol\":10403:10414  _allowances */\n      0x01\n        /* \"@openzeppelin/contracts/token/ERC20/ERC20.sol\":10403:10421  _allowances[owner] */\n      0x00\n        /* \"@openzeppelin/contracts/token/ERC20/ERC20.sol\":10415:10420  owner */\n      dup6\n        /* \"@openzeppelin/contracts/token/ERC20/ERC20.sol\":10403:10421  _allowances[owner] */\n      0xffffffffffffffffffffffffffffffffffffffff\n      and\n      0xffffffffffffffffffffffffffffffffffffffff\n      and\n      dup2\n      mstore\n      0x20\n      add\n      swap1\n      dup2\n      mstore\n      0x20\n      add\n      0x00\n      keccak256\n        /* \"@openzeppelin/contracts/token/ERC20/ERC20.sol\":10403:10430  _allowances[owner][spender] */\n      0x00\n        /* \"@openzeppelin/contracts/token/ERC20/ERC20.sol\":10422:10429  spender */\n      dup5\n        /* \"@openzeppelin/contracts/token/ERC20/ERC20.sol\":10403:10430  _allowances[owner][spender] */\n      0xffffffffffffffffffffffffffffffffffffffff\n      and\n      0xffffffffffffffffffffffffffffffffffffffff\n      and\n      dup2\n      mstore\n      0x20\n      add\n      swap1\n      dup2\n      mstore\n      0x20\n      add\n      0x00\n      keccak256\n        /* \"@openzeppelin/contracts/token/ERC20/ERC20.sol\":10403:10439  _allowances[owner][spender] = amount */\n      dup2\n      swap1\n      sstore\n      pop\n        /* \"@openzeppelin/contracts/token/ERC20/ERC20.sol\":10470:10477  spender */\n      dup2\n        /* \"@openzeppelin/contracts/token/ERC20/ERC20.sol\":10454:10486  Approval(owner, spender, amount) */\n      0xffffffffffffffffffffffffffffffffffffffff\n      and\n        /* \"@openzeppelin/contracts/token/ERC20/ERC20.sol\":10463:10468  owner */\n      dup4\n        /* \"@openzeppelin/contracts/token/ERC20/ERC20.sol\":10454:10486  Approval(owner, spender, amount) */\n      0xffffffffffffffffffffffffffffffffffffffff\n      and\n      0x8c5be1e5ebec7d5bd14f71427d1e84f3dd0314c0f7b2291e5b200ac8c7c3b925\n        /* \"@openzeppelin/contracts/token/ERC20/ERC20.sol\":10479:10485  amount */\n      dup4\n        /* \"@openzeppelin/contracts/token/ERC20/ERC20.sol\":10454:10486  Approval(owner, spender, amount) */\n      mload(0x40)\n      tag_336\n      swap2\n      swap1\n      tag_44\n      jump\t// in\n    tag_336:\n      mload(0x40)\n      dup1\n      swap2\n      sub\n      swap1\n      log3\n        /* \"@openzeppelin/contracts/token/ERC20/ERC20.sol\":10123:10493  function _approve(... */\n      pop\n      pop\n      pop\n      jump\t// out\n        /* \"@openzeppelin/contracts/token/ERC20/ERC20.sol\":9124:9700  function _burn(address account, uint256 amount) internal virtual {... */\n    tag_208:\n        /* \"@openzeppelin/contracts/token/ERC20/ERC20.sol\":9226:9227  0 */\n      0x00\n        /* \"@openzeppelin/contracts/token/ERC20/ERC20.sol\":9207:9228  account != address(0) */\n      0xffffffffffffffffffffffffffffffffffffffff\n      and\n        /* \"@openzeppelin/contracts/token/ERC20/ERC20.sol\":9207:9214  account */\n      dup3\n        /* \"@openzeppelin/contracts/token/ERC20/ERC20.sol\":9207:9228  account != address(0) */\n      0xffffffffffffffffffffffffffffffffffffffff\n      and\n      eq\n      iszero\n        /* \"@openzeppelin/contracts/token/ERC20/ERC20.sol\":9199:9266  require(account != address(0), \"ERC20: burn from the zero address\") */\n      tag_338\n      jumpi\n      mload(0x40)\n      0x08c379a000000000000000000000000000000000000000000000000000000000\n      dup2\n      mstore\n      0x04\n      add\n      tag_339\n      swap1\n      tag_340\n      jump\t// in\n    tag_339:\n      mload(0x40)\n      dup1\n      swap2\n      sub\n      swap1\n      revert\n    tag_338:\n        /* \"@openzeppelin/contracts/token/ERC20/ERC20.sol\":9277:9326  _beforeTokenTransfer(account, address(0), amount) */\n      tag_341\n        /* \"@openzeppelin/contracts/token/ERC20/ERC20.sol\":9298:9305  account */\n      dup3\n        /* \"@openzeppelin/contracts/token/ERC20/ERC20.sol\":9315:9316  0 */\n      0x00\n        /* \"@openzeppelin/contracts/token/ERC20/ERC20.sol\":9319:9325  amount */\n      dup4\n        /* \"@openzeppelin/contracts/token/ERC20/ERC20.sol\":9277:9297  _beforeTokenTransfer */\n      tag_342\n        /* \"@openzeppelin/contracts/token/ERC20/ERC20.sol\":9277:9326  _beforeTokenTransfer(account, address(0), amount) */\n      jump\t// in\n    tag_341:\n        /* \"@openzeppelin/contracts/token/ERC20/ERC20.sol\":9337:9359  uint256 accountBalance */\n      0x00\n        /* \"@openzeppelin/contracts/token/ERC20/ERC20.sol\":9362:9371  _balances */\n      dup1\n        /* \"@openzeppelin/contracts/token/ERC20/ERC20.sol\":9362:9380  _balances[account] */\n      0x00\n        /* \"@openzeppelin/contracts/token/ERC20/ERC20.sol\":9372:9379  account */\n      dup5\n        /* \"@openzeppelin/contracts/token/ERC20/ERC20.sol\":9362:9380  _balances[account] */\n      0xffffffffffffffffffffffffffffffffffffffff\n      and\n      0xffffffffffffffffffffffffffffffffffffffff\n      and\n      dup2\n      mstore\n      0x20\n      add\n      swap1\n      dup2\n      mstore\n      0x20\n      add\n      0x00\n      keccak256\n      sload\n        /* \"@openzeppelin/contracts/token/ERC20/ERC20.sol\":9337:9380  uint256 accountBalance = _balances[account] */\n      swap1\n      pop\n        /* \"@openzeppelin/contracts/token/ERC20/ERC20.sol\":9416:9422  amount */\n      dup2\n        /* \"@openzeppelin/contracts/token/ERC20/ERC20.sol\":9398:9412  accountBalance */\n      dup2\n        /* \"@openzeppelin/contracts/token/ERC20/ERC20.sol\":9398:9422  accountBalance >= amount */\n      lt\n      iszero\n        /* \"@openzeppelin/contracts/token/ERC20/ERC20.sol\":9390:9461  require(accountBalance >= amount, \"ERC20: burn amount exceeds balance\") */\n      tag_343\n      jumpi\n      mload(0x40)\n      0x08c379a000000000000000000000000000000000000000000000000000000000\n      dup2\n      mstore\n      0x04\n      add\n      tag_344\n      swap1\n      tag_345\n      jump\t// in\n    tag_344:\n      mload(0x40)\n      dup1\n      swap2\n      sub\n      swap1\n      revert\n    tag_343:\n        /* \"@openzeppelin/contracts/token/ERC20/ERC20.sol\":9533:9539  amount */\n      dup2\n        /* \"@openzeppelin/contracts/token/ERC20/ERC20.sol\":9516:9530  accountBalance */\n      dup2\n        /* \"@openzeppelin/contracts/token/ERC20/ERC20.sol\":9516:9539  accountBalance - amount */\n      sub\n        /* \"@openzeppelin/contracts/token/ERC20/ERC20.sol\":9495:9504  _balances */\n      0x00\n        /* \"@openzeppelin/contracts/token/ERC20/ERC20.sol\":9495:9513  _balances[account] */\n      dup1\n        /* \"@openzeppelin/contracts/token/ERC20/ERC20.sol\":9505:9512  account */\n      dup6\n        /* \"@openzeppelin/contracts/token/ERC20/ERC20.sol\":9495:9513  _balances[account] */\n      0xffffffffffffffffffffffffffffffffffffffff\n      and\n      0xffffffffffffffffffffffffffffffffffffffff\n      and\n      dup2\n      mstore\n      0x20\n      add\n      swap1\n      dup2\n      mstore\n      0x20\n      add\n      0x00\n      keccak256\n        /* \"@openzeppelin/contracts/token/ERC20/ERC20.sol\":9495:9539  _balances[account] = accountBalance - amount */\n      dup2\n      swap1\n      sstore\n      pop\n        /* \"@openzeppelin/contracts/token/ERC20/ERC20.sol\":9575:9581  amount */\n      dup2\n        /* \"@openzeppelin/contracts/token/ERC20/ERC20.sol\":9559:9571  _totalSupply */\n      0x02\n      0x00\n        /* \"@openzeppelin/contracts/token/ERC20/ERC20.sol\":9559:9581  _totalSupply -= amount */\n      dup3\n      dup3\n      sload\n      tag_346\n      swap2\n      swap1\n      tag_265\n      jump\t// in\n    tag_346:\n      swap3\n      pop\n      pop\n      dup2\n      swap1\n      sstore\n      pop\n        /* \"@openzeppelin/contracts/token/ERC20/ERC20.sol\":9623:9624  0 */\n      0x00\n        /* \"@openzeppelin/contracts/token/ERC20/ERC20.sol\":9597:9634  Transfer(account, address(0), amount) */\n      0xffffffffffffffffffffffffffffffffffffffff\n      and\n        /* \"@openzeppelin/contracts/token/ERC20/ERC20.sol\":9606:9613  account */\n      dup4\n        /* \"@openzeppelin/contracts/token/ERC20/ERC20.sol\":9597:9634  Transfer(account, address(0), amount) */\n      0xffffffffffffffffffffffffffffffffffffffff\n      and\n      0xddf252ad1be2c89b69c2b068fc378daa952ba7f163c4a11628f55a4df523b3ef\n        /* \"@openzeppelin/contracts/token/ERC20/ERC20.sol\":9627:9633  amount */\n      dup5\n        /* \"@openzeppelin/contracts/token/ERC20/ERC20.sol\":9597:9634  Transfer(account, address(0), amount) */\n      mload(0x40)\n      tag_347\n      swap2\n      swap1\n      tag_44\n      jump\t// in\n    tag_347:\n      mload(0x40)\n      dup1\n      swap2\n      sub\n      swap1\n      log3\n        /* \"@openzeppelin/contracts/token/ERC20/ERC20.sol\":9645:9693  _afterTokenTransfer(account, address(0), amount) */\n      tag_348\n        /* \"@openzeppelin/contracts/token/ERC20/ERC20.sol\":9665:9672  account */\n      dup4\n        /* \"@openzeppelin/contracts/token/ERC20/ERC20.sol\":9682:9683  0 */\n      0x00\n        /* \"@openzeppelin/contracts/token/ERC20/ERC20.sol\":9686:9692  amount */\n      dup5\n        /* \"@openzeppelin/contracts/token/ERC20/ERC20.sol\":9645:9664  _afterTokenTransfer */\n      tag_349\n        /* \"@openzeppelin/contracts/token/ERC20/ERC20.sol\":9645:9693  _afterTokenTransfer(account, address(0), amount) */\n      jump\t// in\n    tag_348:\n        /* \"@openzeppelin/contracts/token/ERC20/ERC20.sol\":9189:9700  {... */\n      pop\n        /* \"@openzeppelin/contracts/token/ERC20/ERC20.sol\":9124:9700  function _burn(address account, uint256 amount) internal virtual {... */\n      pop\n      pop\n      jump\t// out\n        /* \"@openzeppelin/contracts/token/ERC20/ERC20.sol\":10770:11211  function _spendAllowance(... */\n    tag_216:\n        /* \"@openzeppelin/contracts/token/ERC20/ERC20.sol\":10900:10924  uint256 currentAllowance */\n      0x00\n        /* \"@openzeppelin/contracts/token/ERC20/ERC20.sol\":10927:10952  allowance(owner, spender) */\n      tag_351\n        /* \"@openzeppelin/contracts/token/ERC20/ERC20.sol\":10937:10942  owner */\n      dup5\n        /* \"@openzeppelin/contracts/token/ERC20/ERC20.sol\":10944:10951  spender */\n      dup5\n        /* \"@openzeppelin/contracts/token/ERC20/ERC20.sol\":10927:10936  allowance */\n      tag_162\n        /* \"@openzeppelin/contracts/token/ERC20/ERC20.sol\":10927:10952  allowance(owner, spender) */\n      jump\t// in\n    tag_351:\n        /* \"@openzeppelin/contracts/token/ERC20/ERC20.sol\":10900:10952  uint256 currentAllowance = allowance(owner, spender) */\n      swap1\n      pop\n        /* \"@openzeppelin/contracts/token/ERC20/ERC20.sol\":10986:11003  type(uint256).max */\n      0xffffffffffffffffffffffffffffffffffffffffffffffffffffffffffffffff\n        /* \"@openzeppelin/contracts/token/ERC20/ERC20.sol\":10966:10982  currentAllowance */\n      dup2\n        /* \"@openzeppelin/contracts/token/ERC20/ERC20.sol\":10966:11003  currentAllowance != type(uint256).max */\n      eq\n        /* \"@openzeppelin/contracts/token/ERC20/ERC20.sol\":10962:11205  if (currentAllowance != type(uint256).max) {... */\n      tag_352\n      jumpi\n        /* \"@openzeppelin/contracts/token/ERC20/ERC20.sol\":11047:11053  amount */\n      dup2\n        /* \"@openzeppelin/contracts/token/ERC20/ERC20.sol\":11027:11043  currentAllowance */\n      dup2\n        /* \"@openzeppelin/contracts/token/ERC20/ERC20.sol\":11027:11053  currentAllowance >= amount */\n      lt\n      iszero\n        /* \"@openzeppelin/contracts/token/ERC20/ERC20.sol\":11019:11087  require(currentAllowance >= amount, \"ERC20: insufficient allowance\") */\n      tag_353\n      jumpi\n      mload(0x40)\n      0x08c379a000000000000000000000000000000000000000000000000000000000\n      dup2\n      mstore\n      0x04\n      add\n      tag_354\n      swap1\n      tag_355\n      jump\t// in\n    tag_354:\n      mload(0x40)\n      dup1\n      swap2\n      sub\n      swap1\n      revert\n    tag_353:\n        /* \"@openzeppelin/contracts/token/ERC20/ERC20.sol\":11129:11180  _approve(owner, spender, currentAllowance - amount) */\n      tag_356\n        /* \"@openzeppelin/contracts/token/ERC20/ERC20.sol\":11138:11143  owner */\n      dup5\n        /* \"@openzeppelin/contracts/token/ERC20/ERC20.sol\":11145:11152  spender */\n      dup5\n        /* \"@openzeppelin/contracts/token/ERC20/ERC20.sol\":11173:11179  amount */\n      dup5\n        /* \"@openzeppelin/contracts/token/ERC20/ERC20.sol\":11154:11170  currentAllowance */\n      dup5\n        /* \"@openzeppelin/contracts/token/ERC20/ERC20.sol\":11154:11179  currentAllowance - amount */\n      sub\n        /* \"@openzeppelin/contracts/token/ERC20/ERC20.sol\":11129:11137  _approve */\n      tag_193\n        /* \"@openzeppelin/contracts/token/ERC20/ERC20.sol\":11129:11180  _approve(owner, spender, currentAllowance - amount) */\n      jump\t// in\n    tag_356:\n        /* \"@openzeppelin/contracts/token/ERC20/ERC20.sol\":10962:11205  if (currentAllowance != type(uint256).max) {... */\n    tag_352:\n        /* \"@openzeppelin/contracts/token/ERC20/ERC20.sol\":10890:11211  {... */\n      pop\n        /* \"@openzeppelin/contracts/token/ERC20/ERC20.sol\":10770:11211  function _spendAllowance(... */\n      pop\n      pop\n      pop\n      jump\t// out\n        /* \"@openzeppelin/contracts/token/ERC20/ERC20.sol\":7488:8139  function _transfer(... */\n    tag_218:\n        /* \"@openzeppelin/contracts/token/ERC20/ERC20.sol\":7630:7631  0 */\n      0x00\n        /* \"@openzeppelin/contracts/token/ERC20/ERC20.sol\":7614:7632  from != address(0) */\n      0xffffffffffffffffffffffffffffffffffffffff\n      and\n        /* \"@openzeppelin/contracts/token/ERC20/ERC20.sol\":7614:7618  from */\n      dup4\n        /* \"@openzeppelin/contracts/token/ERC20/ERC20.sol\":7614:7632  from != address(0) */\n      0xffffffffffffffffffffffffffffffffffffffff\n      and\n      eq\n      iszero\n        /* \"@openzeppelin/contracts/token/ERC20/ERC20.sol\":7606:7674  require(from != address(0), \"ERC20: transfer from the zero address\") */\n      tag_358\n      jumpi\n      mload(0x40)\n      0x08c379a000000000000000000000000000000000000000000000000000000000\n      dup2\n      mstore\n      0x04\n      add\n      tag_359\n      swap1\n      tag_360\n      jump\t// in\n    tag_359:\n      mload(0x40)\n      dup1\n      swap2\n      sub\n      swap1\n      revert\n    tag_358:\n        /* \"@openzeppelin/contracts/token/ERC20/ERC20.sol\":7706:7707  0 */\n      0x00\n        /* \"@openzeppelin/contracts/token/ERC20/ERC20.sol\":7692:7708  to != address(0) */\n      0xffffffffffffffffffffffffffffffffffffffff\n      and\n        /* \"@openzeppelin/contracts/token/ERC20/ERC20.sol\":7692:7694  to */\n      dup3\n        /* \"@openzeppelin/contracts/token/ERC20/ERC20.sol\":7692:7708  to != address(0) */\n      0xffffffffffffffffffffffffffffffffffffffff\n      and\n      eq\n      iszero\n        /* \"@openzeppelin/contracts/token/ERC20/ERC20.sol\":7684:7748  require(to != address(0), \"ERC20: transfer to the zero address\") */\n      tag_361\n      jumpi\n      mload(0x40)\n      0x08c379a000000000000000000000000000000000000000000000000000000000\n      dup2\n      mstore\n      0x04\n      add\n      tag_362\n      swap1\n      tag_363\n      jump\t// in\n    tag_362:\n      mload(0x40)\n      dup1\n      swap2\n      sub\n      swap1\n      revert\n    tag_361:\n        /* \"@openzeppelin/contracts/token/ERC20/ERC20.sol\":7759:7797  _beforeTokenTransfer(from, to, amount) */\n      tag_364\n        /* \"@openzeppelin/contracts/token/ERC20/ERC20.sol\":7780:7784  from */\n      dup4\n        /* \"@openzeppelin/contracts/token/ERC20/ERC20.sol\":7786:7788  to */\n      dup4\n        /* \"@openzeppelin/contracts/token/ERC20/ERC20.sol\":7790:7796  amount */\n      dup4\n        /* \"@openzeppelin/contracts/token/ERC20/ERC20.sol\":7759:7779  _beforeTokenTransfer */\n      tag_342\n        /* \"@openzeppelin/contracts/token/ERC20/ERC20.sol\":7759:7797  _beforeTokenTransfer(from, to, amount) */\n      jump\t// in\n    tag_364:\n        /* \"@openzeppelin/contracts/token/ERC20/ERC20.sol\":7808:7827  uint256 fromBalance */\n      0x00\n        /* \"@openzeppelin/contracts/token/ERC20/ERC20.sol\":7830:7839  _balances */\n      dup1\n        /* \"@openzeppelin/contracts/token/ERC20/ERC20.sol\":7830:7845  _balances[from] */\n      0x00\n        /* \"@openzeppelin/contracts/token/ERC20/ERC20.sol\":7840:7844  from */\n      dup6\n        /* \"@openzeppelin/contracts/token/ERC20/ERC20.sol\":7830:7845  _balances[from] */\n      0xffffffffffffffffffffffffffffffffffffffff\n      and\n      0xffffffffffffffffffffffffffffffffffffffff\n      and\n      dup2\n      mstore\n      0x20\n      add\n      swap1\n      dup2\n      mstore\n      0x20\n      add\n      0x00\n      keccak256\n      sload\n        /* \"@openzeppelin/contracts/token/ERC20/ERC20.sol\":7808:7845  uint256 fromBalance = _balances[from] */\n      swap1\n      pop\n        /* \"@openzeppelin/contracts/token/ERC20/ERC20.sol\":7878:7884  amount */\n      dup2\n        /* \"@openzeppelin/contracts/token/ERC20/ERC20.sol\":7863:7874  fromBalance */\n      dup2\n        /* \"@openzeppelin/contracts/token/ERC20/ERC20.sol\":7863:7884  fromBalance >= amount */\n      lt\n      iszero\n        /* \"@openzeppelin/contracts/token/ERC20/ERC20.sol\":7855:7927  require(fromBalance >= amount, \"ERC20: transfer amount exceeds balance\") */\n      tag_365\n      jumpi\n      mload(0x40)\n      0x08c379a000000000000000000000000000000000000000000000000000000000\n      dup2\n      mstore\n      0x04\n      add\n      tag_366\n      swap1\n      tag_367\n      jump\t// in\n    tag_366:\n      mload(0x40)\n      dup1\n      swap2\n      sub\n      swap1\n      revert\n    tag_365:\n        /* \"@openzeppelin/contracts/token/ERC20/ERC20.sol\":7993:7999  amount */\n      dup2\n        /* \"@openzeppelin/contracts/token/ERC20/ERC20.sol\":7979:7990  fromBalance */\n      dup2\n        /* \"@openzeppelin/contracts/token/ERC20/ERC20.sol\":7979:7999  fromBalance - amount */\n      sub\n        /* \"@openzeppelin/contracts/token/ERC20/ERC20.sol\":7961:7970  _balances */\n      0x00\n        /* \"@openzeppelin/contracts/token/ERC20/ERC20.sol\":7961:7976  _balances[from] */\n      dup1\n        /* \"@openzeppelin/contracts/token/ERC20/ERC20.sol\":7971:7975  from */\n      dup7\n        /* \"@openzeppelin/contracts/token/ERC20/ERC20.sol\":7961:7976  _balances[from] */\n      0xffffffffffffffffffffffffffffffffffffffff\n      and\n      0xffffffffffffffffffffffffffffffffffffffff\n      and\n      dup2\n      mstore\n      0x20\n      add\n      swap1\n      dup2\n      mstore\n      0x20\n      add\n      0x00\n      keccak256\n        /* \"@openzeppelin/contracts/token/ERC20/ERC20.sol\":7961:7999  _balances[from] = fromBalance - amount */\n      dup2\n      swap1\n      sstore\n      pop\n        /* \"@openzeppelin/contracts/token/ERC20/ERC20.sol\":8036:8042  amount */\n      dup2\n        /* \"@openzeppelin/contracts/token/ERC20/ERC20.sol\":8019:8028  _balances */\n      0x00\n        /* \"@openzeppelin/contracts/token/ERC20/ERC20.sol\":8019:8032  _balances[to] */\n      dup1\n        /* \"@openzeppelin/contracts/token/ERC20/ERC20.sol\":8029:8031  to */\n      dup6\n        /* \"@openzeppelin/contracts/token/ERC20/ERC20.sol\":8019:8032  _balances[to] */\n      0xffffffffffffffffffffffffffffffffffffffff\n      and\n      0xffffffffffffffffffffffffffffffffffffffff\n      and\n      dup2\n      mstore\n      0x20\n      add\n      swap1\n      dup2\n      mstore\n      0x20\n      add\n      0x00\n      keccak256\n      0x00\n        /* \"@openzeppelin/contracts/token/ERC20/ERC20.sol\":8019:8042  _balances[to] += amount */\n      dup3\n      dup3\n      sload\n      tag_368\n      swap2\n      swap1\n      tag_203\n      jump\t// in\n    tag_368:\n      swap3\n      pop\n      pop\n      dup2\n      swap1\n      sstore\n      pop\n        /* \"@openzeppelin/contracts/token/ERC20/ERC20.sol\":8073:8075  to */\n      dup3\n        /* \"@openzeppelin/contracts/token/ERC20/ERC20.sol\":8058:8084  Transfer(from, to, amount) */\n      0xffffffffffffffffffffffffffffffffffffffff\n      and\n        /* \"@openzeppelin/contracts/token/ERC20/ERC20.sol\":8067:8071  from */\n      dup5\n        /* \"@openzeppelin/contracts/token/ERC20/ERC20.sol\":8058:8084  Transfer(from, to, amount) */\n      0xffffffffffffffffffffffffffffffffffffffff\n      and\n      0xddf252ad1be2c89b69c2b068fc378daa952ba7f163c4a11628f55a4df523b3ef\n        /* \"@openzeppelin/contracts/token/ERC20/ERC20.sol\":8077:8083  amount */\n      dup5\n        /* \"@openzeppelin/contracts/token/ERC20/ERC20.sol\":8058:8084  Transfer(from, to, amount) */\n      mload(0x40)\n      tag_369\n      swap2\n      swap1\n      tag_44\n      jump\t// in\n    tag_369:\n      mload(0x40)\n      dup1\n      swap2\n      sub\n      swap1\n      log3\n        /* \"@openzeppelin/contracts/token/ERC20/ERC20.sol\":8095:8132  _afterTokenTransfer(from, to, amount) */\n      tag_370\n        /* \"@openzeppelin/contracts/token/ERC20/ERC20.sol\":8115:8119  from */\n      dup5\n        /* \"@openzeppelin/contracts/token/ERC20/ERC20.sol\":8121:8123  to */\n      dup5\n        /* \"@openzeppelin/contracts/token/ERC20/ERC20.sol\":8125:8131  amount */\n      dup5\n        /* \"@openzeppelin/contracts/token/ERC20/ERC20.sol\":8095:8114  _afterTokenTransfer */\n      tag_349\n        /* \"@openzeppelin/contracts/token/ERC20/ERC20.sol\":8095:8132  _afterTokenTransfer(from, to, amount) */\n      jump\t// in\n    tag_370:\n        /* \"@openzeppelin/contracts/token/ERC20/ERC20.sol\":7596:8139  {... */\n      pop\n        /* \"@openzeppelin/contracts/token/ERC20/ERC20.sol\":7488:8139  function _transfer(... */\n      pop\n      pop\n      pop\n      jump\t// out\n        /* \"@openzeppelin/contracts/access/Ownable.sol\":2270:2457  function _transferOwnership(address newOwner) internal virtual {... */\n    tag_248:\n        /* \"@openzeppelin/contracts/access/Ownable.sol\":2343:2359  address oldOwner */\n      0x00\n        /* \"@openzeppelin/contracts/access/Ownable.sol\":2362:2368  _owner */\n      0x05\n      0x00\n      swap1\n      sload\n      swap1\n      0x0100\n      exp\n      swap1\n      div\n      0xffffffffffffffffffffffffffffffffffffffff\n      and\n        /* \"@openzeppelin/contracts/access/Ownable.sol\":2343:2368  address oldOwner = _owner */\n      swap1\n      pop\n        /* \"@openzeppelin/contracts/access/Ownable.sol\":2387:2395  newOwner */\n      dup2\n        /* \"@openzeppelin/contracts/access/Ownable.sol\":2378:2384  _owner */\n      0x05\n      0x00\n        /* \"@openzeppelin/contracts/access/Ownable.sol\":2378:2395  _owner = newOwner */\n      0x0100\n      exp\n      dup2\n      sload\n      dup2\n      0xffffffffffffffffffffffffffffffffffffffff\n      mul\n      not\n      and\n      swap1\n      dup4\n      0xffffffffffffffffffffffffffffffffffffffff\n      and\n      mul\n      or\n      swap1\n      sstore\n      pop\n        /* \"@openzeppelin/contracts/access/Ownable.sol\":2441:2449  newOwner */\n      dup2\n        /* \"@openzeppelin/contracts/access/Ownable.sol\":2410:2450  OwnershipTransferred(oldOwner, newOwner) */\n      0xffffffffffffffffffffffffffffffffffffffff\n      and\n        /* \"@openzeppelin/contracts/access/Ownable.sol\":2431:2439  oldOwner */\n      dup2\n        /* \"@openzeppelin/contracts/access/Ownable.sol\":2410:2450  OwnershipTransferred(oldOwner, newOwner) */\n      0xffffffffffffffffffffffffffffffffffffffff\n      and\n      0x8be0079c531659141344cd1fd0a4f28419497f9722a3daafe3b4186f6b6457e0\n      mload(0x40)\n      mload(0x40)\n      dup1\n      swap2\n      sub\n      swap1\n      log3\n        /* \"@openzeppelin/contracts/access/Ownable.sol\":2333:2457  {... */\n      pop\n        /* \"@openzeppelin/contracts/access/Ownable.sol\":2270:2457  function _transferOwnership(address newOwner) internal virtual {... */\n      pop\n      jump\t// out\n        /* \"@openzeppelin/contracts/token/ERC20/ERC20.sol\":8415:8804  function _mint(address account, uint256 amount) internal virtual {... */\n    tag_261:\n        /* \"@openzeppelin/contracts/token/ERC20/ERC20.sol\":8517:8518  0 */\n      0x00\n        /* \"@openzeppelin/contracts/token/ERC20/ERC20.sol\":8498:8519  account != address(0) */\n      0xffffffffffffffffffffffffffffffffffffffff\n      and\n        /* \"@openzeppelin/contracts/token/ERC20/ERC20.sol\":8498:8505  account */\n      dup3\n        /* \"@openzeppelin/contracts/token/ERC20/ERC20.sol\":8498:8519  account != address(0) */\n      0xffffffffffffffffffffffffffffffffffffffff\n      and\n      eq\n      iszero\n        /* \"@openzeppelin/contracts/token/ERC20/ERC20.sol\":8490:8555  require(account != address(0), \"ERC20: mint to the zero address\") */\n      tag_373\n      jumpi\n      mload(0x40)\n      0x08c379a000000000000000000000000000000000000000000000000000000000\n      dup2\n      mstore\n      0x04\n      add\n      tag_374\n      swap1\n      tag_375\n      jump\t// in\n    tag_374:\n      mload(0x40)\n      dup1\n      swap2\n      sub\n      swap1\n      revert\n    tag_373:\n        /* \"@openzeppelin/contracts/token/ERC20/ERC20.sol\":8566:8615  _beforeTokenTransfer(address(0), account, amount) */\n      tag_376\n        /* \"@openzeppelin/contracts/token/ERC20/ERC20.sol\":8595:8596  0 */\n      0x00\n        /* \"@openzeppelin/contracts/token/ERC20/ERC20.sol\":8599:8606  account */\n      dup4\n        /* \"@openzeppelin/contracts/token/ERC20/ERC20.sol\":8608:8614  amount */\n      dup4\n        /* \"@openzeppelin/contracts/token/ERC20/ERC20.sol\":8566:8586  _beforeTokenTransfer */\n      tag_342\n        /* \"@openzeppelin/contracts/token/ERC20/ERC20.sol\":8566:8615  _beforeTokenTransfer(address(0), account, amount) */\n      jump\t// in\n    tag_376:\n        /* \"@openzeppelin/contracts/token/ERC20/ERC20.sol\":8642:8648  amount */\n      dup1\n        /* \"@openzeppelin/contracts/token/ERC20/ERC20.sol\":8626:8638  _totalSupply */\n      0x02\n      0x00\n        /* \"@openzeppelin/contracts/token/ERC20/ERC20.sol\":8626:8648  _totalSupply += amount */\n      dup3\n      dup3\n      sload\n      tag_377\n      swap2\n      swap1\n      tag_203\n      jump\t// in\n    tag_377:\n      swap3\n      pop\n      pop\n      dup2\n      swap1\n      sstore\n      pop\n        /* \"@openzeppelin/contracts/token/ERC20/ERC20.sol\":8680:8686  amount */\n      dup1\n        /* \"@openzeppelin/contracts/token/ERC20/ERC20.sol\":8658:8667  _balances */\n      0x00\n        /* \"@openzeppelin/contracts/token/ERC20/ERC20.sol\":8658:8676  _balances[account] */\n      dup1\n        /* \"@openzeppelin/contracts/token/ERC20/ERC20.sol\":8668:8675  account */\n      dup5\n        /* \"@openzeppelin/contracts/token/ERC20/ERC20.sol\":8658:8676  _balances[account] */\n      0xffffffffffffffffffffffffffffffffffffffff\n      and\n      0xffffffffffffffffffffffffffffffffffffffff\n      and\n      dup2\n      mstore\n      0x20\n      add\n      swap1\n      dup2\n      mstore\n      0x20\n      add\n      0x00\n      keccak256\n      0x00\n        /* \"@openzeppelin/contracts/token/ERC20/ERC20.sol\":8658:8686  _balances[account] += amount */\n      dup3\n      dup3\n      sload\n      tag_378\n      swap2\n      swap1\n      tag_203\n      jump\t// in\n    tag_378:\n      swap3\n      pop\n      pop\n      dup2\n      swap1\n      sstore\n      pop\n        /* \"@openzeppelin/contracts/token/ERC20/ERC20.sol\":8722:8729  account */\n      dup2\n        /* \"@openzeppelin/contracts/token/ERC20/ERC20.sol\":8701:8738  Transfer(address(0), account, amount) */\n      0xffffffffffffffffffffffffffffffffffffffff\n      and\n        /* \"@openzeppelin/contracts/token/ERC20/ERC20.sol\":8718:8719  0 */\n      0x00\n        /* \"@openzeppelin/contracts/token/ERC20/ERC20.sol\":8701:8738  Transfer(address(0), account, amount) */\n      0xffffffffffffffffffffffffffffffffffffffff\n      and\n      0xddf252ad1be2c89b69c2b068fc378daa952ba7f163c4a11628f55a4df523b3ef\n        /* \"@openzeppelin/contracts/token/ERC20/ERC20.sol\":8731:8737  amount */\n      dup4\n        /* \"@openzeppelin/contracts/token/ERC20/ERC20.sol\":8701:8738  Transfer(address(0), account, amount) */\n      mload(0x40)\n      tag_379\n      swap2\n      swap1\n      tag_44\n      jump\t// in\n    tag_379:\n      mload(0x40)\n      dup1\n      swap2\n      sub\n      swap1\n      log3\n        /* \"@openzeppelin/contracts/token/ERC20/ERC20.sol\":8749:8797  _afterTokenTransfer(address(0), account, amount) */\n      tag_380\n        /* \"@openzeppelin/contracts/token/ERC20/ERC20.sol\":8777:8778  0 */\n      0x00\n        /* \"@openzeppelin/contracts/token/ERC20/ERC20.sol\":8781:8788  account */\n      dup4\n        /* \"@openzeppelin/contracts/token/ERC20/ERC20.sol\":8790:8796  amount */\n      dup4\n        /* \"@openzeppelin/contracts/token/ERC20/ERC20.sol\":8749:8768  _afterTokenTransfer */\n      tag_349\n        /* \"@openzeppelin/contracts/token/ERC20/ERC20.sol\":8749:8797  _afterTokenTransfer(address(0), account, amount) */\n      jump\t// in\n    tag_380:\n        /* \"@openzeppelin/contracts/token/ERC20/ERC20.sol\":8415:8804  function _mint(address account, uint256 amount) internal virtual {... */\n      pop\n      pop\n      jump\t// out\n        /* \"@openzeppelin/contracts/token/ERC20/ERC20.sol\":11795:11916  function _beforeTokenTransfer(... */\n    tag_342:\n      pop\n      pop\n      pop\n      jump\t// out\n        /* \"@openzeppelin/contracts/token/ERC20/ERC20.sol\":12504:12624  function _afterTokenTransfer(... */\n    tag_349:\n      pop\n      pop\n      pop\n      jump\t// out\n        /* \"#utility.yul\":7:146   */\n    tag_384:\n        /* \"#utility.yul\":53:58   */\n      0x00\n        /* \"#utility.yul\":91:97   */\n      dup2\n        /* \"#utility.yul\":78:98   */\n      calldataload\n        /* \"#utility.yul\":69:98   */\n      swap1\n      pop\n        /* \"#utility.yul\":107:140   */\n      tag_386\n        /* \"#utility.yul\":134:139   */\n      dup2\n        /* \"#utility.yul\":107:140   */\n      tag_387\n      jump\t// in\n    tag_386:\n        /* \"#utility.yul\":7:146   */\n      swap3\n      swap2\n      pop\n      pop\n      jump\t// out\n        /* \"#utility.yul\":152:291   */\n    tag_388:\n        /* \"#utility.yul\":198:203   */\n      0x00\n        /* \"#utility.yul\":236:242   */\n      dup2\n        /* \"#utility.yul\":223:243   */\n      calldataload\n        /* \"#utility.yul\":214:243   */\n      swap1\n      pop\n        /* \"#utility.yul\":252:285   */\n      tag_390\n        /* \"#utility.yul\":279:284   */\n      dup2\n        /* \"#utility.yul\":252:285   */\n      tag_391\n      jump\t// in\n    tag_390:\n        /* \"#utility.yul\":152:291   */\n      swap3\n      swap2\n      pop\n      pop\n      jump\t// out\n        /* \"#utility.yul\":297:626   */\n    tag_73:\n        /* \"#utility.yul\":356:362   */\n      0x00\n        /* \"#utility.yul\":405:407   */\n      0x20\n        /* \"#utility.yul\":393:402   */\n      dup3\n        /* \"#utility.yul\":384:391   */\n      dup5\n        /* \"#utility.yul\":380:403   */\n      sub\n        /* \"#utility.yul\":376:408   */\n      slt\n        /* \"#utility.yul\":373:492   */\n      iszero\n      tag_393\n      jumpi\n        /* \"#utility.yul\":411:490   */\n      tag_394\n      tag_395\n      jump\t// in\n    tag_394:\n        /* \"#utility.yul\":373:492   */\n    tag_393:\n        /* \"#utility.yul\":531:532   */\n      0x00\n        /* \"#utility.yul\":556:609   */\n      tag_396\n        /* \"#utility.yul\":601:608   */\n      dup5\n        /* \"#utility.yul\":592:598   */\n      dup3\n        /* \"#utility.yul\":581:590   */\n      dup6\n        /* \"#utility.yul\":577:599   */\n      add\n        /* \"#utility.yul\":556:609   */\n      tag_384\n      jump\t// in\n    tag_396:\n        /* \"#utility.yul\":546:609   */\n      swap2\n      pop\n        /* \"#utility.yul\":502:619   */\n      pop\n        /* \"#utility.yul\":297:626   */\n      swap3\n      swap2\n      pop\n      pop\n      jump\t// out\n        /* \"#utility.yul\":632:1106   */\n    tag_161:\n        /* \"#utility.yul\":700:706   */\n      0x00\n        /* \"#utility.yul\":708:714   */\n      dup1\n        /* \"#utility.yul\":757:759   */\n      0x40\n        /* \"#utility.yul\":745:754   */\n      dup4\n        /* \"#utility.yul\":736:743   */\n      dup6\n        /* \"#utility.yul\":732:755   */\n      sub\n        /* \"#utility.yul\":728:760   */\n      slt\n        /* \"#utility.yul\":725:844   */\n      iszero\n      tag_398\n      jumpi\n        /* \"#utility.yul\":763:842   */\n      tag_399\n      tag_395\n      jump\t// in\n    tag_399:\n        /* \"#utility.yul\":725:844   */\n    tag_398:\n        /* \"#utility.yul\":883:884   */\n      0x00\n        /* \"#utility.yul\":908:961   */\n      tag_400\n        /* \"#utility.yul\":953:960   */\n      dup6\n        /* \"#utility.yul\":944:950   */\n      dup3\n        /* \"#utility.yul\":933:942   */\n      dup7\n        /* \"#utility.yul\":929:951   */\n      add\n        /* \"#utility.yul\":908:961   */\n      tag_384\n      jump\t// in\n    tag_400:\n        /* \"#utility.yul\":898:961   */\n      swap3\n      pop\n        /* \"#utility.yul\":854:971   */\n      pop\n        /* \"#utility.yul\":1010:1012   */\n      0x20\n        /* \"#utility.yul\":1036:1089   */\n      tag_401\n        /* \"#utility.yul\":1081:1088   */\n      dup6\n        /* \"#utility.yul\":1072:1078   */\n      dup3\n        /* \"#utility.yul\":1061:1070   */\n      dup7\n        /* \"#utility.yul\":1057:1079   */\n      add\n        /* \"#utility.yul\":1036:1089   */\n      tag_384\n      jump\t// in\n    tag_401:\n        /* \"#utility.yul\":1026:1089   */\n      swap2\n      pop\n        /* \"#utility.yul\":981:1099   */\n      pop\n        /* \"#utility.yul\":632:1106   */\n      swap3\n      pop\n      swap3\n      swap1\n      pop\n      jump\t// out\n        /* \"#utility.yul\":1112:1731   */\n    tag_79:\n        /* \"#utility.yul\":1189:1195   */\n      0x00\n        /* \"#utility.yul\":1197:1203   */\n      dup1\n        /* \"#utility.yul\":1205:1211   */\n      0x00\n        /* \"#utility.yul\":1254:1256   */\n      0x60\n        /* \"#utility.yul\":1242:1251   */\n      dup5\n        /* \"#utility.yul\":1233:1240   */\n      dup7\n        /* \"#utility.yul\":1229:1252   */\n      sub\n        /* \"#utility.yul\":1225:1257   */\n      slt\n        /* \"#utility.yul\":1222:1341   */\n      iszero\n      tag_403\n      jumpi\n        /* \"#utility.yul\":1260:1339   */\n      tag_404\n      tag_395\n      jump\t// in\n    tag_404:\n        /* \"#utility.yul\":1222:1341   */\n    tag_403:\n        /* \"#utility.yul\":1380:1381   */\n      0x00\n        /* \"#utility.yul\":1405:1458   */\n      tag_405\n        /* \"#utility.yul\":1450:1457   */\n      dup7\n        /* \"#utility.yul\":1441:1447   */\n      dup3\n        /* \"#utility.yul\":1430:1439   */\n      dup8\n        /* \"#utility.yul\":1426:1448   */\n      add\n        /* \"#utility.yul\":1405:1458   */\n      tag_384\n      jump\t// in\n    tag_405:\n        /* \"#utility.yul\":1395:1458   */\n      swap4\n      pop\n        /* \"#utility.yul\":1351:1468   */\n      pop\n        /* \"#utility.yul\":1507:1509   */\n      0x20\n        /* \"#utility.yul\":1533:1586   */\n      tag_406\n        /* \"#utility.yul\":1578:1585   */\n      dup7\n        /* \"#utility.yul\":1569:1575   */\n      dup3\n        /* \"#utility.yul\":1558:1567   */\n      dup8\n        /* \"#utility.yul\":1554:1576   */\n      add\n        /* \"#utility.yul\":1533:1586   */\n      tag_384\n      jump\t// in\n    tag_406:\n        /* \"#utility.yul\":1523:1586   */\n      swap3\n      pop\n        /* \"#utility.yul\":1478:1596   */\n      pop\n        /* \"#utility.yul\":1635:1637   */\n      0x40\n        /* \"#utility.yul\":1661:1714   */\n      tag_407\n        /* \"#utility.yul\":1706:1713   */\n      dup7\n        /* \"#utility.yul\":1697:1703   */\n      dup3\n        /* \"#utility.yul\":1686:1695   */\n      dup8\n        /* \"#utility.yul\":1682:1704   */\n      add\n        /* \"#utility.yul\":1661:1714   */\n      tag_388\n      jump\t// in\n    tag_407:\n        /* \"#utility.yul\":1651:1714   */\n      swap2\n      pop\n        /* \"#utility.yul\":1606:1724   */\n      pop\n        /* \"#utility.yul\":1112:1731   */\n      swap3\n      pop\n      swap3\n      pop\n      swap3\n      jump\t// out\n        /* \"#utility.yul\":1737:2211   */\n    tag_53:\n        /* \"#utility.yul\":1805:1811   */\n      0x00\n        /* \"#utility.yul\":1813:1819   */\n      dup1\n        /* \"#utility.yul\":1862:1864   */\n      0x40\n        /* \"#utility.yul\":1850:1859   */\n      dup4\n        /* \"#utility.yul\":1841:1848   */\n      dup6\n        /* \"#utility.yul\":1837:1860   */\n      sub\n        /* \"#utility.yul\":1833:1865   */\n      slt\n        /* \"#utility.yul\":1830:1949   */\n      iszero\n      tag_409\n      jumpi\n        /* \"#utility.yul\":1868:1947   */\n      tag_410\n      tag_395\n      jump\t// in\n    tag_410:\n        /* \"#utility.yul\":1830:1949   */\n    tag_409:\n        /* \"#utility.yul\":1988:1989   */\n      0x00\n        /* \"#utility.yul\":2013:2066   */\n      tag_411\n        /* \"#utility.yul\":2058:2065   */\n      dup6\n        /* \"#utility.yul\":2049:2055   */\n      dup3\n        /* \"#utility.yul\":2038:2047   */\n      dup7\n        /* \"#utility.yul\":2034:2056   */\n      add\n        /* \"#utility.yul\":2013:2066   */\n      tag_384\n      jump\t// in\n    tag_411:\n        /* \"#utility.yul\":2003:2066   */\n      swap3\n      pop\n        /* \"#utility.yul\":1959:2076   */\n      pop\n        /* \"#utility.yul\":2115:2117   */\n      0x20\n        /* \"#utility.yul\":2141:2194   */\n      tag_412\n        /* \"#utility.yul\":2186:2193   */\n      dup6\n        /* \"#utility.yul\":2177:2183   */\n      dup3\n        /* \"#utility.yul\":2166:2175   */\n      dup7\n        /* \"#utility.yul\":2162:2184   */\n      add\n        /* \"#utility.yul\":2141:2194   */\n      tag_388\n      jump\t// in\n    tag_412:\n        /* \"#utility.yul\":2131:2194   */\n      swap2\n      pop\n        /* \"#utility.yul\":2086:2204   */\n      pop\n        /* \"#utility.yul\":1737:2211   */\n      swap3\n      pop\n      swap3\n      swap1\n      pop\n      jump\t// out\n        /* \"#utility.yul\":2217:2546   */\n    tag_68:\n        /* \"#utility.yul\":2276:2282   */\n      0x00\n        /* \"#utility.yul\":2325:2327   */\n      0x20\n        /* \"#utility.yul\":2313:2322   */\n      dup3\n        /* \"#utility.yul\":2304:2311   */\n      dup5\n        /* \"#utility.yul\":2300:2323   */\n      sub\n        /* \"#utility.yul\":2296:2328   */\n      slt\n        /* \"#utility.yul\":2293:2412   */\n      iszero\n      tag_414\n      jumpi\n        /* \"#utility.yul\":2331:2410   */\n      tag_415\n      tag_395\n      jump\t// in\n    tag_415:\n        /* \"#utility.yul\":2293:2412   */\n    tag_414:\n        /* \"#utility.yul\":2451:2452   */\n      0x00\n        /* \"#utility.yul\":2476:2529   */\n      tag_416\n        /* \"#utility.yul\":2521:2528   */\n      dup5\n        /* \"#utility.yul\":2512:2518   */\n      dup3\n        /* \"#utility.yul\":2501:2510   */\n      dup6\n        /* \"#utility.yul\":2497:2519   */\n      add\n        /* \"#utility.yul\":2476:2529   */\n      tag_388\n      jump\t// in\n    tag_416:\n        /* \"#utility.yul\":2466:2529   */\n      swap2\n      pop\n        /* \"#utility.yul\":2422:2539   */\n      pop\n        /* \"#utility.yul\":2217:2546   */\n      swap3\n      swap2\n      pop\n      pop\n      jump\t// out\n        /* \"#utility.yul\":2552:2670   */\n    tag_417:\n        /* \"#utility.yul\":2639:2663   */\n      tag_419\n        /* \"#utility.yul\":2657:2662   */\n      dup2\n        /* \"#utility.yul\":2639:2663   */\n      tag_420\n      jump\t// in\n    tag_419:\n        /* \"#utility.yul\":2634:2637   */\n      dup3\n        /* \"#utility.yul\":2627:2664   */\n      mstore\n        /* \"#utility.yul\":2552:2670   */\n      pop\n      pop\n      jump\t// out\n        /* \"#utility.yul\":2676:2785   */\n    tag_421:\n        /* \"#utility.yul\":2757:2778   */\n      tag_423\n        /* \"#utility.yul\":2772:2777   */\n      dup2\n        /* \"#utility.yul\":2757:2778   */\n      tag_424\n      jump\t// in\n    tag_423:\n        /* \"#utility.yul\":2752:2755   */\n      dup3\n        /* \"#utility.yul\":2745:2779   */\n      mstore\n        /* \"#utility.yul\":2676:2785   */\n      pop\n      pop\n      jump\t// out\n        /* \"#utility.yul\":2791:3155   */\n    tag_425:\n        /* \"#utility.yul\":2879:2882   */\n      0x00\n        /* \"#utility.yul\":2907:2946   */\n      tag_427\n        /* \"#utility.yul\":2940:2945   */\n      dup3\n        /* \"#utility.yul\":2907:2946   */\n      tag_428\n      jump\t// in\n    tag_427:\n        /* \"#utility.yul\":2962:3033   */\n      tag_429\n        /* \"#utility.yul\":3026:3032   */\n      dup2\n        /* \"#utility.yul\":3021:3024   */\n      dup6\n        /* \"#utility.yul\":2962:3033   */\n      tag_430\n      jump\t// in\n    tag_429:\n        /* \"#utility.yul\":2955:3033   */\n      swap4\n      pop\n        /* \"#utility.yul\":3042:3094   */\n      tag_431\n        /* \"#utility.yul\":3087:3093   */\n      dup2\n        /* \"#utility.yul\":3082:3085   */\n      dup6\n        /* \"#utility.yul\":3075:3079   */\n      0x20\n        /* \"#utility.yul\":3068:3073   */\n      dup7\n        /* \"#utility.yul\":3064:3080   */\n      add\n        /* \"#utility.yul\":3042:3094   */\n      tag_432\n      jump\t// in\n    tag_431:\n        /* \"#utility.yul\":3119:3148   */\n      tag_433\n        /* \"#utility.yul\":3141:3147   */\n      dup2\n        /* \"#utility.yul\":3119:3148   */\n      tag_434\n      jump\t// in\n    tag_433:\n        /* \"#utility.yul\":3114:3117   */\n      dup5\n        /* \"#utility.yul\":3110:3149   */\n      add\n        /* \"#utility.yul\":3103:3149   */\n      swap2\n      pop\n        /* \"#utility.yul\":2883:3155   */\n      pop\n        /* \"#utility.yul\":2791:3155   */\n      swap3\n      swap2\n      pop\n      pop\n      jump\t// out\n        /* \"#utility.yul\":3161:3527   */\n    tag_435:\n        /* \"#utility.yul\":3303:3306   */\n      0x00\n        /* \"#utility.yul\":3324:3391   */\n      tag_437\n        /* \"#utility.yul\":3388:3390   */\n      0x2d\n        /* \"#utility.yul\":3383:3386   */\n      dup4\n        /* \"#utility.yul\":3324:3391   */\n      tag_430\n      jump\t// in\n    tag_437:\n        /* \"#utility.yul\":3317:3391   */\n      swap2\n      pop\n        /* \"#utility.yul\":3400:3493   */\n      tag_438\n        /* \"#utility.yul\":3489:3492   */\n      dup3\n        /* \"#utility.yul\":3400:3493   */\n      tag_439\n      jump\t// in\n    tag_438:\n        /* \"#utility.yul\":3518:3520   */\n      0x40\n        /* \"#utility.yul\":3513:3516   */\n      dup3\n        /* \"#utility.yul\":3509:3521   */\n      add\n        /* \"#utility.yul\":3502:3521   */\n      swap1\n      pop\n        /* \"#utility.yul\":3161:3527   */\n      swap2\n      swap1\n      pop\n      jump\t// out\n        /* \"#utility.yul\":3533:3899   */\n    tag_440:\n        /* \"#utility.yul\":3675:3678   */\n      0x00\n        /* \"#utility.yul\":3696:3763   */\n      tag_442\n        /* \"#utility.yul\":3760:3762   */\n      0x23\n        /* \"#utility.yul\":3755:3758   */\n      dup4\n        /* \"#utility.yul\":3696:3763   */\n      tag_430\n      jump\t// in\n    tag_442:\n        /* \"#utility.yul\":3689:3763   */\n      swap2\n      pop\n        /* \"#utility.yul\":3772:3865   */\n      tag_443\n        /* \"#utility.yul\":3861:3864   */\n      dup3\n        /* \"#utility.yul\":3772:3865   */\n      tag_444\n      jump\t// in\n    tag_443:\n        /* \"#utility.yul\":3890:3892   */\n      0x40\n        /* \"#utility.yul\":3885:3888   */\n      dup3\n        /* \"#utility.yul\":3881:3893   */\n      add\n        /* \"#utility.yul\":3874:3893   */\n      swap1\n      pop\n        /* \"#utility.yul\":3533:3899   */\n      swap2\n      swap1\n      pop\n      jump\t// out\n        /* \"#utility.yul\":3905:4271   */\n    tag_445:\n        /* \"#utility.yul\":4047:4050   */\n      0x00\n        /* \"#utility.yul\":4068:4135   */\n      tag_447\n        /* \"#utility.yul\":4132:4134   */\n      0x22\n        /* \"#utility.yul\":4127:4130   */\n      dup4\n        /* \"#utility.yul\":4068:4135   */\n      tag_430\n      jump\t// in\n    tag_447:\n        /* \"#utility.yul\":4061:4135   */\n      swap2\n      pop\n        /* \"#utility.yul\":4144:4237   */\n      tag_448\n        /* \"#utility.yul\":4233:4236   */\n      dup3\n        /* \"#utility.yul\":4144:4237   */\n      tag_449\n      jump\t// in\n    tag_448:\n        /* \"#utility.yul\":4262:4264   */\n      0x40\n        /* \"#utility.yul\":4257:4260   */\n      dup3\n        /* \"#utility.yul\":4253:4265   */\n      add\n        /* \"#utility.yul\":4246:4265   */\n      swap1\n      pop\n        /* \"#utility.yul\":3905:4271   */\n      swap2\n      swap1\n      pop\n      jump\t// out\n        /* \"#utility.yul\":4277:4643   */\n    tag_450:\n        /* \"#utility.yul\":4419:4422   */\n      0x00\n        /* \"#utility.yul\":4440:4507   */\n      tag_452\n        /* \"#utility.yul\":4504:4506   */\n      0x26\n        /* \"#utility.yul\":4499:4502   */\n      dup4\n        /* \"#utility.yul\":4440:4507   */\n      tag_430\n      jump\t// in\n    tag_452:\n        /* \"#utility.yul\":4433:4507   */\n      swap2\n      pop\n        /* \"#utility.yul\":4516:4609   */\n      tag_453\n        /* \"#utility.yul\":4605:4608   */\n      dup3\n        /* \"#utility.yul\":4516:4609   */\n      tag_454\n      jump\t// in\n    tag_453:\n        /* \"#utility.yul\":4634:4636   */\n      0x40\n        /* \"#utility.yul\":4629:4632   */\n      dup3\n        /* \"#utility.yul\":4625:4637   */\n      add\n        /* \"#utility.yul\":4618:4637   */\n      swap1\n      pop\n        /* \"#utility.yul\":4277:4643   */\n      swap2\n      swap1\n      pop\n      jump\t// out\n        /* \"#utility.yul\":4649:5015   */\n    tag_455:\n        /* \"#utility.yul\":4791:4794   */\n      0x00\n        /* \"#utility.yul\":4812:4879   */\n      tag_457\n        /* \"#utility.yul\":4876:4878   */\n      0x22\n        /* \"#utility.yul\":4871:4874   */\n      dup4\n        /* \"#utility.yul\":4812:4879   */\n      tag_430\n      jump\t// in\n    tag_457:\n        /* \"#utility.yul\":4805:4879   */\n      swap2\n      pop\n        /* \"#utility.yul\":4888:4981   */\n      tag_458\n        /* \"#utility.yul\":4977:4980   */\n      dup3\n        /* \"#utility.yul\":4888:4981   */\n      tag_459\n      jump\t// in\n    tag_458:\n        /* \"#utility.yul\":5006:5008   */\n      0x40\n        /* \"#utility.yul\":5001:5004   */\n      dup3\n        /* \"#utility.yul\":4997:5009   */\n      add\n        /* \"#utility.yul\":4990:5009   */\n      swap1\n      pop\n        /* \"#utility.yul\":4649:5015   */\n      swap2\n      swap1\n      pop\n      jump\t// out\n        /* \"#utility.yul\":5021:5387   */\n    tag_460:\n        /* \"#utility.yul\":5163:5166   */\n      0x00\n        /* \"#utility.yul\":5184:5251   */\n      tag_462\n        /* \"#utility.yul\":5248:5250   */\n      0x1d\n        /* \"#utility.yul\":5243:5246   */\n      dup4\n        /* \"#utility.yul\":5184:5251   */\n      tag_430\n      jump\t// in\n    tag_462:\n        /* \"#utility.yul\":5177:5251   */\n      swap2\n      pop\n        /* \"#utility.yul\":5260:5353   */\n      tag_463\n        /* \"#utility.yul\":5349:5352   */\n      dup3\n        /* \"#utility.yul\":5260:5353   */\n      tag_464\n      jump\t// in\n    tag_463:\n        /* \"#utility.yul\":5378:5380   */\n      0x20\n        /* \"#utility.yul\":5373:5376   */\n      dup3\n        /* \"#utility.yul\":5369:5381   */\n      add\n        /* \"#utility.yul\":5362:5381   */\n      swap1\n      pop\n        /* \"#utility.yul\":5021:5387   */\n      swap2\n      swap1\n      pop\n      jump\t// out\n        /* \"#utility.yul\":5393:5759   */\n    tag_465:\n        /* \"#utility.yul\":5535:5538   */\n      0x00\n        /* \"#utility.yul\":5556:5623   */\n      tag_467\n        /* \"#utility.yul\":5620:5622   */\n      0x26\n        /* \"#utility.yul\":5615:5618   */\n      dup4\n        /* \"#utility.yul\":5556:5623   */\n      tag_430\n      jump\t// in\n    tag_467:\n        /* \"#utility.yul\":5549:5623   */\n      swap2\n      pop\n        /* \"#utility.yul\":5632:5725   */\n      tag_468\n        /* \"#utility.yul\":5721:5724   */\n      dup3\n        /* \"#utility.yul\":5632:5725   */\n      tag_469\n      jump\t// in\n    tag_468:\n        /* \"#utility.yul\":5750:5752   */\n      0x40\n        /* \"#utility.yul\":5745:5748   */\n      dup3\n        /* \"#utility.yul\":5741:5753   */\n      add\n        /* \"#utility.yul\":5734:5753   */\n      swap1\n      pop\n        /* \"#utility.yul\":5393:5759   */\n      swap2\n      swap1\n      pop\n      jump\t// out\n        /* \"#utility.yul\":5765:6131   */\n    tag_470:\n        /* \"#utility.yul\":5907:5910   */\n      0x00\n        /* \"#utility.yul\":5928:5995   */\n      tag_472\n        /* \"#utility.yul\":5992:5994   */\n      0x20\n        /* \"#utility.yul\":5987:5990   */\n      dup4\n        /* \"#utility.yul\":5928:5995   */\n      tag_430\n      jump\t// in\n    tag_472:\n        /* \"#utility.yul\":5921:5995   */\n      swap2\n      pop\n        /* \"#utility.yul\":6004:6097   */\n      tag_473\n        /* \"#utility.yul\":6093:6096   */\n      dup3\n        /* \"#utility.yul\":6004:6097   */\n      tag_474\n      jump\t// in\n    tag_473:\n        /* \"#utility.yul\":6122:6124   */\n      0x20\n        /* \"#utility.yul\":6117:6120   */\n      dup3\n        /* \"#utility.yul\":6113:6125   */\n      add\n        /* \"#utility.yul\":6106:6125   */\n      swap1\n      pop\n        /* \"#utility.yul\":5765:6131   */\n      swap2\n      swap1\n      pop\n      jump\t// out\n        /* \"#utility.yul\":6137:6503   */\n    tag_475:\n        /* \"#utility.yul\":6279:6282   */\n      0x00\n        /* \"#utility.yul\":6300:6367   */\n      tag_477\n        /* \"#utility.yul\":6364:6366   */\n      0x21\n        /* \"#utility.yul\":6359:6362   */\n      dup4\n        /* \"#utility.yul\":6300:6367   */\n      tag_430\n      jump\t// in\n    tag_477:\n        /* \"#utility.yul\":6293:6367   */\n      swap2\n      pop\n        /* \"#utility.yul\":6376:6469   */\n      tag_478\n        /* \"#utility.yul\":6465:6468   */\n      dup3\n        /* \"#utility.yul\":6376:6469   */\n      tag_479\n      jump\t// in\n    tag_478:\n        /* \"#utility.yul\":6494:6496   */\n      0x40\n        /* \"#utility.yul\":6489:6492   */\n      dup3\n        /* \"#utility.yul\":6485:6497   */\n      add\n        /* \"#utility.yul\":6478:6497   */\n      swap1\n      pop\n        /* \"#utility.yul\":6137:6503   */\n      swap2\n      swap1\n      pop\n      jump\t// out\n        /* \"#utility.yul\":6509:6875   */\n    tag_480:\n        /* \"#utility.yul\":6651:6654   */\n      0x00\n        /* \"#utility.yul\":6672:6739   */\n      tag_482\n        /* \"#utility.yul\":6736:6738   */\n      0x25\n        /* \"#utility.yul\":6731:6734   */\n      dup4\n        /* \"#utility.yul\":6672:6739   */\n      tag_430\n      jump\t// in\n    tag_482:\n        /* \"#utility.yul\":6665:6739   */\n      swap2\n      pop\n        /* \"#utility.yul\":6748:6841   */\n      tag_483\n        /* \"#utility.yul\":6837:6840   */\n      dup3\n        /* \"#utility.yul\":6748:6841   */\n      tag_484\n      jump\t// in\n    tag_483:\n        /* \"#utility.yul\":6866:6868   */\n      0x40\n        /* \"#utility.yul\":6861:6864   */\n      dup3\n        /* \"#utility.yul\":6857:6869   */\n      add\n        /* \"#utility.yul\":6850:6869   */\n      swap1\n      pop\n        /* \"#utility.yul\":6509:6875   */\n      swap2\n      swap1\n      pop\n      jump\t// out\n        /* \"#utility.yul\":6881:7247   */\n    tag_485:\n        /* \"#utility.yul\":7023:7026   */\n      0x00\n        /* \"#utility.yul\":7044:7111   */\n      tag_487\n        /* \"#utility.yul\":7108:7110   */\n      0x24\n        /* \"#utility.yul\":7103:7106   */\n      dup4\n        /* \"#utility.yul\":7044:7111   */\n      tag_430\n      jump\t// in\n    tag_487:\n        /* \"#utility.yul\":7037:7111   */\n      swap2\n      pop\n        /* \"#utility.yul\":7120:7213   */\n      tag_488\n        /* \"#utility.yul\":7209:7212   */\n      dup3\n        /* \"#utility.yul\":7120:7213   */\n      tag_489\n      jump\t// in\n    tag_488:\n        /* \"#utility.yul\":7238:7240   */\n      0x40\n        /* \"#utility.yul\":7233:7236   */\n      dup3\n        /* \"#utility.yul\":7229:7241   */\n      add\n        /* \"#utility.yul\":7222:7241   */\n      swap1\n      pop\n        /* \"#utility.yul\":6881:7247   */\n      swap2\n      swap1\n      pop\n      jump\t// out\n        /* \"#utility.yul\":7253:7619   */\n    tag_490:\n        /* \"#utility.yul\":7395:7398   */\n      0x00\n        /* \"#utility.yul\":7416:7483   */\n      tag_492\n        /* \"#utility.yul\":7480:7482   */\n      0x25\n        /* \"#utility.yul\":7475:7478   */\n      dup4\n        /* \"#utility.yul\":7416:7483   */\n      tag_430\n      jump\t// in\n    tag_492:\n        /* \"#utility.yul\":7409:7483   */\n      swap2\n      pop\n        /* \"#utility.yul\":7492:7585   */\n      tag_493\n        /* \"#utility.yul\":7581:7584   */\n      dup3\n        /* \"#utility.yul\":7492:7585   */\n      tag_494\n      jump\t// in\n    tag_493:\n        /* \"#utility.yul\":7610:7612   */\n      0x40\n        /* \"#utility.yul\":7605:7608   */\n      dup3\n        /* \"#utility.yul\":7601:7613   */\n      add\n        /* \"#utility.yul\":7594:7613   */\n      swap1\n      pop\n        /* \"#utility.yul\":7253:7619   */\n      swap2\n      swap1\n      pop\n      jump\t// out\n        /* \"#utility.yul\":7625:7991   */\n    tag_495:\n        /* \"#utility.yul\":7767:7770   */\n      0x00\n        /* \"#utility.yul\":7788:7855   */\n      tag_497\n        /* \"#utility.yul\":7852:7854   */\n      0x1f\n        /* \"#utility.yul\":7847:7850   */\n      dup4\n        /* \"#utility.yul\":7788:7855   */\n      tag_430\n      jump\t// in\n    tag_497:\n        /* \"#utility.yul\":7781:7855   */\n      swap2\n      pop\n        /* \"#utility.yul\":7864:7957   */\n      tag_498\n        /* \"#utility.yul\":7953:7956   */\n      dup3\n        /* \"#utility.yul\":7864:7957   */\n      tag_499\n      jump\t// in\n    tag_498:\n        /* \"#utility.yul\":7982:7984   */\n      0x20\n        /* \"#utility.yul\":7977:7980   */\n      dup3\n        /* \"#utility.yul\":7973:7985   */\n      add\n        /* \"#utility.yul\":7966:7985   */\n      swap1\n      pop\n        /* \"#utility.yul\":7625:7991   */\n      swap2\n      swap1\n      pop\n      jump\t// out\n        /* \"#utility.yul\":7997:8115   */\n    tag_500:\n        /* \"#utility.yul\":8084:8108   */\n      tag_502\n        /* \"#utility.yul\":8102:8107   */\n      dup2\n        /* \"#utility.yul\":8084:8108   */\n      tag_503\n      jump\t// in\n    tag_502:\n        /* \"#utility.yul\":8079:8082   */\n      dup3\n        /* \"#utility.yul\":8072:8109   */\n      mstore\n        /* \"#utility.yul\":7997:8115   */\n      pop\n      pop\n      jump\t// out\n        /* \"#utility.yul\":8121:8233   */\n    tag_504:\n        /* \"#utility.yul\":8204:8226   */\n      tag_506\n        /* \"#utility.yul\":8220:8225   */\n      dup2\n        /* \"#utility.yul\":8204:8226   */\n      tag_507\n      jump\t// in\n    tag_506:\n        /* \"#utility.yul\":8199:8202   */\n      dup3\n        /* \"#utility.yul\":8192:8227   */\n      mstore\n        /* \"#utility.yul\":8121:8233   */\n      pop\n      pop\n      jump\t// out\n        /* \"#utility.yul\":8239:8461   */\n    tag_123:\n        /* \"#utility.yul\":8332:8336   */\n      0x00\n        /* \"#utility.yul\":8370:8372   */\n      0x20\n        /* \"#utility.yul\":8359:8368   */\n      dup3\n        /* \"#utility.yul\":8355:8373   */\n      add\n        /* \"#utility.yul\":8347:8373   */\n      swap1\n      pop\n        /* \"#utility.yul\":8383:8454   */\n      tag_509\n        /* \"#utility.yul\":8451:8452   */\n      0x00\n        /* \"#utility.yul\":8440:8449   */\n      dup4\n        /* \"#utility.yul\":8436:8453   */\n      add\n        /* \"#utility.yul\":8427:8433   */\n      dup5\n        /* \"#utility.yul\":8383:8454   */\n      tag_417\n      jump\t// in\n    tag_509:\n        /* \"#utility.yul\":8239:8461   */\n      swap3\n      swap2\n      pop\n      pop\n      jump\t// out\n        /* \"#utility.yul\":8467:8677   */\n    tag_56:\n        /* \"#utility.yul\":8554:8558   */\n      0x00\n        /* \"#utility.yul\":8592:8594   */\n      0x20\n        /* \"#utility.yul\":8581:8590   */\n      dup3\n        /* \"#utility.yul\":8577:8595   */\n      add\n        /* \"#utility.yul\":8569:8595   */\n      swap1\n      pop\n        /* \"#utility.yul\":8605:8670   */\n      tag_511\n        /* \"#utility.yul\":8667:8668   */\n      0x00\n        /* \"#utility.yul\":8656:8665   */\n      dup4\n        /* \"#utility.yul\":8652:8669   */\n      add\n        /* \"#utility.yul\":8643:8649   */\n      dup5\n        /* \"#utility.yul\":8605:8670   */\n      tag_421\n      jump\t// in\n    tag_511:\n        /* \"#utility.yul\":8467:8677   */\n      swap3\n      swap2\n      pop\n      pop\n      jump\t// out\n        /* \"#utility.yul\":8683:9003   */\n    tag_177:\n        /* \"#utility.yul\":8798:8802   */\n      0x00\n        /* \"#utility.yul\":8836:8838   */\n      0x40\n        /* \"#utility.yul\":8825:8834   */\n      dup3\n        /* \"#utility.yul\":8821:8839   */\n      add\n        /* \"#utility.yul\":8813:8839   */\n      swap1\n      pop\n        /* \"#utility.yul\":8849:8914   */\n      tag_513\n        /* \"#utility.yul\":8911:8912   */\n      0x00\n        /* \"#utility.yul\":8900:8909   */\n      dup4\n        /* \"#utility.yul\":8896:8913   */\n      add\n        /* \"#utility.yul\":8887:8893   */\n      dup6\n        /* \"#utility.yul\":8849:8914   */\n      tag_421\n      jump\t// in\n    tag_513:\n        /* \"#utility.yul\":8924:8996   */\n      tag_514\n        /* \"#utility.yul\":8992:8994   */\n      0x20\n        /* \"#utility.yul\":8981:8990   */\n      dup4\n        /* \"#utility.yul\":8977:8995   */\n      add\n        /* \"#utility.yul\":8968:8974   */\n      dup5\n        /* \"#utility.yul\":8924:8996   */\n      tag_500\n      jump\t// in\n    tag_514:\n        /* \"#utility.yul\":8683:9003   */\n      swap4\n      swap3\n      pop\n      pop\n      pop\n      jump\t// out\n        /* \"#utility.yul\":9009:9322   */\n    tag_49:\n        /* \"#utility.yul\":9122:9126   */\n      0x00\n        /* \"#utility.yul\":9160:9162   */\n      0x20\n        /* \"#utility.yul\":9149:9158   */\n      dup3\n        /* \"#utility.yul\":9145:9163   */\n      add\n        /* \"#utility.yul\":9137:9163   */\n      swap1\n      pop\n        /* \"#utility.yul\":9209:9218   */\n      dup2\n        /* \"#utility.yul\":9203:9207   */\n      dup2\n        /* \"#utility.yul\":9199:9219   */\n      sub\n        /* \"#utility.yul\":9195:9196   */\n      0x00\n        /* \"#utility.yul\":9184:9193   */\n      dup4\n        /* \"#utility.yul\":9180:9197   */\n      add\n        /* \"#utility.yul\":9173:9220   */\n      mstore\n        /* \"#utility.yul\":9237:9315   */\n      tag_516\n        /* \"#utility.yul\":9310:9314   */\n      dup2\n        /* \"#utility.yul\":9301:9307   */\n      dup5\n        /* \"#utility.yul\":9237:9315   */\n      tag_425\n      jump\t// in\n    tag_516:\n        /* \"#utility.yul\":9229:9315   */\n      swap1\n      pop\n        /* \"#utility.yul\":9009:9322   */\n      swap3\n      swap2\n      pop\n      pop\n      jump\t// out\n        /* \"#utility.yul\":9328:9747   */\n    tag_228:\n        /* \"#utility.yul\":9494:9498   */\n      0x00\n        /* \"#utility.yul\":9532:9534   */\n      0x20\n        /* \"#utility.yul\":9521:9530   */\n      dup3\n        /* \"#utility.yul\":9517:9535   */\n      add\n        /* \"#utility.yul\":9509:9535   */\n      swap1\n      pop\n        /* \"#utility.yul\":9581:9590   */\n      dup2\n        /* \"#utility.yul\":9575:9579   */\n      dup2\n        /* \"#utility.yul\":9571:9591   */\n      sub\n        /* \"#utility.yul\":9567:9568   */\n      0x00\n        /* \"#utility.yul\":9556:9565   */\n      dup4\n        /* \"#utility.yul\":9552:9569   */\n      add\n        /* \"#utility.yul\":9545:9592   */\n      mstore\n        /* \"#utility.yul\":9609:9740   */\n      tag_518\n        /* \"#utility.yul\":9735:9739   */\n      dup2\n        /* \"#utility.yul\":9609:9740   */\n      tag_435\n      jump\t// in\n    tag_518:\n        /* \"#utility.yul\":9601:9740   */\n      swap1\n      pop\n        /* \"#utility.yul\":9328:9747   */\n      swap2\n      swap1\n      pop\n      jump\t// out\n        /* \"#utility.yul\":9753:10172   */\n    tag_363:\n        /* \"#utility.yul\":9919:9923   */\n      0x00\n        /* \"#utility.yul\":9957:9959   */\n      0x20\n        /* \"#utility.yul\":9946:9955   */\n      dup3\n        /* \"#utility.yul\":9942:9960   */\n      add\n        /* \"#utility.yul\":9934:9960   */\n      swap1\n      pop\n        /* \"#utility.yul\":10006:10015   */\n      dup2\n        /* \"#utility.yul\":10000:10004   */\n      dup2\n        /* \"#utility.yul\":9996:10016   */\n      sub\n        /* \"#utility.yul\":9992:9993   */\n      0x00\n        /* \"#utility.yul\":9981:9990   */\n      dup4\n        /* \"#utility.yul\":9977:9994   */\n      add\n        /* \"#utility.yul\":9970:10017   */\n      mstore\n        /* \"#utility.yul\":10034:10165   */\n      tag_520\n        /* \"#utility.yul\":10160:10164   */\n      dup2\n        /* \"#utility.yul\":10034:10165   */\n      tag_440\n      jump\t// in\n    tag_520:\n        /* \"#utility.yul\":10026:10165   */\n      swap1\n      pop\n        /* \"#utility.yul\":9753:10172   */\n      swap2\n      swap1\n      pop\n      jump\t// out\n        /* \"#utility.yul\":10178:10597   */\n    tag_345:\n        /* \"#utility.yul\":10344:10348   */\n      0x00\n        /* \"#utility.yul\":10382:10384   */\n      0x20\n        /* \"#utility.yul\":10371:10380   */\n      dup3\n        /* \"#utility.yul\":10367:10385   */\n      add\n        /* \"#utility.yul\":10359:10385   */\n      swap1\n      pop\n        /* \"#utility.yul\":10431:10440   */\n      dup2\n        /* \"#utility.yul\":10425:10429   */\n      dup2\n        /* \"#utility.yul\":10421:10441   */\n      sub\n        /* \"#utility.yul\":10417:10418   */\n      0x00\n        /* \"#utility.yul\":10406:10415   */\n      dup4\n        /* \"#utility.yul\":10402:10419   */\n      add\n        /* \"#utility.yul\":10395:10442   */\n      mstore\n        /* \"#utility.yul\":10459:10590   */\n      tag_522\n        /* \"#utility.yul\":10585:10589   */\n      dup2\n        /* \"#utility.yul\":10459:10590   */\n      tag_445\n      jump\t// in\n    tag_522:\n        /* \"#utility.yul\":10451:10590   */\n      swap1\n      pop\n        /* \"#utility.yul\":10178:10597   */\n      swap2\n      swap1\n      pop\n      jump\t// out\n        /* \"#utility.yul\":10603:11022   */\n    tag_326:\n        /* \"#utility.yul\":10769:10773   */\n      0x00\n        /* \"#utility.yul\":10807:10809   */\n      0x20\n        /* \"#utility.yul\":10796:10805   */\n      dup3\n        /* \"#utility.yul\":10792:10810   */\n      add\n        /* \"#utility.yul\":10784:10810   */\n      swap1\n      pop\n        /* \"#utility.yul\":10856:10865   */\n      dup2\n        /* \"#utility.yul\":10850:10854   */\n      dup2\n        /* \"#utility.yul\":10846:10866   */\n      sub\n        /* \"#utility.yul\":10842:10843   */\n      0x00\n        /* \"#utility.yul\":10831:10840   */\n      dup4\n        /* \"#utility.yul\":10827:10844   */\n      add\n        /* \"#utility.yul\":10820:10867   */\n      mstore\n        /* \"#utility.yul\":10884:11015   */\n      tag_524\n        /* \"#utility.yul\":11010:11014   */\n      dup2\n        /* \"#utility.yul\":10884:11015   */\n      tag_450\n      jump\t// in\n    tag_524:\n        /* \"#utility.yul\":10876:11015   */\n      swap1\n      pop\n        /* \"#utility.yul\":10603:11022   */\n      swap2\n      swap1\n      pop\n      jump\t// out\n        /* \"#utility.yul\":11028:11447   */\n    tag_335:\n        /* \"#utility.yul\":11194:11198   */\n      0x00\n        /* \"#utility.yul\":11232:11234   */\n      0x20\n        /* \"#utility.yul\":11221:11230   */\n      dup3\n        /* \"#utility.yul\":11217:11235   */\n      add\n        /* \"#utility.yul\":11209:11235   */\n      swap1\n      pop\n        /* \"#utility.yul\":11281:11290   */\n      dup2\n        /* \"#utility.yul\":11275:11279   */\n      dup2\n        /* \"#utility.yul\":11271:11291   */\n      sub\n        /* \"#utility.yul\":11267:11268   */\n      0x00\n        /* \"#utility.yul\":11256:11265   */\n      dup4\n        /* \"#utility.yul\":11252:11269   */\n      add\n        /* \"#utility.yul\":11245:11292   */\n      mstore\n        /* \"#utility.yul\":11309:11440   */\n      tag_526\n        /* \"#utility.yul\":11435:11439   */\n      dup2\n        /* \"#utility.yul\":11309:11440   */\n      tag_455\n      jump\t// in\n    tag_526:\n        /* \"#utility.yul\":11301:11440   */\n      swap1\n      pop\n        /* \"#utility.yul\":11028:11447   */\n      swap2\n      swap1\n      pop\n      jump\t// out\n        /* \"#utility.yul\":11453:11872   */\n    tag_355:\n        /* \"#utility.yul\":11619:11623   */\n      0x00\n        /* \"#utility.yul\":11657:11659   */\n      0x20\n        /* \"#utility.yul\":11646:11655   */\n      dup3\n        /* \"#utility.yul\":11642:11660   */\n      add\n        /* \"#utility.yul\":11634:11660   */\n      swap1\n      pop\n        /* \"#utility.yul\":11706:11715   */\n      dup2\n        /* \"#utility.yul\":11700:11704   */\n      dup2\n        /* \"#utility.yul\":11696:11716   */\n      sub\n        /* \"#utility.yul\":11692:11693   */\n      0x00\n        /* \"#utility.yul\":11681:11690   */\n      dup4\n        /* \"#utility.yul\":11677:11694   */\n      add\n        /* \"#utility.yul\":11670:11717   */\n      mstore\n        /* \"#utility.yul\":11734:11865   */\n      tag_528\n        /* \"#utility.yul\":11860:11864   */\n      dup2\n        /* \"#utility.yul\":11734:11865   */\n      tag_460\n      jump\t// in\n    tag_528:\n        /* \"#utility.yul\":11726:11865   */\n      swap1\n      pop\n        /* \"#utility.yul\":11453:11872   */\n      swap2\n      swap1\n      pop\n      jump\t// out\n        /* \"#utility.yul\":11878:12297   */\n    tag_367:\n        /* \"#utility.yul\":12044:12048   */\n      0x00\n        /* \"#utility.yul\":12082:12084   */\n      0x20\n        /* \"#utility.yul\":12071:12080   */\n      dup3\n        /* \"#utility.yul\":12067:12085   */\n      add\n        /* \"#utility.yul\":12059:12085   */\n      swap1\n      pop\n        /* \"#utility.yul\":12131:12140   */\n      dup2\n        /* \"#utility.yul\":12125:12129   */\n      dup2\n        /* \"#utility.yul\":12121:12141   */\n      sub\n        /* \"#utility.yul\":12117:12118   */\n      0x00\n        /* \"#utility.yul\":12106:12115   */\n      dup4\n        /* \"#utility.yul\":12102:12119   */\n      add\n        /* \"#utility.yul\":12095:12142   */\n      mstore\n        /* \"#utility.yul\":12159:12290   */\n      tag_530\n        /* \"#utility.yul\":12285:12289   */\n      dup2\n        /* \"#utility.yul\":12159:12290   */\n      tag_465\n      jump\t// in\n    tag_530:\n        /* \"#utility.yul\":12151:12290   */\n      swap1\n      pop\n        /* \"#utility.yul\":11878:12297   */\n      swap2\n      swap1\n      pop\n      jump\t// out\n        /* \"#utility.yul\":12303:12722   */\n    tag_245:\n        /* \"#utility.yul\":12469:12473   */\n      0x00\n        /* \"#utility.yul\":12507:12509   */\n      0x20\n        /* \"#utility.yul\":12496:12505   */\n      dup3\n        /* \"#utility.yul\":12492:12510   */\n      add\n        /* \"#utility.yul\":12484:12510   */\n      swap1\n      pop\n        /* \"#utility.yul\":12556:12565   */\n      dup2\n        /* \"#utility.yul\":12550:12554   */\n      dup2\n        /* \"#utility.yul\":12546:12566   */\n      sub\n        /* \"#utility.yul\":12542:12543   */\n      0x00\n        /* \"#utility.yul\":12531:12540   */\n      dup4\n        /* \"#utility.yul\":12527:12544   */\n      add\n        /* \"#utility.yul\":12520:12567   */\n      mstore\n        /* \"#utility.yul\":12584:12715   */\n      tag_532\n        /* \"#utility.yul\":12710:12714   */\n      dup2\n        /* \"#utility.yul\":12584:12715   */\n      tag_470\n      jump\t// in\n    tag_532:\n        /* \"#utility.yul\":12576:12715   */\n      swap1\n      pop\n        /* \"#utility.yul\":12303:12722   */\n      swap2\n      swap1\n      pop\n      jump\t// out\n        /* \"#utility.yul\":12728:13147   */\n    tag_340:\n        /* \"#utility.yul\":12894:12898   */\n      0x00\n        /* \"#utility.yul\":12932:12934   */\n      0x20\n        /* \"#utility.yul\":12921:12930   */\n      dup3\n        /* \"#utility.yul\":12917:12935   */\n      add\n        /* \"#utility.yul\":12909:12935   */\n      swap1\n      pop\n        /* \"#utility.yul\":12981:12990   */\n      dup2\n        /* \"#utility.yul\":12975:12979   */\n      dup2\n        /* \"#utility.yul\":12971:12991   */\n      sub\n        /* \"#utility.yul\":12967:12968   */\n      0x00\n        /* \"#utility.yul\":12956:12965   */\n      dup4\n        /* \"#utility.yul\":12952:12969   */\n      add\n        /* \"#utility.yul\":12945:12992   */\n      mstore\n        /* \"#utility.yul\":13009:13140   */\n      tag_534\n        /* \"#utility.yul\":13135:13139   */\n      dup2\n        /* \"#utility.yul\":13009:13140   */\n      tag_475\n      jump\t// in\n    tag_534:\n        /* \"#utility.yul\":13001:13140   */\n      swap1\n      pop\n        /* \"#utility.yul\":12728:13147   */\n      swap2\n      swap1\n      pop\n      jump\t// out\n        /* \"#utility.yul\":13153:13572   */\n    tag_360:\n        /* \"#utility.yul\":13319:13323   */\n      0x00\n        /* \"#utility.yul\":13357:13359   */\n      0x20\n        /* \"#utility.yul\":13346:13355   */\n      dup3\n        /* \"#utility.yul\":13342:13360   */\n      add\n        /* \"#utility.yul\":13334:13360   */\n      swap1\n      pop\n        /* \"#utility.yul\":13406:13415   */\n      dup2\n        /* \"#utility.yul\":13400:13404   */\n      dup2\n        /* \"#utility.yul\":13396:13416   */\n      sub\n        /* \"#utility.yul\":13392:13393   */\n      0x00\n        /* \"#utility.yul\":13381:13390   */\n      dup4\n        /* \"#utility.yul\":13377:13394   */\n      add\n        /* \"#utility.yul\":13370:13417   */\n      mstore\n        /* \"#utility.yul\":13434:13565   */\n      tag_536\n        /* \"#utility.yul\":13560:13564   */\n      dup2\n        /* \"#utility.yul\":13434:13565   */\n      tag_480\n      jump\t// in\n    tag_536:\n        /* \"#utility.yul\":13426:13565   */\n      swap1\n      pop\n        /* \"#utility.yul\":13153:13572   */\n      swap2\n      swap1\n      pop\n      jump\t// out\n        /* \"#utility.yul\":13578:13997   */\n    tag_332:\n        /* \"#utility.yul\":13744:13748   */\n      0x00\n        /* \"#utility.yul\":13782:13784   */\n      0x20\n        /* \"#utility.yul\":13771:13780   */\n      dup3\n        /* \"#utility.yul\":13767:13785   */\n      add\n        /* \"#utility.yul\":13759:13785   */\n      swap1\n      pop\n        /* \"#utility.yul\":13831:13840   */\n      dup2\n        /* \"#utility.yul\":13825:13829   */\n      dup2\n        /* \"#utility.yul\":13821:13841   */\n      sub\n        /* \"#utility.yul\":13817:13818   */\n      0x00\n        /* \"#utility.yul\":13806:13815   */\n      dup4\n        /* \"#utility.yul\":13802:13819   */\n      add\n        /* \"#utility.yul\":13795:13842   */\n      mstore\n        /* \"#utility.yul\":13859:13990   */\n      tag_538\n        /* \"#utility.yul\":13985:13989   */\n      dup2\n        /* \"#utility.yul\":13859:13990   */\n      tag_485\n      jump\t// in\n    tag_538:\n        /* \"#utility.yul\":13851:13990   */\n      swap1\n      pop\n        /* \"#utility.yul\":13578:13997   */\n      swap2\n      swap1\n      pop\n      jump\t// out\n        /* \"#utility.yul\":14003:14422   */\n    tag_279:\n        /* \"#utility.yul\":14169:14173   */\n      0x00\n        /* \"#utility.yul\":14207:14209   */\n      0x20\n        /* \"#utility.yul\":14196:14205   */\n      dup3\n        /* \"#utility.yul\":14192:14210   */\n      add\n        /* \"#utility.yul\":14184:14210   */\n      swap1\n      pop\n        /* \"#utility.yul\":14256:14265   */\n      dup2\n        /* \"#utility.yul\":14250:14254   */\n      dup2\n        /* \"#utility.yul\":14246:14266   */\n      sub\n        /* \"#utility.yul\":14242:14243   */\n      0x00\n        /* \"#utility.yul\":14231:14240   */\n      dup4\n        /* \"#utility.yul\":14227:14244   */\n      add\n        /* \"#utility.yul\":14220:14267   */\n      mstore\n        /* \"#utility.yul\":14284:14415   */\n      tag_540\n        /* \"#utility.yul\":14410:14414   */\n      dup2\n        /* \"#utility.yul\":14284:14415   */\n      tag_490\n      jump\t// in\n    tag_540:\n        /* \"#utility.yul\":14276:14415   */\n      swap1\n      pop\n        /* \"#utility.yul\":14003:14422   */\n      swap2\n      swap1\n      pop\n      jump\t// out\n        /* \"#utility.yul\":14428:14847   */\n    tag_375:\n        /* \"#utility.yul\":14594:14598   */\n      0x00\n        /* \"#utility.yul\":14632:14634   */\n      0x20\n        /* \"#utility.yul\":14621:14630   */\n      dup3\n        /* \"#utility.yul\":14617:14635   */\n      add\n        /* \"#utility.yul\":14609:14635   */\n      swap1\n      pop\n        /* \"#utility.yul\":14681:14690   */\n      dup2\n        /* \"#utility.yul\":14675:14679   */\n      dup2\n        /* \"#utility.yul\":14671:14691   */\n      sub\n        /* \"#utility.yul\":14667:14668   */\n      0x00\n        /* \"#utility.yul\":14656:14665   */\n      dup4\n        /* \"#utility.yul\":14652:14669   */\n      add\n        /* \"#utility.yul\":14645:14692   */\n      mstore\n        /* \"#utility.yul\":14709:14840   */\n      tag_542\n        /* \"#utility.yul\":14835:14839   */\n      dup2\n        /* \"#utility.yul\":14709:14840   */\n      tag_495\n      jump\t// in\n    tag_542:\n        /* \"#utility.yul\":14701:14840   */\n      swap1\n      pop\n        /* \"#utility.yul\":14428:14847   */\n      swap2\n      swap1\n      pop\n      jump\t// out\n        /* \"#utility.yul\":14853:15075   */\n    tag_44:\n        /* \"#utility.yul\":14946:14950   */\n      0x00\n        /* \"#utility.yul\":14984:14986   */\n      0x20\n        /* \"#utility.yul\":14973:14982   */\n      dup3\n        /* \"#utility.yul\":14969:14987   */\n      add\n        /* \"#utility.yul\":14961:14987   */\n      swap1\n      pop\n        /* \"#utility.yul\":14997:15068   */\n      tag_544\n        /* \"#utility.yul\":15065:15066   */\n      0x00\n        /* \"#utility.yul\":15054:15063   */\n      dup4\n        /* \"#utility.yul\":15050:15067   */\n      add\n        /* \"#utility.yul\":15041:15047   */\n      dup5\n        /* \"#utility.yul\":14997:15068   */\n      tag_500\n      jump\t// in\n    tag_544:\n        /* \"#utility.yul\":14853:15075   */\n      swap3\n      swap2\n      pop\n      pop\n      jump\t// out\n        /* \"#utility.yul\":15081:15295   */\n    tag_86:\n        /* \"#utility.yul\":15170:15174   */\n      0x00\n        /* \"#utility.yul\":15208:15210   */\n      0x20\n        /* \"#utility.yul\":15197:15206   */\n      dup3\n        /* \"#utility.yul\":15193:15211   */\n      add\n        /* \"#utility.yul\":15185:15211   */\n      swap1\n      pop\n        /* \"#utility.yul\":15221:15288   */\n      tag_546\n        /* \"#utility.yul\":15285:15286   */\n      0x00\n        /* \"#utility.yul\":15274:15283   */\n      dup4\n        /* \"#utility.yul\":15270:15287   */\n      add\n        /* \"#utility.yul\":15261:15267   */\n      dup5\n        /* \"#utility.yul\":15221:15288   */\n      tag_504\n      jump\t// in\n    tag_546:\n        /* \"#utility.yul\":15081:15295   */\n      swap3\n      swap2\n      pop\n      pop\n      jump\t// out\n        /* \"#utility.yul\":15382:15481   */\n    tag_428:\n        /* \"#utility.yul\":15434:15440   */\n      0x00\n        /* \"#utility.yul\":15468:15473   */\n      dup2\n        /* \"#utility.yul\":15462:15474   */\n      mload\n        /* \"#utility.yul\":15452:15474   */\n      swap1\n      pop\n        /* \"#utility.yul\":15382:15481   */\n      swap2\n      swap1\n      pop\n      jump\t// out\n        /* \"#utility.yul\":15487:15656   */\n    tag_430:\n        /* \"#utility.yul\":15571:15582   */\n      0x00\n        /* \"#utility.yul\":15605:15611   */\n      dup3\n        /* \"#utility.yul\":15600:15603   */\n      dup3\n        /* \"#utility.yul\":15593:15612   */\n      mstore\n        /* \"#utility.yul\":15645:15649   */\n      0x20\n        /* \"#utility.yul\":15640:15643   */\n      dup3\n        /* \"#utility.yul\":15636:15650   */\n      add\n        /* \"#utility.yul\":15621:15650   */\n      swap1\n      pop\n        /* \"#utility.yul\":15487:15656   */\n      swap3\n      swap2\n      pop\n      pop\n      jump\t// out\n        /* \"#utility.yul\":15662:15967   */\n    tag_203:\n        /* \"#utility.yul\":15702:15705   */\n      0x00\n        /* \"#utility.yul\":15721:15741   */\n      tag_552\n        /* \"#utility.yul\":15739:15740   */\n      dup3\n        /* \"#utility.yul\":15721:15741   */\n      tag_503\n      jump\t// in\n    tag_552:\n        /* \"#utility.yul\":15716:15741   */\n      swap2\n      pop\n        /* \"#utility.yul\":15755:15775   */\n      tag_553\n        /* \"#utility.yul\":15773:15774   */\n      dup4\n        /* \"#utility.yul\":15755:15775   */\n      tag_503\n      jump\t// in\n    tag_553:\n        /* \"#utility.yul\":15750:15775   */\n      swap3\n      pop\n        /* \"#utility.yul\":15909:15910   */\n      dup3\n        /* \"#utility.yul\":15841:15907   */\n      0xffffffffffffffffffffffffffffffffffffffffffffffffffffffffffffffff\n        /* \"#utility.yul\":15837:15911   */\n      sub\n        /* \"#utility.yul\":15834:15835   */\n      dup3\n        /* \"#utility.yul\":15831:15912   */\n      gt\n        /* \"#utility.yul\":15828:15935   */\n      iszero\n      tag_554\n      jumpi\n        /* \"#utility.yul\":15915:15933   */\n      tag_555\n      tag_556\n      jump\t// in\n    tag_555:\n        /* \"#utility.yul\":15828:15935   */\n    tag_554:\n        /* \"#utility.yul\":15959:15960   */\n      dup3\n        /* \"#utility.yul\":15956:15957   */\n      dup3\n        /* \"#utility.yul\":15952:15961   */\n      add\n        /* \"#utility.yul\":15945:15961   */\n      swap1\n      pop\n        /* \"#utility.yul\":15662:15967   */\n      swap3\n      swap2\n      pop\n      pop\n      jump\t// out\n        /* \"#utility.yul\":15973:16158   */\n    tag_259:\n        /* \"#utility.yul\":16013:16014   */\n      0x00\n        /* \"#utility.yul\":16030:16050   */\n      tag_558\n        /* \"#utility.yul\":16048:16049   */\n      dup3\n        /* \"#utility.yul\":16030:16050   */\n      tag_503\n      jump\t// in\n    tag_558:\n        /* \"#utility.yul\":16025:16050   */\n      swap2\n      pop\n        /* \"#utility.yul\":16064:16084   */\n      tag_559\n        /* \"#utility.yul\":16082:16083   */\n      dup4\n        /* \"#utility.yul\":16064:16084   */\n      tag_503\n      jump\t// in\n    tag_559:\n        /* \"#utility.yul\":16059:16084   */\n      swap3\n      pop\n        /* \"#utility.yul\":16103:16104   */\n      dup3\n        /* \"#utility.yul\":16093:16128   */\n      tag_560\n      jumpi\n        /* \"#utility.yul\":16108:16126   */\n      tag_561\n      tag_562\n      jump\t// in\n    tag_561:\n        /* \"#utility.yul\":16093:16128   */\n    tag_560:\n        /* \"#utility.yul\":16150:16151   */\n      dup3\n        /* \"#utility.yul\":16147:16148   */\n      dup3\n        /* \"#utility.yul\":16143:16152   */\n      div\n        /* \"#utility.yul\":16138:16152   */\n      swap1\n      pop\n        /* \"#utility.yul\":15973:16158   */\n      swap3\n      swap2\n      pop\n      pop\n      jump\t// out\n        /* \"#utility.yul\":16164:17012   */\n    tag_563:\n        /* \"#utility.yul\":16225:16230   */\n      0x00\n        /* \"#utility.yul\":16232:16236   */\n      dup1\n        /* \"#utility.yul\":16256:16262   */\n      dup3\n        /* \"#utility.yul\":16247:16262   */\n      swap2\n      pop\n        /* \"#utility.yul\":16280:16285   */\n      dup4\n        /* \"#utility.yul\":16271:16285   */\n      swap1\n      pop\n        /* \"#utility.yul\":16294:17006   */\n    tag_565:\n        /* \"#utility.yul\":16315:16316   */\n      0x01\n        /* \"#utility.yul\":16305:16313   */\n      dup6\n        /* \"#utility.yul\":16302:16317   */\n      gt\n        /* \"#utility.yul\":16294:17006   */\n      iszero\n      tag_567\n      jumpi\n        /* \"#utility.yul\":16410:16414   */\n      dup1\n        /* \"#utility.yul\":16405:16408   */\n      dup7\n        /* \"#utility.yul\":16401:16415   */\n      div\n        /* \"#utility.yul\":16395:16399   */\n      dup2\n        /* \"#utility.yul\":16392:16416   */\n      gt\n        /* \"#utility.yul\":16389:16439   */\n      iszero\n      tag_568\n      jumpi\n        /* \"#utility.yul\":16419:16437   */\n      tag_569\n      tag_556\n      jump\t// in\n    tag_569:\n        /* \"#utility.yul\":16389:16439   */\n    tag_568:\n        /* \"#utility.yul\":16469:16470   */\n      0x01\n        /* \"#utility.yul\":16459:16467   */\n      dup6\n        /* \"#utility.yul\":16455:16471   */\n      and\n        /* \"#utility.yul\":16452:16903   */\n      iszero\n      tag_570\n      jumpi\n        /* \"#utility.yul\":16884:16888   */\n      dup1\n        /* \"#utility.yul\":16877:16882   */\n      dup3\n        /* \"#utility.yul\":16873:16889   */\n      mul\n        /* \"#utility.yul\":16864:16889   */\n      swap2\n      pop\n        /* \"#utility.yul\":16452:16903   */\n    tag_570:\n        /* \"#utility.yul\":16934:16938   */\n      dup1\n        /* \"#utility.yul\":16928:16932   */\n      dup2\n        /* \"#utility.yul\":16924:16939   */\n      mul\n        /* \"#utility.yul\":16916:16939   */\n      swap1\n      pop\n        /* \"#utility.yul\":16964:16996   */\n      tag_571\n        /* \"#utility.yul\":16987:16995   */\n      dup6\n        /* \"#utility.yul\":16964:16996   */\n      tag_572\n      jump\t// in\n    tag_571:\n        /* \"#utility.yul\":16952:16996   */\n      swap5\n      pop\n        /* \"#utility.yul\":16294:17006   */\n      jump(tag_565)\n    tag_567:\n        /* \"#utility.yul\":16164:17012   */\n      swap5\n      pop\n      swap5\n      swap3\n      pop\n      pop\n      pop\n      jump\t// out\n        /* \"#utility.yul\":17018:17299   */\n    tag_252:\n        /* \"#utility.yul\":17076:17081   */\n      0x00\n        /* \"#utility.yul\":17100:17123   */\n      tag_574\n        /* \"#utility.yul\":17118:17122   */\n      dup3\n        /* \"#utility.yul\":17100:17123   */\n      tag_503\n      jump\t// in\n    tag_574:\n        /* \"#utility.yul\":17092:17123   */\n      swap2\n      pop\n        /* \"#utility.yul\":17144:17169   */\n      tag_575\n        /* \"#utility.yul\":17160:17168   */\n      dup4\n        /* \"#utility.yul\":17144:17169   */\n      tag_507\n      jump\t// in\n    tag_575:\n        /* \"#utility.yul\":17132:17169   */\n      swap3\n      pop\n        /* \"#utility.yul\":17188:17292   */\n      tag_576\n        /* \"#utility.yul\":17225:17291   */\n      0xffffffffffffffffffffffffffffffffffffffffffffffffffffffffffffffff\n        /* \"#utility.yul\":17215:17223   */\n      dup5\n        /* \"#utility.yul\":17209:17213   */\n      dup5\n        /* \"#utility.yul\":17188:17292   */\n      tag_577\n      jump\t// in\n    tag_576:\n        /* \"#utility.yul\":17179:17292   */\n      swap1\n      pop\n        /* \"#utility.yul\":17018:17299   */\n      swap3\n      swap2\n      pop\n      pop\n      jump\t// out\n        /* \"#utility.yul\":17305:18378   */\n    tag_577:\n        /* \"#utility.yul\":17359:17364   */\n      0x00\n        /* \"#utility.yul\":17550:17558   */\n      dup3\n        /* \"#utility.yul\":17540:17580   */\n      tag_579\n      jumpi\n        /* \"#utility.yul\":17571:17572   */\n      0x01\n        /* \"#utility.yul\":17562:17572   */\n      swap1\n      pop\n        /* \"#utility.yul\":17573:17578   */\n      jump(tag_578)\n        /* \"#utility.yul\":17540:17580   */\n    tag_579:\n        /* \"#utility.yul\":17599:17603   */\n      dup2\n        /* \"#utility.yul\":17589:17625   */\n      tag_580\n      jumpi\n        /* \"#utility.yul\":17616:17617   */\n      0x00\n        /* \"#utility.yul\":17607:17617   */\n      swap1\n      pop\n        /* \"#utility.yul\":17618:17623   */\n      jump(tag_578)\n        /* \"#utility.yul\":17589:17625   */\n    tag_580:\n        /* \"#utility.yul\":17685:17689   */\n      dup2\n        /* \"#utility.yul\":17733:17734   */\n      0x01\n        /* \"#utility.yul\":17728:17755   */\n      dup2\n      eq\n      tag_582\n      jumpi\n        /* \"#utility.yul\":17769:17770   */\n      0x02\n        /* \"#utility.yul\":17764:17955   */\n      dup2\n      eq\n      tag_583\n      jumpi\n        /* \"#utility.yul\":17678:17955   */\n      jump(tag_581)\n        /* \"#utility.yul\":17728:17755   */\n    tag_582:\n        /* \"#utility.yul\":17746:17747   */\n      0x01\n        /* \"#utility.yul\":17737:17747   */\n      swap2\n      pop\n        /* \"#utility.yul\":17748:17753   */\n      pop\n      jump(tag_578)\n        /* \"#utility.yul\":17764:17955   */\n    tag_583:\n        /* \"#utility.yul\":17809:17812   */\n      0xff\n        /* \"#utility.yul\":17799:17807   */\n      dup5\n        /* \"#utility.yul\":17796:17813   */\n      gt\n        /* \"#utility.yul\":17793:17836   */\n      iszero\n      tag_584\n      jumpi\n        /* \"#utility.yul\":17816:17834   */\n      tag_585\n      tag_556\n      jump\t// in\n    tag_585:\n        /* \"#utility.yul\":17793:17836   */\n    tag_584:\n        /* \"#utility.yul\":17865:17873   */\n      dup4\n        /* \"#utility.yul\":17862:17863   */\n      0x02\n        /* \"#utility.yul\":17858:17874   */\n      exp\n        /* \"#utility.yul\":17849:17874   */\n      swap2\n      pop\n        /* \"#utility.yul\":17900:17903   */\n      dup5\n        /* \"#utility.yul\":17893:17898   */\n      dup3\n        /* \"#utility.yul\":17890:17904   */\n      gt\n        /* \"#utility.yul\":17887:17927   */\n      iszero\n      tag_586\n      jumpi\n        /* \"#utility.yul\":17907:17925   */\n      tag_587\n      tag_556\n      jump\t// in\n    tag_587:\n        /* \"#utility.yul\":17887:17927   */\n    tag_586:\n        /* \"#utility.yul\":17940:17945   */\n      pop\n      jump(tag_578)\n        /* \"#utility.yul\":17678:17955   */\n    tag_581:\n      pop\n        /* \"#utility.yul\":18064:18066   */\n      0x20\n        /* \"#utility.yul\":18054:18062   */\n      dup4\n        /* \"#utility.yul\":18051:18067   */\n      lt\n        /* \"#utility.yul\":18045:18048   */\n      0x0133\n        /* \"#utility.yul\":18039:18043   */\n      dup4\n        /* \"#utility.yul\":18036:18049   */\n      lt\n        /* \"#utility.yul\":18032:18068   */\n      and\n        /* \"#utility.yul\":18014:18016   */\n      0x4e\n        /* \"#utility.yul\":18004:18012   */\n      dup5\n        /* \"#utility.yul\":18001:18017   */\n      lt\n        /* \"#utility.yul\":17996:17998   */\n      0x0b\n        /* \"#utility.yul\":17990:17994   */\n      dup5\n        /* \"#utility.yul\":17987:17999   */\n      lt\n        /* \"#utility.yul\":17983:18018   */\n      and\n        /* \"#utility.yul\":17967:18078   */\n      or\n        /* \"#utility.yul\":17964:18210   */\n      iszero\n      tag_588\n      jumpi\n        /* \"#utility.yul\":18120:18128   */\n      dup3\n        /* \"#utility.yul\":18114:18118   */\n      dup3\n        /* \"#utility.yul\":18110:18129   */\n      exp\n        /* \"#utility.yul\":18101:18129   */\n      swap1\n      pop\n        /* \"#utility.yul\":18155:18158   */\n      dup4\n        /* \"#utility.yul\":18148:18153   */\n      dup2\n        /* \"#utility.yul\":18145:18159   */\n      gt\n        /* \"#utility.yul\":18142:18182   */\n      iszero\n      tag_589\n      jumpi\n        /* \"#utility.yul\":18162:18180   */\n      tag_590\n      tag_556\n      jump\t// in\n    tag_590:\n        /* \"#utility.yul\":18142:18182   */\n    tag_589:\n        /* \"#utility.yul\":18195:18200   */\n      jump(tag_578)\n        /* \"#utility.yul\":17964:18210   */\n    tag_588:\n        /* \"#utility.yul\":18235:18277   */\n      tag_591\n        /* \"#utility.yul\":18273:18276   */\n      dup5\n        /* \"#utility.yul\":18263:18271   */\n      dup5\n        /* \"#utility.yul\":18257:18261   */\n      dup5\n        /* \"#utility.yul\":18254:18255   */\n      0x01\n        /* \"#utility.yul\":18235:18277   */\n      tag_563\n      jump\t// in\n    tag_591:\n        /* \"#utility.yul\":18220:18277   */\n      swap3\n      pop\n      swap1\n      pop\n        /* \"#utility.yul\":18309:18313   */\n      dup2\n        /* \"#utility.yul\":18304:18307   */\n      dup5\n        /* \"#utility.yul\":18300:18314   */\n      div\n        /* \"#utility.yul\":18293:18298   */\n      dup2\n        /* \"#utility.yul\":18290:18315   */\n      gt\n        /* \"#utility.yul\":18287:18338   */\n      iszero\n      tag_592\n      jumpi\n        /* \"#utility.yul\":18318:18336   */\n      tag_593\n      tag_556\n      jump\t// in\n    tag_593:\n        /* \"#utility.yul\":18287:18338   */\n    tag_592:\n        /* \"#utility.yul\":18367:18371   */\n      dup2\n        /* \"#utility.yul\":18360:18365   */\n      dup2\n        /* \"#utility.yul\":18356:18372   */\n      mul\n        /* \"#utility.yul\":18347:18372   */\n      swap1\n      pop\n        /* \"#utility.yul\":17305:18378   */\n    tag_578:\n      swap4\n      swap3\n      pop\n      pop\n      pop\n      jump\t// out\n        /* \"#utility.yul\":18384:18732   */\n    tag_254:\n        /* \"#utility.yul\":18424:18431   */\n      0x00\n        /* \"#utility.yul\":18447:18467   */\n      tag_595\n        /* \"#utility.yul\":18465:18466   */\n      dup3\n        /* \"#utility.yul\":18447:18467   */\n      tag_503\n      jump\t// in\n    tag_595:\n        /* \"#utility.yul\":18442:18467   */\n      swap2\n      pop\n        /* \"#utility.yul\":18481:18501   */\n      tag_596\n        /* \"#utility.yul\":18499:18500   */\n      dup4\n        /* \"#utility.yul\":18481:18501   */\n      tag_503\n      jump\t// in\n    tag_596:\n        /* \"#utility.yul\":18476:18501   */\n      swap3\n      pop\n        /* \"#utility.yul\":18669:18670   */\n      dup2\n        /* \"#utility.yul\":18601:18667   */\n      0xffffffffffffffffffffffffffffffffffffffffffffffffffffffffffffffff\n        /* \"#utility.yul\":18597:18671   */\n      div\n        /* \"#utility.yul\":18594:18595   */\n      dup4\n        /* \"#utility.yul\":18591:18672   */\n      gt\n        /* \"#utility.yul\":18586:18587   */\n      dup3\n        /* \"#utility.yul\":18579:18588   */\n      iszero\n        /* \"#utility.yul\":18572:18589   */\n      iszero\n        /* \"#utility.yul\":18568:18673   */\n      and\n        /* \"#utility.yul\":18565:18696   */\n      iszero\n      tag_597\n      jumpi\n        /* \"#utility.yul\":18676:18694   */\n      tag_598\n      tag_556\n      jump\t// in\n    tag_598:\n        /* \"#utility.yul\":18565:18696   */\n    tag_597:\n        /* \"#utility.yul\":18724:18725   */\n      dup3\n        /* \"#utility.yul\":18721:18722   */\n      dup3\n        /* \"#utility.yul\":18717:18726   */\n      mul\n        /* \"#utility.yul\":18706:18726   */\n      swap1\n      pop\n        /* \"#utility.yul\":18384:18732   */\n      swap3\n      swap2\n      pop\n      pop\n      jump\t// out\n        /* \"#utility.yul\":18738:18929   */\n    tag_265:\n        /* \"#utility.yul\":18778:18782   */\n      0x00\n        /* \"#utility.yul\":18798:18818   */\n      tag_600\n        /* \"#utility.yul\":18816:18817   */\n      dup3\n        /* \"#utility.yul\":18798:18818   */\n      tag_503\n      jump\t// in\n    tag_600:\n        /* \"#utility.yul\":18793:18818   */\n      swap2\n      pop\n        /* \"#utility.yul\":18832:18852   */\n      tag_601\n        /* \"#utility.yul\":18850:18851   */\n      dup4\n        /* \"#utility.yul\":18832:18852   */\n      tag_503\n      jump\t// in\n    tag_601:\n        /* \"#utility.yul\":18827:18852   */\n      swap3\n      pop\n        /* \"#utility.yul\":18871:18872   */\n      dup3\n        /* \"#utility.yul\":18868:18869   */\n      dup3\n        /* \"#utility.yul\":18865:18873   */\n      lt\n        /* \"#utility.yul\":18862:18896   */\n      iszero\n      tag_602\n      jumpi\n        /* \"#utility.yul\":18876:18894   */\n      tag_603\n      tag_556\n      jump\t// in\n    tag_603:\n        /* \"#utility.yul\":18862:18896   */\n    tag_602:\n        /* \"#utility.yul\":18921:18922   */\n      dup3\n        /* \"#utility.yul\":18918:18919   */\n      dup3\n        /* \"#utility.yul\":18914:18923   */\n      sub\n        /* \"#utility.yul\":18906:18923   */\n      swap1\n      pop\n        /* \"#utility.yul\":18738:18929   */\n      swap3\n      swap2\n      pop\n      pop\n      jump\t// out\n        /* \"#utility.yul\":18935:19031   */\n    tag_420:\n        /* \"#utility.yul\":18972:18979   */\n      0x00\n        /* \"#utility.yul\":19001:19025   */\n      tag_605\n        /* \"#utility.yul\":19019:19024   */\n      dup3\n        /* \"#utility.yul\":19001:19025   */\n      tag_606\n      jump\t// in\n    tag_605:\n        /* \"#utility.yul\":18990:19025   */\n      swap1\n      pop\n        /* \"#utility.yul\":18935:19031   */\n      swap2\n      swap1\n      pop\n      jump\t// out\n        /* \"#utility.yul\":19037:19127   */\n    tag_424:\n        /* \"#utility.yul\":19071:19078   */\n      0x00\n        /* \"#utility.yul\":19114:19119   */\n      dup2\n        /* \"#utility.yul\":19107:19120   */\n      iszero\n        /* \"#utility.yul\":19100:19121   */\n      iszero\n        /* \"#utility.yul\":19089:19121   */\n      swap1\n      pop\n        /* \"#utility.yul\":19037:19127   */\n      swap2\n      swap1\n      pop\n      jump\t// out\n        /* \"#utility.yul\":19133:19259   */\n    tag_606:\n        /* \"#utility.yul\":19170:19177   */\n      0x00\n        /* \"#utility.yul\":19210:19252   */\n      0xffffffffffffffffffffffffffffffffffffffff\n        /* \"#utility.yul\":19203:19208   */\n      dup3\n        /* \"#utility.yul\":19199:19253   */\n      and\n        /* \"#utility.yul\":19188:19253   */\n      swap1\n      pop\n        /* \"#utility.yul\":19133:19259   */\n      swap2\n      swap1\n      pop\n      jump\t// out\n        /* \"#utility.yul\":19265:19342   */\n    tag_503:\n        /* \"#utility.yul\":19302:19309   */\n      0x00\n        /* \"#utility.yul\":19331:19336   */\n      dup2\n        /* \"#utility.yul\":19320:19336   */\n      swap1\n      pop\n        /* \"#utility.yul\":19265:19342   */\n      swap2\n      swap1\n      pop\n      jump\t// out\n        /* \"#utility.yul\":19348:19434   */\n    tag_507:\n        /* \"#utility.yul\":19383:19390   */\n      0x00\n        /* \"#utility.yul\":19423:19427   */\n      0xff\n        /* \"#utility.yul\":19416:19421   */\n      dup3\n        /* \"#utility.yul\":19412:19428   */\n      and\n        /* \"#utility.yul\":19401:19428   */\n      swap1\n      pop\n        /* \"#utility.yul\":19348:19434   */\n      swap2\n      swap1\n      pop\n      jump\t// out\n        /* \"#utility.yul\":19440:19747   */\n    tag_432:\n        /* \"#utility.yul\":19508:19509   */\n      0x00\n        /* \"#utility.yul\":19518:19631   */\n    tag_612:\n        /* \"#utility.yul\":19532:19538   */\n      dup4\n        /* \"#utility.yul\":19529:19530   */\n      dup2\n        /* \"#utility.yul\":19526:19539   */\n      lt\n        /* \"#utility.yul\":19518:19631   */\n      iszero\n      tag_614\n      jumpi\n        /* \"#utility.yul\":19617:19618   */\n      dup1\n        /* \"#utility.yul\":19612:19615   */\n      dup3\n        /* \"#utility.yul\":19608:19619   */\n      add\n        /* \"#utility.yul\":19602:19620   */\n      mload\n        /* \"#utility.yul\":19598:19599   */\n      dup2\n        /* \"#utility.yul\":19593:19596   */\n      dup5\n        /* \"#utility.yul\":19589:19600   */\n      add\n        /* \"#utility.yul\":19582:19621   */\n      mstore\n        /* \"#utility.yul\":19554:19556   */\n      0x20\n        /* \"#utility.yul\":19551:19552   */\n      dup2\n        /* \"#utility.yul\":19547:19557   */\n      add\n        /* \"#utility.yul\":19542:19557   */\n      swap1\n      pop\n        /* \"#utility.yul\":19518:19631   */\n      jump(tag_612)\n    tag_614:\n        /* \"#utility.yul\":19649:19655   */\n      dup4\n        /* \"#utility.yul\":19646:19647   */\n      dup2\n        /* \"#utility.yul\":19643:19656   */\n      gt\n        /* \"#utility.yul\":19640:19741   */\n      iszero\n      tag_615\n      jumpi\n        /* \"#utility.yul\":19729:19730   */\n      0x00\n        /* \"#utility.yul\":19720:19726   */\n      dup5\n        /* \"#utility.yul\":19715:19718   */\n      dup5\n        /* \"#utility.yul\":19711:19727   */\n      add\n        /* \"#utility.yul\":19704:19731   */\n      mstore\n        /* \"#utility.yul\":19640:19741   */\n    tag_615:\n        /* \"#utility.yul\":19489:19747   */\n      pop\n        /* \"#utility.yul\":19440:19747   */\n      pop\n      pop\n      pop\n      jump\t// out\n        /* \"#utility.yul\":19753:20073   */\n    tag_184:\n        /* \"#utility.yul\":19797:19803   */\n      0x00\n        /* \"#utility.yul\":19834:19835   */\n      0x02\n        /* \"#utility.yul\":19828:19832   */\n      dup3\n        /* \"#utility.yul\":19824:19836   */\n      div\n        /* \"#utility.yul\":19814:19836   */\n      swap1\n      pop\n        /* \"#utility.yul\":19881:19882   */\n      0x01\n        /* \"#utility.yul\":19875:19879   */\n      dup3\n        /* \"#utility.yul\":19871:19883   */\n      and\n        /* \"#utility.yul\":19902:19920   */\n      dup1\n        /* \"#utility.yul\":19892:19973   */\n      tag_617\n      jumpi\n        /* \"#utility.yul\":19958:19962   */\n      0x7f\n        /* \"#utility.yul\":19950:19956   */\n      dup3\n        /* \"#utility.yul\":19946:19963   */\n      and\n        /* \"#utility.yul\":19936:19963   */\n      swap2\n      pop\n        /* \"#utility.yul\":19892:19973   */\n    tag_617:\n        /* \"#utility.yul\":20020:20022   */\n      0x20\n        /* \"#utility.yul\":20012:20018   */\n      dup3\n        /* \"#utility.yul\":20009:20023   */\n      lt\n        /* \"#utility.yul\":19989:20007   */\n      dup2\n        /* \"#utility.yul\":19986:20024   */\n      eq\n        /* \"#utility.yul\":19983:20067   */\n      iszero\n      tag_618\n      jumpi\n        /* \"#utility.yul\":20039:20057   */\n      tag_619\n      tag_620\n      jump\t// in\n    tag_619:\n        /* \"#utility.yul\":19983:20067   */\n    tag_618:\n        /* \"#utility.yul\":19804:20073   */\n      pop\n        /* \"#utility.yul\":19753:20073   */\n      swap2\n      swap1\n      pop\n      jump\t// out\n        /* \"#utility.yul\":20079:20259   */\n    tag_556:\n        /* \"#utility.yul\":20127:20204   */\n      0x4e487b7100000000000000000000000000000000000000000000000000000000\n        /* \"#utility.yul\":20124:20125   */\n      0x00\n        /* \"#utility.yul\":20117:20205   */\n      mstore\n        /* \"#utility.yul\":20224:20228   */\n      0x11\n        /* \"#utility.yul\":20221:20222   */\n      0x04\n        /* \"#utility.yul\":20214:20229   */\n      mstore\n        /* \"#utility.yul\":20248:20252   */\n      0x24\n        /* \"#utility.yul\":20245:20246   */\n      0x00\n        /* \"#utility.yul\":20238:20253   */\n      revert\n        /* \"#utility.yul\":20265:20445   */\n    tag_562:\n        /* \"#utility.yul\":20313:20390   */\n      0x4e487b7100000000000000000000000000000000000000000000000000000000\n        /* \"#utility.yul\":20310:20311   */\n      0x00\n        /* \"#utility.yul\":20303:20391   */\n      mstore\n        /* \"#utility.yul\":20410:20414   */\n      0x12\n        /* \"#utility.yul\":20407:20408   */\n      0x04\n        /* \"#utility.yul\":20400:20415   */\n      mstore\n        /* \"#utility.yul\":20434:20438   */\n      0x24\n        /* \"#utility.yul\":20431:20432   */\n      0x00\n        /* \"#utility.yul\":20424:20439   */\n      revert\n        /* \"#utility.yul\":20451:20631   */\n    tag_620:\n        /* \"#utility.yul\":20499:20576   */\n      0x4e487b7100000000000000000000000000000000000000000000000000000000\n        /* \"#utility.yul\":20496:20497   */\n      0x00\n        /* \"#utility.yul\":20489:20577   */\n      mstore\n        /* \"#utility.yul\":20596:20600   */\n      0x22\n        /* \"#utility.yul\":20593:20594   */\n      0x04\n        /* \"#utility.yul\":20586:20601   */\n      mstore\n        /* \"#utility.yul\":20620:20624   */\n      0x24\n        /* \"#utility.yul\":20617:20618   */\n      0x00\n        /* \"#utility.yul\":20610:20625   */\n      revert\n        /* \"#utility.yul\":20637:20817   */\n    tag_296:\n        /* \"#utility.yul\":20685:20762   */\n      0x4e487b7100000000000000000000000000000000000000000000000000000000\n        /* \"#utility.yul\":20682:20683   */\n      0x00\n        /* \"#utility.yul\":20675:20763   */\n      mstore\n        /* \"#utility.yul\":20782:20786   */\n      0x31\n        /* \"#utility.yul\":20779:20780   */\n      0x04\n        /* \"#utility.yul\":20772:20787   */\n      mstore\n        /* \"#utility.yul\":20806:20810   */\n      0x24\n        /* \"#utility.yul\":20803:20804   */\n      0x00\n        /* \"#utility.yul\":20796:20811   */\n      revert\n        /* \"#utility.yul\":20823:21003   */\n    tag_200:\n        /* \"#utility.yul\":20871:20948   */\n      0x4e487b7100000000000000000000000000000000000000000000000000000000\n        /* \"#utility.yul\":20868:20869   */\n      0x00\n        /* \"#utility.yul\":20861:20949   */\n      mstore\n        /* \"#utility.yul\":20968:20972   */\n      0x32\n        /* \"#utility.yul\":20965:20966   */\n      0x04\n        /* \"#utility.yul\":20958:20973   */\n      mstore\n        /* \"#utility.yul\":20992:20996   */\n      0x24\n        /* \"#utility.yul\":20989:20990   */\n      0x00\n        /* \"#utility.yul\":20982:20997   */\n      revert\n        /* \"#utility.yul\":21132:21249   */\n    tag_395:\n        /* \"#utility.yul\":21241:21242   */\n      0x00\n        /* \"#utility.yul\":21238:21239   */\n      dup1\n        /* \"#utility.yul\":21231:21243   */\n      revert\n        /* \"#utility.yul\":21255:21357   */\n    tag_434:\n        /* \"#utility.yul\":21296:21302   */\n      0x00\n        /* \"#utility.yul\":21347:21349   */\n      0x1f\n        /* \"#utility.yul\":21343:21350   */\n      not\n        /* \"#utility.yul\":21338:21340   */\n      0x1f\n        /* \"#utility.yul\":21331:21336   */\n      dup4\n        /* \"#utility.yul\":21327:21341   */\n      add\n        /* \"#utility.yul\":21323:21351   */\n      and\n        /* \"#utility.yul\":21313:21351   */\n      swap1\n      pop\n        /* \"#utility.yul\":21255:21357   */\n      swap2\n      swap1\n      pop\n      jump\t// out\n        /* \"#utility.yul\":21363:21465   */\n    tag_572:\n        /* \"#utility.yul\":21405:21413   */\n      0x00\n        /* \"#utility.yul\":21452:21457   */\n      dup2\n        /* \"#utility.yul\":21449:21450   */\n      0x01\n        /* \"#utility.yul\":21445:21458   */\n      shr\n        /* \"#utility.yul\":21424:21458   */\n      swap1\n      pop\n        /* \"#utility.yul\":21363:21465   */\n      swap2\n      swap1\n      pop\n      jump\t// out\n        /* \"#utility.yul\":21471:21703   */\n    tag_439:\n        /* \"#utility.yul\":21611:21645   */\n      0x4f6e6c7920746865204f776e65722063616e2073657420746865207072696365\n        /* \"#utility.yul\":21607:21608   */\n      0x00\n        /* \"#utility.yul\":21599:21605   */\n      dup3\n        /* \"#utility.yul\":21595:21609   */\n      add\n        /* \"#utility.yul\":21588:21646   */\n      mstore\n        /* \"#utility.yul\":21680:21695   */\n      0x206f662074686520746f6b656e00000000000000000000000000000000000000\n        /* \"#utility.yul\":21675:21677   */\n      0x20\n        /* \"#utility.yul\":21667:21673   */\n      dup3\n        /* \"#utility.yul\":21663:21678   */\n      add\n        /* \"#utility.yul\":21656:21696   */\n      mstore\n        /* \"#utility.yul\":21471:21703   */\n      pop\n      jump\t// out\n        /* \"#utility.yul\":21709:21931   */\n    tag_444:\n        /* \"#utility.yul\":21849:21883   */\n      0x45524332303a207472616e7366657220746f20746865207a65726f2061646472\n        /* \"#utility.yul\":21845:21846   */\n      0x00\n        /* \"#utility.yul\":21837:21843   */\n      dup3\n        /* \"#utility.yul\":21833:21847   */\n      add\n        /* \"#utility.yul\":21826:21884   */\n      mstore\n        /* \"#utility.yul\":21918:21923   */\n      0x6573730000000000000000000000000000000000000000000000000000000000\n        /* \"#utility.yul\":21913:21915   */\n      0x20\n        /* \"#utility.yul\":21905:21911   */\n      dup3\n        /* \"#utility.yul\":21901:21916   */\n      add\n        /* \"#utility.yul\":21894:21924   */\n      mstore\n        /* \"#utility.yul\":21709:21931   */\n      pop\n      jump\t// out\n        /* \"#utility.yul\":21937:22158   */\n    tag_449:\n        /* \"#utility.yul\":22077:22111   */\n      0x45524332303a206275726e20616d6f756e7420657863656564732062616c616e\n        /* \"#utility.yul\":22073:22074   */\n      0x00\n        /* \"#utility.yul\":22065:22071   */\n      dup3\n        /* \"#utility.yul\":22061:22075   */\n      add\n        /* \"#utility.yul\":22054:22112   */\n      mstore\n        /* \"#utility.yul\":22146:22150   */\n      0x6365000000000000000000000000000000000000000000000000000000000000\n        /* \"#utility.yul\":22141:22143   */\n      0x20\n        /* \"#utility.yul\":22133:22139   */\n      dup3\n        /* \"#utility.yul\":22129:22144   */\n      add\n        /* \"#utility.yul\":22122:22151   */\n      mstore\n        /* \"#utility.yul\":21937:22158   */\n      pop\n      jump\t// out\n        /* \"#utility.yul\":22164:22389   */\n    tag_454:\n        /* \"#utility.yul\":22304:22338   */\n      0x4f776e61626c653a206e6577206f776e657220697320746865207a65726f2061\n        /* \"#utility.yul\":22300:22301   */\n      0x00\n        /* \"#utility.yul\":22292:22298   */\n      dup3\n        /* \"#utility.yul\":22288:22302   */\n      add\n        /* \"#utility.yul\":22281:22339   */\n      mstore\n        /* \"#utility.yul\":22373:22381   */\n      0x6464726573730000000000000000000000000000000000000000000000000000\n        /* \"#utility.yul\":22368:22370   */\n      0x20\n        /* \"#utility.yul\":22360:22366   */\n      dup3\n        /* \"#utility.yul\":22356:22371   */\n      add\n        /* \"#utility.yul\":22349:22382   */\n      mstore\n        /* \"#utility.yul\":22164:22389   */\n      pop\n      jump\t// out\n        /* \"#utility.yul\":22395:22616   */\n    tag_459:\n        /* \"#utility.yul\":22535:22569   */\n      0x45524332303a20617070726f766520746f20746865207a65726f206164647265\n        /* \"#utility.yul\":22531:22532   */\n      0x00\n        /* \"#utility.yul\":22523:22529   */\n      dup3\n        /* \"#utility.yul\":22519:22533   */\n      add\n        /* \"#utility.yul\":22512:22570   */\n      mstore\n        /* \"#utility.yul\":22604:22608   */\n      0x7373000000000000000000000000000000000000000000000000000000000000\n        /* \"#utility.yul\":22599:22601   */\n      0x20\n        /* \"#utility.yul\":22591:22597   */\n      dup3\n        /* \"#utility.yul\":22587:22602   */\n      add\n        /* \"#utility.yul\":22580:22609   */\n      mstore\n        /* \"#utility.yul\":22395:22616   */\n      pop\n      jump\t// out\n        /* \"#utility.yul\":22622:22801   */\n    tag_464:\n        /* \"#utility.yul\":22762:22793   */\n      0x45524332303a20696e73756666696369656e7420616c6c6f77616e6365000000\n        /* \"#utility.yul\":22758:22759   */\n      0x00\n        /* \"#utility.yul\":22750:22756   */\n      dup3\n        /* \"#utility.yul\":22746:22760   */\n      add\n        /* \"#utility.yul\":22739:22794   */\n      mstore\n        /* \"#utility.yul\":22622:22801   */\n      pop\n      jump\t// out\n        /* \"#utility.yul\":22807:23032   */\n    tag_469:\n        /* \"#utility.yul\":22947:22981   */\n      0x45524332303a207472616e7366657220616d6f756e7420657863656564732062\n        /* \"#utility.yul\":22943:22944   */\n      0x00\n        /* \"#utility.yul\":22935:22941   */\n      dup3\n        /* \"#utility.yul\":22931:22945   */\n      add\n        /* \"#utility.yul\":22924:22982   */\n      mstore\n        /* \"#utility.yul\":23016:23024   */\n      0x616c616e63650000000000000000000000000000000000000000000000000000\n        /* \"#utility.yul\":23011:23013   */\n      0x20\n        /* \"#utility.yul\":23003:23009   */\n      dup3\n        /* \"#utility.yul\":22999:23014   */\n      add\n        /* \"#utility.yul\":22992:23025   */\n      mstore\n        /* \"#utility.yul\":22807:23032   */\n      pop\n      jump\t// out\n        /* \"#utility.yul\":23038:23220   */\n    tag_474:\n        /* \"#utility.yul\":23178:23212   */\n      0x4f776e61626c653a2063616c6c6572206973206e6f7420746865206f776e6572\n        /* \"#utility.yul\":23174:23175   */\n      0x00\n        /* \"#utility.yul\":23166:23172   */\n      dup3\n        /* \"#utility.yul\":23162:23176   */\n      add\n        /* \"#utility.yul\":23155:23213   */\n      mstore\n        /* \"#utility.yul\":23038:23220   */\n      pop\n      jump\t// out\n        /* \"#utility.yul\":23226:23446   */\n    tag_479:\n        /* \"#utility.yul\":23366:23400   */\n      0x45524332303a206275726e2066726f6d20746865207a65726f20616464726573\n        /* \"#utility.yul\":23362:23363   */\n      0x00\n        /* \"#utility.yul\":23354:23360   */\n      dup3\n        /* \"#utility.yul\":23350:23364   */\n      add\n        /* \"#utility.yul\":23343:23401   */\n      mstore\n        /* \"#utility.yul\":23435:23438   */\n      0x7300000000000000000000000000000000000000000000000000000000000000\n        /* \"#utility.yul\":23430:23432   */\n      0x20\n        /* \"#utility.yul\":23422:23428   */\n      dup3\n        /* \"#utility.yul\":23418:23433   */\n      add\n        /* \"#utility.yul\":23411:23439   */\n      mstore\n        /* \"#utility.yul\":23226:23446   */\n      pop\n      jump\t// out\n        /* \"#utility.yul\":23452:23676   */\n    tag_484:\n        /* \"#utility.yul\":23592:23626   */\n      0x45524332303a207472616e736665722066726f6d20746865207a65726f206164\n        /* \"#utility.yul\":23588:23589   */\n      0x00\n        /* \"#utility.yul\":23580:23586   */\n      dup3\n        /* \"#utility.yul\":23576:23590   */\n      add\n        /* \"#utility.yul\":23569:23627   */\n      mstore\n        /* \"#utility.yul\":23661:23668   */\n      0x6472657373000000000000000000000000000000000000000000000000000000\n        /* \"#utility.yul\":23656:23658   */\n      0x20\n        /* \"#utility.yul\":23648:23654   */\n      dup3\n        /* \"#utility.yul\":23644:23659   */\n      add\n        /* \"#utility.yul\":23637:23669   */\n      mstore\n        /* \"#utility.yul\":23452:23676   */\n      pop\n      jump\t// out\n        /* \"#utility.yul\":23682:23905   */\n    tag_489:\n        /* \"#utility.yul\":23822:23856   */\n      0x45524332303a20617070726f76652066726f6d20746865207a65726f20616464\n        /* \"#utility.yul\":23818:23819   */\n      0x00\n        /* \"#utility.yul\":23810:23816   */\n      dup3\n        /* \"#utility.yul\":23806:23820   */\n      add\n        /* \"#utility.yul\":23799:23857   */\n      mstore\n        /* \"#utility.yul\":23891:23897   */\n      0x7265737300000000000000000000000000000000000000000000000000000000\n        /* \"#utility.yul\":23886:23888   */\n      0x20\n        /* \"#utility.yul\":23878:23884   */\n      dup3\n        /* \"#utility.yul\":23874:23889   */\n      add\n        /* \"#utility.yul\":23867:23898   */\n      mstore\n        /* \"#utility.yul\":23682:23905   */\n      pop\n      jump\t// out\n        /* \"#utility.yul\":23911:24135   */\n    tag_494:\n        /* \"#utility.yul\":24051:24085   */\n      0x45524332303a2064656372656173656420616c6c6f77616e63652062656c6f77\n        /* \"#utility.yul\":24047:24048   */\n      0x00\n        /* \"#utility.yul\":24039:24045   */\n      dup3\n        /* \"#utility.yul\":24035:24049   */\n      add\n        /* \"#utility.yul\":24028:24086   */\n      mstore\n        /* \"#utility.yul\":24120:24127   */\n      0x207a65726f000000000000000000000000000000000000000000000000000000\n        /* \"#utility.yul\":24115:24117   */\n      0x20\n        /* \"#utility.yul\":24107:24113   */\n      dup3\n        /* \"#utility.yul\":24103:24118   */\n      add\n        /* \"#utility.yul\":24096:24128   */\n      mstore\n        /* \"#utility.yul\":23911:24135   */\n      pop\n      jump\t// out\n        /* \"#utility.yul\":24141:24322   */\n    tag_499:\n        /* \"#utility.yul\":24281:24314   */\n      0x45524332303a206d696e7420746f20746865207a65726f206164647265737300\n        /* \"#utility.yul\":24277:24278   */\n      0x00\n        /* \"#utility.yul\":24269:24275   */\n      dup3\n        /* \"#utility.yul\":24265:24279   */\n      add\n        /* \"#utility.yul\":24258:24315   */\n      mstore\n        /* \"#utility.yul\":24141:24322   */\n      pop\n      jump\t// out\n        /* \"#utility.yul\":24328:24450   */\n    tag_387:\n        /* \"#utility.yul\":24401:24425   */\n      tag_645\n        /* \"#utility.yul\":24419:24424   */\n      dup2\n        /* \"#utility.yul\":24401:24425   */\n      tag_420\n      jump\t// in\n    tag_645:\n        /* \"#utility.yul\":24394:24399   */\n      dup2\n        /* \"#utility.yul\":24391:24426   */\n      eq\n        /* \"#utility.yul\":24381:24444   */\n      tag_646\n      jumpi\n        /* \"#utility.yul\":24440:24441   */\n      0x00\n        /* \"#utility.yul\":24437:24438   */\n      dup1\n        /* \"#utility.yul\":24430:24442   */\n      revert\n        /* \"#utility.yul\":24381:24444   */\n    tag_646:\n        /* \"#utility.yul\":24328:24450   */\n      pop\n      jump\t// out\n        /* \"#utility.yul\":24456:24578   */\n    tag_391:\n        /* \"#utility.yul\":24529:24553   */\n      tag_648\n        /* \"#utility.yul\":24547:24552   */\n      dup2\n        /* \"#utility.yul\":24529:24553   */\n      tag_503\n      jump\t// in\n    tag_648:\n        /* \"#utility.yul\":24522:24527   */\n      dup2\n        /* \"#utility.yul\":24519:24554   */\n      eq\n        /* \"#utility.yul\":24509:24572   */\n      tag_649\n      jumpi\n        /* \"#utility.yul\":24568:24569   */\n      0x00\n        /* \"#utility.yul\":24565:24566   */\n      dup1\n        /* \"#utility.yul\":24558:24570   */\n      revert\n        /* \"#utility.yul\":24509:24572   */\n    tag_649:\n        /* \"#utility.yul\":24456:24578   */\n      pop\n      jump\t// out\n\n    auxdata: 0xa2646970667358221220bea34b8bcce76731eb63fcc3f0141b58a3b98c4bf0287dd28422d13c29a8d22664736f6c63430008070033\n}\n",
				"bytecode": {
					"linkReferences": {},
					"object": "60806040523480156200001157600080fd5b506040518060400160405280600a81526020017f5a656e79615374616b65000000000000000000000000000000000000000000008152506040518060400160405280600481526020017f5a4e59530000000000000000000000000000000000000000000000000000000081525081600390805190602001906200009692919062000370565b508060049080519060200190620000af92919062000370565b505050620000d2620000c66200011660201b60201c565b6200011e60201b60201c565b6200011033620000e7620001e460201b60201c565b600a620000f5919062000560565b6103e86200010491906200069d565b620001ed60201b60201c565b620007df565b600033905090565b6000600560009054906101000a900473ffffffffffffffffffffffffffffffffffffffff16905081600560006101000a81548173ffffffffffffffffffffffffffffffffffffffff021916908373ffffffffffffffffffffffffffffffffffffffff1602179055508173ffffffffffffffffffffffffffffffffffffffff168173ffffffffffffffffffffffffffffffffffffffff167f8be0079c531659141344cd1fd0a4f28419497f9722a3daafe3b4186f6b6457e060405160405180910390a35050565b60006012905090565b600073ffffffffffffffffffffffffffffffffffffffff168273ffffffffffffffffffffffffffffffffffffffff16141562000260576040517f08c379a0000000000000000000000000000000000000000000000000000000008152600401620002579062000458565b60405180910390fd5b62000274600083836200036660201b60201c565b8060026000828254620002889190620004a8565b92505081905550806000808473ffffffffffffffffffffffffffffffffffffffff1673ffffffffffffffffffffffffffffffffffffffff1681526020019081526020016000206000828254620002df9190620004a8565b925050819055508173ffffffffffffffffffffffffffffffffffffffff16600073ffffffffffffffffffffffffffffffffffffffff167fddf252ad1be2c89b69c2b068fc378daa952ba7f163c4a11628f55a4df523b3ef836040516200034691906200047a565b60405180910390a362000362600083836200036b60201b60201c565b5050565b505050565b505050565b8280546200037e9062000715565b90600052602060002090601f016020900481019282620003a25760008555620003ee565b82601f10620003bd57805160ff1916838001178555620003ee565b82800160010185558215620003ee579182015b82811115620003ed578251825591602001919060010190620003d0565b5b509050620003fd919062000401565b5090565b5b808211156200041c57600081600090555060010162000402565b5090565b60006200042f601f8362000497565b91506200043c82620007b6565b602082019050919050565b6200045281620006fe565b82525050565b60006020820190508181036000830152620004738162000420565b9050919050565b600060208201905062000491600083018462000447565b92915050565b600082825260208201905092915050565b6000620004b582620006fe565b9150620004c283620006fe565b9250827fffffffffffffffffffffffffffffffffffffffffffffffffffffffffffffffff03821115620004fa57620004f96200074b565b5b828201905092915050565b6000808291508390505b600185111562000557578086048111156200052f576200052e6200074b565b5b60018516156200053f5780820291505b80810290506200054f85620007a9565b94506200050f565b94509492505050565b60006200056d82620006fe565b91506200057a8362000708565b9250620005a97fffffffffffffffffffffffffffffffffffffffffffffffffffffffffffffffff8484620005b1565b905092915050565b600082620005c3576001905062000696565b81620005d3576000905062000696565b8160018114620005ec5760028114620005f7576200062d565b600191505062000696565b60ff8411156200060c576200060b6200074b565b5b8360020a9150848211156200062657620006256200074b565b5b5062000696565b5060208310610133831016604e8410600b8410161715620006675782820a9050838111156200066157620006606200074b565b5b62000696565b62000676848484600162000505565b9250905081840481111562000690576200068f6200074b565b5b81810290505b9392505050565b6000620006aa82620006fe565b9150620006b783620006fe565b9250817fffffffffffffffffffffffffffffffffffffffffffffffffffffffffffffffff0483118215151615620006f357620006f26200074b565b5b828202905092915050565b6000819050919050565b600060ff82169050919050565b600060028204905060018216806200072e57607f821691505b602082108114156200074557620007446200077a565b5b50919050565b7f4e487b7100000000000000000000000000000000000000000000000000000000600052601160045260246000fd5b7f4e487b7100000000000000000000000000000000000000000000000000000000600052602260045260246000fd5b60008160011c9050919050565b7f45524332303a206d696e7420746f20746865207a65726f206164647265737300600082015250565b612d1a80620007ef6000396000f3fe6080604052600436106101d85760003560e01c8063715018a611610102578063bcb0c2d711610095578063e0c6190d11610064578063e0c6190d146106c7578063e5c42fd1146106f2578063ef037b901461071b578063f2fde38b14610759576101d8565b8063bcb0c2d71461060d578063c885bc5814610636578063d82e39621461064d578063dd62ed3e1461068a576101d8565b806395d89b41116100d157806395d89b411461053d578063a457c2d714610568578063a9059cbb146105a5578063b2bdfa7b146105e2576101d8565b8063715018a6146104b65780637e72fb52146104cd5780638da5cb5b146104e9578063939624ab14610514576101d8565b806323b872dd1161017a578063426233601161014957806342623360146103fc5780634be21e33146104395780636f4a2cd01461046257806370a0823114610479576101d8565b806323b872dd1461032c578063313ce5671461036957806335789c8b1461039457806339509351146103bf576101d8565b80630e15561a116101b65780630e15561a1461027057806318160ddd1461029b5780631bf6ddae146102c65780631d62ebd9146102ef576101d8565b8063046e2edb146101dd57806306fdde0314610208578063095ea7b314610233575b600080fd5b3480156101e957600080fd5b506101f2610782565b6040516101ff9190612485565b60405180910390f35b34801561021457600080fd5b5061021d610788565b60405161022a91906122c3565b60405180910390f35b34801561023f57600080fd5b5061025a60048036038101906102559190611fbb565b61081a565b604051610267919061227f565b60405180910390f35b34801561027c57600080fd5b5061028561083d565b6040516102929190612485565b60405180910390f35b3480156102a757600080fd5b506102b06108fb565b6040516102bd9190612485565b60405180910390f35b3480156102d257600080fd5b506102ed60048036038101906102e89190611ffb565b610905565b005b3480156102fb57600080fd5b5061031660048036038101906103119190611efb565b6109f2565b6040516103239190612485565b60405180910390f35b34801561033857600080fd5b50610353600480360381019061034e9190611f68565b610a3b565b604051610360919061227f565b60405180910390f35b34801561037557600080fd5b5061037e610a6a565b60405161038b91906124a0565b60405180910390f35b3480156103a057600080fd5b506103a9610a73565b6040516103b69190612485565b60405180910390f35b3480156103cb57600080fd5b506103e660048036038101906103e19190611fbb565b610a79565b6040516103f3919061227f565b60405180910390f35b34801561040857600080fd5b50610423600480360381019061041e9190611efb565b610b23565b6040516104309190612485565b60405180910390f35b34801561044557600080fd5b50610460600480360381019061045b9190611ffb565b610b6c565b005b34801561046e57600080fd5b50610477610c06565b005b34801561048557600080fd5b506104a0600480360381019061049b9190611efb565b610d0d565b6040516104ad9190612485565b60405180910390f35b3480156104c257600080fd5b506104cb610d55565b005b6104e760048036038101906104e29190611efb565b610ddd565b005b3480156104f557600080fd5b506104fe610e42565b60405161050b9190612264565b60405180910390f35b34801561052057600080fd5b5061053b60048036038101906105369190611ffb565b610e6c565b005b34801561054957600080fd5b50610552610f59565b60405161055f91906122c3565b60405180910390f35b34801561057457600080fd5b5061058f600480360381019061058a9190611fbb565b610feb565b60405161059c919061227f565b60405180910390f35b3480156105b157600080fd5b506105cc60048036038101906105c79190611fbb565b6110d5565b6040516105d9919061227f565b60405180910390f35b3480156105ee57600080fd5b506105f76110f8565b6040516106049190612264565b60405180910390f35b34801561061957600080fd5b50610634600480360381019061062f9190611efb565b61111e565b005b34801561064257600080fd5b5061064b61122d565b005b34801561065957600080fd5b50610674600480360381019061066f9190611efb565b6112c3565b6040516106819190612485565b60405180910390f35b34801561069657600080fd5b506106b160048036038101906106ac9190611f28565b611318565b6040516106be9190612485565b60405180910390f35b3480156106d357600080fd5b506106dc61139f565b6040516106e9919061227f565b60405180910390f35b3480156106fe57600080fd5b5061071960048036038101906107149190611efb565b6113c3565b005b34801561072757600080fd5b50610742600480360381019061073d9190611efb565b61143e565b60405161075092919061229a565b60405180910390f35b34801561076557600080fd5b50610780600480360381019061077b9190611efb565b6114f2565b005b60085481565b606060038054610797906127e5565b80601f01602080910402602001604051908101604052809291908181526020018280546107c3906127e5565b80156108105780601f106107e557610100808354040283529160200191610810565b820191906000526020600020905b8154815290600101906020018083116107f357829003601f168201915b5050505050905090565b6000806108256115ea565b90506108328185856115f2565b600191505092915050565b6000806000905060005b600a805490508110156108f357600b6000600a838154811061086c5761086b6128d3565b5b9060005260206000200160009054906101000a900473ffffffffffffffffffffffffffffffffffffffff1673ffffffffffffffffffffffffffffffffffffffff1673ffffffffffffffffffffffffffffffffffffffff16815260200190815260200160002054826108dd91906124d7565b91506001816108ec91906124d7565b9050610847565b508091505090565b6000600254905090565b61090f33826117bd565b6000600960003373ffffffffffffffffffffffffffffffffffffffff1673ffffffffffffffffffffffffffffffffffffffff16815260200190815260200160002054141561096157610960336113c3565b5b80600960003373ffffffffffffffffffffffffffffffffffffffff1673ffffffffffffffffffffffffffffffffffffffff168152602001908152602001600020546109ac91906124d7565b600960003373ffffffffffffffffffffffffffffffffffffffff1673ffffffffffffffffffffffffffffffffffffffff1681526020019081526020016000208190555050565b6000600b60008373ffffffffffffffffffffffffffffffffffffffff1673ffffffffffffffffffffffffffffffffffffffff168152602001908152602001600020549050919050565b600080610a466115ea565b9050610a53858285611994565b610a5e858585611a20565b60019150509392505050565b60006012905090565b60075481565b600080610a846115ea565b9050610b18818585600160008673ffffffffffffffffffffffffffffffffffffffff1673ffffffffffffffffffffffffffffffffffffffff16815260200190815260200160002060008973ffffffffffffffffffffffffffffffffffffffff1673ffffffffffffffffffffffffffffffffffffffff16815260200190815260200160002054610b1391906124d7565b6115f2565b600191505092915050565b6000600960008373ffffffffffffffffffffffffffffffffffffffff1673ffffffffffffffffffffffffffffffffffffffff168152602001908152602001600020549050919050565b600660009054906101000a900473ffffffffffffffffffffffffffffffffffffffff1673ffffffffffffffffffffffffffffffffffffffff163373ffffffffffffffffffffffffffffffffffffffff1614610bfc576040517f08c379a0000000000000000000000000000000000000000000000000000000008152600401610bf3906122e5565b60405180910390fd5b8060078190555050565b60005b600a80549050811015610d0a576000600a8281548110610c2c57610c2b6128d3565b5b9060005260206000200160009054906101000a900473ffffffffffffffffffffffffffffffffffffffff1690506000610c64826112c3565b905080600b60008473ffffffffffffffffffffffffffffffffffffffff1673ffffffffffffffffffffffffffffffffffffffff16815260200190815260200160002054610cb191906124d7565b600b60008473ffffffffffffffffffffffffffffffffffffffff1673ffffffffffffffffffffffffffffffffffffffff168152602001908152602001600020819055505050600181610d0391906124d7565b9050610c09565b50565b60008060008373ffffffffffffffffffffffffffffffffffffffff1673ffffffffffffffffffffffffffffffffffffffff168152602001908152602001600020549050919050565b610d5d6115ea565b73ffffffffffffffffffffffffffffffffffffffff16610d7b610e42565b73ffffffffffffffffffffffffffffffffffffffff1614610dd1576040517f08c379a0000000000000000000000000000000000000000000000000000000008152600401610dc8906123c5565b60405180910390fd5b610ddb6000611ca1565b565b610de5610a6a565b600a610df191906125b1565b600754610dfe91906126cf565b6008819055506000610e0e610a6a565b600a610e1a91906125b1565b60085434610e2891906126cf565b610e32919061252d565b9050610e3e8282611d67565b5050565b6000600560009054906101000a900473ffffffffffffffffffffffffffffffffffffffff16905090565b80600960003373ffffffffffffffffffffffffffffffffffffffff1673ffffffffffffffffffffffffffffffffffffffff16815260200190815260200160002054610eb79190612729565b600960003373ffffffffffffffffffffffffffffffffffffffff1673ffffffffffffffffffffffffffffffffffffffff168152602001908152602001600020819055506000600960003373ffffffffffffffffffffffffffffffffffffffff1673ffffffffffffffffffffffffffffffffffffffff168152602001908152602001600020541415610f4c57610f4b3361111e565b5b610f563382611d67565b50565b606060048054610f68906127e5565b80601f0160208091040260200160405190810160405280929190818152602001828054610f94906127e5565b8015610fe15780601f10610fb657610100808354040283529160200191610fe1565b820191906000526020600020905b815481529060010190602001808311610fc457829003601f168201915b5050505050905090565b600080610ff66115ea565b90506000600160008373ffffffffffffffffffffffffffffffffffffffff1673ffffffffffffffffffffffffffffffffffffffff16815260200190815260200160002060008673ffffffffffffffffffffffffffffffffffffffff1673ffffffffffffffffffffffffffffffffffffffff168152602001908152602001600020549050838110156110bc576040517f08c379a00000000000000000000000000000000000000000000000000000000081526004016110b390612445565b60405180910390fd5b6110c982868684036115f2565b60019250505092915050565b6000806110e06115ea565b90506110ed818585611a20565b600191505092915050565b600660009054906101000a900473ffffffffffffffffffffffffffffffffffffffff1681565b60008061112a8361143e565b91509150811561122857600a6001600a805490506111489190612729565b81548110611159576111586128d3565b5b9060005260206000200160009054906101000a900473ffffffffffffffffffffffffffffffffffffffff16600a8281548110611198576111976128d3565b5b9060005260206000200160006101000a81548173ffffffffffffffffffffffffffffffffffffffff021916908373ffffffffffffffffffffffffffffffffffffffff160217905550600a8054806111f2576111f16128a4565b5b6001900381819060005260206000200160006101000a81549073ffffffffffffffffffffffffffffffffffffffff021916905590555b505050565b6000600b60003373ffffffffffffffffffffffffffffffffffffffff1673ffffffffffffffffffffffffffffffffffffffff1681526020019081526020016000205490506000600b60003373ffffffffffffffffffffffffffffffffffffffff1673ffffffffffffffffffffffffffffffffffffffff168152602001908152602001600020819055506112c03382611d67565b50565b60006064600960008473ffffffffffffffffffffffffffffffffffffffff1673ffffffffffffffffffffffffffffffffffffffff16815260200190815260200160002054611311919061252d565b9050919050565b6000600160008473ffffffffffffffffffffffffffffffffffffffff1673ffffffffffffffffffffffffffffffffffffffff16815260200190815260200160002060008373ffffffffffffffffffffffffffffffffffffffff1673ffffffffffffffffffffffffffffffffffffffff16815260200190815260200160002054905092915050565b60008062093a8090506000429050600082826113bb91906124d7565b905050505090565b60006113ce8261143e565b5090508061143a57600a829080600181540180825580915050600190039060005260206000200160009091909190916101000a81548173ffffffffffffffffffffffffffffffffffffffff021916908373ffffffffffffffffffffffffffffffffffffffff1602179055505b5050565b60008060005b600a805490508110156114e457600a8181548110611465576114646128d3565b5b9060005260206000200160009054906101000a900473ffffffffffffffffffffffffffffffffffffffff1673ffffffffffffffffffffffffffffffffffffffff168473ffffffffffffffffffffffffffffffffffffffff1614156114d05760018192509250506114ed565b6001816114dd91906124d7565b9050611444565b50600080915091505b915091565b6114fa6115ea565b73ffffffffffffffffffffffffffffffffffffffff16611518610e42565b73ffffffffffffffffffffffffffffffffffffffff161461156e576040517f08c379a0000000000000000000000000000000000000000000000000000000008152600401611565906123c5565b60405180910390fd5b600073ffffffffffffffffffffffffffffffffffffffff168173ffffffffffffffffffffffffffffffffffffffff1614156115de576040517f08c379a00000000000000000000000000000000000000000000000000000000081526004016115d590612345565b60405180910390fd5b6115e781611ca1565b50565b600033905090565b600073ffffffffffffffffffffffffffffffffffffffff168373ffffffffffffffffffffffffffffffffffffffff161415611662576040517f08c379a000000000000000000000000000000000000000000000000000000000815260040161165990612425565b60405180910390fd5b600073ffffffffffffffffffffffffffffffffffffffff168273ffffffffffffffffffffffffffffffffffffffff1614156116d2576040517f08c379a00000000000000000000000000000000000000000000000000000000081526004016116c990612365565b60405180910390fd5b80600160008573ffffffffffffffffffffffffffffffffffffffff1673ffffffffffffffffffffffffffffffffffffffff16815260200190815260200160002060008473ffffffffffffffffffffffffffffffffffffffff1673ffffffffffffffffffffffffffffffffffffffff168152602001908152602001600020819055508173ffffffffffffffffffffffffffffffffffffffff168373ffffffffffffffffffffffffffffffffffffffff167f8c5be1e5ebec7d5bd14f71427d1e84f3dd0314c0f7b2291e5b200ac8c7c3b925836040516117b09190612485565b60405180910390a3505050565b600073ffffffffffffffffffffffffffffffffffffffff168273ffffffffffffffffffffffffffffffffffffffff16141561182d576040517f08c379a0000000000000000000000000000000000000000000000000000000008152600401611824906123e5565b60405180910390fd5b61183982600083611ec7565b60008060008473ffffffffffffffffffffffffffffffffffffffff1673ffffffffffffffffffffffffffffffffffffffff168152602001908152602001600020549050818110156118bf576040517f08c379a00000000000000000000000000000000000000000000000000000000081526004016118b690612325565b60405180910390fd5b8181036000808573ffffffffffffffffffffffffffffffffffffffff1673ffffffffffffffffffffffffffffffffffffffff1681526020019081526020016000208190555081600260008282546119169190612729565b92505081905550600073ffffffffffffffffffffffffffffffffffffffff168373ffffffffffffffffffffffffffffffffffffffff167fddf252ad1be2c89b69c2b068fc378daa952ba7f163c4a11628f55a4df523b3ef8460405161197b9190612485565b60405180910390a361198f83600084611ecc565b505050565b60006119a08484611318565b90507fffffffffffffffffffffffffffffffffffffffffffffffffffffffffffffffff8114611a1a5781811015611a0c576040517f08c379a0000000000000000000000000000000000000000000000000000000008152600401611a0390612385565b60405180910390fd5b611a1984848484036115f2565b5b50505050565b600073ffffffffffffffffffffffffffffffffffffffff168373ffffffffffffffffffffffffffffffffffffffff161415611a90576040517f08c379a0000000000000000000000000000000000000000000000000000000008152600401611a8790612405565b60405180910390fd5b600073ffffffffffffffffffffffffffffffffffffffff168273ffffffffffffffffffffffffffffffffffffffff161415611b00576040517f08c379a0000000000000000000000000000000000000000000000000000000008152600401611af790612305565b60405180910390fd5b611b0b838383611ec7565b60008060008573ffffffffffffffffffffffffffffffffffffffff1673ffffffffffffffffffffffffffffffffffffffff16815260200190815260200160002054905081811015611b91576040517f08c379a0000000000000000000000000000000000000000000000000000000008152600401611b88906123a5565b60405180910390fd5b8181036000808673ffffffffffffffffffffffffffffffffffffffff1673ffffffffffffffffffffffffffffffffffffffff16815260200190815260200160002081905550816000808573ffffffffffffffffffffffffffffffffffffffff1673ffffffffffffffffffffffffffffffffffffffff1681526020019081526020016000206000828254611c2491906124d7565b925050819055508273ffffffffffffffffffffffffffffffffffffffff168473ffffffffffffffffffffffffffffffffffffffff167fddf252ad1be2c89b69c2b068fc378daa952ba7f163c4a11628f55a4df523b3ef84604051611c889190612485565b60405180910390a3611c9b848484611ecc565b50505050565b6000600560009054906101000a900473ffffffffffffffffffffffffffffffffffffffff16905081600560006101000a81548173ffffffffffffffffffffffffffffffffffffffff021916908373ffffffffffffffffffffffffffffffffffffffff1602179055508173ffffffffffffffffffffffffffffffffffffffff168173ffffffffffffffffffffffffffffffffffffffff167f8be0079c531659141344cd1fd0a4f28419497f9722a3daafe3b4186f6b6457e060405160405180910390a35050565b600073ffffffffffffffffffffffffffffffffffffffff168273ffffffffffffffffffffffffffffffffffffffff161415611dd7576040517f08c379a0000000000000000000000000000000000000000000000000000000008152600401611dce90612465565b60405180910390fd5b611de360008383611ec7565b8060026000828254611df591906124d7565b92505081905550806000808473ffffffffffffffffffffffffffffffffffffffff1673ffffffffffffffffffffffffffffffffffffffff1681526020019081526020016000206000828254611e4a91906124d7565b925050819055508173ffffffffffffffffffffffffffffffffffffffff16600073ffffffffffffffffffffffffffffffffffffffff167fddf252ad1be2c89b69c2b068fc378daa952ba7f163c4a11628f55a4df523b3ef83604051611eaf9190612485565b60405180910390a3611ec360008383611ecc565b5050565b505050565b505050565b600081359050611ee081612cb6565b92915050565b600081359050611ef581612ccd565b92915050565b600060208284031215611f1157611f10612902565b5b6000611f1f84828501611ed1565b91505092915050565b60008060408385031215611f3f57611f3e612902565b5b6000611f4d85828601611ed1565b9250506020611f5e85828601611ed1565b9150509250929050565b600080600060608486031215611f8157611f80612902565b5b6000611f8f86828701611ed1565b9350506020611fa086828701611ed1565b9250506040611fb186828701611ee6565b9150509250925092565b60008060408385031215611fd257611fd1612902565b5b6000611fe085828601611ed1565b9250506020611ff185828601611ee6565b9150509250929050565b60006020828403121561201157612010612902565b5b600061201f84828501611ee6565b91505092915050565b6120318161275d565b82525050565b6120408161276f565b82525050565b6000612051826124bb565b61205b81856124c6565b935061206b8185602086016127b2565b61207481612907565b840191505092915050565b600061208c602d836124c6565b915061209782612925565b604082019050919050565b60006120af6023836124c6565b91506120ba82612974565b604082019050919050565b60006120d26022836124c6565b91506120dd826129c3565b604082019050919050565b60006120f56026836124c6565b915061210082612a12565b604082019050919050565b60006121186022836124c6565b915061212382612a61565b604082019050919050565b600061213b601d836124c6565b915061214682612ab0565b602082019050919050565b600061215e6026836124c6565b915061216982612ad9565b604082019050919050565b60006121816020836124c6565b915061218c82612b28565b602082019050919050565b60006121a46021836124c6565b91506121af82612b51565b604082019050919050565b60006121c76025836124c6565b91506121d282612ba0565b604082019050919050565b60006121ea6024836124c6565b91506121f582612bef565b604082019050919050565b600061220d6025836124c6565b915061221882612c3e565b604082019050919050565b6000612230601f836124c6565b915061223b82612c8d565b602082019050919050565b61224f8161279b565b82525050565b61225e816127a5565b82525050565b60006020820190506122796000830184612028565b92915050565b60006020820190506122946000830184612037565b92915050565b60006040820190506122af6000830185612037565b6122bc6020830184612246565b9392505050565b600060208201905081810360008301526122dd8184612046565b905092915050565b600060208201905081810360008301526122fe8161207f565b9050919050565b6000602082019050818103600083015261231e816120a2565b9050919050565b6000602082019050818103600083015261233e816120c5565b9050919050565b6000602082019050818103600083015261235e816120e8565b9050919050565b6000602082019050818103600083015261237e8161210b565b9050919050565b6000602082019050818103600083015261239e8161212e565b9050919050565b600060208201905081810360008301526123be81612151565b9050919050565b600060208201905081810360008301526123de81612174565b9050919050565b600060208201905081810360008301526123fe81612197565b9050919050565b6000602082019050818103600083015261241e816121ba565b9050919050565b6000602082019050818103600083015261243e816121dd565b9050919050565b6000602082019050818103600083015261245e81612200565b9050919050565b6000602082019050818103600083015261247e81612223565b9050919050565b600060208201905061249a6000830184612246565b92915050565b60006020820190506124b56000830184612255565b92915050565b600081519050919050565b600082825260208201905092915050565b60006124e28261279b565b91506124ed8361279b565b9250827fffffffffffffffffffffffffffffffffffffffffffffffffffffffffffffffff0382111561252257612521612817565b5b828201905092915050565b60006125388261279b565b91506125438361279b565b92508261255357612552612846565b5b828204905092915050565b6000808291508390505b60018511156125a85780860481111561258457612583612817565b5b60018516156125935780820291505b80810290506125a185612918565b9450612568565b94509492505050565b60006125bc8261279b565b91506125c7836127a5565b92506125f47fffffffffffffffffffffffffffffffffffffffffffffffffffffffffffffffff84846125fc565b905092915050565b60008261260c57600190506126c8565b8161261a57600090506126c8565b8160018114612630576002811461263a57612669565b60019150506126c8565b60ff84111561264c5761264b612817565b5b8360020a91508482111561266357612662612817565b5b506126c8565b5060208310610133831016604e8410600b841016171561269e5782820a90508381111561269957612698612817565b5b6126c8565b6126ab848484600161255e565b925090508184048111156126c2576126c1612817565b5b81810290505b9392505050565b60006126da8261279b565b91506126e58361279b565b9250817fffffffffffffffffffffffffffffffffffffffffffffffffffffffffffffffff048311821515161561271e5761271d612817565b5b828202905092915050565b60006127348261279b565b915061273f8361279b565b92508282101561275257612751612817565b5b828203905092915050565b60006127688261277b565b9050919050565b60008115159050919050565b600073ffffffffffffffffffffffffffffffffffffffff82169050919050565b6000819050919050565b600060ff82169050919050565b60005b838110156127d05780820151818401526020810190506127b5565b838111156127df576000848401525b50505050565b600060028204905060018216806127fd57607f821691505b6020821081141561281157612810612875565b5b50919050565b7f4e487b7100000000000000000000000000000000000000000000000000000000600052601160045260246000fd5b7f4e487b7100000000000000000000000000000000000000000000000000000000600052601260045260246000fd5b7f4e487b7100000000000000000000000000000000000000000000000000000000600052602260045260246000fd5b7f4e487b7100000000000000000000000000000000000000000000000000000000600052603160045260246000fd5b7f4e487b7100000000000000000000000000000000000000000000000000000000600052603260045260246000fd5b600080fd5b6000601f19601f8301169050919050565b60008160011c9050919050565b7f4f6e6c7920746865204f776e65722063616e207365742074686520707269636560008201527f206f662074686520746f6b656e00000000000000000000000000000000000000602082015250565b7f45524332303a207472616e7366657220746f20746865207a65726f206164647260008201527f6573730000000000000000000000000000000000000000000000000000000000602082015250565b7f45524332303a206275726e20616d6f756e7420657863656564732062616c616e60008201527f6365000000000000000000000000000000000000000000000000000000000000602082015250565b7f4f776e61626c653a206e6577206f776e657220697320746865207a65726f206160008201527f6464726573730000000000000000000000000000000000000000000000000000602082015250565b7f45524332303a20617070726f766520746f20746865207a65726f20616464726560008201527f7373000000000000000000000000000000000000000000000000000000000000602082015250565b7f45524332303a20696e73756666696369656e7420616c6c6f77616e6365000000600082015250565b7f45524332303a207472616e7366657220616d6f756e742065786365656473206260008201527f616c616e63650000000000000000000000000000000000000000000000000000602082015250565b7f4f776e61626c653a2063616c6c6572206973206e6f7420746865206f776e6572600082015250565b7f45524332303a206275726e2066726f6d20746865207a65726f2061646472657360008201527f7300000000000000000000000000000000000000000000000000000000000000602082015250565b7f45524332303a207472616e736665722066726f6d20746865207a65726f20616460008201527f6472657373000000000000000000000000000000000000000000000000000000602082015250565b7f45524332303a20617070726f76652066726f6d20746865207a65726f2061646460008201527f7265737300000000000000000000000000000000000000000000000000000000602082015250565b7f45524332303a2064656372656173656420616c6c6f77616e63652062656c6f7760008201527f207a65726f000000000000000000000000000000000000000000000000000000602082015250565b7f45524332303a206d696e7420746f20746865207a65726f206164647265737300600082015250565b612cbf8161275d565b8114612cca57600080fd5b50565b612cd68161279b565b8114612ce157600080fd5b5056fea2646970667358221220bea34b8bcce76731eb63fcc3f0141b58a3b98c4bf0287dd28422d13c29a8d22664736f6c63430008070033",
					"opcodes": "PUSH1 0x80 PUSH1 0x40 MSTORE CALLVALUE DUP1 ISZERO PUSH3 0x11 JUMPI PUSH1 0x0 DUP1 REVERT JUMPDEST POP PUSH1 0x40 MLOAD DUP1 PUSH1 0x40 ADD PUSH1 0x40 MSTORE DUP1 PUSH1 0xA DUP2 MSTORE PUSH1 0x20 ADD PUSH32 0x5A656E79615374616B6500000000000000000000000000000000000000000000 DUP2 MSTORE POP PUSH1 0x40 MLOAD DUP1 PUSH1 0x40 ADD PUSH1 0x40 MSTORE DUP1 PUSH1 0x4 DUP2 MSTORE PUSH1 0x20 ADD PUSH32 0x5A4E595300000000000000000000000000000000000000000000000000000000 DUP2 MSTORE POP DUP2 PUSH1 0x3 SWAP1 DUP1 MLOAD SWAP1 PUSH1 0x20 ADD SWAP1 PUSH3 0x96 SWAP3 SWAP2 SWAP1 PUSH3 0x370 JUMP JUMPDEST POP DUP1 PUSH1 0x4 SWAP1 DUP1 MLOAD SWAP1 PUSH1 0x20 ADD SWAP1 PUSH3 0xAF SWAP3 SWAP2 SWAP1 PUSH3 0x370 JUMP JUMPDEST POP POP POP PUSH3 0xD2 PUSH3 0xC6 PUSH3 0x116 PUSH1 0x20 SHL PUSH1 0x20 SHR JUMP JUMPDEST PUSH3 0x11E PUSH1 0x20 SHL PUSH1 0x20 SHR JUMP JUMPDEST PUSH3 0x110 CALLER PUSH3 0xE7 PUSH3 0x1E4 PUSH1 0x20 SHL PUSH1 0x20 SHR JUMP JUMPDEST PUSH1 0xA PUSH3 0xF5 SWAP2 SWAP1 PUSH3 0x560 JUMP JUMPDEST PUSH2 0x3E8 PUSH3 0x104 SWAP2 SWAP1 PUSH3 0x69D JUMP JUMPDEST PUSH3 0x1ED PUSH1 0x20 SHL PUSH1 0x20 SHR JUMP JUMPDEST PUSH3 0x7DF JUMP JUMPDEST PUSH1 0x0 CALLER SWAP1 POP SWAP1 JUMP JUMPDEST PUSH1 0x0 PUSH1 0x5 PUSH1 0x0 SWAP1 SLOAD SWAP1 PUSH2 0x100 EXP SWAP1 DIV PUSH20 0xFFFFFFFFFFFFFFFFFFFFFFFFFFFFFFFFFFFFFFFF AND SWAP1 POP DUP2 PUSH1 0x5 PUSH1 0x0 PUSH2 0x100 EXP DUP2 SLOAD DUP2 PUSH20 0xFFFFFFFFFFFFFFFFFFFFFFFFFFFFFFFFFFFFFFFF MUL NOT AND SWAP1 DUP4 PUSH20 0xFFFFFFFFFFFFFFFFFFFFFFFFFFFFFFFFFFFFFFFF AND MUL OR SWAP1 SSTORE POP DUP2 PUSH20 0xFFFFFFFFFFFFFFFFFFFFFFFFFFFFFFFFFFFFFFFF AND DUP2 PUSH20 0xFFFFFFFFFFFFFFFFFFFFFFFFFFFFFFFFFFFFFFFF AND PUSH32 0x8BE0079C531659141344CD1FD0A4F28419497F9722A3DAAFE3B4186F6B6457E0 PUSH1 0x40 MLOAD PUSH1 0x40 MLOAD DUP1 SWAP2 SUB SWAP1 LOG3 POP POP JUMP JUMPDEST PUSH1 0x0 PUSH1 0x12 SWAP1 POP SWAP1 JUMP JUMPDEST PUSH1 0x0 PUSH20 0xFFFFFFFFFFFFFFFFFFFFFFFFFFFFFFFFFFFFFFFF AND DUP3 PUSH20 0xFFFFFFFFFFFFFFFFFFFFFFFFFFFFFFFFFFFFFFFF AND EQ ISZERO PUSH3 0x260 JUMPI PUSH1 0x40 MLOAD PUSH32 0x8C379A000000000000000000000000000000000000000000000000000000000 DUP2 MSTORE PUSH1 0x4 ADD PUSH3 0x257 SWAP1 PUSH3 0x458 JUMP JUMPDEST PUSH1 0x40 MLOAD DUP1 SWAP2 SUB SWAP1 REVERT JUMPDEST PUSH3 0x274 PUSH1 0x0 DUP4 DUP4 PUSH3 0x366 PUSH1 0x20 SHL PUSH1 0x20 SHR JUMP JUMPDEST DUP1 PUSH1 0x2 PUSH1 0x0 DUP3 DUP3 SLOAD PUSH3 0x288 SWAP2 SWAP1 PUSH3 0x4A8 JUMP JUMPDEST SWAP3 POP POP DUP2 SWAP1 SSTORE POP DUP1 PUSH1 0x0 DUP1 DUP5 PUSH20 0xFFFFFFFFFFFFFFFFFFFFFFFFFFFFFFFFFFFFFFFF AND PUSH20 0xFFFFFFFFFFFFFFFFFFFFFFFFFFFFFFFFFFFFFFFF AND DUP2 MSTORE PUSH1 0x20 ADD SWAP1 DUP2 MSTORE PUSH1 0x20 ADD PUSH1 0x0 KECCAK256 PUSH1 0x0 DUP3 DUP3 SLOAD PUSH3 0x2DF SWAP2 SWAP1 PUSH3 0x4A8 JUMP JUMPDEST SWAP3 POP POP DUP2 SWAP1 SSTORE POP DUP2 PUSH20 0xFFFFFFFFFFFFFFFFFFFFFFFFFFFFFFFFFFFFFFFF AND PUSH1 0x0 PUSH20 0xFFFFFFFFFFFFFFFFFFFFFFFFFFFFFFFFFFFFFFFF AND PUSH32 0xDDF252AD1BE2C89B69C2B068FC378DAA952BA7F163C4A11628F55A4DF523B3EF DUP4 PUSH1 0x40 MLOAD PUSH3 0x346 SWAP2 SWAP1 PUSH3 0x47A JUMP JUMPDEST PUSH1 0x40 MLOAD DUP1 SWAP2 SUB SWAP1 LOG3 PUSH3 0x362 PUSH1 0x0 DUP4 DUP4 PUSH3 0x36B PUSH1 0x20 SHL PUSH1 0x20 SHR JUMP JUMPDEST POP POP JUMP JUMPDEST POP POP POP JUMP JUMPDEST POP POP POP JUMP JUMPDEST DUP3 DUP1 SLOAD PUSH3 0x37E SWAP1 PUSH3 0x715 JUMP JUMPDEST SWAP1 PUSH1 0x0 MSTORE PUSH1 0x20 PUSH1 0x0 KECCAK256 SWAP1 PUSH1 0x1F ADD PUSH1 0x20 SWAP1 DIV DUP2 ADD SWAP3 DUP3 PUSH3 0x3A2 JUMPI PUSH1 0x0 DUP6 SSTORE PUSH3 0x3EE JUMP JUMPDEST DUP3 PUSH1 0x1F LT PUSH3 0x3BD JUMPI DUP1 MLOAD PUSH1 0xFF NOT AND DUP4 DUP1 ADD OR DUP6 SSTORE PUSH3 0x3EE JUMP JUMPDEST DUP3 DUP1 ADD PUSH1 0x1 ADD DUP6 SSTORE DUP3 ISZERO PUSH3 0x3EE JUMPI SWAP2 DUP3 ADD JUMPDEST DUP3 DUP2 GT ISZERO PUSH3 0x3ED JUMPI DUP3 MLOAD DUP3 SSTORE SWAP2 PUSH1 0x20 ADD SWAP2 SWAP1 PUSH1 0x1 ADD SWAP1 PUSH3 0x3D0 JUMP JUMPDEST JUMPDEST POP SWAP1 POP PUSH3 0x3FD SWAP2 SWAP1 PUSH3 0x401 JUMP JUMPDEST POP SWAP1 JUMP JUMPDEST JUMPDEST DUP1 DUP3 GT ISZERO PUSH3 0x41C JUMPI PUSH1 0x0 DUP2 PUSH1 0x0 SWAP1 SSTORE POP PUSH1 0x1 ADD PUSH3 0x402 JUMP JUMPDEST POP SWAP1 JUMP JUMPDEST PUSH1 0x0 PUSH3 0x42F PUSH1 0x1F DUP4 PUSH3 0x497 JUMP JUMPDEST SWAP2 POP PUSH3 0x43C DUP3 PUSH3 0x7B6 JUMP JUMPDEST PUSH1 0x20 DUP3 ADD SWAP1 POP SWAP2 SWAP1 POP JUMP JUMPDEST PUSH3 0x452 DUP2 PUSH3 0x6FE JUMP JUMPDEST DUP3 MSTORE POP POP JUMP JUMPDEST PUSH1 0x0 PUSH1 0x20 DUP3 ADD SWAP1 POP DUP2 DUP2 SUB PUSH1 0x0 DUP4 ADD MSTORE PUSH3 0x473 DUP2 PUSH3 0x420 JUMP JUMPDEST SWAP1 POP SWAP2 SWAP1 POP JUMP JUMPDEST PUSH1 0x0 PUSH1 0x20 DUP3 ADD SWAP1 POP PUSH3 0x491 PUSH1 0x0 DUP4 ADD DUP5 PUSH3 0x447 JUMP JUMPDEST SWAP3 SWAP2 POP POP JUMP JUMPDEST PUSH1 0x0 DUP3 DUP3 MSTORE PUSH1 0x20 DUP3 ADD SWAP1 POP SWAP3 SWAP2 POP POP JUMP JUMPDEST PUSH1 0x0 PUSH3 0x4B5 DUP3 PUSH3 0x6FE JUMP JUMPDEST SWAP2 POP PUSH3 0x4C2 DUP4 PUSH3 0x6FE JUMP JUMPDEST SWAP3 POP DUP3 PUSH32 0xFFFFFFFFFFFFFFFFFFFFFFFFFFFFFFFFFFFFFFFFFFFFFFFFFFFFFFFFFFFFFFFF SUB DUP3 GT ISZERO PUSH3 0x4FA JUMPI PUSH3 0x4F9 PUSH3 0x74B JUMP JUMPDEST JUMPDEST DUP3 DUP3 ADD SWAP1 POP SWAP3 SWAP2 POP POP JUMP JUMPDEST PUSH1 0x0 DUP1 DUP3 SWAP2 POP DUP4 SWAP1 POP JUMPDEST PUSH1 0x1 DUP6 GT ISZERO PUSH3 0x557 JUMPI DUP1 DUP7 DIV DUP2 GT ISZERO PUSH3 0x52F JUMPI PUSH3 0x52E PUSH3 0x74B JUMP JUMPDEST JUMPDEST PUSH1 0x1 DUP6 AND ISZERO PUSH3 0x53F JUMPI DUP1 DUP3 MUL SWAP2 POP JUMPDEST DUP1 DUP2 MUL SWAP1 POP PUSH3 0x54F DUP6 PUSH3 0x7A9 JUMP JUMPDEST SWAP5 POP PUSH3 0x50F JUMP JUMPDEST SWAP5 POP SWAP5 SWAP3 POP POP POP JUMP JUMPDEST PUSH1 0x0 PUSH3 0x56D DUP3 PUSH3 0x6FE JUMP JUMPDEST SWAP2 POP PUSH3 0x57A DUP4 PUSH3 0x708 JUMP JUMPDEST SWAP3 POP PUSH3 0x5A9 PUSH32 0xFFFFFFFFFFFFFFFFFFFFFFFFFFFFFFFFFFFFFFFFFFFFFFFFFFFFFFFFFFFFFFFF DUP5 DUP5 PUSH3 0x5B1 JUMP JUMPDEST SWAP1 POP SWAP3 SWAP2 POP POP JUMP JUMPDEST PUSH1 0x0 DUP3 PUSH3 0x5C3 JUMPI PUSH1 0x1 SWAP1 POP PUSH3 0x696 JUMP JUMPDEST DUP2 PUSH3 0x5D3 JUMPI PUSH1 0x0 SWAP1 POP PUSH3 0x696 JUMP JUMPDEST DUP2 PUSH1 0x1 DUP2 EQ PUSH3 0x5EC JUMPI PUSH1 0x2 DUP2 EQ PUSH3 0x5F7 JUMPI PUSH3 0x62D JUMP JUMPDEST PUSH1 0x1 SWAP2 POP POP PUSH3 0x696 JUMP JUMPDEST PUSH1 0xFF DUP5 GT ISZERO PUSH3 0x60C JUMPI PUSH3 0x60B PUSH3 0x74B JUMP JUMPDEST JUMPDEST DUP4 PUSH1 0x2 EXP SWAP2 POP DUP5 DUP3 GT ISZERO PUSH3 0x626 JUMPI PUSH3 0x625 PUSH3 0x74B JUMP JUMPDEST JUMPDEST POP PUSH3 0x696 JUMP JUMPDEST POP PUSH1 0x20 DUP4 LT PUSH2 0x133 DUP4 LT AND PUSH1 0x4E DUP5 LT PUSH1 0xB DUP5 LT AND OR ISZERO PUSH3 0x667 JUMPI DUP3 DUP3 EXP SWAP1 POP DUP4 DUP2 GT ISZERO PUSH3 0x661 JUMPI PUSH3 0x660 PUSH3 0x74B JUMP JUMPDEST JUMPDEST PUSH3 0x696 JUMP JUMPDEST PUSH3 0x676 DUP5 DUP5 DUP5 PUSH1 0x1 PUSH3 0x505 JUMP JUMPDEST SWAP3 POP SWAP1 POP DUP2 DUP5 DIV DUP2 GT ISZERO PUSH3 0x690 JUMPI PUSH3 0x68F PUSH3 0x74B JUMP JUMPDEST JUMPDEST DUP2 DUP2 MUL SWAP1 POP JUMPDEST SWAP4 SWAP3 POP POP POP JUMP JUMPDEST PUSH1 0x0 PUSH3 0x6AA DUP3 PUSH3 0x6FE JUMP JUMPDEST SWAP2 POP PUSH3 0x6B7 DUP4 PUSH3 0x6FE JUMP JUMPDEST SWAP3 POP DUP2 PUSH32 0xFFFFFFFFFFFFFFFFFFFFFFFFFFFFFFFFFFFFFFFFFFFFFFFFFFFFFFFFFFFFFFFF DIV DUP4 GT DUP3 ISZERO ISZERO AND ISZERO PUSH3 0x6F3 JUMPI PUSH3 0x6F2 PUSH3 0x74B JUMP JUMPDEST JUMPDEST DUP3 DUP3 MUL SWAP1 POP SWAP3 SWAP2 POP POP JUMP JUMPDEST PUSH1 0x0 DUP2 SWAP1 POP SWAP2 SWAP1 POP JUMP JUMPDEST PUSH1 0x0 PUSH1 0xFF DUP3 AND SWAP1 POP SWAP2 SWAP1 POP JUMP JUMPDEST PUSH1 0x0 PUSH1 0x2 DUP3 DIV SWAP1 POP PUSH1 0x1 DUP3 AND DUP1 PUSH3 0x72E JUMPI PUSH1 0x7F DUP3 AND SWAP2 POP JUMPDEST PUSH1 0x20 DUP3 LT DUP2 EQ ISZERO PUSH3 0x745 JUMPI PUSH3 0x744 PUSH3 0x77A JUMP JUMPDEST JUMPDEST POP SWAP2 SWAP1 POP JUMP JUMPDEST PUSH32 0x4E487B7100000000000000000000000000000000000000000000000000000000 PUSH1 0x0 MSTORE PUSH1 0x11 PUSH1 0x4 MSTORE PUSH1 0x24 PUSH1 0x0 REVERT JUMPDEST PUSH32 0x4E487B7100000000000000000000000000000000000000000000000000000000 PUSH1 0x0 MSTORE PUSH1 0x22 PUSH1 0x4 MSTORE PUSH1 0x24 PUSH1 0x0 REVERT JUMPDEST PUSH1 0x0 DUP2 PUSH1 0x1 SHR SWAP1 POP SWAP2 SWAP1 POP JUMP JUMPDEST PUSH32 0x45524332303A206D696E7420746F20746865207A65726F206164647265737300 PUSH1 0x0 DUP3 ADD MSTORE POP JUMP JUMPDEST PUSH2 0x2D1A DUP1 PUSH3 0x7EF PUSH1 0x0 CODECOPY PUSH1 0x0 RETURN INVALID PUSH1 0x80 PUSH1 0x40 MSTORE PUSH1 0x4 CALLDATASIZE LT PUSH2 0x1D8 JUMPI PUSH1 0x0 CALLDATALOAD PUSH1 0xE0 SHR DUP1 PUSH4 0x715018A6 GT PUSH2 0x102 JUMPI DUP1 PUSH4 0xBCB0C2D7 GT PUSH2 0x95 JUMPI DUP1 PUSH4 0xE0C6190D GT PUSH2 0x64 JUMPI DUP1 PUSH4 0xE0C6190D EQ PUSH2 0x6C7 JUMPI DUP1 PUSH4 0xE5C42FD1 EQ PUSH2 0x6F2 JUMPI DUP1 PUSH4 0xEF037B90 EQ PUSH2 0x71B JUMPI DUP1 PUSH4 0xF2FDE38B EQ PUSH2 0x759 JUMPI PUSH2 0x1D8 JUMP JUMPDEST DUP1 PUSH4 0xBCB0C2D7 EQ PUSH2 0x60D JUMPI DUP1 PUSH4 0xC885BC58 EQ PUSH2 0x636 JUMPI DUP1 PUSH4 0xD82E3962 EQ PUSH2 0x64D JUMPI DUP1 PUSH4 0xDD62ED3E EQ PUSH2 0x68A JUMPI PUSH2 0x1D8 JUMP JUMPDEST DUP1 PUSH4 0x95D89B41 GT PUSH2 0xD1 JUMPI DUP1 PUSH4 0x95D89B41 EQ PUSH2 0x53D JUMPI DUP1 PUSH4 0xA457C2D7 EQ PUSH2 0x568 JUMPI DUP1 PUSH4 0xA9059CBB EQ PUSH2 0x5A5 JUMPI DUP1 PUSH4 0xB2BDFA7B EQ PUSH2 0x5E2 JUMPI PUSH2 0x1D8 JUMP JUMPDEST DUP1 PUSH4 0x715018A6 EQ PUSH2 0x4B6 JUMPI DUP1 PUSH4 0x7E72FB52 EQ PUSH2 0x4CD JUMPI DUP1 PUSH4 0x8DA5CB5B EQ PUSH2 0x4E9 JUMPI DUP1 PUSH4 0x939624AB EQ PUSH2 0x514 JUMPI PUSH2 0x1D8 JUMP JUMPDEST DUP1 PUSH4 0x23B872DD GT PUSH2 0x17A JUMPI DUP1 PUSH4 0x42623360 GT PUSH2 0x149 JUMPI DUP1 PUSH4 0x42623360 EQ PUSH2 0x3FC JUMPI DUP1 PUSH4 0x4BE21E33 EQ PUSH2 0x439 JUMPI DUP1 PUSH4 0x6F4A2CD0 EQ PUSH2 0x462 JUMPI DUP1 PUSH4 0x70A08231 EQ PUSH2 0x479 JUMPI PUSH2 0x1D8 JUMP JUMPDEST DUP1 PUSH4 0x23B872DD EQ PUSH2 0x32C JUMPI DUP1 PUSH4 0x313CE567 EQ PUSH2 0x369 JUMPI DUP1 PUSH4 0x35789C8B EQ PUSH2 0x394 JUMPI DUP1 PUSH4 0x39509351 EQ PUSH2 0x3BF JUMPI PUSH2 0x1D8 JUMP JUMPDEST DUP1 PUSH4 0xE15561A GT PUSH2 0x1B6 JUMPI DUP1 PUSH4 0xE15561A EQ PUSH2 0x270 JUMPI DUP1 PUSH4 0x18160DDD EQ PUSH2 0x29B JUMPI DUP1 PUSH4 0x1BF6DDAE EQ PUSH2 0x2C6 JUMPI DUP1 PUSH4 0x1D62EBD9 EQ PUSH2 0x2EF JUMPI PUSH2 0x1D8 JUMP JUMPDEST DUP1 PUSH4 0x46E2EDB EQ PUSH2 0x1DD JUMPI DUP1 PUSH4 0x6FDDE03 EQ PUSH2 0x208 JUMPI DUP1 PUSH4 0x95EA7B3 EQ PUSH2 0x233 JUMPI JUMPDEST PUSH1 0x0 DUP1 REVERT JUMPDEST CALLVALUE DUP1 ISZERO PUSH2 0x1E9 JUMPI PUSH1 0x0 DUP1 REVERT JUMPDEST POP PUSH2 0x1F2 PUSH2 0x782 JUMP JUMPDEST PUSH1 0x40 MLOAD PUSH2 0x1FF SWAP2 SWAP1 PUSH2 0x2485 JUMP JUMPDEST PUSH1 0x40 MLOAD DUP1 SWAP2 SUB SWAP1 RETURN JUMPDEST CALLVALUE DUP1 ISZERO PUSH2 0x214 JUMPI PUSH1 0x0 DUP1 REVERT JUMPDEST POP PUSH2 0x21D PUSH2 0x788 JUMP JUMPDEST PUSH1 0x40 MLOAD PUSH2 0x22A SWAP2 SWAP1 PUSH2 0x22C3 JUMP JUMPDEST PUSH1 0x40 MLOAD DUP1 SWAP2 SUB SWAP1 RETURN JUMPDEST CALLVALUE DUP1 ISZERO PUSH2 0x23F JUMPI PUSH1 0x0 DUP1 REVERT JUMPDEST POP PUSH2 0x25A PUSH1 0x4 DUP1 CALLDATASIZE SUB DUP2 ADD SWAP1 PUSH2 0x255 SWAP2 SWAP1 PUSH2 0x1FBB JUMP JUMPDEST PUSH2 0x81A JUMP JUMPDEST PUSH1 0x40 MLOAD PUSH2 0x267 SWAP2 SWAP1 PUSH2 0x227F JUMP JUMPDEST PUSH1 0x40 MLOAD DUP1 SWAP2 SUB SWAP1 RETURN JUMPDEST CALLVALUE DUP1 ISZERO PUSH2 0x27C JUMPI PUSH1 0x0 DUP1 REVERT JUMPDEST POP PUSH2 0x285 PUSH2 0x83D JUMP JUMPDEST PUSH1 0x40 MLOAD PUSH2 0x292 SWAP2 SWAP1 PUSH2 0x2485 JUMP JUMPDEST PUSH1 0x40 MLOAD DUP1 SWAP2 SUB SWAP1 RETURN JUMPDEST CALLVALUE DUP1 ISZERO PUSH2 0x2A7 JUMPI PUSH1 0x0 DUP1 REVERT JUMPDEST POP PUSH2 0x2B0 PUSH2 0x8FB JUMP JUMPDEST PUSH1 0x40 MLOAD PUSH2 0x2BD SWAP2 SWAP1 PUSH2 0x2485 JUMP JUMPDEST PUSH1 0x40 MLOAD DUP1 SWAP2 SUB SWAP1 RETURN JUMPDEST CALLVALUE DUP1 ISZERO PUSH2 0x2D2 JUMPI PUSH1 0x0 DUP1 REVERT JUMPDEST POP PUSH2 0x2ED PUSH1 0x4 DUP1 CALLDATASIZE SUB DUP2 ADD SWAP1 PUSH2 0x2E8 SWAP2 SWAP1 PUSH2 0x1FFB JUMP JUMPDEST PUSH2 0x905 JUMP JUMPDEST STOP JUMPDEST CALLVALUE DUP1 ISZERO PUSH2 0x2FB JUMPI PUSH1 0x0 DUP1 REVERT JUMPDEST POP PUSH2 0x316 PUSH1 0x4 DUP1 CALLDATASIZE SUB DUP2 ADD SWAP1 PUSH2 0x311 SWAP2 SWAP1 PUSH2 0x1EFB JUMP JUMPDEST PUSH2 0x9F2 JUMP JUMPDEST PUSH1 0x40 MLOAD PUSH2 0x323 SWAP2 SWAP1 PUSH2 0x2485 JUMP JUMPDEST PUSH1 0x40 MLOAD DUP1 SWAP2 SUB SWAP1 RETURN JUMPDEST CALLVALUE DUP1 ISZERO PUSH2 0x338 JUMPI PUSH1 0x0 DUP1 REVERT JUMPDEST POP PUSH2 0x353 PUSH1 0x4 DUP1 CALLDATASIZE SUB DUP2 ADD SWAP1 PUSH2 0x34E SWAP2 SWAP1 PUSH2 0x1F68 JUMP JUMPDEST PUSH2 0xA3B JUMP JUMPDEST PUSH1 0x40 MLOAD PUSH2 0x360 SWAP2 SWAP1 PUSH2 0x227F JUMP JUMPDEST PUSH1 0x40 MLOAD DUP1 SWAP2 SUB SWAP1 RETURN JUMPDEST CALLVALUE DUP1 ISZERO PUSH2 0x375 JUMPI PUSH1 0x0 DUP1 REVERT JUMPDEST POP PUSH2 0x37E PUSH2 0xA6A JUMP JUMPDEST PUSH1 0x40 MLOAD PUSH2 0x38B SWAP2 SWAP1 PUSH2 0x24A0 JUMP JUMPDEST PUSH1 0x40 MLOAD DUP1 SWAP2 SUB SWAP1 RETURN JUMPDEST CALLVALUE DUP1 ISZERO PUSH2 0x3A0 JUMPI PUSH1 0x0 DUP1 REVERT JUMPDEST POP PUSH2 0x3A9 PUSH2 0xA73 JUMP JUMPDEST PUSH1 0x40 MLOAD PUSH2 0x3B6 SWAP2 SWAP1 PUSH2 0x2485 JUMP JUMPDEST PUSH1 0x40 MLOAD DUP1 SWAP2 SUB SWAP1 RETURN JUMPDEST CALLVALUE DUP1 ISZERO PUSH2 0x3CB JUMPI PUSH1 0x0 DUP1 REVERT JUMPDEST POP PUSH2 0x3E6 PUSH1 0x4 DUP1 CALLDATASIZE SUB DUP2 ADD SWAP1 PUSH2 0x3E1 SWAP2 SWAP1 PUSH2 0x1FBB JUMP JUMPDEST PUSH2 0xA79 JUMP JUMPDEST PUSH1 0x40 MLOAD PUSH2 0x3F3 SWAP2 SWAP1 PUSH2 0x227F JUMP JUMPDEST PUSH1 0x40 MLOAD DUP1 SWAP2 SUB SWAP1 RETURN JUMPDEST CALLVALUE DUP1 ISZERO PUSH2 0x408 JUMPI PUSH1 0x0 DUP1 REVERT JUMPDEST POP PUSH2 0x423 PUSH1 0x4 DUP1 CALLDATASIZE SUB DUP2 ADD SWAP1 PUSH2 0x41E SWAP2 SWAP1 PUSH2 0x1EFB JUMP JUMPDEST PUSH2 0xB23 JUMP JUMPDEST PUSH1 0x40 MLOAD PUSH2 0x430 SWAP2 SWAP1 PUSH2 0x2485 JUMP JUMPDEST PUSH1 0x40 MLOAD DUP1 SWAP2 SUB SWAP1 RETURN JUMPDEST CALLVALUE DUP1 ISZERO PUSH2 0x445 JUMPI PUSH1 0x0 DUP1 REVERT JUMPDEST POP PUSH2 0x460 PUSH1 0x4 DUP1 CALLDATASIZE SUB DUP2 ADD SWAP1 PUSH2 0x45B SWAP2 SWAP1 PUSH2 0x1FFB JUMP JUMPDEST PUSH2 0xB6C JUMP JUMPDEST STOP JUMPDEST CALLVALUE DUP1 ISZERO PUSH2 0x46E JUMPI PUSH1 0x0 DUP1 REVERT JUMPDEST POP PUSH2 0x477 PUSH2 0xC06 JUMP JUMPDEST STOP JUMPDEST CALLVALUE DUP1 ISZERO PUSH2 0x485 JUMPI PUSH1 0x0 DUP1 REVERT JUMPDEST POP PUSH2 0x4A0 PUSH1 0x4 DUP1 CALLDATASIZE SUB DUP2 ADD SWAP1 PUSH2 0x49B SWAP2 SWAP1 PUSH2 0x1EFB JUMP JUMPDEST PUSH2 0xD0D JUMP JUMPDEST PUSH1 0x40 MLOAD PUSH2 0x4AD SWAP2 SWAP1 PUSH2 0x2485 JUMP JUMPDEST PUSH1 0x40 MLOAD DUP1 SWAP2 SUB SWAP1 RETURN JUMPDEST CALLVALUE DUP1 ISZERO PUSH2 0x4C2 JUMPI PUSH1 0x0 DUP1 REVERT JUMPDEST POP PUSH2 0x4CB PUSH2 0xD55 JUMP JUMPDEST STOP JUMPDEST PUSH2 0x4E7 PUSH1 0x4 DUP1 CALLDATASIZE SUB DUP2 ADD SWAP1 PUSH2 0x4E2 SWAP2 SWAP1 PUSH2 0x1EFB JUMP JUMPDEST PUSH2 0xDDD JUMP JUMPDEST STOP JUMPDEST CALLVALUE DUP1 ISZERO PUSH2 0x4F5 JUMPI PUSH1 0x0 DUP1 REVERT JUMPDEST POP PUSH2 0x4FE PUSH2 0xE42 JUMP JUMPDEST PUSH1 0x40 MLOAD PUSH2 0x50B SWAP2 SWAP1 PUSH2 0x2264 JUMP JUMPDEST PUSH1 0x40 MLOAD DUP1 SWAP2 SUB SWAP1 RETURN JUMPDEST CALLVALUE DUP1 ISZERO PUSH2 0x520 JUMPI PUSH1 0x0 DUP1 REVERT JUMPDEST POP PUSH2 0x53B PUSH1 0x4 DUP1 CALLDATASIZE SUB DUP2 ADD SWAP1 PUSH2 0x536 SWAP2 SWAP1 PUSH2 0x1FFB JUMP JUMPDEST PUSH2 0xE6C JUMP JUMPDEST STOP JUMPDEST CALLVALUE DUP1 ISZERO PUSH2 0x549 JUMPI PUSH1 0x0 DUP1 REVERT JUMPDEST POP PUSH2 0x552 PUSH2 0xF59 JUMP JUMPDEST PUSH1 0x40 MLOAD PUSH2 0x55F SWAP2 SWAP1 PUSH2 0x22C3 JUMP JUMPDEST PUSH1 0x40 MLOAD DUP1 SWAP2 SUB SWAP1 RETURN JUMPDEST CALLVALUE DUP1 ISZERO PUSH2 0x574 JUMPI PUSH1 0x0 DUP1 REVERT JUMPDEST POP PUSH2 0x58F PUSH1 0x4 DUP1 CALLDATASIZE SUB DUP2 ADD SWAP1 PUSH2 0x58A SWAP2 SWAP1 PUSH2 0x1FBB JUMP JUMPDEST PUSH2 0xFEB JUMP JUMPDEST PUSH1 0x40 MLOAD PUSH2 0x59C SWAP2 SWAP1 PUSH2 0x227F JUMP JUMPDEST PUSH1 0x40 MLOAD DUP1 SWAP2 SUB SWAP1 RETURN JUMPDEST CALLVALUE DUP1 ISZERO PUSH2 0x5B1 JUMPI PUSH1 0x0 DUP1 REVERT JUMPDEST POP PUSH2 0x5CC PUSH1 0x4 DUP1 CALLDATASIZE SUB DUP2 ADD SWAP1 PUSH2 0x5C7 SWAP2 SWAP1 PUSH2 0x1FBB JUMP JUMPDEST PUSH2 0x10D5 JUMP JUMPDEST PUSH1 0x40 MLOAD PUSH2 0x5D9 SWAP2 SWAP1 PUSH2 0x227F JUMP JUMPDEST PUSH1 0x40 MLOAD DUP1 SWAP2 SUB SWAP1 RETURN JUMPDEST CALLVALUE DUP1 ISZERO PUSH2 0x5EE JUMPI PUSH1 0x0 DUP1 REVERT JUMPDEST POP PUSH2 0x5F7 PUSH2 0x10F8 JUMP JUMPDEST PUSH1 0x40 MLOAD PUSH2 0x604 SWAP2 SWAP1 PUSH2 0x2264 JUMP JUMPDEST PUSH1 0x40 MLOAD DUP1 SWAP2 SUB SWAP1 RETURN JUMPDEST CALLVALUE DUP1 ISZERO PUSH2 0x619 JUMPI PUSH1 0x0 DUP1 REVERT JUMPDEST POP PUSH2 0x634 PUSH1 0x4 DUP1 CALLDATASIZE SUB DUP2 ADD SWAP1 PUSH2 0x62F SWAP2 SWAP1 PUSH2 0x1EFB JUMP JUMPDEST PUSH2 0x111E JUMP JUMPDEST STOP JUMPDEST CALLVALUE DUP1 ISZERO PUSH2 0x642 JUMPI PUSH1 0x0 DUP1 REVERT JUMPDEST POP PUSH2 0x64B PUSH2 0x122D JUMP JUMPDEST STOP JUMPDEST CALLVALUE DUP1 ISZERO PUSH2 0x659 JUMPI PUSH1 0x0 DUP1 REVERT JUMPDEST POP PUSH2 0x674 PUSH1 0x4 DUP1 CALLDATASIZE SUB DUP2 ADD SWAP1 PUSH2 0x66F SWAP2 SWAP1 PUSH2 0x1EFB JUMP JUMPDEST PUSH2 0x12C3 JUMP JUMPDEST PUSH1 0x40 MLOAD PUSH2 0x681 SWAP2 SWAP1 PUSH2 0x2485 JUMP JUMPDEST PUSH1 0x40 MLOAD DUP1 SWAP2 SUB SWAP1 RETURN JUMPDEST CALLVALUE DUP1 ISZERO PUSH2 0x696 JUMPI PUSH1 0x0 DUP1 REVERT JUMPDEST POP PUSH2 0x6B1 PUSH1 0x4 DUP1 CALLDATASIZE SUB DUP2 ADD SWAP1 PUSH2 0x6AC SWAP2 SWAP1 PUSH2 0x1F28 JUMP JUMPDEST PUSH2 0x1318 JUMP JUMPDEST PUSH1 0x40 MLOAD PUSH2 0x6BE SWAP2 SWAP1 PUSH2 0x2485 JUMP JUMPDEST PUSH1 0x40 MLOAD DUP1 SWAP2 SUB SWAP1 RETURN JUMPDEST CALLVALUE DUP1 ISZERO PUSH2 0x6D3 JUMPI PUSH1 0x0 DUP1 REVERT JUMPDEST POP PUSH2 0x6DC PUSH2 0x139F JUMP JUMPDEST PUSH1 0x40 MLOAD PUSH2 0x6E9 SWAP2 SWAP1 PUSH2 0x227F JUMP JUMPDEST PUSH1 0x40 MLOAD DUP1 SWAP2 SUB SWAP1 RETURN JUMPDEST CALLVALUE DUP1 ISZERO PUSH2 0x6FE JUMPI PUSH1 0x0 DUP1 REVERT JUMPDEST POP PUSH2 0x719 PUSH1 0x4 DUP1 CALLDATASIZE SUB DUP2 ADD SWAP1 PUSH2 0x714 SWAP2 SWAP1 PUSH2 0x1EFB JUMP JUMPDEST PUSH2 0x13C3 JUMP JUMPDEST STOP JUMPDEST CALLVALUE DUP1 ISZERO PUSH2 0x727 JUMPI PUSH1 0x0 DUP1 REVERT JUMPDEST POP PUSH2 0x742 PUSH1 0x4 DUP1 CALLDATASIZE SUB DUP2 ADD SWAP1 PUSH2 0x73D SWAP2 SWAP1 PUSH2 0x1EFB JUMP JUMPDEST PUSH2 0x143E JUMP JUMPDEST PUSH1 0x40 MLOAD PUSH2 0x750 SWAP3 SWAP2 SWAP1 PUSH2 0x229A JUMP JUMPDEST PUSH1 0x40 MLOAD DUP1 SWAP2 SUB SWAP1 RETURN JUMPDEST CALLVALUE DUP1 ISZERO PUSH2 0x765 JUMPI PUSH1 0x0 DUP1 REVERT JUMPDEST POP PUSH2 0x780 PUSH1 0x4 DUP1 CALLDATASIZE SUB DUP2 ADD SWAP1 PUSH2 0x77B SWAP2 SWAP1 PUSH2 0x1EFB JUMP JUMPDEST PUSH2 0x14F2 JUMP JUMPDEST STOP JUMPDEST PUSH1 0x8 SLOAD DUP2 JUMP JUMPDEST PUSH1 0x60 PUSH1 0x3 DUP1 SLOAD PUSH2 0x797 SWAP1 PUSH2 0x27E5 JUMP JUMPDEST DUP1 PUSH1 0x1F ADD PUSH1 0x20 DUP1 SWAP2 DIV MUL PUSH1 0x20 ADD PUSH1 0x40 MLOAD SWAP1 DUP2 ADD PUSH1 0x40 MSTORE DUP1 SWAP3 SWAP2 SWAP1 DUP2 DUP2 MSTORE PUSH1 0x20 ADD DUP3 DUP1 SLOAD PUSH2 0x7C3 SWAP1 PUSH2 0x27E5 JUMP JUMPDEST DUP1 ISZERO PUSH2 0x810 JUMPI DUP1 PUSH1 0x1F LT PUSH2 0x7E5 JUMPI PUSH2 0x100 DUP1 DUP4 SLOAD DIV MUL DUP4 MSTORE SWAP2 PUSH1 0x20 ADD SWAP2 PUSH2 0x810 JUMP JUMPDEST DUP3 ADD SWAP2 SWAP1 PUSH1 0x0 MSTORE PUSH1 0x20 PUSH1 0x0 KECCAK256 SWAP1 JUMPDEST DUP2 SLOAD DUP2 MSTORE SWAP1 PUSH1 0x1 ADD SWAP1 PUSH1 0x20 ADD DUP1 DUP4 GT PUSH2 0x7F3 JUMPI DUP3 SWAP1 SUB PUSH1 0x1F AND DUP3 ADD SWAP2 JUMPDEST POP POP POP POP POP SWAP1 POP SWAP1 JUMP JUMPDEST PUSH1 0x0 DUP1 PUSH2 0x825 PUSH2 0x15EA JUMP JUMPDEST SWAP1 POP PUSH2 0x832 DUP2 DUP6 DUP6 PUSH2 0x15F2 JUMP JUMPDEST PUSH1 0x1 SWAP2 POP POP SWAP3 SWAP2 POP POP JUMP JUMPDEST PUSH1 0x0 DUP1 PUSH1 0x0 SWAP1 POP PUSH1 0x0 JUMPDEST PUSH1 0xA DUP1 SLOAD SWAP1 POP DUP2 LT ISZERO PUSH2 0x8F3 JUMPI PUSH1 0xB PUSH1 0x0 PUSH1 0xA DUP4 DUP2 SLOAD DUP2 LT PUSH2 0x86C JUMPI PUSH2 0x86B PUSH2 0x28D3 JUMP JUMPDEST JUMPDEST SWAP1 PUSH1 0x0 MSTORE PUSH1 0x20 PUSH1 0x0 KECCAK256 ADD PUSH1 0x0 SWAP1 SLOAD SWAP1 PUSH2 0x100 EXP SWAP1 DIV PUSH20 0xFFFFFFFFFFFFFFFFFFFFFFFFFFFFFFFFFFFFFFFF AND PUSH20 0xFFFFFFFFFFFFFFFFFFFFFFFFFFFFFFFFFFFFFFFF AND PUSH20 0xFFFFFFFFFFFFFFFFFFFFFFFFFFFFFFFFFFFFFFFF AND DUP2 MSTORE PUSH1 0x20 ADD SWAP1 DUP2 MSTORE PUSH1 0x20 ADD PUSH1 0x0 KECCAK256 SLOAD DUP3 PUSH2 0x8DD SWAP2 SWAP1 PUSH2 0x24D7 JUMP JUMPDEST SWAP2 POP PUSH1 0x1 DUP2 PUSH2 0x8EC SWAP2 SWAP1 PUSH2 0x24D7 JUMP JUMPDEST SWAP1 POP PUSH2 0x847 JUMP JUMPDEST POP DUP1 SWAP2 POP POP SWAP1 JUMP JUMPDEST PUSH1 0x0 PUSH1 0x2 SLOAD SWAP1 POP SWAP1 JUMP JUMPDEST PUSH2 0x90F CALLER DUP3 PUSH2 0x17BD JUMP JUMPDEST PUSH1 0x0 PUSH1 0x9 PUSH1 0x0 CALLER PUSH20 0xFFFFFFFFFFFFFFFFFFFFFFFFFFFFFFFFFFFFFFFF AND PUSH20 0xFFFFFFFFFFFFFFFFFFFFFFFFFFFFFFFFFFFFFFFF AND DUP2 MSTORE PUSH1 0x20 ADD SWAP1 DUP2 MSTORE PUSH1 0x20 ADD PUSH1 0x0 KECCAK256 SLOAD EQ ISZERO PUSH2 0x961 JUMPI PUSH2 0x960 CALLER PUSH2 0x13C3 JUMP JUMPDEST JUMPDEST DUP1 PUSH1 0x9 PUSH1 0x0 CALLER PUSH20 0xFFFFFFFFFFFFFFFFFFFFFFFFFFFFFFFFFFFFFFFF AND PUSH20 0xFFFFFFFFFFFFFFFFFFFFFFFFFFFFFFFFFFFFFFFF AND DUP2 MSTORE PUSH1 0x20 ADD SWAP1 DUP2 MSTORE PUSH1 0x20 ADD PUSH1 0x0 KECCAK256 SLOAD PUSH2 0x9AC SWAP2 SWAP1 PUSH2 0x24D7 JUMP JUMPDEST PUSH1 0x9 PUSH1 0x0 CALLER PUSH20 0xFFFFFFFFFFFFFFFFFFFFFFFFFFFFFFFFFFFFFFFF AND PUSH20 0xFFFFFFFFFFFFFFFFFFFFFFFFFFFFFFFFFFFFFFFF AND DUP2 MSTORE PUSH1 0x20 ADD SWAP1 DUP2 MSTORE PUSH1 0x20 ADD PUSH1 0x0 KECCAK256 DUP2 SWAP1 SSTORE POP POP JUMP JUMPDEST PUSH1 0x0 PUSH1 0xB PUSH1 0x0 DUP4 PUSH20 0xFFFFFFFFFFFFFFFFFFFFFFFFFFFFFFFFFFFFFFFF AND PUSH20 0xFFFFFFFFFFFFFFFFFFFFFFFFFFFFFFFFFFFFFFFF AND DUP2 MSTORE PUSH1 0x20 ADD SWAP1 DUP2 MSTORE PUSH1 0x20 ADD PUSH1 0x0 KECCAK256 SLOAD SWAP1 POP SWAP2 SWAP1 POP JUMP JUMPDEST PUSH1 0x0 DUP1 PUSH2 0xA46 PUSH2 0x15EA JUMP JUMPDEST SWAP1 POP PUSH2 0xA53 DUP6 DUP3 DUP6 PUSH2 0x1994 JUMP JUMPDEST PUSH2 0xA5E DUP6 DUP6 DUP6 PUSH2 0x1A20 JUMP JUMPDEST PUSH1 0x1 SWAP2 POP POP SWAP4 SWAP3 POP POP POP JUMP JUMPDEST PUSH1 0x0 PUSH1 0x12 SWAP1 POP SWAP1 JUMP JUMPDEST PUSH1 0x7 SLOAD DUP2 JUMP JUMPDEST PUSH1 0x0 DUP1 PUSH2 0xA84 PUSH2 0x15EA JUMP JUMPDEST SWAP1 POP PUSH2 0xB18 DUP2 DUP6 DUP6 PUSH1 0x1 PUSH1 0x0 DUP7 PUSH20 0xFFFFFFFFFFFFFFFFFFFFFFFFFFFFFFFFFFFFFFFF AND PUSH20 0xFFFFFFFFFFFFFFFFFFFFFFFFFFFFFFFFFFFFFFFF AND DUP2 MSTORE PUSH1 0x20 ADD SWAP1 DUP2 MSTORE PUSH1 0x20 ADD PUSH1 0x0 KECCAK256 PUSH1 0x0 DUP10 PUSH20 0xFFFFFFFFFFFFFFFFFFFFFFFFFFFFFFFFFFFFFFFF AND PUSH20 0xFFFFFFFFFFFFFFFFFFFFFFFFFFFFFFFFFFFFFFFF AND DUP2 MSTORE PUSH1 0x20 ADD SWAP1 DUP2 MSTORE PUSH1 0x20 ADD PUSH1 0x0 KECCAK256 SLOAD PUSH2 0xB13 SWAP2 SWAP1 PUSH2 0x24D7 JUMP JUMPDEST PUSH2 0x15F2 JUMP JUMPDEST PUSH1 0x1 SWAP2 POP POP SWAP3 SWAP2 POP POP JUMP JUMPDEST PUSH1 0x0 PUSH1 0x9 PUSH1 0x0 DUP4 PUSH20 0xFFFFFFFFFFFFFFFFFFFFFFFFFFFFFFFFFFFFFFFF AND PUSH20 0xFFFFFFFFFFFFFFFFFFFFFFFFFFFFFFFFFFFFFFFF AND DUP2 MSTORE PUSH1 0x20 ADD SWAP1 DUP2 MSTORE PUSH1 0x20 ADD PUSH1 0x0 KECCAK256 SLOAD SWAP1 POP SWAP2 SWAP1 POP JUMP JUMPDEST PUSH1 0x6 PUSH1 0x0 SWAP1 SLOAD SWAP1 PUSH2 0x100 EXP SWAP1 DIV PUSH20 0xFFFFFFFFFFFFFFFFFFFFFFFFFFFFFFFFFFFFFFFF AND PUSH20 0xFFFFFFFFFFFFFFFFFFFFFFFFFFFFFFFFFFFFFFFF AND CALLER PUSH20 0xFFFFFFFFFFFFFFFFFFFFFFFFFFFFFFFFFFFFFFFF AND EQ PUSH2 0xBFC JUMPI PUSH1 0x40 MLOAD PUSH32 0x8C379A000000000000000000000000000000000000000000000000000000000 DUP2 MSTORE PUSH1 0x4 ADD PUSH2 0xBF3 SWAP1 PUSH2 0x22E5 JUMP JUMPDEST PUSH1 0x40 MLOAD DUP1 SWAP2 SUB SWAP1 REVERT JUMPDEST DUP1 PUSH1 0x7 DUP2 SWAP1 SSTORE POP POP JUMP JUMPDEST PUSH1 0x0 JUMPDEST PUSH1 0xA DUP1 SLOAD SWAP1 POP DUP2 LT ISZERO PUSH2 0xD0A JUMPI PUSH1 0x0 PUSH1 0xA DUP3 DUP2 SLOAD DUP2 LT PUSH2 0xC2C JUMPI PUSH2 0xC2B PUSH2 0x28D3 JUMP JUMPDEST JUMPDEST SWAP1 PUSH1 0x0 MSTORE PUSH1 0x20 PUSH1 0x0 KECCAK256 ADD PUSH1 0x0 SWAP1 SLOAD SWAP1 PUSH2 0x100 EXP SWAP1 DIV PUSH20 0xFFFFFFFFFFFFFFFFFFFFFFFFFFFFFFFFFFFFFFFF AND SWAP1 POP PUSH1 0x0 PUSH2 0xC64 DUP3 PUSH2 0x12C3 JUMP JUMPDEST SWAP1 POP DUP1 PUSH1 0xB PUSH1 0x0 DUP5 PUSH20 0xFFFFFFFFFFFFFFFFFFFFFFFFFFFFFFFFFFFFFFFF AND PUSH20 0xFFFFFFFFFFFFFFFFFFFFFFFFFFFFFFFFFFFFFFFF AND DUP2 MSTORE PUSH1 0x20 ADD SWAP1 DUP2 MSTORE PUSH1 0x20 ADD PUSH1 0x0 KECCAK256 SLOAD PUSH2 0xCB1 SWAP2 SWAP1 PUSH2 0x24D7 JUMP JUMPDEST PUSH1 0xB PUSH1 0x0 DUP5 PUSH20 0xFFFFFFFFFFFFFFFFFFFFFFFFFFFFFFFFFFFFFFFF AND PUSH20 0xFFFFFFFFFFFFFFFFFFFFFFFFFFFFFFFFFFFFFFFF AND DUP2 MSTORE PUSH1 0x20 ADD SWAP1 DUP2 MSTORE PUSH1 0x20 ADD PUSH1 0x0 KECCAK256 DUP2 SWAP1 SSTORE POP POP POP PUSH1 0x1 DUP2 PUSH2 0xD03 SWAP2 SWAP1 PUSH2 0x24D7 JUMP JUMPDEST SWAP1 POP PUSH2 0xC09 JUMP JUMPDEST POP JUMP JUMPDEST PUSH1 0x0 DUP1 PUSH1 0x0 DUP4 PUSH20 0xFFFFFFFFFFFFFFFFFFFFFFFFFFFFFFFFFFFFFFFF AND PUSH20 0xFFFFFFFFFFFFFFFFFFFFFFFFFFFFFFFFFFFFFFFF AND DUP2 MSTORE PUSH1 0x20 ADD SWAP1 DUP2 MSTORE PUSH1 0x20 ADD PUSH1 0x0 KECCAK256 SLOAD SWAP1 POP SWAP2 SWAP1 POP JUMP JUMPDEST PUSH2 0xD5D PUSH2 0x15EA JUMP JUMPDEST PUSH20 0xFFFFFFFFFFFFFFFFFFFFFFFFFFFFFFFFFFFFFFFF AND PUSH2 0xD7B PUSH2 0xE42 JUMP JUMPDEST PUSH20 0xFFFFFFFFFFFFFFFFFFFFFFFFFFFFFFFFFFFFFFFF AND EQ PUSH2 0xDD1 JUMPI PUSH1 0x40 MLOAD PUSH32 0x8C379A000000000000000000000000000000000000000000000000000000000 DUP2 MSTORE PUSH1 0x4 ADD PUSH2 0xDC8 SWAP1 PUSH2 0x23C5 JUMP JUMPDEST PUSH1 0x40 MLOAD DUP1 SWAP2 SUB SWAP1 REVERT JUMPDEST PUSH2 0xDDB PUSH1 0x0 PUSH2 0x1CA1 JUMP JUMPDEST JUMP JUMPDEST PUSH2 0xDE5 PUSH2 0xA6A JUMP JUMPDEST PUSH1 0xA PUSH2 0xDF1 SWAP2 SWAP1 PUSH2 0x25B1 JUMP JUMPDEST PUSH1 0x7 SLOAD PUSH2 0xDFE SWAP2 SWAP1 PUSH2 0x26CF JUMP JUMPDEST PUSH1 0x8 DUP2 SWAP1 SSTORE POP PUSH1 0x0 PUSH2 0xE0E PUSH2 0xA6A JUMP JUMPDEST PUSH1 0xA PUSH2 0xE1A SWAP2 SWAP1 PUSH2 0x25B1 JUMP JUMPDEST PUSH1 0x8 SLOAD CALLVALUE PUSH2 0xE28 SWAP2 SWAP1 PUSH2 0x26CF JUMP JUMPDEST PUSH2 0xE32 SWAP2 SWAP1 PUSH2 0x252D JUMP JUMPDEST SWAP1 POP PUSH2 0xE3E DUP3 DUP3 PUSH2 0x1D67 JUMP JUMPDEST POP POP JUMP JUMPDEST PUSH1 0x0 PUSH1 0x5 PUSH1 0x0 SWAP1 SLOAD SWAP1 PUSH2 0x100 EXP SWAP1 DIV PUSH20 0xFFFFFFFFFFFFFFFFFFFFFFFFFFFFFFFFFFFFFFFF AND SWAP1 POP SWAP1 JUMP JUMPDEST DUP1 PUSH1 0x9 PUSH1 0x0 CALLER PUSH20 0xFFFFFFFFFFFFFFFFFFFFFFFFFFFFFFFFFFFFFFFF AND PUSH20 0xFFFFFFFFFFFFFFFFFFFFFFFFFFFFFFFFFFFFFFFF AND DUP2 MSTORE PUSH1 0x20 ADD SWAP1 DUP2 MSTORE PUSH1 0x20 ADD PUSH1 0x0 KECCAK256 SLOAD PUSH2 0xEB7 SWAP2 SWAP1 PUSH2 0x2729 JUMP JUMPDEST PUSH1 0x9 PUSH1 0x0 CALLER PUSH20 0xFFFFFFFFFFFFFFFFFFFFFFFFFFFFFFFFFFFFFFFF AND PUSH20 0xFFFFFFFFFFFFFFFFFFFFFFFFFFFFFFFFFFFFFFFF AND DUP2 MSTORE PUSH1 0x20 ADD SWAP1 DUP2 MSTORE PUSH1 0x20 ADD PUSH1 0x0 KECCAK256 DUP2 SWAP1 SSTORE POP PUSH1 0x0 PUSH1 0x9 PUSH1 0x0 CALLER PUSH20 0xFFFFFFFFFFFFFFFFFFFFFFFFFFFFFFFFFFFFFFFF AND PUSH20 0xFFFFFFFFFFFFFFFFFFFFFFFFFFFFFFFFFFFFFFFF AND DUP2 MSTORE PUSH1 0x20 ADD SWAP1 DUP2 MSTORE PUSH1 0x20 ADD PUSH1 0x0 KECCAK256 SLOAD EQ ISZERO PUSH2 0xF4C JUMPI PUSH2 0xF4B CALLER PUSH2 0x111E JUMP JUMPDEST JUMPDEST PUSH2 0xF56 CALLER DUP3 PUSH2 0x1D67 JUMP JUMPDEST POP JUMP JUMPDEST PUSH1 0x60 PUSH1 0x4 DUP1 SLOAD PUSH2 0xF68 SWAP1 PUSH2 0x27E5 JUMP JUMPDEST DUP1 PUSH1 0x1F ADD PUSH1 0x20 DUP1 SWAP2 DIV MUL PUSH1 0x20 ADD PUSH1 0x40 MLOAD SWAP1 DUP2 ADD PUSH1 0x40 MSTORE DUP1 SWAP3 SWAP2 SWAP1 DUP2 DUP2 MSTORE PUSH1 0x20 ADD DUP3 DUP1 SLOAD PUSH2 0xF94 SWAP1 PUSH2 0x27E5 JUMP JUMPDEST DUP1 ISZERO PUSH2 0xFE1 JUMPI DUP1 PUSH1 0x1F LT PUSH2 0xFB6 JUMPI PUSH2 0x100 DUP1 DUP4 SLOAD DIV MUL DUP4 MSTORE SWAP2 PUSH1 0x20 ADD SWAP2 PUSH2 0xFE1 JUMP JUMPDEST DUP3 ADD SWAP2 SWAP1 PUSH1 0x0 MSTORE PUSH1 0x20 PUSH1 0x0 KECCAK256 SWAP1 JUMPDEST DUP2 SLOAD DUP2 MSTORE SWAP1 PUSH1 0x1 ADD SWAP1 PUSH1 0x20 ADD DUP1 DUP4 GT PUSH2 0xFC4 JUMPI DUP3 SWAP1 SUB PUSH1 0x1F AND DUP3 ADD SWAP2 JUMPDEST POP POP POP POP POP SWAP1 POP SWAP1 JUMP JUMPDEST PUSH1 0x0 DUP1 PUSH2 0xFF6 PUSH2 0x15EA JUMP JUMPDEST SWAP1 POP PUSH1 0x0 PUSH1 0x1 PUSH1 0x0 DUP4 PUSH20 0xFFFFFFFFFFFFFFFFFFFFFFFFFFFFFFFFFFFFFFFF AND PUSH20 0xFFFFFFFFFFFFFFFFFFFFFFFFFFFFFFFFFFFFFFFF AND DUP2 MSTORE PUSH1 0x20 ADD SWAP1 DUP2 MSTORE PUSH1 0x20 ADD PUSH1 0x0 KECCAK256 PUSH1 0x0 DUP7 PUSH20 0xFFFFFFFFFFFFFFFFFFFFFFFFFFFFFFFFFFFFFFFF AND PUSH20 0xFFFFFFFFFFFFFFFFFFFFFFFFFFFFFFFFFFFFFFFF AND DUP2 MSTORE PUSH1 0x20 ADD SWAP1 DUP2 MSTORE PUSH1 0x20 ADD PUSH1 0x0 KECCAK256 SLOAD SWAP1 POP DUP4 DUP2 LT ISZERO PUSH2 0x10BC JUMPI PUSH1 0x40 MLOAD PUSH32 0x8C379A000000000000000000000000000000000000000000000000000000000 DUP2 MSTORE PUSH1 0x4 ADD PUSH2 0x10B3 SWAP1 PUSH2 0x2445 JUMP JUMPDEST PUSH1 0x40 MLOAD DUP1 SWAP2 SUB SWAP1 REVERT JUMPDEST PUSH2 0x10C9 DUP3 DUP7 DUP7 DUP5 SUB PUSH2 0x15F2 JUMP JUMPDEST PUSH1 0x1 SWAP3 POP POP POP SWAP3 SWAP2 POP POP JUMP JUMPDEST PUSH1 0x0 DUP1 PUSH2 0x10E0 PUSH2 0x15EA JUMP JUMPDEST SWAP1 POP PUSH2 0x10ED DUP2 DUP6 DUP6 PUSH2 0x1A20 JUMP JUMPDEST PUSH1 0x1 SWAP2 POP POP SWAP3 SWAP2 POP POP JUMP JUMPDEST PUSH1 0x6 PUSH1 0x0 SWAP1 SLOAD SWAP1 PUSH2 0x100 EXP SWAP1 DIV PUSH20 0xFFFFFFFFFFFFFFFFFFFFFFFFFFFFFFFFFFFFFFFF AND DUP2 JUMP JUMPDEST PUSH1 0x0 DUP1 PUSH2 0x112A DUP4 PUSH2 0x143E JUMP JUMPDEST SWAP2 POP SWAP2 POP DUP2 ISZERO PUSH2 0x1228 JUMPI PUSH1 0xA PUSH1 0x1 PUSH1 0xA DUP1 SLOAD SWAP1 POP PUSH2 0x1148 SWAP2 SWAP1 PUSH2 0x2729 JUMP JUMPDEST DUP2 SLOAD DUP2 LT PUSH2 0x1159 JUMPI PUSH2 0x1158 PUSH2 0x28D3 JUMP JUMPDEST JUMPDEST SWAP1 PUSH1 0x0 MSTORE PUSH1 0x20 PUSH1 0x0 KECCAK256 ADD PUSH1 0x0 SWAP1 SLOAD SWAP1 PUSH2 0x100 EXP SWAP1 DIV PUSH20 0xFFFFFFFFFFFFFFFFFFFFFFFFFFFFFFFFFFFFFFFF AND PUSH1 0xA DUP3 DUP2 SLOAD DUP2 LT PUSH2 0x1198 JUMPI PUSH2 0x1197 PUSH2 0x28D3 JUMP JUMPDEST JUMPDEST SWAP1 PUSH1 0x0 MSTORE PUSH1 0x20 PUSH1 0x0 KECCAK256 ADD PUSH1 0x0 PUSH2 0x100 EXP DUP2 SLOAD DUP2 PUSH20 0xFFFFFFFFFFFFFFFFFFFFFFFFFFFFFFFFFFFFFFFF MUL NOT AND SWAP1 DUP4 PUSH20 0xFFFFFFFFFFFFFFFFFFFFFFFFFFFFFFFFFFFFFFFF AND MUL OR SWAP1 SSTORE POP PUSH1 0xA DUP1 SLOAD DUP1 PUSH2 0x11F2 JUMPI PUSH2 0x11F1 PUSH2 0x28A4 JUMP JUMPDEST JUMPDEST PUSH1 0x1 SWAP1 SUB DUP2 DUP2 SWAP1 PUSH1 0x0 MSTORE PUSH1 0x20 PUSH1 0x0 KECCAK256 ADD PUSH1 0x0 PUSH2 0x100 EXP DUP2 SLOAD SWAP1 PUSH20 0xFFFFFFFFFFFFFFFFFFFFFFFFFFFFFFFFFFFFFFFF MUL NOT AND SWAP1 SSTORE SWAP1 SSTORE JUMPDEST POP POP POP JUMP JUMPDEST PUSH1 0x0 PUSH1 0xB PUSH1 0x0 CALLER PUSH20 0xFFFFFFFFFFFFFFFFFFFFFFFFFFFFFFFFFFFFFFFF AND PUSH20 0xFFFFFFFFFFFFFFFFFFFFFFFFFFFFFFFFFFFFFFFF AND DUP2 MSTORE PUSH1 0x20 ADD SWAP1 DUP2 MSTORE PUSH1 0x20 ADD PUSH1 0x0 KECCAK256 SLOAD SWAP1 POP PUSH1 0x0 PUSH1 0xB PUSH1 0x0 CALLER PUSH20 0xFFFFFFFFFFFFFFFFFFFFFFFFFFFFFFFFFFFFFFFF AND PUSH20 0xFFFFFFFFFFFFFFFFFFFFFFFFFFFFFFFFFFFFFFFF AND DUP2 MSTORE PUSH1 0x20 ADD SWAP1 DUP2 MSTORE PUSH1 0x20 ADD PUSH1 0x0 KECCAK256 DUP2 SWAP1 SSTORE POP PUSH2 0x12C0 CALLER DUP3 PUSH2 0x1D67 JUMP JUMPDEST POP JUMP JUMPDEST PUSH1 0x0 PUSH1 0x64 PUSH1 0x9 PUSH1 0x0 DUP5 PUSH20 0xFFFFFFFFFFFFFFFFFFFFFFFFFFFFFFFFFFFFFFFF AND PUSH20 0xFFFFFFFFFFFFFFFFFFFFFFFFFFFFFFFFFFFFFFFF AND DUP2 MSTORE PUSH1 0x20 ADD SWAP1 DUP2 MSTORE PUSH1 0x20 ADD PUSH1 0x0 KECCAK256 SLOAD PUSH2 0x1311 SWAP2 SWAP1 PUSH2 0x252D JUMP JUMPDEST SWAP1 POP SWAP2 SWAP1 POP JUMP JUMPDEST PUSH1 0x0 PUSH1 0x1 PUSH1 0x0 DUP5 PUSH20 0xFFFFFFFFFFFFFFFFFFFFFFFFFFFFFFFFFFFFFFFF AND PUSH20 0xFFFFFFFFFFFFFFFFFFFFFFFFFFFFFFFFFFFFFFFF AND DUP2 MSTORE PUSH1 0x20 ADD SWAP1 DUP2 MSTORE PUSH1 0x20 ADD PUSH1 0x0 KECCAK256 PUSH1 0x0 DUP4 PUSH20 0xFFFFFFFFFFFFFFFFFFFFFFFFFFFFFFFFFFFFFFFF AND PUSH20 0xFFFFFFFFFFFFFFFFFFFFFFFFFFFFFFFFFFFFFFFF AND DUP2 MSTORE PUSH1 0x20 ADD SWAP1 DUP2 MSTORE PUSH1 0x20 ADD PUSH1 0x0 KECCAK256 SLOAD SWAP1 POP SWAP3 SWAP2 POP POP JUMP JUMPDEST PUSH1 0x0 DUP1 PUSH3 0x93A80 SWAP1 POP PUSH1 0x0 TIMESTAMP SWAP1 POP PUSH1 0x0 DUP3 DUP3 PUSH2 0x13BB SWAP2 SWAP1 PUSH2 0x24D7 JUMP JUMPDEST SWAP1 POP POP POP POP SWAP1 JUMP JUMPDEST PUSH1 0x0 PUSH2 0x13CE DUP3 PUSH2 0x143E JUMP JUMPDEST POP SWAP1 POP DUP1 PUSH2 0x143A JUMPI PUSH1 0xA DUP3 SWAP1 DUP1 PUSH1 0x1 DUP2 SLOAD ADD DUP1 DUP3 SSTORE DUP1 SWAP2 POP POP PUSH1 0x1 SWAP1 SUB SWAP1 PUSH1 0x0 MSTORE PUSH1 0x20 PUSH1 0x0 KECCAK256 ADD PUSH1 0x0 SWAP1 SWAP2 SWAP1 SWAP2 SWAP1 SWAP2 PUSH2 0x100 EXP DUP2 SLOAD DUP2 PUSH20 0xFFFFFFFFFFFFFFFFFFFFFFFFFFFFFFFFFFFFFFFF MUL NOT AND SWAP1 DUP4 PUSH20 0xFFFFFFFFFFFFFFFFFFFFFFFFFFFFFFFFFFFFFFFF AND MUL OR SWAP1 SSTORE POP JUMPDEST POP POP JUMP JUMPDEST PUSH1 0x0 DUP1 PUSH1 0x0 JUMPDEST PUSH1 0xA DUP1 SLOAD SWAP1 POP DUP2 LT ISZERO PUSH2 0x14E4 JUMPI PUSH1 0xA DUP2 DUP2 SLOAD DUP2 LT PUSH2 0x1465 JUMPI PUSH2 0x1464 PUSH2 0x28D3 JUMP JUMPDEST JUMPDEST SWAP1 PUSH1 0x0 MSTORE PUSH1 0x20 PUSH1 0x0 KECCAK256 ADD PUSH1 0x0 SWAP1 SLOAD SWAP1 PUSH2 0x100 EXP SWAP1 DIV PUSH20 0xFFFFFFFFFFFFFFFFFFFFFFFFFFFFFFFFFFFFFFFF AND PUSH20 0xFFFFFFFFFFFFFFFFFFFFFFFFFFFFFFFFFFFFFFFF AND DUP5 PUSH20 0xFFFFFFFFFFFFFFFFFFFFFFFFFFFFFFFFFFFFFFFF AND EQ ISZERO PUSH2 0x14D0 JUMPI PUSH1 0x1 DUP2 SWAP3 POP SWAP3 POP POP PUSH2 0x14ED JUMP JUMPDEST PUSH1 0x1 DUP2 PUSH2 0x14DD SWAP2 SWAP1 PUSH2 0x24D7 JUMP JUMPDEST SWAP1 POP PUSH2 0x1444 JUMP JUMPDEST POP PUSH1 0x0 DUP1 SWAP2 POP SWAP2 POP JUMPDEST SWAP2 POP SWAP2 JUMP JUMPDEST PUSH2 0x14FA PUSH2 0x15EA JUMP JUMPDEST PUSH20 0xFFFFFFFFFFFFFFFFFFFFFFFFFFFFFFFFFFFFFFFF AND PUSH2 0x1518 PUSH2 0xE42 JUMP JUMPDEST PUSH20 0xFFFFFFFFFFFFFFFFFFFFFFFFFFFFFFFFFFFFFFFF AND EQ PUSH2 0x156E JUMPI PUSH1 0x40 MLOAD PUSH32 0x8C379A000000000000000000000000000000000000000000000000000000000 DUP2 MSTORE PUSH1 0x4 ADD PUSH2 0x1565 SWAP1 PUSH2 0x23C5 JUMP JUMPDEST PUSH1 0x40 MLOAD DUP1 SWAP2 SUB SWAP1 REVERT JUMPDEST PUSH1 0x0 PUSH20 0xFFFFFFFFFFFFFFFFFFFFFFFFFFFFFFFFFFFFFFFF AND DUP2 PUSH20 0xFFFFFFFFFFFFFFFFFFFFFFFFFFFFFFFFFFFFFFFF AND EQ ISZERO PUSH2 0x15DE JUMPI PUSH1 0x40 MLOAD PUSH32 0x8C379A000000000000000000000000000000000000000000000000000000000 DUP2 MSTORE PUSH1 0x4 ADD PUSH2 0x15D5 SWAP1 PUSH2 0x2345 JUMP JUMPDEST PUSH1 0x40 MLOAD DUP1 SWAP2 SUB SWAP1 REVERT JUMPDEST PUSH2 0x15E7 DUP2 PUSH2 0x1CA1 JUMP JUMPDEST POP JUMP JUMPDEST PUSH1 0x0 CALLER SWAP1 POP SWAP1 JUMP JUMPDEST PUSH1 0x0 PUSH20 0xFFFFFFFFFFFFFFFFFFFFFFFFFFFFFFFFFFFFFFFF AND DUP4 PUSH20 0xFFFFFFFFFFFFFFFFFFFFFFFFFFFFFFFFFFFFFFFF AND EQ ISZERO PUSH2 0x1662 JUMPI PUSH1 0x40 MLOAD PUSH32 0x8C379A000000000000000000000000000000000000000000000000000000000 DUP2 MSTORE PUSH1 0x4 ADD PUSH2 0x1659 SWAP1 PUSH2 0x2425 JUMP JUMPDEST PUSH1 0x40 MLOAD DUP1 SWAP2 SUB SWAP1 REVERT JUMPDEST PUSH1 0x0 PUSH20 0xFFFFFFFFFFFFFFFFFFFFFFFFFFFFFFFFFFFFFFFF AND DUP3 PUSH20 0xFFFFFFFFFFFFFFFFFFFFFFFFFFFFFFFFFFFFFFFF AND EQ ISZERO PUSH2 0x16D2 JUMPI PUSH1 0x40 MLOAD PUSH32 0x8C379A000000000000000000000000000000000000000000000000000000000 DUP2 MSTORE PUSH1 0x4 ADD PUSH2 0x16C9 SWAP1 PUSH2 0x2365 JUMP JUMPDEST PUSH1 0x40 MLOAD DUP1 SWAP2 SUB SWAP1 REVERT JUMPDEST DUP1 PUSH1 0x1 PUSH1 0x0 DUP6 PUSH20 0xFFFFFFFFFFFFFFFFFFFFFFFFFFFFFFFFFFFFFFFF AND PUSH20 0xFFFFFFFFFFFFFFFFFFFFFFFFFFFFFFFFFFFFFFFF AND DUP2 MSTORE PUSH1 0x20 ADD SWAP1 DUP2 MSTORE PUSH1 0x20 ADD PUSH1 0x0 KECCAK256 PUSH1 0x0 DUP5 PUSH20 0xFFFFFFFFFFFFFFFFFFFFFFFFFFFFFFFFFFFFFFFF AND PUSH20 0xFFFFFFFFFFFFFFFFFFFFFFFFFFFFFFFFFFFFFFFF AND DUP2 MSTORE PUSH1 0x20 ADD SWAP1 DUP2 MSTORE PUSH1 0x20 ADD PUSH1 0x0 KECCAK256 DUP2 SWAP1 SSTORE POP DUP2 PUSH20 0xFFFFFFFFFFFFFFFFFFFFFFFFFFFFFFFFFFFFFFFF AND DUP4 PUSH20 0xFFFFFFFFFFFFFFFFFFFFFFFFFFFFFFFFFFFFFFFF AND PUSH32 0x8C5BE1E5EBEC7D5BD14F71427D1E84F3DD0314C0F7B2291E5B200AC8C7C3B925 DUP4 PUSH1 0x40 MLOAD PUSH2 0x17B0 SWAP2 SWAP1 PUSH2 0x2485 JUMP JUMPDEST PUSH1 0x40 MLOAD DUP1 SWAP2 SUB SWAP1 LOG3 POP POP POP JUMP JUMPDEST PUSH1 0x0 PUSH20 0xFFFFFFFFFFFFFFFFFFFFFFFFFFFFFFFFFFFFFFFF AND DUP3 PUSH20 0xFFFFFFFFFFFFFFFFFFFFFFFFFFFFFFFFFFFFFFFF AND EQ ISZERO PUSH2 0x182D JUMPI PUSH1 0x40 MLOAD PUSH32 0x8C379A000000000000000000000000000000000000000000000000000000000 DUP2 MSTORE PUSH1 0x4 ADD PUSH2 0x1824 SWAP1 PUSH2 0x23E5 JUMP JUMPDEST PUSH1 0x40 MLOAD DUP1 SWAP2 SUB SWAP1 REVERT JUMPDEST PUSH2 0x1839 DUP3 PUSH1 0x0 DUP4 PUSH2 0x1EC7 JUMP JUMPDEST PUSH1 0x0 DUP1 PUSH1 0x0 DUP5 PUSH20 0xFFFFFFFFFFFFFFFFFFFFFFFFFFFFFFFFFFFFFFFF AND PUSH20 0xFFFFFFFFFFFFFFFFFFFFFFFFFFFFFFFFFFFFFFFF AND DUP2 MSTORE PUSH1 0x20 ADD SWAP1 DUP2 MSTORE PUSH1 0x20 ADD PUSH1 0x0 KECCAK256 SLOAD SWAP1 POP DUP2 DUP2 LT ISZERO PUSH2 0x18BF JUMPI PUSH1 0x40 MLOAD PUSH32 0x8C379A000000000000000000000000000000000000000000000000000000000 DUP2 MSTORE PUSH1 0x4 ADD PUSH2 0x18B6 SWAP1 PUSH2 0x2325 JUMP JUMPDEST PUSH1 0x40 MLOAD DUP1 SWAP2 SUB SWAP1 REVERT JUMPDEST DUP2 DUP2 SUB PUSH1 0x0 DUP1 DUP6 PUSH20 0xFFFFFFFFFFFFFFFFFFFFFFFFFFFFFFFFFFFFFFFF AND PUSH20 0xFFFFFFFFFFFFFFFFFFFFFFFFFFFFFFFFFFFFFFFF AND DUP2 MSTORE PUSH1 0x20 ADD SWAP1 DUP2 MSTORE PUSH1 0x20 ADD PUSH1 0x0 KECCAK256 DUP2 SWAP1 SSTORE POP DUP2 PUSH1 0x2 PUSH1 0x0 DUP3 DUP3 SLOAD PUSH2 0x1916 SWAP2 SWAP1 PUSH2 0x2729 JUMP JUMPDEST SWAP3 POP POP DUP2 SWAP1 SSTORE POP PUSH1 0x0 PUSH20 0xFFFFFFFFFFFFFFFFFFFFFFFFFFFFFFFFFFFFFFFF AND DUP4 PUSH20 0xFFFFFFFFFFFFFFFFFFFFFFFFFFFFFFFFFFFFFFFF AND PUSH32 0xDDF252AD1BE2C89B69C2B068FC378DAA952BA7F163C4A11628F55A4DF523B3EF DUP5 PUSH1 0x40 MLOAD PUSH2 0x197B SWAP2 SWAP1 PUSH2 0x2485 JUMP JUMPDEST PUSH1 0x40 MLOAD DUP1 SWAP2 SUB SWAP1 LOG3 PUSH2 0x198F DUP4 PUSH1 0x0 DUP5 PUSH2 0x1ECC JUMP JUMPDEST POP POP POP JUMP JUMPDEST PUSH1 0x0 PUSH2 0x19A0 DUP5 DUP5 PUSH2 0x1318 JUMP JUMPDEST SWAP1 POP PUSH32 0xFFFFFFFFFFFFFFFFFFFFFFFFFFFFFFFFFFFFFFFFFFFFFFFFFFFFFFFFFFFFFFFF DUP2 EQ PUSH2 0x1A1A JUMPI DUP2 DUP2 LT ISZERO PUSH2 0x1A0C JUMPI PUSH1 0x40 MLOAD PUSH32 0x8C379A000000000000000000000000000000000000000000000000000000000 DUP2 MSTORE PUSH1 0x4 ADD PUSH2 0x1A03 SWAP1 PUSH2 0x2385 JUMP JUMPDEST PUSH1 0x40 MLOAD DUP1 SWAP2 SUB SWAP1 REVERT JUMPDEST PUSH2 0x1A19 DUP5 DUP5 DUP5 DUP5 SUB PUSH2 0x15F2 JUMP JUMPDEST JUMPDEST POP POP POP POP JUMP JUMPDEST PUSH1 0x0 PUSH20 0xFFFFFFFFFFFFFFFFFFFFFFFFFFFFFFFFFFFFFFFF AND DUP4 PUSH20 0xFFFFFFFFFFFFFFFFFFFFFFFFFFFFFFFFFFFFFFFF AND EQ ISZERO PUSH2 0x1A90 JUMPI PUSH1 0x40 MLOAD PUSH32 0x8C379A000000000000000000000000000000000000000000000000000000000 DUP2 MSTORE PUSH1 0x4 ADD PUSH2 0x1A87 SWAP1 PUSH2 0x2405 JUMP JUMPDEST PUSH1 0x40 MLOAD DUP1 SWAP2 SUB SWAP1 REVERT JUMPDEST PUSH1 0x0 PUSH20 0xFFFFFFFFFFFFFFFFFFFFFFFFFFFFFFFFFFFFFFFF AND DUP3 PUSH20 0xFFFFFFFFFFFFFFFFFFFFFFFFFFFFFFFFFFFFFFFF AND EQ ISZERO PUSH2 0x1B00 JUMPI PUSH1 0x40 MLOAD PUSH32 0x8C379A000000000000000000000000000000000000000000000000000000000 DUP2 MSTORE PUSH1 0x4 ADD PUSH2 0x1AF7 SWAP1 PUSH2 0x2305 JUMP JUMPDEST PUSH1 0x40 MLOAD DUP1 SWAP2 SUB SWAP1 REVERT JUMPDEST PUSH2 0x1B0B DUP4 DUP4 DUP4 PUSH2 0x1EC7 JUMP JUMPDEST PUSH1 0x0 DUP1 PUSH1 0x0 DUP6 PUSH20 0xFFFFFFFFFFFFFFFFFFFFFFFFFFFFFFFFFFFFFFFF AND PUSH20 0xFFFFFFFFFFFFFFFFFFFFFFFFFFFFFFFFFFFFFFFF AND DUP2 MSTORE PUSH1 0x20 ADD SWAP1 DUP2 MSTORE PUSH1 0x20 ADD PUSH1 0x0 KECCAK256 SLOAD SWAP1 POP DUP2 DUP2 LT ISZERO PUSH2 0x1B91 JUMPI PUSH1 0x40 MLOAD PUSH32 0x8C379A000000000000000000000000000000000000000000000000000000000 DUP2 MSTORE PUSH1 0x4 ADD PUSH2 0x1B88 SWAP1 PUSH2 0x23A5 JUMP JUMPDEST PUSH1 0x40 MLOAD DUP1 SWAP2 SUB SWAP1 REVERT JUMPDEST DUP2 DUP2 SUB PUSH1 0x0 DUP1 DUP7 PUSH20 0xFFFFFFFFFFFFFFFFFFFFFFFFFFFFFFFFFFFFFFFF AND PUSH20 0xFFFFFFFFFFFFFFFFFFFFFFFFFFFFFFFFFFFFFFFF AND DUP2 MSTORE PUSH1 0x20 ADD SWAP1 DUP2 MSTORE PUSH1 0x20 ADD PUSH1 0x0 KECCAK256 DUP2 SWAP1 SSTORE POP DUP2 PUSH1 0x0 DUP1 DUP6 PUSH20 0xFFFFFFFFFFFFFFFFFFFFFFFFFFFFFFFFFFFFFFFF AND PUSH20 0xFFFFFFFFFFFFFFFFFFFFFFFFFFFFFFFFFFFFFFFF AND DUP2 MSTORE PUSH1 0x20 ADD SWAP1 DUP2 MSTORE PUSH1 0x20 ADD PUSH1 0x0 KECCAK256 PUSH1 0x0 DUP3 DUP3 SLOAD PUSH2 0x1C24 SWAP2 SWAP1 PUSH2 0x24D7 JUMP JUMPDEST SWAP3 POP POP DUP2 SWAP1 SSTORE POP DUP3 PUSH20 0xFFFFFFFFFFFFFFFFFFFFFFFFFFFFFFFFFFFFFFFF AND DUP5 PUSH20 0xFFFFFFFFFFFFFFFFFFFFFFFFFFFFFFFFFFFFFFFF AND PUSH32 0xDDF252AD1BE2C89B69C2B068FC378DAA952BA7F163C4A11628F55A4DF523B3EF DUP5 PUSH1 0x40 MLOAD PUSH2 0x1C88 SWAP2 SWAP1 PUSH2 0x2485 JUMP JUMPDEST PUSH1 0x40 MLOAD DUP1 SWAP2 SUB SWAP1 LOG3 PUSH2 0x1C9B DUP5 DUP5 DUP5 PUSH2 0x1ECC JUMP JUMPDEST POP POP POP POP JUMP JUMPDEST PUSH1 0x0 PUSH1 0x5 PUSH1 0x0 SWAP1 SLOAD SWAP1 PUSH2 0x100 EXP SWAP1 DIV PUSH20 0xFFFFFFFFFFFFFFFFFFFFFFFFFFFFFFFFFFFFFFFF AND SWAP1 POP DUP2 PUSH1 0x5 PUSH1 0x0 PUSH2 0x100 EXP DUP2 SLOAD DUP2 PUSH20 0xFFFFFFFFFFFFFFFFFFFFFFFFFFFFFFFFFFFFFFFF MUL NOT AND SWAP1 DUP4 PUSH20 0xFFFFFFFFFFFFFFFFFFFFFFFFFFFFFFFFFFFFFFFF AND MUL OR SWAP1 SSTORE POP DUP2 PUSH20 0xFFFFFFFFFFFFFFFFFFFFFFFFFFFFFFFFFFFFFFFF AND DUP2 PUSH20 0xFFFFFFFFFFFFFFFFFFFFFFFFFFFFFFFFFFFFFFFF AND PUSH32 0x8BE0079C531659141344CD1FD0A4F28419497F9722A3DAAFE3B4186F6B6457E0 PUSH1 0x40 MLOAD PUSH1 0x40 MLOAD DUP1 SWAP2 SUB SWAP1 LOG3 POP POP JUMP JUMPDEST PUSH1 0x0 PUSH20 0xFFFFFFFFFFFFFFFFFFFFFFFFFFFFFFFFFFFFFFFF AND DUP3 PUSH20 0xFFFFFFFFFFFFFFFFFFFFFFFFFFFFFFFFFFFFFFFF AND EQ ISZERO PUSH2 0x1DD7 JUMPI PUSH1 0x40 MLOAD PUSH32 0x8C379A000000000000000000000000000000000000000000000000000000000 DUP2 MSTORE PUSH1 0x4 ADD PUSH2 0x1DCE SWAP1 PUSH2 0x2465 JUMP JUMPDEST PUSH1 0x40 MLOAD DUP1 SWAP2 SUB SWAP1 REVERT JUMPDEST PUSH2 0x1DE3 PUSH1 0x0 DUP4 DUP4 PUSH2 0x1EC7 JUMP JUMPDEST DUP1 PUSH1 0x2 PUSH1 0x0 DUP3 DUP3 SLOAD PUSH2 0x1DF5 SWAP2 SWAP1 PUSH2 0x24D7 JUMP JUMPDEST SWAP3 POP POP DUP2 SWAP1 SSTORE POP DUP1 PUSH1 0x0 DUP1 DUP5 PUSH20 0xFFFFFFFFFFFFFFFFFFFFFFFFFFFFFFFFFFFFFFFF AND PUSH20 0xFFFFFFFFFFFFFFFFFFFFFFFFFFFFFFFFFFFFFFFF AND DUP2 MSTORE PUSH1 0x20 ADD SWAP1 DUP2 MSTORE PUSH1 0x20 ADD PUSH1 0x0 KECCAK256 PUSH1 0x0 DUP3 DUP3 SLOAD PUSH2 0x1E4A SWAP2 SWAP1 PUSH2 0x24D7 JUMP JUMPDEST SWAP3 POP POP DUP2 SWAP1 SSTORE POP DUP2 PUSH20 0xFFFFFFFFFFFFFFFFFFFFFFFFFFFFFFFFFFFFFFFF AND PUSH1 0x0 PUSH20 0xFFFFFFFFFFFFFFFFFFFFFFFFFFFFFFFFFFFFFFFF AND PUSH32 0xDDF252AD1BE2C89B69C2B068FC378DAA952BA7F163C4A11628F55A4DF523B3EF DUP4 PUSH1 0x40 MLOAD PUSH2 0x1EAF SWAP2 SWAP1 PUSH2 0x2485 JUMP JUMPDEST PUSH1 0x40 MLOAD DUP1 SWAP2 SUB SWAP1 LOG3 PUSH2 0x1EC3 PUSH1 0x0 DUP4 DUP4 PUSH2 0x1ECC JUMP JUMPDEST POP POP JUMP JUMPDEST POP POP POP JUMP JUMPDEST POP POP POP JUMP JUMPDEST PUSH1 0x0 DUP2 CALLDATALOAD SWAP1 POP PUSH2 0x1EE0 DUP2 PUSH2 0x2CB6 JUMP JUMPDEST SWAP3 SWAP2 POP POP JUMP JUMPDEST PUSH1 0x0 DUP2 CALLDATALOAD SWAP1 POP PUSH2 0x1EF5 DUP2 PUSH2 0x2CCD JUMP JUMPDEST SWAP3 SWAP2 POP POP JUMP JUMPDEST PUSH1 0x0 PUSH1 0x20 DUP3 DUP5 SUB SLT ISZERO PUSH2 0x1F11 JUMPI PUSH2 0x1F10 PUSH2 0x2902 JUMP JUMPDEST JUMPDEST PUSH1 0x0 PUSH2 0x1F1F DUP5 DUP3 DUP6 ADD PUSH2 0x1ED1 JUMP JUMPDEST SWAP2 POP POP SWAP3 SWAP2 POP POP JUMP JUMPDEST PUSH1 0x0 DUP1 PUSH1 0x40 DUP4 DUP6 SUB SLT ISZERO PUSH2 0x1F3F JUMPI PUSH2 0x1F3E PUSH2 0x2902 JUMP JUMPDEST JUMPDEST PUSH1 0x0 PUSH2 0x1F4D DUP6 DUP3 DUP7 ADD PUSH2 0x1ED1 JUMP JUMPDEST SWAP3 POP POP PUSH1 0x20 PUSH2 0x1F5E DUP6 DUP3 DUP7 ADD PUSH2 0x1ED1 JUMP JUMPDEST SWAP2 POP POP SWAP3 POP SWAP3 SWAP1 POP JUMP JUMPDEST PUSH1 0x0 DUP1 PUSH1 0x0 PUSH1 0x60 DUP5 DUP7 SUB SLT ISZERO PUSH2 0x1F81 JUMPI PUSH2 0x1F80 PUSH2 0x2902 JUMP JUMPDEST JUMPDEST PUSH1 0x0 PUSH2 0x1F8F DUP7 DUP3 DUP8 ADD PUSH2 0x1ED1 JUMP JUMPDEST SWAP4 POP POP PUSH1 0x20 PUSH2 0x1FA0 DUP7 DUP3 DUP8 ADD PUSH2 0x1ED1 JUMP JUMPDEST SWAP3 POP POP PUSH1 0x40 PUSH2 0x1FB1 DUP7 DUP3 DUP8 ADD PUSH2 0x1EE6 JUMP JUMPDEST SWAP2 POP POP SWAP3 POP SWAP3 POP SWAP3 JUMP JUMPDEST PUSH1 0x0 DUP1 PUSH1 0x40 DUP4 DUP6 SUB SLT ISZERO PUSH2 0x1FD2 JUMPI PUSH2 0x1FD1 PUSH2 0x2902 JUMP JUMPDEST JUMPDEST PUSH1 0x0 PUSH2 0x1FE0 DUP6 DUP3 DUP7 ADD PUSH2 0x1ED1 JUMP JUMPDEST SWAP3 POP POP PUSH1 0x20 PUSH2 0x1FF1 DUP6 DUP3 DUP7 ADD PUSH2 0x1EE6 JUMP JUMPDEST SWAP2 POP POP SWAP3 POP SWAP3 SWAP1 POP JUMP JUMPDEST PUSH1 0x0 PUSH1 0x20 DUP3 DUP5 SUB SLT ISZERO PUSH2 0x2011 JUMPI PUSH2 0x2010 PUSH2 0x2902 JUMP JUMPDEST JUMPDEST PUSH1 0x0 PUSH2 0x201F DUP5 DUP3 DUP6 ADD PUSH2 0x1EE6 JUMP JUMPDEST SWAP2 POP POP SWAP3 SWAP2 POP POP JUMP JUMPDEST PUSH2 0x2031 DUP2 PUSH2 0x275D JUMP JUMPDEST DUP3 MSTORE POP POP JUMP JUMPDEST PUSH2 0x2040 DUP2 PUSH2 0x276F JUMP JUMPDEST DUP3 MSTORE POP POP JUMP JUMPDEST PUSH1 0x0 PUSH2 0x2051 DUP3 PUSH2 0x24BB JUMP JUMPDEST PUSH2 0x205B DUP2 DUP6 PUSH2 0x24C6 JUMP JUMPDEST SWAP4 POP PUSH2 0x206B DUP2 DUP6 PUSH1 0x20 DUP7 ADD PUSH2 0x27B2 JUMP JUMPDEST PUSH2 0x2074 DUP2 PUSH2 0x2907 JUMP JUMPDEST DUP5 ADD SWAP2 POP POP SWAP3 SWAP2 POP POP JUMP JUMPDEST PUSH1 0x0 PUSH2 0x208C PUSH1 0x2D DUP4 PUSH2 0x24C6 JUMP JUMPDEST SWAP2 POP PUSH2 0x2097 DUP3 PUSH2 0x2925 JUMP JUMPDEST PUSH1 0x40 DUP3 ADD SWAP1 POP SWAP2 SWAP1 POP JUMP JUMPDEST PUSH1 0x0 PUSH2 0x20AF PUSH1 0x23 DUP4 PUSH2 0x24C6 JUMP JUMPDEST SWAP2 POP PUSH2 0x20BA DUP3 PUSH2 0x2974 JUMP JUMPDEST PUSH1 0x40 DUP3 ADD SWAP1 POP SWAP2 SWAP1 POP JUMP JUMPDEST PUSH1 0x0 PUSH2 0x20D2 PUSH1 0x22 DUP4 PUSH2 0x24C6 JUMP JUMPDEST SWAP2 POP PUSH2 0x20DD DUP3 PUSH2 0x29C3 JUMP JUMPDEST PUSH1 0x40 DUP3 ADD SWAP1 POP SWAP2 SWAP1 POP JUMP JUMPDEST PUSH1 0x0 PUSH2 0x20F5 PUSH1 0x26 DUP4 PUSH2 0x24C6 JUMP JUMPDEST SWAP2 POP PUSH2 0x2100 DUP3 PUSH2 0x2A12 JUMP JUMPDEST PUSH1 0x40 DUP3 ADD SWAP1 POP SWAP2 SWAP1 POP JUMP JUMPDEST PUSH1 0x0 PUSH2 0x2118 PUSH1 0x22 DUP4 PUSH2 0x24C6 JUMP JUMPDEST SWAP2 POP PUSH2 0x2123 DUP3 PUSH2 0x2A61 JUMP JUMPDEST PUSH1 0x40 DUP3 ADD SWAP1 POP SWAP2 SWAP1 POP JUMP JUMPDEST PUSH1 0x0 PUSH2 0x213B PUSH1 0x1D DUP4 PUSH2 0x24C6 JUMP JUMPDEST SWAP2 POP PUSH2 0x2146 DUP3 PUSH2 0x2AB0 JUMP JUMPDEST PUSH1 0x20 DUP3 ADD SWAP1 POP SWAP2 SWAP1 POP JUMP JUMPDEST PUSH1 0x0 PUSH2 0x215E PUSH1 0x26 DUP4 PUSH2 0x24C6 JUMP JUMPDEST SWAP2 POP PUSH2 0x2169 DUP3 PUSH2 0x2AD9 JUMP JUMPDEST PUSH1 0x40 DUP3 ADD SWAP1 POP SWAP2 SWAP1 POP JUMP JUMPDEST PUSH1 0x0 PUSH2 0x2181 PUSH1 0x20 DUP4 PUSH2 0x24C6 JUMP JUMPDEST SWAP2 POP PUSH2 0x218C DUP3 PUSH2 0x2B28 JUMP JUMPDEST PUSH1 0x20 DUP3 ADD SWAP1 POP SWAP2 SWAP1 POP JUMP JUMPDEST PUSH1 0x0 PUSH2 0x21A4 PUSH1 0x21 DUP4 PUSH2 0x24C6 JUMP JUMPDEST SWAP2 POP PUSH2 0x21AF DUP3 PUSH2 0x2B51 JUMP JUMPDEST PUSH1 0x40 DUP3 ADD SWAP1 POP SWAP2 SWAP1 POP JUMP JUMPDEST PUSH1 0x0 PUSH2 0x21C7 PUSH1 0x25 DUP4 PUSH2 0x24C6 JUMP JUMPDEST SWAP2 POP PUSH2 0x21D2 DUP3 PUSH2 0x2BA0 JUMP JUMPDEST PUSH1 0x40 DUP3 ADD SWAP1 POP SWAP2 SWAP1 POP JUMP JUMPDEST PUSH1 0x0 PUSH2 0x21EA PUSH1 0x24 DUP4 PUSH2 0x24C6 JUMP JUMPDEST SWAP2 POP PUSH2 0x21F5 DUP3 PUSH2 0x2BEF JUMP JUMPDEST PUSH1 0x40 DUP3 ADD SWAP1 POP SWAP2 SWAP1 POP JUMP JUMPDEST PUSH1 0x0 PUSH2 0x220D PUSH1 0x25 DUP4 PUSH2 0x24C6 JUMP JUMPDEST SWAP2 POP PUSH2 0x2218 DUP3 PUSH2 0x2C3E JUMP JUMPDEST PUSH1 0x40 DUP3 ADD SWAP1 POP SWAP2 SWAP1 POP JUMP JUMPDEST PUSH1 0x0 PUSH2 0x2230 PUSH1 0x1F DUP4 PUSH2 0x24C6 JUMP JUMPDEST SWAP2 POP PUSH2 0x223B DUP3 PUSH2 0x2C8D JUMP JUMPDEST PUSH1 0x20 DUP3 ADD SWAP1 POP SWAP2 SWAP1 POP JUMP JUMPDEST PUSH2 0x224F DUP2 PUSH2 0x279B JUMP JUMPDEST DUP3 MSTORE POP POP JUMP JUMPDEST PUSH2 0x225E DUP2 PUSH2 0x27A5 JUMP JUMPDEST DUP3 MSTORE POP POP JUMP JUMPDEST PUSH1 0x0 PUSH1 0x20 DUP3 ADD SWAP1 POP PUSH2 0x2279 PUSH1 0x0 DUP4 ADD DUP5 PUSH2 0x2028 JUMP JUMPDEST SWAP3 SWAP2 POP POP JUMP JUMPDEST PUSH1 0x0 PUSH1 0x20 DUP3 ADD SWAP1 POP PUSH2 0x2294 PUSH1 0x0 DUP4 ADD DUP5 PUSH2 0x2037 JUMP JUMPDEST SWAP3 SWAP2 POP POP JUMP JUMPDEST PUSH1 0x0 PUSH1 0x40 DUP3 ADD SWAP1 POP PUSH2 0x22AF PUSH1 0x0 DUP4 ADD DUP6 PUSH2 0x2037 JUMP JUMPDEST PUSH2 0x22BC PUSH1 0x20 DUP4 ADD DUP5 PUSH2 0x2246 JUMP JUMPDEST SWAP4 SWAP3 POP POP POP JUMP JUMPDEST PUSH1 0x0 PUSH1 0x20 DUP3 ADD SWAP1 POP DUP2 DUP2 SUB PUSH1 0x0 DUP4 ADD MSTORE PUSH2 0x22DD DUP2 DUP5 PUSH2 0x2046 JUMP JUMPDEST SWAP1 POP SWAP3 SWAP2 POP POP JUMP JUMPDEST PUSH1 0x0 PUSH1 0x20 DUP3 ADD SWAP1 POP DUP2 DUP2 SUB PUSH1 0x0 DUP4 ADD MSTORE PUSH2 0x22FE DUP2 PUSH2 0x207F JUMP JUMPDEST SWAP1 POP SWAP2 SWAP1 POP JUMP JUMPDEST PUSH1 0x0 PUSH1 0x20 DUP3 ADD SWAP1 POP DUP2 DUP2 SUB PUSH1 0x0 DUP4 ADD MSTORE PUSH2 0x231E DUP2 PUSH2 0x20A2 JUMP JUMPDEST SWAP1 POP SWAP2 SWAP1 POP JUMP JUMPDEST PUSH1 0x0 PUSH1 0x20 DUP3 ADD SWAP1 POP DUP2 DUP2 SUB PUSH1 0x0 DUP4 ADD MSTORE PUSH2 0x233E DUP2 PUSH2 0x20C5 JUMP JUMPDEST SWAP1 POP SWAP2 SWAP1 POP JUMP JUMPDEST PUSH1 0x0 PUSH1 0x20 DUP3 ADD SWAP1 POP DUP2 DUP2 SUB PUSH1 0x0 DUP4 ADD MSTORE PUSH2 0x235E DUP2 PUSH2 0x20E8 JUMP JUMPDEST SWAP1 POP SWAP2 SWAP1 POP JUMP JUMPDEST PUSH1 0x0 PUSH1 0x20 DUP3 ADD SWAP1 POP DUP2 DUP2 SUB PUSH1 0x0 DUP4 ADD MSTORE PUSH2 0x237E DUP2 PUSH2 0x210B JUMP JUMPDEST SWAP1 POP SWAP2 SWAP1 POP JUMP JUMPDEST PUSH1 0x0 PUSH1 0x20 DUP3 ADD SWAP1 POP DUP2 DUP2 SUB PUSH1 0x0 DUP4 ADD MSTORE PUSH2 0x239E DUP2 PUSH2 0x212E JUMP JUMPDEST SWAP1 POP SWAP2 SWAP1 POP JUMP JUMPDEST PUSH1 0x0 PUSH1 0x20 DUP3 ADD SWAP1 POP DUP2 DUP2 SUB PUSH1 0x0 DUP4 ADD MSTORE PUSH2 0x23BE DUP2 PUSH2 0x2151 JUMP JUMPDEST SWAP1 POP SWAP2 SWAP1 POP JUMP JUMPDEST PUSH1 0x0 PUSH1 0x20 DUP3 ADD SWAP1 POP DUP2 DUP2 SUB PUSH1 0x0 DUP4 ADD MSTORE PUSH2 0x23DE DUP2 PUSH2 0x2174 JUMP JUMPDEST SWAP1 POP SWAP2 SWAP1 POP JUMP JUMPDEST PUSH1 0x0 PUSH1 0x20 DUP3 ADD SWAP1 POP DUP2 DUP2 SUB PUSH1 0x0 DUP4 ADD MSTORE PUSH2 0x23FE DUP2 PUSH2 0x2197 JUMP JUMPDEST SWAP1 POP SWAP2 SWAP1 POP JUMP JUMPDEST PUSH1 0x0 PUSH1 0x20 DUP3 ADD SWAP1 POP DUP2 DUP2 SUB PUSH1 0x0 DUP4 ADD MSTORE PUSH2 0x241E DUP2 PUSH2 0x21BA JUMP JUMPDEST SWAP1 POP SWAP2 SWAP1 POP JUMP JUMPDEST PUSH1 0x0 PUSH1 0x20 DUP3 ADD SWAP1 POP DUP2 DUP2 SUB PUSH1 0x0 DUP4 ADD MSTORE PUSH2 0x243E DUP2 PUSH2 0x21DD JUMP JUMPDEST SWAP1 POP SWAP2 SWAP1 POP JUMP JUMPDEST PUSH1 0x0 PUSH1 0x20 DUP3 ADD SWAP1 POP DUP2 DUP2 SUB PUSH1 0x0 DUP4 ADD MSTORE PUSH2 0x245E DUP2 PUSH2 0x2200 JUMP JUMPDEST SWAP1 POP SWAP2 SWAP1 POP JUMP JUMPDEST PUSH1 0x0 PUSH1 0x20 DUP3 ADD SWAP1 POP DUP2 DUP2 SUB PUSH1 0x0 DUP4 ADD MSTORE PUSH2 0x247E DUP2 PUSH2 0x2223 JUMP JUMPDEST SWAP1 POP SWAP2 SWAP1 POP JUMP JUMPDEST PUSH1 0x0 PUSH1 0x20 DUP3 ADD SWAP1 POP PUSH2 0x249A PUSH1 0x0 DUP4 ADD DUP5 PUSH2 0x2246 JUMP JUMPDEST SWAP3 SWAP2 POP POP JUMP JUMPDEST PUSH1 0x0 PUSH1 0x20 DUP3 ADD SWAP1 POP PUSH2 0x24B5 PUSH1 0x0 DUP4 ADD DUP5 PUSH2 0x2255 JUMP JUMPDEST SWAP3 SWAP2 POP POP JUMP JUMPDEST PUSH1 0x0 DUP2 MLOAD SWAP1 POP SWAP2 SWAP1 POP JUMP JUMPDEST PUSH1 0x0 DUP3 DUP3 MSTORE PUSH1 0x20 DUP3 ADD SWAP1 POP SWAP3 SWAP2 POP POP JUMP JUMPDEST PUSH1 0x0 PUSH2 0x24E2 DUP3 PUSH2 0x279B JUMP JUMPDEST SWAP2 POP PUSH2 0x24ED DUP4 PUSH2 0x279B JUMP JUMPDEST SWAP3 POP DUP3 PUSH32 0xFFFFFFFFFFFFFFFFFFFFFFFFFFFFFFFFFFFFFFFFFFFFFFFFFFFFFFFFFFFFFFFF SUB DUP3 GT ISZERO PUSH2 0x2522 JUMPI PUSH2 0x2521 PUSH2 0x2817 JUMP JUMPDEST JUMPDEST DUP3 DUP3 ADD SWAP1 POP SWAP3 SWAP2 POP POP JUMP JUMPDEST PUSH1 0x0 PUSH2 0x2538 DUP3 PUSH2 0x279B JUMP JUMPDEST SWAP2 POP PUSH2 0x2543 DUP4 PUSH2 0x279B JUMP JUMPDEST SWAP3 POP DUP3 PUSH2 0x2553 JUMPI PUSH2 0x2552 PUSH2 0x2846 JUMP JUMPDEST JUMPDEST DUP3 DUP3 DIV SWAP1 POP SWAP3 SWAP2 POP POP JUMP JUMPDEST PUSH1 0x0 DUP1 DUP3 SWAP2 POP DUP4 SWAP1 POP JUMPDEST PUSH1 0x1 DUP6 GT ISZERO PUSH2 0x25A8 JUMPI DUP1 DUP7 DIV DUP2 GT ISZERO PUSH2 0x2584 JUMPI PUSH2 0x2583 PUSH2 0x2817 JUMP JUMPDEST JUMPDEST PUSH1 0x1 DUP6 AND ISZERO PUSH2 0x2593 JUMPI DUP1 DUP3 MUL SWAP2 POP JUMPDEST DUP1 DUP2 MUL SWAP1 POP PUSH2 0x25A1 DUP6 PUSH2 0x2918 JUMP JUMPDEST SWAP5 POP PUSH2 0x2568 JUMP JUMPDEST SWAP5 POP SWAP5 SWAP3 POP POP POP JUMP JUMPDEST PUSH1 0x0 PUSH2 0x25BC DUP3 PUSH2 0x279B JUMP JUMPDEST SWAP2 POP PUSH2 0x25C7 DUP4 PUSH2 0x27A5 JUMP JUMPDEST SWAP3 POP PUSH2 0x25F4 PUSH32 0xFFFFFFFFFFFFFFFFFFFFFFFFFFFFFFFFFFFFFFFFFFFFFFFFFFFFFFFFFFFFFFFF DUP5 DUP5 PUSH2 0x25FC JUMP JUMPDEST SWAP1 POP SWAP3 SWAP2 POP POP JUMP JUMPDEST PUSH1 0x0 DUP3 PUSH2 0x260C JUMPI PUSH1 0x1 SWAP1 POP PUSH2 0x26C8 JUMP JUMPDEST DUP2 PUSH2 0x261A JUMPI PUSH1 0x0 SWAP1 POP PUSH2 0x26C8 JUMP JUMPDEST DUP2 PUSH1 0x1 DUP2 EQ PUSH2 0x2630 JUMPI PUSH1 0x2 DUP2 EQ PUSH2 0x263A JUMPI PUSH2 0x2669 JUMP JUMPDEST PUSH1 0x1 SWAP2 POP POP PUSH2 0x26C8 JUMP JUMPDEST PUSH1 0xFF DUP5 GT ISZERO PUSH2 0x264C JUMPI PUSH2 0x264B PUSH2 0x2817 JUMP JUMPDEST JUMPDEST DUP4 PUSH1 0x2 EXP SWAP2 POP DUP5 DUP3 GT ISZERO PUSH2 0x2663 JUMPI PUSH2 0x2662 PUSH2 0x2817 JUMP JUMPDEST JUMPDEST POP PUSH2 0x26C8 JUMP JUMPDEST POP PUSH1 0x20 DUP4 LT PUSH2 0x133 DUP4 LT AND PUSH1 0x4E DUP5 LT PUSH1 0xB DUP5 LT AND OR ISZERO PUSH2 0x269E JUMPI DUP3 DUP3 EXP SWAP1 POP DUP4 DUP2 GT ISZERO PUSH2 0x2699 JUMPI PUSH2 0x2698 PUSH2 0x2817 JUMP JUMPDEST JUMPDEST PUSH2 0x26C8 JUMP JUMPDEST PUSH2 0x26AB DUP5 DUP5 DUP5 PUSH1 0x1 PUSH2 0x255E JUMP JUMPDEST SWAP3 POP SWAP1 POP DUP2 DUP5 DIV DUP2 GT ISZERO PUSH2 0x26C2 JUMPI PUSH2 0x26C1 PUSH2 0x2817 JUMP JUMPDEST JUMPDEST DUP2 DUP2 MUL SWAP1 POP JUMPDEST SWAP4 SWAP3 POP POP POP JUMP JUMPDEST PUSH1 0x0 PUSH2 0x26DA DUP3 PUSH2 0x279B JUMP JUMPDEST SWAP2 POP PUSH2 0x26E5 DUP4 PUSH2 0x279B JUMP JUMPDEST SWAP3 POP DUP2 PUSH32 0xFFFFFFFFFFFFFFFFFFFFFFFFFFFFFFFFFFFFFFFFFFFFFFFFFFFFFFFFFFFFFFFF DIV DUP4 GT DUP3 ISZERO ISZERO AND ISZERO PUSH2 0x271E JUMPI PUSH2 0x271D PUSH2 0x2817 JUMP JUMPDEST JUMPDEST DUP3 DUP3 MUL SWAP1 POP SWAP3 SWAP2 POP POP JUMP JUMPDEST PUSH1 0x0 PUSH2 0x2734 DUP3 PUSH2 0x279B JUMP JUMPDEST SWAP2 POP PUSH2 0x273F DUP4 PUSH2 0x279B JUMP JUMPDEST SWAP3 POP DUP3 DUP3 LT ISZERO PUSH2 0x2752 JUMPI PUSH2 0x2751 PUSH2 0x2817 JUMP JUMPDEST JUMPDEST DUP3 DUP3 SUB SWAP1 POP SWAP3 SWAP2 POP POP JUMP JUMPDEST PUSH1 0x0 PUSH2 0x2768 DUP3 PUSH2 0x277B JUMP JUMPDEST SWAP1 POP SWAP2 SWAP1 POP JUMP JUMPDEST PUSH1 0x0 DUP2 ISZERO ISZERO SWAP1 POP SWAP2 SWAP1 POP JUMP JUMPDEST PUSH1 0x0 PUSH20 0xFFFFFFFFFFFFFFFFFFFFFFFFFFFFFFFFFFFFFFFF DUP3 AND SWAP1 POP SWAP2 SWAP1 POP JUMP JUMPDEST PUSH1 0x0 DUP2 SWAP1 POP SWAP2 SWAP1 POP JUMP JUMPDEST PUSH1 0x0 PUSH1 0xFF DUP3 AND SWAP1 POP SWAP2 SWAP1 POP JUMP JUMPDEST PUSH1 0x0 JUMPDEST DUP4 DUP2 LT ISZERO PUSH2 0x27D0 JUMPI DUP1 DUP3 ADD MLOAD DUP2 DUP5 ADD MSTORE PUSH1 0x20 DUP2 ADD SWAP1 POP PUSH2 0x27B5 JUMP JUMPDEST DUP4 DUP2 GT ISZERO PUSH2 0x27DF JUMPI PUSH1 0x0 DUP5 DUP5 ADD MSTORE JUMPDEST POP POP POP POP JUMP JUMPDEST PUSH1 0x0 PUSH1 0x2 DUP3 DIV SWAP1 POP PUSH1 0x1 DUP3 AND DUP1 PUSH2 0x27FD JUMPI PUSH1 0x7F DUP3 AND SWAP2 POP JUMPDEST PUSH1 0x20 DUP3 LT DUP2 EQ ISZERO PUSH2 0x2811 JUMPI PUSH2 0x2810 PUSH2 0x2875 JUMP JUMPDEST JUMPDEST POP SWAP2 SWAP1 POP JUMP JUMPDEST PUSH32 0x4E487B7100000000000000000000000000000000000000000000000000000000 PUSH1 0x0 MSTORE PUSH1 0x11 PUSH1 0x4 MSTORE PUSH1 0x24 PUSH1 0x0 REVERT JUMPDEST PUSH32 0x4E487B7100000000000000000000000000000000000000000000000000000000 PUSH1 0x0 MSTORE PUSH1 0x12 PUSH1 0x4 MSTORE PUSH1 0x24 PUSH1 0x0 REVERT JUMPDEST PUSH32 0x4E487B7100000000000000000000000000000000000000000000000000000000 PUSH1 0x0 MSTORE PUSH1 0x22 PUSH1 0x4 MSTORE PUSH1 0x24 PUSH1 0x0 REVERT JUMPDEST PUSH32 0x4E487B7100000000000000000000000000000000000000000000000000000000 PUSH1 0x0 MSTORE PUSH1 0x31 PUSH1 0x4 MSTORE PUSH1 0x24 PUSH1 0x0 REVERT JUMPDEST PUSH32 0x4E487B7100000000000000000000000000000000000000000000000000000000 PUSH1 0x0 MSTORE PUSH1 0x32 PUSH1 0x4 MSTORE PUSH1 0x24 PUSH1 0x0 REVERT JUMPDEST PUSH1 0x0 DUP1 REVERT JUMPDEST PUSH1 0x0 PUSH1 0x1F NOT PUSH1 0x1F DUP4 ADD AND SWAP1 POP SWAP2 SWAP1 POP JUMP JUMPDEST PUSH1 0x0 DUP2 PUSH1 0x1 SHR SWAP1 POP SWAP2 SWAP1 POP JUMP JUMPDEST PUSH32 0x4F6E6C7920746865204F776E65722063616E2073657420746865207072696365 PUSH1 0x0 DUP3 ADD MSTORE PUSH32 0x206F662074686520746F6B656E00000000000000000000000000000000000000 PUSH1 0x20 DUP3 ADD MSTORE POP JUMP JUMPDEST PUSH32 0x45524332303A207472616E7366657220746F20746865207A65726F2061646472 PUSH1 0x0 DUP3 ADD MSTORE PUSH32 0x6573730000000000000000000000000000000000000000000000000000000000 PUSH1 0x20 DUP3 ADD MSTORE POP JUMP JUMPDEST PUSH32 0x45524332303A206275726E20616D6F756E7420657863656564732062616C616E PUSH1 0x0 DUP3 ADD MSTORE PUSH32 0x6365000000000000000000000000000000000000000000000000000000000000 PUSH1 0x20 DUP3 ADD MSTORE POP JUMP JUMPDEST PUSH32 0x4F776E61626C653A206E6577206F776E657220697320746865207A65726F2061 PUSH1 0x0 DUP3 ADD MSTORE PUSH32 0x6464726573730000000000000000000000000000000000000000000000000000 PUSH1 0x20 DUP3 ADD MSTORE POP JUMP JUMPDEST PUSH32 0x45524332303A20617070726F766520746F20746865207A65726F206164647265 PUSH1 0x0 DUP3 ADD MSTORE PUSH32 0x7373000000000000000000000000000000000000000000000000000000000000 PUSH1 0x20 DUP3 ADD MSTORE POP JUMP JUMPDEST PUSH32 0x45524332303A20696E73756666696369656E7420616C6C6F77616E6365000000 PUSH1 0x0 DUP3 ADD MSTORE POP JUMP JUMPDEST PUSH32 0x45524332303A207472616E7366657220616D6F756E7420657863656564732062 PUSH1 0x0 DUP3 ADD MSTORE PUSH32 0x616C616E63650000000000000000000000000000000000000000000000000000 PUSH1 0x20 DUP3 ADD MSTORE POP JUMP JUMPDEST PUSH32 0x4F776E61626C653A2063616C6C6572206973206E6F7420746865206F776E6572 PUSH1 0x0 DUP3 ADD MSTORE POP JUMP JUMPDEST PUSH32 0x45524332303A206275726E2066726F6D20746865207A65726F20616464726573 PUSH1 0x0 DUP3 ADD MSTORE PUSH32 0x7300000000000000000000000000000000000000000000000000000000000000 PUSH1 0x20 DUP3 ADD MSTORE POP JUMP JUMPDEST PUSH32 0x45524332303A207472616E736665722066726F6D20746865207A65726F206164 PUSH1 0x0 DUP3 ADD MSTORE PUSH32 0x6472657373000000000000000000000000000000000000000000000000000000 PUSH1 0x20 DUP3 ADD MSTORE POP JUMP JUMPDEST PUSH32 0x45524332303A20617070726F76652066726F6D20746865207A65726F20616464 PUSH1 0x0 DUP3 ADD MSTORE PUSH32 0x7265737300000000000000000000000000000000000000000000000000000000 PUSH1 0x20 DUP3 ADD MSTORE POP JUMP JUMPDEST PUSH32 0x45524332303A2064656372656173656420616C6C6F77616E63652062656C6F77 PUSH1 0x0 DUP3 ADD MSTORE PUSH32 0x207A65726F000000000000000000000000000000000000000000000000000000 PUSH1 0x20 DUP3 ADD MSTORE POP JUMP JUMPDEST PUSH32 0x45524332303A206D696E7420746F20746865207A65726F206164647265737300 PUSH1 0x0 DUP3 ADD MSTORE POP JUMP JUMPDEST PUSH2 0x2CBF DUP2 PUSH2 0x275D JUMP JUMPDEST DUP2 EQ PUSH2 0x2CCA JUMPI PUSH1 0x0 DUP1 REVERT JUMPDEST POP JUMP JUMPDEST PUSH2 0x2CD6 DUP2 PUSH2 0x279B JUMP JUMPDEST DUP2 EQ PUSH2 0x2CE1 JUMPI PUSH1 0x0 DUP1 REVERT JUMPDEST POP JUMP INVALID LOG2 PUSH5 0x6970667358 0x22 SLT KECCAK256 0xBE LOG3 0x4B DUP12 0xCC 0xE7 PUSH8 0x31EB63FCC3F0141B PC LOG3 0xB9 DUP13 0x4B CREATE 0x28 PUSH30 0xD28422D13C29A8D22664736F6C6343000807003300000000000000000000 "
				},
				"gasEstimates": {
					"creation": {
						"codeDepositCost": "2309200",
						"executionCost": "infinite",
						"totalCost": "infinite"
					},
					"external": {
						"_buyTokenPrice()": "2519",
						"_owner()": "2625",
						"addStakeholder(address)": "infinite",
						"allowance(address,address)": "infinite",
						"approve(address,uint256)": "infinite",
						"balanceOf(address)": "2952",
						"buyToken(address)": "infinite",
						"calculateReward(address)": "infinite",
						"checkTime()": "infinite",
						"createStake(uint256)": "infinite",
						"decimals()": "411",
						"decreaseAllowance(address,uint256)": "infinite",
						"distributeRewards()": "infinite",
						"increaseAllowance(address,uint256)": "infinite",
						"isStakeholder(address)": "infinite",
						"name()": "infinite",
						"owner()": "2612",
						"removeStake(uint256)": "infinite",
						"removeStakeholder(address)": "infinite",
						"renounceOwnership()": "30420",
						"rewardOf(address)": "2953",
						"setTokenBuyPrice(uint256)": "24757",
						"stakeOf(address)": "2886",
						"symbol()": "infinite",
						"totalRewards()": "infinite",
						"totalSupply()": "2505",
						"transfer(address,uint256)": "infinite",
						"transferFrom(address,address,uint256)": "infinite",
						"transferOwnership(address)": "30833",
						"withdrawReward()": "infinite",
						"zenyaPerEth()": "2476"
					}
				},
				"methodIdentifiers": {
					"_buyTokenPrice()": "35789c8b",
					"_owner()": "b2bdfa7b",
					"addStakeholder(address)": "e5c42fd1",
					"allowance(address,address)": "dd62ed3e",
					"approve(address,uint256)": "095ea7b3",
					"balanceOf(address)": "70a08231",
					"buyToken(address)": "7e72fb52",
					"calculateReward(address)": "d82e3962",
					"checkTime()": "e0c6190d",
					"createStake(uint256)": "1bf6ddae",
					"decimals()": "313ce567",
					"decreaseAllowance(address,uint256)": "a457c2d7",
					"distributeRewards()": "6f4a2cd0",
					"increaseAllowance(address,uint256)": "39509351",
					"isStakeholder(address)": "ef037b90",
					"name()": "06fdde03",
					"owner()": "8da5cb5b",
					"removeStake(uint256)": "939624ab",
					"removeStakeholder(address)": "bcb0c2d7",
					"renounceOwnership()": "715018a6",
					"rewardOf(address)": "1d62ebd9",
					"setTokenBuyPrice(uint256)": "4be21e33",
					"stakeOf(address)": "42623360",
					"symbol()": "95d89b41",
					"totalRewards()": "0e15561a",
					"totalSupply()": "18160ddd",
					"transfer(address,uint256)": "a9059cbb",
					"transferFrom(address,address,uint256)": "23b872dd",
					"transferOwnership(address)": "f2fde38b",
					"withdrawReward()": "c885bc58",
					"zenyaPerEth()": "046e2edb"
				}
			},
			"userdoc": {
				"kind": "user",
				"methods": {},
				"version": 1
			}
		}
	}
}