{
	"contracts/ZenyaStake.sol": {
		"ZenyaStake": {
			"abi": [
				{
					"inputs": [],
					"stateMutability": "nonpayable",
					"type": "constructor"
				},
				{
					"anonymous": false,
					"inputs": [
						{
							"indexed": true,
							"internalType": "address",
							"name": "owner",
							"type": "address"
						},
						{
							"indexed": true,
							"internalType": "address",
							"name": "spender",
							"type": "address"
						},
						{
							"indexed": false,
							"internalType": "uint256",
							"name": "value",
							"type": "uint256"
						}
					],
					"name": "Approval",
					"type": "event"
				},
				{
					"anonymous": false,
					"inputs": [
						{
							"indexed": true,
							"internalType": "address",
							"name": "previousOwner",
							"type": "address"
						},
						{
							"indexed": true,
							"internalType": "address",
							"name": "newOwner",
							"type": "address"
						}
					],
					"name": "OwnershipTransferred",
					"type": "event"
				},
				{
					"anonymous": false,
					"inputs": [
						{
							"indexed": true,
							"internalType": "address",
							"name": "from",
							"type": "address"
						},
						{
							"indexed": true,
							"internalType": "address",
							"name": "to",
							"type": "address"
						},
						{
							"indexed": false,
							"internalType": "uint256",
							"name": "value",
							"type": "uint256"
						}
					],
					"name": "Transfer",
					"type": "event"
				},
				{
					"inputs": [],
					"name": "_buyTokenPrice",
					"outputs": [
						{
							"internalType": "uint256",
							"name": "",
							"type": "uint256"
						}
					],
					"stateMutability": "view",
					"type": "function"
				},
				{
					"inputs": [],
					"name": "_owner",
					"outputs": [
						{
							"internalType": "address",
							"name": "",
							"type": "address"
						}
					],
					"stateMutability": "view",
					"type": "function"
				},
				{
					"inputs": [
						{
							"internalType": "address",
							"name": "owner",
							"type": "address"
						},
						{
							"internalType": "address",
							"name": "spender",
							"type": "address"
						}
					],
					"name": "allowance",
					"outputs": [
						{
							"internalType": "uint256",
							"name": "",
							"type": "uint256"
						}
					],
					"stateMutability": "view",
					"type": "function"
				},
				{
					"inputs": [
						{
							"internalType": "address",
							"name": "spender",
							"type": "address"
						},
						{
							"internalType": "uint256",
							"name": "amount",
							"type": "uint256"
						}
					],
					"name": "approve",
					"outputs": [
						{
							"internalType": "bool",
							"name": "",
							"type": "bool"
						}
					],
					"stateMutability": "nonpayable",
					"type": "function"
				},
				{
					"inputs": [
						{
							"internalType": "address",
							"name": "account",
							"type": "address"
						}
					],
					"name": "balanceOf",
					"outputs": [
						{
							"internalType": "uint256",
							"name": "",
							"type": "uint256"
						}
					],
					"stateMutability": "view",
					"type": "function"
				},
				{
					"inputs": [
						{
							"internalType": "address",
							"name": "receiver",
							"type": "address"
						}
					],
					"name": "buyToken",
					"outputs": [],
					"stateMutability": "payable",
					"type": "function"
				},
				{
					"inputs": [],
					"name": "decimals",
					"outputs": [
						{
							"internalType": "uint8",
							"name": "",
							"type": "uint8"
						}
					],
					"stateMutability": "view",
					"type": "function"
				},
				{
					"inputs": [
						{
							"internalType": "address",
							"name": "spender",
							"type": "address"
						},
						{
							"internalType": "uint256",
							"name": "subtractedValue",
							"type": "uint256"
						}
					],
					"name": "decreaseAllowance",
					"outputs": [
						{
							"internalType": "bool",
							"name": "",
							"type": "bool"
						}
					],
					"stateMutability": "nonpayable",
					"type": "function"
				},
				{
					"inputs": [
						{
							"internalType": "address",
							"name": "spender",
							"type": "address"
						},
						{
							"internalType": "uint256",
							"name": "addedValue",
							"type": "uint256"
						}
					],
					"name": "increaseAllowance",
					"outputs": [
						{
							"internalType": "bool",
							"name": "",
							"type": "bool"
						}
					],
					"stateMutability": "nonpayable",
					"type": "function"
				},
				{
					"inputs": [],
					"name": "name",
					"outputs": [
						{
							"internalType": "string",
							"name": "",
							"type": "string"
						}
					],
					"stateMutability": "view",
					"type": "function"
				},
				{
					"inputs": [],
					"name": "owner",
					"outputs": [
						{
							"internalType": "address",
							"name": "",
							"type": "address"
						}
					],
					"stateMutability": "view",
					"type": "function"
				},
				{
					"inputs": [],
					"name": "renounceOwnership",
					"outputs": [],
					"stateMutability": "nonpayable",
					"type": "function"
				},
				{
					"inputs": [
						{
							"internalType": "uint256",
							"name": "buyPrice",
							"type": "uint256"
						}
					],
					"name": "setTokenBuyPrice",
					"outputs": [],
					"stateMutability": "nonpayable",
					"type": "function"
				},
				{
					"inputs": [],
					"name": "symbol",
					"outputs": [
						{
							"internalType": "string",
							"name": "",
							"type": "string"
						}
					],
					"stateMutability": "view",
					"type": "function"
				},
				{
					"inputs": [],
					"name": "totalSupply",
					"outputs": [
						{
							"internalType": "uint256",
							"name": "",
							"type": "uint256"
						}
					],
					"stateMutability": "view",
					"type": "function"
				},
				{
					"inputs": [
						{
							"internalType": "address",
							"name": "to",
							"type": "address"
						},
						{
							"internalType": "uint256",
							"name": "amount",
							"type": "uint256"
						}
					],
					"name": "transfer",
					"outputs": [
						{
							"internalType": "bool",
							"name": "",
							"type": "bool"
						}
					],
					"stateMutability": "nonpayable",
					"type": "function"
				},
				{
					"inputs": [
						{
							"internalType": "address",
							"name": "from",
							"type": "address"
						},
						{
							"internalType": "address",
							"name": "to",
							"type": "address"
						},
						{
							"internalType": "uint256",
							"name": "amount",
							"type": "uint256"
						}
					],
					"name": "transferFrom",
					"outputs": [
						{
							"internalType": "bool",
							"name": "",
							"type": "bool"
						}
					],
					"stateMutability": "nonpayable",
					"type": "function"
				},
				{
					"inputs": [
						{
							"internalType": "address",
							"name": "newOwner",
							"type": "address"
						}
					],
					"name": "transferOwnership",
					"outputs": [],
					"stateMutability": "nonpayable",
					"type": "function"
				},
				{
					"inputs": [],
					"name": "zenyaPerEth",
					"outputs": [
						{
							"internalType": "uint256",
							"name": "",
							"type": "uint256"
						}
					],
					"stateMutability": "view",
					"type": "function"
				}
			],
			"devdoc": {
				"kind": "dev",
				"methods": {
					"allowance(address,address)": {
						"details": "See {IERC20-allowance}."
					},
					"approve(address,uint256)": {
						"details": "See {IERC20-approve}. NOTE: If `amount` is the maximum `uint256`, the allowance is not updated on `transferFrom`. This is semantically equivalent to an infinite approval. Requirements: - `spender` cannot be the zero address."
					},
					"balanceOf(address)": {
						"details": "See {IERC20-balanceOf}."
					},
					"decimals()": {
						"details": "Returns the number of decimals used to get its user representation. For example, if `decimals` equals `2`, a balance of `505` tokens should be displayed to a user as `5.05` (`505 / 10 ** 2`). Tokens usually opt for a value of 18, imitating the relationship between Ether and Wei. This is the value {ERC20} uses, unless this function is overridden; NOTE: This information is only used for _display_ purposes: it in no way affects any of the arithmetic of the contract, including {IERC20-balanceOf} and {IERC20-transfer}."
					},
					"decreaseAllowance(address,uint256)": {
						"details": "Atomically decreases the allowance granted to `spender` by the caller. This is an alternative to {approve} that can be used as a mitigation for problems described in {IERC20-approve}. Emits an {Approval} event indicating the updated allowance. Requirements: - `spender` cannot be the zero address. - `spender` must have allowance for the caller of at least `subtractedValue`."
					},
					"increaseAllowance(address,uint256)": {
						"details": "Atomically increases the allowance granted to `spender` by the caller. This is an alternative to {approve} that can be used as a mitigation for problems described in {IERC20-approve}. Emits an {Approval} event indicating the updated allowance. Requirements: - `spender` cannot be the zero address."
					},
					"name()": {
						"details": "Returns the name of the token."
					},
					"owner()": {
						"details": "Returns the address of the current owner."
					},
					"renounceOwnership()": {
						"details": "Leaves the contract without owner. It will not be possible to call `onlyOwner` functions anymore. Can only be called by the current owner. NOTE: Renouncing ownership will leave the contract without an owner, thereby removing any functionality that is only available to the owner."
					},
					"symbol()": {
						"details": "Returns the symbol of the token, usually a shorter version of the name."
					},
					"totalSupply()": {
						"details": "See {IERC20-totalSupply}."
					},
					"transfer(address,uint256)": {
						"details": "See {IERC20-transfer}. Requirements: - `to` cannot be the zero address. - the caller must have a balance of at least `amount`."
					},
					"transferFrom(address,address,uint256)": {
						"details": "See {IERC20-transferFrom}. Emits an {Approval} event indicating the updated allowance. This is not required by the EIP. See the note at the beginning of {ERC20}. NOTE: Does not update the allowance if the current allowance is the maximum `uint256`. Requirements: - `from` and `to` cannot be the zero address. - `from` must have a balance of at least `amount`. - the caller must have allowance for ``from``'s tokens of at least `amount`."
					},
					"transferOwnership(address)": {
						"details": "Transfers ownership of the contract to a new account (`newOwner`). Can only be called by the current owner."
					}
				},
				"version": 1
			},
			"evm": {
				"assembly": "    /* \"contracts/ZenyaStake.sol\":173:1554  contract ZenyaStake is ERC20, Ownable  {... */\n  mstore(0x40, 0x80)\n    /* \"contracts/ZenyaStake.sol\":559:662  constructor() ERC20(\"ZenyaStake\", \"ZNYS\") {... */\n  callvalue\n  dup1\n  iszero\n  tag_1\n  jumpi\n  0x00\n  dup1\n  revert\ntag_1:\n  pop\n    /* \"@openzeppelin/contracts/token/ERC20/ERC20.sol\":1978:2091  constructor(string memory name_, string memory symbol_) {... */\n  mload(0x40)\n  dup1\n  0x40\n  add\n  0x40\n  mstore\n  dup1\n  0x0a\n  dup2\n  mstore\n  0x20\n  add\n  0x5a656e79615374616b6500000000000000000000000000000000000000000000\n  dup2\n  mstore\n  pop\n  mload(0x40)\n  dup1\n  0x40\n  add\n  0x40\n  mstore\n  dup1\n  0x04\n  dup2\n  mstore\n  0x20\n  add\n  0x5a4e595300000000000000000000000000000000000000000000000000000000\n  dup2\n  mstore\n  pop\n    /* \"@openzeppelin/contracts/token/ERC20/ERC20.sol\":2052:2057  name_ */\n  dup2\n    /* \"@openzeppelin/contracts/token/ERC20/ERC20.sol\":2044:2049  _name */\n  0x03\n    /* \"@openzeppelin/contracts/token/ERC20/ERC20.sol\":2044:2057  _name = name_ */\n  swap1\n  dup1\n  mload\n  swap1\n  0x20\n  add\n  swap1\n  tag_6\n  swap3\n  swap2\n  swap1\n  tag_7\n  jump\t// in\ntag_6:\n  pop\n    /* \"@openzeppelin/contracts/token/ERC20/ERC20.sol\":2077:2084  symbol_ */\n  dup1\n    /* \"@openzeppelin/contracts/token/ERC20/ERC20.sol\":2067:2074  _symbol */\n  0x04\n    /* \"@openzeppelin/contracts/token/ERC20/ERC20.sol\":2067:2084  _symbol = symbol_ */\n  swap1\n  dup1\n  mload\n  swap1\n  0x20\n  add\n  swap1\n  tag_8\n  swap3\n  swap2\n  swap1\n  tag_7\n  jump\t// in\ntag_8:\n  pop\n    /* \"@openzeppelin/contracts/token/ERC20/ERC20.sol\":1978:2091  constructor(string memory name_, string memory symbol_) {... */\n  pop\n  pop\n    /* \"@openzeppelin/contracts/access/Ownable.sol\":921:953  _transferOwnership(_msgSender()) */\n  tag_10\n    /* \"@openzeppelin/contracts/access/Ownable.sol\":940:952  _msgSender() */\n  tag_11\n    /* \"@openzeppelin/contracts/access/Ownable.sol\":940:950  _msgSender */\n  shl(0x20, tag_12)\n    /* \"@openzeppelin/contracts/access/Ownable.sol\":940:952  _msgSender() */\n  0x20\n  shr\n  jump\t// in\ntag_11:\n    /* \"@openzeppelin/contracts/access/Ownable.sol\":921:939  _transferOwnership */\n  shl(0x20, tag_13)\n    /* \"@openzeppelin/contracts/access/Ownable.sol\":921:953  _transferOwnership(_msgSender()) */\n  0x20\n  shr\n  jump\t// in\ntag_10:\n    /* \"contracts/ZenyaStake.sol\":612:654  _mint(msg.sender, 1000 * 10 ** decimals()) */\n  tag_15\n    /* \"contracts/ZenyaStake.sol\":618:628  msg.sender */\n  caller\n    /* \"contracts/ZenyaStake.sol\":643:653  decimals() */\n  tag_16\n    /* \"contracts/ZenyaStake.sol\":643:651  decimals */\n  shl(0x20, tag_17)\n    /* \"contracts/ZenyaStake.sol\":643:653  decimals() */\n  0x20\n  shr\n  jump\t// in\ntag_16:\n    /* \"contracts/ZenyaStake.sol\":637:639  10 */\n  0x0a\n    /* \"contracts/ZenyaStake.sol\":637:653  10 ** decimals() */\n  tag_18\n  swap2\n  swap1\n  tag_19\n  jump\t// in\ntag_18:\n    /* \"contracts/ZenyaStake.sol\":630:634  1000 */\n  0x03e8\n    /* \"contracts/ZenyaStake.sol\":630:653  1000 * 10 ** decimals() */\n  tag_20\n  swap2\n  swap1\n  tag_21\n  jump\t// in\ntag_20:\n    /* \"contracts/ZenyaStake.sol\":612:617  _mint */\n  shl(0x20, tag_22)\n    /* \"contracts/ZenyaStake.sol\":612:654  _mint(msg.sender, 1000 * 10 ** decimals()) */\n  0x20\n  shr\n  jump\t// in\ntag_15:\n    /* \"contracts/ZenyaStake.sol\":173:1554  contract ZenyaStake is ERC20, Ownable  {... */\n  jump(tag_23)\n    /* \"@openzeppelin/contracts/utils/Context.sol\":640:736  function _msgSender() internal view virtual returns (address) {... */\ntag_12:\n    /* \"@openzeppelin/contracts/utils/Context.sol\":693:700  address */\n  0x00\n    /* \"@openzeppelin/contracts/utils/Context.sol\":719:729  msg.sender */\n  caller\n    /* \"@openzeppelin/contracts/utils/Context.sol\":712:729  return msg.sender */\n  swap1\n  pop\n    /* \"@openzeppelin/contracts/utils/Context.sol\":640:736  function _msgSender() internal view virtual returns (address) {... */\n  swap1\n  jump\t// out\n    /* \"@openzeppelin/contracts/access/Ownable.sol\":2270:2457  function _transferOwnership(address newOwner) internal virtual {... */\ntag_13:\n    /* \"@openzeppelin/contracts/access/Ownable.sol\":2343:2359  address oldOwner */\n  0x00\n    /* \"@openzeppelin/contracts/access/Ownable.sol\":2362:2368  _owner */\n  0x05\n  0x00\n  swap1\n  sload\n  swap1\n  0x0100\n  exp\n  swap1\n  div\n  0xffffffffffffffffffffffffffffffffffffffff\n  and\n    /* \"@openzeppelin/contracts/access/Ownable.sol\":2343:2368  address oldOwner = _owner */\n  swap1\n  pop\n    /* \"@openzeppelin/contracts/access/Ownable.sol\":2387:2395  newOwner */\n  dup2\n    /* \"@openzeppelin/contracts/access/Ownable.sol\":2378:2384  _owner */\n  0x05\n  0x00\n    /* \"@openzeppelin/contracts/access/Ownable.sol\":2378:2395  _owner = newOwner */\n  0x0100\n  exp\n  dup2\n  sload\n  dup2\n  0xffffffffffffffffffffffffffffffffffffffff\n  mul\n  not\n  and\n  swap1\n  dup4\n  0xffffffffffffffffffffffffffffffffffffffff\n  and\n  mul\n  or\n  swap1\n  sstore\n  pop\n    /* \"@openzeppelin/contracts/access/Ownable.sol\":2441:2449  newOwner */\n  dup2\n    /* \"@openzeppelin/contracts/access/Ownable.sol\":2410:2450  OwnershipTransferred(oldOwner, newOwner) */\n  0xffffffffffffffffffffffffffffffffffffffff\n  and\n    /* \"@openzeppelin/contracts/access/Ownable.sol\":2431:2439  oldOwner */\n  dup2\n    /* \"@openzeppelin/contracts/access/Ownable.sol\":2410:2450  OwnershipTransferred(oldOwner, newOwner) */\n  0xffffffffffffffffffffffffffffffffffffffff\n  and\n  0x8be0079c531659141344cd1fd0a4f28419497f9722a3daafe3b4186f6b6457e0\n  mload(0x40)\n  mload(0x40)\n  dup1\n  swap2\n  sub\n  swap1\n  log3\n    /* \"@openzeppelin/contracts/access/Ownable.sol\":2333:2457  {... */\n  pop\n    /* \"@openzeppelin/contracts/access/Ownable.sol\":2270:2457  function _transferOwnership(address newOwner) internal virtual {... */\n  pop\n  jump\t// out\n    /* \"@openzeppelin/contracts/token/ERC20/ERC20.sol\":3093:3184  function decimals() public view virtual override returns (uint8) {... */\ntag_17:\n    /* \"@openzeppelin/contracts/token/ERC20/ERC20.sol\":3151:3156  uint8 */\n  0x00\n    /* \"@openzeppelin/contracts/token/ERC20/ERC20.sol\":3175:3177  18 */\n  0x12\n    /* \"@openzeppelin/contracts/token/ERC20/ERC20.sol\":3168:3177  return 18 */\n  swap1\n  pop\n    /* \"@openzeppelin/contracts/token/ERC20/ERC20.sol\":3093:3184  function decimals() public view virtual override returns (uint8) {... */\n  swap1\n  jump\t// out\n    /* \"@openzeppelin/contracts/token/ERC20/ERC20.sol\":8415:8804  function _mint(address account, uint256 amount) internal virtual {... */\ntag_22:\n    /* \"@openzeppelin/contracts/token/ERC20/ERC20.sol\":8517:8518  0 */\n  0x00\n    /* \"@openzeppelin/contracts/token/ERC20/ERC20.sol\":8498:8519  account != address(0) */\n  0xffffffffffffffffffffffffffffffffffffffff\n  and\n    /* \"@openzeppelin/contracts/token/ERC20/ERC20.sol\":8498:8505  account */\n  dup3\n    /* \"@openzeppelin/contracts/token/ERC20/ERC20.sol\":8498:8519  account != address(0) */\n  0xffffffffffffffffffffffffffffffffffffffff\n  and\n  eq\n  iszero\n    /* \"@openzeppelin/contracts/token/ERC20/ERC20.sol\":8490:8555  require(account != address(0), \"ERC20: mint to the zero address\") */\n  tag_28\n  jumpi\n  mload(0x40)\n  0x08c379a000000000000000000000000000000000000000000000000000000000\n  dup2\n  mstore\n  0x04\n  add\n  tag_29\n  swap1\n  tag_30\n  jump\t// in\ntag_29:\n  mload(0x40)\n  dup1\n  swap2\n  sub\n  swap1\n  revert\ntag_28:\n    /* \"@openzeppelin/contracts/token/ERC20/ERC20.sol\":8566:8615  _beforeTokenTransfer(address(0), account, amount) */\n  tag_31\n    /* \"@openzeppelin/contracts/token/ERC20/ERC20.sol\":8595:8596  0 */\n  0x00\n    /* \"@openzeppelin/contracts/token/ERC20/ERC20.sol\":8599:8606  account */\n  dup4\n    /* \"@openzeppelin/contracts/token/ERC20/ERC20.sol\":8608:8614  amount */\n  dup4\n    /* \"@openzeppelin/contracts/token/ERC20/ERC20.sol\":8566:8586  _beforeTokenTransfer */\n  shl(0x20, tag_32)\n    /* \"@openzeppelin/contracts/token/ERC20/ERC20.sol\":8566:8615  _beforeTokenTransfer(address(0), account, amount) */\n  0x20\n  shr\n  jump\t// in\ntag_31:\n    /* \"@openzeppelin/contracts/token/ERC20/ERC20.sol\":8642:8648  amount */\n  dup1\n    /* \"@openzeppelin/contracts/token/ERC20/ERC20.sol\":8626:8638  _totalSupply */\n  0x02\n  0x00\n    /* \"@openzeppelin/contracts/token/ERC20/ERC20.sol\":8626:8648  _totalSupply += amount */\n  dup3\n  dup3\n  sload\n  tag_33\n  swap2\n  swap1\n  tag_34\n  jump\t// in\ntag_33:\n  swap3\n  pop\n  pop\n  dup2\n  swap1\n  sstore\n  pop\n    /* \"@openzeppelin/contracts/token/ERC20/ERC20.sol\":8680:8686  amount */\n  dup1\n    /* \"@openzeppelin/contracts/token/ERC20/ERC20.sol\":8658:8667  _balances */\n  0x00\n    /* \"@openzeppelin/contracts/token/ERC20/ERC20.sol\":8658:8676  _balances[account] */\n  dup1\n    /* \"@openzeppelin/contracts/token/ERC20/ERC20.sol\":8668:8675  account */\n  dup5\n    /* \"@openzeppelin/contracts/token/ERC20/ERC20.sol\":8658:8676  _balances[account] */\n  0xffffffffffffffffffffffffffffffffffffffff\n  and\n  0xffffffffffffffffffffffffffffffffffffffff\n  and\n  dup2\n  mstore\n  0x20\n  add\n  swap1\n  dup2\n  mstore\n  0x20\n  add\n  0x00\n  keccak256\n  0x00\n    /* \"@openzeppelin/contracts/token/ERC20/ERC20.sol\":8658:8686  _balances[account] += amount */\n  dup3\n  dup3\n  sload\n  tag_35\n  swap2\n  swap1\n  tag_34\n  jump\t// in\ntag_35:\n  swap3\n  pop\n  pop\n  dup2\n  swap1\n  sstore\n  pop\n    /* \"@openzeppelin/contracts/token/ERC20/ERC20.sol\":8722:8729  account */\n  dup2\n    /* \"@openzeppelin/contracts/token/ERC20/ERC20.sol\":8701:8738  Transfer(address(0), account, amount) */\n  0xffffffffffffffffffffffffffffffffffffffff\n  and\n    /* \"@openzeppelin/contracts/token/ERC20/ERC20.sol\":8718:8719  0 */\n  0x00\n    /* \"@openzeppelin/contracts/token/ERC20/ERC20.sol\":8701:8738  Transfer(address(0), account, amount) */\n  0xffffffffffffffffffffffffffffffffffffffff\n  and\n  0xddf252ad1be2c89b69c2b068fc378daa952ba7f163c4a11628f55a4df523b3ef\n    /* \"@openzeppelin/contracts/token/ERC20/ERC20.sol\":8731:8737  amount */\n  dup4\n    /* \"@openzeppelin/contracts/token/ERC20/ERC20.sol\":8701:8738  Transfer(address(0), account, amount) */\n  mload(0x40)\n  tag_36\n  swap2\n  swap1\n  tag_37\n  jump\t// in\ntag_36:\n  mload(0x40)\n  dup1\n  swap2\n  sub\n  swap1\n  log3\n    /* \"@openzeppelin/contracts/token/ERC20/ERC20.sol\":8749:8797  _afterTokenTransfer(address(0), account, amount) */\n  tag_38\n    /* \"@openzeppelin/contracts/token/ERC20/ERC20.sol\":8777:8778  0 */\n  0x00\n    /* \"@openzeppelin/contracts/token/ERC20/ERC20.sol\":8781:8788  account */\n  dup4\n    /* \"@openzeppelin/contracts/token/ERC20/ERC20.sol\":8790:8796  amount */\n  dup4\n    /* \"@openzeppelin/contracts/token/ERC20/ERC20.sol\":8749:8768  _afterTokenTransfer */\n  shl(0x20, tag_39)\n    /* \"@openzeppelin/contracts/token/ERC20/ERC20.sol\":8749:8797  _afterTokenTransfer(address(0), account, amount) */\n  0x20\n  shr\n  jump\t// in\ntag_38:\n    /* \"@openzeppelin/contracts/token/ERC20/ERC20.sol\":8415:8804  function _mint(address account, uint256 amount) internal virtual {... */\n  pop\n  pop\n  jump\t// out\n    /* \"@openzeppelin/contracts/token/ERC20/ERC20.sol\":11795:11916  function _beforeTokenTransfer(... */\ntag_32:\n  pop\n  pop\n  pop\n  jump\t// out\n    /* \"@openzeppelin/contracts/token/ERC20/ERC20.sol\":12504:12624  function _afterTokenTransfer(... */\ntag_39:\n  pop\n  pop\n  pop\n  jump\t// out\n    /* \"contracts/ZenyaStake.sol\":173:1554  contract ZenyaStake is ERC20, Ownable  {... */\ntag_7:\n  dup3\n  dup1\n  sload\n  tag_42\n  swap1\n  tag_43\n  jump\t// in\ntag_42:\n  swap1\n  0x00\n  mstore\n  keccak256(0x00, 0x20)\n  swap1\n  0x1f\n  add\n  0x20\n  swap1\n  div\n  dup2\n  add\n  swap3\n  dup3\n  tag_45\n  jumpi\n  0x00\n  dup6\n  sstore\n  jump(tag_44)\ntag_45:\n  dup3\n  0x1f\n  lt\n  tag_46\n  jumpi\n  dup1\n  mload\n  not(0xff)\n  and\n  dup4\n  dup1\n  add\n  or\n  dup6\n  sstore\n  jump(tag_44)\ntag_46:\n  dup3\n  dup1\n  add\n  0x01\n  add\n  dup6\n  sstore\n  dup3\n  iszero\n  tag_44\n  jumpi\n  swap2\n  dup3\n  add\ntag_47:\n  dup3\n  dup2\n  gt\n  iszero\n  tag_48\n  jumpi\n  dup3\n  mload\n  dup3\n  sstore\n  swap2\n  0x20\n  add\n  swap2\n  swap1\n  0x01\n  add\n  swap1\n  jump(tag_47)\ntag_48:\ntag_44:\n  pop\n  swap1\n  pop\n  tag_49\n  swap2\n  swap1\n  tag_50\n  jump\t// in\ntag_49:\n  pop\n  swap1\n  jump\t// out\ntag_50:\ntag_51:\n  dup1\n  dup3\n  gt\n  iszero\n  tag_52\n  jumpi\n  0x00\n  dup2\n  0x00\n  swap1\n  sstore\n  pop\n  0x01\n  add\n  jump(tag_51)\ntag_52:\n  pop\n  swap1\n  jump\t// out\n    /* \"#utility.yul\":7:187   */\ntag_53:\n    /* \"#utility.yul\":55:132   */\n  0x4e487b7100000000000000000000000000000000000000000000000000000000\n    /* \"#utility.yul\":52:53   */\n  0x00\n    /* \"#utility.yul\":45:133   */\n  mstore\n    /* \"#utility.yul\":152:156   */\n  0x11\n    /* \"#utility.yul\":149:150   */\n  0x04\n    /* \"#utility.yul\":142:157   */\n  mstore\n    /* \"#utility.yul\":176:180   */\n  0x24\n    /* \"#utility.yul\":173:174   */\n  0x00\n    /* \"#utility.yul\":166:181   */\n  revert\n    /* \"#utility.yul\":193:295   */\ntag_54:\n    /* \"#utility.yul\":235:243   */\n  0x00\n    /* \"#utility.yul\":282:287   */\n  dup2\n    /* \"#utility.yul\":279:280   */\n  0x01\n    /* \"#utility.yul\":275:288   */\n  shr\n    /* \"#utility.yul\":254:288   */\n  swap1\n  pop\n    /* \"#utility.yul\":193:295   */\n  swap2\n  swap1\n  pop\n  jump\t// out\n    /* \"#utility.yul\":301:1149   */\ntag_55:\n    /* \"#utility.yul\":362:367   */\n  0x00\n    /* \"#utility.yul\":369:373   */\n  dup1\n    /* \"#utility.yul\":393:399   */\n  dup3\n    /* \"#utility.yul\":384:399   */\n  swap2\n  pop\n    /* \"#utility.yul\":417:422   */\n  dup4\n    /* \"#utility.yul\":408:422   */\n  swap1\n  pop\n    /* \"#utility.yul\":431:1143   */\ntag_68:\n    /* \"#utility.yul\":452:453   */\n  0x01\n    /* \"#utility.yul\":442:450   */\n  dup6\n    /* \"#utility.yul\":439:454   */\n  gt\n    /* \"#utility.yul\":431:1143   */\n  iszero\n  tag_70\n  jumpi\n    /* \"#utility.yul\":547:551   */\n  dup1\n    /* \"#utility.yul\":542:545   */\n  dup7\n    /* \"#utility.yul\":538:552   */\n  div\n    /* \"#utility.yul\":532:536   */\n  dup2\n    /* \"#utility.yul\":529:553   */\n  gt\n    /* \"#utility.yul\":526:576   */\n  iszero\n  tag_71\n  jumpi\n    /* \"#utility.yul\":556:574   */\n  tag_72\n  tag_53\n  jump\t// in\ntag_72:\n    /* \"#utility.yul\":526:576   */\ntag_71:\n    /* \"#utility.yul\":606:607   */\n  0x01\n    /* \"#utility.yul\":596:604   */\n  dup6\n    /* \"#utility.yul\":592:608   */\n  and\n    /* \"#utility.yul\":589:1040   */\n  iszero\n  tag_73\n  jumpi\n    /* \"#utility.yul\":1021:1025   */\n  dup1\n    /* \"#utility.yul\":1014:1019   */\n  dup3\n    /* \"#utility.yul\":1010:1026   */\n  mul\n    /* \"#utility.yul\":1001:1026   */\n  swap2\n  pop\n    /* \"#utility.yul\":589:1040   */\ntag_73:\n    /* \"#utility.yul\":1071:1075   */\n  dup1\n    /* \"#utility.yul\":1065:1069   */\n  dup2\n    /* \"#utility.yul\":1061:1076   */\n  mul\n    /* \"#utility.yul\":1053:1076   */\n  swap1\n  pop\n    /* \"#utility.yul\":1101:1133   */\n  tag_74\n    /* \"#utility.yul\":1124:1132   */\n  dup6\n    /* \"#utility.yul\":1101:1133   */\n  tag_54\n  jump\t// in\ntag_74:\n    /* \"#utility.yul\":1089:1133   */\n  swap5\n  pop\n    /* \"#utility.yul\":431:1143   */\n  jump(tag_68)\ntag_70:\n    /* \"#utility.yul\":301:1149   */\n  swap5\n  pop\n  swap5\n  swap3\n  pop\n  pop\n  pop\n  jump\t// out\n    /* \"#utility.yul\":1155:2228   */\ntag_56:\n    /* \"#utility.yul\":1209:1214   */\n  0x00\n    /* \"#utility.yul\":1400:1408   */\n  dup3\n    /* \"#utility.yul\":1390:1430   */\n  tag_76\n  jumpi\n    /* \"#utility.yul\":1421:1422   */\n  0x01\n    /* \"#utility.yul\":1412:1422   */\n  swap1\n  pop\n    /* \"#utility.yul\":1423:1428   */\n  jump(tag_75)\n    /* \"#utility.yul\":1390:1430   */\ntag_76:\n    /* \"#utility.yul\":1449:1453   */\n  dup2\n    /* \"#utility.yul\":1439:1475   */\n  tag_77\n  jumpi\n    /* \"#utility.yul\":1466:1467   */\n  0x00\n    /* \"#utility.yul\":1457:1467   */\n  swap1\n  pop\n    /* \"#utility.yul\":1468:1473   */\n  jump(tag_75)\n    /* \"#utility.yul\":1439:1475   */\ntag_77:\n    /* \"#utility.yul\":1535:1539   */\n  dup2\n    /* \"#utility.yul\":1583:1584   */\n  0x01\n    /* \"#utility.yul\":1578:1605   */\n  dup2\n  eq\n  tag_79\n  jumpi\n    /* \"#utility.yul\":1619:1620   */\n  0x02\n    /* \"#utility.yul\":1614:1805   */\n  dup2\n  eq\n  tag_80\n  jumpi\n    /* \"#utility.yul\":1528:1805   */\n  jump(tag_78)\n    /* \"#utility.yul\":1578:1605   */\ntag_79:\n    /* \"#utility.yul\":1596:1597   */\n  0x01\n    /* \"#utility.yul\":1587:1597   */\n  swap2\n  pop\n    /* \"#utility.yul\":1598:1603   */\n  pop\n  jump(tag_75)\n    /* \"#utility.yul\":1614:1805   */\ntag_80:\n    /* \"#utility.yul\":1659:1662   */\n  0xff\n    /* \"#utility.yul\":1649:1657   */\n  dup5\n    /* \"#utility.yul\":1646:1663   */\n  gt\n    /* \"#utility.yul\":1643:1686   */\n  iszero\n  tag_81\n  jumpi\n    /* \"#utility.yul\":1666:1684   */\n  tag_82\n  tag_53\n  jump\t// in\ntag_82:\n    /* \"#utility.yul\":1643:1686   */\ntag_81:\n    /* \"#utility.yul\":1715:1723   */\n  dup4\n    /* \"#utility.yul\":1712:1713   */\n  0x02\n    /* \"#utility.yul\":1708:1724   */\n  exp\n    /* \"#utility.yul\":1699:1724   */\n  swap2\n  pop\n    /* \"#utility.yul\":1750:1753   */\n  dup5\n    /* \"#utility.yul\":1743:1748   */\n  dup3\n    /* \"#utility.yul\":1740:1754   */\n  gt\n    /* \"#utility.yul\":1737:1777   */\n  iszero\n  tag_83\n  jumpi\n    /* \"#utility.yul\":1757:1775   */\n  tag_84\n  tag_53\n  jump\t// in\ntag_84:\n    /* \"#utility.yul\":1737:1777   */\ntag_83:\n    /* \"#utility.yul\":1790:1795   */\n  pop\n  jump(tag_75)\n    /* \"#utility.yul\":1528:1805   */\ntag_78:\n  pop\n    /* \"#utility.yul\":1914:1916   */\n  0x20\n    /* \"#utility.yul\":1904:1912   */\n  dup4\n    /* \"#utility.yul\":1901:1917   */\n  lt\n    /* \"#utility.yul\":1895:1898   */\n  0x0133\n    /* \"#utility.yul\":1889:1893   */\n  dup4\n    /* \"#utility.yul\":1886:1899   */\n  lt\n    /* \"#utility.yul\":1882:1918   */\n  and\n    /* \"#utility.yul\":1864:1866   */\n  0x4e\n    /* \"#utility.yul\":1854:1862   */\n  dup5\n    /* \"#utility.yul\":1851:1867   */\n  lt\n    /* \"#utility.yul\":1846:1848   */\n  0x0b\n    /* \"#utility.yul\":1840:1844   */\n  dup5\n    /* \"#utility.yul\":1837:1849   */\n  lt\n    /* \"#utility.yul\":1833:1868   */\n  and\n    /* \"#utility.yul\":1817:1928   */\n  or\n    /* \"#utility.yul\":1814:2060   */\n  iszero\n  tag_85\n  jumpi\n    /* \"#utility.yul\":1970:1978   */\n  dup3\n    /* \"#utility.yul\":1964:1968   */\n  dup3\n    /* \"#utility.yul\":1960:1979   */\n  exp\n    /* \"#utility.yul\":1951:1979   */\n  swap1\n  pop\n    /* \"#utility.yul\":2005:2008   */\n  dup4\n    /* \"#utility.yul\":1998:2003   */\n  dup2\n    /* \"#utility.yul\":1995:2009   */\n  gt\n    /* \"#utility.yul\":1992:2032   */\n  iszero\n  tag_86\n  jumpi\n    /* \"#utility.yul\":2012:2030   */\n  tag_87\n  tag_53\n  jump\t// in\ntag_87:\n    /* \"#utility.yul\":1992:2032   */\ntag_86:\n    /* \"#utility.yul\":2045:2050   */\n  jump(tag_75)\n    /* \"#utility.yul\":1814:2060   */\ntag_85:\n    /* \"#utility.yul\":2085:2127   */\n  tag_88\n    /* \"#utility.yul\":2123:2126   */\n  dup5\n    /* \"#utility.yul\":2113:2121   */\n  dup5\n    /* \"#utility.yul\":2107:2111   */\n  dup5\n    /* \"#utility.yul\":2104:2105   */\n  0x01\n    /* \"#utility.yul\":2085:2127   */\n  tag_55\n  jump\t// in\ntag_88:\n    /* \"#utility.yul\":2070:2127   */\n  swap3\n  pop\n  swap1\n  pop\n    /* \"#utility.yul\":2159:2163   */\n  dup2\n    /* \"#utility.yul\":2154:2157   */\n  dup5\n    /* \"#utility.yul\":2150:2164   */\n  div\n    /* \"#utility.yul\":2143:2148   */\n  dup2\n    /* \"#utility.yul\":2140:2165   */\n  gt\n    /* \"#utility.yul\":2137:2188   */\n  iszero\n  tag_89\n  jumpi\n    /* \"#utility.yul\":2168:2186   */\n  tag_90\n  tag_53\n  jump\t// in\ntag_90:\n    /* \"#utility.yul\":2137:2188   */\ntag_89:\n    /* \"#utility.yul\":2217:2221   */\n  dup2\n    /* \"#utility.yul\":2210:2215   */\n  dup2\n    /* \"#utility.yul\":2206:2222   */\n  mul\n    /* \"#utility.yul\":2197:2222   */\n  swap1\n  pop\n    /* \"#utility.yul\":1155:2228   */\ntag_75:\n  swap4\n  swap3\n  pop\n  pop\n  pop\n  jump\t// out\n    /* \"#utility.yul\":2234:2311   */\ntag_57:\n    /* \"#utility.yul\":2271:2278   */\n  0x00\n    /* \"#utility.yul\":2300:2305   */\n  dup2\n    /* \"#utility.yul\":2289:2305   */\n  swap1\n  pop\n    /* \"#utility.yul\":2234:2311   */\n  swap2\n  swap1\n  pop\n  jump\t// out\n    /* \"#utility.yul\":2317:2403   */\ntag_58:\n    /* \"#utility.yul\":2352:2359   */\n  0x00\n    /* \"#utility.yul\":2392:2396   */\n  0xff\n    /* \"#utility.yul\":2385:2390   */\n  dup3\n    /* \"#utility.yul\":2381:2397   */\n  and\n    /* \"#utility.yul\":2370:2397   */\n  swap1\n  pop\n    /* \"#utility.yul\":2317:2403   */\n  swap2\n  swap1\n  pop\n  jump\t// out\n    /* \"#utility.yul\":2409:2690   */\ntag_19:\n    /* \"#utility.yul\":2467:2472   */\n  0x00\n    /* \"#utility.yul\":2491:2514   */\n  tag_94\n    /* \"#utility.yul\":2509:2513   */\n  dup3\n    /* \"#utility.yul\":2491:2514   */\n  tag_57\n  jump\t// in\ntag_94:\n    /* \"#utility.yul\":2483:2514   */\n  swap2\n  pop\n    /* \"#utility.yul\":2535:2560   */\n  tag_95\n    /* \"#utility.yul\":2551:2559   */\n  dup4\n    /* \"#utility.yul\":2535:2560   */\n  tag_58\n  jump\t// in\ntag_95:\n    /* \"#utility.yul\":2523:2560   */\n  swap3\n  pop\n    /* \"#utility.yul\":2579:2683   */\n  tag_96\n    /* \"#utility.yul\":2616:2682   */\n  0xffffffffffffffffffffffffffffffffffffffffffffffffffffffffffffffff\n    /* \"#utility.yul\":2606:2614   */\n  dup5\n    /* \"#utility.yul\":2600:2604   */\n  dup5\n    /* \"#utility.yul\":2579:2683   */\n  tag_56\n  jump\t// in\ntag_96:\n    /* \"#utility.yul\":2570:2683   */\n  swap1\n  pop\n    /* \"#utility.yul\":2409:2690   */\n  swap3\n  swap2\n  pop\n  pop\n  jump\t// out\n    /* \"#utility.yul\":2696:3044   */\ntag_21:\n    /* \"#utility.yul\":2736:2743   */\n  0x00\n    /* \"#utility.yul\":2759:2779   */\n  tag_98\n    /* \"#utility.yul\":2777:2778   */\n  dup3\n    /* \"#utility.yul\":2759:2779   */\n  tag_57\n  jump\t// in\ntag_98:\n    /* \"#utility.yul\":2754:2779   */\n  swap2\n  pop\n    /* \"#utility.yul\":2793:2813   */\n  tag_99\n    /* \"#utility.yul\":2811:2812   */\n  dup4\n    /* \"#utility.yul\":2793:2813   */\n  tag_57\n  jump\t// in\ntag_99:\n    /* \"#utility.yul\":2788:2813   */\n  swap3\n  pop\n    /* \"#utility.yul\":2981:2982   */\n  dup2\n    /* \"#utility.yul\":2913:2979   */\n  0xffffffffffffffffffffffffffffffffffffffffffffffffffffffffffffffff\n    /* \"#utility.yul\":2909:2983   */\n  div\n    /* \"#utility.yul\":2906:2907   */\n  dup4\n    /* \"#utility.yul\":2903:2984   */\n  gt\n    /* \"#utility.yul\":2898:2899   */\n  dup3\n    /* \"#utility.yul\":2891:2900   */\n  iszero\n    /* \"#utility.yul\":2884:2901   */\n  iszero\n    /* \"#utility.yul\":2880:2985   */\n  and\n    /* \"#utility.yul\":2877:3008   */\n  iszero\n  tag_100\n  jumpi\n    /* \"#utility.yul\":2988:3006   */\n  tag_101\n  tag_53\n  jump\t// in\ntag_101:\n    /* \"#utility.yul\":2877:3008   */\ntag_100:\n    /* \"#utility.yul\":3036:3037   */\n  dup3\n    /* \"#utility.yul\":3033:3034   */\n  dup3\n    /* \"#utility.yul\":3029:3038   */\n  mul\n    /* \"#utility.yul\":3018:3038   */\n  swap1\n  pop\n    /* \"#utility.yul\":2696:3044   */\n  swap3\n  swap2\n  pop\n  pop\n  jump\t// out\n    /* \"#utility.yul\":3050:3219   */\ntag_59:\n    /* \"#utility.yul\":3134:3145   */\n  0x00\n    /* \"#utility.yul\":3168:3174   */\n  dup3\n    /* \"#utility.yul\":3163:3166   */\n  dup3\n    /* \"#utility.yul\":3156:3175   */\n  mstore\n    /* \"#utility.yul\":3208:3212   */\n  0x20\n    /* \"#utility.yul\":3203:3206   */\n  dup3\n    /* \"#utility.yul\":3199:3213   */\n  add\n    /* \"#utility.yul\":3184:3213   */\n  swap1\n  pop\n    /* \"#utility.yul\":3050:3219   */\n  swap3\n  swap2\n  pop\n  pop\n  jump\t// out\n    /* \"#utility.yul\":3225:3406   */\ntag_60:\n    /* \"#utility.yul\":3365:3398   */\n  0x45524332303a206d696e7420746f20746865207a65726f206164647265737300\n    /* \"#utility.yul\":3361:3362   */\n  0x00\n    /* \"#utility.yul\":3353:3359   */\n  dup3\n    /* \"#utility.yul\":3349:3363   */\n  add\n    /* \"#utility.yul\":3342:3399   */\n  mstore\n    /* \"#utility.yul\":3225:3406   */\n  pop\n  jump\t// out\n    /* \"#utility.yul\":3412:3778   */\ntag_61:\n    /* \"#utility.yul\":3554:3557   */\n  0x00\n    /* \"#utility.yul\":3575:3642   */\n  tag_105\n    /* \"#utility.yul\":3639:3641   */\n  0x1f\n    /* \"#utility.yul\":3634:3637   */\n  dup4\n    /* \"#utility.yul\":3575:3642   */\n  tag_59\n  jump\t// in\ntag_105:\n    /* \"#utility.yul\":3568:3642   */\n  swap2\n  pop\n    /* \"#utility.yul\":3651:3744   */\n  tag_106\n    /* \"#utility.yul\":3740:3743   */\n  dup3\n    /* \"#utility.yul\":3651:3744   */\n  tag_60\n  jump\t// in\ntag_106:\n    /* \"#utility.yul\":3769:3771   */\n  0x20\n    /* \"#utility.yul\":3764:3767   */\n  dup3\n    /* \"#utility.yul\":3760:3772   */\n  add\n    /* \"#utility.yul\":3753:3772   */\n  swap1\n  pop\n    /* \"#utility.yul\":3412:3778   */\n  swap2\n  swap1\n  pop\n  jump\t// out\n    /* \"#utility.yul\":3784:4203   */\ntag_30:\n    /* \"#utility.yul\":3950:3954   */\n  0x00\n    /* \"#utility.yul\":3988:3990   */\n  0x20\n    /* \"#utility.yul\":3977:3986   */\n  dup3\n    /* \"#utility.yul\":3973:3991   */\n  add\n    /* \"#utility.yul\":3965:3991   */\n  swap1\n  pop\n    /* \"#utility.yul\":4037:4046   */\n  dup2\n    /* \"#utility.yul\":4031:4035   */\n  dup2\n    /* \"#utility.yul\":4027:4047   */\n  sub\n    /* \"#utility.yul\":4023:4024   */\n  0x00\n    /* \"#utility.yul\":4012:4021   */\n  dup4\n    /* \"#utility.yul\":4008:4025   */\n  add\n    /* \"#utility.yul\":4001:4048   */\n  mstore\n    /* \"#utility.yul\":4065:4196   */\n  tag_108\n    /* \"#utility.yul\":4191:4195   */\n  dup2\n    /* \"#utility.yul\":4065:4196   */\n  tag_61\n  jump\t// in\ntag_108:\n    /* \"#utility.yul\":4057:4196   */\n  swap1\n  pop\n    /* \"#utility.yul\":3784:4203   */\n  swap2\n  swap1\n  pop\n  jump\t// out\n    /* \"#utility.yul\":4209:4514   */\ntag_34:\n    /* \"#utility.yul\":4249:4252   */\n  0x00\n    /* \"#utility.yul\":4268:4288   */\n  tag_110\n    /* \"#utility.yul\":4286:4287   */\n  dup3\n    /* \"#utility.yul\":4268:4288   */\n  tag_57\n  jump\t// in\ntag_110:\n    /* \"#utility.yul\":4263:4288   */\n  swap2\n  pop\n    /* \"#utility.yul\":4302:4322   */\n  tag_111\n    /* \"#utility.yul\":4320:4321   */\n  dup4\n    /* \"#utility.yul\":4302:4322   */\n  tag_57\n  jump\t// in\ntag_111:\n    /* \"#utility.yul\":4297:4322   */\n  swap3\n  pop\n    /* \"#utility.yul\":4456:4457   */\n  dup3\n    /* \"#utility.yul\":4388:4454   */\n  0xffffffffffffffffffffffffffffffffffffffffffffffffffffffffffffffff\n    /* \"#utility.yul\":4384:4458   */\n  sub\n    /* \"#utility.yul\":4381:4382   */\n  dup3\n    /* \"#utility.yul\":4378:4459   */\n  gt\n    /* \"#utility.yul\":4375:4482   */\n  iszero\n  tag_112\n  jumpi\n    /* \"#utility.yul\":4462:4480   */\n  tag_113\n  tag_53\n  jump\t// in\ntag_113:\n    /* \"#utility.yul\":4375:4482   */\ntag_112:\n    /* \"#utility.yul\":4506:4507   */\n  dup3\n    /* \"#utility.yul\":4503:4504   */\n  dup3\n    /* \"#utility.yul\":4499:4508   */\n  add\n    /* \"#utility.yul\":4492:4508   */\n  swap1\n  pop\n    /* \"#utility.yul\":4209:4514   */\n  swap3\n  swap2\n  pop\n  pop\n  jump\t// out\n    /* \"#utility.yul\":4520:4638   */\ntag_62:\n    /* \"#utility.yul\":4607:4631   */\n  tag_115\n    /* \"#utility.yul\":4625:4630   */\n  dup2\n    /* \"#utility.yul\":4607:4631   */\n  tag_57\n  jump\t// in\ntag_115:\n    /* \"#utility.yul\":4602:4605   */\n  dup3\n    /* \"#utility.yul\":4595:4632   */\n  mstore\n    /* \"#utility.yul\":4520:4638   */\n  pop\n  pop\n  jump\t// out\n    /* \"#utility.yul\":4644:4866   */\ntag_37:\n    /* \"#utility.yul\":4737:4741   */\n  0x00\n    /* \"#utility.yul\":4775:4777   */\n  0x20\n    /* \"#utility.yul\":4764:4773   */\n  dup3\n    /* \"#utility.yul\":4760:4778   */\n  add\n    /* \"#utility.yul\":4752:4778   */\n  swap1\n  pop\n    /* \"#utility.yul\":4788:4859   */\n  tag_117\n    /* \"#utility.yul\":4856:4857   */\n  0x00\n    /* \"#utility.yul\":4845:4854   */\n  dup4\n    /* \"#utility.yul\":4841:4858   */\n  add\n    /* \"#utility.yul\":4832:4838   */\n  dup5\n    /* \"#utility.yul\":4788:4859   */\n  tag_62\n  jump\t// in\ntag_117:\n    /* \"#utility.yul\":4644:4866   */\n  swap3\n  swap2\n  pop\n  pop\n  jump\t// out\n    /* \"#utility.yul\":4872:5052   */\ntag_63:\n    /* \"#utility.yul\":4920:4997   */\n  0x4e487b7100000000000000000000000000000000000000000000000000000000\n    /* \"#utility.yul\":4917:4918   */\n  0x00\n    /* \"#utility.yul\":4910:4998   */\n  mstore\n    /* \"#utility.yul\":5017:5021   */\n  0x22\n    /* \"#utility.yul\":5014:5015   */\n  0x04\n    /* \"#utility.yul\":5007:5022   */\n  mstore\n    /* \"#utility.yul\":5041:5045   */\n  0x24\n    /* \"#utility.yul\":5038:5039   */\n  0x00\n    /* \"#utility.yul\":5031:5046   */\n  revert\n    /* \"#utility.yul\":5058:5378   */\ntag_43:\n    /* \"#utility.yul\":5102:5108   */\n  0x00\n    /* \"#utility.yul\":5139:5140   */\n  0x02\n    /* \"#utility.yul\":5133:5137   */\n  dup3\n    /* \"#utility.yul\":5129:5141   */\n  div\n    /* \"#utility.yul\":5119:5141   */\n  swap1\n  pop\n    /* \"#utility.yul\":5186:5187   */\n  0x01\n    /* \"#utility.yul\":5180:5184   */\n  dup3\n    /* \"#utility.yul\":5176:5188   */\n  and\n    /* \"#utility.yul\":5207:5225   */\n  dup1\n    /* \"#utility.yul\":5197:5278   */\n  tag_120\n  jumpi\n    /* \"#utility.yul\":5263:5267   */\n  0x7f\n    /* \"#utility.yul\":5255:5261   */\n  dup3\n    /* \"#utility.yul\":5251:5268   */\n  and\n    /* \"#utility.yul\":5241:5268   */\n  swap2\n  pop\n    /* \"#utility.yul\":5197:5278   */\ntag_120:\n    /* \"#utility.yul\":5325:5327   */\n  0x20\n    /* \"#utility.yul\":5317:5323   */\n  dup3\n    /* \"#utility.yul\":5314:5328   */\n  lt\n    /* \"#utility.yul\":5294:5312   */\n  dup2\n    /* \"#utility.yul\":5291:5329   */\n  eq\n    /* \"#utility.yul\":5288:5372   */\n  iszero\n  tag_121\n  jumpi\n    /* \"#utility.yul\":5344:5362   */\n  tag_122\n  tag_63\n  jump\t// in\ntag_122:\n    /* \"#utility.yul\":5288:5372   */\ntag_121:\n    /* \"#utility.yul\":5109:5378   */\n  pop\n    /* \"#utility.yul\":5058:5378   */\n  swap2\n  swap1\n  pop\n  jump\t// out\n    /* \"contracts/ZenyaStake.sol\":173:1554  contract ZenyaStake is ERC20, Ownable  {... */\ntag_23:\n  dataSize(sub_0)\n  dup1\n  dataOffset(sub_0)\n  0x00\n  codecopy\n  0x00\n  return\nstop\n\nsub_0: assembly {\n        /* \"contracts/ZenyaStake.sol\":173:1554  contract ZenyaStake is ERC20, Ownable  {... */\n      mstore(0x40, 0x80)\n      jumpi(tag_1, lt(calldatasize, 0x04))\n      shr(0xe0, calldataload(0x00))\n      dup1\n      0x70a08231\n      gt\n      tag_21\n      jumpi\n      dup1\n      0xa457c2d7\n      gt\n      tag_22\n      jumpi\n      dup1\n      0xa457c2d7\n      eq\n      tag_16\n      jumpi\n      dup1\n      0xa9059cbb\n      eq\n      tag_17\n      jumpi\n      dup1\n      0xb2bdfa7b\n      eq\n      tag_18\n      jumpi\n      dup1\n      0xdd62ed3e\n      eq\n      tag_19\n      jumpi\n      dup1\n      0xf2fde38b\n      eq\n      tag_20\n      jumpi\n      jump(tag_1)\n    tag_22:\n      dup1\n      0x70a08231\n      eq\n      tag_11\n      jumpi\n      dup1\n      0x715018a6\n      eq\n      tag_12\n      jumpi\n      dup1\n      0x7e72fb52\n      eq\n      tag_13\n      jumpi\n      dup1\n      0x8da5cb5b\n      eq\n      tag_14\n      jumpi\n      dup1\n      0x95d89b41\n      eq\n      tag_15\n      jumpi\n      jump(tag_1)\n    tag_21:\n      dup1\n      0x23b872dd\n      gt\n      tag_23\n      jumpi\n      dup1\n      0x23b872dd\n      eq\n      tag_6\n      jumpi\n      dup1\n      0x313ce567\n      eq\n      tag_7\n      jumpi\n      dup1\n      0x35789c8b\n      eq\n      tag_8\n      jumpi\n      dup1\n      0x39509351\n      eq\n      tag_9\n      jumpi\n      dup1\n      0x4be21e33\n      eq\n      tag_10\n      jumpi\n      jump(tag_1)\n    tag_23:\n      dup1\n      0x046e2edb\n      eq\n      tag_2\n      jumpi\n      dup1\n      0x06fdde03\n      eq\n      tag_3\n      jumpi\n      dup1\n      0x095ea7b3\n      eq\n      tag_4\n      jumpi\n      dup1\n      0x18160ddd\n      eq\n      tag_5\n      jumpi\n    tag_1:\n      0x00\n      dup1\n      revert\n        /* \"contracts/ZenyaStake.sol\":524:550  uint256 public zenyaPerEth */\n    tag_2:\n      callvalue\n      dup1\n      iszero\n      tag_24\n      jumpi\n      0x00\n      dup1\n      revert\n    tag_24:\n      pop\n      tag_25\n      tag_26\n      jump\t// in\n    tag_25:\n      mload(0x40)\n      tag_27\n      swap2\n      swap1\n      tag_28\n      jump\t// in\n    tag_27:\n      mload(0x40)\n      dup1\n      swap2\n      sub\n      swap1\n      return\n        /* \"@openzeppelin/contracts/token/ERC20/ERC20.sol\":2156:2254  function name() public view virtual override returns (string memory) {... */\n    tag_3:\n      callvalue\n      dup1\n      iszero\n      tag_29\n      jumpi\n      0x00\n      dup1\n      revert\n    tag_29:\n      pop\n      tag_30\n      tag_31\n      jump\t// in\n    tag_30:\n      mload(0x40)\n      tag_32\n      swap2\n      swap1\n      tag_33\n      jump\t// in\n    tag_32:\n      mload(0x40)\n      dup1\n      swap2\n      sub\n      swap1\n      return\n        /* \"@openzeppelin/contracts/token/ERC20/ERC20.sol\":4433:4630  function approve(address spender, uint256 amount) public virtual override returns (bool) {... */\n    tag_4:\n      callvalue\n      dup1\n      iszero\n      tag_34\n      jumpi\n      0x00\n      dup1\n      revert\n    tag_34:\n      pop\n      tag_35\n      0x04\n      dup1\n      calldatasize\n      sub\n      dup2\n      add\n      swap1\n      tag_36\n      swap2\n      swap1\n      tag_37\n      jump\t// in\n    tag_36:\n      tag_38\n      jump\t// in\n    tag_35:\n      mload(0x40)\n      tag_39\n      swap2\n      swap1\n      tag_40\n      jump\t// in\n    tag_39:\n      mload(0x40)\n      dup1\n      swap2\n      sub\n      swap1\n      return\n        /* \"@openzeppelin/contracts/token/ERC20/ERC20.sol\":3244:3350  function totalSupply() public view virtual override returns (uint256) {... */\n    tag_5:\n      callvalue\n      dup1\n      iszero\n      tag_41\n      jumpi\n      0x00\n      dup1\n      revert\n    tag_41:\n      pop\n      tag_42\n      tag_43\n      jump\t// in\n    tag_42:\n      mload(0x40)\n      tag_44\n      swap2\n      swap1\n      tag_28\n      jump\t// in\n    tag_44:\n      mload(0x40)\n      dup1\n      swap2\n      sub\n      swap1\n      return\n        /* \"@openzeppelin/contracts/token/ERC20/ERC20.sol\":5192:5478  function transferFrom(... */\n    tag_6:\n      callvalue\n      dup1\n      iszero\n      tag_45\n      jumpi\n      0x00\n      dup1\n      revert\n    tag_45:\n      pop\n      tag_46\n      0x04\n      dup1\n      calldatasize\n      sub\n      dup2\n      add\n      swap1\n      tag_47\n      swap2\n      swap1\n      tag_48\n      jump\t// in\n    tag_47:\n      tag_49\n      jump\t// in\n    tag_46:\n      mload(0x40)\n      tag_50\n      swap2\n      swap1\n      tag_40\n      jump\t// in\n    tag_50:\n      mload(0x40)\n      dup1\n      swap2\n      sub\n      swap1\n      return\n        /* \"@openzeppelin/contracts/token/ERC20/ERC20.sol\":3093:3184  function decimals() public view virtual override returns (uint8) {... */\n    tag_7:\n      callvalue\n      dup1\n      iszero\n      tag_51\n      jumpi\n      0x00\n      dup1\n      revert\n    tag_51:\n      pop\n      tag_52\n      tag_53\n      jump\t// in\n    tag_52:\n      mload(0x40)\n      tag_54\n      swap2\n      swap1\n      tag_55\n      jump\t// in\n    tag_54:\n      mload(0x40)\n      dup1\n      swap2\n      sub\n      swap1\n      return\n        /* \"contracts/ZenyaStake.sol\":401:430  uint256 public _buyTokenPrice */\n    tag_8:\n      callvalue\n      dup1\n      iszero\n      tag_56\n      jumpi\n      0x00\n      dup1\n      revert\n    tag_56:\n      pop\n      tag_57\n      tag_58\n      jump\t// in\n    tag_57:\n      mload(0x40)\n      tag_59\n      swap2\n      swap1\n      tag_28\n      jump\t// in\n    tag_59:\n      mload(0x40)\n      dup1\n      swap2\n      sub\n      swap1\n      return\n        /* \"@openzeppelin/contracts/token/ERC20/ERC20.sol\":5873:6109  function increaseAllowance(address spender, uint256 addedValue) public virtual returns (bool) {... */\n    tag_9:\n      callvalue\n      dup1\n      iszero\n      tag_60\n      jumpi\n      0x00\n      dup1\n      revert\n    tag_60:\n      pop\n      tag_61\n      0x04\n      dup1\n      calldatasize\n      sub\n      dup2\n      add\n      swap1\n      tag_62\n      swap2\n      swap1\n      tag_37\n      jump\t// in\n    tag_62:\n      tag_63\n      jump\t// in\n    tag_61:\n      mload(0x40)\n      tag_64\n      swap2\n      swap1\n      tag_40\n      jump\t// in\n    tag_64:\n      mload(0x40)\n      dup1\n      swap2\n      sub\n      swap1\n      return\n        /* \"contracts/ZenyaStake.sol\":759:944  function setTokenBuyPrice (uint256 buyPrice) public {... */\n    tag_10:\n      callvalue\n      dup1\n      iszero\n      tag_65\n      jumpi\n      0x00\n      dup1\n      revert\n    tag_65:\n      pop\n      tag_66\n      0x04\n      dup1\n      calldatasize\n      sub\n      dup2\n      add\n      swap1\n      tag_67\n      swap2\n      swap1\n      tag_68\n      jump\t// in\n    tag_67:\n      tag_69\n      jump\t// in\n    tag_66:\n      stop\n        /* \"@openzeppelin/contracts/token/ERC20/ERC20.sol\":3408:3533  function balanceOf(address account) public view virtual override returns (uint256) {... */\n    tag_11:\n      callvalue\n      dup1\n      iszero\n      tag_70\n      jumpi\n      0x00\n      dup1\n      revert\n    tag_70:\n      pop\n      tag_71\n      0x04\n      dup1\n      calldatasize\n      sub\n      dup2\n      add\n      swap1\n      tag_72\n      swap2\n      swap1\n      tag_73\n      jump\t// in\n    tag_72:\n      tag_74\n      jump\t// in\n    tag_71:\n      mload(0x40)\n      tag_75\n      swap2\n      swap1\n      tag_28\n      jump\t// in\n    tag_75:\n      mload(0x40)\n      dup1\n      swap2\n      sub\n      swap1\n      return\n        /* \"@openzeppelin/contracts/access/Ownable.sol\":1668:1769  function renounceOwnership() public virtual onlyOwner {... */\n    tag_12:\n      callvalue\n      dup1\n      iszero\n      tag_76\n      jumpi\n      0x00\n      dup1\n      revert\n    tag_76:\n      pop\n      tag_77\n      tag_78\n      jump\t// in\n    tag_77:\n      stop\n        /* \"contracts/ZenyaStake.sol\":1090:1551  function buyToken(address receiver) public payable{... */\n    tag_13:\n      tag_79\n      0x04\n      dup1\n      calldatasize\n      sub\n      dup2\n      add\n      swap1\n      tag_80\n      swap2\n      swap1\n      tag_73\n      jump\t// in\n    tag_80:\n      tag_81\n      jump\t// in\n    tag_79:\n      stop\n        /* \"@openzeppelin/contracts/access/Ownable.sol\":1036:1121  function owner() public view virtual returns (address) {... */\n    tag_14:\n      callvalue\n      dup1\n      iszero\n      tag_82\n      jumpi\n      0x00\n      dup1\n      revert\n    tag_82:\n      pop\n      tag_83\n      tag_84\n      jump\t// in\n    tag_83:\n      mload(0x40)\n      tag_85\n      swap2\n      swap1\n      tag_86\n      jump\t// in\n    tag_85:\n      mload(0x40)\n      dup1\n      swap2\n      sub\n      swap1\n      return\n        /* \"@openzeppelin/contracts/token/ERC20/ERC20.sol\":2367:2469  function symbol() public view virtual override returns (string memory) {... */\n    tag_15:\n      callvalue\n      dup1\n      iszero\n      tag_87\n      jumpi\n      0x00\n      dup1\n      revert\n    tag_87:\n      pop\n      tag_88\n      tag_89\n      jump\t// in\n    tag_88:\n      mload(0x40)\n      tag_90\n      swap2\n      swap1\n      tag_33\n      jump\t// in\n    tag_90:\n      mload(0x40)\n      dup1\n      swap2\n      sub\n      swap1\n      return\n        /* \"@openzeppelin/contracts/token/ERC20/ERC20.sol\":6596:7025  function decreaseAllowance(address spender, uint256 subtractedValue) public virtual returns (bool) {... */\n    tag_16:\n      callvalue\n      dup1\n      iszero\n      tag_91\n      jumpi\n      0x00\n      dup1\n      revert\n    tag_91:\n      pop\n      tag_92\n      0x04\n      dup1\n      calldatasize\n      sub\n      dup2\n      add\n      swap1\n      tag_93\n      swap2\n      swap1\n      tag_37\n      jump\t// in\n    tag_93:\n      tag_94\n      jump\t// in\n    tag_92:\n      mload(0x40)\n      tag_95\n      swap2\n      swap1\n      tag_40\n      jump\t// in\n    tag_95:\n      mload(0x40)\n      dup1\n      swap2\n      sub\n      swap1\n      return\n        /* \"@openzeppelin/contracts/token/ERC20/ERC20.sol\":3729:3918  function transfer(address to, uint256 amount) public virtual override returns (bool) {... */\n    tag_17:\n      callvalue\n      dup1\n      iszero\n      tag_96\n      jumpi\n      0x00\n      dup1\n      revert\n    tag_96:\n      pop\n      tag_97\n      0x04\n      dup1\n      calldatasize\n      sub\n      dup2\n      add\n      swap1\n      tag_98\n      swap2\n      swap1\n      tag_37\n      jump\t// in\n    tag_98:\n      tag_99\n      jump\t// in\n    tag_97:\n      mload(0x40)\n      tag_100\n      swap2\n      swap1\n      tag_40\n      jump\t// in\n    tag_100:\n      mload(0x40)\n      dup1\n      swap2\n      sub\n      swap1\n      return\n        /* \"contracts/ZenyaStake.sol\":288:309  address public _owner */\n    tag_18:\n      callvalue\n      dup1\n      iszero\n      tag_101\n      jumpi\n      0x00\n      dup1\n      revert\n    tag_101:\n      pop\n      tag_102\n      tag_103\n      jump\t// in\n    tag_102:\n      mload(0x40)\n      tag_104\n      swap2\n      swap1\n      tag_86\n      jump\t// in\n    tag_104:\n      mload(0x40)\n      dup1\n      swap2\n      sub\n      swap1\n      return\n        /* \"@openzeppelin/contracts/token/ERC20/ERC20.sol\":3976:4125  function allowance(address owner, address spender) public view virtual override returns (uint256) {... */\n    tag_19:\n      callvalue\n      dup1\n      iszero\n      tag_105\n      jumpi\n      0x00\n      dup1\n      revert\n    tag_105:\n      pop\n      tag_106\n      0x04\n      dup1\n      calldatasize\n      sub\n      dup2\n      add\n      swap1\n      tag_107\n      swap2\n      swap1\n      tag_108\n      jump\t// in\n    tag_107:\n      tag_109\n      jump\t// in\n    tag_106:\n      mload(0x40)\n      tag_110\n      swap2\n      swap1\n      tag_28\n      jump\t// in\n    tag_110:\n      mload(0x40)\n      dup1\n      swap2\n      sub\n      swap1\n      return\n        /* \"@openzeppelin/contracts/access/Ownable.sol\":1918:2116  function transferOwnership(address newOwner) public virtual onlyOwner {... */\n    tag_20:\n      callvalue\n      dup1\n      iszero\n      tag_111\n      jumpi\n      0x00\n      dup1\n      revert\n    tag_111:\n      pop\n      tag_112\n      0x04\n      dup1\n      calldatasize\n      sub\n      dup2\n      add\n      swap1\n      tag_113\n      swap2\n      swap1\n      tag_73\n      jump\t// in\n    tag_113:\n      tag_114\n      jump\t// in\n    tag_112:\n      stop\n        /* \"contracts/ZenyaStake.sol\":524:550  uint256 public zenyaPerEth */\n    tag_26:\n      sload(0x08)\n      dup2\n      jump\t// out\n        /* \"@openzeppelin/contracts/token/ERC20/ERC20.sol\":2156:2254  function name() public view virtual override returns (string memory) {... */\n    tag_31:\n        /* \"@openzeppelin/contracts/token/ERC20/ERC20.sol\":2210:2223  string memory */\n      0x60\n        /* \"@openzeppelin/contracts/token/ERC20/ERC20.sol\":2242:2247  _name */\n      0x03\n        /* \"@openzeppelin/contracts/token/ERC20/ERC20.sol\":2235:2247  return _name */\n      dup1\n      sload\n      tag_116\n      swap1\n      tag_117\n      jump\t// in\n    tag_116:\n      dup1\n      0x1f\n      add\n      0x20\n      dup1\n      swap2\n      div\n      mul\n      0x20\n      add\n      mload(0x40)\n      swap1\n      dup2\n      add\n      0x40\n      mstore\n      dup1\n      swap3\n      swap2\n      swap1\n      dup2\n      dup2\n      mstore\n      0x20\n      add\n      dup3\n      dup1\n      sload\n      tag_118\n      swap1\n      tag_117\n      jump\t// in\n    tag_118:\n      dup1\n      iszero\n      tag_119\n      jumpi\n      dup1\n      0x1f\n      lt\n      tag_120\n      jumpi\n      0x0100\n      dup1\n      dup4\n      sload\n      div\n      mul\n      dup4\n      mstore\n      swap2\n      0x20\n      add\n      swap2\n      jump(tag_119)\n    tag_120:\n      dup3\n      add\n      swap2\n      swap1\n      0x00\n      mstore\n      keccak256(0x00, 0x20)\n      swap1\n    tag_121:\n      dup2\n      sload\n      dup2\n      mstore\n      swap1\n      0x01\n      add\n      swap1\n      0x20\n      add\n      dup1\n      dup4\n      gt\n      tag_121\n      jumpi\n      dup3\n      swap1\n      sub\n      0x1f\n      and\n      dup3\n      add\n      swap2\n    tag_119:\n      pop\n      pop\n      pop\n      pop\n      pop\n      swap1\n      pop\n        /* \"@openzeppelin/contracts/token/ERC20/ERC20.sol\":2156:2254  function name() public view virtual override returns (string memory) {... */\n      swap1\n      jump\t// out\n        /* \"@openzeppelin/contracts/token/ERC20/ERC20.sol\":4433:4630  function approve(address spender, uint256 amount) public virtual override returns (bool) {... */\n    tag_38:\n        /* \"@openzeppelin/contracts/token/ERC20/ERC20.sol\":4516:4520  bool */\n      0x00\n        /* \"@openzeppelin/contracts/token/ERC20/ERC20.sol\":4532:4545  address owner */\n      dup1\n        /* \"@openzeppelin/contracts/token/ERC20/ERC20.sol\":4548:4560  _msgSender() */\n      tag_123\n        /* \"@openzeppelin/contracts/token/ERC20/ERC20.sol\":4548:4558  _msgSender */\n      tag_124\n        /* \"@openzeppelin/contracts/token/ERC20/ERC20.sol\":4548:4560  _msgSender() */\n      jump\t// in\n    tag_123:\n        /* \"@openzeppelin/contracts/token/ERC20/ERC20.sol\":4532:4560  address owner = _msgSender() */\n      swap1\n      pop\n        /* \"@openzeppelin/contracts/token/ERC20/ERC20.sol\":4570:4602  _approve(owner, spender, amount) */\n      tag_125\n        /* \"@openzeppelin/contracts/token/ERC20/ERC20.sol\":4579:4584  owner */\n      dup2\n        /* \"@openzeppelin/contracts/token/ERC20/ERC20.sol\":4586:4593  spender */\n      dup6\n        /* \"@openzeppelin/contracts/token/ERC20/ERC20.sol\":4595:4601  amount */\n      dup6\n        /* \"@openzeppelin/contracts/token/ERC20/ERC20.sol\":4570:4578  _approve */\n      tag_126\n        /* \"@openzeppelin/contracts/token/ERC20/ERC20.sol\":4570:4602  _approve(owner, spender, amount) */\n      jump\t// in\n    tag_125:\n        /* \"@openzeppelin/contracts/token/ERC20/ERC20.sol\":4619:4623  true */\n      0x01\n        /* \"@openzeppelin/contracts/token/ERC20/ERC20.sol\":4612:4623  return true */\n      swap2\n      pop\n      pop\n        /* \"@openzeppelin/contracts/token/ERC20/ERC20.sol\":4433:4630  function approve(address spender, uint256 amount) public virtual override returns (bool) {... */\n      swap3\n      swap2\n      pop\n      pop\n      jump\t// out\n        /* \"@openzeppelin/contracts/token/ERC20/ERC20.sol\":3244:3350  function totalSupply() public view virtual override returns (uint256) {... */\n    tag_43:\n        /* \"@openzeppelin/contracts/token/ERC20/ERC20.sol\":3305:3312  uint256 */\n      0x00\n        /* \"@openzeppelin/contracts/token/ERC20/ERC20.sol\":3331:3343  _totalSupply */\n      sload(0x02)\n        /* \"@openzeppelin/contracts/token/ERC20/ERC20.sol\":3324:3343  return _totalSupply */\n      swap1\n      pop\n        /* \"@openzeppelin/contracts/token/ERC20/ERC20.sol\":3244:3350  function totalSupply() public view virtual override returns (uint256) {... */\n      swap1\n      jump\t// out\n        /* \"@openzeppelin/contracts/token/ERC20/ERC20.sol\":5192:5478  function transferFrom(... */\n    tag_49:\n        /* \"@openzeppelin/contracts/token/ERC20/ERC20.sol\":5319:5323  bool */\n      0x00\n        /* \"@openzeppelin/contracts/token/ERC20/ERC20.sol\":5335:5350  address spender */\n      dup1\n        /* \"@openzeppelin/contracts/token/ERC20/ERC20.sol\":5353:5365  _msgSender() */\n      tag_129\n        /* \"@openzeppelin/contracts/token/ERC20/ERC20.sol\":5353:5363  _msgSender */\n      tag_124\n        /* \"@openzeppelin/contracts/token/ERC20/ERC20.sol\":5353:5365  _msgSender() */\n      jump\t// in\n    tag_129:\n        /* \"@openzeppelin/contracts/token/ERC20/ERC20.sol\":5335:5365  address spender = _msgSender() */\n      swap1\n      pop\n        /* \"@openzeppelin/contracts/token/ERC20/ERC20.sol\":5375:5413  _spendAllowance(from, spender, amount) */\n      tag_130\n        /* \"@openzeppelin/contracts/token/ERC20/ERC20.sol\":5391:5395  from */\n      dup6\n        /* \"@openzeppelin/contracts/token/ERC20/ERC20.sol\":5397:5404  spender */\n      dup3\n        /* \"@openzeppelin/contracts/token/ERC20/ERC20.sol\":5406:5412  amount */\n      dup6\n        /* \"@openzeppelin/contracts/token/ERC20/ERC20.sol\":5375:5390  _spendAllowance */\n      tag_131\n        /* \"@openzeppelin/contracts/token/ERC20/ERC20.sol\":5375:5413  _spendAllowance(from, spender, amount) */\n      jump\t// in\n    tag_130:\n        /* \"@openzeppelin/contracts/token/ERC20/ERC20.sol\":5423:5450  _transfer(from, to, amount) */\n      tag_132\n        /* \"@openzeppelin/contracts/token/ERC20/ERC20.sol\":5433:5437  from */\n      dup6\n        /* \"@openzeppelin/contracts/token/ERC20/ERC20.sol\":5439:5441  to */\n      dup6\n        /* \"@openzeppelin/contracts/token/ERC20/ERC20.sol\":5443:5449  amount */\n      dup6\n        /* \"@openzeppelin/contracts/token/ERC20/ERC20.sol\":5423:5432  _transfer */\n      tag_133\n        /* \"@openzeppelin/contracts/token/ERC20/ERC20.sol\":5423:5450  _transfer(from, to, amount) */\n      jump\t// in\n    tag_132:\n        /* \"@openzeppelin/contracts/token/ERC20/ERC20.sol\":5467:5471  true */\n      0x01\n        /* \"@openzeppelin/contracts/token/ERC20/ERC20.sol\":5460:5471  return true */\n      swap2\n      pop\n      pop\n        /* \"@openzeppelin/contracts/token/ERC20/ERC20.sol\":5192:5478  function transferFrom(... */\n      swap4\n      swap3\n      pop\n      pop\n      pop\n      jump\t// out\n        /* \"@openzeppelin/contracts/token/ERC20/ERC20.sol\":3093:3184  function decimals() public view virtual override returns (uint8) {... */\n    tag_53:\n        /* \"@openzeppelin/contracts/token/ERC20/ERC20.sol\":3151:3156  uint8 */\n      0x00\n        /* \"@openzeppelin/contracts/token/ERC20/ERC20.sol\":3175:3177  18 */\n      0x12\n        /* \"@openzeppelin/contracts/token/ERC20/ERC20.sol\":3168:3177  return 18 */\n      swap1\n      pop\n        /* \"@openzeppelin/contracts/token/ERC20/ERC20.sol\":3093:3184  function decimals() public view virtual override returns (uint8) {... */\n      swap1\n      jump\t// out\n        /* \"contracts/ZenyaStake.sol\":401:430  uint256 public _buyTokenPrice */\n    tag_58:\n      sload(0x07)\n      dup2\n      jump\t// out\n        /* \"@openzeppelin/contracts/token/ERC20/ERC20.sol\":5873:6109  function increaseAllowance(address spender, uint256 addedValue) public virtual returns (bool) {... */\n    tag_63:\n        /* \"@openzeppelin/contracts/token/ERC20/ERC20.sol\":5961:5965  bool */\n      0x00\n        /* \"@openzeppelin/contracts/token/ERC20/ERC20.sol\":5977:5990  address owner */\n      dup1\n        /* \"@openzeppelin/contracts/token/ERC20/ERC20.sol\":5993:6005  _msgSender() */\n      tag_136\n        /* \"@openzeppelin/contracts/token/ERC20/ERC20.sol\":5993:6003  _msgSender */\n      tag_124\n        /* \"@openzeppelin/contracts/token/ERC20/ERC20.sol\":5993:6005  _msgSender() */\n      jump\t// in\n    tag_136:\n        /* \"@openzeppelin/contracts/token/ERC20/ERC20.sol\":5977:6005  address owner = _msgSender() */\n      swap1\n      pop\n        /* \"@openzeppelin/contracts/token/ERC20/ERC20.sol\":6015:6081  _approve(owner, spender, _allowances[owner][spender] + addedValue) */\n      tag_137\n        /* \"@openzeppelin/contracts/token/ERC20/ERC20.sol\":6024:6029  owner */\n      dup2\n        /* \"@openzeppelin/contracts/token/ERC20/ERC20.sol\":6031:6038  spender */\n      dup6\n        /* \"@openzeppelin/contracts/token/ERC20/ERC20.sol\":6070:6080  addedValue */\n      dup6\n        /* \"@openzeppelin/contracts/token/ERC20/ERC20.sol\":6040:6051  _allowances */\n      0x01\n        /* \"@openzeppelin/contracts/token/ERC20/ERC20.sol\":6040:6058  _allowances[owner] */\n      0x00\n        /* \"@openzeppelin/contracts/token/ERC20/ERC20.sol\":6052:6057  owner */\n      dup7\n        /* \"@openzeppelin/contracts/token/ERC20/ERC20.sol\":6040:6058  _allowances[owner] */\n      0xffffffffffffffffffffffffffffffffffffffff\n      and\n      0xffffffffffffffffffffffffffffffffffffffff\n      and\n      dup2\n      mstore\n      0x20\n      add\n      swap1\n      dup2\n      mstore\n      0x20\n      add\n      0x00\n      keccak256\n        /* \"@openzeppelin/contracts/token/ERC20/ERC20.sol\":6040:6067  _allowances[owner][spender] */\n      0x00\n        /* \"@openzeppelin/contracts/token/ERC20/ERC20.sol\":6059:6066  spender */\n      dup10\n        /* \"@openzeppelin/contracts/token/ERC20/ERC20.sol\":6040:6067  _allowances[owner][spender] */\n      0xffffffffffffffffffffffffffffffffffffffff\n      and\n      0xffffffffffffffffffffffffffffffffffffffff\n      and\n      dup2\n      mstore\n      0x20\n      add\n      swap1\n      dup2\n      mstore\n      0x20\n      add\n      0x00\n      keccak256\n      sload\n        /* \"@openzeppelin/contracts/token/ERC20/ERC20.sol\":6040:6080  _allowances[owner][spender] + addedValue */\n      tag_138\n      swap2\n      swap1\n      tag_139\n      jump\t// in\n    tag_138:\n        /* \"@openzeppelin/contracts/token/ERC20/ERC20.sol\":6015:6023  _approve */\n      tag_126\n        /* \"@openzeppelin/contracts/token/ERC20/ERC20.sol\":6015:6081  _approve(owner, spender, _allowances[owner][spender] + addedValue) */\n      jump\t// in\n    tag_137:\n        /* \"@openzeppelin/contracts/token/ERC20/ERC20.sol\":6098:6102  true */\n      0x01\n        /* \"@openzeppelin/contracts/token/ERC20/ERC20.sol\":6091:6102  return true */\n      swap2\n      pop\n      pop\n        /* \"@openzeppelin/contracts/token/ERC20/ERC20.sol\":5873:6109  function increaseAllowance(address spender, uint256 addedValue) public virtual returns (bool) {... */\n      swap3\n      swap2\n      pop\n      pop\n      jump\t// out\n        /* \"contracts/ZenyaStake.sol\":759:944  function setTokenBuyPrice (uint256 buyPrice) public {... */\n    tag_69:\n        /* \"contracts/ZenyaStake.sol\":844:850  _owner */\n      0x06\n      0x00\n      swap1\n      sload\n      swap1\n      0x0100\n      exp\n      swap1\n      div\n      0xffffffffffffffffffffffffffffffffffffffff\n      and\n        /* \"contracts/ZenyaStake.sol\":830:850  msg.sender == _owner */\n      0xffffffffffffffffffffffffffffffffffffffff\n      and\n        /* \"contracts/ZenyaStake.sol\":830:840  msg.sender */\n      caller\n        /* \"contracts/ZenyaStake.sol\":830:850  msg.sender == _owner */\n      0xffffffffffffffffffffffffffffffffffffffff\n      and\n      eq\n        /* \"contracts/ZenyaStake.sol\":822:900  require(msg.sender == _owner, \"Only the Owner can set the price of the token\") */\n      tag_141\n      jumpi\n      mload(0x40)\n      0x08c379a000000000000000000000000000000000000000000000000000000000\n      dup2\n      mstore\n      0x04\n      add\n      tag_142\n      swap1\n      tag_143\n      jump\t// in\n    tag_142:\n      mload(0x40)\n      dup1\n      swap2\n      sub\n      swap1\n      revert\n    tag_141:\n        /* \"contracts/ZenyaStake.sol\":928:936  buyPrice */\n      dup1\n        /* \"contracts/ZenyaStake.sol\":911:925  _buyTokenPrice */\n      0x07\n        /* \"contracts/ZenyaStake.sol\":911:936  _buyTokenPrice = buyPrice */\n      dup2\n      swap1\n      sstore\n      pop\n        /* \"contracts/ZenyaStake.sol\":759:944  function setTokenBuyPrice (uint256 buyPrice) public {... */\n      pop\n      jump\t// out\n        /* \"@openzeppelin/contracts/token/ERC20/ERC20.sol\":3408:3533  function balanceOf(address account) public view virtual override returns (uint256) {... */\n    tag_74:\n        /* \"@openzeppelin/contracts/token/ERC20/ERC20.sol\":3482:3489  uint256 */\n      0x00\n        /* \"@openzeppelin/contracts/token/ERC20/ERC20.sol\":3508:3517  _balances */\n      dup1\n        /* \"@openzeppelin/contracts/token/ERC20/ERC20.sol\":3508:3526  _balances[account] */\n      0x00\n        /* \"@openzeppelin/contracts/token/ERC20/ERC20.sol\":3518:3525  account */\n      dup4\n        /* \"@openzeppelin/contracts/token/ERC20/ERC20.sol\":3508:3526  _balances[account] */\n      0xffffffffffffffffffffffffffffffffffffffff\n      and\n      0xffffffffffffffffffffffffffffffffffffffff\n      and\n      dup2\n      mstore\n      0x20\n      add\n      swap1\n      dup2\n      mstore\n      0x20\n      add\n      0x00\n      keccak256\n      sload\n        /* \"@openzeppelin/contracts/token/ERC20/ERC20.sol\":3501:3526  return _balances[account] */\n      swap1\n      pop\n        /* \"@openzeppelin/contracts/token/ERC20/ERC20.sol\":3408:3533  function balanceOf(address account) public view virtual override returns (uint256) {... */\n      swap2\n      swap1\n      pop\n      jump\t// out\n        /* \"@openzeppelin/contracts/access/Ownable.sol\":1668:1769  function renounceOwnership() public virtual onlyOwner {... */\n    tag_78:\n        /* \"@openzeppelin/contracts/access/Ownable.sol\":1259:1271  _msgSender() */\n      tag_146\n        /* \"@openzeppelin/contracts/access/Ownable.sol\":1259:1269  _msgSender */\n      tag_124\n        /* \"@openzeppelin/contracts/access/Ownable.sol\":1259:1271  _msgSender() */\n      jump\t// in\n    tag_146:\n        /* \"@openzeppelin/contracts/access/Ownable.sol\":1248:1271  owner() == _msgSender() */\n      0xffffffffffffffffffffffffffffffffffffffff\n      and\n        /* \"@openzeppelin/contracts/access/Ownable.sol\":1248:1255  owner() */\n      tag_147\n        /* \"@openzeppelin/contracts/access/Ownable.sol\":1248:1253  owner */\n      tag_84\n        /* \"@openzeppelin/contracts/access/Ownable.sol\":1248:1255  owner() */\n      jump\t// in\n    tag_147:\n        /* \"@openzeppelin/contracts/access/Ownable.sol\":1248:1271  owner() == _msgSender() */\n      0xffffffffffffffffffffffffffffffffffffffff\n      and\n      eq\n        /* \"@openzeppelin/contracts/access/Ownable.sol\":1240:1308  require(owner() == _msgSender(), \"Ownable: caller is not the owner\") */\n      tag_148\n      jumpi\n      mload(0x40)\n      0x08c379a000000000000000000000000000000000000000000000000000000000\n      dup2\n      mstore\n      0x04\n      add\n      tag_149\n      swap1\n      tag_150\n      jump\t// in\n    tag_149:\n      mload(0x40)\n      dup1\n      swap2\n      sub\n      swap1\n      revert\n    tag_148:\n        /* \"@openzeppelin/contracts/access/Ownable.sol\":1732:1762  _transferOwnership(address(0)) */\n      tag_152\n        /* \"@openzeppelin/contracts/access/Ownable.sol\":1759:1760  0 */\n      0x00\n        /* \"@openzeppelin/contracts/access/Ownable.sol\":1732:1750  _transferOwnership */\n      tag_153\n        /* \"@openzeppelin/contracts/access/Ownable.sol\":1732:1762  _transferOwnership(address(0)) */\n      jump\t// in\n    tag_152:\n        /* \"@openzeppelin/contracts/access/Ownable.sol\":1668:1769  function renounceOwnership() public virtual onlyOwner {... */\n      jump\t// out\n        /* \"contracts/ZenyaStake.sol\":1090:1551  function buyToken(address receiver) public payable{... */\n    tag_81:\n        /* \"contracts/ZenyaStake.sol\":1255:1265  decimals() */\n      tag_155\n        /* \"contracts/ZenyaStake.sol\":1255:1263  decimals */\n      tag_53\n        /* \"contracts/ZenyaStake.sol\":1255:1265  decimals() */\n      jump\t// in\n    tag_155:\n        /* \"contracts/ZenyaStake.sol\":1251:1253  10 */\n      0x0a\n        /* \"contracts/ZenyaStake.sol\":1251:1265  10**decimals() */\n      tag_156\n      swap2\n      swap1\n      tag_157\n      jump\t// in\n    tag_156:\n        /* \"contracts/ZenyaStake.sol\":1234:1248  _buyTokenPrice */\n      sload(0x07)\n        /* \"contracts/ZenyaStake.sol\":1234:1265  _buyTokenPrice * 10**decimals() */\n      tag_158\n      swap2\n      swap1\n      tag_159\n      jump\t// in\n    tag_158:\n        /* \"contracts/ZenyaStake.sol\":1219:1230  zenyaPerEth */\n      0x08\n        /* \"contracts/ZenyaStake.sol\":1219:1265  zenyaPerEth  = _buyTokenPrice * 10**decimals() */\n      dup2\n      swap1\n      sstore\n      pop\n        /* \"contracts/ZenyaStake.sol\":1367:1389  uint256 amountMintable */\n      0x00\n        /* \"contracts/ZenyaStake.sol\":1424:1434  decimals() */\n      tag_160\n        /* \"contracts/ZenyaStake.sol\":1424:1432  decimals */\n      tag_53\n        /* \"contracts/ZenyaStake.sol\":1424:1434  decimals() */\n      jump\t// in\n    tag_160:\n        /* \"contracts/ZenyaStake.sol\":1420:1422  10 */\n      0x0a\n        /* \"contracts/ZenyaStake.sol\":1420:1434  10**decimals() */\n      tag_161\n      swap2\n      swap1\n      tag_157\n      jump\t// in\n    tag_161:\n        /* \"contracts/ZenyaStake.sol\":1405:1416  zenyaPerEth */\n      sload(0x08)\n        /* \"contracts/ZenyaStake.sol\":1393:1402  msg.value */\n      callvalue\n        /* \"contracts/ZenyaStake.sol\":1393:1416  msg.value * zenyaPerEth */\n      tag_162\n      swap2\n      swap1\n      tag_159\n      jump\t// in\n    tag_162:\n        /* \"contracts/ZenyaStake.sol\":1392:1434  (msg.value * zenyaPerEth) / 10**decimals() */\n      tag_163\n      swap2\n      swap1\n      tag_164\n      jump\t// in\n    tag_163:\n        /* \"contracts/ZenyaStake.sol\":1367:1434  uint256 amountMintable = (msg.value * zenyaPerEth) / 10**decimals() */\n      swap1\n      pop\n        /* \"contracts/ZenyaStake.sol\":1512:1543  _mint(receiver, amountMintable) */\n      tag_165\n        /* \"contracts/ZenyaStake.sol\":1518:1526  receiver */\n      dup3\n        /* \"contracts/ZenyaStake.sol\":1528:1542  amountMintable */\n      dup3\n        /* \"contracts/ZenyaStake.sol\":1512:1517  _mint */\n      tag_166\n        /* \"contracts/ZenyaStake.sol\":1512:1543  _mint(receiver, amountMintable) */\n      jump\t// in\n    tag_165:\n        /* \"contracts/ZenyaStake.sol\":1140:1551  {... */\n      pop\n        /* \"contracts/ZenyaStake.sol\":1090:1551  function buyToken(address receiver) public payable{... */\n      pop\n      jump\t// out\n        /* \"@openzeppelin/contracts/access/Ownable.sol\":1036:1121  function owner() public view virtual returns (address) {... */\n    tag_84:\n        /* \"@openzeppelin/contracts/access/Ownable.sol\":1082:1089  address */\n      0x00\n        /* \"@openzeppelin/contracts/access/Ownable.sol\":1108:1114  _owner */\n      0x05\n      0x00\n      swap1\n      sload\n      swap1\n      0x0100\n      exp\n      swap1\n      div\n      0xffffffffffffffffffffffffffffffffffffffff\n      and\n        /* \"@openzeppelin/contracts/access/Ownable.sol\":1101:1114  return _owner */\n      swap1\n      pop\n        /* \"@openzeppelin/contracts/access/Ownable.sol\":1036:1121  function owner() public view virtual returns (address) {... */\n      swap1\n      jump\t// out\n        /* \"@openzeppelin/contracts/token/ERC20/ERC20.sol\":2367:2469  function symbol() public view virtual override returns (string memory) {... */\n    tag_89:\n        /* \"@openzeppelin/contracts/token/ERC20/ERC20.sol\":2423:2436  string memory */\n      0x60\n        /* \"@openzeppelin/contracts/token/ERC20/ERC20.sol\":2455:2462  _symbol */\n      0x04\n        /* \"@openzeppelin/contracts/token/ERC20/ERC20.sol\":2448:2462  return _symbol */\n      dup1\n      sload\n      tag_169\n      swap1\n      tag_117\n      jump\t// in\n    tag_169:\n      dup1\n      0x1f\n      add\n      0x20\n      dup1\n      swap2\n      div\n      mul\n      0x20\n      add\n      mload(0x40)\n      swap1\n      dup2\n      add\n      0x40\n      mstore\n      dup1\n      swap3\n      swap2\n      swap1\n      dup2\n      dup2\n      mstore\n      0x20\n      add\n      dup3\n      dup1\n      sload\n      tag_170\n      swap1\n      tag_117\n      jump\t// in\n    tag_170:\n      dup1\n      iszero\n      tag_171\n      jumpi\n      dup1\n      0x1f\n      lt\n      tag_172\n      jumpi\n      0x0100\n      dup1\n      dup4\n      sload\n      div\n      mul\n      dup4\n      mstore\n      swap2\n      0x20\n      add\n      swap2\n      jump(tag_171)\n    tag_172:\n      dup3\n      add\n      swap2\n      swap1\n      0x00\n      mstore\n      keccak256(0x00, 0x20)\n      swap1\n    tag_173:\n      dup2\n      sload\n      dup2\n      mstore\n      swap1\n      0x01\n      add\n      swap1\n      0x20\n      add\n      dup1\n      dup4\n      gt\n      tag_173\n      jumpi\n      dup3\n      swap1\n      sub\n      0x1f\n      and\n      dup3\n      add\n      swap2\n    tag_171:\n      pop\n      pop\n      pop\n      pop\n      pop\n      swap1\n      pop\n        /* \"@openzeppelin/contracts/token/ERC20/ERC20.sol\":2367:2469  function symbol() public view virtual override returns (string memory) {... */\n      swap1\n      jump\t// out\n        /* \"@openzeppelin/contracts/token/ERC20/ERC20.sol\":6596:7025  function decreaseAllowance(address spender, uint256 subtractedValue) public virtual returns (bool) {... */\n    tag_94:\n        /* \"@openzeppelin/contracts/token/ERC20/ERC20.sol\":6689:6693  bool */\n      0x00\n        /* \"@openzeppelin/contracts/token/ERC20/ERC20.sol\":6705:6718  address owner */\n      dup1\n        /* \"@openzeppelin/contracts/token/ERC20/ERC20.sol\":6721:6733  _msgSender() */\n      tag_175\n        /* \"@openzeppelin/contracts/token/ERC20/ERC20.sol\":6721:6731  _msgSender */\n      tag_124\n        /* \"@openzeppelin/contracts/token/ERC20/ERC20.sol\":6721:6733  _msgSender() */\n      jump\t// in\n    tag_175:\n        /* \"@openzeppelin/contracts/token/ERC20/ERC20.sol\":6705:6733  address owner = _msgSender() */\n      swap1\n      pop\n        /* \"@openzeppelin/contracts/token/ERC20/ERC20.sol\":6743:6767  uint256 currentAllowance */\n      0x00\n        /* \"@openzeppelin/contracts/token/ERC20/ERC20.sol\":6770:6781  _allowances */\n      0x01\n        /* \"@openzeppelin/contracts/token/ERC20/ERC20.sol\":6770:6788  _allowances[owner] */\n      0x00\n        /* \"@openzeppelin/contracts/token/ERC20/ERC20.sol\":6782:6787  owner */\n      dup4\n        /* \"@openzeppelin/contracts/token/ERC20/ERC20.sol\":6770:6788  _allowances[owner] */\n      0xffffffffffffffffffffffffffffffffffffffff\n      and\n      0xffffffffffffffffffffffffffffffffffffffff\n      and\n      dup2\n      mstore\n      0x20\n      add\n      swap1\n      dup2\n      mstore\n      0x20\n      add\n      0x00\n      keccak256\n        /* \"@openzeppelin/contracts/token/ERC20/ERC20.sol\":6770:6797  _allowances[owner][spender] */\n      0x00\n        /* \"@openzeppelin/contracts/token/ERC20/ERC20.sol\":6789:6796  spender */\n      dup7\n        /* \"@openzeppelin/contracts/token/ERC20/ERC20.sol\":6770:6797  _allowances[owner][spender] */\n      0xffffffffffffffffffffffffffffffffffffffff\n      and\n      0xffffffffffffffffffffffffffffffffffffffff\n      and\n      dup2\n      mstore\n      0x20\n      add\n      swap1\n      dup2\n      mstore\n      0x20\n      add\n      0x00\n      keccak256\n      sload\n        /* \"@openzeppelin/contracts/token/ERC20/ERC20.sol\":6743:6797  uint256 currentAllowance = _allowances[owner][spender] */\n      swap1\n      pop\n        /* \"@openzeppelin/contracts/token/ERC20/ERC20.sol\":6835:6850  subtractedValue */\n      dup4\n        /* \"@openzeppelin/contracts/token/ERC20/ERC20.sol\":6815:6831  currentAllowance */\n      dup2\n        /* \"@openzeppelin/contracts/token/ERC20/ERC20.sol\":6815:6850  currentAllowance >= subtractedValue */\n      lt\n      iszero\n        /* \"@openzeppelin/contracts/token/ERC20/ERC20.sol\":6807:6892  require(currentAllowance >= subtractedValue, \"ERC20: decreased allowance below zero\") */\n      tag_176\n      jumpi\n      mload(0x40)\n      0x08c379a000000000000000000000000000000000000000000000000000000000\n      dup2\n      mstore\n      0x04\n      add\n      tag_177\n      swap1\n      tag_178\n      jump\t// in\n    tag_177:\n      mload(0x40)\n      dup1\n      swap2\n      sub\n      swap1\n      revert\n    tag_176:\n        /* \"@openzeppelin/contracts/token/ERC20/ERC20.sol\":6926:6986  _approve(owner, spender, currentAllowance - subtractedValue) */\n      tag_179\n        /* \"@openzeppelin/contracts/token/ERC20/ERC20.sol\":6935:6940  owner */\n      dup3\n        /* \"@openzeppelin/contracts/token/ERC20/ERC20.sol\":6942:6949  spender */\n      dup7\n        /* \"@openzeppelin/contracts/token/ERC20/ERC20.sol\":6970:6985  subtractedValue */\n      dup7\n        /* \"@openzeppelin/contracts/token/ERC20/ERC20.sol\":6951:6967  currentAllowance */\n      dup5\n        /* \"@openzeppelin/contracts/token/ERC20/ERC20.sol\":6951:6985  currentAllowance - subtractedValue */\n      sub\n        /* \"@openzeppelin/contracts/token/ERC20/ERC20.sol\":6926:6934  _approve */\n      tag_126\n        /* \"@openzeppelin/contracts/token/ERC20/ERC20.sol\":6926:6986  _approve(owner, spender, currentAllowance - subtractedValue) */\n      jump\t// in\n    tag_179:\n        /* \"@openzeppelin/contracts/token/ERC20/ERC20.sol\":7014:7018  true */\n      0x01\n        /* \"@openzeppelin/contracts/token/ERC20/ERC20.sol\":7007:7018  return true */\n      swap3\n      pop\n      pop\n      pop\n        /* \"@openzeppelin/contracts/token/ERC20/ERC20.sol\":6596:7025  function decreaseAllowance(address spender, uint256 subtractedValue) public virtual returns (bool) {... */\n      swap3\n      swap2\n      pop\n      pop\n      jump\t// out\n        /* \"@openzeppelin/contracts/token/ERC20/ERC20.sol\":3729:3918  function transfer(address to, uint256 amount) public virtual override returns (bool) {... */\n    tag_99:\n        /* \"@openzeppelin/contracts/token/ERC20/ERC20.sol\":3808:3812  bool */\n      0x00\n        /* \"@openzeppelin/contracts/token/ERC20/ERC20.sol\":3824:3837  address owner */\n      dup1\n        /* \"@openzeppelin/contracts/token/ERC20/ERC20.sol\":3840:3852  _msgSender() */\n      tag_181\n        /* \"@openzeppelin/contracts/token/ERC20/ERC20.sol\":3840:3850  _msgSender */\n      tag_124\n        /* \"@openzeppelin/contracts/token/ERC20/ERC20.sol\":3840:3852  _msgSender() */\n      jump\t// in\n    tag_181:\n        /* \"@openzeppelin/contracts/token/ERC20/ERC20.sol\":3824:3852  address owner = _msgSender() */\n      swap1\n      pop\n        /* \"@openzeppelin/contracts/token/ERC20/ERC20.sol\":3862:3890  _transfer(owner, to, amount) */\n      tag_182\n        /* \"@openzeppelin/contracts/token/ERC20/ERC20.sol\":3872:3877  owner */\n      dup2\n        /* \"@openzeppelin/contracts/token/ERC20/ERC20.sol\":3879:3881  to */\n      dup6\n        /* \"@openzeppelin/contracts/token/ERC20/ERC20.sol\":3883:3889  amount */\n      dup6\n        /* \"@openzeppelin/contracts/token/ERC20/ERC20.sol\":3862:3871  _transfer */\n      tag_133\n        /* \"@openzeppelin/contracts/token/ERC20/ERC20.sol\":3862:3890  _transfer(owner, to, amount) */\n      jump\t// in\n    tag_182:\n        /* \"@openzeppelin/contracts/token/ERC20/ERC20.sol\":3907:3911  true */\n      0x01\n        /* \"@openzeppelin/contracts/token/ERC20/ERC20.sol\":3900:3911  return true */\n      swap2\n      pop\n      pop\n        /* \"@openzeppelin/contracts/token/ERC20/ERC20.sol\":3729:3918  function transfer(address to, uint256 amount) public virtual override returns (bool) {... */\n      swap3\n      swap2\n      pop\n      pop\n      jump\t// out\n        /* \"contracts/ZenyaStake.sol\":288:309  address public _owner */\n    tag_103:\n      0x06\n      0x00\n      swap1\n      sload\n      swap1\n      0x0100\n      exp\n      swap1\n      div\n      0xffffffffffffffffffffffffffffffffffffffff\n      and\n      dup2\n      jump\t// out\n        /* \"@openzeppelin/contracts/token/ERC20/ERC20.sol\":3976:4125  function allowance(address owner, address spender) public view virtual override returns (uint256) {... */\n    tag_109:\n        /* \"@openzeppelin/contracts/token/ERC20/ERC20.sol\":4065:4072  uint256 */\n      0x00\n        /* \"@openzeppelin/contracts/token/ERC20/ERC20.sol\":4091:4102  _allowances */\n      0x01\n        /* \"@openzeppelin/contracts/token/ERC20/ERC20.sol\":4091:4109  _allowances[owner] */\n      0x00\n        /* \"@openzeppelin/contracts/token/ERC20/ERC20.sol\":4103:4108  owner */\n      dup5\n        /* \"@openzeppelin/contracts/token/ERC20/ERC20.sol\":4091:4109  _allowances[owner] */\n      0xffffffffffffffffffffffffffffffffffffffff\n      and\n      0xffffffffffffffffffffffffffffffffffffffff\n      and\n      dup2\n      mstore\n      0x20\n      add\n      swap1\n      dup2\n      mstore\n      0x20\n      add\n      0x00\n      keccak256\n        /* \"@openzeppelin/contracts/token/ERC20/ERC20.sol\":4091:4118  _allowances[owner][spender] */\n      0x00\n        /* \"@openzeppelin/contracts/token/ERC20/ERC20.sol\":4110:4117  spender */\n      dup4\n        /* \"@openzeppelin/contracts/token/ERC20/ERC20.sol\":4091:4118  _allowances[owner][spender] */\n      0xffffffffffffffffffffffffffffffffffffffff\n      and\n      0xffffffffffffffffffffffffffffffffffffffff\n      and\n      dup2\n      mstore\n      0x20\n      add\n      swap1\n      dup2\n      mstore\n      0x20\n      add\n      0x00\n      keccak256\n      sload\n        /* \"@openzeppelin/contracts/token/ERC20/ERC20.sol\":4084:4118  return _allowances[owner][spender] */\n      swap1\n      pop\n        /* \"@openzeppelin/contracts/token/ERC20/ERC20.sol\":3976:4125  function allowance(address owner, address spender) public view virtual override returns (uint256) {... */\n      swap3\n      swap2\n      pop\n      pop\n      jump\t// out\n        /* \"@openzeppelin/contracts/access/Ownable.sol\":1918:2116  function transferOwnership(address newOwner) public virtual onlyOwner {... */\n    tag_114:\n        /* \"@openzeppelin/contracts/access/Ownable.sol\":1259:1271  _msgSender() */\n      tag_185\n        /* \"@openzeppelin/contracts/access/Ownable.sol\":1259:1269  _msgSender */\n      tag_124\n        /* \"@openzeppelin/contracts/access/Ownable.sol\":1259:1271  _msgSender() */\n      jump\t// in\n    tag_185:\n        /* \"@openzeppelin/contracts/access/Ownable.sol\":1248:1271  owner() == _msgSender() */\n      0xffffffffffffffffffffffffffffffffffffffff\n      and\n        /* \"@openzeppelin/contracts/access/Ownable.sol\":1248:1255  owner() */\n      tag_186\n        /* \"@openzeppelin/contracts/access/Ownable.sol\":1248:1253  owner */\n      tag_84\n        /* \"@openzeppelin/contracts/access/Ownable.sol\":1248:1255  owner() */\n      jump\t// in\n    tag_186:\n        /* \"@openzeppelin/contracts/access/Ownable.sol\":1248:1271  owner() == _msgSender() */\n      0xffffffffffffffffffffffffffffffffffffffff\n      and\n      eq\n        /* \"@openzeppelin/contracts/access/Ownable.sol\":1240:1308  require(owner() == _msgSender(), \"Ownable: caller is not the owner\") */\n      tag_187\n      jumpi\n      mload(0x40)\n      0x08c379a000000000000000000000000000000000000000000000000000000000\n      dup2\n      mstore\n      0x04\n      add\n      tag_188\n      swap1\n      tag_150\n      jump\t// in\n    tag_188:\n      mload(0x40)\n      dup1\n      swap2\n      sub\n      swap1\n      revert\n    tag_187:\n        /* \"@openzeppelin/contracts/access/Ownable.sol\":2026:2027  0 */\n      0x00\n        /* \"@openzeppelin/contracts/access/Ownable.sol\":2006:2028  newOwner != address(0) */\n      0xffffffffffffffffffffffffffffffffffffffff\n      and\n        /* \"@openzeppelin/contracts/access/Ownable.sol\":2006:2014  newOwner */\n      dup2\n        /* \"@openzeppelin/contracts/access/Ownable.sol\":2006:2028  newOwner != address(0) */\n      0xffffffffffffffffffffffffffffffffffffffff\n      and\n      eq\n      iszero\n        /* \"@openzeppelin/contracts/access/Ownable.sol\":1998:2071  require(newOwner != address(0), \"Ownable: new owner is the zero address\") */\n      tag_190\n      jumpi\n      mload(0x40)\n      0x08c379a000000000000000000000000000000000000000000000000000000000\n      dup2\n      mstore\n      0x04\n      add\n      tag_191\n      swap1\n      tag_192\n      jump\t// in\n    tag_191:\n      mload(0x40)\n      dup1\n      swap2\n      sub\n      swap1\n      revert\n    tag_190:\n        /* \"@openzeppelin/contracts/access/Ownable.sol\":2081:2109  _transferOwnership(newOwner) */\n      tag_193\n        /* \"@openzeppelin/contracts/access/Ownable.sol\":2100:2108  newOwner */\n      dup2\n        /* \"@openzeppelin/contracts/access/Ownable.sol\":2081:2099  _transferOwnership */\n      tag_153\n        /* \"@openzeppelin/contracts/access/Ownable.sol\":2081:2109  _transferOwnership(newOwner) */\n      jump\t// in\n    tag_193:\n        /* \"@openzeppelin/contracts/access/Ownable.sol\":1918:2116  function transferOwnership(address newOwner) public virtual onlyOwner {... */\n      pop\n      jump\t// out\n        /* \"@openzeppelin/contracts/utils/Context.sol\":640:736  function _msgSender() internal view virtual returns (address) {... */\n    tag_124:\n        /* \"@openzeppelin/contracts/utils/Context.sol\":693:700  address */\n      0x00\n        /* \"@openzeppelin/contracts/utils/Context.sol\":719:729  msg.sender */\n      caller\n        /* \"@openzeppelin/contracts/utils/Context.sol\":712:729  return msg.sender */\n      swap1\n      pop\n        /* \"@openzeppelin/contracts/utils/Context.sol\":640:736  function _msgSender() internal view virtual returns (address) {... */\n      swap1\n      jump\t// out\n        /* \"@openzeppelin/contracts/token/ERC20/ERC20.sol\":10123:10493  function _approve(... */\n    tag_126:\n        /* \"@openzeppelin/contracts/token/ERC20/ERC20.sol\":10271:10272  0 */\n      0x00\n        /* \"@openzeppelin/contracts/token/ERC20/ERC20.sol\":10254:10273  owner != address(0) */\n      0xffffffffffffffffffffffffffffffffffffffff\n      and\n        /* \"@openzeppelin/contracts/token/ERC20/ERC20.sol\":10254:10259  owner */\n      dup4\n        /* \"@openzeppelin/contracts/token/ERC20/ERC20.sol\":10254:10273  owner != address(0) */\n      0xffffffffffffffffffffffffffffffffffffffff\n      and\n      eq\n      iszero\n        /* \"@openzeppelin/contracts/token/ERC20/ERC20.sol\":10246:10314  require(owner != address(0), \"ERC20: approve from the zero address\") */\n      tag_196\n      jumpi\n      mload(0x40)\n      0x08c379a000000000000000000000000000000000000000000000000000000000\n      dup2\n      mstore\n      0x04\n      add\n      tag_197\n      swap1\n      tag_198\n      jump\t// in\n    tag_197:\n      mload(0x40)\n      dup1\n      swap2\n      sub\n      swap1\n      revert\n    tag_196:\n        /* \"@openzeppelin/contracts/token/ERC20/ERC20.sol\":10351:10352  0 */\n      0x00\n        /* \"@openzeppelin/contracts/token/ERC20/ERC20.sol\":10332:10353  spender != address(0) */\n      0xffffffffffffffffffffffffffffffffffffffff\n      and\n        /* \"@openzeppelin/contracts/token/ERC20/ERC20.sol\":10332:10339  spender */\n      dup3\n        /* \"@openzeppelin/contracts/token/ERC20/ERC20.sol\":10332:10353  spender != address(0) */\n      0xffffffffffffffffffffffffffffffffffffffff\n      and\n      eq\n      iszero\n        /* \"@openzeppelin/contracts/token/ERC20/ERC20.sol\":10324:10392  require(spender != address(0), \"ERC20: approve to the zero address\") */\n      tag_199\n      jumpi\n      mload(0x40)\n      0x08c379a000000000000000000000000000000000000000000000000000000000\n      dup2\n      mstore\n      0x04\n      add\n      tag_200\n      swap1\n      tag_201\n      jump\t// in\n    tag_200:\n      mload(0x40)\n      dup1\n      swap2\n      sub\n      swap1\n      revert\n    tag_199:\n        /* \"@openzeppelin/contracts/token/ERC20/ERC20.sol\":10433:10439  amount */\n      dup1\n        /* \"@openzeppelin/contracts/token/ERC20/ERC20.sol\":10403:10414  _allowances */\n      0x01\n        /* \"@openzeppelin/contracts/token/ERC20/ERC20.sol\":10403:10421  _allowances[owner] */\n      0x00\n        /* \"@openzeppelin/contracts/token/ERC20/ERC20.sol\":10415:10420  owner */\n      dup6\n        /* \"@openzeppelin/contracts/token/ERC20/ERC20.sol\":10403:10421  _allowances[owner] */\n      0xffffffffffffffffffffffffffffffffffffffff\n      and\n      0xffffffffffffffffffffffffffffffffffffffff\n      and\n      dup2\n      mstore\n      0x20\n      add\n      swap1\n      dup2\n      mstore\n      0x20\n      add\n      0x00\n      keccak256\n        /* \"@openzeppelin/contracts/token/ERC20/ERC20.sol\":10403:10430  _allowances[owner][spender] */\n      0x00\n        /* \"@openzeppelin/contracts/token/ERC20/ERC20.sol\":10422:10429  spender */\n      dup5\n        /* \"@openzeppelin/contracts/token/ERC20/ERC20.sol\":10403:10430  _allowances[owner][spender] */\n      0xffffffffffffffffffffffffffffffffffffffff\n      and\n      0xffffffffffffffffffffffffffffffffffffffff\n      and\n      dup2\n      mstore\n      0x20\n      add\n      swap1\n      dup2\n      mstore\n      0x20\n      add\n      0x00\n      keccak256\n        /* \"@openzeppelin/contracts/token/ERC20/ERC20.sol\":10403:10439  _allowances[owner][spender] = amount */\n      dup2\n      swap1\n      sstore\n      pop\n        /* \"@openzeppelin/contracts/token/ERC20/ERC20.sol\":10470:10477  spender */\n      dup2\n        /* \"@openzeppelin/contracts/token/ERC20/ERC20.sol\":10454:10486  Approval(owner, spender, amount) */\n      0xffffffffffffffffffffffffffffffffffffffff\n      and\n        /* \"@openzeppelin/contracts/token/ERC20/ERC20.sol\":10463:10468  owner */\n      dup4\n        /* \"@openzeppelin/contracts/token/ERC20/ERC20.sol\":10454:10486  Approval(owner, spender, amount) */\n      0xffffffffffffffffffffffffffffffffffffffff\n      and\n      0x8c5be1e5ebec7d5bd14f71427d1e84f3dd0314c0f7b2291e5b200ac8c7c3b925\n        /* \"@openzeppelin/contracts/token/ERC20/ERC20.sol\":10479:10485  amount */\n      dup4\n        /* \"@openzeppelin/contracts/token/ERC20/ERC20.sol\":10454:10486  Approval(owner, spender, amount) */\n      mload(0x40)\n      tag_202\n      swap2\n      swap1\n      tag_28\n      jump\t// in\n    tag_202:\n      mload(0x40)\n      dup1\n      swap2\n      sub\n      swap1\n      log3\n        /* \"@openzeppelin/contracts/token/ERC20/ERC20.sol\":10123:10493  function _approve(... */\n      pop\n      pop\n      pop\n      jump\t// out\n        /* \"@openzeppelin/contracts/token/ERC20/ERC20.sol\":10770:11211  function _spendAllowance(... */\n    tag_131:\n        /* \"@openzeppelin/contracts/token/ERC20/ERC20.sol\":10900:10924  uint256 currentAllowance */\n      0x00\n        /* \"@openzeppelin/contracts/token/ERC20/ERC20.sol\":10927:10952  allowance(owner, spender) */\n      tag_204\n        /* \"@openzeppelin/contracts/token/ERC20/ERC20.sol\":10937:10942  owner */\n      dup5\n        /* \"@openzeppelin/contracts/token/ERC20/ERC20.sol\":10944:10951  spender */\n      dup5\n        /* \"@openzeppelin/contracts/token/ERC20/ERC20.sol\":10927:10936  allowance */\n      tag_109\n        /* \"@openzeppelin/contracts/token/ERC20/ERC20.sol\":10927:10952  allowance(owner, spender) */\n      jump\t// in\n    tag_204:\n        /* \"@openzeppelin/contracts/token/ERC20/ERC20.sol\":10900:10952  uint256 currentAllowance = allowance(owner, spender) */\n      swap1\n      pop\n        /* \"@openzeppelin/contracts/token/ERC20/ERC20.sol\":10986:11003  type(uint256).max */\n      0xffffffffffffffffffffffffffffffffffffffffffffffffffffffffffffffff\n        /* \"@openzeppelin/contracts/token/ERC20/ERC20.sol\":10966:10982  currentAllowance */\n      dup2\n        /* \"@openzeppelin/contracts/token/ERC20/ERC20.sol\":10966:11003  currentAllowance != type(uint256).max */\n      eq\n        /* \"@openzeppelin/contracts/token/ERC20/ERC20.sol\":10962:11205  if (currentAllowance != type(uint256).max) {... */\n      tag_205\n      jumpi\n        /* \"@openzeppelin/contracts/token/ERC20/ERC20.sol\":11047:11053  amount */\n      dup2\n        /* \"@openzeppelin/contracts/token/ERC20/ERC20.sol\":11027:11043  currentAllowance */\n      dup2\n        /* \"@openzeppelin/contracts/token/ERC20/ERC20.sol\":11027:11053  currentAllowance >= amount */\n      lt\n      iszero\n        /* \"@openzeppelin/contracts/token/ERC20/ERC20.sol\":11019:11087  require(currentAllowance >= amount, \"ERC20: insufficient allowance\") */\n      tag_206\n      jumpi\n      mload(0x40)\n      0x08c379a000000000000000000000000000000000000000000000000000000000\n      dup2\n      mstore\n      0x04\n      add\n      tag_207\n      swap1\n      tag_208\n      jump\t// in\n    tag_207:\n      mload(0x40)\n      dup1\n      swap2\n      sub\n      swap1\n      revert\n    tag_206:\n        /* \"@openzeppelin/contracts/token/ERC20/ERC20.sol\":11129:11180  _approve(owner, spender, currentAllowance - amount) */\n      tag_209\n        /* \"@openzeppelin/contracts/token/ERC20/ERC20.sol\":11138:11143  owner */\n      dup5\n        /* \"@openzeppelin/contracts/token/ERC20/ERC20.sol\":11145:11152  spender */\n      dup5\n        /* \"@openzeppelin/contracts/token/ERC20/ERC20.sol\":11173:11179  amount */\n      dup5\n        /* \"@openzeppelin/contracts/token/ERC20/ERC20.sol\":11154:11170  currentAllowance */\n      dup5\n        /* \"@openzeppelin/contracts/token/ERC20/ERC20.sol\":11154:11179  currentAllowance - amount */\n      sub\n        /* \"@openzeppelin/contracts/token/ERC20/ERC20.sol\":11129:11137  _approve */\n      tag_126\n        /* \"@openzeppelin/contracts/token/ERC20/ERC20.sol\":11129:11180  _approve(owner, spender, currentAllowance - amount) */\n      jump\t// in\n    tag_209:\n        /* \"@openzeppelin/contracts/token/ERC20/ERC20.sol\":10962:11205  if (currentAllowance != type(uint256).max) {... */\n    tag_205:\n        /* \"@openzeppelin/contracts/token/ERC20/ERC20.sol\":10890:11211  {... */\n      pop\n        /* \"@openzeppelin/contracts/token/ERC20/ERC20.sol\":10770:11211  function _spendAllowance(... */\n      pop\n      pop\n      pop\n      jump\t// out\n        /* \"@openzeppelin/contracts/token/ERC20/ERC20.sol\":7488:8139  function _transfer(... */\n    tag_133:\n        /* \"@openzeppelin/contracts/token/ERC20/ERC20.sol\":7630:7631  0 */\n      0x00\n        /* \"@openzeppelin/contracts/token/ERC20/ERC20.sol\":7614:7632  from != address(0) */\n      0xffffffffffffffffffffffffffffffffffffffff\n      and\n        /* \"@openzeppelin/contracts/token/ERC20/ERC20.sol\":7614:7618  from */\n      dup4\n        /* \"@openzeppelin/contracts/token/ERC20/ERC20.sol\":7614:7632  from != address(0) */\n      0xffffffffffffffffffffffffffffffffffffffff\n      and\n      eq\n      iszero\n        /* \"@openzeppelin/contracts/token/ERC20/ERC20.sol\":7606:7674  require(from != address(0), \"ERC20: transfer from the zero address\") */\n      tag_211\n      jumpi\n      mload(0x40)\n      0x08c379a000000000000000000000000000000000000000000000000000000000\n      dup2\n      mstore\n      0x04\n      add\n      tag_212\n      swap1\n      tag_213\n      jump\t// in\n    tag_212:\n      mload(0x40)\n      dup1\n      swap2\n      sub\n      swap1\n      revert\n    tag_211:\n        /* \"@openzeppelin/contracts/token/ERC20/ERC20.sol\":7706:7707  0 */\n      0x00\n        /* \"@openzeppelin/contracts/token/ERC20/ERC20.sol\":7692:7708  to != address(0) */\n      0xffffffffffffffffffffffffffffffffffffffff\n      and\n        /* \"@openzeppelin/contracts/token/ERC20/ERC20.sol\":7692:7694  to */\n      dup3\n        /* \"@openzeppelin/contracts/token/ERC20/ERC20.sol\":7692:7708  to != address(0) */\n      0xffffffffffffffffffffffffffffffffffffffff\n      and\n      eq\n      iszero\n        /* \"@openzeppelin/contracts/token/ERC20/ERC20.sol\":7684:7748  require(to != address(0), \"ERC20: transfer to the zero address\") */\n      tag_214\n      jumpi\n      mload(0x40)\n      0x08c379a000000000000000000000000000000000000000000000000000000000\n      dup2\n      mstore\n      0x04\n      add\n      tag_215\n      swap1\n      tag_216\n      jump\t// in\n    tag_215:\n      mload(0x40)\n      dup1\n      swap2\n      sub\n      swap1\n      revert\n    tag_214:\n        /* \"@openzeppelin/contracts/token/ERC20/ERC20.sol\":7759:7797  _beforeTokenTransfer(from, to, amount) */\n      tag_217\n        /* \"@openzeppelin/contracts/token/ERC20/ERC20.sol\":7780:7784  from */\n      dup4\n        /* \"@openzeppelin/contracts/token/ERC20/ERC20.sol\":7786:7788  to */\n      dup4\n        /* \"@openzeppelin/contracts/token/ERC20/ERC20.sol\":7790:7796  amount */\n      dup4\n        /* \"@openzeppelin/contracts/token/ERC20/ERC20.sol\":7759:7779  _beforeTokenTransfer */\n      tag_218\n        /* \"@openzeppelin/contracts/token/ERC20/ERC20.sol\":7759:7797  _beforeTokenTransfer(from, to, amount) */\n      jump\t// in\n    tag_217:\n        /* \"@openzeppelin/contracts/token/ERC20/ERC20.sol\":7808:7827  uint256 fromBalance */\n      0x00\n        /* \"@openzeppelin/contracts/token/ERC20/ERC20.sol\":7830:7839  _balances */\n      dup1\n        /* \"@openzeppelin/contracts/token/ERC20/ERC20.sol\":7830:7845  _balances[from] */\n      0x00\n        /* \"@openzeppelin/contracts/token/ERC20/ERC20.sol\":7840:7844  from */\n      dup6\n        /* \"@openzeppelin/contracts/token/ERC20/ERC20.sol\":7830:7845  _balances[from] */\n      0xffffffffffffffffffffffffffffffffffffffff\n      and\n      0xffffffffffffffffffffffffffffffffffffffff\n      and\n      dup2\n      mstore\n      0x20\n      add\n      swap1\n      dup2\n      mstore\n      0x20\n      add\n      0x00\n      keccak256\n      sload\n        /* \"@openzeppelin/contracts/token/ERC20/ERC20.sol\":7808:7845  uint256 fromBalance = _balances[from] */\n      swap1\n      pop\n        /* \"@openzeppelin/contracts/token/ERC20/ERC20.sol\":7878:7884  amount */\n      dup2\n        /* \"@openzeppelin/contracts/token/ERC20/ERC20.sol\":7863:7874  fromBalance */\n      dup2\n        /* \"@openzeppelin/contracts/token/ERC20/ERC20.sol\":7863:7884  fromBalance >= amount */\n      lt\n      iszero\n        /* \"@openzeppelin/contracts/token/ERC20/ERC20.sol\":7855:7927  require(fromBalance >= amount, \"ERC20: transfer amount exceeds balance\") */\n      tag_219\n      jumpi\n      mload(0x40)\n      0x08c379a000000000000000000000000000000000000000000000000000000000\n      dup2\n      mstore\n      0x04\n      add\n      tag_220\n      swap1\n      tag_221\n      jump\t// in\n    tag_220:\n      mload(0x40)\n      dup1\n      swap2\n      sub\n      swap1\n      revert\n    tag_219:\n        /* \"@openzeppelin/contracts/token/ERC20/ERC20.sol\":7993:7999  amount */\n      dup2\n        /* \"@openzeppelin/contracts/token/ERC20/ERC20.sol\":7979:7990  fromBalance */\n      dup2\n        /* \"@openzeppelin/contracts/token/ERC20/ERC20.sol\":7979:7999  fromBalance - amount */\n      sub\n        /* \"@openzeppelin/contracts/token/ERC20/ERC20.sol\":7961:7970  _balances */\n      0x00\n        /* \"@openzeppelin/contracts/token/ERC20/ERC20.sol\":7961:7976  _balances[from] */\n      dup1\n        /* \"@openzeppelin/contracts/token/ERC20/ERC20.sol\":7971:7975  from */\n      dup7\n        /* \"@openzeppelin/contracts/token/ERC20/ERC20.sol\":7961:7976  _balances[from] */\n      0xffffffffffffffffffffffffffffffffffffffff\n      and\n      0xffffffffffffffffffffffffffffffffffffffff\n      and\n      dup2\n      mstore\n      0x20\n      add\n      swap1\n      dup2\n      mstore\n      0x20\n      add\n      0x00\n      keccak256\n        /* \"@openzeppelin/contracts/token/ERC20/ERC20.sol\":7961:7999  _balances[from] = fromBalance - amount */\n      dup2\n      swap1\n      sstore\n      pop\n        /* \"@openzeppelin/contracts/token/ERC20/ERC20.sol\":8036:8042  amount */\n      dup2\n        /* \"@openzeppelin/contracts/token/ERC20/ERC20.sol\":8019:8028  _balances */\n      0x00\n        /* \"@openzeppelin/contracts/token/ERC20/ERC20.sol\":8019:8032  _balances[to] */\n      dup1\n        /* \"@openzeppelin/contracts/token/ERC20/ERC20.sol\":8029:8031  to */\n      dup6\n        /* \"@openzeppelin/contracts/token/ERC20/ERC20.sol\":8019:8032  _balances[to] */\n      0xffffffffffffffffffffffffffffffffffffffff\n      and\n      0xffffffffffffffffffffffffffffffffffffffff\n      and\n      dup2\n      mstore\n      0x20\n      add\n      swap1\n      dup2\n      mstore\n      0x20\n      add\n      0x00\n      keccak256\n      0x00\n        /* \"@openzeppelin/contracts/token/ERC20/ERC20.sol\":8019:8042  _balances[to] += amount */\n      dup3\n      dup3\n      sload\n      tag_222\n      swap2\n      swap1\n      tag_139\n      jump\t// in\n    tag_222:\n      swap3\n      pop\n      pop\n      dup2\n      swap1\n      sstore\n      pop\n        /* \"@openzeppelin/contracts/token/ERC20/ERC20.sol\":8073:8075  to */\n      dup3\n        /* \"@openzeppelin/contracts/token/ERC20/ERC20.sol\":8058:8084  Transfer(from, to, amount) */\n      0xffffffffffffffffffffffffffffffffffffffff\n      and\n        /* \"@openzeppelin/contracts/token/ERC20/ERC20.sol\":8067:8071  from */\n      dup5\n        /* \"@openzeppelin/contracts/token/ERC20/ERC20.sol\":8058:8084  Transfer(from, to, amount) */\n      0xffffffffffffffffffffffffffffffffffffffff\n      and\n      0xddf252ad1be2c89b69c2b068fc378daa952ba7f163c4a11628f55a4df523b3ef\n        /* \"@openzeppelin/contracts/token/ERC20/ERC20.sol\":8077:8083  amount */\n      dup5\n        /* \"@openzeppelin/contracts/token/ERC20/ERC20.sol\":8058:8084  Transfer(from, to, amount) */\n      mload(0x40)\n      tag_223\n      swap2\n      swap1\n      tag_28\n      jump\t// in\n    tag_223:\n      mload(0x40)\n      dup1\n      swap2\n      sub\n      swap1\n      log3\n        /* \"@openzeppelin/contracts/token/ERC20/ERC20.sol\":8095:8132  _afterTokenTransfer(from, to, amount) */\n      tag_224\n        /* \"@openzeppelin/contracts/token/ERC20/ERC20.sol\":8115:8119  from */\n      dup5\n        /* \"@openzeppelin/contracts/token/ERC20/ERC20.sol\":8121:8123  to */\n      dup5\n        /* \"@openzeppelin/contracts/token/ERC20/ERC20.sol\":8125:8131  amount */\n      dup5\n        /* \"@openzeppelin/contracts/token/ERC20/ERC20.sol\":8095:8114  _afterTokenTransfer */\n      tag_225\n        /* \"@openzeppelin/contracts/token/ERC20/ERC20.sol\":8095:8132  _afterTokenTransfer(from, to, amount) */\n      jump\t// in\n    tag_224:\n        /* \"@openzeppelin/contracts/token/ERC20/ERC20.sol\":7596:8139  {... */\n      pop\n        /* \"@openzeppelin/contracts/token/ERC20/ERC20.sol\":7488:8139  function _transfer(... */\n      pop\n      pop\n      pop\n      jump\t// out\n        /* \"@openzeppelin/contracts/access/Ownable.sol\":2270:2457  function _transferOwnership(address newOwner) internal virtual {... */\n    tag_153:\n        /* \"@openzeppelin/contracts/access/Ownable.sol\":2343:2359  address oldOwner */\n      0x00\n        /* \"@openzeppelin/contracts/access/Ownable.sol\":2362:2368  _owner */\n      0x05\n      0x00\n      swap1\n      sload\n      swap1\n      0x0100\n      exp\n      swap1\n      div\n      0xffffffffffffffffffffffffffffffffffffffff\n      and\n        /* \"@openzeppelin/contracts/access/Ownable.sol\":2343:2368  address oldOwner = _owner */\n      swap1\n      pop\n        /* \"@openzeppelin/contracts/access/Ownable.sol\":2387:2395  newOwner */\n      dup2\n        /* \"@openzeppelin/contracts/access/Ownable.sol\":2378:2384  _owner */\n      0x05\n      0x00\n        /* \"@openzeppelin/contracts/access/Ownable.sol\":2378:2395  _owner = newOwner */\n      0x0100\n      exp\n      dup2\n      sload\n      dup2\n      0xffffffffffffffffffffffffffffffffffffffff\n      mul\n      not\n      and\n      swap1\n      dup4\n      0xffffffffffffffffffffffffffffffffffffffff\n      and\n      mul\n      or\n      swap1\n      sstore\n      pop\n        /* \"@openzeppelin/contracts/access/Ownable.sol\":2441:2449  newOwner */\n      dup2\n        /* \"@openzeppelin/contracts/access/Ownable.sol\":2410:2450  OwnershipTransferred(oldOwner, newOwner) */\n      0xffffffffffffffffffffffffffffffffffffffff\n      and\n        /* \"@openzeppelin/contracts/access/Ownable.sol\":2431:2439  oldOwner */\n      dup2\n        /* \"@openzeppelin/contracts/access/Ownable.sol\":2410:2450  OwnershipTransferred(oldOwner, newOwner) */\n      0xffffffffffffffffffffffffffffffffffffffff\n      and\n      0x8be0079c531659141344cd1fd0a4f28419497f9722a3daafe3b4186f6b6457e0\n      mload(0x40)\n      mload(0x40)\n      dup1\n      swap2\n      sub\n      swap1\n      log3\n        /* \"@openzeppelin/contracts/access/Ownable.sol\":2333:2457  {... */\n      pop\n        /* \"@openzeppelin/contracts/access/Ownable.sol\":2270:2457  function _transferOwnership(address newOwner) internal virtual {... */\n      pop\n      jump\t// out\n        /* \"@openzeppelin/contracts/token/ERC20/ERC20.sol\":8415:8804  function _mint(address account, uint256 amount) internal virtual {... */\n    tag_166:\n        /* \"@openzeppelin/contracts/token/ERC20/ERC20.sol\":8517:8518  0 */\n      0x00\n        /* \"@openzeppelin/contracts/token/ERC20/ERC20.sol\":8498:8519  account != address(0) */\n      0xffffffffffffffffffffffffffffffffffffffff\n      and\n        /* \"@openzeppelin/contracts/token/ERC20/ERC20.sol\":8498:8505  account */\n      dup3\n        /* \"@openzeppelin/contracts/token/ERC20/ERC20.sol\":8498:8519  account != address(0) */\n      0xffffffffffffffffffffffffffffffffffffffff\n      and\n      eq\n      iszero\n        /* \"@openzeppelin/contracts/token/ERC20/ERC20.sol\":8490:8555  require(account != address(0), \"ERC20: mint to the zero address\") */\n      tag_228\n      jumpi\n      mload(0x40)\n      0x08c379a000000000000000000000000000000000000000000000000000000000\n      dup2\n      mstore\n      0x04\n      add\n      tag_229\n      swap1\n      tag_230\n      jump\t// in\n    tag_229:\n      mload(0x40)\n      dup1\n      swap2\n      sub\n      swap1\n      revert\n    tag_228:\n        /* \"@openzeppelin/contracts/token/ERC20/ERC20.sol\":8566:8615  _beforeTokenTransfer(address(0), account, amount) */\n      tag_231\n        /* \"@openzeppelin/contracts/token/ERC20/ERC20.sol\":8595:8596  0 */\n      0x00\n        /* \"@openzeppelin/contracts/token/ERC20/ERC20.sol\":8599:8606  account */\n      dup4\n        /* \"@openzeppelin/contracts/token/ERC20/ERC20.sol\":8608:8614  amount */\n      dup4\n        /* \"@openzeppelin/contracts/token/ERC20/ERC20.sol\":8566:8586  _beforeTokenTransfer */\n      tag_218\n        /* \"@openzeppelin/contracts/token/ERC20/ERC20.sol\":8566:8615  _beforeTokenTransfer(address(0), account, amount) */\n      jump\t// in\n    tag_231:\n        /* \"@openzeppelin/contracts/token/ERC20/ERC20.sol\":8642:8648  amount */\n      dup1\n        /* \"@openzeppelin/contracts/token/ERC20/ERC20.sol\":8626:8638  _totalSupply */\n      0x02\n      0x00\n        /* \"@openzeppelin/contracts/token/ERC20/ERC20.sol\":8626:8648  _totalSupply += amount */\n      dup3\n      dup3\n      sload\n      tag_232\n      swap2\n      swap1\n      tag_139\n      jump\t// in\n    tag_232:\n      swap3\n      pop\n      pop\n      dup2\n      swap1\n      sstore\n      pop\n        /* \"@openzeppelin/contracts/token/ERC20/ERC20.sol\":8680:8686  amount */\n      dup1\n        /* \"@openzeppelin/contracts/token/ERC20/ERC20.sol\":8658:8667  _balances */\n      0x00\n        /* \"@openzeppelin/contracts/token/ERC20/ERC20.sol\":8658:8676  _balances[account] */\n      dup1\n        /* \"@openzeppelin/contracts/token/ERC20/ERC20.sol\":8668:8675  account */\n      dup5\n        /* \"@openzeppelin/contracts/token/ERC20/ERC20.sol\":8658:8676  _balances[account] */\n      0xffffffffffffffffffffffffffffffffffffffff\n      and\n      0xffffffffffffffffffffffffffffffffffffffff\n      and\n      dup2\n      mstore\n      0x20\n      add\n      swap1\n      dup2\n      mstore\n      0x20\n      add\n      0x00\n      keccak256\n      0x00\n        /* \"@openzeppelin/contracts/token/ERC20/ERC20.sol\":8658:8686  _balances[account] += amount */\n      dup3\n      dup3\n      sload\n      tag_233\n      swap2\n      swap1\n      tag_139\n      jump\t// in\n    tag_233:\n      swap3\n      pop\n      pop\n      dup2\n      swap1\n      sstore\n      pop\n        /* \"@openzeppelin/contracts/token/ERC20/ERC20.sol\":8722:8729  account */\n      dup2\n        /* \"@openzeppelin/contracts/token/ERC20/ERC20.sol\":8701:8738  Transfer(address(0), account, amount) */\n      0xffffffffffffffffffffffffffffffffffffffff\n      and\n        /* \"@openzeppelin/contracts/token/ERC20/ERC20.sol\":8718:8719  0 */\n      0x00\n        /* \"@openzeppelin/contracts/token/ERC20/ERC20.sol\":8701:8738  Transfer(address(0), account, amount) */\n      0xffffffffffffffffffffffffffffffffffffffff\n      and\n      0xddf252ad1be2c89b69c2b068fc378daa952ba7f163c4a11628f55a4df523b3ef\n        /* \"@openzeppelin/contracts/token/ERC20/ERC20.sol\":8731:8737  amount */\n      dup4\n        /* \"@openzeppelin/contracts/token/ERC20/ERC20.sol\":8701:8738  Transfer(address(0), account, amount) */\n      mload(0x40)\n      tag_234\n      swap2\n      swap1\n      tag_28\n      jump\t// in\n    tag_234:\n      mload(0x40)\n      dup1\n      swap2\n      sub\n      swap1\n      log3\n        /* \"@openzeppelin/contracts/token/ERC20/ERC20.sol\":8749:8797  _afterTokenTransfer(address(0), account, amount) */\n      tag_235\n        /* \"@openzeppelin/contracts/token/ERC20/ERC20.sol\":8777:8778  0 */\n      0x00\n        /* \"@openzeppelin/contracts/token/ERC20/ERC20.sol\":8781:8788  account */\n      dup4\n        /* \"@openzeppelin/contracts/token/ERC20/ERC20.sol\":8790:8796  amount */\n      dup4\n        /* \"@openzeppelin/contracts/token/ERC20/ERC20.sol\":8749:8768  _afterTokenTransfer */\n      tag_225\n        /* \"@openzeppelin/contracts/token/ERC20/ERC20.sol\":8749:8797  _afterTokenTransfer(address(0), account, amount) */\n      jump\t// in\n    tag_235:\n        /* \"@openzeppelin/contracts/token/ERC20/ERC20.sol\":8415:8804  function _mint(address account, uint256 amount) internal virtual {... */\n      pop\n      pop\n      jump\t// out\n        /* \"@openzeppelin/contracts/token/ERC20/ERC20.sol\":11795:11916  function _beforeTokenTransfer(... */\n    tag_218:\n      pop\n      pop\n      pop\n      jump\t// out\n        /* \"@openzeppelin/contracts/token/ERC20/ERC20.sol\":12504:12624  function _afterTokenTransfer(... */\n    tag_225:\n      pop\n      pop\n      pop\n      jump\t// out\n        /* \"#utility.yul\":7:84   */\n    tag_238:\n        /* \"#utility.yul\":44:51   */\n      0x00\n        /* \"#utility.yul\":73:78   */\n      dup2\n        /* \"#utility.yul\":62:78   */\n      swap1\n      pop\n        /* \"#utility.yul\":7:84   */\n      swap2\n      swap1\n      pop\n      jump\t// out\n        /* \"#utility.yul\":90:208   */\n    tag_239:\n        /* \"#utility.yul\":177:201   */\n      tag_290\n        /* \"#utility.yul\":195:200   */\n      dup2\n        /* \"#utility.yul\":177:201   */\n      tag_238\n      jump\t// in\n    tag_290:\n        /* \"#utility.yul\":172:175   */\n      dup3\n        /* \"#utility.yul\":165:202   */\n      mstore\n        /* \"#utility.yul\":90:208   */\n      pop\n      pop\n      jump\t// out\n        /* \"#utility.yul\":214:436   */\n    tag_28:\n        /* \"#utility.yul\":307:311   */\n      0x00\n        /* \"#utility.yul\":345:347   */\n      0x20\n        /* \"#utility.yul\":334:343   */\n      dup3\n        /* \"#utility.yul\":330:348   */\n      add\n        /* \"#utility.yul\":322:348   */\n      swap1\n      pop\n        /* \"#utility.yul\":358:429   */\n      tag_292\n        /* \"#utility.yul\":426:427   */\n      0x00\n        /* \"#utility.yul\":415:424   */\n      dup4\n        /* \"#utility.yul\":411:428   */\n      add\n        /* \"#utility.yul\":402:408   */\n      dup5\n        /* \"#utility.yul\":358:429   */\n      tag_239\n      jump\t// in\n    tag_292:\n        /* \"#utility.yul\":214:436   */\n      swap3\n      swap2\n      pop\n      pop\n      jump\t// out\n        /* \"#utility.yul\":442:541   */\n    tag_240:\n        /* \"#utility.yul\":494:500   */\n      0x00\n        /* \"#utility.yul\":528:533   */\n      dup2\n        /* \"#utility.yul\":522:534   */\n      mload\n        /* \"#utility.yul\":512:534   */\n      swap1\n      pop\n        /* \"#utility.yul\":442:541   */\n      swap2\n      swap1\n      pop\n      jump\t// out\n        /* \"#utility.yul\":547:716   */\n    tag_241:\n        /* \"#utility.yul\":631:642   */\n      0x00\n        /* \"#utility.yul\":665:671   */\n      dup3\n        /* \"#utility.yul\":660:663   */\n      dup3\n        /* \"#utility.yul\":653:672   */\n      mstore\n        /* \"#utility.yul\":705:709   */\n      0x20\n        /* \"#utility.yul\":700:703   */\n      dup3\n        /* \"#utility.yul\":696:710   */\n      add\n        /* \"#utility.yul\":681:710   */\n      swap1\n      pop\n        /* \"#utility.yul\":547:716   */\n      swap3\n      swap2\n      pop\n      pop\n      jump\t// out\n        /* \"#utility.yul\":722:1029   */\n    tag_242:\n        /* \"#utility.yul\":790:791   */\n      0x00\n        /* \"#utility.yul\":800:913   */\n    tag_296:\n        /* \"#utility.yul\":814:820   */\n      dup4\n        /* \"#utility.yul\":811:812   */\n      dup2\n        /* \"#utility.yul\":808:821   */\n      lt\n        /* \"#utility.yul\":800:913   */\n      iszero\n      tag_298\n      jumpi\n        /* \"#utility.yul\":899:900   */\n      dup1\n        /* \"#utility.yul\":894:897   */\n      dup3\n        /* \"#utility.yul\":890:901   */\n      add\n        /* \"#utility.yul\":884:902   */\n      mload\n        /* \"#utility.yul\":880:881   */\n      dup2\n        /* \"#utility.yul\":875:878   */\n      dup5\n        /* \"#utility.yul\":871:882   */\n      add\n        /* \"#utility.yul\":864:903   */\n      mstore\n        /* \"#utility.yul\":836:838   */\n      0x20\n        /* \"#utility.yul\":833:834   */\n      dup2\n        /* \"#utility.yul\":829:839   */\n      add\n        /* \"#utility.yul\":824:839   */\n      swap1\n      pop\n        /* \"#utility.yul\":800:913   */\n      jump(tag_296)\n    tag_298:\n        /* \"#utility.yul\":931:937   */\n      dup4\n        /* \"#utility.yul\":928:929   */\n      dup2\n        /* \"#utility.yul\":925:938   */\n      gt\n        /* \"#utility.yul\":922:1023   */\n      iszero\n      tag_299\n      jumpi\n        /* \"#utility.yul\":1011:1012   */\n      0x00\n        /* \"#utility.yul\":1002:1008   */\n      dup5\n        /* \"#utility.yul\":997:1000   */\n      dup5\n        /* \"#utility.yul\":993:1009   */\n      add\n        /* \"#utility.yul\":986:1013   */\n      mstore\n        /* \"#utility.yul\":922:1023   */\n    tag_299:\n        /* \"#utility.yul\":771:1029   */\n      pop\n        /* \"#utility.yul\":722:1029   */\n      pop\n      pop\n      pop\n      jump\t// out\n        /* \"#utility.yul\":1035:1137   */\n    tag_243:\n        /* \"#utility.yul\":1076:1082   */\n      0x00\n        /* \"#utility.yul\":1127:1129   */\n      0x1f\n        /* \"#utility.yul\":1123:1130   */\n      not\n        /* \"#utility.yul\":1118:1120   */\n      0x1f\n        /* \"#utility.yul\":1111:1116   */\n      dup4\n        /* \"#utility.yul\":1107:1121   */\n      add\n        /* \"#utility.yul\":1103:1131   */\n      and\n        /* \"#utility.yul\":1093:1131   */\n      swap1\n      pop\n        /* \"#utility.yul\":1035:1137   */\n      swap2\n      swap1\n      pop\n      jump\t// out\n        /* \"#utility.yul\":1143:1507   */\n    tag_244:\n        /* \"#utility.yul\":1231:1234   */\n      0x00\n        /* \"#utility.yul\":1259:1298   */\n      tag_302\n        /* \"#utility.yul\":1292:1297   */\n      dup3\n        /* \"#utility.yul\":1259:1298   */\n      tag_240\n      jump\t// in\n    tag_302:\n        /* \"#utility.yul\":1314:1385   */\n      tag_303\n        /* \"#utility.yul\":1378:1384   */\n      dup2\n        /* \"#utility.yul\":1373:1376   */\n      dup6\n        /* \"#utility.yul\":1314:1385   */\n      tag_241\n      jump\t// in\n    tag_303:\n        /* \"#utility.yul\":1307:1385   */\n      swap4\n      pop\n        /* \"#utility.yul\":1394:1446   */\n      tag_304\n        /* \"#utility.yul\":1439:1445   */\n      dup2\n        /* \"#utility.yul\":1434:1437   */\n      dup6\n        /* \"#utility.yul\":1427:1431   */\n      0x20\n        /* \"#utility.yul\":1420:1425   */\n      dup7\n        /* \"#utility.yul\":1416:1432   */\n      add\n        /* \"#utility.yul\":1394:1446   */\n      tag_242\n      jump\t// in\n    tag_304:\n        /* \"#utility.yul\":1471:1500   */\n      tag_305\n        /* \"#utility.yul\":1493:1499   */\n      dup2\n        /* \"#utility.yul\":1471:1500   */\n      tag_243\n      jump\t// in\n    tag_305:\n        /* \"#utility.yul\":1466:1469   */\n      dup5\n        /* \"#utility.yul\":1462:1501   */\n      add\n        /* \"#utility.yul\":1455:1501   */\n      swap2\n      pop\n        /* \"#utility.yul\":1235:1507   */\n      pop\n        /* \"#utility.yul\":1143:1507   */\n      swap3\n      swap2\n      pop\n      pop\n      jump\t// out\n        /* \"#utility.yul\":1513:1826   */\n    tag_33:\n        /* \"#utility.yul\":1626:1630   */\n      0x00\n        /* \"#utility.yul\":1664:1666   */\n      0x20\n        /* \"#utility.yul\":1653:1662   */\n      dup3\n        /* \"#utility.yul\":1649:1667   */\n      add\n        /* \"#utility.yul\":1641:1667   */\n      swap1\n      pop\n        /* \"#utility.yul\":1713:1722   */\n      dup2\n        /* \"#utility.yul\":1707:1711   */\n      dup2\n        /* \"#utility.yul\":1703:1723   */\n      sub\n        /* \"#utility.yul\":1699:1700   */\n      0x00\n        /* \"#utility.yul\":1688:1697   */\n      dup4\n        /* \"#utility.yul\":1684:1701   */\n      add\n        /* \"#utility.yul\":1677:1724   */\n      mstore\n        /* \"#utility.yul\":1741:1819   */\n      tag_307\n        /* \"#utility.yul\":1814:1818   */\n      dup2\n        /* \"#utility.yul\":1805:1811   */\n      dup5\n        /* \"#utility.yul\":1741:1819   */\n      tag_244\n      jump\t// in\n    tag_307:\n        /* \"#utility.yul\":1733:1819   */\n      swap1\n      pop\n        /* \"#utility.yul\":1513:1826   */\n      swap3\n      swap2\n      pop\n      pop\n      jump\t// out\n        /* \"#utility.yul\":1913:2030   */\n    tag_246:\n        /* \"#utility.yul\":2022:2023   */\n      0x00\n        /* \"#utility.yul\":2019:2020   */\n      dup1\n        /* \"#utility.yul\":2012:2024   */\n      revert\n        /* \"#utility.yul\":2159:2285   */\n    tag_248:\n        /* \"#utility.yul\":2196:2203   */\n      0x00\n        /* \"#utility.yul\":2236:2278   */\n      0xffffffffffffffffffffffffffffffffffffffff\n        /* \"#utility.yul\":2229:2234   */\n      dup3\n        /* \"#utility.yul\":2225:2279   */\n      and\n        /* \"#utility.yul\":2214:2279   */\n      swap1\n      pop\n        /* \"#utility.yul\":2159:2285   */\n      swap2\n      swap1\n      pop\n      jump\t// out\n        /* \"#utility.yul\":2291:2387   */\n    tag_249:\n        /* \"#utility.yul\":2328:2335   */\n      0x00\n        /* \"#utility.yul\":2357:2381   */\n      tag_313\n        /* \"#utility.yul\":2375:2380   */\n      dup3\n        /* \"#utility.yul\":2357:2381   */\n      tag_248\n      jump\t// in\n    tag_313:\n        /* \"#utility.yul\":2346:2381   */\n      swap1\n      pop\n        /* \"#utility.yul\":2291:2387   */\n      swap2\n      swap1\n      pop\n      jump\t// out\n        /* \"#utility.yul\":2393:2515   */\n    tag_250:\n        /* \"#utility.yul\":2466:2490   */\n      tag_315\n        /* \"#utility.yul\":2484:2489   */\n      dup2\n        /* \"#utility.yul\":2466:2490   */\n      tag_249\n      jump\t// in\n    tag_315:\n        /* \"#utility.yul\":2459:2464   */\n      dup2\n        /* \"#utility.yul\":2456:2491   */\n      eq\n        /* \"#utility.yul\":2446:2509   */\n      tag_316\n      jumpi\n        /* \"#utility.yul\":2505:2506   */\n      0x00\n        /* \"#utility.yul\":2502:2503   */\n      dup1\n        /* \"#utility.yul\":2495:2507   */\n      revert\n        /* \"#utility.yul\":2446:2509   */\n    tag_316:\n        /* \"#utility.yul\":2393:2515   */\n      pop\n      jump\t// out\n        /* \"#utility.yul\":2521:2660   */\n    tag_251:\n        /* \"#utility.yul\":2567:2572   */\n      0x00\n        /* \"#utility.yul\":2605:2611   */\n      dup2\n        /* \"#utility.yul\":2592:2612   */\n      calldataload\n        /* \"#utility.yul\":2583:2612   */\n      swap1\n      pop\n        /* \"#utility.yul\":2621:2654   */\n      tag_318\n        /* \"#utility.yul\":2648:2653   */\n      dup2\n        /* \"#utility.yul\":2621:2654   */\n      tag_250\n      jump\t// in\n    tag_318:\n        /* \"#utility.yul\":2521:2660   */\n      swap3\n      swap2\n      pop\n      pop\n      jump\t// out\n        /* \"#utility.yul\":2666:2788   */\n    tag_252:\n        /* \"#utility.yul\":2739:2763   */\n      tag_320\n        /* \"#utility.yul\":2757:2762   */\n      dup2\n        /* \"#utility.yul\":2739:2763   */\n      tag_238\n      jump\t// in\n    tag_320:\n        /* \"#utility.yul\":2732:2737   */\n      dup2\n        /* \"#utility.yul\":2729:2764   */\n      eq\n        /* \"#utility.yul\":2719:2782   */\n      tag_321\n      jumpi\n        /* \"#utility.yul\":2778:2779   */\n      0x00\n        /* \"#utility.yul\":2775:2776   */\n      dup1\n        /* \"#utility.yul\":2768:2780   */\n      revert\n        /* \"#utility.yul\":2719:2782   */\n    tag_321:\n        /* \"#utility.yul\":2666:2788   */\n      pop\n      jump\t// out\n        /* \"#utility.yul\":2794:2933   */\n    tag_253:\n        /* \"#utility.yul\":2840:2845   */\n      0x00\n        /* \"#utility.yul\":2878:2884   */\n      dup2\n        /* \"#utility.yul\":2865:2885   */\n      calldataload\n        /* \"#utility.yul\":2856:2885   */\n      swap1\n      pop\n        /* \"#utility.yul\":2894:2927   */\n      tag_323\n        /* \"#utility.yul\":2921:2926   */\n      dup2\n        /* \"#utility.yul\":2894:2927   */\n      tag_252\n      jump\t// in\n    tag_323:\n        /* \"#utility.yul\":2794:2933   */\n      swap3\n      swap2\n      pop\n      pop\n      jump\t// out\n        /* \"#utility.yul\":2939:3413   */\n    tag_37:\n        /* \"#utility.yul\":3007:3013   */\n      0x00\n        /* \"#utility.yul\":3015:3021   */\n      dup1\n        /* \"#utility.yul\":3064:3066   */\n      0x40\n        /* \"#utility.yul\":3052:3061   */\n      dup4\n        /* \"#utility.yul\":3043:3050   */\n      dup6\n        /* \"#utility.yul\":3039:3062   */\n      sub\n        /* \"#utility.yul\":3035:3067   */\n      slt\n        /* \"#utility.yul\":3032:3151   */\n      iszero\n      tag_325\n      jumpi\n        /* \"#utility.yul\":3070:3149   */\n      tag_326\n      tag_246\n      jump\t// in\n    tag_326:\n        /* \"#utility.yul\":3032:3151   */\n    tag_325:\n        /* \"#utility.yul\":3190:3191   */\n      0x00\n        /* \"#utility.yul\":3215:3268   */\n      tag_327\n        /* \"#utility.yul\":3260:3267   */\n      dup6\n        /* \"#utility.yul\":3251:3257   */\n      dup3\n        /* \"#utility.yul\":3240:3249   */\n      dup7\n        /* \"#utility.yul\":3236:3258   */\n      add\n        /* \"#utility.yul\":3215:3268   */\n      tag_251\n      jump\t// in\n    tag_327:\n        /* \"#utility.yul\":3205:3268   */\n      swap3\n      pop\n        /* \"#utility.yul\":3161:3278   */\n      pop\n        /* \"#utility.yul\":3317:3319   */\n      0x20\n        /* \"#utility.yul\":3343:3396   */\n      tag_328\n        /* \"#utility.yul\":3388:3395   */\n      dup6\n        /* \"#utility.yul\":3379:3385   */\n      dup3\n        /* \"#utility.yul\":3368:3377   */\n      dup7\n        /* \"#utility.yul\":3364:3386   */\n      add\n        /* \"#utility.yul\":3343:3396   */\n      tag_253\n      jump\t// in\n    tag_328:\n        /* \"#utility.yul\":3333:3396   */\n      swap2\n      pop\n        /* \"#utility.yul\":3288:3406   */\n      pop\n        /* \"#utility.yul\":2939:3413   */\n      swap3\n      pop\n      swap3\n      swap1\n      pop\n      jump\t// out\n        /* \"#utility.yul\":3419:3509   */\n    tag_254:\n        /* \"#utility.yul\":3453:3460   */\n      0x00\n        /* \"#utility.yul\":3496:3501   */\n      dup2\n        /* \"#utility.yul\":3489:3502   */\n      iszero\n        /* \"#utility.yul\":3482:3503   */\n      iszero\n        /* \"#utility.yul\":3471:3503   */\n      swap1\n      pop\n        /* \"#utility.yul\":3419:3509   */\n      swap2\n      swap1\n      pop\n      jump\t// out\n        /* \"#utility.yul\":3515:3624   */\n    tag_255:\n        /* \"#utility.yul\":3596:3617   */\n      tag_331\n        /* \"#utility.yul\":3611:3616   */\n      dup2\n        /* \"#utility.yul\":3596:3617   */\n      tag_254\n      jump\t// in\n    tag_331:\n        /* \"#utility.yul\":3591:3594   */\n      dup3\n        /* \"#utility.yul\":3584:3618   */\n      mstore\n        /* \"#utility.yul\":3515:3624   */\n      pop\n      pop\n      jump\t// out\n        /* \"#utility.yul\":3630:3840   */\n    tag_40:\n        /* \"#utility.yul\":3717:3721   */\n      0x00\n        /* \"#utility.yul\":3755:3757   */\n      0x20\n        /* \"#utility.yul\":3744:3753   */\n      dup3\n        /* \"#utility.yul\":3740:3758   */\n      add\n        /* \"#utility.yul\":3732:3758   */\n      swap1\n      pop\n        /* \"#utility.yul\":3768:3833   */\n      tag_333\n        /* \"#utility.yul\":3830:3831   */\n      0x00\n        /* \"#utility.yul\":3819:3828   */\n      dup4\n        /* \"#utility.yul\":3815:3832   */\n      add\n        /* \"#utility.yul\":3806:3812   */\n      dup5\n        /* \"#utility.yul\":3768:3833   */\n      tag_255\n      jump\t// in\n    tag_333:\n        /* \"#utility.yul\":3630:3840   */\n      swap3\n      swap2\n      pop\n      pop\n      jump\t// out\n        /* \"#utility.yul\":3846:4465   */\n    tag_48:\n        /* \"#utility.yul\":3923:3929   */\n      0x00\n        /* \"#utility.yul\":3931:3937   */\n      dup1\n        /* \"#utility.yul\":3939:3945   */\n      0x00\n        /* \"#utility.yul\":3988:3990   */\n      0x60\n        /* \"#utility.yul\":3976:3985   */\n      dup5\n        /* \"#utility.yul\":3967:3974   */\n      dup7\n        /* \"#utility.yul\":3963:3986   */\n      sub\n        /* \"#utility.yul\":3959:3991   */\n      slt\n        /* \"#utility.yul\":3956:4075   */\n      iszero\n      tag_335\n      jumpi\n        /* \"#utility.yul\":3994:4073   */\n      tag_336\n      tag_246\n      jump\t// in\n    tag_336:\n        /* \"#utility.yul\":3956:4075   */\n    tag_335:\n        /* \"#utility.yul\":4114:4115   */\n      0x00\n        /* \"#utility.yul\":4139:4192   */\n      tag_337\n        /* \"#utility.yul\":4184:4191   */\n      dup7\n        /* \"#utility.yul\":4175:4181   */\n      dup3\n        /* \"#utility.yul\":4164:4173   */\n      dup8\n        /* \"#utility.yul\":4160:4182   */\n      add\n        /* \"#utility.yul\":4139:4192   */\n      tag_251\n      jump\t// in\n    tag_337:\n        /* \"#utility.yul\":4129:4192   */\n      swap4\n      pop\n        /* \"#utility.yul\":4085:4202   */\n      pop\n        /* \"#utility.yul\":4241:4243   */\n      0x20\n        /* \"#utility.yul\":4267:4320   */\n      tag_338\n        /* \"#utility.yul\":4312:4319   */\n      dup7\n        /* \"#utility.yul\":4303:4309   */\n      dup3\n        /* \"#utility.yul\":4292:4301   */\n      dup8\n        /* \"#utility.yul\":4288:4310   */\n      add\n        /* \"#utility.yul\":4267:4320   */\n      tag_251\n      jump\t// in\n    tag_338:\n        /* \"#utility.yul\":4257:4320   */\n      swap3\n      pop\n        /* \"#utility.yul\":4212:4330   */\n      pop\n        /* \"#utility.yul\":4369:4371   */\n      0x40\n        /* \"#utility.yul\":4395:4448   */\n      tag_339\n        /* \"#utility.yul\":4440:4447   */\n      dup7\n        /* \"#utility.yul\":4431:4437   */\n      dup3\n        /* \"#utility.yul\":4420:4429   */\n      dup8\n        /* \"#utility.yul\":4416:4438   */\n      add\n        /* \"#utility.yul\":4395:4448   */\n      tag_253\n      jump\t// in\n    tag_339:\n        /* \"#utility.yul\":4385:4448   */\n      swap2\n      pop\n        /* \"#utility.yul\":4340:4458   */\n      pop\n        /* \"#utility.yul\":3846:4465   */\n      swap3\n      pop\n      swap3\n      pop\n      swap3\n      jump\t// out\n        /* \"#utility.yul\":4471:4557   */\n    tag_256:\n        /* \"#utility.yul\":4506:4513   */\n      0x00\n        /* \"#utility.yul\":4546:4550   */\n      0xff\n        /* \"#utility.yul\":4539:4544   */\n      dup3\n        /* \"#utility.yul\":4535:4551   */\n      and\n        /* \"#utility.yul\":4524:4551   */\n      swap1\n      pop\n        /* \"#utility.yul\":4471:4557   */\n      swap2\n      swap1\n      pop\n      jump\t// out\n        /* \"#utility.yul\":4563:4675   */\n    tag_257:\n        /* \"#utility.yul\":4646:4668   */\n      tag_342\n        /* \"#utility.yul\":4662:4667   */\n      dup2\n        /* \"#utility.yul\":4646:4668   */\n      tag_256\n      jump\t// in\n    tag_342:\n        /* \"#utility.yul\":4641:4644   */\n      dup3\n        /* \"#utility.yul\":4634:4669   */\n      mstore\n        /* \"#utility.yul\":4563:4675   */\n      pop\n      pop\n      jump\t// out\n        /* \"#utility.yul\":4681:4895   */\n    tag_55:\n        /* \"#utility.yul\":4770:4774   */\n      0x00\n        /* \"#utility.yul\":4808:4810   */\n      0x20\n        /* \"#utility.yul\":4797:4806   */\n      dup3\n        /* \"#utility.yul\":4793:4811   */\n      add\n        /* \"#utility.yul\":4785:4811   */\n      swap1\n      pop\n        /* \"#utility.yul\":4821:4888   */\n      tag_344\n        /* \"#utility.yul\":4885:4886   */\n      0x00\n        /* \"#utility.yul\":4874:4883   */\n      dup4\n        /* \"#utility.yul\":4870:4887   */\n      add\n        /* \"#utility.yul\":4861:4867   */\n      dup5\n        /* \"#utility.yul\":4821:4888   */\n      tag_257\n      jump\t// in\n    tag_344:\n        /* \"#utility.yul\":4681:4895   */\n      swap3\n      swap2\n      pop\n      pop\n      jump\t// out\n        /* \"#utility.yul\":4901:5230   */\n    tag_68:\n        /* \"#utility.yul\":4960:4966   */\n      0x00\n        /* \"#utility.yul\":5009:5011   */\n      0x20\n        /* \"#utility.yul\":4997:5006   */\n      dup3\n        /* \"#utility.yul\":4988:4995   */\n      dup5\n        /* \"#utility.yul\":4984:5007   */\n      sub\n        /* \"#utility.yul\":4980:5012   */\n      slt\n        /* \"#utility.yul\":4977:5096   */\n      iszero\n      tag_346\n      jumpi\n        /* \"#utility.yul\":5015:5094   */\n      tag_347\n      tag_246\n      jump\t// in\n    tag_347:\n        /* \"#utility.yul\":4977:5096   */\n    tag_346:\n        /* \"#utility.yul\":5135:5136   */\n      0x00\n        /* \"#utility.yul\":5160:5213   */\n      tag_348\n        /* \"#utility.yul\":5205:5212   */\n      dup5\n        /* \"#utility.yul\":5196:5202   */\n      dup3\n        /* \"#utility.yul\":5185:5194   */\n      dup6\n        /* \"#utility.yul\":5181:5203   */\n      add\n        /* \"#utility.yul\":5160:5213   */\n      tag_253\n      jump\t// in\n    tag_348:\n        /* \"#utility.yul\":5150:5213   */\n      swap2\n      pop\n        /* \"#utility.yul\":5106:5223   */\n      pop\n        /* \"#utility.yul\":4901:5230   */\n      swap3\n      swap2\n      pop\n      pop\n      jump\t// out\n        /* \"#utility.yul\":5236:5565   */\n    tag_73:\n        /* \"#utility.yul\":5295:5301   */\n      0x00\n        /* \"#utility.yul\":5344:5346   */\n      0x20\n        /* \"#utility.yul\":5332:5341   */\n      dup3\n        /* \"#utility.yul\":5323:5330   */\n      dup5\n        /* \"#utility.yul\":5319:5342   */\n      sub\n        /* \"#utility.yul\":5315:5347   */\n      slt\n        /* \"#utility.yul\":5312:5431   */\n      iszero\n      tag_350\n      jumpi\n        /* \"#utility.yul\":5350:5429   */\n      tag_351\n      tag_246\n      jump\t// in\n    tag_351:\n        /* \"#utility.yul\":5312:5431   */\n    tag_350:\n        /* \"#utility.yul\":5470:5471   */\n      0x00\n        /* \"#utility.yul\":5495:5548   */\n      tag_352\n        /* \"#utility.yul\":5540:5547   */\n      dup5\n        /* \"#utility.yul\":5531:5537   */\n      dup3\n        /* \"#utility.yul\":5520:5529   */\n      dup6\n        /* \"#utility.yul\":5516:5538   */\n      add\n        /* \"#utility.yul\":5495:5548   */\n      tag_251\n      jump\t// in\n    tag_352:\n        /* \"#utility.yul\":5485:5548   */\n      swap2\n      pop\n        /* \"#utility.yul\":5441:5558   */\n      pop\n        /* \"#utility.yul\":5236:5565   */\n      swap3\n      swap2\n      pop\n      pop\n      jump\t// out\n        /* \"#utility.yul\":5571:5689   */\n    tag_258:\n        /* \"#utility.yul\":5658:5682   */\n      tag_354\n        /* \"#utility.yul\":5676:5681   */\n      dup2\n        /* \"#utility.yul\":5658:5682   */\n      tag_249\n      jump\t// in\n    tag_354:\n        /* \"#utility.yul\":5653:5656   */\n      dup3\n        /* \"#utility.yul\":5646:5683   */\n      mstore\n        /* \"#utility.yul\":5571:5689   */\n      pop\n      pop\n      jump\t// out\n        /* \"#utility.yul\":5695:5917   */\n    tag_86:\n        /* \"#utility.yul\":5788:5792   */\n      0x00\n        /* \"#utility.yul\":5826:5828   */\n      0x20\n        /* \"#utility.yul\":5815:5824   */\n      dup3\n        /* \"#utility.yul\":5811:5829   */\n      add\n        /* \"#utility.yul\":5803:5829   */\n      swap1\n      pop\n        /* \"#utility.yul\":5839:5910   */\n      tag_356\n        /* \"#utility.yul\":5907:5908   */\n      0x00\n        /* \"#utility.yul\":5896:5905   */\n      dup4\n        /* \"#utility.yul\":5892:5909   */\n      add\n        /* \"#utility.yul\":5883:5889   */\n      dup5\n        /* \"#utility.yul\":5839:5910   */\n      tag_258\n      jump\t// in\n    tag_356:\n        /* \"#utility.yul\":5695:5917   */\n      swap3\n      swap2\n      pop\n      pop\n      jump\t// out\n        /* \"#utility.yul\":5923:6397   */\n    tag_108:\n        /* \"#utility.yul\":5991:5997   */\n      0x00\n        /* \"#utility.yul\":5999:6005   */\n      dup1\n        /* \"#utility.yul\":6048:6050   */\n      0x40\n        /* \"#utility.yul\":6036:6045   */\n      dup4\n        /* \"#utility.yul\":6027:6034   */\n      dup6\n        /* \"#utility.yul\":6023:6046   */\n      sub\n        /* \"#utility.yul\":6019:6051   */\n      slt\n        /* \"#utility.yul\":6016:6135   */\n      iszero\n      tag_358\n      jumpi\n        /* \"#utility.yul\":6054:6133   */\n      tag_359\n      tag_246\n      jump\t// in\n    tag_359:\n        /* \"#utility.yul\":6016:6135   */\n    tag_358:\n        /* \"#utility.yul\":6174:6175   */\n      0x00\n        /* \"#utility.yul\":6199:6252   */\n      tag_360\n        /* \"#utility.yul\":6244:6251   */\n      dup6\n        /* \"#utility.yul\":6235:6241   */\n      dup3\n        /* \"#utility.yul\":6224:6233   */\n      dup7\n        /* \"#utility.yul\":6220:6242   */\n      add\n        /* \"#utility.yul\":6199:6252   */\n      tag_251\n      jump\t// in\n    tag_360:\n        /* \"#utility.yul\":6189:6252   */\n      swap3\n      pop\n        /* \"#utility.yul\":6145:6262   */\n      pop\n        /* \"#utility.yul\":6301:6303   */\n      0x20\n        /* \"#utility.yul\":6327:6380   */\n      tag_361\n        /* \"#utility.yul\":6372:6379   */\n      dup6\n        /* \"#utility.yul\":6363:6369   */\n      dup3\n        /* \"#utility.yul\":6352:6361   */\n      dup7\n        /* \"#utility.yul\":6348:6370   */\n      add\n        /* \"#utility.yul\":6327:6380   */\n      tag_251\n      jump\t// in\n    tag_361:\n        /* \"#utility.yul\":6317:6380   */\n      swap2\n      pop\n        /* \"#utility.yul\":6272:6390   */\n      pop\n        /* \"#utility.yul\":5923:6397   */\n      swap3\n      pop\n      swap3\n      swap1\n      pop\n      jump\t// out\n        /* \"#utility.yul\":6403:6583   */\n    tag_259:\n        /* \"#utility.yul\":6451:6528   */\n      0x4e487b7100000000000000000000000000000000000000000000000000000000\n        /* \"#utility.yul\":6448:6449   */\n      0x00\n        /* \"#utility.yul\":6441:6529   */\n      mstore\n        /* \"#utility.yul\":6548:6552   */\n      0x22\n        /* \"#utility.yul\":6545:6546   */\n      0x04\n        /* \"#utility.yul\":6538:6553   */\n      mstore\n        /* \"#utility.yul\":6572:6576   */\n      0x24\n        /* \"#utility.yul\":6569:6570   */\n      0x00\n        /* \"#utility.yul\":6562:6577   */\n      revert\n        /* \"#utility.yul\":6589:6909   */\n    tag_117:\n        /* \"#utility.yul\":6633:6639   */\n      0x00\n        /* \"#utility.yul\":6670:6671   */\n      0x02\n        /* \"#utility.yul\":6664:6668   */\n      dup3\n        /* \"#utility.yul\":6660:6672   */\n      div\n        /* \"#utility.yul\":6650:6672   */\n      swap1\n      pop\n        /* \"#utility.yul\":6717:6718   */\n      0x01\n        /* \"#utility.yul\":6711:6715   */\n      dup3\n        /* \"#utility.yul\":6707:6719   */\n      and\n        /* \"#utility.yul\":6738:6756   */\n      dup1\n        /* \"#utility.yul\":6728:6809   */\n      tag_364\n      jumpi\n        /* \"#utility.yul\":6794:6798   */\n      0x7f\n        /* \"#utility.yul\":6786:6792   */\n      dup3\n        /* \"#utility.yul\":6782:6799   */\n      and\n        /* \"#utility.yul\":6772:6799   */\n      swap2\n      pop\n        /* \"#utility.yul\":6728:6809   */\n    tag_364:\n        /* \"#utility.yul\":6856:6858   */\n      0x20\n        /* \"#utility.yul\":6848:6854   */\n      dup3\n        /* \"#utility.yul\":6845:6859   */\n      lt\n        /* \"#utility.yul\":6825:6843   */\n      dup2\n        /* \"#utility.yul\":6822:6860   */\n      eq\n        /* \"#utility.yul\":6819:6903   */\n      iszero\n      tag_365\n      jumpi\n        /* \"#utility.yul\":6875:6893   */\n      tag_366\n      tag_259\n      jump\t// in\n    tag_366:\n        /* \"#utility.yul\":6819:6903   */\n    tag_365:\n        /* \"#utility.yul\":6640:6909   */\n      pop\n        /* \"#utility.yul\":6589:6909   */\n      swap2\n      swap1\n      pop\n      jump\t// out\n        /* \"#utility.yul\":6915:7095   */\n    tag_260:\n        /* \"#utility.yul\":6963:7040   */\n      0x4e487b7100000000000000000000000000000000000000000000000000000000\n        /* \"#utility.yul\":6960:6961   */\n      0x00\n        /* \"#utility.yul\":6953:7041   */\n      mstore\n        /* \"#utility.yul\":7060:7064   */\n      0x11\n        /* \"#utility.yul\":7057:7058   */\n      0x04\n        /* \"#utility.yul\":7050:7065   */\n      mstore\n        /* \"#utility.yul\":7084:7088   */\n      0x24\n        /* \"#utility.yul\":7081:7082   */\n      0x00\n        /* \"#utility.yul\":7074:7089   */\n      revert\n        /* \"#utility.yul\":7101:7406   */\n    tag_139:\n        /* \"#utility.yul\":7141:7144   */\n      0x00\n        /* \"#utility.yul\":7160:7180   */\n      tag_369\n        /* \"#utility.yul\":7178:7179   */\n      dup3\n        /* \"#utility.yul\":7160:7180   */\n      tag_238\n      jump\t// in\n    tag_369:\n        /* \"#utility.yul\":7155:7180   */\n      swap2\n      pop\n        /* \"#utility.yul\":7194:7214   */\n      tag_370\n        /* \"#utility.yul\":7212:7213   */\n      dup4\n        /* \"#utility.yul\":7194:7214   */\n      tag_238\n      jump\t// in\n    tag_370:\n        /* \"#utility.yul\":7189:7214   */\n      swap3\n      pop\n        /* \"#utility.yul\":7348:7349   */\n      dup3\n        /* \"#utility.yul\":7280:7346   */\n      0xffffffffffffffffffffffffffffffffffffffffffffffffffffffffffffffff\n        /* \"#utility.yul\":7276:7350   */\n      sub\n        /* \"#utility.yul\":7273:7274   */\n      dup3\n        /* \"#utility.yul\":7270:7351   */\n      gt\n        /* \"#utility.yul\":7267:7374   */\n      iszero\n      tag_371\n      jumpi\n        /* \"#utility.yul\":7354:7372   */\n      tag_372\n      tag_260\n      jump\t// in\n    tag_372:\n        /* \"#utility.yul\":7267:7374   */\n    tag_371:\n        /* \"#utility.yul\":7398:7399   */\n      dup3\n        /* \"#utility.yul\":7395:7396   */\n      dup3\n        /* \"#utility.yul\":7391:7400   */\n      add\n        /* \"#utility.yul\":7384:7400   */\n      swap1\n      pop\n        /* \"#utility.yul\":7101:7406   */\n      swap3\n      swap2\n      pop\n      pop\n      jump\t// out\n        /* \"#utility.yul\":7412:7644   */\n    tag_261:\n        /* \"#utility.yul\":7552:7586   */\n      0x4f6e6c7920746865204f776e65722063616e2073657420746865207072696365\n        /* \"#utility.yul\":7548:7549   */\n      0x00\n        /* \"#utility.yul\":7540:7546   */\n      dup3\n        /* \"#utility.yul\":7536:7550   */\n      add\n        /* \"#utility.yul\":7529:7587   */\n      mstore\n        /* \"#utility.yul\":7621:7636   */\n      0x206f662074686520746f6b656e00000000000000000000000000000000000000\n        /* \"#utility.yul\":7616:7618   */\n      0x20\n        /* \"#utility.yul\":7608:7614   */\n      dup3\n        /* \"#utility.yul\":7604:7619   */\n      add\n        /* \"#utility.yul\":7597:7637   */\n      mstore\n        /* \"#utility.yul\":7412:7644   */\n      pop\n      jump\t// out\n        /* \"#utility.yul\":7650:8016   */\n    tag_262:\n        /* \"#utility.yul\":7792:7795   */\n      0x00\n        /* \"#utility.yul\":7813:7880   */\n      tag_375\n        /* \"#utility.yul\":7877:7879   */\n      0x2d\n        /* \"#utility.yul\":7872:7875   */\n      dup4\n        /* \"#utility.yul\":7813:7880   */\n      tag_241\n      jump\t// in\n    tag_375:\n        /* \"#utility.yul\":7806:7880   */\n      swap2\n      pop\n        /* \"#utility.yul\":7889:7982   */\n      tag_376\n        /* \"#utility.yul\":7978:7981   */\n      dup3\n        /* \"#utility.yul\":7889:7982   */\n      tag_261\n      jump\t// in\n    tag_376:\n        /* \"#utility.yul\":8007:8009   */\n      0x40\n        /* \"#utility.yul\":8002:8005   */\n      dup3\n        /* \"#utility.yul\":7998:8010   */\n      add\n        /* \"#utility.yul\":7991:8010   */\n      swap1\n      pop\n        /* \"#utility.yul\":7650:8016   */\n      swap2\n      swap1\n      pop\n      jump\t// out\n        /* \"#utility.yul\":8022:8441   */\n    tag_143:\n        /* \"#utility.yul\":8188:8192   */\n      0x00\n        /* \"#utility.yul\":8226:8228   */\n      0x20\n        /* \"#utility.yul\":8215:8224   */\n      dup3\n        /* \"#utility.yul\":8211:8229   */\n      add\n        /* \"#utility.yul\":8203:8229   */\n      swap1\n      pop\n        /* \"#utility.yul\":8275:8284   */\n      dup2\n        /* \"#utility.yul\":8269:8273   */\n      dup2\n        /* \"#utility.yul\":8265:8285   */\n      sub\n        /* \"#utility.yul\":8261:8262   */\n      0x00\n        /* \"#utility.yul\":8250:8259   */\n      dup4\n        /* \"#utility.yul\":8246:8263   */\n      add\n        /* \"#utility.yul\":8239:8286   */\n      mstore\n        /* \"#utility.yul\":8303:8434   */\n      tag_378\n        /* \"#utility.yul\":8429:8433   */\n      dup2\n        /* \"#utility.yul\":8303:8434   */\n      tag_262\n      jump\t// in\n    tag_378:\n        /* \"#utility.yul\":8295:8434   */\n      swap1\n      pop\n        /* \"#utility.yul\":8022:8441   */\n      swap2\n      swap1\n      pop\n      jump\t// out\n        /* \"#utility.yul\":8447:8629   */\n    tag_263:\n        /* \"#utility.yul\":8587:8621   */\n      0x4f776e61626c653a2063616c6c6572206973206e6f7420746865206f776e6572\n        /* \"#utility.yul\":8583:8584   */\n      0x00\n        /* \"#utility.yul\":8575:8581   */\n      dup3\n        /* \"#utility.yul\":8571:8585   */\n      add\n        /* \"#utility.yul\":8564:8622   */\n      mstore\n        /* \"#utility.yul\":8447:8629   */\n      pop\n      jump\t// out\n        /* \"#utility.yul\":8635:9001   */\n    tag_264:\n        /* \"#utility.yul\":8777:8780   */\n      0x00\n        /* \"#utility.yul\":8798:8865   */\n      tag_381\n        /* \"#utility.yul\":8862:8864   */\n      0x20\n        /* \"#utility.yul\":8857:8860   */\n      dup4\n        /* \"#utility.yul\":8798:8865   */\n      tag_241\n      jump\t// in\n    tag_381:\n        /* \"#utility.yul\":8791:8865   */\n      swap2\n      pop\n        /* \"#utility.yul\":8874:8967   */\n      tag_382\n        /* \"#utility.yul\":8963:8966   */\n      dup3\n        /* \"#utility.yul\":8874:8967   */\n      tag_263\n      jump\t// in\n    tag_382:\n        /* \"#utility.yul\":8992:8994   */\n      0x20\n        /* \"#utility.yul\":8987:8990   */\n      dup3\n        /* \"#utility.yul\":8983:8995   */\n      add\n        /* \"#utility.yul\":8976:8995   */\n      swap1\n      pop\n        /* \"#utility.yul\":8635:9001   */\n      swap2\n      swap1\n      pop\n      jump\t// out\n        /* \"#utility.yul\":9007:9426   */\n    tag_150:\n        /* \"#utility.yul\":9173:9177   */\n      0x00\n        /* \"#utility.yul\":9211:9213   */\n      0x20\n        /* \"#utility.yul\":9200:9209   */\n      dup3\n        /* \"#utility.yul\":9196:9214   */\n      add\n        /* \"#utility.yul\":9188:9214   */\n      swap1\n      pop\n        /* \"#utility.yul\":9260:9269   */\n      dup2\n        /* \"#utility.yul\":9254:9258   */\n      dup2\n        /* \"#utility.yul\":9250:9270   */\n      sub\n        /* \"#utility.yul\":9246:9247   */\n      0x00\n        /* \"#utility.yul\":9235:9244   */\n      dup4\n        /* \"#utility.yul\":9231:9248   */\n      add\n        /* \"#utility.yul\":9224:9271   */\n      mstore\n        /* \"#utility.yul\":9288:9419   */\n      tag_384\n        /* \"#utility.yul\":9414:9418   */\n      dup2\n        /* \"#utility.yul\":9288:9419   */\n      tag_264\n      jump\t// in\n    tag_384:\n        /* \"#utility.yul\":9280:9419   */\n      swap1\n      pop\n        /* \"#utility.yul\":9007:9426   */\n      swap2\n      swap1\n      pop\n      jump\t// out\n        /* \"#utility.yul\":9432:9534   */\n    tag_265:\n        /* \"#utility.yul\":9474:9482   */\n      0x00\n        /* \"#utility.yul\":9521:9526   */\n      dup2\n        /* \"#utility.yul\":9518:9519   */\n      0x01\n        /* \"#utility.yul\":9514:9527   */\n      shr\n        /* \"#utility.yul\":9493:9527   */\n      swap1\n      pop\n        /* \"#utility.yul\":9432:9534   */\n      swap2\n      swap1\n      pop\n      jump\t// out\n        /* \"#utility.yul\":9540:10388   */\n    tag_266:\n        /* \"#utility.yul\":9601:9606   */\n      0x00\n        /* \"#utility.yul\":9608:9612   */\n      dup1\n        /* \"#utility.yul\":9632:9638   */\n      dup3\n        /* \"#utility.yul\":9623:9638   */\n      swap2\n      pop\n        /* \"#utility.yul\":9656:9661   */\n      dup4\n        /* \"#utility.yul\":9647:9661   */\n      swap1\n      pop\n        /* \"#utility.yul\":9670:10382   */\n    tag_387:\n        /* \"#utility.yul\":9691:9692   */\n      0x01\n        /* \"#utility.yul\":9681:9689   */\n      dup6\n        /* \"#utility.yul\":9678:9693   */\n      gt\n        /* \"#utility.yul\":9670:10382   */\n      iszero\n      tag_389\n      jumpi\n        /* \"#utility.yul\":9786:9790   */\n      dup1\n        /* \"#utility.yul\":9781:9784   */\n      dup7\n        /* \"#utility.yul\":9777:9791   */\n      div\n        /* \"#utility.yul\":9771:9775   */\n      dup2\n        /* \"#utility.yul\":9768:9792   */\n      gt\n        /* \"#utility.yul\":9765:9815   */\n      iszero\n      tag_390\n      jumpi\n        /* \"#utility.yul\":9795:9813   */\n      tag_391\n      tag_260\n      jump\t// in\n    tag_391:\n        /* \"#utility.yul\":9765:9815   */\n    tag_390:\n        /* \"#utility.yul\":9845:9846   */\n      0x01\n        /* \"#utility.yul\":9835:9843   */\n      dup6\n        /* \"#utility.yul\":9831:9847   */\n      and\n        /* \"#utility.yul\":9828:10279   */\n      iszero\n      tag_392\n      jumpi\n        /* \"#utility.yul\":10260:10264   */\n      dup1\n        /* \"#utility.yul\":10253:10258   */\n      dup3\n        /* \"#utility.yul\":10249:10265   */\n      mul\n        /* \"#utility.yul\":10240:10265   */\n      swap2\n      pop\n        /* \"#utility.yul\":9828:10279   */\n    tag_392:\n        /* \"#utility.yul\":10310:10314   */\n      dup1\n        /* \"#utility.yul\":10304:10308   */\n      dup2\n        /* \"#utility.yul\":10300:10315   */\n      mul\n        /* \"#utility.yul\":10292:10315   */\n      swap1\n      pop\n        /* \"#utility.yul\":10340:10372   */\n      tag_393\n        /* \"#utility.yul\":10363:10371   */\n      dup6\n        /* \"#utility.yul\":10340:10372   */\n      tag_265\n      jump\t// in\n    tag_393:\n        /* \"#utility.yul\":10328:10372   */\n      swap5\n      pop\n        /* \"#utility.yul\":9670:10382   */\n      jump(tag_387)\n    tag_389:\n        /* \"#utility.yul\":9540:10388   */\n      swap5\n      pop\n      swap5\n      swap3\n      pop\n      pop\n      pop\n      jump\t// out\n        /* \"#utility.yul\":10394:11467   */\n    tag_267:\n        /* \"#utility.yul\":10448:10453   */\n      0x00\n        /* \"#utility.yul\":10639:10647   */\n      dup3\n        /* \"#utility.yul\":10629:10669   */\n      tag_395\n      jumpi\n        /* \"#utility.yul\":10660:10661   */\n      0x01\n        /* \"#utility.yul\":10651:10661   */\n      swap1\n      pop\n        /* \"#utility.yul\":10662:10667   */\n      jump(tag_394)\n        /* \"#utility.yul\":10629:10669   */\n    tag_395:\n        /* \"#utility.yul\":10688:10692   */\n      dup2\n        /* \"#utility.yul\":10678:10714   */\n      tag_396\n      jumpi\n        /* \"#utility.yul\":10705:10706   */\n      0x00\n        /* \"#utility.yul\":10696:10706   */\n      swap1\n      pop\n        /* \"#utility.yul\":10707:10712   */\n      jump(tag_394)\n        /* \"#utility.yul\":10678:10714   */\n    tag_396:\n        /* \"#utility.yul\":10774:10778   */\n      dup2\n        /* \"#utility.yul\":10822:10823   */\n      0x01\n        /* \"#utility.yul\":10817:10844   */\n      dup2\n      eq\n      tag_398\n      jumpi\n        /* \"#utility.yul\":10858:10859   */\n      0x02\n        /* \"#utility.yul\":10853:11044   */\n      dup2\n      eq\n      tag_399\n      jumpi\n        /* \"#utility.yul\":10767:11044   */\n      jump(tag_397)\n        /* \"#utility.yul\":10817:10844   */\n    tag_398:\n        /* \"#utility.yul\":10835:10836   */\n      0x01\n        /* \"#utility.yul\":10826:10836   */\n      swap2\n      pop\n        /* \"#utility.yul\":10837:10842   */\n      pop\n      jump(tag_394)\n        /* \"#utility.yul\":10853:11044   */\n    tag_399:\n        /* \"#utility.yul\":10898:10901   */\n      0xff\n        /* \"#utility.yul\":10888:10896   */\n      dup5\n        /* \"#utility.yul\":10885:10902   */\n      gt\n        /* \"#utility.yul\":10882:10925   */\n      iszero\n      tag_400\n      jumpi\n        /* \"#utility.yul\":10905:10923   */\n      tag_401\n      tag_260\n      jump\t// in\n    tag_401:\n        /* \"#utility.yul\":10882:10925   */\n    tag_400:\n        /* \"#utility.yul\":10954:10962   */\n      dup4\n        /* \"#utility.yul\":10951:10952   */\n      0x02\n        /* \"#utility.yul\":10947:10963   */\n      exp\n        /* \"#utility.yul\":10938:10963   */\n      swap2\n      pop\n        /* \"#utility.yul\":10989:10992   */\n      dup5\n        /* \"#utility.yul\":10982:10987   */\n      dup3\n        /* \"#utility.yul\":10979:10993   */\n      gt\n        /* \"#utility.yul\":10976:11016   */\n      iszero\n      tag_402\n      jumpi\n        /* \"#utility.yul\":10996:11014   */\n      tag_403\n      tag_260\n      jump\t// in\n    tag_403:\n        /* \"#utility.yul\":10976:11016   */\n    tag_402:\n        /* \"#utility.yul\":11029:11034   */\n      pop\n      jump(tag_394)\n        /* \"#utility.yul\":10767:11044   */\n    tag_397:\n      pop\n        /* \"#utility.yul\":11153:11155   */\n      0x20\n        /* \"#utility.yul\":11143:11151   */\n      dup4\n        /* \"#utility.yul\":11140:11156   */\n      lt\n        /* \"#utility.yul\":11134:11137   */\n      0x0133\n        /* \"#utility.yul\":11128:11132   */\n      dup4\n        /* \"#utility.yul\":11125:11138   */\n      lt\n        /* \"#utility.yul\":11121:11157   */\n      and\n        /* \"#utility.yul\":11103:11105   */\n      0x4e\n        /* \"#utility.yul\":11093:11101   */\n      dup5\n        /* \"#utility.yul\":11090:11106   */\n      lt\n        /* \"#utility.yul\":11085:11087   */\n      0x0b\n        /* \"#utility.yul\":11079:11083   */\n      dup5\n        /* \"#utility.yul\":11076:11088   */\n      lt\n        /* \"#utility.yul\":11072:11107   */\n      and\n        /* \"#utility.yul\":11056:11167   */\n      or\n        /* \"#utility.yul\":11053:11299   */\n      iszero\n      tag_404\n      jumpi\n        /* \"#utility.yul\":11209:11217   */\n      dup3\n        /* \"#utility.yul\":11203:11207   */\n      dup3\n        /* \"#utility.yul\":11199:11218   */\n      exp\n        /* \"#utility.yul\":11190:11218   */\n      swap1\n      pop\n        /* \"#utility.yul\":11244:11247   */\n      dup4\n        /* \"#utility.yul\":11237:11242   */\n      dup2\n        /* \"#utility.yul\":11234:11248   */\n      gt\n        /* \"#utility.yul\":11231:11271   */\n      iszero\n      tag_405\n      jumpi\n        /* \"#utility.yul\":11251:11269   */\n      tag_406\n      tag_260\n      jump\t// in\n    tag_406:\n        /* \"#utility.yul\":11231:11271   */\n    tag_405:\n        /* \"#utility.yul\":11284:11289   */\n      jump(tag_394)\n        /* \"#utility.yul\":11053:11299   */\n    tag_404:\n        /* \"#utility.yul\":11324:11366   */\n      tag_407\n        /* \"#utility.yul\":11362:11365   */\n      dup5\n        /* \"#utility.yul\":11352:11360   */\n      dup5\n        /* \"#utility.yul\":11346:11350   */\n      dup5\n        /* \"#utility.yul\":11343:11344   */\n      0x01\n        /* \"#utility.yul\":11324:11366   */\n      tag_266\n      jump\t// in\n    tag_407:\n        /* \"#utility.yul\":11309:11366   */\n      swap3\n      pop\n      swap1\n      pop\n        /* \"#utility.yul\":11398:11402   */\n      dup2\n        /* \"#utility.yul\":11393:11396   */\n      dup5\n        /* \"#utility.yul\":11389:11403   */\n      div\n        /* \"#utility.yul\":11382:11387   */\n      dup2\n        /* \"#utility.yul\":11379:11404   */\n      gt\n        /* \"#utility.yul\":11376:11427   */\n      iszero\n      tag_408\n      jumpi\n        /* \"#utility.yul\":11407:11425   */\n      tag_409\n      tag_260\n      jump\t// in\n    tag_409:\n        /* \"#utility.yul\":11376:11427   */\n    tag_408:\n        /* \"#utility.yul\":11456:11460   */\n      dup2\n        /* \"#utility.yul\":11449:11454   */\n      dup2\n        /* \"#utility.yul\":11445:11461   */\n      mul\n        /* \"#utility.yul\":11436:11461   */\n      swap1\n      pop\n        /* \"#utility.yul\":10394:11467   */\n    tag_394:\n      swap4\n      swap3\n      pop\n      pop\n      pop\n      jump\t// out\n        /* \"#utility.yul\":11473:11754   */\n    tag_157:\n        /* \"#utility.yul\":11531:11536   */\n      0x00\n        /* \"#utility.yul\":11555:11578   */\n      tag_411\n        /* \"#utility.yul\":11573:11577   */\n      dup3\n        /* \"#utility.yul\":11555:11578   */\n      tag_238\n      jump\t// in\n    tag_411:\n        /* \"#utility.yul\":11547:11578   */\n      swap2\n      pop\n        /* \"#utility.yul\":11599:11624   */\n      tag_412\n        /* \"#utility.yul\":11615:11623   */\n      dup4\n        /* \"#utility.yul\":11599:11624   */\n      tag_256\n      jump\t// in\n    tag_412:\n        /* \"#utility.yul\":11587:11624   */\n      swap3\n      pop\n        /* \"#utility.yul\":11643:11747   */\n      tag_413\n        /* \"#utility.yul\":11680:11746   */\n      0xffffffffffffffffffffffffffffffffffffffffffffffffffffffffffffffff\n        /* \"#utility.yul\":11670:11678   */\n      dup5\n        /* \"#utility.yul\":11664:11668   */\n      dup5\n        /* \"#utility.yul\":11643:11747   */\n      tag_267\n      jump\t// in\n    tag_413:\n        /* \"#utility.yul\":11634:11747   */\n      swap1\n      pop\n        /* \"#utility.yul\":11473:11754   */\n      swap3\n      swap2\n      pop\n      pop\n      jump\t// out\n        /* \"#utility.yul\":11760:12108   */\n    tag_159:\n        /* \"#utility.yul\":11800:11807   */\n      0x00\n        /* \"#utility.yul\":11823:11843   */\n      tag_415\n        /* \"#utility.yul\":11841:11842   */\n      dup3\n        /* \"#utility.yul\":11823:11843   */\n      tag_238\n      jump\t// in\n    tag_415:\n        /* \"#utility.yul\":11818:11843   */\n      swap2\n      pop\n        /* \"#utility.yul\":11857:11877   */\n      tag_416\n        /* \"#utility.yul\":11875:11876   */\n      dup4\n        /* \"#utility.yul\":11857:11877   */\n      tag_238\n      jump\t// in\n    tag_416:\n        /* \"#utility.yul\":11852:11877   */\n      swap3\n      pop\n        /* \"#utility.yul\":12045:12046   */\n      dup2\n        /* \"#utility.yul\":11977:12043   */\n      0xffffffffffffffffffffffffffffffffffffffffffffffffffffffffffffffff\n        /* \"#utility.yul\":11973:12047   */\n      div\n        /* \"#utility.yul\":11970:11971   */\n      dup4\n        /* \"#utility.yul\":11967:12048   */\n      gt\n        /* \"#utility.yul\":11962:11963   */\n      dup3\n        /* \"#utility.yul\":11955:11964   */\n      iszero\n        /* \"#utility.yul\":11948:11965   */\n      iszero\n        /* \"#utility.yul\":11944:12049   */\n      and\n        /* \"#utility.yul\":11941:12072   */\n      iszero\n      tag_417\n      jumpi\n        /* \"#utility.yul\":12052:12070   */\n      tag_418\n      tag_260\n      jump\t// in\n    tag_418:\n        /* \"#utility.yul\":11941:12072   */\n    tag_417:\n        /* \"#utility.yul\":12100:12101   */\n      dup3\n        /* \"#utility.yul\":12097:12098   */\n      dup3\n        /* \"#utility.yul\":12093:12102   */\n      mul\n        /* \"#utility.yul\":12082:12102   */\n      swap1\n      pop\n        /* \"#utility.yul\":11760:12108   */\n      swap3\n      swap2\n      pop\n      pop\n      jump\t// out\n        /* \"#utility.yul\":12114:12294   */\n    tag_268:\n        /* \"#utility.yul\":12162:12239   */\n      0x4e487b7100000000000000000000000000000000000000000000000000000000\n        /* \"#utility.yul\":12159:12160   */\n      0x00\n        /* \"#utility.yul\":12152:12240   */\n      mstore\n        /* \"#utility.yul\":12259:12263   */\n      0x12\n        /* \"#utility.yul\":12256:12257   */\n      0x04\n        /* \"#utility.yul\":12249:12264   */\n      mstore\n        /* \"#utility.yul\":12283:12287   */\n      0x24\n        /* \"#utility.yul\":12280:12281   */\n      0x00\n        /* \"#utility.yul\":12273:12288   */\n      revert\n        /* \"#utility.yul\":12300:12485   */\n    tag_164:\n        /* \"#utility.yul\":12340:12341   */\n      0x00\n        /* \"#utility.yul\":12357:12377   */\n      tag_421\n        /* \"#utility.yul\":12375:12376   */\n      dup3\n        /* \"#utility.yul\":12357:12377   */\n      tag_238\n      jump\t// in\n    tag_421:\n        /* \"#utility.yul\":12352:12377   */\n      swap2\n      pop\n        /* \"#utility.yul\":12391:12411   */\n      tag_422\n        /* \"#utility.yul\":12409:12410   */\n      dup4\n        /* \"#utility.yul\":12391:12411   */\n      tag_238\n      jump\t// in\n    tag_422:\n        /* \"#utility.yul\":12386:12411   */\n      swap3\n      pop\n        /* \"#utility.yul\":12430:12431   */\n      dup3\n        /* \"#utility.yul\":12420:12455   */\n      tag_423\n      jumpi\n        /* \"#utility.yul\":12435:12453   */\n      tag_424\n      tag_268\n      jump\t// in\n    tag_424:\n        /* \"#utility.yul\":12420:12455   */\n    tag_423:\n        /* \"#utility.yul\":12477:12478   */\n      dup3\n        /* \"#utility.yul\":12474:12475   */\n      dup3\n        /* \"#utility.yul\":12470:12479   */\n      div\n        /* \"#utility.yul\":12465:12479   */\n      swap1\n      pop\n        /* \"#utility.yul\":12300:12485   */\n      swap3\n      swap2\n      pop\n      pop\n      jump\t// out\n        /* \"#utility.yul\":12491:12715   */\n    tag_269:\n        /* \"#utility.yul\":12631:12665   */\n      0x45524332303a2064656372656173656420616c6c6f77616e63652062656c6f77\n        /* \"#utility.yul\":12627:12628   */\n      0x00\n        /* \"#utility.yul\":12619:12625   */\n      dup3\n        /* \"#utility.yul\":12615:12629   */\n      add\n        /* \"#utility.yul\":12608:12666   */\n      mstore\n        /* \"#utility.yul\":12700:12707   */\n      0x207a65726f000000000000000000000000000000000000000000000000000000\n        /* \"#utility.yul\":12695:12697   */\n      0x20\n        /* \"#utility.yul\":12687:12693   */\n      dup3\n        /* \"#utility.yul\":12683:12698   */\n      add\n        /* \"#utility.yul\":12676:12708   */\n      mstore\n        /* \"#utility.yul\":12491:12715   */\n      pop\n      jump\t// out\n        /* \"#utility.yul\":12721:13087   */\n    tag_270:\n        /* \"#utility.yul\":12863:12866   */\n      0x00\n        /* \"#utility.yul\":12884:12951   */\n      tag_427\n        /* \"#utility.yul\":12948:12950   */\n      0x25\n        /* \"#utility.yul\":12943:12946   */\n      dup4\n        /* \"#utility.yul\":12884:12951   */\n      tag_241\n      jump\t// in\n    tag_427:\n        /* \"#utility.yul\":12877:12951   */\n      swap2\n      pop\n        /* \"#utility.yul\":12960:13053   */\n      tag_428\n        /* \"#utility.yul\":13049:13052   */\n      dup3\n        /* \"#utility.yul\":12960:13053   */\n      tag_269\n      jump\t// in\n    tag_428:\n        /* \"#utility.yul\":13078:13080   */\n      0x40\n        /* \"#utility.yul\":13073:13076   */\n      dup3\n        /* \"#utility.yul\":13069:13081   */\n      add\n        /* \"#utility.yul\":13062:13081   */\n      swap1\n      pop\n        /* \"#utility.yul\":12721:13087   */\n      swap2\n      swap1\n      pop\n      jump\t// out\n        /* \"#utility.yul\":13093:13512   */\n    tag_178:\n        /* \"#utility.yul\":13259:13263   */\n      0x00\n        /* \"#utility.yul\":13297:13299   */\n      0x20\n        /* \"#utility.yul\":13286:13295   */\n      dup3\n        /* \"#utility.yul\":13282:13300   */\n      add\n        /* \"#utility.yul\":13274:13300   */\n      swap1\n      pop\n        /* \"#utility.yul\":13346:13355   */\n      dup2\n        /* \"#utility.yul\":13340:13344   */\n      dup2\n        /* \"#utility.yul\":13336:13356   */\n      sub\n        /* \"#utility.yul\":13332:13333   */\n      0x00\n        /* \"#utility.yul\":13321:13330   */\n      dup4\n        /* \"#utility.yul\":13317:13334   */\n      add\n        /* \"#utility.yul\":13310:13357   */\n      mstore\n        /* \"#utility.yul\":13374:13505   */\n      tag_430\n        /* \"#utility.yul\":13500:13504   */\n      dup2\n        /* \"#utility.yul\":13374:13505   */\n      tag_270\n      jump\t// in\n    tag_430:\n        /* \"#utility.yul\":13366:13505   */\n      swap1\n      pop\n        /* \"#utility.yul\":13093:13512   */\n      swap2\n      swap1\n      pop\n      jump\t// out\n        /* \"#utility.yul\":13518:13743   */\n    tag_271:\n        /* \"#utility.yul\":13658:13692   */\n      0x4f776e61626c653a206e6577206f776e657220697320746865207a65726f2061\n        /* \"#utility.yul\":13654:13655   */\n      0x00\n        /* \"#utility.yul\":13646:13652   */\n      dup3\n        /* \"#utility.yul\":13642:13656   */\n      add\n        /* \"#utility.yul\":13635:13693   */\n      mstore\n        /* \"#utility.yul\":13727:13735   */\n      0x6464726573730000000000000000000000000000000000000000000000000000\n        /* \"#utility.yul\":13722:13724   */\n      0x20\n        /* \"#utility.yul\":13714:13720   */\n      dup3\n        /* \"#utility.yul\":13710:13725   */\n      add\n        /* \"#utility.yul\":13703:13736   */\n      mstore\n        /* \"#utility.yul\":13518:13743   */\n      pop\n      jump\t// out\n        /* \"#utility.yul\":13749:14115   */\n    tag_272:\n        /* \"#utility.yul\":13891:13894   */\n      0x00\n        /* \"#utility.yul\":13912:13979   */\n      tag_433\n        /* \"#utility.yul\":13976:13978   */\n      0x26\n        /* \"#utility.yul\":13971:13974   */\n      dup4\n        /* \"#utility.yul\":13912:13979   */\n      tag_241\n      jump\t// in\n    tag_433:\n        /* \"#utility.yul\":13905:13979   */\n      swap2\n      pop\n        /* \"#utility.yul\":13988:14081   */\n      tag_434\n        /* \"#utility.yul\":14077:14080   */\n      dup3\n        /* \"#utility.yul\":13988:14081   */\n      tag_271\n      jump\t// in\n    tag_434:\n        /* \"#utility.yul\":14106:14108   */\n      0x40\n        /* \"#utility.yul\":14101:14104   */\n      dup3\n        /* \"#utility.yul\":14097:14109   */\n      add\n        /* \"#utility.yul\":14090:14109   */\n      swap1\n      pop\n        /* \"#utility.yul\":13749:14115   */\n      swap2\n      swap1\n      pop\n      jump\t// out\n        /* \"#utility.yul\":14121:14540   */\n    tag_192:\n        /* \"#utility.yul\":14287:14291   */\n      0x00\n        /* \"#utility.yul\":14325:14327   */\n      0x20\n        /* \"#utility.yul\":14314:14323   */\n      dup3\n        /* \"#utility.yul\":14310:14328   */\n      add\n        /* \"#utility.yul\":14302:14328   */\n      swap1\n      pop\n        /* \"#utility.yul\":14374:14383   */\n      dup2\n        /* \"#utility.yul\":14368:14372   */\n      dup2\n        /* \"#utility.yul\":14364:14384   */\n      sub\n        /* \"#utility.yul\":14360:14361   */\n      0x00\n        /* \"#utility.yul\":14349:14358   */\n      dup4\n        /* \"#utility.yul\":14345:14362   */\n      add\n        /* \"#utility.yul\":14338:14385   */\n      mstore\n        /* \"#utility.yul\":14402:14533   */\n      tag_436\n        /* \"#utility.yul\":14528:14532   */\n      dup2\n        /* \"#utility.yul\":14402:14533   */\n      tag_272\n      jump\t// in\n    tag_436:\n        /* \"#utility.yul\":14394:14533   */\n      swap1\n      pop\n        /* \"#utility.yul\":14121:14540   */\n      swap2\n      swap1\n      pop\n      jump\t// out\n        /* \"#utility.yul\":14546:14769   */\n    tag_273:\n        /* \"#utility.yul\":14686:14720   */\n      0x45524332303a20617070726f76652066726f6d20746865207a65726f20616464\n        /* \"#utility.yul\":14682:14683   */\n      0x00\n        /* \"#utility.yul\":14674:14680   */\n      dup3\n        /* \"#utility.yul\":14670:14684   */\n      add\n        /* \"#utility.yul\":14663:14721   */\n      mstore\n        /* \"#utility.yul\":14755:14761   */\n      0x7265737300000000000000000000000000000000000000000000000000000000\n        /* \"#utility.yul\":14750:14752   */\n      0x20\n        /* \"#utility.yul\":14742:14748   */\n      dup3\n        /* \"#utility.yul\":14738:14753   */\n      add\n        /* \"#utility.yul\":14731:14762   */\n      mstore\n        /* \"#utility.yul\":14546:14769   */\n      pop\n      jump\t// out\n        /* \"#utility.yul\":14775:15141   */\n    tag_274:\n        /* \"#utility.yul\":14917:14920   */\n      0x00\n        /* \"#utility.yul\":14938:15005   */\n      tag_439\n        /* \"#utility.yul\":15002:15004   */\n      0x24\n        /* \"#utility.yul\":14997:15000   */\n      dup4\n        /* \"#utility.yul\":14938:15005   */\n      tag_241\n      jump\t// in\n    tag_439:\n        /* \"#utility.yul\":14931:15005   */\n      swap2\n      pop\n        /* \"#utility.yul\":15014:15107   */\n      tag_440\n        /* \"#utility.yul\":15103:15106   */\n      dup3\n        /* \"#utility.yul\":15014:15107   */\n      tag_273\n      jump\t// in\n    tag_440:\n        /* \"#utility.yul\":15132:15134   */\n      0x40\n        /* \"#utility.yul\":15127:15130   */\n      dup3\n        /* \"#utility.yul\":15123:15135   */\n      add\n        /* \"#utility.yul\":15116:15135   */\n      swap1\n      pop\n        /* \"#utility.yul\":14775:15141   */\n      swap2\n      swap1\n      pop\n      jump\t// out\n        /* \"#utility.yul\":15147:15566   */\n    tag_198:\n        /* \"#utility.yul\":15313:15317   */\n      0x00\n        /* \"#utility.yul\":15351:15353   */\n      0x20\n        /* \"#utility.yul\":15340:15349   */\n      dup3\n        /* \"#utility.yul\":15336:15354   */\n      add\n        /* \"#utility.yul\":15328:15354   */\n      swap1\n      pop\n        /* \"#utility.yul\":15400:15409   */\n      dup2\n        /* \"#utility.yul\":15394:15398   */\n      dup2\n        /* \"#utility.yul\":15390:15410   */\n      sub\n        /* \"#utility.yul\":15386:15387   */\n      0x00\n        /* \"#utility.yul\":15375:15384   */\n      dup4\n        /* \"#utility.yul\":15371:15388   */\n      add\n        /* \"#utility.yul\":15364:15411   */\n      mstore\n        /* \"#utility.yul\":15428:15559   */\n      tag_442\n        /* \"#utility.yul\":15554:15558   */\n      dup2\n        /* \"#utility.yul\":15428:15559   */\n      tag_274\n      jump\t// in\n    tag_442:\n        /* \"#utility.yul\":15420:15559   */\n      swap1\n      pop\n        /* \"#utility.yul\":15147:15566   */\n      swap2\n      swap1\n      pop\n      jump\t// out\n        /* \"#utility.yul\":15572:15793   */\n    tag_275:\n        /* \"#utility.yul\":15712:15746   */\n      0x45524332303a20617070726f766520746f20746865207a65726f206164647265\n        /* \"#utility.yul\":15708:15709   */\n      0x00\n        /* \"#utility.yul\":15700:15706   */\n      dup3\n        /* \"#utility.yul\":15696:15710   */\n      add\n        /* \"#utility.yul\":15689:15747   */\n      mstore\n        /* \"#utility.yul\":15781:15785   */\n      0x7373000000000000000000000000000000000000000000000000000000000000\n        /* \"#utility.yul\":15776:15778   */\n      0x20\n        /* \"#utility.yul\":15768:15774   */\n      dup3\n        /* \"#utility.yul\":15764:15779   */\n      add\n        /* \"#utility.yul\":15757:15786   */\n      mstore\n        /* \"#utility.yul\":15572:15793   */\n      pop\n      jump\t// out\n        /* \"#utility.yul\":15799:16165   */\n    tag_276:\n        /* \"#utility.yul\":15941:15944   */\n      0x00\n        /* \"#utility.yul\":15962:16029   */\n      tag_445\n        /* \"#utility.yul\":16026:16028   */\n      0x22\n        /* \"#utility.yul\":16021:16024   */\n      dup4\n        /* \"#utility.yul\":15962:16029   */\n      tag_241\n      jump\t// in\n    tag_445:\n        /* \"#utility.yul\":15955:16029   */\n      swap2\n      pop\n        /* \"#utility.yul\":16038:16131   */\n      tag_446\n        /* \"#utility.yul\":16127:16130   */\n      dup3\n        /* \"#utility.yul\":16038:16131   */\n      tag_275\n      jump\t// in\n    tag_446:\n        /* \"#utility.yul\":16156:16158   */\n      0x40\n        /* \"#utility.yul\":16151:16154   */\n      dup3\n        /* \"#utility.yul\":16147:16159   */\n      add\n        /* \"#utility.yul\":16140:16159   */\n      swap1\n      pop\n        /* \"#utility.yul\":15799:16165   */\n      swap2\n      swap1\n      pop\n      jump\t// out\n        /* \"#utility.yul\":16171:16590   */\n    tag_201:\n        /* \"#utility.yul\":16337:16341   */\n      0x00\n        /* \"#utility.yul\":16375:16377   */\n      0x20\n        /* \"#utility.yul\":16364:16373   */\n      dup3\n        /* \"#utility.yul\":16360:16378   */\n      add\n        /* \"#utility.yul\":16352:16378   */\n      swap1\n      pop\n        /* \"#utility.yul\":16424:16433   */\n      dup2\n        /* \"#utility.yul\":16418:16422   */\n      dup2\n        /* \"#utility.yul\":16414:16434   */\n      sub\n        /* \"#utility.yul\":16410:16411   */\n      0x00\n        /* \"#utility.yul\":16399:16408   */\n      dup4\n        /* \"#utility.yul\":16395:16412   */\n      add\n        /* \"#utility.yul\":16388:16435   */\n      mstore\n        /* \"#utility.yul\":16452:16583   */\n      tag_448\n        /* \"#utility.yul\":16578:16582   */\n      dup2\n        /* \"#utility.yul\":16452:16583   */\n      tag_276\n      jump\t// in\n    tag_448:\n        /* \"#utility.yul\":16444:16583   */\n      swap1\n      pop\n        /* \"#utility.yul\":16171:16590   */\n      swap2\n      swap1\n      pop\n      jump\t// out\n        /* \"#utility.yul\":16596:16775   */\n    tag_277:\n        /* \"#utility.yul\":16736:16767   */\n      0x45524332303a20696e73756666696369656e7420616c6c6f77616e6365000000\n        /* \"#utility.yul\":16732:16733   */\n      0x00\n        /* \"#utility.yul\":16724:16730   */\n      dup3\n        /* \"#utility.yul\":16720:16734   */\n      add\n        /* \"#utility.yul\":16713:16768   */\n      mstore\n        /* \"#utility.yul\":16596:16775   */\n      pop\n      jump\t// out\n        /* \"#utility.yul\":16781:17147   */\n    tag_278:\n        /* \"#utility.yul\":16923:16926   */\n      0x00\n        /* \"#utility.yul\":16944:17011   */\n      tag_451\n        /* \"#utility.yul\":17008:17010   */\n      0x1d\n        /* \"#utility.yul\":17003:17006   */\n      dup4\n        /* \"#utility.yul\":16944:17011   */\n      tag_241\n      jump\t// in\n    tag_451:\n        /* \"#utility.yul\":16937:17011   */\n      swap2\n      pop\n        /* \"#utility.yul\":17020:17113   */\n      tag_452\n        /* \"#utility.yul\":17109:17112   */\n      dup3\n        /* \"#utility.yul\":17020:17113   */\n      tag_277\n      jump\t// in\n    tag_452:\n        /* \"#utility.yul\":17138:17140   */\n      0x20\n        /* \"#utility.yul\":17133:17136   */\n      dup3\n        /* \"#utility.yul\":17129:17141   */\n      add\n        /* \"#utility.yul\":17122:17141   */\n      swap1\n      pop\n        /* \"#utility.yul\":16781:17147   */\n      swap2\n      swap1\n      pop\n      jump\t// out\n        /* \"#utility.yul\":17153:17572   */\n    tag_208:\n        /* \"#utility.yul\":17319:17323   */\n      0x00\n        /* \"#utility.yul\":17357:17359   */\n      0x20\n        /* \"#utility.yul\":17346:17355   */\n      dup3\n        /* \"#utility.yul\":17342:17360   */\n      add\n        /* \"#utility.yul\":17334:17360   */\n      swap1\n      pop\n        /* \"#utility.yul\":17406:17415   */\n      dup2\n        /* \"#utility.yul\":17400:17404   */\n      dup2\n        /* \"#utility.yul\":17396:17416   */\n      sub\n        /* \"#utility.yul\":17392:17393   */\n      0x00\n        /* \"#utility.yul\":17381:17390   */\n      dup4\n        /* \"#utility.yul\":17377:17394   */\n      add\n        /* \"#utility.yul\":17370:17417   */\n      mstore\n        /* \"#utility.yul\":17434:17565   */\n      tag_454\n        /* \"#utility.yul\":17560:17564   */\n      dup2\n        /* \"#utility.yul\":17434:17565   */\n      tag_278\n      jump\t// in\n    tag_454:\n        /* \"#utility.yul\":17426:17565   */\n      swap1\n      pop\n        /* \"#utility.yul\":17153:17572   */\n      swap2\n      swap1\n      pop\n      jump\t// out\n        /* \"#utility.yul\":17578:17802   */\n    tag_279:\n        /* \"#utility.yul\":17718:17752   */\n      0x45524332303a207472616e736665722066726f6d20746865207a65726f206164\n        /* \"#utility.yul\":17714:17715   */\n      0x00\n        /* \"#utility.yul\":17706:17712   */\n      dup3\n        /* \"#utility.yul\":17702:17716   */\n      add\n        /* \"#utility.yul\":17695:17753   */\n      mstore\n        /* \"#utility.yul\":17787:17794   */\n      0x6472657373000000000000000000000000000000000000000000000000000000\n        /* \"#utility.yul\":17782:17784   */\n      0x20\n        /* \"#utility.yul\":17774:17780   */\n      dup3\n        /* \"#utility.yul\":17770:17785   */\n      add\n        /* \"#utility.yul\":17763:17795   */\n      mstore\n        /* \"#utility.yul\":17578:17802   */\n      pop\n      jump\t// out\n        /* \"#utility.yul\":17808:18174   */\n    tag_280:\n        /* \"#utility.yul\":17950:17953   */\n      0x00\n        /* \"#utility.yul\":17971:18038   */\n      tag_457\n        /* \"#utility.yul\":18035:18037   */\n      0x25\n        /* \"#utility.yul\":18030:18033   */\n      dup4\n        /* \"#utility.yul\":17971:18038   */\n      tag_241\n      jump\t// in\n    tag_457:\n        /* \"#utility.yul\":17964:18038   */\n      swap2\n      pop\n        /* \"#utility.yul\":18047:18140   */\n      tag_458\n        /* \"#utility.yul\":18136:18139   */\n      dup3\n        /* \"#utility.yul\":18047:18140   */\n      tag_279\n      jump\t// in\n    tag_458:\n        /* \"#utility.yul\":18165:18167   */\n      0x40\n        /* \"#utility.yul\":18160:18163   */\n      dup3\n        /* \"#utility.yul\":18156:18168   */\n      add\n        /* \"#utility.yul\":18149:18168   */\n      swap1\n      pop\n        /* \"#utility.yul\":17808:18174   */\n      swap2\n      swap1\n      pop\n      jump\t// out\n        /* \"#utility.yul\":18180:18599   */\n    tag_213:\n        /* \"#utility.yul\":18346:18350   */\n      0x00\n        /* \"#utility.yul\":18384:18386   */\n      0x20\n        /* \"#utility.yul\":18373:18382   */\n      dup3\n        /* \"#utility.yul\":18369:18387   */\n      add\n        /* \"#utility.yul\":18361:18387   */\n      swap1\n      pop\n        /* \"#utility.yul\":18433:18442   */\n      dup2\n        /* \"#utility.yul\":18427:18431   */\n      dup2\n        /* \"#utility.yul\":18423:18443   */\n      sub\n        /* \"#utility.yul\":18419:18420   */\n      0x00\n        /* \"#utility.yul\":18408:18417   */\n      dup4\n        /* \"#utility.yul\":18404:18421   */\n      add\n        /* \"#utility.yul\":18397:18444   */\n      mstore\n        /* \"#utility.yul\":18461:18592   */\n      tag_460\n        /* \"#utility.yul\":18587:18591   */\n      dup2\n        /* \"#utility.yul\":18461:18592   */\n      tag_280\n      jump\t// in\n    tag_460:\n        /* \"#utility.yul\":18453:18592   */\n      swap1\n      pop\n        /* \"#utility.yul\":18180:18599   */\n      swap2\n      swap1\n      pop\n      jump\t// out\n        /* \"#utility.yul\":18605:18827   */\n    tag_281:\n        /* \"#utility.yul\":18745:18779   */\n      0x45524332303a207472616e7366657220746f20746865207a65726f2061646472\n        /* \"#utility.yul\":18741:18742   */\n      0x00\n        /* \"#utility.yul\":18733:18739   */\n      dup3\n        /* \"#utility.yul\":18729:18743   */\n      add\n        /* \"#utility.yul\":18722:18780   */\n      mstore\n        /* \"#utility.yul\":18814:18819   */\n      0x6573730000000000000000000000000000000000000000000000000000000000\n        /* \"#utility.yul\":18809:18811   */\n      0x20\n        /* \"#utility.yul\":18801:18807   */\n      dup3\n        /* \"#utility.yul\":18797:18812   */\n      add\n        /* \"#utility.yul\":18790:18820   */\n      mstore\n        /* \"#utility.yul\":18605:18827   */\n      pop\n      jump\t// out\n        /* \"#utility.yul\":18833:19199   */\n    tag_282:\n        /* \"#utility.yul\":18975:18978   */\n      0x00\n        /* \"#utility.yul\":18996:19063   */\n      tag_463\n        /* \"#utility.yul\":19060:19062   */\n      0x23\n        /* \"#utility.yul\":19055:19058   */\n      dup4\n        /* \"#utility.yul\":18996:19063   */\n      tag_241\n      jump\t// in\n    tag_463:\n        /* \"#utility.yul\":18989:19063   */\n      swap2\n      pop\n        /* \"#utility.yul\":19072:19165   */\n      tag_464\n        /* \"#utility.yul\":19161:19164   */\n      dup3\n        /* \"#utility.yul\":19072:19165   */\n      tag_281\n      jump\t// in\n    tag_464:\n        /* \"#utility.yul\":19190:19192   */\n      0x40\n        /* \"#utility.yul\":19185:19188   */\n      dup3\n        /* \"#utility.yul\":19181:19193   */\n      add\n        /* \"#utility.yul\":19174:19193   */\n      swap1\n      pop\n        /* \"#utility.yul\":18833:19199   */\n      swap2\n      swap1\n      pop\n      jump\t// out\n        /* \"#utility.yul\":19205:19624   */\n    tag_216:\n        /* \"#utility.yul\":19371:19375   */\n      0x00\n        /* \"#utility.yul\":19409:19411   */\n      0x20\n        /* \"#utility.yul\":19398:19407   */\n      dup3\n        /* \"#utility.yul\":19394:19412   */\n      add\n        /* \"#utility.yul\":19386:19412   */\n      swap1\n      pop\n        /* \"#utility.yul\":19458:19467   */\n      dup2\n        /* \"#utility.yul\":19452:19456   */\n      dup2\n        /* \"#utility.yul\":19448:19468   */\n      sub\n        /* \"#utility.yul\":19444:19445   */\n      0x00\n        /* \"#utility.yul\":19433:19442   */\n      dup4\n        /* \"#utility.yul\":19429:19446   */\n      add\n        /* \"#utility.yul\":19422:19469   */\n      mstore\n        /* \"#utility.yul\":19486:19617   */\n      tag_466\n        /* \"#utility.yul\":19612:19616   */\n      dup2\n        /* \"#utility.yul\":19486:19617   */\n      tag_282\n      jump\t// in\n    tag_466:\n        /* \"#utility.yul\":19478:19617   */\n      swap1\n      pop\n        /* \"#utility.yul\":19205:19624   */\n      swap2\n      swap1\n      pop\n      jump\t// out\n        /* \"#utility.yul\":19630:19855   */\n    tag_283:\n        /* \"#utility.yul\":19770:19804   */\n      0x45524332303a207472616e7366657220616d6f756e7420657863656564732062\n        /* \"#utility.yul\":19766:19767   */\n      0x00\n        /* \"#utility.yul\":19758:19764   */\n      dup3\n        /* \"#utility.yul\":19754:19768   */\n      add\n        /* \"#utility.yul\":19747:19805   */\n      mstore\n        /* \"#utility.yul\":19839:19847   */\n      0x616c616e63650000000000000000000000000000000000000000000000000000\n        /* \"#utility.yul\":19834:19836   */\n      0x20\n        /* \"#utility.yul\":19826:19832   */\n      dup3\n        /* \"#utility.yul\":19822:19837   */\n      add\n        /* \"#utility.yul\":19815:19848   */\n      mstore\n        /* \"#utility.yul\":19630:19855   */\n      pop\n      jump\t// out\n        /* \"#utility.yul\":19861:20227   */\n    tag_284:\n        /* \"#utility.yul\":20003:20006   */\n      0x00\n        /* \"#utility.yul\":20024:20091   */\n      tag_469\n        /* \"#utility.yul\":20088:20090   */\n      0x26\n        /* \"#utility.yul\":20083:20086   */\n      dup4\n        /* \"#utility.yul\":20024:20091   */\n      tag_241\n      jump\t// in\n    tag_469:\n        /* \"#utility.yul\":20017:20091   */\n      swap2\n      pop\n        /* \"#utility.yul\":20100:20193   */\n      tag_470\n        /* \"#utility.yul\":20189:20192   */\n      dup3\n        /* \"#utility.yul\":20100:20193   */\n      tag_283\n      jump\t// in\n    tag_470:\n        /* \"#utility.yul\":20218:20220   */\n      0x40\n        /* \"#utility.yul\":20213:20216   */\n      dup3\n        /* \"#utility.yul\":20209:20221   */\n      add\n        /* \"#utility.yul\":20202:20221   */\n      swap1\n      pop\n        /* \"#utility.yul\":19861:20227   */\n      swap2\n      swap1\n      pop\n      jump\t// out\n        /* \"#utility.yul\":20233:20652   */\n    tag_221:\n        /* \"#utility.yul\":20399:20403   */\n      0x00\n        /* \"#utility.yul\":20437:20439   */\n      0x20\n        /* \"#utility.yul\":20426:20435   */\n      dup3\n        /* \"#utility.yul\":20422:20440   */\n      add\n        /* \"#utility.yul\":20414:20440   */\n      swap1\n      pop\n        /* \"#utility.yul\":20486:20495   */\n      dup2\n        /* \"#utility.yul\":20480:20484   */\n      dup2\n        /* \"#utility.yul\":20476:20496   */\n      sub\n        /* \"#utility.yul\":20472:20473   */\n      0x00\n        /* \"#utility.yul\":20461:20470   */\n      dup4\n        /* \"#utility.yul\":20457:20474   */\n      add\n        /* \"#utility.yul\":20450:20497   */\n      mstore\n        /* \"#utility.yul\":20514:20645   */\n      tag_472\n        /* \"#utility.yul\":20640:20644   */\n      dup2\n        /* \"#utility.yul\":20514:20645   */\n      tag_284\n      jump\t// in\n    tag_472:\n        /* \"#utility.yul\":20506:20645   */\n      swap1\n      pop\n        /* \"#utility.yul\":20233:20652   */\n      swap2\n      swap1\n      pop\n      jump\t// out\n        /* \"#utility.yul\":20658:20839   */\n    tag_285:\n        /* \"#utility.yul\":20798:20831   */\n      0x45524332303a206d696e7420746f20746865207a65726f206164647265737300\n        /* \"#utility.yul\":20794:20795   */\n      0x00\n        /* \"#utility.yul\":20786:20792   */\n      dup3\n        /* \"#utility.yul\":20782:20796   */\n      add\n        /* \"#utility.yul\":20775:20832   */\n      mstore\n        /* \"#utility.yul\":20658:20839   */\n      pop\n      jump\t// out\n        /* \"#utility.yul\":20845:21211   */\n    tag_286:\n        /* \"#utility.yul\":20987:20990   */\n      0x00\n        /* \"#utility.yul\":21008:21075   */\n      tag_475\n        /* \"#utility.yul\":21072:21074   */\n      0x1f\n        /* \"#utility.yul\":21067:21070   */\n      dup4\n        /* \"#utility.yul\":21008:21075   */\n      tag_241\n      jump\t// in\n    tag_475:\n        /* \"#utility.yul\":21001:21075   */\n      swap2\n      pop\n        /* \"#utility.yul\":21084:21177   */\n      tag_476\n        /* \"#utility.yul\":21173:21176   */\n      dup3\n        /* \"#utility.yul\":21084:21177   */\n      tag_285\n      jump\t// in\n    tag_476:\n        /* \"#utility.yul\":21202:21204   */\n      0x20\n        /* \"#utility.yul\":21197:21200   */\n      dup3\n        /* \"#utility.yul\":21193:21205   */\n      add\n        /* \"#utility.yul\":21186:21205   */\n      swap1\n      pop\n        /* \"#utility.yul\":20845:21211   */\n      swap2\n      swap1\n      pop\n      jump\t// out\n        /* \"#utility.yul\":21217:21636   */\n    tag_230:\n        /* \"#utility.yul\":21383:21387   */\n      0x00\n        /* \"#utility.yul\":21421:21423   */\n      0x20\n        /* \"#utility.yul\":21410:21419   */\n      dup3\n        /* \"#utility.yul\":21406:21424   */\n      add\n        /* \"#utility.yul\":21398:21424   */\n      swap1\n      pop\n        /* \"#utility.yul\":21470:21479   */\n      dup2\n        /* \"#utility.yul\":21464:21468   */\n      dup2\n        /* \"#utility.yul\":21460:21480   */\n      sub\n        /* \"#utility.yul\":21456:21457   */\n      0x00\n        /* \"#utility.yul\":21445:21454   */\n      dup4\n        /* \"#utility.yul\":21441:21458   */\n      add\n        /* \"#utility.yul\":21434:21481   */\n      mstore\n        /* \"#utility.yul\":21498:21629   */\n      tag_478\n        /* \"#utility.yul\":21624:21628   */\n      dup2\n        /* \"#utility.yul\":21498:21629   */\n      tag_286\n      jump\t// in\n    tag_478:\n        /* \"#utility.yul\":21490:21629   */\n      swap1\n      pop\n        /* \"#utility.yul\":21217:21636   */\n      swap2\n      swap1\n      pop\n      jump\t// out\n\n    auxdata: 0xa26469706673582212206b5cca47241610b436229aae9ee93bb4a0fad1248db30f3555b10b7fdb3f49b064736f6c634300080c0033\n}\n",
				"bytecode": {
					"linkReferences": {},
					"object": "60806040523480156200001157600080fd5b506040518060400160405280600a81526020017f5a656e79615374616b65000000000000000000000000000000000000000000008152506040518060400160405280600481526020017f5a4e59530000000000000000000000000000000000000000000000000000000081525081600390805190602001906200009692919062000370565b508060049080519060200190620000af92919062000370565b505050620000d2620000c66200011660201b60201c565b6200011e60201b60201c565b6200011033620000e7620001e460201b60201c565b600a620000f59190620005ba565b6103e86200010491906200060b565b620001ed60201b60201c565b620007df565b600033905090565b6000600560009054906101000a900473ffffffffffffffffffffffffffffffffffffffff16905081600560006101000a81548173ffffffffffffffffffffffffffffffffffffffff021916908373ffffffffffffffffffffffffffffffffffffffff1602179055508173ffffffffffffffffffffffffffffffffffffffff168173ffffffffffffffffffffffffffffffffffffffff167f8be0079c531659141344cd1fd0a4f28419497f9722a3daafe3b4186f6b6457e060405160405180910390a35050565b60006012905090565b600073ffffffffffffffffffffffffffffffffffffffff168273ffffffffffffffffffffffffffffffffffffffff16141562000260576040517f08c379a00000000000000000000000000000000000000000000000000000000081526004016200025790620006cd565b60405180910390fd5b62000274600083836200036660201b60201c565b8060026000828254620002889190620006ef565b92505081905550806000808473ffffffffffffffffffffffffffffffffffffffff1673ffffffffffffffffffffffffffffffffffffffff1681526020019081526020016000206000828254620002df9190620006ef565b925050819055508173ffffffffffffffffffffffffffffffffffffffff16600073ffffffffffffffffffffffffffffffffffffffff167fddf252ad1be2c89b69c2b068fc378daa952ba7f163c4a11628f55a4df523b3ef836040516200034691906200075d565b60405180910390a362000362600083836200036b60201b60201c565b5050565b505050565b505050565b8280546200037e90620007a9565b90600052602060002090601f016020900481019282620003a25760008555620003ee565b82601f10620003bd57805160ff1916838001178555620003ee565b82800160010185558215620003ee579182015b82811115620003ed578251825591602001919060010190620003d0565b5b509050620003fd919062000401565b5090565b5b808211156200041c57600081600090555060010162000402565b5090565b7f4e487b7100000000000000000000000000000000000000000000000000000000600052601160045260246000fd5b60008160011c9050919050565b6000808291508390505b6001851115620004ae5780860481111562000486576200048562000420565b5b6001851615620004965780820291505b8081029050620004a6856200044f565b945062000466565b94509492505050565b600082620004c957600190506200059c565b81620004d957600090506200059c565b8160018114620004f25760028114620004fd5762000533565b60019150506200059c565b60ff84111562000512576200051162000420565b5b8360020a9150848211156200052c576200052b62000420565b5b506200059c565b5060208310610133831016604e8410600b84101617156200056d5782820a90508381111562000567576200056662000420565b5b6200059c565b6200057c84848460016200045c565b9250905081840481111562000596576200059562000420565b5b81810290505b9392505050565b6000819050919050565b600060ff82169050919050565b6000620005c782620005a3565b9150620005d483620005ad565b9250620006037fffffffffffffffffffffffffffffffffffffffffffffffffffffffffffffffff8484620004b7565b905092915050565b60006200061882620005a3565b91506200062583620005a3565b9250817fffffffffffffffffffffffffffffffffffffffffffffffffffffffffffffffff048311821515161562000661576200066062000420565b5b828202905092915050565b600082825260208201905092915050565b7f45524332303a206d696e7420746f20746865207a65726f206164647265737300600082015250565b6000620006b5601f836200066c565b9150620006c2826200067d565b602082019050919050565b60006020820190508181036000830152620006e881620006a6565b9050919050565b6000620006fc82620005a3565b91506200070983620005a3565b9250827fffffffffffffffffffffffffffffffffffffffffffffffffffffffffffffffff0382111562000741576200074062000420565b5b828201905092915050565b6200075781620005a3565b82525050565b60006020820190506200077460008301846200074c565b92915050565b7f4e487b7100000000000000000000000000000000000000000000000000000000600052602260045260246000fd5b60006002820490506001821680620007c257607f821691505b60208210811415620007d957620007d86200077a565b5b50919050565b611f0580620007ef6000396000f3fe6080604052600436106101145760003560e01c806370a08231116100a0578063a457c2d711610064578063a457c2d714610396578063a9059cbb146103d3578063b2bdfa7b14610410578063dd62ed3e1461043b578063f2fde38b1461047857610114565b806370a08231146102d0578063715018a61461030d5780637e72fb52146103245780638da5cb5b1461034057806395d89b411461036b57610114565b806323b872dd116100e757806323b872dd146101d7578063313ce5671461021457806335789c8b1461023f578063395093511461026a5780634be21e33146102a757610114565b8063046e2edb1461011957806306fdde0314610144578063095ea7b31461016f57806318160ddd146101ac575b600080fd5b34801561012557600080fd5b5061012e6104a1565b60405161013b91906112b4565b60405180910390f35b34801561015057600080fd5b506101596104a7565b6040516101669190611368565b60405180910390f35b34801561017b57600080fd5b5061019660048036038101906101919190611419565b610539565b6040516101a39190611474565b60405180910390f35b3480156101b857600080fd5b506101c161055c565b6040516101ce91906112b4565b60405180910390f35b3480156101e357600080fd5b506101fe60048036038101906101f9919061148f565b610566565b60405161020b9190611474565b60405180910390f35b34801561022057600080fd5b50610229610595565b60405161023691906114fe565b60405180910390f35b34801561024b57600080fd5b5061025461059e565b60405161026191906112b4565b60405180910390f35b34801561027657600080fd5b50610291600480360381019061028c9190611419565b6105a4565b60405161029e9190611474565b60405180910390f35b3480156102b357600080fd5b506102ce60048036038101906102c99190611519565b61064e565b005b3480156102dc57600080fd5b506102f760048036038101906102f29190611546565b6106e8565b60405161030491906112b4565b60405180910390f35b34801561031957600080fd5b50610322610730565b005b61033e60048036038101906103399190611546565b6107b8565b005b34801561034c57600080fd5b5061035561081d565b6040516103629190611582565b60405180910390f35b34801561037757600080fd5b50610380610847565b60405161038d9190611368565b60405180910390f35b3480156103a257600080fd5b506103bd60048036038101906103b89190611419565b6108d9565b6040516103ca9190611474565b60405180910390f35b3480156103df57600080fd5b506103fa60048036038101906103f59190611419565b6109c3565b6040516104079190611474565b60405180910390f35b34801561041c57600080fd5b506104256109e6565b6040516104329190611582565b60405180910390f35b34801561044757600080fd5b50610462600480360381019061045d919061159d565b610a0c565b60405161046f91906112b4565b60405180910390f35b34801561048457600080fd5b5061049f600480360381019061049a9190611546565b610a93565b005b60085481565b6060600380546104b69061160c565b80601f01602080910402602001604051908101604052809291908181526020018280546104e29061160c565b801561052f5780601f106105045761010080835404028352916020019161052f565b820191906000526020600020905b81548152906001019060200180831161051257829003601f168201915b5050505050905090565b600080610544610b8b565b9050610551818585610b93565b600191505092915050565b6000600254905090565b600080610571610b8b565b905061057e858285610d5e565b610589858585610dea565b60019150509392505050565b60006012905090565b60075481565b6000806105af610b8b565b9050610643818585600160008673ffffffffffffffffffffffffffffffffffffffff1673ffffffffffffffffffffffffffffffffffffffff16815260200190815260200160002060008973ffffffffffffffffffffffffffffffffffffffff1673ffffffffffffffffffffffffffffffffffffffff1681526020019081526020016000205461063e919061166d565b610b93565b600191505092915050565b600660009054906101000a900473ffffffffffffffffffffffffffffffffffffffff1673ffffffffffffffffffffffffffffffffffffffff163373ffffffffffffffffffffffffffffffffffffffff16146106de576040517f08c379a00000000000000000000000000000000000000000000000000000000081526004016106d590611735565b60405180910390fd5b8060078190555050565b60008060008373ffffffffffffffffffffffffffffffffffffffff1673ffffffffffffffffffffffffffffffffffffffff168152602001908152602001600020549050919050565b610738610b8b565b73ffffffffffffffffffffffffffffffffffffffff1661075661081d565b73ffffffffffffffffffffffffffffffffffffffff16146107ac576040517f08c379a00000000000000000000000000000000000000000000000000000000081526004016107a3906117a1565b60405180910390fd5b6107b6600061106b565b565b6107c0610595565b600a6107cc91906118f4565b6007546107d9919061193f565b60088190555060006107e9610595565b600a6107f591906118f4565b60085434610803919061193f565b61080d91906119c8565b90506108198282611131565b5050565b6000600560009054906101000a900473ffffffffffffffffffffffffffffffffffffffff16905090565b6060600480546108569061160c565b80601f01602080910402602001604051908101604052809291908181526020018280546108829061160c565b80156108cf5780601f106108a4576101008083540402835291602001916108cf565b820191906000526020600020905b8154815290600101906020018083116108b257829003601f168201915b5050505050905090565b6000806108e4610b8b565b90506000600160008373ffffffffffffffffffffffffffffffffffffffff1673ffffffffffffffffffffffffffffffffffffffff16815260200190815260200160002060008673ffffffffffffffffffffffffffffffffffffffff1673ffffffffffffffffffffffffffffffffffffffff168152602001908152602001600020549050838110156109aa576040517f08c379a00000000000000000000000000000000000000000000000000000000081526004016109a190611a6b565b60405180910390fd5b6109b78286868403610b93565b60019250505092915050565b6000806109ce610b8b565b90506109db818585610dea565b600191505092915050565b600660009054906101000a900473ffffffffffffffffffffffffffffffffffffffff1681565b6000600160008473ffffffffffffffffffffffffffffffffffffffff1673ffffffffffffffffffffffffffffffffffffffff16815260200190815260200160002060008373ffffffffffffffffffffffffffffffffffffffff1673ffffffffffffffffffffffffffffffffffffffff16815260200190815260200160002054905092915050565b610a9b610b8b565b73ffffffffffffffffffffffffffffffffffffffff16610ab961081d565b73ffffffffffffffffffffffffffffffffffffffff1614610b0f576040517f08c379a0000000000000000000000000000000000000000000000000000000008152600401610b06906117a1565b60405180910390fd5b600073ffffffffffffffffffffffffffffffffffffffff168173ffffffffffffffffffffffffffffffffffffffff161415610b7f576040517f08c379a0000000000000000000000000000000000000000000000000000000008152600401610b7690611afd565b60405180910390fd5b610b888161106b565b50565b600033905090565b600073ffffffffffffffffffffffffffffffffffffffff168373ffffffffffffffffffffffffffffffffffffffff161415610c03576040517f08c379a0000000000000000000000000000000000000000000000000000000008152600401610bfa90611b8f565b60405180910390fd5b600073ffffffffffffffffffffffffffffffffffffffff168273ffffffffffffffffffffffffffffffffffffffff161415610c73576040517f08c379a0000000000000000000000000000000000000000000000000000000008152600401610c6a90611c21565b60405180910390fd5b80600160008573ffffffffffffffffffffffffffffffffffffffff1673ffffffffffffffffffffffffffffffffffffffff16815260200190815260200160002060008473ffffffffffffffffffffffffffffffffffffffff1673ffffffffffffffffffffffffffffffffffffffff168152602001908152602001600020819055508173ffffffffffffffffffffffffffffffffffffffff168373ffffffffffffffffffffffffffffffffffffffff167f8c5be1e5ebec7d5bd14f71427d1e84f3dd0314c0f7b2291e5b200ac8c7c3b92583604051610d5191906112b4565b60405180910390a3505050565b6000610d6a8484610a0c565b90507fffffffffffffffffffffffffffffffffffffffffffffffffffffffffffffffff8114610de45781811015610dd6576040517f08c379a0000000000000000000000000000000000000000000000000000000008152600401610dcd90611c8d565b60405180910390fd5b610de38484848403610b93565b5b50505050565b600073ffffffffffffffffffffffffffffffffffffffff168373ffffffffffffffffffffffffffffffffffffffff161415610e5a576040517f08c379a0000000000000000000000000000000000000000000000000000000008152600401610e5190611d1f565b60405180910390fd5b600073ffffffffffffffffffffffffffffffffffffffff168273ffffffffffffffffffffffffffffffffffffffff161415610eca576040517f08c379a0000000000000000000000000000000000000000000000000000000008152600401610ec190611db1565b60405180910390fd5b610ed5838383611291565b60008060008573ffffffffffffffffffffffffffffffffffffffff1673ffffffffffffffffffffffffffffffffffffffff16815260200190815260200160002054905081811015610f5b576040517f08c379a0000000000000000000000000000000000000000000000000000000008152600401610f5290611e43565b60405180910390fd5b8181036000808673ffffffffffffffffffffffffffffffffffffffff1673ffffffffffffffffffffffffffffffffffffffff16815260200190815260200160002081905550816000808573ffffffffffffffffffffffffffffffffffffffff1673ffffffffffffffffffffffffffffffffffffffff1681526020019081526020016000206000828254610fee919061166d565b925050819055508273ffffffffffffffffffffffffffffffffffffffff168473ffffffffffffffffffffffffffffffffffffffff167fddf252ad1be2c89b69c2b068fc378daa952ba7f163c4a11628f55a4df523b3ef8460405161105291906112b4565b60405180910390a3611065848484611296565b50505050565b6000600560009054906101000a900473ffffffffffffffffffffffffffffffffffffffff16905081600560006101000a81548173ffffffffffffffffffffffffffffffffffffffff021916908373ffffffffffffffffffffffffffffffffffffffff1602179055508173ffffffffffffffffffffffffffffffffffffffff168173ffffffffffffffffffffffffffffffffffffffff167f8be0079c531659141344cd1fd0a4f28419497f9722a3daafe3b4186f6b6457e060405160405180910390a35050565b600073ffffffffffffffffffffffffffffffffffffffff168273ffffffffffffffffffffffffffffffffffffffff1614156111a1576040517f08c379a000000000000000000000000000000000000000000000000000000000815260040161119890611eaf565b60405180910390fd5b6111ad60008383611291565b80600260008282546111bf919061166d565b92505081905550806000808473ffffffffffffffffffffffffffffffffffffffff1673ffffffffffffffffffffffffffffffffffffffff1681526020019081526020016000206000828254611214919061166d565b925050819055508173ffffffffffffffffffffffffffffffffffffffff16600073ffffffffffffffffffffffffffffffffffffffff167fddf252ad1be2c89b69c2b068fc378daa952ba7f163c4a11628f55a4df523b3ef8360405161127991906112b4565b60405180910390a361128d60008383611296565b5050565b505050565b505050565b6000819050919050565b6112ae8161129b565b82525050565b60006020820190506112c960008301846112a5565b92915050565b600081519050919050565b600082825260208201905092915050565b60005b838110156113095780820151818401526020810190506112ee565b83811115611318576000848401525b50505050565b6000601f19601f8301169050919050565b600061133a826112cf565b61134481856112da565b93506113548185602086016112eb565b61135d8161131e565b840191505092915050565b60006020820190508181036000830152611382818461132f565b905092915050565b600080fd5b600073ffffffffffffffffffffffffffffffffffffffff82169050919050565b60006113ba8261138f565b9050919050565b6113ca816113af565b81146113d557600080fd5b50565b6000813590506113e7816113c1565b92915050565b6113f68161129b565b811461140157600080fd5b50565b600081359050611413816113ed565b92915050565b600080604083850312156114305761142f61138a565b5b600061143e858286016113d8565b925050602061144f85828601611404565b9150509250929050565b60008115159050919050565b61146e81611459565b82525050565b60006020820190506114896000830184611465565b92915050565b6000806000606084860312156114a8576114a761138a565b5b60006114b6868287016113d8565b93505060206114c7868287016113d8565b92505060406114d886828701611404565b9150509250925092565b600060ff82169050919050565b6114f8816114e2565b82525050565b600060208201905061151360008301846114ef565b92915050565b60006020828403121561152f5761152e61138a565b5b600061153d84828501611404565b91505092915050565b60006020828403121561155c5761155b61138a565b5b600061156a848285016113d8565b91505092915050565b61157c816113af565b82525050565b60006020820190506115976000830184611573565b92915050565b600080604083850312156115b4576115b361138a565b5b60006115c2858286016113d8565b92505060206115d3858286016113d8565b9150509250929050565b7f4e487b7100000000000000000000000000000000000000000000000000000000600052602260045260246000fd5b6000600282049050600182168061162457607f821691505b60208210811415611638576116376115dd565b5b50919050565b7f4e487b7100000000000000000000000000000000000000000000000000000000600052601160045260246000fd5b60006116788261129b565b91506116838361129b565b9250827fffffffffffffffffffffffffffffffffffffffffffffffffffffffffffffffff038211156116b8576116b761163e565b5b828201905092915050565b7f4f6e6c7920746865204f776e65722063616e207365742074686520707269636560008201527f206f662074686520746f6b656e00000000000000000000000000000000000000602082015250565b600061171f602d836112da565b915061172a826116c3565b604082019050919050565b6000602082019050818103600083015261174e81611712565b9050919050565b7f4f776e61626c653a2063616c6c6572206973206e6f7420746865206f776e6572600082015250565b600061178b6020836112da565b915061179682611755565b602082019050919050565b600060208201905081810360008301526117ba8161177e565b9050919050565b60008160011c9050919050565b6000808291508390505b6001851115611818578086048111156117f4576117f361163e565b5b60018516156118035780820291505b8081029050611811856117c1565b94506117d8565b94509492505050565b60008261183157600190506118ed565b8161183f57600090506118ed565b8160018114611855576002811461185f5761188e565b60019150506118ed565b60ff8411156118715761187061163e565b5b8360020a9150848211156118885761188761163e565b5b506118ed565b5060208310610133831016604e8410600b84101617156118c35782820a9050838111156118be576118bd61163e565b5b6118ed565b6118d084848460016117ce565b925090508184048111156118e7576118e661163e565b5b81810290505b9392505050565b60006118ff8261129b565b915061190a836114e2565b92506119377fffffffffffffffffffffffffffffffffffffffffffffffffffffffffffffffff8484611821565b905092915050565b600061194a8261129b565b91506119558361129b565b9250817fffffffffffffffffffffffffffffffffffffffffffffffffffffffffffffffff048311821515161561198e5761198d61163e565b5b828202905092915050565b7f4e487b7100000000000000000000000000000000000000000000000000000000600052601260045260246000fd5b60006119d38261129b565b91506119de8361129b565b9250826119ee576119ed611999565b5b828204905092915050565b7f45524332303a2064656372656173656420616c6c6f77616e63652062656c6f7760008201527f207a65726f000000000000000000000000000000000000000000000000000000602082015250565b6000611a556025836112da565b9150611a60826119f9565b604082019050919050565b60006020820190508181036000830152611a8481611a48565b9050919050565b7f4f776e61626c653a206e6577206f776e657220697320746865207a65726f206160008201527f6464726573730000000000000000000000000000000000000000000000000000602082015250565b6000611ae76026836112da565b9150611af282611a8b565b604082019050919050565b60006020820190508181036000830152611b1681611ada565b9050919050565b7f45524332303a20617070726f76652066726f6d20746865207a65726f2061646460008201527f7265737300000000000000000000000000000000000000000000000000000000602082015250565b6000611b796024836112da565b9150611b8482611b1d565b604082019050919050565b60006020820190508181036000830152611ba881611b6c565b9050919050565b7f45524332303a20617070726f766520746f20746865207a65726f20616464726560008201527f7373000000000000000000000000000000000000000000000000000000000000602082015250565b6000611c0b6022836112da565b9150611c1682611baf565b604082019050919050565b60006020820190508181036000830152611c3a81611bfe565b9050919050565b7f45524332303a20696e73756666696369656e7420616c6c6f77616e6365000000600082015250565b6000611c77601d836112da565b9150611c8282611c41565b602082019050919050565b60006020820190508181036000830152611ca681611c6a565b9050919050565b7f45524332303a207472616e736665722066726f6d20746865207a65726f20616460008201527f6472657373000000000000000000000000000000000000000000000000000000602082015250565b6000611d096025836112da565b9150611d1482611cad565b604082019050919050565b60006020820190508181036000830152611d3881611cfc565b9050919050565b7f45524332303a207472616e7366657220746f20746865207a65726f206164647260008201527f6573730000000000000000000000000000000000000000000000000000000000602082015250565b6000611d9b6023836112da565b9150611da682611d3f565b604082019050919050565b60006020820190508181036000830152611dca81611d8e565b9050919050565b7f45524332303a207472616e7366657220616d6f756e742065786365656473206260008201527f616c616e63650000000000000000000000000000000000000000000000000000602082015250565b6000611e2d6026836112da565b9150611e3882611dd1565b604082019050919050565b60006020820190508181036000830152611e5c81611e20565b9050919050565b7f45524332303a206d696e7420746f20746865207a65726f206164647265737300600082015250565b6000611e99601f836112da565b9150611ea482611e63565b602082019050919050565b60006020820190508181036000830152611ec881611e8c565b905091905056fea26469706673582212206b5cca47241610b436229aae9ee93bb4a0fad1248db30f3555b10b7fdb3f49b064736f6c634300080c0033",
					"opcodes": "PUSH1 0x80 PUSH1 0x40 MSTORE CALLVALUE DUP1 ISZERO PUSH3 0x11 JUMPI PUSH1 0x0 DUP1 REVERT JUMPDEST POP PUSH1 0x40 MLOAD DUP1 PUSH1 0x40 ADD PUSH1 0x40 MSTORE DUP1 PUSH1 0xA DUP2 MSTORE PUSH1 0x20 ADD PUSH32 0x5A656E79615374616B6500000000000000000000000000000000000000000000 DUP2 MSTORE POP PUSH1 0x40 MLOAD DUP1 PUSH1 0x40 ADD PUSH1 0x40 MSTORE DUP1 PUSH1 0x4 DUP2 MSTORE PUSH1 0x20 ADD PUSH32 0x5A4E595300000000000000000000000000000000000000000000000000000000 DUP2 MSTORE POP DUP2 PUSH1 0x3 SWAP1 DUP1 MLOAD SWAP1 PUSH1 0x20 ADD SWAP1 PUSH3 0x96 SWAP3 SWAP2 SWAP1 PUSH3 0x370 JUMP JUMPDEST POP DUP1 PUSH1 0x4 SWAP1 DUP1 MLOAD SWAP1 PUSH1 0x20 ADD SWAP1 PUSH3 0xAF SWAP3 SWAP2 SWAP1 PUSH3 0x370 JUMP JUMPDEST POP POP POP PUSH3 0xD2 PUSH3 0xC6 PUSH3 0x116 PUSH1 0x20 SHL PUSH1 0x20 SHR JUMP JUMPDEST PUSH3 0x11E PUSH1 0x20 SHL PUSH1 0x20 SHR JUMP JUMPDEST PUSH3 0x110 CALLER PUSH3 0xE7 PUSH3 0x1E4 PUSH1 0x20 SHL PUSH1 0x20 SHR JUMP JUMPDEST PUSH1 0xA PUSH3 0xF5 SWAP2 SWAP1 PUSH3 0x5BA JUMP JUMPDEST PUSH2 0x3E8 PUSH3 0x104 SWAP2 SWAP1 PUSH3 0x60B JUMP JUMPDEST PUSH3 0x1ED PUSH1 0x20 SHL PUSH1 0x20 SHR JUMP JUMPDEST PUSH3 0x7DF JUMP JUMPDEST PUSH1 0x0 CALLER SWAP1 POP SWAP1 JUMP JUMPDEST PUSH1 0x0 PUSH1 0x5 PUSH1 0x0 SWAP1 SLOAD SWAP1 PUSH2 0x100 EXP SWAP1 DIV PUSH20 0xFFFFFFFFFFFFFFFFFFFFFFFFFFFFFFFFFFFFFFFF AND SWAP1 POP DUP2 PUSH1 0x5 PUSH1 0x0 PUSH2 0x100 EXP DUP2 SLOAD DUP2 PUSH20 0xFFFFFFFFFFFFFFFFFFFFFFFFFFFFFFFFFFFFFFFF MUL NOT AND SWAP1 DUP4 PUSH20 0xFFFFFFFFFFFFFFFFFFFFFFFFFFFFFFFFFFFFFFFF AND MUL OR SWAP1 SSTORE POP DUP2 PUSH20 0xFFFFFFFFFFFFFFFFFFFFFFFFFFFFFFFFFFFFFFFF AND DUP2 PUSH20 0xFFFFFFFFFFFFFFFFFFFFFFFFFFFFFFFFFFFFFFFF AND PUSH32 0x8BE0079C531659141344CD1FD0A4F28419497F9722A3DAAFE3B4186F6B6457E0 PUSH1 0x40 MLOAD PUSH1 0x40 MLOAD DUP1 SWAP2 SUB SWAP1 LOG3 POP POP JUMP JUMPDEST PUSH1 0x0 PUSH1 0x12 SWAP1 POP SWAP1 JUMP JUMPDEST PUSH1 0x0 PUSH20 0xFFFFFFFFFFFFFFFFFFFFFFFFFFFFFFFFFFFFFFFF AND DUP3 PUSH20 0xFFFFFFFFFFFFFFFFFFFFFFFFFFFFFFFFFFFFFFFF AND EQ ISZERO PUSH3 0x260 JUMPI PUSH1 0x40 MLOAD PUSH32 0x8C379A000000000000000000000000000000000000000000000000000000000 DUP2 MSTORE PUSH1 0x4 ADD PUSH3 0x257 SWAP1 PUSH3 0x6CD JUMP JUMPDEST PUSH1 0x40 MLOAD DUP1 SWAP2 SUB SWAP1 REVERT JUMPDEST PUSH3 0x274 PUSH1 0x0 DUP4 DUP4 PUSH3 0x366 PUSH1 0x20 SHL PUSH1 0x20 SHR JUMP JUMPDEST DUP1 PUSH1 0x2 PUSH1 0x0 DUP3 DUP3 SLOAD PUSH3 0x288 SWAP2 SWAP1 PUSH3 0x6EF JUMP JUMPDEST SWAP3 POP POP DUP2 SWAP1 SSTORE POP DUP1 PUSH1 0x0 DUP1 DUP5 PUSH20 0xFFFFFFFFFFFFFFFFFFFFFFFFFFFFFFFFFFFFFFFF AND PUSH20 0xFFFFFFFFFFFFFFFFFFFFFFFFFFFFFFFFFFFFFFFF AND DUP2 MSTORE PUSH1 0x20 ADD SWAP1 DUP2 MSTORE PUSH1 0x20 ADD PUSH1 0x0 KECCAK256 PUSH1 0x0 DUP3 DUP3 SLOAD PUSH3 0x2DF SWAP2 SWAP1 PUSH3 0x6EF JUMP JUMPDEST SWAP3 POP POP DUP2 SWAP1 SSTORE POP DUP2 PUSH20 0xFFFFFFFFFFFFFFFFFFFFFFFFFFFFFFFFFFFFFFFF AND PUSH1 0x0 PUSH20 0xFFFFFFFFFFFFFFFFFFFFFFFFFFFFFFFFFFFFFFFF AND PUSH32 0xDDF252AD1BE2C89B69C2B068FC378DAA952BA7F163C4A11628F55A4DF523B3EF DUP4 PUSH1 0x40 MLOAD PUSH3 0x346 SWAP2 SWAP1 PUSH3 0x75D JUMP JUMPDEST PUSH1 0x40 MLOAD DUP1 SWAP2 SUB SWAP1 LOG3 PUSH3 0x362 PUSH1 0x0 DUP4 DUP4 PUSH3 0x36B PUSH1 0x20 SHL PUSH1 0x20 SHR JUMP JUMPDEST POP POP JUMP JUMPDEST POP POP POP JUMP JUMPDEST POP POP POP JUMP JUMPDEST DUP3 DUP1 SLOAD PUSH3 0x37E SWAP1 PUSH3 0x7A9 JUMP JUMPDEST SWAP1 PUSH1 0x0 MSTORE PUSH1 0x20 PUSH1 0x0 KECCAK256 SWAP1 PUSH1 0x1F ADD PUSH1 0x20 SWAP1 DIV DUP2 ADD SWAP3 DUP3 PUSH3 0x3A2 JUMPI PUSH1 0x0 DUP6 SSTORE PUSH3 0x3EE JUMP JUMPDEST DUP3 PUSH1 0x1F LT PUSH3 0x3BD JUMPI DUP1 MLOAD PUSH1 0xFF NOT AND DUP4 DUP1 ADD OR DUP6 SSTORE PUSH3 0x3EE JUMP JUMPDEST DUP3 DUP1 ADD PUSH1 0x1 ADD DUP6 SSTORE DUP3 ISZERO PUSH3 0x3EE JUMPI SWAP2 DUP3 ADD JUMPDEST DUP3 DUP2 GT ISZERO PUSH3 0x3ED JUMPI DUP3 MLOAD DUP3 SSTORE SWAP2 PUSH1 0x20 ADD SWAP2 SWAP1 PUSH1 0x1 ADD SWAP1 PUSH3 0x3D0 JUMP JUMPDEST JUMPDEST POP SWAP1 POP PUSH3 0x3FD SWAP2 SWAP1 PUSH3 0x401 JUMP JUMPDEST POP SWAP1 JUMP JUMPDEST JUMPDEST DUP1 DUP3 GT ISZERO PUSH3 0x41C JUMPI PUSH1 0x0 DUP2 PUSH1 0x0 SWAP1 SSTORE POP PUSH1 0x1 ADD PUSH3 0x402 JUMP JUMPDEST POP SWAP1 JUMP JUMPDEST PUSH32 0x4E487B7100000000000000000000000000000000000000000000000000000000 PUSH1 0x0 MSTORE PUSH1 0x11 PUSH1 0x4 MSTORE PUSH1 0x24 PUSH1 0x0 REVERT JUMPDEST PUSH1 0x0 DUP2 PUSH1 0x1 SHR SWAP1 POP SWAP2 SWAP1 POP JUMP JUMPDEST PUSH1 0x0 DUP1 DUP3 SWAP2 POP DUP4 SWAP1 POP JUMPDEST PUSH1 0x1 DUP6 GT ISZERO PUSH3 0x4AE JUMPI DUP1 DUP7 DIV DUP2 GT ISZERO PUSH3 0x486 JUMPI PUSH3 0x485 PUSH3 0x420 JUMP JUMPDEST JUMPDEST PUSH1 0x1 DUP6 AND ISZERO PUSH3 0x496 JUMPI DUP1 DUP3 MUL SWAP2 POP JUMPDEST DUP1 DUP2 MUL SWAP1 POP PUSH3 0x4A6 DUP6 PUSH3 0x44F JUMP JUMPDEST SWAP5 POP PUSH3 0x466 JUMP JUMPDEST SWAP5 POP SWAP5 SWAP3 POP POP POP JUMP JUMPDEST PUSH1 0x0 DUP3 PUSH3 0x4C9 JUMPI PUSH1 0x1 SWAP1 POP PUSH3 0x59C JUMP JUMPDEST DUP2 PUSH3 0x4D9 JUMPI PUSH1 0x0 SWAP1 POP PUSH3 0x59C JUMP JUMPDEST DUP2 PUSH1 0x1 DUP2 EQ PUSH3 0x4F2 JUMPI PUSH1 0x2 DUP2 EQ PUSH3 0x4FD JUMPI PUSH3 0x533 JUMP JUMPDEST PUSH1 0x1 SWAP2 POP POP PUSH3 0x59C JUMP JUMPDEST PUSH1 0xFF DUP5 GT ISZERO PUSH3 0x512 JUMPI PUSH3 0x511 PUSH3 0x420 JUMP JUMPDEST JUMPDEST DUP4 PUSH1 0x2 EXP SWAP2 POP DUP5 DUP3 GT ISZERO PUSH3 0x52C JUMPI PUSH3 0x52B PUSH3 0x420 JUMP JUMPDEST JUMPDEST POP PUSH3 0x59C JUMP JUMPDEST POP PUSH1 0x20 DUP4 LT PUSH2 0x133 DUP4 LT AND PUSH1 0x4E DUP5 LT PUSH1 0xB DUP5 LT AND OR ISZERO PUSH3 0x56D JUMPI DUP3 DUP3 EXP SWAP1 POP DUP4 DUP2 GT ISZERO PUSH3 0x567 JUMPI PUSH3 0x566 PUSH3 0x420 JUMP JUMPDEST JUMPDEST PUSH3 0x59C JUMP JUMPDEST PUSH3 0x57C DUP5 DUP5 DUP5 PUSH1 0x1 PUSH3 0x45C JUMP JUMPDEST SWAP3 POP SWAP1 POP DUP2 DUP5 DIV DUP2 GT ISZERO PUSH3 0x596 JUMPI PUSH3 0x595 PUSH3 0x420 JUMP JUMPDEST JUMPDEST DUP2 DUP2 MUL SWAP1 POP JUMPDEST SWAP4 SWAP3 POP POP POP JUMP JUMPDEST PUSH1 0x0 DUP2 SWAP1 POP SWAP2 SWAP1 POP JUMP JUMPDEST PUSH1 0x0 PUSH1 0xFF DUP3 AND SWAP1 POP SWAP2 SWAP1 POP JUMP JUMPDEST PUSH1 0x0 PUSH3 0x5C7 DUP3 PUSH3 0x5A3 JUMP JUMPDEST SWAP2 POP PUSH3 0x5D4 DUP4 PUSH3 0x5AD JUMP JUMPDEST SWAP3 POP PUSH3 0x603 PUSH32 0xFFFFFFFFFFFFFFFFFFFFFFFFFFFFFFFFFFFFFFFFFFFFFFFFFFFFFFFFFFFFFFFF DUP5 DUP5 PUSH3 0x4B7 JUMP JUMPDEST SWAP1 POP SWAP3 SWAP2 POP POP JUMP JUMPDEST PUSH1 0x0 PUSH3 0x618 DUP3 PUSH3 0x5A3 JUMP JUMPDEST SWAP2 POP PUSH3 0x625 DUP4 PUSH3 0x5A3 JUMP JUMPDEST SWAP3 POP DUP2 PUSH32 0xFFFFFFFFFFFFFFFFFFFFFFFFFFFFFFFFFFFFFFFFFFFFFFFFFFFFFFFFFFFFFFFF DIV DUP4 GT DUP3 ISZERO ISZERO AND ISZERO PUSH3 0x661 JUMPI PUSH3 0x660 PUSH3 0x420 JUMP JUMPDEST JUMPDEST DUP3 DUP3 MUL SWAP1 POP SWAP3 SWAP2 POP POP JUMP JUMPDEST PUSH1 0x0 DUP3 DUP3 MSTORE PUSH1 0x20 DUP3 ADD SWAP1 POP SWAP3 SWAP2 POP POP JUMP JUMPDEST PUSH32 0x45524332303A206D696E7420746F20746865207A65726F206164647265737300 PUSH1 0x0 DUP3 ADD MSTORE POP JUMP JUMPDEST PUSH1 0x0 PUSH3 0x6B5 PUSH1 0x1F DUP4 PUSH3 0x66C JUMP JUMPDEST SWAP2 POP PUSH3 0x6C2 DUP3 PUSH3 0x67D JUMP JUMPDEST PUSH1 0x20 DUP3 ADD SWAP1 POP SWAP2 SWAP1 POP JUMP JUMPDEST PUSH1 0x0 PUSH1 0x20 DUP3 ADD SWAP1 POP DUP2 DUP2 SUB PUSH1 0x0 DUP4 ADD MSTORE PUSH3 0x6E8 DUP2 PUSH3 0x6A6 JUMP JUMPDEST SWAP1 POP SWAP2 SWAP1 POP JUMP JUMPDEST PUSH1 0x0 PUSH3 0x6FC DUP3 PUSH3 0x5A3 JUMP JUMPDEST SWAP2 POP PUSH3 0x709 DUP4 PUSH3 0x5A3 JUMP JUMPDEST SWAP3 POP DUP3 PUSH32 0xFFFFFFFFFFFFFFFFFFFFFFFFFFFFFFFFFFFFFFFFFFFFFFFFFFFFFFFFFFFFFFFF SUB DUP3 GT ISZERO PUSH3 0x741 JUMPI PUSH3 0x740 PUSH3 0x420 JUMP JUMPDEST JUMPDEST DUP3 DUP3 ADD SWAP1 POP SWAP3 SWAP2 POP POP JUMP JUMPDEST PUSH3 0x757 DUP2 PUSH3 0x5A3 JUMP JUMPDEST DUP3 MSTORE POP POP JUMP JUMPDEST PUSH1 0x0 PUSH1 0x20 DUP3 ADD SWAP1 POP PUSH3 0x774 PUSH1 0x0 DUP4 ADD DUP5 PUSH3 0x74C JUMP JUMPDEST SWAP3 SWAP2 POP POP JUMP JUMPDEST PUSH32 0x4E487B7100000000000000000000000000000000000000000000000000000000 PUSH1 0x0 MSTORE PUSH1 0x22 PUSH1 0x4 MSTORE PUSH1 0x24 PUSH1 0x0 REVERT JUMPDEST PUSH1 0x0 PUSH1 0x2 DUP3 DIV SWAP1 POP PUSH1 0x1 DUP3 AND DUP1 PUSH3 0x7C2 JUMPI PUSH1 0x7F DUP3 AND SWAP2 POP JUMPDEST PUSH1 0x20 DUP3 LT DUP2 EQ ISZERO PUSH3 0x7D9 JUMPI PUSH3 0x7D8 PUSH3 0x77A JUMP JUMPDEST JUMPDEST POP SWAP2 SWAP1 POP JUMP JUMPDEST PUSH2 0x1F05 DUP1 PUSH3 0x7EF PUSH1 0x0 CODECOPY PUSH1 0x0 RETURN INVALID PUSH1 0x80 PUSH1 0x40 MSTORE PUSH1 0x4 CALLDATASIZE LT PUSH2 0x114 JUMPI PUSH1 0x0 CALLDATALOAD PUSH1 0xE0 SHR DUP1 PUSH4 0x70A08231 GT PUSH2 0xA0 JUMPI DUP1 PUSH4 0xA457C2D7 GT PUSH2 0x64 JUMPI DUP1 PUSH4 0xA457C2D7 EQ PUSH2 0x396 JUMPI DUP1 PUSH4 0xA9059CBB EQ PUSH2 0x3D3 JUMPI DUP1 PUSH4 0xB2BDFA7B EQ PUSH2 0x410 JUMPI DUP1 PUSH4 0xDD62ED3E EQ PUSH2 0x43B JUMPI DUP1 PUSH4 0xF2FDE38B EQ PUSH2 0x478 JUMPI PUSH2 0x114 JUMP JUMPDEST DUP1 PUSH4 0x70A08231 EQ PUSH2 0x2D0 JUMPI DUP1 PUSH4 0x715018A6 EQ PUSH2 0x30D JUMPI DUP1 PUSH4 0x7E72FB52 EQ PUSH2 0x324 JUMPI DUP1 PUSH4 0x8DA5CB5B EQ PUSH2 0x340 JUMPI DUP1 PUSH4 0x95D89B41 EQ PUSH2 0x36B JUMPI PUSH2 0x114 JUMP JUMPDEST DUP1 PUSH4 0x23B872DD GT PUSH2 0xE7 JUMPI DUP1 PUSH4 0x23B872DD EQ PUSH2 0x1D7 JUMPI DUP1 PUSH4 0x313CE567 EQ PUSH2 0x214 JUMPI DUP1 PUSH4 0x35789C8B EQ PUSH2 0x23F JUMPI DUP1 PUSH4 0x39509351 EQ PUSH2 0x26A JUMPI DUP1 PUSH4 0x4BE21E33 EQ PUSH2 0x2A7 JUMPI PUSH2 0x114 JUMP JUMPDEST DUP1 PUSH4 0x46E2EDB EQ PUSH2 0x119 JUMPI DUP1 PUSH4 0x6FDDE03 EQ PUSH2 0x144 JUMPI DUP1 PUSH4 0x95EA7B3 EQ PUSH2 0x16F JUMPI DUP1 PUSH4 0x18160DDD EQ PUSH2 0x1AC JUMPI JUMPDEST PUSH1 0x0 DUP1 REVERT JUMPDEST CALLVALUE DUP1 ISZERO PUSH2 0x125 JUMPI PUSH1 0x0 DUP1 REVERT JUMPDEST POP PUSH2 0x12E PUSH2 0x4A1 JUMP JUMPDEST PUSH1 0x40 MLOAD PUSH2 0x13B SWAP2 SWAP1 PUSH2 0x12B4 JUMP JUMPDEST PUSH1 0x40 MLOAD DUP1 SWAP2 SUB SWAP1 RETURN JUMPDEST CALLVALUE DUP1 ISZERO PUSH2 0x150 JUMPI PUSH1 0x0 DUP1 REVERT JUMPDEST POP PUSH2 0x159 PUSH2 0x4A7 JUMP JUMPDEST PUSH1 0x40 MLOAD PUSH2 0x166 SWAP2 SWAP1 PUSH2 0x1368 JUMP JUMPDEST PUSH1 0x40 MLOAD DUP1 SWAP2 SUB SWAP1 RETURN JUMPDEST CALLVALUE DUP1 ISZERO PUSH2 0x17B JUMPI PUSH1 0x0 DUP1 REVERT JUMPDEST POP PUSH2 0x196 PUSH1 0x4 DUP1 CALLDATASIZE SUB DUP2 ADD SWAP1 PUSH2 0x191 SWAP2 SWAP1 PUSH2 0x1419 JUMP JUMPDEST PUSH2 0x539 JUMP JUMPDEST PUSH1 0x40 MLOAD PUSH2 0x1A3 SWAP2 SWAP1 PUSH2 0x1474 JUMP JUMPDEST PUSH1 0x40 MLOAD DUP1 SWAP2 SUB SWAP1 RETURN JUMPDEST CALLVALUE DUP1 ISZERO PUSH2 0x1B8 JUMPI PUSH1 0x0 DUP1 REVERT JUMPDEST POP PUSH2 0x1C1 PUSH2 0x55C JUMP JUMPDEST PUSH1 0x40 MLOAD PUSH2 0x1CE SWAP2 SWAP1 PUSH2 0x12B4 JUMP JUMPDEST PUSH1 0x40 MLOAD DUP1 SWAP2 SUB SWAP1 RETURN JUMPDEST CALLVALUE DUP1 ISZERO PUSH2 0x1E3 JUMPI PUSH1 0x0 DUP1 REVERT JUMPDEST POP PUSH2 0x1FE PUSH1 0x4 DUP1 CALLDATASIZE SUB DUP2 ADD SWAP1 PUSH2 0x1F9 SWAP2 SWAP1 PUSH2 0x148F JUMP JUMPDEST PUSH2 0x566 JUMP JUMPDEST PUSH1 0x40 MLOAD PUSH2 0x20B SWAP2 SWAP1 PUSH2 0x1474 JUMP JUMPDEST PUSH1 0x40 MLOAD DUP1 SWAP2 SUB SWAP1 RETURN JUMPDEST CALLVALUE DUP1 ISZERO PUSH2 0x220 JUMPI PUSH1 0x0 DUP1 REVERT JUMPDEST POP PUSH2 0x229 PUSH2 0x595 JUMP JUMPDEST PUSH1 0x40 MLOAD PUSH2 0x236 SWAP2 SWAP1 PUSH2 0x14FE JUMP JUMPDEST PUSH1 0x40 MLOAD DUP1 SWAP2 SUB SWAP1 RETURN JUMPDEST CALLVALUE DUP1 ISZERO PUSH2 0x24B JUMPI PUSH1 0x0 DUP1 REVERT JUMPDEST POP PUSH2 0x254 PUSH2 0x59E JUMP JUMPDEST PUSH1 0x40 MLOAD PUSH2 0x261 SWAP2 SWAP1 PUSH2 0x12B4 JUMP JUMPDEST PUSH1 0x40 MLOAD DUP1 SWAP2 SUB SWAP1 RETURN JUMPDEST CALLVALUE DUP1 ISZERO PUSH2 0x276 JUMPI PUSH1 0x0 DUP1 REVERT JUMPDEST POP PUSH2 0x291 PUSH1 0x4 DUP1 CALLDATASIZE SUB DUP2 ADD SWAP1 PUSH2 0x28C SWAP2 SWAP1 PUSH2 0x1419 JUMP JUMPDEST PUSH2 0x5A4 JUMP JUMPDEST PUSH1 0x40 MLOAD PUSH2 0x29E SWAP2 SWAP1 PUSH2 0x1474 JUMP JUMPDEST PUSH1 0x40 MLOAD DUP1 SWAP2 SUB SWAP1 RETURN JUMPDEST CALLVALUE DUP1 ISZERO PUSH2 0x2B3 JUMPI PUSH1 0x0 DUP1 REVERT JUMPDEST POP PUSH2 0x2CE PUSH1 0x4 DUP1 CALLDATASIZE SUB DUP2 ADD SWAP1 PUSH2 0x2C9 SWAP2 SWAP1 PUSH2 0x1519 JUMP JUMPDEST PUSH2 0x64E JUMP JUMPDEST STOP JUMPDEST CALLVALUE DUP1 ISZERO PUSH2 0x2DC JUMPI PUSH1 0x0 DUP1 REVERT JUMPDEST POP PUSH2 0x2F7 PUSH1 0x4 DUP1 CALLDATASIZE SUB DUP2 ADD SWAP1 PUSH2 0x2F2 SWAP2 SWAP1 PUSH2 0x1546 JUMP JUMPDEST PUSH2 0x6E8 JUMP JUMPDEST PUSH1 0x40 MLOAD PUSH2 0x304 SWAP2 SWAP1 PUSH2 0x12B4 JUMP JUMPDEST PUSH1 0x40 MLOAD DUP1 SWAP2 SUB SWAP1 RETURN JUMPDEST CALLVALUE DUP1 ISZERO PUSH2 0x319 JUMPI PUSH1 0x0 DUP1 REVERT JUMPDEST POP PUSH2 0x322 PUSH2 0x730 JUMP JUMPDEST STOP JUMPDEST PUSH2 0x33E PUSH1 0x4 DUP1 CALLDATASIZE SUB DUP2 ADD SWAP1 PUSH2 0x339 SWAP2 SWAP1 PUSH2 0x1546 JUMP JUMPDEST PUSH2 0x7B8 JUMP JUMPDEST STOP JUMPDEST CALLVALUE DUP1 ISZERO PUSH2 0x34C JUMPI PUSH1 0x0 DUP1 REVERT JUMPDEST POP PUSH2 0x355 PUSH2 0x81D JUMP JUMPDEST PUSH1 0x40 MLOAD PUSH2 0x362 SWAP2 SWAP1 PUSH2 0x1582 JUMP JUMPDEST PUSH1 0x40 MLOAD DUP1 SWAP2 SUB SWAP1 RETURN JUMPDEST CALLVALUE DUP1 ISZERO PUSH2 0x377 JUMPI PUSH1 0x0 DUP1 REVERT JUMPDEST POP PUSH2 0x380 PUSH2 0x847 JUMP JUMPDEST PUSH1 0x40 MLOAD PUSH2 0x38D SWAP2 SWAP1 PUSH2 0x1368 JUMP JUMPDEST PUSH1 0x40 MLOAD DUP1 SWAP2 SUB SWAP1 RETURN JUMPDEST CALLVALUE DUP1 ISZERO PUSH2 0x3A2 JUMPI PUSH1 0x0 DUP1 REVERT JUMPDEST POP PUSH2 0x3BD PUSH1 0x4 DUP1 CALLDATASIZE SUB DUP2 ADD SWAP1 PUSH2 0x3B8 SWAP2 SWAP1 PUSH2 0x1419 JUMP JUMPDEST PUSH2 0x8D9 JUMP JUMPDEST PUSH1 0x40 MLOAD PUSH2 0x3CA SWAP2 SWAP1 PUSH2 0x1474 JUMP JUMPDEST PUSH1 0x40 MLOAD DUP1 SWAP2 SUB SWAP1 RETURN JUMPDEST CALLVALUE DUP1 ISZERO PUSH2 0x3DF JUMPI PUSH1 0x0 DUP1 REVERT JUMPDEST POP PUSH2 0x3FA PUSH1 0x4 DUP1 CALLDATASIZE SUB DUP2 ADD SWAP1 PUSH2 0x3F5 SWAP2 SWAP1 PUSH2 0x1419 JUMP JUMPDEST PUSH2 0x9C3 JUMP JUMPDEST PUSH1 0x40 MLOAD PUSH2 0x407 SWAP2 SWAP1 PUSH2 0x1474 JUMP JUMPDEST PUSH1 0x40 MLOAD DUP1 SWAP2 SUB SWAP1 RETURN JUMPDEST CALLVALUE DUP1 ISZERO PUSH2 0x41C JUMPI PUSH1 0x0 DUP1 REVERT JUMPDEST POP PUSH2 0x425 PUSH2 0x9E6 JUMP JUMPDEST PUSH1 0x40 MLOAD PUSH2 0x432 SWAP2 SWAP1 PUSH2 0x1582 JUMP JUMPDEST PUSH1 0x40 MLOAD DUP1 SWAP2 SUB SWAP1 RETURN JUMPDEST CALLVALUE DUP1 ISZERO PUSH2 0x447 JUMPI PUSH1 0x0 DUP1 REVERT JUMPDEST POP PUSH2 0x462 PUSH1 0x4 DUP1 CALLDATASIZE SUB DUP2 ADD SWAP1 PUSH2 0x45D SWAP2 SWAP1 PUSH2 0x159D JUMP JUMPDEST PUSH2 0xA0C JUMP JUMPDEST PUSH1 0x40 MLOAD PUSH2 0x46F SWAP2 SWAP1 PUSH2 0x12B4 JUMP JUMPDEST PUSH1 0x40 MLOAD DUP1 SWAP2 SUB SWAP1 RETURN JUMPDEST CALLVALUE DUP1 ISZERO PUSH2 0x484 JUMPI PUSH1 0x0 DUP1 REVERT JUMPDEST POP PUSH2 0x49F PUSH1 0x4 DUP1 CALLDATASIZE SUB DUP2 ADD SWAP1 PUSH2 0x49A SWAP2 SWAP1 PUSH2 0x1546 JUMP JUMPDEST PUSH2 0xA93 JUMP JUMPDEST STOP JUMPDEST PUSH1 0x8 SLOAD DUP2 JUMP JUMPDEST PUSH1 0x60 PUSH1 0x3 DUP1 SLOAD PUSH2 0x4B6 SWAP1 PUSH2 0x160C JUMP JUMPDEST DUP1 PUSH1 0x1F ADD PUSH1 0x20 DUP1 SWAP2 DIV MUL PUSH1 0x20 ADD PUSH1 0x40 MLOAD SWAP1 DUP2 ADD PUSH1 0x40 MSTORE DUP1 SWAP3 SWAP2 SWAP1 DUP2 DUP2 MSTORE PUSH1 0x20 ADD DUP3 DUP1 SLOAD PUSH2 0x4E2 SWAP1 PUSH2 0x160C JUMP JUMPDEST DUP1 ISZERO PUSH2 0x52F JUMPI DUP1 PUSH1 0x1F LT PUSH2 0x504 JUMPI PUSH2 0x100 DUP1 DUP4 SLOAD DIV MUL DUP4 MSTORE SWAP2 PUSH1 0x20 ADD SWAP2 PUSH2 0x52F JUMP JUMPDEST DUP3 ADD SWAP2 SWAP1 PUSH1 0x0 MSTORE PUSH1 0x20 PUSH1 0x0 KECCAK256 SWAP1 JUMPDEST DUP2 SLOAD DUP2 MSTORE SWAP1 PUSH1 0x1 ADD SWAP1 PUSH1 0x20 ADD DUP1 DUP4 GT PUSH2 0x512 JUMPI DUP3 SWAP1 SUB PUSH1 0x1F AND DUP3 ADD SWAP2 JUMPDEST POP POP POP POP POP SWAP1 POP SWAP1 JUMP JUMPDEST PUSH1 0x0 DUP1 PUSH2 0x544 PUSH2 0xB8B JUMP JUMPDEST SWAP1 POP PUSH2 0x551 DUP2 DUP6 DUP6 PUSH2 0xB93 JUMP JUMPDEST PUSH1 0x1 SWAP2 POP POP SWAP3 SWAP2 POP POP JUMP JUMPDEST PUSH1 0x0 PUSH1 0x2 SLOAD SWAP1 POP SWAP1 JUMP JUMPDEST PUSH1 0x0 DUP1 PUSH2 0x571 PUSH2 0xB8B JUMP JUMPDEST SWAP1 POP PUSH2 0x57E DUP6 DUP3 DUP6 PUSH2 0xD5E JUMP JUMPDEST PUSH2 0x589 DUP6 DUP6 DUP6 PUSH2 0xDEA JUMP JUMPDEST PUSH1 0x1 SWAP2 POP POP SWAP4 SWAP3 POP POP POP JUMP JUMPDEST PUSH1 0x0 PUSH1 0x12 SWAP1 POP SWAP1 JUMP JUMPDEST PUSH1 0x7 SLOAD DUP2 JUMP JUMPDEST PUSH1 0x0 DUP1 PUSH2 0x5AF PUSH2 0xB8B JUMP JUMPDEST SWAP1 POP PUSH2 0x643 DUP2 DUP6 DUP6 PUSH1 0x1 PUSH1 0x0 DUP7 PUSH20 0xFFFFFFFFFFFFFFFFFFFFFFFFFFFFFFFFFFFFFFFF AND PUSH20 0xFFFFFFFFFFFFFFFFFFFFFFFFFFFFFFFFFFFFFFFF AND DUP2 MSTORE PUSH1 0x20 ADD SWAP1 DUP2 MSTORE PUSH1 0x20 ADD PUSH1 0x0 KECCAK256 PUSH1 0x0 DUP10 PUSH20 0xFFFFFFFFFFFFFFFFFFFFFFFFFFFFFFFFFFFFFFFF AND PUSH20 0xFFFFFFFFFFFFFFFFFFFFFFFFFFFFFFFFFFFFFFFF AND DUP2 MSTORE PUSH1 0x20 ADD SWAP1 DUP2 MSTORE PUSH1 0x20 ADD PUSH1 0x0 KECCAK256 SLOAD PUSH2 0x63E SWAP2 SWAP1 PUSH2 0x166D JUMP JUMPDEST PUSH2 0xB93 JUMP JUMPDEST PUSH1 0x1 SWAP2 POP POP SWAP3 SWAP2 POP POP JUMP JUMPDEST PUSH1 0x6 PUSH1 0x0 SWAP1 SLOAD SWAP1 PUSH2 0x100 EXP SWAP1 DIV PUSH20 0xFFFFFFFFFFFFFFFFFFFFFFFFFFFFFFFFFFFFFFFF AND PUSH20 0xFFFFFFFFFFFFFFFFFFFFFFFFFFFFFFFFFFFFFFFF AND CALLER PUSH20 0xFFFFFFFFFFFFFFFFFFFFFFFFFFFFFFFFFFFFFFFF AND EQ PUSH2 0x6DE JUMPI PUSH1 0x40 MLOAD PUSH32 0x8C379A000000000000000000000000000000000000000000000000000000000 DUP2 MSTORE PUSH1 0x4 ADD PUSH2 0x6D5 SWAP1 PUSH2 0x1735 JUMP JUMPDEST PUSH1 0x40 MLOAD DUP1 SWAP2 SUB SWAP1 REVERT JUMPDEST DUP1 PUSH1 0x7 DUP2 SWAP1 SSTORE POP POP JUMP JUMPDEST PUSH1 0x0 DUP1 PUSH1 0x0 DUP4 PUSH20 0xFFFFFFFFFFFFFFFFFFFFFFFFFFFFFFFFFFFFFFFF AND PUSH20 0xFFFFFFFFFFFFFFFFFFFFFFFFFFFFFFFFFFFFFFFF AND DUP2 MSTORE PUSH1 0x20 ADD SWAP1 DUP2 MSTORE PUSH1 0x20 ADD PUSH1 0x0 KECCAK256 SLOAD SWAP1 POP SWAP2 SWAP1 POP JUMP JUMPDEST PUSH2 0x738 PUSH2 0xB8B JUMP JUMPDEST PUSH20 0xFFFFFFFFFFFFFFFFFFFFFFFFFFFFFFFFFFFFFFFF AND PUSH2 0x756 PUSH2 0x81D JUMP JUMPDEST PUSH20 0xFFFFFFFFFFFFFFFFFFFFFFFFFFFFFFFFFFFFFFFF AND EQ PUSH2 0x7AC JUMPI PUSH1 0x40 MLOAD PUSH32 0x8C379A000000000000000000000000000000000000000000000000000000000 DUP2 MSTORE PUSH1 0x4 ADD PUSH2 0x7A3 SWAP1 PUSH2 0x17A1 JUMP JUMPDEST PUSH1 0x40 MLOAD DUP1 SWAP2 SUB SWAP1 REVERT JUMPDEST PUSH2 0x7B6 PUSH1 0x0 PUSH2 0x106B JUMP JUMPDEST JUMP JUMPDEST PUSH2 0x7C0 PUSH2 0x595 JUMP JUMPDEST PUSH1 0xA PUSH2 0x7CC SWAP2 SWAP1 PUSH2 0x18F4 JUMP JUMPDEST PUSH1 0x7 SLOAD PUSH2 0x7D9 SWAP2 SWAP1 PUSH2 0x193F JUMP JUMPDEST PUSH1 0x8 DUP2 SWAP1 SSTORE POP PUSH1 0x0 PUSH2 0x7E9 PUSH2 0x595 JUMP JUMPDEST PUSH1 0xA PUSH2 0x7F5 SWAP2 SWAP1 PUSH2 0x18F4 JUMP JUMPDEST PUSH1 0x8 SLOAD CALLVALUE PUSH2 0x803 SWAP2 SWAP1 PUSH2 0x193F JUMP JUMPDEST PUSH2 0x80D SWAP2 SWAP1 PUSH2 0x19C8 JUMP JUMPDEST SWAP1 POP PUSH2 0x819 DUP3 DUP3 PUSH2 0x1131 JUMP JUMPDEST POP POP JUMP JUMPDEST PUSH1 0x0 PUSH1 0x5 PUSH1 0x0 SWAP1 SLOAD SWAP1 PUSH2 0x100 EXP SWAP1 DIV PUSH20 0xFFFFFFFFFFFFFFFFFFFFFFFFFFFFFFFFFFFFFFFF AND SWAP1 POP SWAP1 JUMP JUMPDEST PUSH1 0x60 PUSH1 0x4 DUP1 SLOAD PUSH2 0x856 SWAP1 PUSH2 0x160C JUMP JUMPDEST DUP1 PUSH1 0x1F ADD PUSH1 0x20 DUP1 SWAP2 DIV MUL PUSH1 0x20 ADD PUSH1 0x40 MLOAD SWAP1 DUP2 ADD PUSH1 0x40 MSTORE DUP1 SWAP3 SWAP2 SWAP1 DUP2 DUP2 MSTORE PUSH1 0x20 ADD DUP3 DUP1 SLOAD PUSH2 0x882 SWAP1 PUSH2 0x160C JUMP JUMPDEST DUP1 ISZERO PUSH2 0x8CF JUMPI DUP1 PUSH1 0x1F LT PUSH2 0x8A4 JUMPI PUSH2 0x100 DUP1 DUP4 SLOAD DIV MUL DUP4 MSTORE SWAP2 PUSH1 0x20 ADD SWAP2 PUSH2 0x8CF JUMP JUMPDEST DUP3 ADD SWAP2 SWAP1 PUSH1 0x0 MSTORE PUSH1 0x20 PUSH1 0x0 KECCAK256 SWAP1 JUMPDEST DUP2 SLOAD DUP2 MSTORE SWAP1 PUSH1 0x1 ADD SWAP1 PUSH1 0x20 ADD DUP1 DUP4 GT PUSH2 0x8B2 JUMPI DUP3 SWAP1 SUB PUSH1 0x1F AND DUP3 ADD SWAP2 JUMPDEST POP POP POP POP POP SWAP1 POP SWAP1 JUMP JUMPDEST PUSH1 0x0 DUP1 PUSH2 0x8E4 PUSH2 0xB8B JUMP JUMPDEST SWAP1 POP PUSH1 0x0 PUSH1 0x1 PUSH1 0x0 DUP4 PUSH20 0xFFFFFFFFFFFFFFFFFFFFFFFFFFFFFFFFFFFFFFFF AND PUSH20 0xFFFFFFFFFFFFFFFFFFFFFFFFFFFFFFFFFFFFFFFF AND DUP2 MSTORE PUSH1 0x20 ADD SWAP1 DUP2 MSTORE PUSH1 0x20 ADD PUSH1 0x0 KECCAK256 PUSH1 0x0 DUP7 PUSH20 0xFFFFFFFFFFFFFFFFFFFFFFFFFFFFFFFFFFFFFFFF AND PUSH20 0xFFFFFFFFFFFFFFFFFFFFFFFFFFFFFFFFFFFFFFFF AND DUP2 MSTORE PUSH1 0x20 ADD SWAP1 DUP2 MSTORE PUSH1 0x20 ADD PUSH1 0x0 KECCAK256 SLOAD SWAP1 POP DUP4 DUP2 LT ISZERO PUSH2 0x9AA JUMPI PUSH1 0x40 MLOAD PUSH32 0x8C379A000000000000000000000000000000000000000000000000000000000 DUP2 MSTORE PUSH1 0x4 ADD PUSH2 0x9A1 SWAP1 PUSH2 0x1A6B JUMP JUMPDEST PUSH1 0x40 MLOAD DUP1 SWAP2 SUB SWAP1 REVERT JUMPDEST PUSH2 0x9B7 DUP3 DUP7 DUP7 DUP5 SUB PUSH2 0xB93 JUMP JUMPDEST PUSH1 0x1 SWAP3 POP POP POP SWAP3 SWAP2 POP POP JUMP JUMPDEST PUSH1 0x0 DUP1 PUSH2 0x9CE PUSH2 0xB8B JUMP JUMPDEST SWAP1 POP PUSH2 0x9DB DUP2 DUP6 DUP6 PUSH2 0xDEA JUMP JUMPDEST PUSH1 0x1 SWAP2 POP POP SWAP3 SWAP2 POP POP JUMP JUMPDEST PUSH1 0x6 PUSH1 0x0 SWAP1 SLOAD SWAP1 PUSH2 0x100 EXP SWAP1 DIV PUSH20 0xFFFFFFFFFFFFFFFFFFFFFFFFFFFFFFFFFFFFFFFF AND DUP2 JUMP JUMPDEST PUSH1 0x0 PUSH1 0x1 PUSH1 0x0 DUP5 PUSH20 0xFFFFFFFFFFFFFFFFFFFFFFFFFFFFFFFFFFFFFFFF AND PUSH20 0xFFFFFFFFFFFFFFFFFFFFFFFFFFFFFFFFFFFFFFFF AND DUP2 MSTORE PUSH1 0x20 ADD SWAP1 DUP2 MSTORE PUSH1 0x20 ADD PUSH1 0x0 KECCAK256 PUSH1 0x0 DUP4 PUSH20 0xFFFFFFFFFFFFFFFFFFFFFFFFFFFFFFFFFFFFFFFF AND PUSH20 0xFFFFFFFFFFFFFFFFFFFFFFFFFFFFFFFFFFFFFFFF AND DUP2 MSTORE PUSH1 0x20 ADD SWAP1 DUP2 MSTORE PUSH1 0x20 ADD PUSH1 0x0 KECCAK256 SLOAD SWAP1 POP SWAP3 SWAP2 POP POP JUMP JUMPDEST PUSH2 0xA9B PUSH2 0xB8B JUMP JUMPDEST PUSH20 0xFFFFFFFFFFFFFFFFFFFFFFFFFFFFFFFFFFFFFFFF AND PUSH2 0xAB9 PUSH2 0x81D JUMP JUMPDEST PUSH20 0xFFFFFFFFFFFFFFFFFFFFFFFFFFFFFFFFFFFFFFFF AND EQ PUSH2 0xB0F JUMPI PUSH1 0x40 MLOAD PUSH32 0x8C379A000000000000000000000000000000000000000000000000000000000 DUP2 MSTORE PUSH1 0x4 ADD PUSH2 0xB06 SWAP1 PUSH2 0x17A1 JUMP JUMPDEST PUSH1 0x40 MLOAD DUP1 SWAP2 SUB SWAP1 REVERT JUMPDEST PUSH1 0x0 PUSH20 0xFFFFFFFFFFFFFFFFFFFFFFFFFFFFFFFFFFFFFFFF AND DUP2 PUSH20 0xFFFFFFFFFFFFFFFFFFFFFFFFFFFFFFFFFFFFFFFF AND EQ ISZERO PUSH2 0xB7F JUMPI PUSH1 0x40 MLOAD PUSH32 0x8C379A000000000000000000000000000000000000000000000000000000000 DUP2 MSTORE PUSH1 0x4 ADD PUSH2 0xB76 SWAP1 PUSH2 0x1AFD JUMP JUMPDEST PUSH1 0x40 MLOAD DUP1 SWAP2 SUB SWAP1 REVERT JUMPDEST PUSH2 0xB88 DUP2 PUSH2 0x106B JUMP JUMPDEST POP JUMP JUMPDEST PUSH1 0x0 CALLER SWAP1 POP SWAP1 JUMP JUMPDEST PUSH1 0x0 PUSH20 0xFFFFFFFFFFFFFFFFFFFFFFFFFFFFFFFFFFFFFFFF AND DUP4 PUSH20 0xFFFFFFFFFFFFFFFFFFFFFFFFFFFFFFFFFFFFFFFF AND EQ ISZERO PUSH2 0xC03 JUMPI PUSH1 0x40 MLOAD PUSH32 0x8C379A000000000000000000000000000000000000000000000000000000000 DUP2 MSTORE PUSH1 0x4 ADD PUSH2 0xBFA SWAP1 PUSH2 0x1B8F JUMP JUMPDEST PUSH1 0x40 MLOAD DUP1 SWAP2 SUB SWAP1 REVERT JUMPDEST PUSH1 0x0 PUSH20 0xFFFFFFFFFFFFFFFFFFFFFFFFFFFFFFFFFFFFFFFF AND DUP3 PUSH20 0xFFFFFFFFFFFFFFFFFFFFFFFFFFFFFFFFFFFFFFFF AND EQ ISZERO PUSH2 0xC73 JUMPI PUSH1 0x40 MLOAD PUSH32 0x8C379A000000000000000000000000000000000000000000000000000000000 DUP2 MSTORE PUSH1 0x4 ADD PUSH2 0xC6A SWAP1 PUSH2 0x1C21 JUMP JUMPDEST PUSH1 0x40 MLOAD DUP1 SWAP2 SUB SWAP1 REVERT JUMPDEST DUP1 PUSH1 0x1 PUSH1 0x0 DUP6 PUSH20 0xFFFFFFFFFFFFFFFFFFFFFFFFFFFFFFFFFFFFFFFF AND PUSH20 0xFFFFFFFFFFFFFFFFFFFFFFFFFFFFFFFFFFFFFFFF AND DUP2 MSTORE PUSH1 0x20 ADD SWAP1 DUP2 MSTORE PUSH1 0x20 ADD PUSH1 0x0 KECCAK256 PUSH1 0x0 DUP5 PUSH20 0xFFFFFFFFFFFFFFFFFFFFFFFFFFFFFFFFFFFFFFFF AND PUSH20 0xFFFFFFFFFFFFFFFFFFFFFFFFFFFFFFFFFFFFFFFF AND DUP2 MSTORE PUSH1 0x20 ADD SWAP1 DUP2 MSTORE PUSH1 0x20 ADD PUSH1 0x0 KECCAK256 DUP2 SWAP1 SSTORE POP DUP2 PUSH20 0xFFFFFFFFFFFFFFFFFFFFFFFFFFFFFFFFFFFFFFFF AND DUP4 PUSH20 0xFFFFFFFFFFFFFFFFFFFFFFFFFFFFFFFFFFFFFFFF AND PUSH32 0x8C5BE1E5EBEC7D5BD14F71427D1E84F3DD0314C0F7B2291E5B200AC8C7C3B925 DUP4 PUSH1 0x40 MLOAD PUSH2 0xD51 SWAP2 SWAP1 PUSH2 0x12B4 JUMP JUMPDEST PUSH1 0x40 MLOAD DUP1 SWAP2 SUB SWAP1 LOG3 POP POP POP JUMP JUMPDEST PUSH1 0x0 PUSH2 0xD6A DUP5 DUP5 PUSH2 0xA0C JUMP JUMPDEST SWAP1 POP PUSH32 0xFFFFFFFFFFFFFFFFFFFFFFFFFFFFFFFFFFFFFFFFFFFFFFFFFFFFFFFFFFFFFFFF DUP2 EQ PUSH2 0xDE4 JUMPI DUP2 DUP2 LT ISZERO PUSH2 0xDD6 JUMPI PUSH1 0x40 MLOAD PUSH32 0x8C379A000000000000000000000000000000000000000000000000000000000 DUP2 MSTORE PUSH1 0x4 ADD PUSH2 0xDCD SWAP1 PUSH2 0x1C8D JUMP JUMPDEST PUSH1 0x40 MLOAD DUP1 SWAP2 SUB SWAP1 REVERT JUMPDEST PUSH2 0xDE3 DUP5 DUP5 DUP5 DUP5 SUB PUSH2 0xB93 JUMP JUMPDEST JUMPDEST POP POP POP POP JUMP JUMPDEST PUSH1 0x0 PUSH20 0xFFFFFFFFFFFFFFFFFFFFFFFFFFFFFFFFFFFFFFFF AND DUP4 PUSH20 0xFFFFFFFFFFFFFFFFFFFFFFFFFFFFFFFFFFFFFFFF AND EQ ISZERO PUSH2 0xE5A JUMPI PUSH1 0x40 MLOAD PUSH32 0x8C379A000000000000000000000000000000000000000000000000000000000 DUP2 MSTORE PUSH1 0x4 ADD PUSH2 0xE51 SWAP1 PUSH2 0x1D1F JUMP JUMPDEST PUSH1 0x40 MLOAD DUP1 SWAP2 SUB SWAP1 REVERT JUMPDEST PUSH1 0x0 PUSH20 0xFFFFFFFFFFFFFFFFFFFFFFFFFFFFFFFFFFFFFFFF AND DUP3 PUSH20 0xFFFFFFFFFFFFFFFFFFFFFFFFFFFFFFFFFFFFFFFF AND EQ ISZERO PUSH2 0xECA JUMPI PUSH1 0x40 MLOAD PUSH32 0x8C379A000000000000000000000000000000000000000000000000000000000 DUP2 MSTORE PUSH1 0x4 ADD PUSH2 0xEC1 SWAP1 PUSH2 0x1DB1 JUMP JUMPDEST PUSH1 0x40 MLOAD DUP1 SWAP2 SUB SWAP1 REVERT JUMPDEST PUSH2 0xED5 DUP4 DUP4 DUP4 PUSH2 0x1291 JUMP JUMPDEST PUSH1 0x0 DUP1 PUSH1 0x0 DUP6 PUSH20 0xFFFFFFFFFFFFFFFFFFFFFFFFFFFFFFFFFFFFFFFF AND PUSH20 0xFFFFFFFFFFFFFFFFFFFFFFFFFFFFFFFFFFFFFFFF AND DUP2 MSTORE PUSH1 0x20 ADD SWAP1 DUP2 MSTORE PUSH1 0x20 ADD PUSH1 0x0 KECCAK256 SLOAD SWAP1 POP DUP2 DUP2 LT ISZERO PUSH2 0xF5B JUMPI PUSH1 0x40 MLOAD PUSH32 0x8C379A000000000000000000000000000000000000000000000000000000000 DUP2 MSTORE PUSH1 0x4 ADD PUSH2 0xF52 SWAP1 PUSH2 0x1E43 JUMP JUMPDEST PUSH1 0x40 MLOAD DUP1 SWAP2 SUB SWAP1 REVERT JUMPDEST DUP2 DUP2 SUB PUSH1 0x0 DUP1 DUP7 PUSH20 0xFFFFFFFFFFFFFFFFFFFFFFFFFFFFFFFFFFFFFFFF AND PUSH20 0xFFFFFFFFFFFFFFFFFFFFFFFFFFFFFFFFFFFFFFFF AND DUP2 MSTORE PUSH1 0x20 ADD SWAP1 DUP2 MSTORE PUSH1 0x20 ADD PUSH1 0x0 KECCAK256 DUP2 SWAP1 SSTORE POP DUP2 PUSH1 0x0 DUP1 DUP6 PUSH20 0xFFFFFFFFFFFFFFFFFFFFFFFFFFFFFFFFFFFFFFFF AND PUSH20 0xFFFFFFFFFFFFFFFFFFFFFFFFFFFFFFFFFFFFFFFF AND DUP2 MSTORE PUSH1 0x20 ADD SWAP1 DUP2 MSTORE PUSH1 0x20 ADD PUSH1 0x0 KECCAK256 PUSH1 0x0 DUP3 DUP3 SLOAD PUSH2 0xFEE SWAP2 SWAP1 PUSH2 0x166D JUMP JUMPDEST SWAP3 POP POP DUP2 SWAP1 SSTORE POP DUP3 PUSH20 0xFFFFFFFFFFFFFFFFFFFFFFFFFFFFFFFFFFFFFFFF AND DUP5 PUSH20 0xFFFFFFFFFFFFFFFFFFFFFFFFFFFFFFFFFFFFFFFF AND PUSH32 0xDDF252AD1BE2C89B69C2B068FC378DAA952BA7F163C4A11628F55A4DF523B3EF DUP5 PUSH1 0x40 MLOAD PUSH2 0x1052 SWAP2 SWAP1 PUSH2 0x12B4 JUMP JUMPDEST PUSH1 0x40 MLOAD DUP1 SWAP2 SUB SWAP1 LOG3 PUSH2 0x1065 DUP5 DUP5 DUP5 PUSH2 0x1296 JUMP JUMPDEST POP POP POP POP JUMP JUMPDEST PUSH1 0x0 PUSH1 0x5 PUSH1 0x0 SWAP1 SLOAD SWAP1 PUSH2 0x100 EXP SWAP1 DIV PUSH20 0xFFFFFFFFFFFFFFFFFFFFFFFFFFFFFFFFFFFFFFFF AND SWAP1 POP DUP2 PUSH1 0x5 PUSH1 0x0 PUSH2 0x100 EXP DUP2 SLOAD DUP2 PUSH20 0xFFFFFFFFFFFFFFFFFFFFFFFFFFFFFFFFFFFFFFFF MUL NOT AND SWAP1 DUP4 PUSH20 0xFFFFFFFFFFFFFFFFFFFFFFFFFFFFFFFFFFFFFFFF AND MUL OR SWAP1 SSTORE POP DUP2 PUSH20 0xFFFFFFFFFFFFFFFFFFFFFFFFFFFFFFFFFFFFFFFF AND DUP2 PUSH20 0xFFFFFFFFFFFFFFFFFFFFFFFFFFFFFFFFFFFFFFFF AND PUSH32 0x8BE0079C531659141344CD1FD0A4F28419497F9722A3DAAFE3B4186F6B6457E0 PUSH1 0x40 MLOAD PUSH1 0x40 MLOAD DUP1 SWAP2 SUB SWAP1 LOG3 POP POP JUMP JUMPDEST PUSH1 0x0 PUSH20 0xFFFFFFFFFFFFFFFFFFFFFFFFFFFFFFFFFFFFFFFF AND DUP3 PUSH20 0xFFFFFFFFFFFFFFFFFFFFFFFFFFFFFFFFFFFFFFFF AND EQ ISZERO PUSH2 0x11A1 JUMPI PUSH1 0x40 MLOAD PUSH32 0x8C379A000000000000000000000000000000000000000000000000000000000 DUP2 MSTORE PUSH1 0x4 ADD PUSH2 0x1198 SWAP1 PUSH2 0x1EAF JUMP JUMPDEST PUSH1 0x40 MLOAD DUP1 SWAP2 SUB SWAP1 REVERT JUMPDEST PUSH2 0x11AD PUSH1 0x0 DUP4 DUP4 PUSH2 0x1291 JUMP JUMPDEST DUP1 PUSH1 0x2 PUSH1 0x0 DUP3 DUP3 SLOAD PUSH2 0x11BF SWAP2 SWAP1 PUSH2 0x166D JUMP JUMPDEST SWAP3 POP POP DUP2 SWAP1 SSTORE POP DUP1 PUSH1 0x0 DUP1 DUP5 PUSH20 0xFFFFFFFFFFFFFFFFFFFFFFFFFFFFFFFFFFFFFFFF AND PUSH20 0xFFFFFFFFFFFFFFFFFFFFFFFFFFFFFFFFFFFFFFFF AND DUP2 MSTORE PUSH1 0x20 ADD SWAP1 DUP2 MSTORE PUSH1 0x20 ADD PUSH1 0x0 KECCAK256 PUSH1 0x0 DUP3 DUP3 SLOAD PUSH2 0x1214 SWAP2 SWAP1 PUSH2 0x166D JUMP JUMPDEST SWAP3 POP POP DUP2 SWAP1 SSTORE POP DUP2 PUSH20 0xFFFFFFFFFFFFFFFFFFFFFFFFFFFFFFFFFFFFFFFF AND PUSH1 0x0 PUSH20 0xFFFFFFFFFFFFFFFFFFFFFFFFFFFFFFFFFFFFFFFF AND PUSH32 0xDDF252AD1BE2C89B69C2B068FC378DAA952BA7F163C4A11628F55A4DF523B3EF DUP4 PUSH1 0x40 MLOAD PUSH2 0x1279 SWAP2 SWAP1 PUSH2 0x12B4 JUMP JUMPDEST PUSH1 0x40 MLOAD DUP1 SWAP2 SUB SWAP1 LOG3 PUSH2 0x128D PUSH1 0x0 DUP4 DUP4 PUSH2 0x1296 JUMP JUMPDEST POP POP JUMP JUMPDEST POP POP POP JUMP JUMPDEST POP POP POP JUMP JUMPDEST PUSH1 0x0 DUP2 SWAP1 POP SWAP2 SWAP1 POP JUMP JUMPDEST PUSH2 0x12AE DUP2 PUSH2 0x129B JUMP JUMPDEST DUP3 MSTORE POP POP JUMP JUMPDEST PUSH1 0x0 PUSH1 0x20 DUP3 ADD SWAP1 POP PUSH2 0x12C9 PUSH1 0x0 DUP4 ADD DUP5 PUSH2 0x12A5 JUMP JUMPDEST SWAP3 SWAP2 POP POP JUMP JUMPDEST PUSH1 0x0 DUP2 MLOAD SWAP1 POP SWAP2 SWAP1 POP JUMP JUMPDEST PUSH1 0x0 DUP3 DUP3 MSTORE PUSH1 0x20 DUP3 ADD SWAP1 POP SWAP3 SWAP2 POP POP JUMP JUMPDEST PUSH1 0x0 JUMPDEST DUP4 DUP2 LT ISZERO PUSH2 0x1309 JUMPI DUP1 DUP3 ADD MLOAD DUP2 DUP5 ADD MSTORE PUSH1 0x20 DUP2 ADD SWAP1 POP PUSH2 0x12EE JUMP JUMPDEST DUP4 DUP2 GT ISZERO PUSH2 0x1318 JUMPI PUSH1 0x0 DUP5 DUP5 ADD MSTORE JUMPDEST POP POP POP POP JUMP JUMPDEST PUSH1 0x0 PUSH1 0x1F NOT PUSH1 0x1F DUP4 ADD AND SWAP1 POP SWAP2 SWAP1 POP JUMP JUMPDEST PUSH1 0x0 PUSH2 0x133A DUP3 PUSH2 0x12CF JUMP JUMPDEST PUSH2 0x1344 DUP2 DUP6 PUSH2 0x12DA JUMP JUMPDEST SWAP4 POP PUSH2 0x1354 DUP2 DUP6 PUSH1 0x20 DUP7 ADD PUSH2 0x12EB JUMP JUMPDEST PUSH2 0x135D DUP2 PUSH2 0x131E JUMP JUMPDEST DUP5 ADD SWAP2 POP POP SWAP3 SWAP2 POP POP JUMP JUMPDEST PUSH1 0x0 PUSH1 0x20 DUP3 ADD SWAP1 POP DUP2 DUP2 SUB PUSH1 0x0 DUP4 ADD MSTORE PUSH2 0x1382 DUP2 DUP5 PUSH2 0x132F JUMP JUMPDEST SWAP1 POP SWAP3 SWAP2 POP POP JUMP JUMPDEST PUSH1 0x0 DUP1 REVERT JUMPDEST PUSH1 0x0 PUSH20 0xFFFFFFFFFFFFFFFFFFFFFFFFFFFFFFFFFFFFFFFF DUP3 AND SWAP1 POP SWAP2 SWAP1 POP JUMP JUMPDEST PUSH1 0x0 PUSH2 0x13BA DUP3 PUSH2 0x138F JUMP JUMPDEST SWAP1 POP SWAP2 SWAP1 POP JUMP JUMPDEST PUSH2 0x13CA DUP2 PUSH2 0x13AF JUMP JUMPDEST DUP2 EQ PUSH2 0x13D5 JUMPI PUSH1 0x0 DUP1 REVERT JUMPDEST POP JUMP JUMPDEST PUSH1 0x0 DUP2 CALLDATALOAD SWAP1 POP PUSH2 0x13E7 DUP2 PUSH2 0x13C1 JUMP JUMPDEST SWAP3 SWAP2 POP POP JUMP JUMPDEST PUSH2 0x13F6 DUP2 PUSH2 0x129B JUMP JUMPDEST DUP2 EQ PUSH2 0x1401 JUMPI PUSH1 0x0 DUP1 REVERT JUMPDEST POP JUMP JUMPDEST PUSH1 0x0 DUP2 CALLDATALOAD SWAP1 POP PUSH2 0x1413 DUP2 PUSH2 0x13ED JUMP JUMPDEST SWAP3 SWAP2 POP POP JUMP JUMPDEST PUSH1 0x0 DUP1 PUSH1 0x40 DUP4 DUP6 SUB SLT ISZERO PUSH2 0x1430 JUMPI PUSH2 0x142F PUSH2 0x138A JUMP JUMPDEST JUMPDEST PUSH1 0x0 PUSH2 0x143E DUP6 DUP3 DUP7 ADD PUSH2 0x13D8 JUMP JUMPDEST SWAP3 POP POP PUSH1 0x20 PUSH2 0x144F DUP6 DUP3 DUP7 ADD PUSH2 0x1404 JUMP JUMPDEST SWAP2 POP POP SWAP3 POP SWAP3 SWAP1 POP JUMP JUMPDEST PUSH1 0x0 DUP2 ISZERO ISZERO SWAP1 POP SWAP2 SWAP1 POP JUMP JUMPDEST PUSH2 0x146E DUP2 PUSH2 0x1459 JUMP JUMPDEST DUP3 MSTORE POP POP JUMP JUMPDEST PUSH1 0x0 PUSH1 0x20 DUP3 ADD SWAP1 POP PUSH2 0x1489 PUSH1 0x0 DUP4 ADD DUP5 PUSH2 0x1465 JUMP JUMPDEST SWAP3 SWAP2 POP POP JUMP JUMPDEST PUSH1 0x0 DUP1 PUSH1 0x0 PUSH1 0x60 DUP5 DUP7 SUB SLT ISZERO PUSH2 0x14A8 JUMPI PUSH2 0x14A7 PUSH2 0x138A JUMP JUMPDEST JUMPDEST PUSH1 0x0 PUSH2 0x14B6 DUP7 DUP3 DUP8 ADD PUSH2 0x13D8 JUMP JUMPDEST SWAP4 POP POP PUSH1 0x20 PUSH2 0x14C7 DUP7 DUP3 DUP8 ADD PUSH2 0x13D8 JUMP JUMPDEST SWAP3 POP POP PUSH1 0x40 PUSH2 0x14D8 DUP7 DUP3 DUP8 ADD PUSH2 0x1404 JUMP JUMPDEST SWAP2 POP POP SWAP3 POP SWAP3 POP SWAP3 JUMP JUMPDEST PUSH1 0x0 PUSH1 0xFF DUP3 AND SWAP1 POP SWAP2 SWAP1 POP JUMP JUMPDEST PUSH2 0x14F8 DUP2 PUSH2 0x14E2 JUMP JUMPDEST DUP3 MSTORE POP POP JUMP JUMPDEST PUSH1 0x0 PUSH1 0x20 DUP3 ADD SWAP1 POP PUSH2 0x1513 PUSH1 0x0 DUP4 ADD DUP5 PUSH2 0x14EF JUMP JUMPDEST SWAP3 SWAP2 POP POP JUMP JUMPDEST PUSH1 0x0 PUSH1 0x20 DUP3 DUP5 SUB SLT ISZERO PUSH2 0x152F JUMPI PUSH2 0x152E PUSH2 0x138A JUMP JUMPDEST JUMPDEST PUSH1 0x0 PUSH2 0x153D DUP5 DUP3 DUP6 ADD PUSH2 0x1404 JUMP JUMPDEST SWAP2 POP POP SWAP3 SWAP2 POP POP JUMP JUMPDEST PUSH1 0x0 PUSH1 0x20 DUP3 DUP5 SUB SLT ISZERO PUSH2 0x155C JUMPI PUSH2 0x155B PUSH2 0x138A JUMP JUMPDEST JUMPDEST PUSH1 0x0 PUSH2 0x156A DUP5 DUP3 DUP6 ADD PUSH2 0x13D8 JUMP JUMPDEST SWAP2 POP POP SWAP3 SWAP2 POP POP JUMP JUMPDEST PUSH2 0x157C DUP2 PUSH2 0x13AF JUMP JUMPDEST DUP3 MSTORE POP POP JUMP JUMPDEST PUSH1 0x0 PUSH1 0x20 DUP3 ADD SWAP1 POP PUSH2 0x1597 PUSH1 0x0 DUP4 ADD DUP5 PUSH2 0x1573 JUMP JUMPDEST SWAP3 SWAP2 POP POP JUMP JUMPDEST PUSH1 0x0 DUP1 PUSH1 0x40 DUP4 DUP6 SUB SLT ISZERO PUSH2 0x15B4 JUMPI PUSH2 0x15B3 PUSH2 0x138A JUMP JUMPDEST JUMPDEST PUSH1 0x0 PUSH2 0x15C2 DUP6 DUP3 DUP7 ADD PUSH2 0x13D8 JUMP JUMPDEST SWAP3 POP POP PUSH1 0x20 PUSH2 0x15D3 DUP6 DUP3 DUP7 ADD PUSH2 0x13D8 JUMP JUMPDEST SWAP2 POP POP SWAP3 POP SWAP3 SWAP1 POP JUMP JUMPDEST PUSH32 0x4E487B7100000000000000000000000000000000000000000000000000000000 PUSH1 0x0 MSTORE PUSH1 0x22 PUSH1 0x4 MSTORE PUSH1 0x24 PUSH1 0x0 REVERT JUMPDEST PUSH1 0x0 PUSH1 0x2 DUP3 DIV SWAP1 POP PUSH1 0x1 DUP3 AND DUP1 PUSH2 0x1624 JUMPI PUSH1 0x7F DUP3 AND SWAP2 POP JUMPDEST PUSH1 0x20 DUP3 LT DUP2 EQ ISZERO PUSH2 0x1638 JUMPI PUSH2 0x1637 PUSH2 0x15DD JUMP JUMPDEST JUMPDEST POP SWAP2 SWAP1 POP JUMP JUMPDEST PUSH32 0x4E487B7100000000000000000000000000000000000000000000000000000000 PUSH1 0x0 MSTORE PUSH1 0x11 PUSH1 0x4 MSTORE PUSH1 0x24 PUSH1 0x0 REVERT JUMPDEST PUSH1 0x0 PUSH2 0x1678 DUP3 PUSH2 0x129B JUMP JUMPDEST SWAP2 POP PUSH2 0x1683 DUP4 PUSH2 0x129B JUMP JUMPDEST SWAP3 POP DUP3 PUSH32 0xFFFFFFFFFFFFFFFFFFFFFFFFFFFFFFFFFFFFFFFFFFFFFFFFFFFFFFFFFFFFFFFF SUB DUP3 GT ISZERO PUSH2 0x16B8 JUMPI PUSH2 0x16B7 PUSH2 0x163E JUMP JUMPDEST JUMPDEST DUP3 DUP3 ADD SWAP1 POP SWAP3 SWAP2 POP POP JUMP JUMPDEST PUSH32 0x4F6E6C7920746865204F776E65722063616E2073657420746865207072696365 PUSH1 0x0 DUP3 ADD MSTORE PUSH32 0x206F662074686520746F6B656E00000000000000000000000000000000000000 PUSH1 0x20 DUP3 ADD MSTORE POP JUMP JUMPDEST PUSH1 0x0 PUSH2 0x171F PUSH1 0x2D DUP4 PUSH2 0x12DA JUMP JUMPDEST SWAP2 POP PUSH2 0x172A DUP3 PUSH2 0x16C3 JUMP JUMPDEST PUSH1 0x40 DUP3 ADD SWAP1 POP SWAP2 SWAP1 POP JUMP JUMPDEST PUSH1 0x0 PUSH1 0x20 DUP3 ADD SWAP1 POP DUP2 DUP2 SUB PUSH1 0x0 DUP4 ADD MSTORE PUSH2 0x174E DUP2 PUSH2 0x1712 JUMP JUMPDEST SWAP1 POP SWAP2 SWAP1 POP JUMP JUMPDEST PUSH32 0x4F776E61626C653A2063616C6C6572206973206E6F7420746865206F776E6572 PUSH1 0x0 DUP3 ADD MSTORE POP JUMP JUMPDEST PUSH1 0x0 PUSH2 0x178B PUSH1 0x20 DUP4 PUSH2 0x12DA JUMP JUMPDEST SWAP2 POP PUSH2 0x1796 DUP3 PUSH2 0x1755 JUMP JUMPDEST PUSH1 0x20 DUP3 ADD SWAP1 POP SWAP2 SWAP1 POP JUMP JUMPDEST PUSH1 0x0 PUSH1 0x20 DUP3 ADD SWAP1 POP DUP2 DUP2 SUB PUSH1 0x0 DUP4 ADD MSTORE PUSH2 0x17BA DUP2 PUSH2 0x177E JUMP JUMPDEST SWAP1 POP SWAP2 SWAP1 POP JUMP JUMPDEST PUSH1 0x0 DUP2 PUSH1 0x1 SHR SWAP1 POP SWAP2 SWAP1 POP JUMP JUMPDEST PUSH1 0x0 DUP1 DUP3 SWAP2 POP DUP4 SWAP1 POP JUMPDEST PUSH1 0x1 DUP6 GT ISZERO PUSH2 0x1818 JUMPI DUP1 DUP7 DIV DUP2 GT ISZERO PUSH2 0x17F4 JUMPI PUSH2 0x17F3 PUSH2 0x163E JUMP JUMPDEST JUMPDEST PUSH1 0x1 DUP6 AND ISZERO PUSH2 0x1803 JUMPI DUP1 DUP3 MUL SWAP2 POP JUMPDEST DUP1 DUP2 MUL SWAP1 POP PUSH2 0x1811 DUP6 PUSH2 0x17C1 JUMP JUMPDEST SWAP5 POP PUSH2 0x17D8 JUMP JUMPDEST SWAP5 POP SWAP5 SWAP3 POP POP POP JUMP JUMPDEST PUSH1 0x0 DUP3 PUSH2 0x1831 JUMPI PUSH1 0x1 SWAP1 POP PUSH2 0x18ED JUMP JUMPDEST DUP2 PUSH2 0x183F JUMPI PUSH1 0x0 SWAP1 POP PUSH2 0x18ED JUMP JUMPDEST DUP2 PUSH1 0x1 DUP2 EQ PUSH2 0x1855 JUMPI PUSH1 0x2 DUP2 EQ PUSH2 0x185F JUMPI PUSH2 0x188E JUMP JUMPDEST PUSH1 0x1 SWAP2 POP POP PUSH2 0x18ED JUMP JUMPDEST PUSH1 0xFF DUP5 GT ISZERO PUSH2 0x1871 JUMPI PUSH2 0x1870 PUSH2 0x163E JUMP JUMPDEST JUMPDEST DUP4 PUSH1 0x2 EXP SWAP2 POP DUP5 DUP3 GT ISZERO PUSH2 0x1888 JUMPI PUSH2 0x1887 PUSH2 0x163E JUMP JUMPDEST JUMPDEST POP PUSH2 0x18ED JUMP JUMPDEST POP PUSH1 0x20 DUP4 LT PUSH2 0x133 DUP4 LT AND PUSH1 0x4E DUP5 LT PUSH1 0xB DUP5 LT AND OR ISZERO PUSH2 0x18C3 JUMPI DUP3 DUP3 EXP SWAP1 POP DUP4 DUP2 GT ISZERO PUSH2 0x18BE JUMPI PUSH2 0x18BD PUSH2 0x163E JUMP JUMPDEST JUMPDEST PUSH2 0x18ED JUMP JUMPDEST PUSH2 0x18D0 DUP5 DUP5 DUP5 PUSH1 0x1 PUSH2 0x17CE JUMP JUMPDEST SWAP3 POP SWAP1 POP DUP2 DUP5 DIV DUP2 GT ISZERO PUSH2 0x18E7 JUMPI PUSH2 0x18E6 PUSH2 0x163E JUMP JUMPDEST JUMPDEST DUP2 DUP2 MUL SWAP1 POP JUMPDEST SWAP4 SWAP3 POP POP POP JUMP JUMPDEST PUSH1 0x0 PUSH2 0x18FF DUP3 PUSH2 0x129B JUMP JUMPDEST SWAP2 POP PUSH2 0x190A DUP4 PUSH2 0x14E2 JUMP JUMPDEST SWAP3 POP PUSH2 0x1937 PUSH32 0xFFFFFFFFFFFFFFFFFFFFFFFFFFFFFFFFFFFFFFFFFFFFFFFFFFFFFFFFFFFFFFFF DUP5 DUP5 PUSH2 0x1821 JUMP JUMPDEST SWAP1 POP SWAP3 SWAP2 POP POP JUMP JUMPDEST PUSH1 0x0 PUSH2 0x194A DUP3 PUSH2 0x129B JUMP JUMPDEST SWAP2 POP PUSH2 0x1955 DUP4 PUSH2 0x129B JUMP JUMPDEST SWAP3 POP DUP2 PUSH32 0xFFFFFFFFFFFFFFFFFFFFFFFFFFFFFFFFFFFFFFFFFFFFFFFFFFFFFFFFFFFFFFFF DIV DUP4 GT DUP3 ISZERO ISZERO AND ISZERO PUSH2 0x198E JUMPI PUSH2 0x198D PUSH2 0x163E JUMP JUMPDEST JUMPDEST DUP3 DUP3 MUL SWAP1 POP SWAP3 SWAP2 POP POP JUMP JUMPDEST PUSH32 0x4E487B7100000000000000000000000000000000000000000000000000000000 PUSH1 0x0 MSTORE PUSH1 0x12 PUSH1 0x4 MSTORE PUSH1 0x24 PUSH1 0x0 REVERT JUMPDEST PUSH1 0x0 PUSH2 0x19D3 DUP3 PUSH2 0x129B JUMP JUMPDEST SWAP2 POP PUSH2 0x19DE DUP4 PUSH2 0x129B JUMP JUMPDEST SWAP3 POP DUP3 PUSH2 0x19EE JUMPI PUSH2 0x19ED PUSH2 0x1999 JUMP JUMPDEST JUMPDEST DUP3 DUP3 DIV SWAP1 POP SWAP3 SWAP2 POP POP JUMP JUMPDEST PUSH32 0x45524332303A2064656372656173656420616C6C6F77616E63652062656C6F77 PUSH1 0x0 DUP3 ADD MSTORE PUSH32 0x207A65726F000000000000000000000000000000000000000000000000000000 PUSH1 0x20 DUP3 ADD MSTORE POP JUMP JUMPDEST PUSH1 0x0 PUSH2 0x1A55 PUSH1 0x25 DUP4 PUSH2 0x12DA JUMP JUMPDEST SWAP2 POP PUSH2 0x1A60 DUP3 PUSH2 0x19F9 JUMP JUMPDEST PUSH1 0x40 DUP3 ADD SWAP1 POP SWAP2 SWAP1 POP JUMP JUMPDEST PUSH1 0x0 PUSH1 0x20 DUP3 ADD SWAP1 POP DUP2 DUP2 SUB PUSH1 0x0 DUP4 ADD MSTORE PUSH2 0x1A84 DUP2 PUSH2 0x1A48 JUMP JUMPDEST SWAP1 POP SWAP2 SWAP1 POP JUMP JUMPDEST PUSH32 0x4F776E61626C653A206E6577206F776E657220697320746865207A65726F2061 PUSH1 0x0 DUP3 ADD MSTORE PUSH32 0x6464726573730000000000000000000000000000000000000000000000000000 PUSH1 0x20 DUP3 ADD MSTORE POP JUMP JUMPDEST PUSH1 0x0 PUSH2 0x1AE7 PUSH1 0x26 DUP4 PUSH2 0x12DA JUMP JUMPDEST SWAP2 POP PUSH2 0x1AF2 DUP3 PUSH2 0x1A8B JUMP JUMPDEST PUSH1 0x40 DUP3 ADD SWAP1 POP SWAP2 SWAP1 POP JUMP JUMPDEST PUSH1 0x0 PUSH1 0x20 DUP3 ADD SWAP1 POP DUP2 DUP2 SUB PUSH1 0x0 DUP4 ADD MSTORE PUSH2 0x1B16 DUP2 PUSH2 0x1ADA JUMP JUMPDEST SWAP1 POP SWAP2 SWAP1 POP JUMP JUMPDEST PUSH32 0x45524332303A20617070726F76652066726F6D20746865207A65726F20616464 PUSH1 0x0 DUP3 ADD MSTORE PUSH32 0x7265737300000000000000000000000000000000000000000000000000000000 PUSH1 0x20 DUP3 ADD MSTORE POP JUMP JUMPDEST PUSH1 0x0 PUSH2 0x1B79 PUSH1 0x24 DUP4 PUSH2 0x12DA JUMP JUMPDEST SWAP2 POP PUSH2 0x1B84 DUP3 PUSH2 0x1B1D JUMP JUMPDEST PUSH1 0x40 DUP3 ADD SWAP1 POP SWAP2 SWAP1 POP JUMP JUMPDEST PUSH1 0x0 PUSH1 0x20 DUP3 ADD SWAP1 POP DUP2 DUP2 SUB PUSH1 0x0 DUP4 ADD MSTORE PUSH2 0x1BA8 DUP2 PUSH2 0x1B6C JUMP JUMPDEST SWAP1 POP SWAP2 SWAP1 POP JUMP JUMPDEST PUSH32 0x45524332303A20617070726F766520746F20746865207A65726F206164647265 PUSH1 0x0 DUP3 ADD MSTORE PUSH32 0x7373000000000000000000000000000000000000000000000000000000000000 PUSH1 0x20 DUP3 ADD MSTORE POP JUMP JUMPDEST PUSH1 0x0 PUSH2 0x1C0B PUSH1 0x22 DUP4 PUSH2 0x12DA JUMP JUMPDEST SWAP2 POP PUSH2 0x1C16 DUP3 PUSH2 0x1BAF JUMP JUMPDEST PUSH1 0x40 DUP3 ADD SWAP1 POP SWAP2 SWAP1 POP JUMP JUMPDEST PUSH1 0x0 PUSH1 0x20 DUP3 ADD SWAP1 POP DUP2 DUP2 SUB PUSH1 0x0 DUP4 ADD MSTORE PUSH2 0x1C3A DUP2 PUSH2 0x1BFE JUMP JUMPDEST SWAP1 POP SWAP2 SWAP1 POP JUMP JUMPDEST PUSH32 0x45524332303A20696E73756666696369656E7420616C6C6F77616E6365000000 PUSH1 0x0 DUP3 ADD MSTORE POP JUMP JUMPDEST PUSH1 0x0 PUSH2 0x1C77 PUSH1 0x1D DUP4 PUSH2 0x12DA JUMP JUMPDEST SWAP2 POP PUSH2 0x1C82 DUP3 PUSH2 0x1C41 JUMP JUMPDEST PUSH1 0x20 DUP3 ADD SWAP1 POP SWAP2 SWAP1 POP JUMP JUMPDEST PUSH1 0x0 PUSH1 0x20 DUP3 ADD SWAP1 POP DUP2 DUP2 SUB PUSH1 0x0 DUP4 ADD MSTORE PUSH2 0x1CA6 DUP2 PUSH2 0x1C6A JUMP JUMPDEST SWAP1 POP SWAP2 SWAP1 POP JUMP JUMPDEST PUSH32 0x45524332303A207472616E736665722066726F6D20746865207A65726F206164 PUSH1 0x0 DUP3 ADD MSTORE PUSH32 0x6472657373000000000000000000000000000000000000000000000000000000 PUSH1 0x20 DUP3 ADD MSTORE POP JUMP JUMPDEST PUSH1 0x0 PUSH2 0x1D09 PUSH1 0x25 DUP4 PUSH2 0x12DA JUMP JUMPDEST SWAP2 POP PUSH2 0x1D14 DUP3 PUSH2 0x1CAD JUMP JUMPDEST PUSH1 0x40 DUP3 ADD SWAP1 POP SWAP2 SWAP1 POP JUMP JUMPDEST PUSH1 0x0 PUSH1 0x20 DUP3 ADD SWAP1 POP DUP2 DUP2 SUB PUSH1 0x0 DUP4 ADD MSTORE PUSH2 0x1D38 DUP2 PUSH2 0x1CFC JUMP JUMPDEST SWAP1 POP SWAP2 SWAP1 POP JUMP JUMPDEST PUSH32 0x45524332303A207472616E7366657220746F20746865207A65726F2061646472 PUSH1 0x0 DUP3 ADD MSTORE PUSH32 0x6573730000000000000000000000000000000000000000000000000000000000 PUSH1 0x20 DUP3 ADD MSTORE POP JUMP JUMPDEST PUSH1 0x0 PUSH2 0x1D9B PUSH1 0x23 DUP4 PUSH2 0x12DA JUMP JUMPDEST SWAP2 POP PUSH2 0x1DA6 DUP3 PUSH2 0x1D3F JUMP JUMPDEST PUSH1 0x40 DUP3 ADD SWAP1 POP SWAP2 SWAP1 POP JUMP JUMPDEST PUSH1 0x0 PUSH1 0x20 DUP3 ADD SWAP1 POP DUP2 DUP2 SUB PUSH1 0x0 DUP4 ADD MSTORE PUSH2 0x1DCA DUP2 PUSH2 0x1D8E JUMP JUMPDEST SWAP1 POP SWAP2 SWAP1 POP JUMP JUMPDEST PUSH32 0x45524332303A207472616E7366657220616D6F756E7420657863656564732062 PUSH1 0x0 DUP3 ADD MSTORE PUSH32 0x616C616E63650000000000000000000000000000000000000000000000000000 PUSH1 0x20 DUP3 ADD MSTORE POP JUMP JUMPDEST PUSH1 0x0 PUSH2 0x1E2D PUSH1 0x26 DUP4 PUSH2 0x12DA JUMP JUMPDEST SWAP2 POP PUSH2 0x1E38 DUP3 PUSH2 0x1DD1 JUMP JUMPDEST PUSH1 0x40 DUP3 ADD SWAP1 POP SWAP2 SWAP1 POP JUMP JUMPDEST PUSH1 0x0 PUSH1 0x20 DUP3 ADD SWAP1 POP DUP2 DUP2 SUB PUSH1 0x0 DUP4 ADD MSTORE PUSH2 0x1E5C DUP2 PUSH2 0x1E20 JUMP JUMPDEST SWAP1 POP SWAP2 SWAP1 POP JUMP JUMPDEST PUSH32 0x45524332303A206D696E7420746F20746865207A65726F206164647265737300 PUSH1 0x0 DUP3 ADD MSTORE POP JUMP JUMPDEST PUSH1 0x0 PUSH2 0x1E99 PUSH1 0x1F DUP4 PUSH2 0x12DA JUMP JUMPDEST SWAP2 POP PUSH2 0x1EA4 DUP3 PUSH2 0x1E63 JUMP JUMPDEST PUSH1 0x20 DUP3 ADD SWAP1 POP SWAP2 SWAP1 POP JUMP JUMPDEST PUSH1 0x0 PUSH1 0x20 DUP3 ADD SWAP1 POP DUP2 DUP2 SUB PUSH1 0x0 DUP4 ADD MSTORE PUSH2 0x1EC8 DUP2 PUSH2 0x1E8C JUMP JUMPDEST SWAP1 POP SWAP2 SWAP1 POP JUMP INVALID LOG2 PUSH5 0x6970667358 0x22 SLT KECCAK256 PUSH12 0x5CCA47241610B436229AAE9E 0xE9 EXTCODESIZE 0xB4 LOG0 STATICCALL 0xD1 0x24 DUP14 0xB3 0xF CALLDATALOAD SSTORE 0xB1 SIGNEXTEND PUSH32 0xDB3F49B064736F6C634300080C00330000000000000000000000000000000000 "
				},
				"gasEstimates": {
					"creation": {
						"codeDepositCost": "1588200",
						"executionCost": "infinite",
						"totalCost": "infinite"
					},
					"external": {
						"_buyTokenPrice()": "2496",
						"_owner()": "2580",
						"allowance(address,address)": "infinite",
						"approve(address,uint256)": "infinite",
						"balanceOf(address)": "2864",
						"buyToken(address)": "infinite",
						"decimals()": "388",
						"decreaseAllowance(address,uint256)": "infinite",
						"increaseAllowance(address,uint256)": "infinite",
						"name()": "infinite",
						"owner()": "2611",
						"renounceOwnership()": "30419",
						"setTokenBuyPrice(uint256)": "24801",
						"symbol()": "infinite",
						"totalSupply()": "2527",
						"transfer(address,uint256)": "infinite",
						"transferFrom(address,address,uint256)": "infinite",
						"transferOwnership(address)": "30833",
						"zenyaPerEth()": "2453"
					}
				},
				"methodIdentifiers": {
					"_buyTokenPrice()": "35789c8b",
					"_owner()": "b2bdfa7b",
					"allowance(address,address)": "dd62ed3e",
					"approve(address,uint256)": "095ea7b3",
					"balanceOf(address)": "70a08231",
					"buyToken(address)": "7e72fb52",
					"decimals()": "313ce567",
					"decreaseAllowance(address,uint256)": "a457c2d7",
					"increaseAllowance(address,uint256)": "39509351",
					"name()": "06fdde03",
					"owner()": "8da5cb5b",
					"renounceOwnership()": "715018a6",
					"setTokenBuyPrice(uint256)": "4be21e33",
					"symbol()": "95d89b41",
					"totalSupply()": "18160ddd",
					"transfer(address,uint256)": "a9059cbb",
					"transferFrom(address,address,uint256)": "23b872dd",
					"transferOwnership(address)": "f2fde38b",
					"zenyaPerEth()": "046e2edb"
				}
			},
			"userdoc": {
				"kind": "user",
				"methods": {},
				"version": 1
			}
		}
	}
}